:020000040800F2
:10000000200A0020E1500008050400080704000849
:100010000B0400080F04000813040008000000008F
:1000200000000000000000000000000017040008AD
:1000300019040008000000001B0400081D0400084B
:10004000FB500008FB500008FB500008FB50000864
:10005000FB500008FB500008FB500008FB50000854
:10006000FB500008FB500008FB500008FB50000844
:10007000FB500008FB500008FB500008FB50000834
:10008000FB500008FB500008FB500008FB50000824
:10009000FB500008FB500008FB500008FB50000814
:1000A000FB500008FB500008FB500008FB50000804
:1000B000FB500008FB50000801060008FB50000838
:1000C000FB500008FB500008FB500008FB500008E4
:1000D000FB50000835190008FB500008FB500008D1
:1000E000FB500008FB500008FB500008FB500008C4
:1000F000FB500008FB500008FB500008FB500008B4
:10010000FB500008FB500008FB500008FB500008A3
:10011000FB500008FB500008FB500008FB50000893
:10012000FB500008FB500008FB500008FB50000883
:1001300000F002F800F0B4F80AA090E8000C824445
:100140008344AAF10107DA4501D100F0A9F8AFF222
:10015000090EBAE80F0013F0010F18BFFB1A43F0A5
:1001600001031847F0C3000010C400000A444FF018
:10017000000C10F8013B13F0070408BF10F8014B06
:100180001D1108BF10F8015B641E05D010F8016B4B
:10019000641E01F8016BF9D113F0080F1EBF10F8AF
:1001A000014BAD1C0C1B09D16D1E58BF01F801CBD2
:1001B000FAD505E014F8016B01F8016B6D1EF9D555
:1001C0009142D6D37047000000230024002500266A
:1001D000103A28BF78C1FBD8520728BF30C148BFAA
:1001E0000B6070476E2907F0EC80702906F0B5852A
:1001F00066290BF0468165290BF0438167290BF0D6
:1002000040816129AFF3008003681B0A28BF41F0D9
:100210008001692906F02685642906F02385752961
:1002200006F020856F2907F0D781782906F08185AF
:10023000E92907F07181E42907F06E81F52907F0BB
:100240006B81EF2907F0D481F82906F080850368D7
:10025000DB0928BF41F08001632907F0CC847329B2
:1002600007F0D184E32907F0DC84F32907F0E18467
:10027000002070471FB59DE8030006F02FFF07F030
:1002800055FD04000020002109F0F0FE401C6060D4
:100290000020002109F0D4FEE0601FBD10B510BDA4
:1002A00007F016FD1146FFF7E5FF00F033F808F000
:1002B00041F803B4FFF7F2FF03BC04F0B2FE000004
:1002C00008B54FF4A06005F0AFFC012144F61C0016
:1002D00005F042FA0121072005F04BFA1E208DF8A7
:1002E000000001208DF801008DF802008DF8030058
:1002F000684605F09EFC25208DF8000000208DF852
:1003000001008DF8020001208DF80300684605F019
:1003100090FC08BD00F0F3F84FF4A06005F084FCF9
:10032000FFF7CEFF04F010FE002140F6B83000F0D9
:1003300033FD002140F6B83000F09FFD01F0F2F9E6
:1003400000F00AFE1E4B1F4A1F49204800F0D2F958
:100350001F4B1C4A1F49204800F0CCF901F047FC14
:100360004FF4FA7004F02DFE00BF04F005FC0028E5
:10037000FBD1472142F20F7000F08FF917A11C4802
:1003800001F025FA1AE000F009FE1A480078012869
:1003900014D1194800680AF065FE18490860184829
:1003A00000680AF05FFE154948600848406864210B
:1003B00090FBF1F01149886004F063FDE3E7000071
:1003C0000000C842CDCC4C3E0000F041600200204D
:1003D00000004843000070428002002020CFB5CDCD
:1003E000B3C6F4B6AFB3C9B9A6210D0A0000000028
:1003F000003801400100002004000020AC03002070
:1004000008000020704700BFFEE700BFFEE700BF06
:10041000FEE700BFFEE77047704770477047000077
:100420000CB50020019000906C48006840F48030CA
:100430006A49086000BF6948006800F40030009015
:100440000198401C0190009818B90198B0F5A06F70
:10045000F1D16248006800F4003010B10120009032
:1004600001E0002000900098012843D15C4800681A
:1004700040F010005A4908600846006820F0030068
:1004800008600846006840F0020008605348406871
:10049000524948600846406848600846406840F451
:1004A000806048600846406820F47C104860084638
:1004B000406840F4E81048600846006840F08070EA
:1004C000086000BF4548006800F000700028F9D0BF
:1004D0004248406820F003004049486008464068B0
:1004E00040F00200486000BF3C48406800F00C004B
:1004F0000828F9D10CBD10B5FFF792FF10BD10B55B
:100500003648006840F001003449086008464068F9
:10051000344908403149486008460068324908407B
:100520002E4908600846006820F4802008600846CC
:10053000406820F4FE0048604FF41F008860FFF719
:10054000DAFF4FF000602949086010BD10B50021A6
:1005500000200022214B5B6803F00C0121B104292B
:1005600006D0082928D107E0214B224C236027E040
:100570001F4B204C236023E0184B5B6803F4701082
:10058000164B5B6803F48032022303EB904022B9E0
:10059000194B4343174C23600DE0104B5B6803F489
:1005A000003323B1144B4343124C236003E0104B40
:1005B0004343104C236003E00D4B0E4C236000BFFF
:1005C00000BF064B5B68C3F303130C4CE15C094BA3
:1005D0001B68CB40074C236010BD00000010024098
:1005E000002002400000FFF8FFFFF6FE08ED00E0EB
:1005F00000127A001C00002000093D0020000020AD
:1006000010B50121364806F076FA30B3354A36493E
:10061000364804F007FB36480078072817D2DFE891
:1006200000F01604070A0D10130000F000F90FE0A7
:1006300000F077F90CE000F0EEF909E000F006FBBD
:1006400006E000F04DFB03E000F04AFB00E000BFD5
:1006500000BF0121224806F05FFA10BD3EB50546F5
:100660000C46ADF80450ADF800400020ADF806008F
:10067000ADF8020069464FF0804005F017FC0121FB
:10068000880706F035FA0121880705F06BFF012283
:100690001146900705F081FF3EBD3EB505460C466C
:1006A0000121042005F065F8ADF80450ADF80040D4
:1006B0000020ADF80600ADF802006946084805F0D4
:1006C000F5FB0121064806F013FA0121044805F064
:1006D00049FF01221146024805F05FFF3EBD0000C0
:1006E000000800400C00002008000020040000204A
:1006F0000000002010B50024046044608160C260E6
:10070000036144618461C46110BD2DE9F84F044662
:100710000D46164625602168881B0AF0DFFC6061E3
:10072000D4E905010AF038FE00906169E0690AF039
:1007300035FBE0610021E0680AF060FC0DD01D4847
:10074000E1680AF099FB0746E1690AF0F3FC04D27C
:100750001848E1680AF090FBE061216900980AF00E
:100760001DFD8146E169E0680AF018FD8246A16836
:1007700060690AF013FD834651460AF00FFB80467C
:1007800049460AF00BFB07460AF06CFC606040F635
:10079000B7316068884201DB0846606006496068DE
:1007A000884201DC084660606069A0616068BDE85D
:1007B000F88F000000703B4549F4FFFF0146002917
:1007C0000CDA0020FE4A1080484212069087002072
:1007D000FC4A10804842121D108009E0F84A11803E
:1007E000002012069087F74A121D1080121F1180F8
:1007F00000207047014600290DDA00204FF08042AA
:100800009086484210874842EE4A121F108000200E
:10081000121F108009E04FF080429186002010875F
:10082000E84A121F1080121F1180002070472DE926
:10083000F04F85B0E44804900020039002900190AE
:100840000090E2480068401DE049086008460068E2
:100850000AF05CFC0446DC490AF00EFB01900198AA
:100860000AF070FA0646DA4ADA4B09F05BFF0446F2
:1008700009F012FC0090D849D84800680AF0FCFA48
:1008800082460AF05FFA804609F0CAF806464FF041
:100890004042D34B09F046FF044609F0FDFB0290AD
:1008A00000980AF04FFA804609F054FB04460D46C2
:1008B00002980AF047FA064622462B4609F032FF14
:1008C000824609F0E9FB0390C64BC74AC749C848AE
:1008D000FFF710FFC34BC44AC449C548FFF70AFFDE
:1008E000C44800680AF0BEFB054603980AF0BAFB4C
:1008F00006462A463146BE48FFF707FF0446FFF783
:100900005DFFBD4800680AF0ADFB05462A460021A0
:10091000BA48FFF7FAFE0446FFF76CFF05B0BDE8E2
:10092000F08F2DE9F04F85B0B5480490002003907A
:10093000029001900090B3480068401DB1490860E2
:10094000084600680AF0E2FB0446AD490AF094FA52
:10095000019001980AF0F6F906469D4A9D4B09F070
:10096000E1FE044609F098FB0090A7499B48006807
:100970000AF082FA82460AF0E5F9804609F050F85A
:1009800006464FF04042964B09F0CCFE044609F073
:1009900083FB029000980AF0D5F9804609F0DAFA54
:1009A00004460D4602980AF0CDF9064622462B462B
:1009B00009F0B8FE824609F06FFB0390934B8A4A18
:1009C00093498B48FFF796FE904B874A9049884899
:1009D000FFF790FE874800680AF044FB054603983D
:1009E0000AF040FB06462A4631468148FFF78DFE55
:1009F0000446FFF7E3FE804800680AF033FB054633
:100A00002A4600217D48FFF780FE0446FFF7F2FEEC
:100A100005B0BDE8F08F2DE9F04F9FB07D481D90E7
:100A20004C227D490AA806F097FA00200990089008
:100A300007900690059004900390029077497848BB
:100A400000680AF019FA04460AF028FB0490754879
:100A50000068401D73490860084600680AF056FBAC
:100A600004466C490AF008FA039003980AF06AF900
:100A70000646574A574B09F055FE044609F00CFB51
:100A800002905549554800680AF0F6F982460AF086
:100A900059F9804608F0C4FF06464FF04042504BDB
:100AA00009F040FE044609F0F7FA05905C4800683A
:100AB0000AF048F980465C4A5C4B09F033FE064672
:100AC00009F094F982468B4605980AF03BF95246A4
:100AD0005B46CDE9000109F025FE044609F0DCFA89
:100AE00007904F4800680AF02DF906464E4A4F4BD2
:100AF00009F018FE044609F02DFA8046894605984B
:100B00000AF020F942464B46CDE9000109F00AFE01
:100B1000824609F0C1FA069002980AF013F982465B
:100B200009F018FA06460F4607980AF00BF98046B6
:100B300032463B4609F0F6FD044609F0ADFA09904D
:100B40000AAA049852F8201002980AF027F9019096
:100B50000AF0F8F8804609F0FDF906460F460698B7
:100B60000AF0F0F8824632463B4609F0DBFD0446C7
:100B700009F092FA0890254B1B4A25491C48FFF7BB
:100B8000B9FD224B184A22491948FFF7B3FD19480D
:100B900000680AF067FA054608980AF063FA064604
:100BA0002A4631461248FFF7B0FD0446FFF706FE1D
:100BB000114800680AF056FA0546099838E0000026
:100BC000400000403C0400400040B0443C00002095
:100BD0006E861BF0F92119400000CC423000002045
:100BE000DCA54C400000C842CDCC4C3E0000F0419A
:100BF0006002002008000020040000208002002085
:100C00000020EE44400000200000DC420000484389
:100C1000000070420060E04484B5000800002041FC
:100C20003400002044000020514CDE0033DF913FAF
:100C30000AF018FA06462A4631464848FFF765FD8D
:100C40000446FFF7D7FD1FB0BDE8F08F2DE9F04156
:100C5000434800680AF076F8054606F04DF9044668
:100C600009F0F9FC074600223E4B09F01FFD35D282
:100C70003D4800680AF066F8054606F03DF904466E
:100C800009F0E9FC07460022364B09F00FFD25D29A
:100C9000364B374A37493848FFF72CFD334B344A37
:100CA00034493548FFF726FD2F4800680AF0DAF985
:100CB00005462A4600213048FFF727FD0446FFF786
:100CC0007DFD274800680AF0CDF905462A46002137
:100CD0002248FFF71AFD0446FFF78CFDBDE8F081BE
:100CE0002DE9F04F87B0DFF894B000200690059012
:100CF000049003908246029021480068401D2049DC
:100D00000860084600680AF001FA044659460AF0ED
:100D1000B3F8824650460AF015F80646194A1A4BAF
:100D200009F000FD044609F0B7F902901749184888
:100D300000680AF0A1F801900AF004F8804608F073
:100D40006FFE06464FF04042124B09F0EBFC0446A2
:100D500009F0A2F9049007B0BDE8F08F80020020EE
:100D600004000020008046400800002000004843A6
:100D7000CDCC4C3E00007042600200200040B044E8
:100D8000480000206E861BF0F92119400000B04297
:100D900030000020DCA54C4030B589B005460C463B
:100DA0000121022004F0E5FC01210C2004F0D4FC18
:100DB000C020ADF8200018208DF8230003208DF806
:100DC000220008A9614804F00BFA0320ADF82000C6
:100DD00018208DF8230003208DF8220008A95C4814
:100DE00004F0FEF9ADF81850ADF814400020ADF84D
:100DF0001A00ADF8160005A9564805F057F860200E
:100E0000ADF804000120ADF806000020ADF80A009E
:100E1000ADF80C0001A94F4805F085F80020ADF8A9
:100E20000A0001A94B4805F0C0F80020ADF80A00FF
:100E300001A9484805F006F90020ADF80A0001A90B
:100E4000444805F04AF90821424805F0BBFC082156
:100E5000404805F0C0FC08213E4805F0C9FC0821C7
:100E60003C4805F0CEFC01213A4805F07BFC01210D
:100E7000384805F077FB09B030BD30B589B005467C
:100E80000C460121082004F074FC0121042004F028
:100E900063FC0F20ADF8200018208DF823000320FC
:100EA0008DF8220008A9294804F09AF9ADF81850E5
:100EB000ADF814400020ADF81A00ADF8160005A9F1
:100EC0004FF0804004F0F2FF6020ADF804000120F4
:100ED000ADF806000020ADF80A00ADF80C0001A93D
:100EE0004FF0804005F01FF80020ADF80A0001A97E
:100EF0004FF0804005F059F80020ADF80A0001A934
:100F00004FF0804005F09EF80020ADF80A0001A9DE
:100F10004FF0804005F0E1F80821C80605F052FCCA
:100F20000821C80605F057FC0821C80605F060FC3A
:100F30000821C80605F065FC0121880705F012FCB0
:100F40000121880705F00EFB09B030BD0008014003
:100F5000000C01400004004008B50121082004F005
:100F6000FBFB10208DF8030003208DF802004FF4E6
:100F70007060ADF8000069467B4804F031F9282024
:100F80008DF8030003208DF802004FF47040ADF897
:100F900000006946744804F023F908BD10B5002428
:100FA00071480C3000684FF2FF02104040F470614D
:100FB0006D4804F0CBF96C480830006800F47040CC
:100FC00008B9601E10BD052003F0FBFF664808301D
:100FD000006800F4704010B94FF0FF30F2E762484B
:100FE0000C3000684FF2FF02104040F480715E4800
:100FF00004F0ACF95C480830006800F47040B0F5CB
:10100000805F09D0B0F5005F0FD0B0F5804F15D0EC
:10101000B0F5004F1DD11AE001240120534908709A
:1010200053A1574800F0D3FB13E0022402204F499C
:10103000087054A1524800F0CAFB0AE003240320C0
:101040004A49087054A14E4800F0C1FB01E00A244F
:1010500000BF00BF44480C3000684FF2FF02104050
:1010600040F40071404804F071F93F4808300068CE
:1010700000F47040B0F5805F09D0B0F5005F0FD08C
:10108000B0F5804F15D0B0F5004F1DD11AE0042403
:1010900004203649087045A1394800F098FB13E058
:1010A000052405203149087045A1354800F08FFB23
:1010B0000AE0062406202D49087046A1304800F0B9
:1010C00086FB01E00B2400BF00BF27480C300068FE
:1010D0004FF2FF02104040F48061234804F036F9DB
:1010E00021480830006800F47040B0F5805F09D0F6
:1010F000B0F5005F08D0B0F5804F07D0B0F5004FD5
:1011000008D105E0072405E0082403E0092401E0F4
:101110000C2400BF00BF14480C3000684FF2FF02DF
:10112000104040F40061104804F010F90E480830F7
:10113000006800F47040B0F5805F09D0B0F5005F42
:1011400008D0B0F5804F07D0B0F5004F08D105E0CA
:101150000E2405E0002403E00F2401E00D2400BF6D
:1011600000BF20462EE70000000C014000000020D8
:1011700020C9E8D6C3CEAAB5DAD2BBCCE20D0A00AC
:101180000038014020C9E8D6C3CEAAB5DAB6FECCF5
:10119000E2210D0A0000000020C9E8D6C3CEAAB59E
:1011A000DAC8FDCCE2210D0A0000000020C9E8D613
:1011B000C3CEAAB5DACBC4CCE2210D0A00000000F0
:1011C00020C9E8D6C3CEAAB5DACEE5CCE2210D0A15
:1011D0000000000020C9E8D6C3CEAAB5DAC1F9CC18
:1011E000E2210D0A0000000010B5022003F0C5FE48
:1011F00010BD08B50121102004F0AEFA4FF4C05024
:10120000ADF8000010208DF8030003208DF80200D7
:101210006946864803F0E4FF4FF4C051834804F068
:101220008CF808BD10B58148406820F470407F49B3
:1012300048600846406840F44050486001207C49BE
:1012400008607C49C1F8B001FFF7CEFF0020784963
:101250000860FFF7C9FF00207649C1F8B00110BD52
:1012600010B57248406820F47040704948600846E4
:10127000406840F44050486000206D49091D0860F6
:101280006C49C1F8AC01FFF7AFFF01206849091DA7
:1012900008606849C1F8AC01FFF7A6FF10BD10B5A2
:1012A00000246248406820F4704060494860084665
:1012B000406840F40040486001205D490860FFF745
:1012C00093FF01205B49C1F8B001FFF78DFF07E0F4
:1012D000601CC4B2FA2C03DDFFF7C2FF012010BD71
:1012E0005348803800680028F2D15149091D086030
:1012F00000BFF4E710B500204D49091D08604B48B8
:10130000406820F47040494948600846406840F40D
:101310004050486000204749C1F8AC01FFF764FF26
:1013200001204349091D0860FFF75EFF0020414985
:10133000C1F8B00110BD10B500203D49091D08607D
:101340003A48406820F47040384948600846406890
:1013500040F44050486001203649C1F8AC01FFF725
:1013600043FF01203249091D0860FFF73DFF0020BF
:101370003049C1F8B00110BD70B504462B48406833
:1013800020F47040294948600846406840F44050C5
:10139000486000202649091D0860002512E0E00988
:1013A000234908606006040E01202249C1F8B001FB
:1013B000FFF71AFF00201E49091D0860FFF714FF00
:1013C000681CC5B2082DEADB70BD70B50546002467
:1013D0001648406820F47040144948600846406848
:1013E00040F400404860002615E000201049091D27
:1013F0000860FFF7F9FE01200E49C1F8B001600650
:10140000040E0B488038006808B1601CC4B2FFF7B6
:10141000EBFE701CC6B2082EE7DB15B9FFF78BFF99
:1014200001E0FFF767FF204670BD0000001001409B
:10143000AC0122420000224270B504460D46002055
:10144000FFF7BCF90020FFF7D5F9002076490870B6
:1014500076A1794800F0BBF970BD2DE9F041044652
:101460000D46022C03DA75A1734800F0B0F96868E4
:1014700008F0A6FC064609F0C1F87549087075A188
:101480006D4800F0A4F9BDE8F0812DE9F041044673
:101490000D46022C03DA69A1674800F098F96868E4
:1014A00008F08EFC064608F0F7FD6D4988608868F4
:1014B00009F048FC064632460B466AA15E4800F039
:1014C00086F9BDE8F0812DE9F04104460D46022C75
:1014D00003DA5AA1584800F07AF9686808F070FCFD
:1014E000064608F0D9FD5E49C860C86809F02AFCC4
:1014F000064632460B465FA14F4800F068F9BDE84A
:10150000F0812DE9F04104460D46022C03DA4BA18F
:10151000494800F05CF9686808F052FC064608F09B
:10152000BBFD4F490861086909F00CFC06463246CC
:101530000B4655A1404800F04AF9BDE8F0812DE97D
:10154000F04104460D46022C03DA3CA13A4800F073
:101550003EF9686808F034FC064608F09DFD4F49E6
:101560008860886809F0EEFB064632460B464CA1BF
:10157000314800F02CF9BDE8F0812DE9F041044636
:101580000D46022C03DA2DA12B4800F020F96868E3
:1015900008F016FC064608F07FFD4049C860C868A0
:1015A00009F0D0FB064632460B4645A1224800F022
:1015B0000EF9BDE8F0812DE9F04104460D46022CFC
:1015C00003DA1EA11C4800F002F9686808F0F8FB75
:1015D000064608F061FD31490861086909F0B2FB6F
:1015E000064632460B463EA1134800F0F0F8BDE82F
:1015F000F0812DE9F04104460D46022C04DA40A1A9
:101600000D4800F0E4F80DE0686808F0D9FB0646E4
:1016100008F0F4FF04490870084602783CA1064827
:1016200000F0D5F8BDE8F08100000020BDE1CAF867
:10163000D4CBD0D00A000000003801406572726F30
:1016400072217365745F73706565645F700A000072
:1016500001000020BFAACABCD4CBD0D00A00000031
:10166000600200202020206D6F746F725F706964CB
:1016700025660A0020206D6F746F725F7069642D9B
:101680003E4925660A00000020206D6F746F725F6E
:101690007069642D3E4425660A0000008002002027
:1016A000206D6F746F7232345F706172616D65743A
:1016B00065722E73706565645F702025660A000090
:1016C000206D6F746F7232345F706172616D65741A
:1016D00065722E73706565645F69200D25660A006A
:1016E000206D6F746F7232345F706172616D6574FA
:1016F00065722E73706565645F642025660A00005C
:101700006572726F72217365745F746573740A0019
:10171000C9E8D6C3D4CBD0D0C4A3CABD2025640A9F
:101720000000000010B588B04FF40070ADF80C0058
:1017300018208DF80F0003208DF80E0003A9CD4866
:1017400003F04EFD4FF48060ADF80C0004208DF8DE
:101750000F0003A9C74803F043FD4FF4E1300490A4
:101760000020ADF81600ADF81400ADF81800ADF883
:101770001C000C20ADF81A000020ADF804004FF456
:101780000070ADF808000020ADF80600ADF80A00C2
:1017900001A9B94804F0FCF804A9B74804F083F89B
:1017A000012240F22551B44804F015F90121B24854
:1017B00004F005F9002406E00A2005F0B1F9AF496C
:1017C00041F82400641C042CF6DB08B010BD0FB4F3
:1017D00030B5A1B00546002426A80090802101A8BC
:1017E000009B259A05F0F0F98021284604F0CFF9F6
:1017F00026E001A8005D0A2813D10D21284604F037
:101800004BF900BF8021284604F0B4F90028F9D034
:101810002046621CD4B201AA115C284604F03CF9AF
:1018200007E02046621CD4B201AA115C284604F0ED
:1018300033F900BF8021284604F09CF90028F9D034
:10184000802C03DA01A8005D0028D2D1002000908E
:1018500021B030BC5DF814FB2DE9F04105460E4681
:101860000024092715B9601EBDE8F081002418E0A6
:1018700004EB4402824B03EB0210316805F0CEFB0F
:1018800070B980A17C48FFF7A2FF04EB44007C49BB
:1018900001EB00103146C26A284690470020E3E77A
:1018A000641CBC42E4D36FF00100DDE72DE9F04198
:1018B00003460F46144600250022002128466D1CD1
:1018C0001E5C25E0202E14D11AB928466D1C1E5C22
:1018D0001EE0042902D1481FBDE8F081002054F821
:1018E00021C00CF80200491C002228466D1C1E5C19
:1018F0000EE0092A02D16FF00100EDE754F82180D3
:101900001046521C08F8006028466D1C1E5C00BF83
:101910000D2ED7D119B912B96FF00200DCE74FF0E4
:1019200000080846491C54F8200000F8028039607D
:101930000020D1E7F8B540F225514F4804F030F9C6
:10194000002866D040F225514B4804F053F94A482C
:1019500004F0A6F8C6B20A2E5CD14BA14648FFF7A8
:1019600036FF4B48006800B9F8BD4A480168006876
:10197000401C484A106048484654404A6946FFF7B0
:1019800095FF0446002C22DAE01C48B900204049AB
:1019900008604049086020213F4805F017FBE3E755
:1019A000A01C20B93DA13448FFF711FF05E0601CE1
:1019B00018B940A13048FFF70AFF002034490860F9
:1019C000344908602121344805F000FBCCE72B495D
:1019D0000098FFF741FF0446002C11DAA01C28B93B
:1019E000264838A102682448FFF7F1FE0020284964
:1019F0000860284908602121274805F0E7FAB3E785
:101A0000002023490860234908602121224805F06D
:101A1000DDFA2CE01E480068202805D100201C4972
:101A200008601C4908609FE700250BE01948006822
:101A3000401B401E1849085C16490968491B164A94
:101A400050546D1C1348006811490968401AA84297
:101A5000ECD811480E49096846540D480068401CEE
:101A60000B4908600B480068401C0A49086000BF29
:101A70007AE700000008014000380140C40200205D
:101A8000500000200A000000646F6E650000000036
:101A90000002002004020020A00200200A746865F1
:101AA00020706172616D20697320746F6F206C6F9C
:101AB0006E6700000A746F6F206D616E792070612F
:101AC00072616D000D0A6E6F742066696E6420632A
:101AD0006F6D6D6D616E643A25730A0070B50546D1
:101AE0000C46FFF79FFBD020FFF746FCFFF7D7FB24
:101AF00018B1FFF7B5FB012070BD2846FFF73CFC8D
:101B0000FFF7CDFB2046FFF737FCFFF7C8FB18B106
:101B1000FFF7A6FB0120EFE7FFF7A2FB0020EBE7B2
:101B200070B504460025BC2C01DB012510E0622CB9
:101B300001DB02250CE02A2C01DB032508E0142C34
:101B400001DB042504E00A2C01DB052500E0062565
:101B500029461A20FFF7C2FF70BD70B50446B4F5E0
:101B60007A7F01DD4FF47A74042C00DA04244FF4F8
:101B70007A7090FBF4F0401EC5B229461920FFF799
:101B8000ADFF0546264604EBD671C1F34F00FFF7C3
:101B9000C7FF70BD70B50446FFF744FBD020FFF7C8
:101BA000EBFBFFF77CFB2046FFF7E6FBFFF777FB3D
:101BB000FFF738FBD120FFF7DFFBFFF770FB0020BA
:101BC000FFF703FC0546FFF74BFB284670BD10B539
:101BD0000446E006010E1C20FFF780FF10BD10B583
:101BE0000446E006010E1B20FFF778FF10BD10B57C
:101BF000FFF7FFFA80216B20FFF770FF642003F0EE
:101C0000E0F900216B20FFF769FF0320FFF7E7FFF2
:101C10000020FFF7DCFF3220FFF79FFF0021382074
:101C2000FFF75CFF00216A20FFF758FF0021232007
:101C3000FFF754FF80213720FFF750FF7520FFF793
:101C4000A9FF0446682C0BD101216B20FFF746FF4A
:101C500000216C20FFF742FF3220FFF77EFF01E0FA
:101C6000012010BD0020FCE72DE9F04106460F469B
:101C700014461D46FFF7D6FA002141EA4601C8B2D4
:101C8000FFF77AFBFFF70BFB20B1FFF7E9FA012022
:101C9000BDE8F0813846FFF76FFBFFF700FBFFF769
:101CA000C1FA012101EB4601C8B2FFF765FBFFF75E
:101CB000F6FA0DE0012C04D10020FFF786FB287016
:101CC00003E00120FFF781FB2870601EC4B26D1C89
:101CD000002CEFD1FFF7C4FA0020D9E72DE9F84F27
:101CE0006B46022241216820FFF7BEFF9DF80100EC
:101CF0009DF8001040EA01200FFA80FA504608F0E3
:101D0000AAFC804600224B4B08F0B4FA06464A4A29
:101D10004A4B08F0F3F9044608F0BEF983464849F7
:101D2000584609F03BFA044609F09CF900B2BDE8B8
:101D3000F88F2DE9FC4104460D4616466B460622F7
:101D400043216820FFF790FF0746BFB99DF80100C7
:101D50009DF8001040EA012000B220809DF80300A9
:101D60009DF8021040EA012000B228809DF805008D
:101D70009DF8041040EA012000B230803846BDE8EA
:101D8000FC812DE9FC4104460D4616466B460622B1
:101D90003B216820FFF768FF0746BFB99DF80100A7
:101DA0009DF8001040EA012000B220809DF8030059
:101DB0009DF8021040EA012000B228809DF805003D
:101DC0009DF8041040EA012000B230803846BDE89A
:101DD000FC812DE9F04105460E4617469846FFF76F
:101DE00021FA002141EA4501C8B2FFF7C5FAFFF721
:101DF00056FA20B1FFF734FA0120BDE8F0813046F1
:101E0000FFF7BAFAFFF74BFA00240CE018F80400C9
:101E1000FFF7B2FAFFF743FA18B1FFF721FA0120F2
:101E2000EBE7601CC4B2BC42F0DBFFF719FA0020FC
:101E3000E3E7000000407540A4703D0AD7434240EC
:101E40000000C84210B5C8234FF48062F74940F63D
:101E5000F63002F09BFC10BD10B586B00446F4A02D
:101E600000680390F3A000680290F3A0006801905E
:101E7000F2A00068009004F0030003A9085C8DF84C
:101E8000140003A8C4F3C101405C8DF8150003A839
:101E9000C4F38111405C8DF8160004F0030002A920
:101EA000085C8DF8100002A8C4F3C101405C8DF8F5
:101EB000110002A8C4F38111405C8DF8120005AA3C
:101EC000032140F2264002F0E7FB18B14FF0FF304B
:101ED00006B010BD04AA032140F22A4002F0DCFB48
:101EE00010B14FF0FF30F3E701980590009804908F
:101EF00004F0040058B19DF8140040F001008DF882
:101F000014009DF8100040F001008DF8100004F05E
:101F1000200058B19DF8150040F001008DF8150023
:101F20009DF8110040F001008DF8110004F480705C
:101F300058B19DF8160040F001008DF816009DF88C
:101F4000120040F001008DF8120005AA03214FF4A1
:101F5000886002F0A1FB10B14FF0FF30B8E704AA8F
:101F6000032140F2314002F097FB10B14FF0FF30F7
:101F7000AEE7B34804810020AAE71FB50446B04885
:101F8000007A00F0030054F820000190AC48007A79
:101F900000F0040010B1019840420190A848007A76
:101FA000C0F3C10054F820000290A548007A00F068
:101FB000200010B1029840420290A148007AC0F37C
:101FC000811054F8200003909D48008900F480702F
:101FD00010B10398404203909A49019880FB010197
:101FE000800F40EA810001909649029880FB011021
:101FF000820042EA917002909249039880FB01109E
:10200000820042EA917003900198000E8DF8000062
:102010000198000C8DF801000198000A8DF802006B
:102020000198C0B28DF803006A4604214FF4747021
:1020300002F032FB18B14FF0FF3004B010BD02982F
:10204000000E8DF800000298000C8DF80100029837
:10205000000A8DF802000298C0B28DF803006A46AB
:1020600004214FF4757002F017FB10B14FF0FF30F0
:10207000E3E70398000E8DF800000398000C8DF83C
:1020800001000398000A8DF802000398C0B28DF891
:1020900003006A4604214FF4767002F0FDFACCE7A3
:1020A00070B588B0064601A801F0FDFCBDF804003B
:1020B0000021C90341EA5045C4036148007A00F099
:1020C000030056F8200005905D48007A00F00400F7
:1020D00010B10598404205905948007AC0F3C100FC
:1020E00056F8200006905648007A00F0200010B103
:1020F0000698404206905248007AC0F3811056F884
:10210000200007904E48008900F4807010B10798B5
:10211000404207900598C117A0FB042301FB04313E
:1021200000FB0510810041EA927005900698C117E6
:10213000A0FB042301FB043100FB0510810041EAF0
:10214000927006900798C117A0FB042301FB04318D
:1021500000FB0510810041EA927007900598000E7F
:102160008DF808000598000C8DF809000598000A04
:102170008DF80A000598C0B28DF80B000698000E85
:102180008DF80C000698000C8DF80D000698000ADA
:102190008DF80E000698C0B28DF80F000798000E5B
:1021A0008DF810000798000C8DF811000798000AB0
:1021B0008DF812000798C0B28DF8130002AA0C2106
:1021C0004FF4257002F068FA08B070BD30B585B0E4
:1021D00004461DA207CA02AB07C3C82C03DD4FF09B
:1021E000FF3005B030BDC82090FBF4F0401E85B232
:1021F000280A8DF80000E8B28DF801006A46022135
:1022000040F2162002F048FA10B14FF0FF30E8E734
:1022100002AA0C2140F6C12002F03EFA10B14FF0A4
:10222000FF30DEE7064884810020DAE7D0B50008F9
:102230004CCD6C000CC92C00365676002646660044
:102240009C03002009E3CA02FEF2ABC4AAF1DFDF5F
:10225000BBAFDFDF0146FC48808908800020704763
:102260002DE9FC4706460F4606F0070010B1B7F50A
:10227000C86F03DD4FF0FF30BDE8FC87384608F03B
:1022800045FF8146F14908F0F7FD8046684601F0B8
:102290008EFB9DF80000022806D0042816D00828DE
:1022A00026D0102848D135E04FF08D41404608F047
:1022B00075FF814608F0F2FE84B2E549404608F019
:1022C0006DFF814608F0EAFE85B238E04FF08C41A0
:1022D000404608F063FF814608F0E0FE84B2DD4925
:1022E000404608F05BFF814608F0D8FE85B226E044
:1022F0004FF08B41404608F051FF814608F0CEFE7A
:1023000084B2D549404608F049FF814608F0C6FE30
:1023100085B214E04FF08A41404608F03FFF814605
:1023200008F0BCFE84B2CD49404608F037FF814634
:1023300008F0B4FE85B202E04FF0FF309CE700BF2A
:1023400020128DF80400E0B28DF8050028128DF8F7
:102350000600E8B28DF8070006F00100A0B101AA5E
:1023600002214FF4EA7002F097F910B14FF0FF30FC
:1023700082E70DF1060202214FF4927002F08CF90F
:1023800010B14FF0FF3077E706F00200A0B101AACC
:1023900002214FF4EC7002F07FF910B14FF0FF30E2
:1023A0006AE70DF1060202214FF4947002F074F90D
:1023B00010B14FF0FF305FE706F00400A0B101AAB2
:1023C00002214FF4EE7002F067F910B14FF0FF30C8
:1023D00052E70DF1060202214FF4967002F05CF90B
:1023E00010B14FF0FF3047E7002045E738B504460D
:1023F0000020009004F0010020B19DF8000040F0A2
:102400003000009004F0020020B19DF8000040F080
:102410000C00009004F0040020B19DF8000040F092
:10242000030000906A4601214FF4A47002F034F9D1
:1024300038BD38B50446012C01DA012402E0042C31
:1024400000DD0424601EC0B200906A46012140F203
:102450004F1002F021F938BD38B50446052094FB31
:10246000F0F085B228128DF80000E8B28DF8010076
:102470006A4602214FF4EF7002F00EF938BD38B50C
:102480000446052094FBF0F085B228128DF8000078
:10249000E8B28DF801006A4602214FF4ED7002F0B7
:1024A000FBF838BDF8B505460E464FF47A7095FB3B
:1024B000F0F000FB06F4200E8DF80000200C8DF8E3
:1024C0000100200A8DF80200E0B28DF803006A4690
:1024D00004214FF4AE7002F0DFF8F8BD38B50446C1
:1024E000052094FBF0F084B220128DF80000E0B2D9
:1024F0008DF801006A4602214FF4AD7002F0CCF86D
:1025000038BD38B50446052094FBF0F084B22012A3
:102510008DF80000E0B28DF801006A4602214FF408
:10252000AC7002F0B9F838BD38B5044614B94FF0B4
:10253000FF3038BD6A4604214FF4587002F0E9F8C4
:1025400010B14FF0FF30F4E79DF8000000069DF851
:10255000011040EA01409DF8021040EA01209DF878
:102560000310084320600020E3E738B50446200E3E
:102570008DF80000200C8DF80100200A8DF8020073
:10258000E0B28DF803006A4604214FF4587002F05F
:1025900083F838BD38B5044614B94FF0FF3038BD64
:1025A0006A4604214FF4717002F0B3F810B14FF095
:1025B000FF30F4E79DF8000000069DF8011040EAA6
:1025C00001409DF8021040EA01209DF803100843E5
:1025D00000EB8000800020600020E0E738B5044672
:1025E0001420B4FBF0F4200E8DF80000200C8DF8C0
:1025F0000100200A8DF80200E0B28DF803006A465F
:1026000004214FF4717002F047F838BD38B5044624
:1026100064B120208DF8000028208DF801003020C2
:102620008DF8020038208DF8030004E0A322042175
:10263000684604F0C3FC6A46042140F69E2002F07E
:102640002BF800F083FC38BD9C03002000004843B9
:10265000000040460000C045000040450000C04466
:1026600038B5044664B1C0208DF80000C2208DF852
:102670000100C4208DF80200C6208DF8030004E09C
:102680008B220421684604F099FC6A46042140F636
:10269000982002F001F800F059FC38BD3EB5044620
:1026A0006CB1FDA1D1E900208968CDE9002002913B
:1026B0006A4609214FF4976001F0EEFF3EBDF9A292
:1026C000D2E900109268CDE9010200916A46092121
:1026D0004FF4976001F0E0FFF0E73EB504460220BA
:1026E0008DF80000CA208DF80100E3208DF802006B
:1026F00009208DF803006A460421682001F0CCFF10
:10270000A3208DF8000004F0400048B1C0208DF8EF
:102710000100C8208DF80200C2208DF8030006E0F9
:10272000A3208DF801008DF802008DF8030004F459
:10273000C07048B1C4208DF80400CC208DF805008D
:10274000C6208DF8060006E0A3208DF804008DF861
:1027500005008DF80600A3208DF807008DF808000D
:102760008DF809006A460A2140F6A72001F094FF7F
:1027700004F0030018B120208DF8000002E0D820FA
:102780008DF800006A46012140F6B62001F084FF72
:1027900004F0200018B10120FFF780FF02E00020C4
:1027A000FFF77CFF04F4C07008B304F4807060B1DC
:1027B000B2208DF800008B208DF80100B6208DF836
:1027C00002009B208DF803000BE0B0208DF8000084
:1027D00080208DF80100B4208DF8020090208DF843
:1027E00003006A46042140F6A22001F055FF04F0E0
:1027F000010020B3F8208DF800006A4601214FF453
:102800000B6001F049FFFA210720FFF729FD07209F
:10281000FFF7ECFD0120FFF70CFE6420FFF71CFE24
:102820004FF4FA70FFF72BFEC821A148FFF73AFEDC
:102830002820FFF753FE0A20FFF763FE08E0D820A8
:102840008DF800006A4601214FF40B6001F024FF6F
:1028500004F0020018B1D9208DF8000002E0D82061
:102860008DF800006A46012140F23D7001F014FF2E
:1028700004F0040018B10120FFF7F2FE02E000208E
:10288000FFF7EEFE04F0100018B10120FFF7BEFEC6
:1028900002E00020FFF7BAFE44F0080085494881B5
:1028A00000F054FB00208349887304F0400018B105
:1028B0000846807B801D887304F4C07020B17D4879
:1028C000807B801D7B49887304F0140020B1794817
:1028D000807B10307749887304F0030020B175487D
:1028E000807B001D7349887300203EBD01467148FE
:1028F00040890880002070472DE9F0410446E078C7
:1029000000F0C006E07800F03F05607800F00100BC
:1029100098B1EF102846E91705EB5171C910A5EBE6
:10292000C101491C01F0FF086248006820B16148FC
:10293000414602683846904700BF607800F00800C2
:1029400030B15C48406818B1B0115A4A51688847A4
:102950000020BDE8F08110B586B0044656A207CA33
:1029600003AB07C357A207CA8DE80700012C09D0A3
:10297000022C0ED103AA0B2140F6822001F08CFE1E
:1029800006B010BD6A460B2140F6822001F084FE9D
:10299000F6E74FF0FF30F3E72DE9F04F8DB0074633
:1029A000884615469946DDE9166B002400203080E4
:1029B0004049887B5A4605A901F0D1F918B1601E3B
:1029C0000DB0BDE8F08F3B48807A00F0140000287D
:1029D00061D09DF8140000069DF8151040EA0140F2
:1029E0009DF8161040EA01209DF817100843286052
:1029F0009DF8180000069DF8191040EA01409DF866
:102A00001A1040EA01209DF81B10084368609DF8E9
:102A10001C0000069DF81D1040EA01409DF81E10A4
:102A200040EA01209DF81F100843A8609DF820008F
:102A300000069DF8211040EA01409DF8221040EA6E
:102A400001209DF823100843E86004F11000C4B28F
:102A5000286800140190686800140290A8680014A7
:102A60000390E8680014049001984043029901FB28
:102A70000100039901FB0100049901FB010ABAF16D
:102A8000706F02DBBAF1885F22DD00F05FFA002090
:102A90003080401E94E721E0B8AAB38DB4980D357C
:102AA0005D000000B8AAAAAAB088C3C5C70000008C
:102AB00009E3CA029C030020D8B1B9F38BA391B6F5
:102AC00009B4D900DAB1B9F38BA391B6DAB4DA005C
:102AD000B6F9000040F48070308000BF3448807A3E
:102AE00000F0400020B305A9601C085C095D40EAC5
:102AF000012000B2A8F8000005A9E01C095C05AAA5
:102B0000A01C105C41EA002000B2A8F8020005A950
:102B1000601D095C201D105C41EA002000B2A8F88D
:102B20000400A01DC4B2B6F9000040F008003080D7
:102B30001F48408900F4C07008B305A9601C085CF8
:102B4000095D40EA012000B2388005A9E01C095C5B
:102B500005AAA01C105C41EA002000B2788005A9FB
:102B6000601D095C201D105C41EA002000B2B880A5
:102B7000A01DC4B2B6F9000040F0700030800C48CF
:102B8000807A00F0030018B105A90819FFF7B4FE18
:102B9000484600F048FD002012E701460448016065
:102BA0000020704701460248416000207047000045
:102BB0009C03002038B50446F74890F82400C0B1C3
:102BC00014B10220009001E000200090F24A126847
:102BD000D17BF14A526810786B460122FFF7F9F871
:102BE00010B14FF0FF3038BD9DF80010EA48417435
:102BF00023E0E948807A10B94FF0FF30F3E724B1C1
:102C0000E548407C08B10020EDE714B101200090B8
:102C100001E000200090E04A1268D17BDE4A526851
:102C200010786B460122FFF7D4F810B14FF0FF3057
:102C3000D9E79DF80010D84841740020D3E738B593
:102C400000241FE0D4480068C07AA04204D0D248D3
:102C50000068407DA04200D112E0CF494968087861
:102C60006B4601222146FEF7FFFF10B14FF0FF3007
:102C700038BD9DF800202146C8A003F0BFFF00BF6B
:102C8000601CC4B2C44840680079A042DADC00206D
:102C9000EEE770B504460D46BF480068C07AA04212
:102CA00004D0BD480068407DA04202D14FF0FF3003
:102CB00070BDB94840680079A04202DC4FF0FF3097
:102CC000F6E7B549496808782B4601222146FEF708
:102CD000CBFFEDE738B50446AF4890F82300A0429B
:102CE00001D1002038BD14B13020009001E0002057
:102CF0000090A948807C20B19DF8000040F00200BF
:102D00000090A54890F8220020B19DF8000040F006
:102D100080000090A04A1268117D9F4A5268107886
:102D20006B460122FFF755F810B14FF0FF30D9E79D
:102D3000994880F823400020D4E738B5044604F0D1
:102D4000700010B10120009005E014B10020009047
:102D500001E040200090904A1268917C8E4A5268AF
:102D600010786B460122FFF734F820B100218A4821
:102D70008172481E38BD9DF8000020F04001864851
:102D800001730020009004F0400020B99DF800007D
:102D900040F00400009004F0200020B99DF80000ED
:102DA00040F00200009004F0100020B99DF80000EF
:102DB00040F00100009004F0080020B99DF80000E8
:102DC00040F038000090744A1268D17C724A526810
:102DD00010786B460122FEF7FCFF20B100216E48FF
:102DE0008172481EC6E724B1082C02D00020FFF7EC
:102DF00071FF6948847200210175322002F0E1F808
:102E00000020B7E738B504466348807CA04201D172
:102E1000002038BD002C46D05F4A126811795E4A06
:102E2000526810786B460122FEF71EFF10B14FF07A
:102E3000FF30EEE79DF8000020F020000090564A99
:102E400012681179544A526810786B460122FEF7D5
:102E5000C0FF10B14FF0FF30DBE7032002F0B1F804
:102E6000022000904C4890F8220020B19DF800000C
:102E700040F080000090484890F8230020B19DF871
:102E8000000040F030000090434A1268117D424A31
:102E9000526810786B460122FEF79BFF002851D044
:102EA0004FF0FF30B5E73C4A126811793A4A526850
:102EB00010786B460122FEF7D7FE10B14FF0FF30BD
:102EC000A7E73548807A00F0010028B19DF800009E
:102ED00040F02000009004E09DF8000020F0200069
:102EE00000902D4A126811792B4A526810786B466F
:102EF0000122FEF76EFF10B14FF0FF3089E703208B
:102F000002F05FF8244890F8220010B18020009071
:102F100001E000200090204890F8230020B19DF8A7
:102F2000000040F0300000901B4A1268117D1A4AE0
:102F3000526810786B460122FEF74BFF10B14FF03C
:102F4000FF3066E714488474002062E708B5124831
:102F5000807A10B94FF0FF3008BD002000900E4A73
:102F60001268D17B0C4A526810786B460122FEF73A
:102F700030FF10B14FF0FF30EEE7074A1268517989
:102F8000054A526810786B460122FEF722FF68B1AD
:102F90004FF0FF30E0E700000802002025233578DD
:102FA0003A20252335780D0A00000000F84A1268FF
:102FB0001179F74A526810786B460122FEF709FF33
:102FC00010B14FF0FF30C7E7F14890F82400002817
:102FD00053D00C200090EE4A12681179EC4A5268E6
:102FE00010786B460122FEF7F4FE10B14FF0FF306F
:102FF000B2E7322001F0E5FFC0200090E448807A7B
:1030000000F0010020B19DF8000040F02000009089
:10301000DF4A12681179DE4A526810786B46012245
:10302000FEF7D7FE10B14FF0FF3095E7D848407C4F
:1030300010B10220009001E000200090D44A1268F4
:10304000D17BD34A526810786B460122FEF7C1FE4D
:1030500010B14FF0FF307FE700200090CC4A12689B
:103060005179CB4A526810786B460122FEF7B1FEC7
:10307000002855D04FF0FF306EE704200090C44A7E
:1030800012681179C24A526810786B460122FEF725
:10309000A0FE10B14FF0FF305EE7BD48807C20B944
:1030A000BB48807A00F0010010B94020009001E098
:1030B00060200090B64A12681179B54A52681078BB
:1030C0006B460122FEF785FE10B14FF0FF3043E75B
:1030D000322001F076FFAE48407C10B10120009014
:1030E00001E000200090AA4A1268D17BA84A5268E9
:1030F00010786B460122FEF76CFE10B14FF0FF30E6
:103100002AE7A34A12685179A14A52681078A04B65
:1031100010330122FEF75DFE10B14FF0FF301BE7C8
:10312000002019E770B50446002624F001049848F1
:1031300090F8240008B1002070BD9548807A10B93D
:103140004FF0FF30F8E79248057C807A20409049A4
:1031500008740846007CA04202D04FF0FF3600E021
:10316000002614B98A48007D18B10120FFF722FD1E
:1031700002E00020FFF71EFD3CB1FFF7E7FE20B1A3
:10318000834805744FF0FF30D6E73046D4E738B5B2
:1031900004467F48807A10B94FF0FF3038BDBC2C10
:1031A00002DB0120009015E0622C02DB022000907F
:1031B00010E02A2C02DB032000900BE0142C02DB31
:1031C0000420009006E00A2C02DB0520009001E0BC
:1031D000062000906E48C07A9DF80010884201D108
:1031E0000020DBE76A4A12689178694A52681078D1
:1031F0006B460122FEF7EDFD10B14FF0FF30CDE739
:103200009DF800106248C1720020C7E738B5044637
:10321000282C02DD4FF0FF3038BDDCB90020FFF76D
:1032200059FD00208DF8000007208DF80100584A54
:103230001268917C564A526810786B460222FEF75B
:10324000C8FD10B14FF0FF30E6E70021504801758E
:103250000020E1E70120FFF73DFD20208DF8000070
:10326000012C06D100208DF801000520FFF78FFF0B
:1032700017E0052C06DC01208DF801000520FFF782
:1032800086FF0EE0142C06DC02208DF801000A20D7
:10329000FFF77DFF05E003208DF801001420FFF704
:1032A00076FF9DF80100072101EB8010C0B28DF878
:1032B0000100374A1268917C354A526810786B4693
:1032C0000222FEF786FD10B14FF0FF30A4E708217F
:1032D0002F48817200210173012101750020FFF741
:1032E00021FF002098E738B504462948807A10B9B4
:1032F0004FF0FF3038BD264890F8240010B14FF051
:10330000FF30F7E72248007D50B134B1282C04DCAF
:10331000E0B2FFF77BFF0020ECE70020FFF776FF2D
:10332000042C01DA042404E0B4F57A7F01DD4FF4C3
:103330007A744FF47A7090FBF4F0401EC0B20090A3
:10334000134A12685178124A526810786B4601226B
:10335000FEF73FFD10B14FF0FF30CBE79DF80000C6
:10336000401C4FF47A7191FBF0F081B20848C181A2
:103370000146C9894810FFF70AFF0020BAE738B5AF
:1033800004460348807A28B94FF0FF3038BD00006A
:1033900008020020022C06D0042C07D0082C08D0EC
:1033A000102C0CD108E0002000900BE008200090C9
:1033B00008E01020009005E01820009002E04FF097
:1033C000FF30E3E700BFF948407A9DF80010B0EB0A
:1033D000E10F01D10020D9E7F44A1268D179F34A0C
:1033E000526810786B460122FEF7F3FC10B14FF0E3
:1033F000FF30CBE79DF80000C110EC48417200207F
:10340000C4E738B50446E948807A10B94FF0FF3078
:1034100038BDFA2C09D0B4F5FA7F09D0B4F57A7F1B
:1034200009D0B4F5FA6F0CD108E0002000900BE051
:103430000820009008E01020009005E0182000907F
:1034400002E04FF0FF30E3E700BFD848007A9DF874
:103450000010B0EBE10F01D10020D9E7D34A126888
:103460009179D24A526810786B460122FEF7B1FC7E
:1034700010B14FF0FF30CBE79DF80000C010CB49F2
:1034800008720020C4E71CB580208DF80000C74AF0
:103490001268917CC54A526810786B460122FEF78B
:1034A00098FC10B14FF0FF301CBD642001F089FD85
:1034B00000208DF80000BD4A1268917CBB4A52681A
:1034C00010786B460122FEF784FC10B14FF0FF30FC
:1034D000EAE7B64A1268917DB44A526810786B46A2
:1034E0000622FEF7C1FB10B14FF0FF30DCE79DF87C
:1034F0000500C007400F9DF8031001F0010140EAEC
:1035000041009DF8011001F0010140EA010494B16D
:10351000012C03D10121A548C17431E0022C03D153
:103520000021A248C1742BE02146A1A003F066FB54
:103530004FF0FF30B8E79D4A1268D1789B4A526835
:1035400010786B460122FEF78FFB10B14FF0FF3071
:10355000AAE79DF8000000F00F042CB99E4803F084
:103560004DFB4FF0FF309FE7042C06D19BA003F0EA
:1035700045FB01218D48C17402E000218B48C174D4
:10358000FF218A488172FF2088490872FF218748FD
:103590004172C1724FF6FF71C181FF2101748174C4
:1035A0000121017380F82210002180F82310417559
:1035B00001751630016041608160163880F8241072
:1035C00080F82510C1844FF4FA60FFF71AFF10B19C
:1035D0004FF0FF3068E70220FFF7D1FE10B14FF047
:1035E000FF3061E72A20FFF7D2FD10B14FF0FF3026
:1035F0005AE73220FFF777FE10B14FF0FF3053E764
:103600000020FFF78FFD10B14FF0FF304CE7002096
:10361000FFF7F8FB10B14FF0FF3045E70020FFF750
:103620008CFB002040E770477CB504460D465F48A0
:10363000807A00F0700010B94FF0FF307CBD5B4A1B
:103640001268117B594A526810786B460622FEF7C1
:103650000BFB10B14FF0FF30F0E79DF801009DF833
:10366000001040EA012000B220809DF803009DF880
:10367000021040EA012000B260809DF805009DF82C
:10368000041040EA012000B2A08015B12846FFF7DF
:10369000CAFF0020D2E77CB504460D464348807A35
:1036A00000F0080010B94FF0FF307CBD3F4A1268AF
:1036B000517B3E4A526810786B460622FEF7D4FAD8
:1036C00010B14FF0FF30F0E79DF801009DF80010B9
:1036D00040EA012000B220809DF803009DF802100E
:1036E00040EA012000B260809DF805009DF80410BA
:1036F00040EA012000B2A08015B12846FFF793FFF1
:103700000020D2E72DE9FE4F05460C462748807A77
:1037100018B94FF0FF30BDE8FE8F244A1268917B44
:10372000224A5268107802AB0222FEF79DFA10B1CD
:103730004FF0FF30EFE79DF809009DF8081040EAD0
:10374000012006B214B12046FFF76DFF1749496802
:10375000C88807F0DBFC154901904968B1F90800F9
:1037600007F0BCFC8346304607F0B8FC5946009091
:1037700007F012FE8246019907F07EFB81461F4941
:1037800007F00CFB80464FF08F4107F007FD07461E
:1037900007F068FC28600020BDE710B588B004463B
:1037A0001CB94FF0FF3008B010BD29E0080200201E
:1037B000556E737570706F7274656420736F667484
:1037C000776172652070726F6475637420726576BC
:1037D0002025642E0A00000004C5000848616C66BC
:1037E0002073656E7369746976697479207061728B
:1037F0007420666F756E642E0A00000000000C4293
:10380000206830B9606820B9A06810B9002008B0FD
:1038100010BDFA494968087806AB03221146FEF745
:1038200023FA10B14FF0FF30F1E79DF8180008219E
:1038300001EB201000F00F00ADF800009DF819001A
:1038400001EB201000F00F00ADF802009DF81A0007
:1038500001EB201000F00F00ADF8040020684100DB
:10386000BDF90000403091FBF0F000B2ADF810005F
:1038700060684100BDF90200403091FBF0F000B2F9
:10388000ADF81200A0684100BDF90400403091FB82
:10389000F0F000B2ADF81400D8494968087806ABDA
:1038A00006221146FEF7E0F910B14FF0FF30AEE707
:1038B0009DF819009DF8181040EA012000B2ADF8FB
:1038C00008009DF81B009DF81A1040EA012000B284
:1038D000ADF80A009DF81D009DF81C1040EA01207B
:1038E00000B2ADF80C00BDF81000BDF80810084497
:1038F00000B2ADF81000BDF81200BDF80A1008447F
:1039000000B2ADF81200BDF81400BDF80C10084468
:1039100000B2ADF81400BDF81000000A8DF81800D0
:10392000BDF81000C0B28DF81900BDF81200000AF1
:103930008DF81A00BDF81200C0B28DF81B00BDF85A
:103940001400000A8DF81C00BDF81400C0B28DF8F8
:103950001D00AA494968087806AB06221146FEF701
:1039600038FA10B14FF0FF3051E700204FE7014621
:10397000A248007A30B1012807D0022809D00328D4
:103980000FD10AE0FA2008800EE04FF4FA700880A8
:103990000AE04FF47A70088006E04FF4FA6008807D
:1039A00002E00020088000BF00BF002070470146F1
:1039B0009248407A30B1012807D0022808D0032865
:1039C0000CD108E0022008700BE00420087008E029
:1039D0000820087005E01020087002E04FF0FF306A
:1039E000704700BF8548C07C18B108784006000EBB
:1039F00008700020F4E701468048C07A082817D2F2
:103A0000DFE800F01704070A0D101318BC20088027
:103A100013E06220088010E02A2008800DE01420C6
:103A200008800AE00A20088007E00520088004E0FA
:103A300000BF00BF0020088000BF00BF002070470B
:103A400001466E4890F8240010B14FF0FF307047E7
:103A50006A48C08908800020F9E7014600200880F4
:103A6000401E704701464FF0FF30704701466348E3
:103A7000007A30B1012807D0022808D003280CD1E1
:103A800008E05F4808600BE05E48086008E05E48B8
:103A9000086005E05D48086002E04FF0FF307047C5
:103AA00000BF0020FBE701465448407A30B10128AE
:103AB00008D002280AD0032810D10BE04FF4804030
:103AC00008800EE041F69C7008800AE04FF48050B8
:103AD000088006E04FF40060088002E04FF0FF30FD
:103AE000704700BF4548C07C10B10888401008806E
:103AF0000020F5E701464148007C0870002070472F
:103B000001463E48807A10B10120087001E0002093
:103B100008700020704738B504463848807A10B9DC
:103B20004FF0FF3038BD354A1268117C334A526875
:103B300010786B460222FEF797F810B14FF0FF3075
:103B4000F0E79DF801009DF8001040EA012000B266
:103B500020800020E6E72DE9FE4F07468846924682
:103B60001D46DDF830B000260024244890F82400DB
:103B700010B1601EBDE8FE8F002028701F48807ABB
:103B800010B94FF0FF30F5E71C48007C10B94FF03A
:103B9000FF30EFE71948007C00F0400008B1B01C8E
:103BA000C6B21648007C00F0200008B1B01CC6B2B6
:103BB0001248007C00F0100008B1B01CC6B20F48DB
:103BC000007C00F0080008B1B01DC6B20B4A1268B4
:103BD000917A0A4A526810786B460222FEF744F83E
:103BE00010B14FF0FF30C5E79DF801009DF80010BF
:103BF00040EA0129B1450BDA0020BBE708020020AA
:103C000000000343000083423333034233338341D4
:103C1000FC4840684088B9EB600F17DDF94A12682C
:103C2000517CF84A526810786B460122FEF71CF866
:103C300010B14FF0FF309DE79DF8000000F010003C
:103C400020B1FFF783F96FF0010093E75046FFF7CB
:103C5000EAFCEC4A1268D17AEA4A526810786B465C
:103C60003246FEF701F810B14FF0FF3082E799FBC2
:103C7000F6F0401E8BF8000000202870B4422AD0D5
:103C8000E048007C00F0080028B3601C1DF800002C
:103C90001DF8041040EA012000B2A8F80000E01C62
:103CA0001DF80010A01C1DF8000041EA002000B221
:103CB000A8F80200601D1DF80010201D1DF800006E
:103CC00041EA002000B2A8F80400287840F008007B
:103CD0002870A01D84B2B44213D0CA48007C00F002
:103CE000400070B1601C1DF800001DF8041040EA8F
:103CF000012000B23880287840F040002870A01CD5
:103D000084B2B44213D0BF48007C00F0200070B1F0
:103D1000601C1DF800001DF8041040EA012000B2EC
:103D20007880287840F020002870A01C84B2B4422B
:103D300013D0B448007C00F0100070B1601C1DF876
:103D400000001DF8041040EA012000B2B880287875
:103D500040F010002870A01C84B200200AE7F8B5DB
:103D600004460F461646A74890F8240010B94FF0B5
:103D7000FF30F8BDA348807A10B94FF0FF30F8E764
:103D8000A04A1268917A9F4A526810786B460222C4
:103D9000FDF76AFF10B14FF0FF30EAE79DF8010030
:103DA0009DF8001040EA0125A54203DA002030709A
:103DB000401EDEE7934840684088B5EB600F17DD92
:103DC000904A1268517C8F4A526810786B460122E3
:103DD000FDF74AFF10B14FF0FF30CAE79DF8000031
:103DE00000F0100020B1FFF7B1F86FF00100C0E75C
:103DF000E2B2844B1B68D97A824B5B6818783B46E9
:103E0000FDF732FF10B14FF0FF30B2E795FBF4F051
:103E1000401E30700020ACE701467A4880F822103E
:103E2000002070477CB5054676494968087801ABA3
:103E300004220D21FDF718FF08B107207CBD9DF875
:103E40000700C0F301109DF8041001F0E00140EA02
:103E5000E1008DF800009DF80700C0F381009DF897
:103E6000051001F0E00140EAE1008DF801009DF845
:103E7000070000F003009DF8061001F0E00140EAA1
:103E8000E1008DF8020000241CE01DF8040018B9C0
:103E9000002045F8240013E05B4845F8240006E0C4
:103EA00055F82400594907F079F945F824001DF820
:103EB0000400401EC0B20DF804000028F0D100BF7D
:103EC000601CC4B2032CE0DB0020B7E72DE9FE4FF5
:103ED00006460F4600256846FFF7A4FF002442E08F
:103EE00056F8240057F82410A0EB010ABAF1000F8D
:103EF00001DB514601E0CAF10001084607F0EEF887
:103F000083464FF08F4106F0B7FF80465DF82400EE
:103F1000002107F073F816D05DF82410404606F033
:103F2000ABFF82464FF07E5107F036FA814629F00A
:103F3000004A3748416A504607F0FCF912D2012086
:103F4000A04005430EE03248C169404607F0F2F850
:103F500005D32F48016A404607F0ECF902D2012050
:103F6000A0400543641C032CBADB2846BDE8FE8F45
:103F70002DE9FC5F06460F4600252249496808786E
:103F800001AB03220D21FDF76FFE10B10720BDE844
:103F9000FC9F9DF8040000F01F008DF804009DF8C0
:103FA000050000F01F008DF805009DF8060000F0E8
:103FB0001F008DF80600002462E056F8240057F830
:103FC0002410A0EB010BBBF1000F01DB594601E00F
:103FD000CBF10001084607F081F84FF08F410090C7
:103FE00006F04AFF814601A8005DC0B30849086891
:103FF00007F08CF883465946064806F03DFF804698
:104000000FE00000080200207B14AE3E1D5A843FE2
:10401000F0C1000800B04C45FE49404607F0BEF82C
:10402000804601A8005D401EC0B201A908550028C5
:10403000F2D14146484606F01FFF83464FF07E51BD
:1040400007F0AAF982462AF0004BF34881695846E6
:1040500007F070F913D20120A04005430FE0FFE7FD
:10406000ED480169484607F065F805D3EA4841691B
:10407000484607F05FF902D20120A0400543641CC6
:10408000032C9ADB284682E72DE9F04F87B00546DE
:104090000C46914601208DF8100000208DF811008B
:1040A000DE4A1268917CDD4A5268107804AB022225
:1040B000FDF78FFE20B14FF0FF3007B0BDE8F08F65
:1040C000C82000F07EFF00208DF81000D34A12684F
:1040D000D17BD24A5268107804AB0122FDF779FEF9
:1040E00010B14FF0FF30E8E7CC4A12685179CB4A63
:1040F0005268107804AB0122FDF76BFE10B14FF04F
:10410000FF30DAE7C54A1268917CC44A52681078D9
:1041100004AB0122FDF75DFE10B14FF0FF30CCE79C
:10412000BE4A1268D17DBD4A5268107804AB0122A4
:10413000FDF74FFE10B14FF0FF30BEE7B74A1268EF
:104140001179B64A5268107804AB0122FDF741FE9E
:1041500010B14FF0FF30B0E70C208DF81000AF4ADF
:1041600012681179AD4A5268107804AB0122FDF74C
:1041700030FE10B14FF0FF309FE70F2000F021FF1D
:10418000A648806A407A8DF81000A44A1268917897
:10419000A24A5268107804AB0122FDF71AFE10B152
:1041A0004FF0FF3089E79D48806A007A8DF8100053
:1041B0009A4A12685178994A5268107804AB0122E1
:1041C000FDF707FE10B14FF0FF3076E7B9F1000FB1
:1041D00007D09248806A807A40F0E0008DF81000A5
:1041E00004E08E48806A807A8DF810008B4A12684D
:1041F00091798A4A5268107804AB0122FDF7E9FDF3
:1042000010B14FF0FF3058E7B9F1000F07D08348E5
:10421000806AC07A40F0E0008DF8100003E07E482C
:10422000C07A8DF810007D4A1268D1797B4A5268B5
:10423000107804AB0122FDF7CCFD10B14FF0FF3038
:104240003BE7B9F1000F02D0C82000F0BAFE4020D1
:104250008DF81000714A12681179704A526810780E
:1042600004AB0122FDF7B5FD10B14FF0FF3024E79C
:1042700078208DF81000694A12685179674A5268AF
:10428000107804AB0122FDF7A4FD10B14FF0FF3010
:1042900013E76149888900F094FE00208DF8100032
:1042A0005E4A126851795D4A5268107804AB012267
:1042B000FDF78FFD10B14FF0FF30FEE6574A126850
:1042C000917A564A5268107804AB0222FDF7CCFC72
:1042D00010B14FF0FF30F0E69DF811009DF810107E
:1042E00040EA012B0C209BFBF0F0C6B20020A86036
:1042F00068602860A06060602060824665E0474A90
:104300001268D17A454A5268107804AB0C22FDF746
:10431000ABFC10B14FF0FF30CFE69DF811009DF8D7
:10432000101040EA012000B2ADF808009DF813001B
:104330009DF8121040EA012000B2ADF80A009DF885
:1043400015009DF8141040EA012000B2ADF80C00F1
:10435000BDF90810206808442060BDF90A106068A3
:1043600008446060BDF90C10A0680844A0609DF886
:1043700017009DF8161040EA012000B2ADF80000C9
:104380009DF819009DF8181040EA012000B2ADF820
:1043900002009DF81B009DF81A1040EA012000B2AF
:1043A000ADF80400BDF90010286808442860BDF984
:1043B0000210686808446860BDF90410A8680844E1
:1043C000A8600AF1010000F0FF0AB24597DB12482D
:1043D000D0F800C02868C117090441EA1041070459
:1043E00062460023384602F0CAFB32460023CDE97C
:1043F000020102F0C4FB28600748D0F800C06868DA
:10440000C117090441EA10410704624600233846F7
:1044100006E0000054E3853FF0C1000808020020D8
:1044200002F0ADFB32460023CDE9020102F0A7FB0A
:104430006860FE48D0F800C0A868C117090441EAC6
:104440001041070462460023384602F098FB3246CA
:104450000023CDE9020102F092FBA860F348D0F8F6
:1044600004C02168C817000440EA11480F046246DE
:1044700000233846414602F082FB32460023CDE954
:10448000020102F07CFB2060E848D0F804C06068BC
:10449000C117090441EA1041070462460023384667
:1044A00002F06DFB32460023CDE9020102F067FB0A
:1044B0006060DE48D0F804C0A068C117090441EA72
:1044C0001041070462460023384602F058FB32468A
:1044D0000023CDE9020102F052FBA060A068002891
:1044E00004DDA068A0F58030A06003E0A06800F5BE
:1044F0008030A0600020E0E538B50446CC4890F854
:104500002400A04201D1002038BD24B3C84890F84F
:10451000250010B94FF0FF30F6E70020FEF74AFB08
:104520000020FEF76FFCC249C88CFEF7DCFE0020BD
:104530000090BF49496808786B4601222321FDF7A6
:1045400048FC0121BA4880F824100120FEF732FB14
:10455000FEF7FCFC13E00020FEF72CFBB448007CC7
:104560000090B349496808786B4601222321FDF782
:1045700030FC0021AE4880F82410FEF7E7FC002054
:10458000C2E72DE9F04F8DB083460F4602200C9014
:10459000A74890F8240020B10020FFF7ADFF0126C6
:1045A00000E0002603A8FFF7E2F905A8FFF7FFF9EE
:1045B00001A8FFF720FA02A8FFF742FA9C4890F8FA
:1045C0000AA004A8FFF796FA002407E00022394663
:1045D0005846FFF759FD00B902E0641C022CF5DBD8
:1045E00000BF022C01D1002528E0002407E00122B1
:1045F00006A909A8FFF748FD00B902E0641C022CD7
:10460000F5DB00BF022C01D1002517E006A93846D2
:10461000FFF75CFC00F0FF0809A95846FFF7A8FC6B
:1046200000F0FF090025B9F1000F01D145F00105A7
:10463000B8F1000F01D145F0020500BFFF207C4911
:104640000872FF217A484172C1724FF6FF71C18131
:10465000FF218172017401210173BDF80C00FEF786
:10466000D0FE9DF81400FEF78AFEBDF80400FEF7A8
:104670008EFDBDF80800FEF736FE5046FEF75DFBE6
:104680009DF81000FEF74EFD16B10120FFF734FF34
:1046900028460DB0BDE8F08FF8B504460D46164625
:1046A00016B94FF0FF30F8BD6148807A10B94FF06D
:1046B000FF30F8E720128DF80000E0B28DF801001D
:1046C0009DF8010028445A4949684989884202DD19
:1046D0004FF0FF30E7E7564A1268117E544A52689D
:1046E00010786B460222FDF774FB10B14FF0FF30DB
:1046F000D9E7EAB24E4B1B68597D4D4B5B68187881
:104700003346FDF766FB10B14FF0FF30CBE70020DA
:10471000C9E7F8B504460D46164616B94FF0FF3006
:10472000F8BD4348807A10B94FF0FF30F8E7201207
:104730008DF80000E0B28DF801009DF801002844DA
:104740003B4949684989884202DD4FF0FF30E7E77D
:10475000374A1268117E364A526810786B46022238
:10476000FDF737FB10B14FF0FF30D9E7EAB2304B1D
:104770001B68597D2E4B5B6818783346FDF774FA39
:1047800010B14FF0FF30CBE70020C9E72DE9F0432F
:1047900085B005460E4690469946254890F8250076
:1047A00020B14FF0FF3005B0BDE8F08316B94FF0EF
:1047B000FF30F8E7002423E0281B102801DD10203B
:1047C00000E0281B87B2321939462046FFF764FF04
:1047D00010B14FF0FF30E6E701AA39462046FFF757
:1047E00098FF10B14FF0FF30DDE730193A4601A9CC
:1047F00002F086FB10B16FF00100D4E7E01984B23B
:10480000AC42D9DB4FEA28208DF8000008F0FF0009
:104810008DF80100064A1268917E054A52681078A8
:104820006B460222FDF7D5FA38B103E0F0C100086B
:10483000080200204FF0FF30B5E70121F74880F86B
:104840002510A0F826900020ADE70146F34890F827
:1048500024000870002070474FF0FF307047024678
:104860004FF0FF30704701464FF0FF307047F8B50A
:1048700005460F461446002C70D0B5F5FF5F01DDEC
:10488000FF2605E0202D01DA012601E0C5F34716D9
:1048900007B90127282C02DD4FF0FF30F8BDDF48B3
:1048A000407D28BBDD4890F8240038B10020FFF798
:1048B00023FE0121D94880F8201003E00021D748C9
:1048C00080F82010D5481630FFF751F8D34818303B
:1048D000FFF76DF8D1481A30FFF78DF8CF481C303C
:1048E000FFF7AEF8CD48817A81771F30FFF702F9E4
:1048F0000020FEF75FF90020FEF788FC00208DF80D
:104900000000C64A12689178C44A526810786B4613
:104910000122FDF75EFA10B14FF0FF30BEE74020F4
:104920008DF80000BD4A1268D17BBC4A52681078ED
:104930006B460122FDF74DFA00B165E08DF800608D
:104940008DF80170B54A1268117AB44A526810782D
:104950006B460222FDF73DFA08B155E047E005201D
:1049600000F02FFBAD48407A072101EBC000C0B238
:104970008DF80000A94A1268D179A84A52681078C7
:104980006B460122FDF725FA00B13DE020208DF8AD
:104990000000012C03D100208DF801000EE0052C51
:1049A00003DC01208DF8010008E0142C03DC022058
:1049B0008DF8010002E003208DF801009DF8010050
:1049C000072101EB8010C0B28DF80100934A1268F4
:1049D000917C924A526810786B460222FDF7F9F9F1
:1049E00000B111E001218D484175002056E78B4A46
:1049F0001632002103E0505C00B105E0491C0C298F
:104A0000F9D34FF0FF3049E7FF2084490872FF21B6
:104A100082484172C1724FF6FF71C181FF218172DC
:104A20000174012101730146887FFEF786F97B49F5
:104A3000C88AFEF7E6FC7949087EFEF7A0FC7749B4
:104A4000488BFEF7A4FB7549888BFEF74CFC734935
:104A5000C87FFEF767FB714890F8200010B1012075
:104A6000FFF74AFD00216D484175002016E770B53B
:104A700088B002A905A8FFF784FD0446032C3ED1A7
:104A800001A8FEF7F3FF059806F028FB06460199FA
:104A900006F084FB054606F0E5FA0590069806F058
:104AA0001DFB0646019906F079FB054606F0DAFA89
:104AB0000690079806F012FB0646019906F06EFB79
:104AC000054606F0CFFA079005A8FDF756FA6846A6
:104AD000FEF7E9FFBDF80010029848430290BDF8C8
:104AE0000010039848430390BDF800100498484311
:104AF000049002A8FDF7D4FA002008B070BD012090
:104B0000FBE7014691F90020002A01DD00201EE0AC
:104B100091F90020002A01DA042018E091F901201F
:104B2000002A01DD012012E091F90120002A01DABA
:104B300005200CE091F90220002A01DD022006E0A8
:104B400091F90220002A01DA062000E007207047D0
:104B500010B504462046FFF7D4FF0346E01CFFF7DC
:104B6000D0FF43EAC00083B2A01DFFF7CAFF43EAAB
:104B7000801083B2184610BD70B50024FCF739FBD5
:104B80004FF47A7000F01DFAFEF77DFC002840D14A
:104B90007820FEF7D2F8C4B20CB1012070BD7820A5
:104BA000FEF7C0FAC4B20CB10220F7E76420FEF7AA
:104BB0009AFBC4B20CB10320F0E7FDF743F9C4B28D
:104BC0000CB10420EAE71648FFF7C2FF0546FDF7DF
:104BD00043F9C4B20CB10520E0E740F27310FDF7D1
:104BE0007CFDC4B20CB10620D8E76420FDF7EEFAD4
:104BF000C4B20CB10720D1E7FFF739FF04460CB16E
:104C00000820CBE70120FFF777FCC4B21CB10920D4
:104C1000C4E70A20C2E70020C0E700000802002025
:104C2000340200202DE9F04F99B004460D46164697
:104C30004FF07E574FF000084FF000094FF0000A88
:104C400012A813A918AB0EAACDE9001014A916A832
:104C5000FDF7A2FE18B1012019B0BDE8F08FBDF834
:104C60004C0000F4807000287ED00E9806F036FAD2
:104C700083464FF09D4106F0FFF807460F9806F077
:104C80002DFA83464FF09D4106F0F6F880461098C5
:104C900006F024FA83464FF09D4106F0EDF8814678
:104CA000119806F01BFA83464FF09D4106F0E4F898
:104CB000824639464FF0804006F070FA494605902A
:104CC00006F06CFA414607904FF0404006F066FA55
:104CD0005146059006F062FA0690079906F05EF8D4
:104CE000834606F02FF8CDE9080104F061FD4FF08E
:104CF0006632544BCDE90A0105F014FDCDE90C01F3
:104D000005F0CAF9206049464FF0804006F046FAA7
:104D10004946029006F042FA414604904FF0404066
:104D200006F03CFA4146029006F038FA03900499E6
:104D300006F032FB83464FF07E5106F02FF80590C7
:104D400006F000F8CDE9080139464FF0804006F042
:104D500025FA4146039006F021FA494604904FF0A7
:104D6000804006F01BFA00E068E05146039006F030
:104D700015FA8346049906F011F8059005F0E2FF54
:104D8000CDE90601DDE9082304F05AFF4FF0663251
:104D90002C4BCDE90A0105F0C5FCCDE90C0105F06D
:104DA0007BF928605146504606F0F8F949460490D0
:104DB000484606F0F3F941460390404606F0EEF906
:104DC00039460190384606F0E9F90090019905F05E
:104DD000E5FF0290039906F0DFFA8346049906F096
:104DE000DBFA059005F0AEFFCDE9080151463846E3
:104DF00006F0D4F949460490404606F0CFF90390F6
:104E0000049905F0CBFF4FF08041059006F0C6F9FC
:104E1000834605F097FFCDE90601DDE9082304F09C
:104E20000FFF4FF06632074BCDE90A0105F07AFC1F
:104E3000CDE90C0105F030F9306001E002200BE70C
:104E4000002009E766A64C4030B502460B464FF6F7
:104E5000FF70002112E0555C684000240AE000F079
:104E6000010525B14AF2010585EA600000E0401025
:104E7000651CECB2082CF2DB4D1CE9B29942EADB6E
:104E800030BD30B58BB000200790089009900A9093
:104E900003900490059006900090019002900025E8
:104EA00000240DE0264850F8240007A941F824000A
:104EB00007A850F8240003A941F82400601CC4B2DC
:104EC000042CEFDB002410E003A810F824000DF8F8
:104ED000140003A830F82400C0F30720012101EBDF
:104EE00044010DF80100601CC4B2042CECDB082165
:104EF0006846FFF7A9FF05462846E91705EB11614B
:104F00000912A5EB0121C9B28DF80810E91705EBCC
:104F10001161090A8DF8091000240DE000BF8021FD
:104F2000084800F027FE0028F9D01DF804100548B5
:104F300000F0B2FD601CC4B20A2CEFDB0BB030BD38
:104F4000AC0300200038014010B56FF0040000F001
:104F5000BAFE2E4800682E49B0FBF1F02D490870CA
:104F60000846007800EB4001C1EBC0104FF6FF711E
:104F700001EAC0002849088010BD0146254A127880
:104F80004A434FF0E0235A6100229A611A4612699F
:104F900042F001021A6100BF4FF0E022106900F0F8
:104FA00001021AB100F48032002AF5D04FF0E0225D
:104FB000126922F001024FF0E0231A6100229A6187
:104FC00070470146144A12884A434FF0E0235A6161
:104FD00000229A611A46126942F001021A6100BF6A
:104FE0004FF0E022106900F001021AB100F48032A3
:104FF000002AF5D04FF0E022126922F001024FF0B2
:10500000E0231A6100229A61704700001C00002012
:1050100000127A003E02002040020020014600BF3C
:105020007047014600BF704700BF2B4A128802F04C
:105030004002002AF9D0C2B2274B1B1D1A807047CC
:1050400010B586B00446012144F2040000F084FB50
:105050004FF40070ADF8140003208DF816001820EE
:105060008DF8170005A91D4800F0BAF84FF48060CC
:10507000ADF8140004208DF8170005A9174800F0BA
:10508000AFF825208DF8000003208DF801008DF881
:10509000020001208DF80300684600F0CAFD01946B
:1050A0000020ADF80800ADF80A00ADF80C00ADF82E
:1050B00010000C20ADF80E0001A9074800F0F3FB2A
:1050C000012240F22551044800F085FC01210248EC
:1050D00000F075FC06B010BD00380140000801402A
:1050E0000948804709480047FEE7FEE7FEE7FEE77C
:1050F000FEE7FEE7FEE7FEE7FEE7FEE704480549B8
:10510000054A064B70470000FF0400083101000803
:1051100020040020200A0020200600202006002075
:1051200010B50446CC48844208D10121042000F087
:105130002DFB0021042000F029FB46E0C7488442F3
:1051400008D10121082000F021FB0021082000F0F7
:105150001DFB3AE0C248844208D10121102000F032
:1051600015FB0021102000F011FB2EE0BD48844209
:1051700008D10121202000F009FB0021202000F0AF
:1051800005FB22E0B848844208D10121402000F00C
:10519000FDFA0021402000F0F9FA16E0B3488442FD
:1051A00008D10121802000F0F1FA0021802000F0D8
:1051B000EDFA0AE0AE48844207D10121801500F0E3
:1051C000E5FA0021A01500F0E1FA10BD10B50121AB
:1051D000084600F0DBFA0021012000F0D7FA10BDEC
:1051E0002DE9F0410246002500260020002300247E
:1051F000002791F803C00CF00F0591F803C00CF0E4
:10520000100CBCF1000F03D091F802C04CEA050568
:1052100091F800C0BCF1000F31D0146800202BE0E1
:105220004FF0010C0CFA00F3B1F800C00CEA0306D1
:105230009E4220D183004FF00F0C0CFA03F7BC43C1
:1052400005FA03FC4CEA040491F803C0BCF1280FF2
:1052500006D14FF0010C0CFA00FCC2F814C00AE0B1
:1052600091F803C0BCF1480F05D14FF0010C0CFAC6
:1052700000FCC2F810C0401C0828D1D31460B1F85B
:1052800000C0BCF1FF0F34DD546800202EE000F1B7
:10529000080C4FF0010808FA0CF3B1F800C00CEA52
:1052A00003069E4221D183004FF00F0C0CFA03F746
:1052B000BC4305FA03FC4CEA040491F803C0BCF1BA
:1052C000280F05D100F1080C08FA0CF8C2F8148078
:1052D00091F803C0BCF1480F07D100F1080C4FF062
:1052E000010808FA0CF8C2F81080401C0828CED338
:1052F0005460BDE8F0814FF6FF710180022181709A
:105300000421C17070470246002093680B400BB126
:10531000012000E0002070470146886880B2704795
:1053200002460020D3680B400BB1012000E00020B2
:1053300070470146C86880B270470161704741619B
:1053400070470AB1016100E041617047C160704778
:105350004FF480320A43826181618261826982698D
:10536000704702460020434B18684FF68073184080
:1053700040EA021008433F4B186070473E49C8613D
:105380007047F0B50A46002300240021002500F0F4
:105390000046B6F1004F02D1364EF16901E0354EBC
:1053A0007168C0F3034583B200F44016B6F5401FA0
:1053B00008D121F070612F4E766826F070662D4F6F
:1053C0007E6012E000F48016B6F5801F06D1032639
:1053D00006FA05F4A14341F0706106E0460D36017E
:1053E00003FA06F6B14341F0706122B1460D360171
:1053F00003FA06F6314300F00046B6F1004F02D141
:105400001C4EF16101E01B4E7160F0BD30B5002211
:105410008B071C0F0F2303FA04F2164B08338C1072
:1054200053F824309343134C08348D1044F825303E
:1054300023468C1053F824308C07240F00FA04F410
:1054400023430C4C08348D1044F8253030BD0A49F4
:10545000DC3108607047000000080140000C01408A
:10546000001001400014014000180140001C0140E0
:10547000002001400000014000002042DF48006899
:1054800040F00100DD49086008464068DC490840FA
:10549000DA49486008460068DA490840D749086098
:1054A0000846006820F4802008600846406820F420
:1054B000FE0048604FF41F0088607047CF490968BC
:1054C00021F48031CD4A11601146096821F4802110
:1054D0001160B0F5803F03D0B0F5802F0ED106E00B
:1054E000C649096841F48031C44A116007E0C349E4
:1054F000096841F4A021C14A116000E000BF00BF6B
:10550000704710B501460022002300204A11012AED
:1055100002D1BA4C236806E0022A02D1B74C236AB2
:1055200001E0B64C636A01F01F02012494401C4064
:105530000CB1012000E0002010BD38B50020009023
:105540000024002500BF3120FFF7DBFF054600984F
:10555000401C00900098B0F5A06F01D0002DF2D053
:105560003120FFF7CEFF08B1012400E000242046DF
:1055700038BD01460020A14A106820F0F80040EA3A
:10558000C10010607047A0490860704702460020C3
:105590009A4B586820F47C1042EA01031843974B59
:1055A0005860704798490866704701460020934A42
:1055B000506820F003000843506070478F484068EF
:1055C00000F00C007047014600208C4A506820F023
:1055D000F00008435060704701460020874A506839
:1055E00020F4E06008435060704701460020834A81
:1055F000506820F4605040EAC1005060704729B103
:105600007E4A527A02437D4B5A7204E07B4A527AB8
:1056100082437A4B5A7270477B49D8310860704791
:1056200001460020754A506820F44040084350600D
:1056300070470021714A20321170704A82F82010A0
:10564000012802D004280AD104E001216B4A20324B
:10565000117005E00521694A2032117000E000BF99
:1056600000BF70476949086070476449096A01438F
:10567000624A11627047654944390860704730B525
:1056800000210022002400235C4D6D6805F00C0110
:1056900021B1042905D0082923D105E05C4D05601E
:1056A00022E05B4D05601FE0544D6D6805F47012FB
:1056B000524D6D6805F48034022505EB92421CB909
:1056C000544D554305600BE04C4D6D6805F40035B5
:1056D0001DB1504D5543056002E04D4D55430560E9
:1056E00002E04B4D056000BF00BF444D6D6805F002
:1056F000F0010909484D6B5C0568DD4045603F4D90
:105700006D6805F4E061090A434D6B5C4568DD4056
:1057100085603A4D6D6805F46051C90A3E4D6B5C79
:105720004568DD40C560354D6D6805F44041890B25
:105730003A4D6B5CC568B5FBF3F5056130BD29B129
:105740002E4A526902432D4B5A6104E02B4A52699A
:1057500082432A4B5A61704729B1284A9269024311
:10576000264B9A6104E0254A92698243234B9A6151
:10577000704729B1214AD2690243204BDA6104E023
:105780001E4AD26982431D4BDA61704729B11B4A18
:10579000D2680243194BDA6004E0184AD2688243A7
:1057A000164BDA60704729B1144A12690243134B51
:1057B0001A6104E0114A12698243104B1A61704762
:1057C00012494039086070470F49C86470470B4957
:1057D000C87170470948406A40F0807007494862C4
:1057E000704701460020054A92680A400AB101202C
:1057F00000E00020704701498872704700100240A5
:105800000000FFF8FFFFF6FE000042428004424223
:1058100000127A0000093D004A0200205A020020CE
:1058200010B50446FB48844209D101218803FFF7E3
:10583000ADFF00214FF48040FFF7A8FF32E0F648AB
:10584000844209D101214804FFF7ADFF00214FF444
:105850000030FFF7A8FF25E0F048844209D101217C
:105860008804FFF7A0FF00214FF48020FFF79BFF83
:1058700018E0EB48844209D10121C804FFF793FFE7
:1058800000214FF40020FFF78EFF0BE0E548844233
:1058900008D101210805FFF786FF00214FF4801091
:1058A000FFF781FF10BD2DE9F04786B005460E4693
:1058B0000024A24600BFA1460027B08900B100BF66
:1058C0002F462C8A4CF6FF700440F08804432C824B
:1058D000AC894EF6F3100440B088318908437189D1
:1058E00008430443AC81AC8A4FF6FF400440B089C2
:1058F0000443AC8201A8FFF7C2FEC648874202D12A
:10590000DDF810A001E0DDF80CA0A88900F400404B
:1059100040B10AEBCA0000EB0A1031684900B0FB45
:10592000F1F807E00AEBCA0000EB0A1031688900C1
:10593000B0FBF1F86420B8FBF0F004012009642109
:1059400001FB1089A88900F4004040B1322000EB2F
:10595000C900B0FBF1F000F00700044308E032207A
:1059600000EB09106421B0FBF1F000F00F000443DC
:105970002C8106B0BDE8F0874FF41651016000217C
:105980008180C18001810C2141810021818170478A
:1059900010B502460020108A4FF2FF0318400B8812
:1059A0004C8823438C882343CC882343184310829C
:1059B00010BD0021018041808180C180704721B1EC
:1059C000828942F40052828104E082894DF6FF739D
:1059D0001A4082817047F0B5034600240026002556
:1059E000002040F66A17B94200D100BF1846C1F343
:1059F000421401F01F06012707FA06F5012C01D118
:105A00000C3004E0022C01D1103000E014301AB147
:105A100007682F43076002E00768AF430760F0BDE7
:105A20001AB1838A0B43838202E0838A8B43838289
:105A30007047028A4FF6F0731A400282028A0A43C4
:105A40000282704782894FF2FF731A4082818289F5
:105A50000A438281704721B1828942F00202828129
:105A600004E082894FF6FD731A4082817047028AF2
:105A70004FF6DF731A400282028A0A43028270479D
:105A800021B1028A42F48042028204E0028A4BF68B
:105A9000FF731A4002827047C1F308028280704788
:105AA00001468888C0F308007047818941F00101F0
:105AB00081817047028BD2B20283028B42EA0122BB
:105AC00002837047028B02F47F420283028B0A43F7
:105AD0000283704721B1828A42F02002828204E070
:105AE000828A4FF6DF731A408282704721B1828A20
:105AF00042F01002828204E0828A4FF6EF731A406D
:105B00008282704721B1828A42F00802828204E0D8
:105B1000828A4FF6F7731A408282704721B18289D8
:105B200042F40042828103E08289C2F30E02828144
:105B3000704721B1828A42F40062828204E0828A44
:105B40004FF2FF731A4082827047828A4FF6FB73CE
:105B50001A408282828A0A438282704721B1828AF5
:105B600042F00202828204E0828A4FF6FD731A40FC
:105B70008282704702460020B1F5007F00D100BF4D
:105B800013880B400BB1012000E00020704701F4A6
:105B90000072B2F5007F00D100BFCA430280704797
:105BA00070B50246002400230025002040F66A1646
:105BB000B14200D100BFC1F3421501F01F0301261D
:105BC00006FA03F3012D02D19689334006E0022D37
:105BD00002D1168A334001E0968A33400C12012626
:105BE00006FA04F41688344013B10CB1012000E029
:105BF000002070BD10B50022002340F66A14A142B7
:105C000000D100BF0A1201249440A3B2DC430480F7
:105C100010BD000000380140004400400048004032
:105C2000004C00400050004031490143314A1160AE
:105C3000704770B5002100230F22C47804B32D4CA7
:105C4000246804F4E064C4F5E064210AC1F10403AB
:105C5000CA40447804FA03F18478144021430901CE
:105C6000254C0678A155047804F01F050124AC40AA
:105C700005786D11AD0005F1E025C5F8004109E09A
:105C8000047804F01F050124AC401C4D0678761101
:105C900045F8264070BD1A4A0A400243154B1B1FA7
:105CA0001A60704739B1134A121D12680243114B32
:105CB0001B1D1A6006E00F4A121D126882430D4B2D
:105CC0001B1D1A607047042808D14FF0E0210969B4
:105CD00041F004014FF0E022116107E04FF0E021B4
:105CE000096921F004014FF0E022116170470000C2
:105CF0000000FA050CED00E000E400E080E100E0C7
:105D000080FFFF1F10B50446FE48844208D10121E0
:105D1000C014FFF73BFD0021E014FFF737FDC4E09E
:105D2000B4F1804F08D101210846FFF73CFD002166
:105D30000120FFF738FDB8E0F348844208D1012183
:105D40000220FFF730FD00210220FFF72CFDACE020
:105D5000EE48844208D101210420FFF724FD0021F0
:105D60000420FFF720FDA0E0E948844208D101218A
:105D70000820FFF718FD00210820FFF714FD94E02C
:105D8000E448844208D101211020FFF70CFD0021D6
:105D90001020FFF708FD88E0DF48844208D1012188
:105DA0002020FFF700FD00212020FFF7FCFC7CE015
:105DB000DA48844208D101214014FFF7E7FC0021B2
:105DC0006014FFF7E3FC70E0D548844209D101215B
:105DD000C804FFF7DBFC00214FF40020FFF7D6FCDE
:105DE00063E0D048844209D101210805FFF7CEFCC9
:105DF00000214FF48010FFF7C9FC56E0CA488442E6
:105E000009D101214805FFF7C1FC00214FF4001022
:105E1000FFF7BCFC49E0C548844208D1012140207D
:105E2000FFF7C1FC00214020FFF7BDFC3DE0C0486A
:105E3000844208D101218020FFF7B5FC0021802099
:105E4000FFF7B1FC31E0BB48844208D10121801545
:105E5000FFF7A9FC0021A015FFF7A5FC25E0B64837
:105E6000844209D101210804FFF790FC00214FF47E
:105E70008030FFF78BFC18E0B048844209D1012143
:105E80004804FFF783FC00214FF40030FFF77EFC4D
:105E90000BE0AB48844208D101218804FFF776FC6F
:105EA00000214FF48020FFF771FC10BD0022028812
:105EB000944B98420ED0994B98420BD0B0F1804F42
:105EC00008D0914B984205D0904B984202D0904B0D
:105ED000984204D14FF68F731A404B881A438D4B6A
:105EE000984207D08C4B984204D04FF6FF431A409B
:105EF000CB881A4302808B8883850B880385814B6E
:105F000098420BD0854B984208D08B4B984205D0D5
:105F10008A4B984202D08A4B984201D10B7A038671
:105F200001238382704770B5002400220023058C72
:105F30004FF6FE7635400584028C8388048B4FF63D
:105F40008F752C40B51E2C400D882C43751E2A40A1
:105F50000D892A434D882A436A4DA8420BD06F4DC4
:105F6000A84208D0744DA84205D0744DA84202D072
:105F7000734DA84213D14FF6F7752A404D892A4335
:105F80004FF6FB752A408D882A434FF6FF652B405C
:105F90004FF6FF552B408D892B43CD892B438380B2
:105FA0000483CD888586028470BD70B500240022EC
:105FB0000023058C4FF6EF7635400584028C8388EC
:105FC000048B48F6FF752C404FF6FF452C400D889A
:105FD0004FF6FF7606EA05252C434FF6DF752A407B
:105FE0000D8906EA05152A434D8806EA05152A4358
:105FF000444DA84202D0494DA8421DD14FF67F75AD
:106000002A404D894FF6FF7606EA05152A434FF6DA
:10601000BF752A408D8806EA05152A434FF6FF35DD
:106020002B404FF2FF752B408D8906EA85052B43E7
:10603000CD8906EA85052B4383800483CD880587B7
:10604000028470BD70B5002400220023058C4FF639
:10605000FF6635400584028C8388848B4FF68F75EC
:106060002C404FF6FC752C400D882C434FF6FF5505
:106070002A400D894FF6FF7606EA05252A434D880A
:1060800006EA05252A431F4DA84202D0234DA84207
:106090001DD14FF2FF752A404D894FF6FF7606EA73
:1060A00005252A434FF6FF352A408D8806EA052547
:1060B0002A434EF6FF752B404DF6FF752B408D8918
:1060C00006EA05152B43CD8906EA05152B43838087
:1060D0008483CD888587028470BD70B5002200233B
:1060E0000024058C4EF6FF7635400584038C8488A9
:1060F000828B48F6FF752A404FF6FF452A400D88EF
:1061000020E00000002C0140000400400008004096
:10611000000C00400010004000140040003401401A
:10612000004C014000500140005401400018004064
:10613000001C00400020004000400140004401409D
:10614000004801404FF6FF7606EA05252A434DF642
:10615000FF752B400D8906EA05352B434D8806EA6D
:1061600005352B43FA4DA84202D0FA4DA84208D17A
:106170004BF6FF752C408D894FF6FF7606EA8515A4
:106180002C4384808283CD88A0F84050038470BD66
:10619000828B4FF2FF331A408283828B4FF6FF735C
:1061A00003EA01231A4382837047F0B50C46154673
:1061B000002200210026078C4EF6FF7C07EA0C0720
:1061C0000784828B018C4FF6FF7707EA043640F68E
:1061D000FF473A404FF6FF7707EA05273A434FF665
:1061E000FF7707EA03373A43D94FB8420ED0D94F69
:1061F000B8420BD0B0F1804F08D0D74FB84205D08D
:10620000D64FB84202D0D64FB84206D14DF6FF77EE
:10621000394046F48057394305E047F6FF57394087
:1062200044F48057394382830184F0BD828B4FF65A
:10623000F3731A408283828B0A4382837047F0B5DE
:106240000C461546002200210026078C4FF6FF6CF5
:1062500007EA0C070784828B018C4FF6FF7707EA69
:1062600004264FF60C773A404FF6FF7707EA0317FC
:106270002F433A43B64FB8420ED0B64FB8420BD078
:10628000B0F1804F08D0B44FB84205D0B34FB842F8
:1062900002D0B34FB84206D14FF6FF57394046F40B
:1062A0008077394305E04FF2FF57394044F4807757
:1062B000394382830184F0BD028B4FF2FF331A40D1
:1062C0000283028B4FF6FF7303EA01231A43028312
:1062D0007047F0B50C461546002200210026078CB9
:1062E0004FF6EF7C07EA0C070784028B018C4FF610
:1062F000FF7707EA041640F6FF473A404FF6FF776C
:1063000007EA03373A434FF6FF7707EA05273A4390
:106310008F4FB8420ED08F4FB8420BD0B0F1804FA4
:1063200008D08D4FB84205D08C4FB84202D08C4F68
:10633000B84206D14FF6DF77394046F010073943AF
:1063400005E04FF65F77394044F010073943028388
:106350000184F0BD028B4FF6F3731A400283028B67
:106360000A4302837047F0B50C461546002200210F
:10637000068C4FF6FE773E400684028B018C4FF66A
:106380000C7632407E1C06EA03162E433243704ED2
:10639000B0420ED06F4EB0420BD0B0F1804F08D05B
:1063A0006D4EB04205D06D4EB04202D06C4EB04240
:1063B00006D14FF6FD76314044F00106314305E049
:1063C0004FF6F576314044F00106314302830184F3
:1063D000F0BD70B505460C465D4885420ED05D485F
:1063E00085420BD0B5F1804F08D05B48854205D07F
:1063F0005A48854202D05A48854200D100E000BF89
:10640000208850B92389A28861882846FFF7ABFF0E
:10641000E1882846FFF79EFF25E0208804280AD15E
:106420002389A28861882846FFF753FFE188284620
:10643000FFF742FF17E0208808280AD12389A288A5
:1064400061882846FFF7FBFEE1882846FFF7EEFE4D
:1064500009E02389A28861882846FFF7A6FEE18823
:106460002846FFF795FE70BD2DE9F04105460C4624
:1064700000260127608808B9022600E00026A088CF
:10648000012801D1022700E001272088A0B9238933
:10649000A28861882846FFF766FFE1882846FFF753
:1064A00059FF23893A4631462846FFF712FFE18813
:1064B0002846FFF701FF13E02389A2886188284658
:1064C000FFF707FFE1882846FFF7F6FE23893A46E3
:1064D00031462846FFF747FFE1882846FFF73AFF95
:1064E000BDE8F0810A884B881A438B881A43CB8811
:1064F0001A430B891A434B891A438B891A43A0F814
:10650000442070474FF6FF71818000210180C180D7
:106510004180017270470021018041808180C180EB
:10652000018141818181C1817047002101804180C9
:10653000012181800021C1800181704700210180FB
:1065400041808180C180018141818181704700004B
:10655000002C0140003401400004004000080040CD
:10656000000C004021B1028842F00102028004E0E8
:1065700002884FF6FE731A400280704731B1B0F8BE
:10658000442042F40042A0F8442005E0B0F8442042
:10659000C2F30E02A0F8442070471AB183890B435E
:1065A000838102E083898B438381704781827047B6
:1065B00041EA0203A0F8483070471AB183890B43BF
:1065C000838102E083898B438381704701894FF681
:1065D000F8721140018170470A46002101894FF687
:1065E0008F73194011430181704730B504460D4641
:1065F00029462046FFF7F0FF208940F00700208160
:1066000030BD2DE9F04104460D4616461F46602D6B
:1066100006D13B46012231462046FFF75AFE05E0EF
:106620003B46012231462046FFF79DFE2946204683
:10663000FFF7D2FF208940F007002081BDE8F081FC
:1066400030B50C4600210189C9B24FF6FF7505EA45
:106650000325154325432943018130BD2DE9F04130
:1066600005460E4617469846002443463A463146AC
:106670002846FFF7E5FF2C894FF6F870044044F0F8
:1066800007044FF68F70044044F070042C81BDE87D
:10669000F081F0B504460D4616461F463B4632468D
:1066A00029462046FFF7CCFF208940F48040208116
:1066B000F0BD0185828270470A46002101884FF6AD
:1066C0008F731940114301807047F0B50C46154691
:1066D0001E460021002200230189028B038C4FF605
:1066E000F877394021434FF6FC473A4040F2011712
:1066F0003A434FF6DD773B404FF6FF7707EA061740
:106700002F433B43018102830384F0BD0A460021ED
:10671000018B4FF68F7319401143018370470A466E
:106720000021018B48F6FF7319404FF6FF7303EA0F
:1067300002231943018370470A460021818B4FF6DB
:106740008F7319401143818370470A460021818B62
:1067500048F6FF7319404FF6FF7303EA022319430B
:106760008183704721B1028842F08002028004E0F8
:1067700002884FF67F731A400280704721B18288E9
:1067800042F00402828004E082884FF6FB731A40D4
:106790008280704721B1828842F00802828004E042
:1067A00082884FF6F7731A408280704721B1828841
:1067B00042F00102828004E082884FF6FE731A40A4
:1067C000828070470A460021018B4FF6F77319400B
:1067D0001143018370470A460021018B4FF2FF737A
:1067E00019404FF6FF7303EA0223194301837047F0
:1067F0000A460021818B4FF6F773194011438183BC
:1068000070470A460021818B4FF2FF7319404FF603
:10681000FF7303EA02231943818370470A4600216C
:10682000018B4FF6FB7319401143018370470A46F1
:106830000021018B4FF6FF3319404FF6FF7303EA37
:1068400002231943018370470A460021818B4FF6CA
:10685000FB7319401143818370470A460021818BE5
:106860004FF6FF3319404FF6FF7303EA0223194333
:10687000818370470A460021018B4FF67F731940D0
:106880001143018370470A460021018BC1F30E01B9
:106890004FF6FF7303EA02231943018370470A4648
:1068A0000021818B4FF67F7319401143818370471C
:1068B0000A460021818BC1F30E014FF6FF7303EAF4
:1068C00002231943818370470A460021018C4FF649
:1068D000FD7319401143018470470A460021018C61
:1068E0004FF6F77319401143018470470A4600219F
:1068F000018C4FF6DF7319404FF6FF7303EA021362
:106900001943018470470A460021018C4FF67F73BA
:1069100019404FF6FF7303EA0213194301847047CD
:106920000A460021018C4FF6FF5319404FF6FF73C2
:1069300003EA02231943018470470A460021018CAF
:106940004FF2FF7319404FF6FF7303EA0223194316
:10695000018470470A460021018C4DF6FF731940EF
:106960004FF6FF7303EA023319430184704730B5D1
:10697000002301248C40A3B2048C9C430484048C27
:1069800002FA01F5ADB22C43048430BD30B50023CA
:1069900004248C40A3B2048C9C430484048C02FA2B
:1069A00001F5ADB22C43048430BD70B50346002020
:1069B00000241846183001258D40ACB21D8CA5432B
:1069C0001D8409B1082909D100EB6100056825F093
:1069D000700505600568154305600EE00D1FC5F3E1
:1069E0004E052844056825F4E045056005684FF626
:1069F000FF7606EA02263543056070BD21B10288A4
:106A000042F00202028004E002884FF6FD731A4051
:106A10000280704721B1028842F00402028004E043
:106A200002884FF6FB731A400280704721B18288BA
:106A300042F08002828004E082884FF67F731A4021
:106A40008280704702884FF6F7731A4002800288EE
:106A50000A430280704782884FF68F731A40828003
:106A600082880A438280704702894FF6F8731A4081
:106A7000028102890A430281704702894FF67F73BF
:106A80001A40028102890A4302817047818470475B
:106A9000818570478186704701877047818770477D
:106AA000A0F84010704702884FF6FF431A4002805A
:106AB00002880A43028070470146888E704701466B
:106AC000088F70470146888F70470146B1F8400033
:106AD00070470146888C70470146088D7047024612
:106AE0000020138A0B400BB1012000E0002070470A
:106AF000CA430282704730B50246002000230024BA
:106B0000158A05EA0103958905EA010413B10CB160
:106B1000012000E0002030BDCA4302827047704768
:106B200070B5064600F0BEFA056806F10B0020F0CD
:106B30000704B4429CBF002070BD2B466A68BAB1FE
:106B40001068A04210D304F1080188423CBF50688D
:106B5000586007D35168101941601168091B016022
:106B600058601460101D70BD13465268002AE7D1AA
:106B70002146284600F09EFA0028DED170BD10B5EF
:106B80004C1084EA530404D54042C1F1000138BFDF
:106B9000491E1B4204D55242C3F1000338BF5B1E9D
:106BA00000F0F9FA14F0804F04D04042C1F1000126
:106BB00038BF491E14F0004F04D05242C3F1000305
:106BC00038BF5B1E10BD00007CB51D4616460C008C
:106BD000009001D02044401E074B7B442A46694662
:106BE0000190304600F007FC05461CB100206946C4
:106BF00000F014FC28467CBD490800000FB404498D
:106C000010B503AA029800F017FC10BC5DF814FB45
:106C10004402002070B5044685690068C10601D5AC
:106C2000302600E02026C00707D070BDD4E901213E
:106C300030469047206A401C20626D1EF6D570BD1C
:106C400070B5044685690078C00707D170BDD4E9E6
:106C5000012120209047206A401C20626D1EF6D53D
:106C600070BD00002DE9F04106460024106875292A
:106C7000314616A510D000F010FB002802DA404281
:106C800013A507E031688A0701D512A502E049077C
:106C900004D511A5012401E000F008FB00210A221F
:106CA00006F1240709E0B0FBF2FCB0FBF2F302FBB3
:106CB0001C00303078541846491C0028F3D1234674
:106CC0002A463046BDE8F04100F022BB000000003B
:106CD0002D0000002B00000020000000F0B40D4645
:106CE0000188090502D5214C7C4402E01F4C7C44FC
:106CF0000E34002100F1240608E002F00F0712090B
:106D0000E75D42EA03721B097754491C52EA030704
:106D1000F3D102780023120704D5702D06D009B1F3
:106D2000022311342246F0BC00F0F2BA01231034E1
:106D3000F8E770B504460D462146106800F0B6FA33
:106D4000024629462046BDE870400023C6E7D21D12
:106D500022F00703D3E90023C0E70368126843F079
:106D6000200303600823C3610023B7E72C5500000C
:106D70002DE9F05F894604464FF0000ADFF874B150
:106D8000FB44C0F820A02046E1688847002874D062
:106D9000252806D0D4E901219047206A401C2062B2
:106DA000F1E700265F462046E1688847202805462F
:106DB00007DB312D05D2781910F8200C08B10643F5
:106DC000F1E7B00701D526F00406C4F81CA000279F
:106DD000C4F818A02A2D09D0284602F0E2FC38B3E6
:106DE00004EB8708303DC8F8185019E059F8041B27
:106DF000204604EB87029161E1688847012F054630
:106E000018D1E069002820DA26F020061DE0D8F825
:106E1000180000EB800005EB40003038C8F818007F
:106E20002046E1688847054602F0BBFC0028EED109
:106E3000012F0AD02E2D08D12046E16888477F1CFB
:106E40000546022F46F02006C4DBA069002803DABD
:106E5000404246F00106A061F00701D026F010067E
:106E60006C2D0BD0682D09D04C2D39D06A2D35D022
:106E7000742D35D07A2D33D016E038E0E1682F46F6
:106E800020468847B842054609D16C2F26D04FF4DA
:106E90008060E168064320468847054604E06C2F81
:106EA0001AD04FF4807006430DB3A5F141001928A4
:106EB00002D8203546F400664A4629462046266018
:106EC0004E46F9F78FF980B101280BD0F61D26F058
:106ED000070000F1080956E74020E4E78020D8E7E2
:106EE0000020D6E706F104094DE7284652E7206A5C
:106EF000BDE8F09FBC540000002800DA4042704713
:106F000040EA010310B59B070FD1042A0DD310C826
:106F100008C9121F9C42F8D020BA19BA884201D978
:106F2000012010BD4FF0FF3010BD1AB1D30703D0C0
:106F3000521C07E0002010BD10F8013B11F8014B76
:106F40001B1B07D110F8013B11F8014B1B1B01D192
:106F5000921EF1D1184610BD10B5203AC0F00B803A
:106F6000B1E81850203AA0E81850B1E81850A0E84D
:106F70001850BFF4F5AF5FEA027C24BFB1E81850A7
:106F8000A0E8185044BF18C918C0BDE810405FEA17
:106F9000827C24BF51F8043B40F8043B08BF704793
:106FA000D20728BF31F8023B48BF11F8012B28BF98
:106FB00020F8023B48BF00F8012B704702F0FF03A6
:106FC00043EA032242EA024200F06EBB4FF00002A5
:106FD00000B5134694469646203922BFA0E80C50CF
:106FE000A0E80C50B1F12001BFF4F7AF090728BFAA
:106FF000A0E80C5048BF0CC05DF804EB890028BF26
:1070000040F8042B08BF704748BF20F8022B11F04E
:10701000804F18BF00F8012B704700004FF0013C73
:1070200050F8042B51F8043B9A4221D1A2EB0C03F7
:10703000934313EACC1317D150F8042B51F8043BB7
:107040009A4215D1A2EB0C03934313EACC130BD154
:1070500050F8042B51F8043B9A4209D1A2EB0C03DF
:10706000934313EACC13DBD04FF00000704700BF0E
:10707000D01A01BAB1FA81F101F0180122FA01F037
:10708000CB40C1F12001DBB2C0B2C01A2CFA01F32F
:10709000D11A914311EAC311E6D170477047704786
:1070A0007047704700487047C4030020704770471E
:1070B0007047704738B504460A4600206946AFF36A
:1070C0000080002808BF38BD02460099204600F025
:1070D00013FB012038BD012000F0F3BDF8B5AFF37C
:1070E0000080054600200C46102000BF0646A81967
:1070F000A0420DD9324669460020AFF30080070058
:1071000008BF00F0DEFD0098A04218BF0546C41974
:10711000FFF7C8FF05600746F01D20F0070046197D
:10712000284600F00AF8B44208BFF8BDA21B314659
:107130003868BDE8F84000F0DFBA00210160C0E91E
:10714000011070471020704770B50446051FFFF707
:10715000A9FF0068002C14BF446870BD002C18BF44
:10716000AC423CBF20466468F8D301680A18AA42C2
:1071700018BF456003D12A6805461144016028689C
:107180004119A1421CBF6C6070BD616869602168D3
:107190000844286070BD53EA020C00F069802DE9B4
:1071A000F04B4FF00006002B1FBFB3FA83F503FA34
:1071B00005F424FA05F65E4012BF1643B2FA82F5D2
:1071C00002FA05F4C5F120051EBF22FA05FC44EAC7
:1071D0000C04203556EA044C4FEA144418BF641CD2
:1071E0004FF000084FF00009904271EB030C39D3C7
:1071F000002919BFB1FA81F701FA07F6B0FA80F752
:1072000000FA07F6C7F120071EBF20FA07FC46EA7E
:107210000C062037B6FBF4FCA7EB0507103F07F080
:107220001F0BCBF120060CFA0BFB2CFA06F644BF21
:10723000B3460026202FA4BF5E464FF0000B5BEA4A
:10724000060C08BF4FF0010B19EB0B09ABFB027CDE
:1072500048EB0608C01B06FB02CC0BFB03CC71EB12
:107260000C01C1E70B46024641464846BDE8F08B9B
:1072700013B54FF000004FF00001AFF30080BDE800
:107280001C40704710B500F033FA006810BD10B50F
:10729000044600F02DFA046010BD09684A0501D5C6
:1072A00040B27047C905FCD500B2704709684A056D
:1072B00001D5C0B27047C905FCD580B2704770B522
:1072C0000C460546012A05D02878800600D5EA69D3
:1072D000002302E0012305E05B1C934202D2E05C44
:1072E0000028F9D1A869E618C01AA861286A1844CC
:1072F00028622846FFF78EFC04E0D5E9012114F846
:10730000010B9047B442F8D32846FFF799FC70BDB3
:107310002DE9F0470D4699469246044600F12408AF
:107320000168880604D5E06921F01001216000E0C1
:107330000120A84201DD471B00E00027A1697A195E
:1073400002EB0900081AA0612078C00602D420468A
:10735000FFF760FC002608E0D4E901211AF80600D6
:107360009047206A401C761C20624E45F4DB207852
:10737000C0060AD52046FFF74DFC06E0D4E90121FE
:1073800030209047206A401C2062381EA7F1010778
:10739000F4DC07E0D4E9012118F805009047206AE1
:1073A000401C2062281EA5F10105F3DC2046FFF7F2
:1073B00047FC2078000602D50220BDE8F0870120B6
:1073C000FBE711680268006A530501D508700AE0FE
:1073D000D30501D5088006E0130603D5C217C1E91D
:1073E000000200E0086001207047000001694A1CAB
:1073F00002610878704700B58FB0CDE901310021F6
:10740000059105497944CDE9031011466846FFF717
:10741000AFFC0FB000BD0000E5FFFFFF0A6802F8F7
:10742000010B0A607047D1E900239A4202D2531C33
:107430000B60107070470000074B70B50D467B4421
:10744000FFF7D9FF0446284600F017FC10B14FF0B3
:10745000FF3070BD204670BDE7DBFFFF2DE9FF5F09
:1074600015468A460446DFF8AC80F8440027D8E980
:1074700000103E46CDE9001010E03AF816106A46BA
:1074800002A800F0FEFB411C07D02178890603D535
:10749000E269391891420DD80744761C207880069D
:1074A00002D5E069B84205DDAE42E6DB3AF81600E7
:1074B0000028E2D1A069C01BA0612046FFF7AAFB0B
:1074C000D8E90010CDE90010002017E03AF81810B4
:1074D0006A4602A800F0D5FBB0F1FF3F81460BD011
:1074E00000250DF1080B05E0D4E901211BF805008A
:1074F00090476D1C4D45F7D308F10100B04280461E
:10750000E4DB206A384420622046FFF799FBBDE89F
:10751000FF9F0000D24E00002DE9F0418046D21DB1
:1075200022F007020025D2E90002F52915A614D0A1
:10753000011E72F1000106DA0023D0EB030063EBB9
:10754000020211A608E0D8F800108B0701D50FA69B
:1075500002E0490701D50EA601251146002408F1D5
:10756000240704E000F0E2F830323A55641C50EA97
:107570000102F7D12B46324621464046BDE8F04194
:10758000FFF7C6BE000000002D0000002B00000029
:107590002000000030B4002100F1240408E002F0D3
:1075A0000705D208303542EA4372DB086554491CAE
:1075B00052EA0305F3D10468002310A2250708D579
:1075C00004F020040C4304D0C46901230CA2641EFF
:1075D000C46130BCFFF79CBE10B50446214610685C
:1075E000FFF764FE02462046BDE810400023D1E7C5
:1075F000D21D22F00701D1E90023CBE700000000F3
:10760000300000000FB4002300B589B00CA9009130
:107610000B99CB60204B7B440693204B7B44079314
:1076200004236FF00042CDE901321D4A7A446B46D3
:1076300008920246002003F086FF09B05DF814FBB3
:1076400070B506464FF0FF3015460C46324686B000
:107650000091CDE9010169460020049004A8FFF7DC
:10766000D1FF03460498211825B108B10A4600E06D
:1076700022462A6000280DD0002B02DD00988842A7
:1076800008D03246081B69460094CDE9010404A8DD
:10769000FFF7B8FF06B070BD2106000039060000F4
:1076A000870100004FF000020429C0F0128010F0A2
:1076B000030C3FF48DACCCF1040CBCF1020F18BFED
:1076C00000F8012BA8BF20F8022BA1EB0C01FFF75B
:1076D0007FBC5FEAC17C24BF00F8012B00F8012BBE
:1076E00048BF00F8012B704700487047BC030020DA
:1076F00000487047BC030020034640688C460028C1
:1077000018BF88423CBF03464068F8D31868184445
:10771000884207D00CF1030020F00700001D411A39
:10772000521A0146081D0A60FFF70EBD30B5B0F1D0
:107730000A024FEA900E71F100034EEA817EB0EB2F
:107740000E0061EB91014FEA101E4EEA017E10EB34
:107750000E0041EB11114FEA102E4EEA016E10EBB4
:107760000E0041EB11214FEA104E4EEA014E10EB94
:107770000E0041EB1141401841F100014FEAD000E9
:1077800040EA41704FEAD10110EB80054FEA8104D5
:1077900044EA907444EB01046D1944EB0404521B59
:1077A000A3414FF0000348BF0A3200D530BD401C52
:1077B00041F1000130BD10B5044600F0AFFA006899
:1077C000005D00F0010010BD70472DE9FF4F0C4631
:1077D0001E464FF0FF378BB0D2E90001DDF8608024
:1077E0000A908A46C1F30A5505B93D46002108466C
:1077F0004FF00000BAF1000F00F4400005DA00EB92
:1078000080004FF4400101EA50004FEA9059B9F16D
:10781000010F00DDB9460A9850EA4A000ED044F63E
:107820001050A5F2FF3545432F14B8F1000F1ED0BC
:107830007542291E1EDDC9F100021CE0B8F1010FDE
:107840004FF0000001D0302103E0F24305E0215465
:10785000401CB042FBDB30460022002121540B9932
:10786000C1F80880C1E900200FB0BDE8F08FBD1B52
:107870006D1CDEE74A4600DA694206A800F0ECFC1F
:1078800006AB93E8070003AB83E8070050460A996C
:1078900000F0E5FF8DE80700A0F500501F380090CC
:1078A0000398002D09DD42F21F014A46084403A94E
:1078B0000390684601F06FFA08E0A0F500504A46D0
:1078C0001F3803A90390684601F08DFA8DE8070080
:1078D0000004000C03D04FF0FF30410800E01046D8
:1078E000B8F1000F03D00022009215461EE0751E6D
:1078F00005D4FFF71BFF303262556D1EF9D5B34634
:107900000122084302D000227F1C04E020783028A6
:1079100001D100227F1E002A099786D01DE0112D7B
:1079200007DAFFF703FF303262556D1C50EA01029F
:10793000F5D1084302D00098C8B10EE00021681EBE
:1079400005E0235C625C63542254401E491C814262
:10795000F7DBAB46A81B401E0990002004F80B0083
:107960000B98099AC0F80880C0E9002B7CE7112623
:107970004FF0000859E72DE9F04F88460446D21D24
:1079800022F0070191B0D1E90001CDE90A0101F02F
:1079900074FB02460B98C00F01D02D2007E0206831
:1079A000810701D52B2002E0202101EAC000032A33
:1079B000099001D0072A05DB03464146204600F026
:1079C000B9F90BE12078800601D5E06900E00620D6
:1079D000B8F1650F814606D0B8F1660F18D0B8F13E
:1079E000670F70D131E00020B9F1110F009001DB79
:1079F000112301E009F101030AAA01A90CA8FFF76C
:107A0000E4FEDDE90C70002609F10105834647E03C
:107A100001204B4600904FF000470AAA01A90CA88C
:107A2000FFF7D3FEDDE90DB00C995D46002610B9D5
:107A300009F101000D18B9EB050003D4C0F1FF36C0
:107A400009F10105A5EB09002BE0B9F1010F01DAFD
:107A50004FF001090020B9F1110F0090484601DDF7
:107A6000112300E003460AAA01A90CA8FFF7ADFE06
:107A7000DDE90C704D4600268346207800070AD4C5
:107A8000AB4500DA5D4601A8012D04DD411911F86E
:107A9000011C302907D04F4502DA17F1040F04DA30
:107AA000012082460FE06D1EEEE7002F02DCED1B89
:107AB0003E4403E0781CA84200DD7D1CB81B00F1A9
:107AC000010A4FF000472078000703D4AA4501DBE4
:107AD0004FF0FF3A0021B7F1004F0DF143088DF848
:107AE000431024D002202B23002F01DA7F422D23C4
:107AF0000A21021EA0F1010000DC5FB197FBF1FC3E
:107B000097FBF1F201FB1C7C17460CF1300C08F8D6
:107B100001CDEEE7A8F1010003702188090501D528
:107B2000452100E06521A0F1010800F8011C099839
:107B30000FA9A1EB0807FF1D00B10120411901EBBE
:107B4000EA70A1693844081A401EA0612078C00676
:107B500002D42046FFF75EF8099828B1D4E9012144
:107B60009047206A401C20622078C00622D520461B
:107B7000FFF750F81EE0002E04DBB34502DD01A83C
:107B8000805D00E03020D4E901219047206A401C4C
:107B90002062761CAAF101005FEA000A0AD100F017
:107BA000C5F8C0680168405CD4E901219047206AAB
:107BB000401C2062281EA5F10105DCDC07E0D4E9A9
:107BC000012118F8010B9047206A401C2062381EE2
:107BD000A7F10107F3DC2046FFF732F8032011B0CC
:107BE00043E610B5436913B1AFF3008001E0FFF73E
:107BF00066FB012010BD127800F124010A700022FA
:107C00004A700122EDE711684FF0FF32E9E710B545
:107C1000436913B1AFF3008001E0FFF71FFC0120BF
:107C200010BD128800F1240182840022C284012246
:107C3000EDE711684FF0FF32E9E7426842B10168B1
:107C400011F8013B23B1521EC0E9001218467047DB
:107C50000121C160881E704742685AB1C36801683B
:107C600043B983688B4205D0491E521CC0E90012FB
:107C7000002070474FF0FF307047007B00F080001D
:107C8000704770B516460C46054600F047F8036885
:107C900093F80101012806D0FF2C0FD8185D68B1B8
:107CA00001202C7070BDD3F807013246214603F243
:107CB000071303442846BDE8704018474FF0FF30D3
:107CC00070BD10B500F042FBBDE8104000F038BBBD
:107CD0007546FFF709FDAE4605006946534620F09C
:107CE0000700854618B020B5FDF708FABDE820402A
:107CF0004FF000064FF000074FF000084FF0000B68
:107D000021F00701AC46ACE8C009ACE8C009ACE81A
:107D1000C009ACE8C0098D467047000010B500F0FE
:107D200005F8001D10BD00BF452300000048704746
:107D3000DC0300202DE9F0411F46044603260168BC
:107D4000072A01F4006004DB08B116A505E016A5BA
:107D500003E008B115A500E015A521F01000206092
:107D6000A069C01EA0610FB1401EA0612046FEF7B1
:107D700051FF4FB1D4E9012138469047206A401C99
:107D80002062C01C206206E0206AFAE7D4E90121E3
:107D900015F8010B9047761EF8D22046FEF750FFEB
:107DA000BDE8F0814E414E006E616E00494E4600C6
:107DB000696E66002DE9FF4F064689B00878FF28F6
:107DC00006D0491C2D2805D000244FF0000908E0FA
:107DD00000200CE00124F8E709EB8903491C00EBC3
:107DE00043090878FF28F7D114B1C9F10000814692
:107DF000107800252C46AA4629462D2801D02B288C
:107E000004D1521C2D2813D0002082468B461078B6
:107E1000FF280FD04FF0000C0A21521CA5FB01785F
:107E200004FB018105FB0C11C5194BEB0104EEE7C6
:107E30000120EAE7002108464FF00000BAF1000FE8
:107E400002D000EB80004008C0F38158B8F1010F68
:107E500001DD4FF0FF380C9809EB000755EA0400EC
:107E600009D04FF0020917F5FA7F0BDA4FEACA7012
:107E7000C6E900B012E04FEACA70C6E900B00DB022
:107E8000BDE8F08FB7F5FA7F0DDDF0487844D0E912
:107E90000010C6E9001040EACA707060FFF728FCC5
:107EA000C0F80090EBE7391E02DAC8F1000200E0EA
:107EB000424600DA794206A800F0CEF906AB93E814
:107EC000070003AB83E8070044F23E005BEA0401CD
:107ED0000090584604D144F21E012C465D460091A4
:107EE000210C0904014306D10099240444EA1544F5
:107EF0002D041039009104F07F41014306D100990F
:107F0000240244EA15642D020839009104F07041FE
:107F1000014306D10099240144EA15742D01091F7B
:107F2000009104F04041014306D10099A40044EAC5
:107F30009574AD00891E009104F00041084304D1FE
:107F400000986D196441401E009042466846002F1B
:107F5000CDE9014503A902DD00F059FF01E000F081
:107F60002EFFBAF1000F04460D4601D084F0004404
:107F700040F2FF7724F00040284303D0C4F30A50B6
:107F8000B84212D1FFF7B4FBC0F80090C4F30A5016
:107F9000B8420AD1AE487844D0E90010C6E90010D2
:107FA00004F000410843706069E7C6E9005466E7E1
:107FB0002DE9FF4F1F464FF0000A4FF0FF384546AE
:107FC00091B0D7E90146CDF83CA0FFF7AFFEC068FD
:107FD0000168405C1090B96912986D1C8847396A35
:107FE000814688470028F6D1B9F1FF3F0AD0002E1C
:107FF00024F4D06411DDB9F12B0F08D0B9F12D0FA5
:108000000BD102E0404615B03AE744F48064B96908
:1080100012986D1C8847761E8146600504A901D51B
:108020002D2000E02B20002E01F1010B0DF1300876
:108030008DF810003FDDB9F1690F08D0B9F1490F93
:1080400005D0B9F16E0F02D0B9F14E0F1CD13B46ED
:1080500001A8009580E85002DDE912126FF00200DD
:1080600003F075FAC11CCED10EE0B96912986D1CEF
:10807000884781461398761E44F4007405600F9873
:10808000401C002E0F9016DDB9F1300FEDD0B9F184
:10809000780F02D0B9F1580F0DD10F9801280AD1ED
:1080A0003B46CDE90054DDE91212001F029603F0B1
:1080B0004CFAC11CA7D1109989453ED144F08004E7
:1080C00006E01399681CAAF1010A44F400740860E0
:1080D000B9696D1C1298761E884730288146F0D009
:1080E0002BE01099894505D1200603D4761E44F073
:1080F000800418E0484601F054FB08B3761E0DF1E9
:1081000023018B4544F4007408D2A9F130000BF828
:10811000010B200607D5AAF1010003E0200602D4D6
:108120000AF101008246A00502D51399681C086077
:10813000B96912986D1C88478146002ED1DC53E046
:10814000002E51DDB9F1650F02D0B9F1450F4BD1C9
:10815000A00549D5B9696D1C1298761E24F44074A7
:108160008847002E81460CDD2B2804D0B9F12D0F55
:1081700007D144F48074B96912986D1C8847761E43
:108180008146E00501D52D2100E02B2108F8011BD7
:10819000CDF8008021E0761E0DF13901884544F4C8
:1081A00000740CD2A9F1300010F0FF0088F8000034
:1081B00002D10099884509D908F1010806E0E005D7
:1081C00001D5244801E042F20F708246B969129845
:1081D0006D1C8847814613980560002E04DD4846D3
:1081E00001F0DFFA0028D6D1F96912988847FF20FC
:1081F00053468BF8000088F8000000200A900B908E
:1082000004AA0CA90AA8FFF7D5FDA00502D46FF0B7
:108210000100F8E614F0240F0AD0E00714D1386802
:10822000DDE90A12031D3B600068C0E900120BE0A3
:108230000AA9684601F05EFAE00705D13868009A9D
:10824000011D3960006802602846DCE6E446000053
:10825000DA450000F1D8FFFF2DE9F04781461646C8
:108260008AB0334878440DC88DE80D003048784412
:10827000801C03AC0DC884E80D0041F69B30084417
:10828000372190FBF1F290FBF1F5A5F1800501FBA0
:1082900012041B3C02D56442012000E00020DFF8FC
:1082A00090A080460027FA44AAF1BE0A0DE0E0073C
:1082B00009D03246684607EB47010AEB810100F01E
:1082C00092FD8DE8070064107F1C002CEFD1184F41
:1082D0007F44AC3F18E0E80714D007EB04100DF121
:1082E000180A90E80E008AE80E00C068F04201D13A
:1082F00098190890324606A903A800F074FD03AB54
:1083000083E807006D10641C002DE4D132466946F5
:10831000B8F1000F03A802D000F03DFD01E000F02D
:1083200062FDC9E90001C9F808200AB0BDE8F0877C
:10833000844200000446AFF300802046F7F7B9FFFF
:10834000002801D0FCF76DBE7047000010B5012871
:1083500005D0002103A000F021F8012010BD09A1E3
:10836000F8E7000053494752544D454D3A204F75A8
:1083700074206F662068656170206D656D6F72791D
:10838000000000003A2048656170206D656D6F72D5
:108390007920636F727275707465640070B50546FC
:1083A0000C460A2000E06D1CFCF738FE35B1287839
:1083B0000028F8D102E0641CFCF730FE14B12078EC
:1083C0000028F8D1BDE870400A20FCF727BE000065
:1083D0002DE9FF4F1F464FF03C0987B04FF0004298
:1083E000DDE9141001F10108DDF858A002EA40505F
:1083F0000390002004908346054604460590B96921
:10840000461E08988847AAF1010A0290BAF1000FA7
:1084100037DD02982E2815D0102100F012FA00281E
:108420002ADB4FF0010B0499014316D0B9F1000F7C
:108430000BDB4A46C11700F0F1F905430C43A9F1E3
:10844000040905E00120059007E008B145F00105A9
:1084500001200490059800B9361DB969089808F103
:1084600001088847BBF1000FAAF1010A0290CDD0A4
:108470000999C1F80080C9E70298702808D05028EF
:1084800006D0F96908988847BBF1000F14D04FE077
:10849000002002900120BBF1000F049009D0B969BF
:1084A000089808F101088847AAF10109B9F1000FFD
:1084B00007DCF969089888476FF001000BB0BDE848
:1084C000F08F2B2804D02D280CD14FF0FF300490D2
:1084D000B969089808F101088847A9F10109B9F1BB
:1084E000000FE6DD411CE4D00A2100F0AAF90028C3
:1084F000DFDB029908F1010801EB810100EB41008B
:108500000290B969089888470A2100F09AF9099AF7
:10851000A9F10109B9F1000FC2F8008001DD0028BE
:10852000E7DAF969089888470499029800FB016620
:1085300055EA040004D004F04041090002D006E0EE
:10854000039898E0A40044EA9574AD00B61E04F0C8
:108550000041080002D16D196441761E159810F093
:10856000240F03D04FF00B095C4803E04FF02809BB
:108570006FF07D008246564507DAAAEB0601894472
:10858000B9F1410F01DD4FF0410901200021A9F1AE
:10859000010200F043F9024628400B4621400843FF
:1085A00001D0012100E00021501E029143F1FF3172
:1085B00028402140084301D0012000E0002002991A
:1085C000834651EA0B014FD0002108464FF00000CE
:1085D000039900F4400039B100EB80004FF44001F2
:1085E00000EBD07001EA60008015012802DD4FF039
:1085F000FF3000E013D0401C36D0029860B3BBF1CE
:10860000000F0CD14A460120002100F007F9284054
:108610002140084301D0012000E00020E0B101200A
:108620004A46002100F0FAF8034640190A46614123
:108630002D1A8C4111D3B9F1400F09DD159810F0B6
:10864000240F02D0AAF1340603E0AAF1170600E0D5
:10865000761C00254FF0004406E05B1E42F1FF321D
:1086600020EA030521EA0204CAF10100B04206DA59
:108670001B49039808430190002000900EE0039AE4
:10868000C4F3D321E80A0A43164940EA44500A4396
:108690003146CDE90002684601F078F8159810F0EF
:1086A000240F0BD01598C00715D13868DDE90012EA
:1086B000031D3B600068C0E900120CE002A8694697
:1086C00001F018F81598C00705D13868029A011D05
:1086D0003960006802604046F0E6000002FCFFFFDF
:1086E0000000F07F0000F03F2DE9FF4F92461D464D
:1086F00085B04FF00041DDE9124BDDE914727F1EB9
:1087000001EA4B50414940F0FF4940EA010800218D
:1087100022F020004928049102D04E2828D04CE0B5
:108720003BA0012607C88DE80700A9690698641CCC
:1087300088477F1E014606D41DF8060018B121F0B7
:10874000200181420BD0E96906988847032E34D076
:10875000082E32D06FF0010009B0BDE8F08F761C12
:10876000032E01D0082EE0D1601CCAF80000DCE71F
:10877000A9690698641C88477F1E2AD420F020002F
:10878000412826D1A9690698641C88477F1E20D4F9
:1087900020F020004E281CD1A9690698641C884747
:1087A0007F1E48F4002849F48009CAF8004001D42B
:1087B000282806D0E969069888475FEACB7012D06E
:1087C00022E0A9690698641C88477F1E01D400280E
:1087D00003DAE96906988847BCE72928F1D1641CC7
:1087E000CAF80040E9E71BF0240F07D02868049975
:1087F000031D2B600068C0E9001805E02868021D11
:108800002A600068C0F800902046A5E70000F07FCD
:10881000494E46494E49545900000000B2F1200328
:108820000AD5C2F1200301FA02F120FA03F300FA9B
:1088300002F041EA0301704700FA03F14FF0000033
:1088400070473A2800D2303820F02002412A01D364
:10885000A2F13700884201D34FF0FF3070475FEA42
:10886000400C08BF91F0000F4FEA8C234FEAC12261
:1088700043EA51514FEA1C5018BF00F5F0404FEA4F
:10888000300018BF41F000415FEA6C5C00F02980C5
:10889000BCF1FF3F08BF40F080407047130C06BF9B
:1088A00012044FF0100C4FF0000C130E04BF120214
:1088B0000CF1080C130F04BF12010CF1040C930F00
:1088C00004BF92000CF1020CD30F04BF52000CF154
:1088D000010C11464FF00002A0F11F00A0EB0C00AC
:1088E000704711F0004F08BF704731F000413FF46E
:1088F000D5AF0B0C06BF09044FF0100C4FF0000C65
:108900000B0E04BF09020CF1080C0B0F04BF090188
:108910000CF1040C8B0F04BF89000CF1020CCB0F7F
:1089200004BF49000CF1010CCCF12003A0EB0C00BA
:1089300022FA03F302FA0CF241EA030100F101000A
:10894000704720F07F4C80EA030023F07F47ACEBB8
:10895000070303F57C5300F0004003F1FF032DE90A
:1089600080494FEA154B09B44FEA144325EA0B4EF0
:1089700024EA03480FF2042606EB132749083E7841
:108980005FEA320203FB0667C7F5000707FB06F63E
:108990004FEA54374FEAD64606F1020607FB066C4B
:1089A000CCF1005C4FEA1C472CEA074C07FB06F4AD
:1089B0000CFB06F504EB15464FEA961634BF002073
:1089C0004FF000404FEAD13706FB07FC4FEA1C4C42
:1089D0000CFB0BF7D21B03FB0CF761EB07010CFB45
:1089E0000EF7B0EB074072EB17420CFB08F734BFF1
:1089F000A2EB0742B2EB074261EB17414FEA0C448E
:108A00004FEA910706FB07FC4FEA1C4C0CFB0BF7E7
:108A1000B0EBC74072EB573203FB0CF734BFA2EB4D
:108A2000C742B2EBC74261EB57310CFB0EF7B0EB1C
:108A3000C70072EB57720CFB08F734BFA2EBC702FA
:108A4000B2EBC70261EB5771039F4FEA816141EAC4
:108A5000921104EBCC044FEAD1374FEA826206FB55
:108A600007FC42EA90124FEA80604FEA1C4C0CFB74
:108A70000BF7D21B03FB0CF761EB07010CFB0EF7A6
:108A8000B0EB074072EB17420CFB08F734BFA2EBC8
:108A90000742B2EB074261EB17414FEA8C554FEAB0
:108AA000910704EB9C2406FB07FC4FEA1C4C0CFBD3
:108AB0000BF7B0EBC74072EB573203FB0CF734BF38
:108AC000A2EBC742B2EBC74261EB57310CFB0EF78A
:108AD000B0EBC70072EB57720CFB08F734BFA2EB88
:108AE000C702B2EBC70261EB577115EB4C254FEA99
:108AF000816141EA92114FEA82624FEAD13742EA3C
:108B0000901206FB07FC44F100044FEA80604FEA34
:108B10001C4C0CFB0BF7D21B03FB0CF761EB0701A2
:108B20000CFB0EF7B0EB074072EB17420CFB08F79B
:108B300034BFA2EB0742B2EB074261EB174115EBE2
:108B40001C154FEA813141EA92414FEA823242EAF2
:108B500090424FEA80304FEA0C7644F1000448EA34
:108B600003434EEA0B484FF0000EB2EB080C71EBDA
:108B7000030724BF624639464EEB0E0E4FF0000B42
:108B80000018524149414BEB0B0BB2EB080C71EB57
:108B900003077BF1000B24BF624639464EEB0E0EF5
:108BA0004FF0000B0018524149414BEB0B0BB2EB5D
:108BB000080C71EB03077BF1000B24BF62463946BA
:108BC0004EEB0E0E51EA020718BF46F0010616EBF7
:108BD0000E7655F1000254F1000103D5BDE889017C
:108BE000BDE80088BDE88901BDE80048B6195241DA
:108BF00041EB0101A3F10103704780807F7E7D7C02
:108C00007B7A7978777676757473727171706F6E1E
:108C10006E6D6C6C6B6A6A696868676666656464C9
:108C2000636362616160605F5F5E5E5D5D5C5C5B53
:108C30005B5A5A59595858575756565555555454C2
:108C4000535352525251515050504F4F4F4E4E4D20
:108C50004D4D4C4C4C4B4B4B4A4A4A49494948486C
:108C600048474747474646464545454444444443AC
:108C700043434342424242414141000046EA0646E4
:108C8000A3F570534FEA164646EA42564FEAD222FF
:108C900042EA415210B54FEAD121A3F1010300F09D
:108CA00017F820F0004000F1010C00F0004701EB44
:108CB00000501146BCF5006F40EA070000D210BD1D
:108CC00002484FF0000140EA070010BD0000F07FAD
:108CD000002B26D4770021D01CB54FEA370703B408
:108CE0004FF010004FF010014FF000000FBCBDE836
:108CF00010400BF1010BBBF1010F08BF5FEA170732
:108D000022BF12F1010211F101014FF0004143F1C4
:108D1000000300F0004043EA00007047F9D3570811
:108D2000DAE746EA064613F1400F4FEA16461FDD22
:108D300013F1200FDFBF16430A46002120335B42A8
:108D4000C8D0C3F1200746EA064602FA07F74FEA01
:108D5000164646EA0706C3F1200722FA03F201FA93
:108D600007F721FA03F14FF0000342EA0702B1E7E7
:108D700046EA020646EA06464FEA164646EA010673
:108D8000BCBF46EA0646360C4FF000034FF0000227
:108D90004FF000019EE72DE9C048934630B491E8BA
:108DA000380007C831EA400C48BF34EA430C03D509
:108DB000FFF7C7FDFFF78CFFF0BCBDE800882DE989
:108DC000C048934630B491E8380007C831EA400CF7
:108DD00048BF34EA430C03D5FFF7B3FDFFF74EFF5E
:108DE000F0BCBDE800882DE9C048934630B491E856
:108DF000380007C810F0804F08BF13F0804F03D130
:108E000000F019F8FFF764FFF0BCBDE800882DE919
:108E1000C048934630B491E8380007C810F0804F3E
:108E200008BF13F0804F03D100F005F8FFF726FFCD
:108E3000F0BCBDE8008820F07F4780EA030023F003
:108E40007F4C07EB0C03A3F57C5300F00040A3F12B
:108E5000FE0392F0000F00F0B38095F0000F00F0D9
:108E600077802DE901494FEA11404FEA144621EA83
:108E7000004800FB06FC24EA064708FB06F607FB51
:108E800008F800FB07F718EB06484CEB164C4FEAC6
:108E9000124B18EB07484FEA15464CEB174022EAF5
:108EA0000B4E0BFB06FC25EA06470EFB06F607FBFE
:108EB0000EFE0BFB07F71EEB064E4CEB164C4FF06D
:108EC00000061EEB074E4CEB174B18EB0B0840F15E
:108ED000000018EB0E0B58EB000840F100008F1A51
:108EE0004FF000013CBFC943661B14BFB5EB040C37
:108EF00000213CBFC943F61B4FEA17444EEA8E0ED1
:108F000027EA04454FEA1C4704FB07622CEA074C9A
:108F100005FB07F70CFB05F604FB0CFC16EB0746FC
:108F200042EB174216EB0C4642EB1C421BEB0606CB
:108F300058EB0202414146EA9E0601D5BDE801898F
:108F4000B619524141EB0101A3F10103BDE80189CA
:108F50004FEA14454FEA114724EA054621EA074C37
:108F600005FB07F406FB07F70CFB06F105FB0CFC01
:108F700011EB074144EB17444FEA124711EB0C4148
:108F800044EB1C4422EA074C05FB07F206FB07F7FB
:108F90000CFB06F605FB0CFC16EB074642EB1742F2
:108FA00016EB0C4642EB1C456A1854F1000148BF11
:108FB0007047B619524141EB0101A3F1010370471B
:108FC00095F0000F37D04FEA11424FEA144721EADB
:108FD000024624EA074C02FB07F106FB07F70CFBED
:108FE00006F402FB0CFC14EB074441EB17414FEA7B
:108FF000154714EB0C4441EB1C4125EA074C02FBDE
:1090000007F506FB07F70CFB06F602FB0CFC16EB5C
:10901000074645EB174516EB0C4645EB1C4212196B
:1090200051F1000148BF7047B619524141EB0101AF
:10903000A3F1010370474FEA14454FEA114724EAB0
:10904000054621EA074C05FB07F106FB07F70CFB79
:1090500006F24FF0000605FB0CFC12EB074241EB59
:10906000174112EB0C4251EB1C4148BF704792185C
:1090700041EB0101A3F101037047490050EAC1200F
:1090800018BF04204A0D18BF40F0010040F2FF72E3
:10909000B2EB515F08BF40F00200012808BF052075
:1090A000704700002DE9F74F144694B00021C4E941
:1090B00002111599079121F00045C9498D4206DC3E
:1090C0001599C4E9000117B00020BDE8F08FC5492B
:1090D000DFF814A3A9423CDD0799C44E0029C44F10
:1090E000C44A1599534619DD01F042FD554506D095
:1090F000C14AC24B01F03CFDC4E900010AE04FF057
:10910000D352BE4B01F034FD32463B4601F030FDF8
:10911000C4E9000117B00120BDE8F08F00F0EEFFB8
:10912000554506D0B44AB54B00F0E8FFC4E900014C
:109130000AE04FF0D352B14B00F0E0FF32463B461D
:1091400000F0DCFFC4E9000117B04FF0FF30BDE8CC
:10915000F08FAB49A942159978DB21F00041834695
:109160008846A84AA84B01F0DDFA0022A74B00F080
:10917000C5FF01F013FA099001F06DFA06460F469B
:109180009C4A534601F0CEFA43465A4601F0FEFB94
:1091900080468A46984A994B3046394601F0C2FAD1
:1091A0002A0D01250B924246534601F0EFFB032D99
:1091B000C4E9000139D00B98C1F30A51401A05EBFC
:1091C00045111139814230DA9148C346784400EBA9
:1091D0000510CDF80CA00C90D0E90023304639469C
:1091E00001F0A0FA02460B460491069058460399F6
:1091F00001F0BEFC80468A4602460B46584603995B
:1092000001F0B6FC049B069A01F0B2FC83460C9870
:1092100003913946D0E90223304601F083FA5A46D9
:10922000039B01F0A5FC6D1CBDE707980028A2BFB9
:10923000099817B0BDE8F08F616881F00041616066
:10924000099817B04042BDE8F08FFFE784461598B3
:10925000C1F31301C0F30A50A0F2F5304FEA6018D1
:1092600000F01F06C6F12000139000200690079022
:1092700041F4801E05206D4676B1664A08EB000178
:109280007A4452F8213002EB8101B3404A681399C5
:1092900022FA01F1194305E05F4908EB0002794425
:1092A00051F82210A1FB0E27A1FB0C131A449A427D
:1092B00034BF0123002303EB070A05EB8003D3E946
:1092C00001B70F448F4234BF0121002193448B44E6
:1092D00011B1934502D903E0934501D2012100E089
:1092E0000021C3E901B7514445F82010011EA0F147
:1092F0000100C1DC0298059F00F10050800F129020
:109300000298DDE90356800001F0A5F9834628465E
:109310000D9101F0B7F96FF01D0202F0E6F8CDE90A
:109320000E01304601F0AEF96FF03D0202F0DDF8BB
:1093300080468A46384601F0A5F96FF05D0202F0DA
:10934000D4F8074642465346119100F0D7FEDDE9B6
:109350000E2300F0D3FE5A460D9B00F0CFFE0025F1
:109360000E465A4628460D9B01F002FCDDE90E230D
:1093700001F0FEFB4246534601F0FAFB3A46119BD0
:1093800001F004FBDFF898A0244A534601F0CAF923
:1093900007468846234A244B3146284601F0C2F945
:1093A0003A46434600F0AAFE074688464FF0A842D8
:1093B00053463146284601F0B5F93A46434600F097
:1093C0009DFE159A12F0004F04D0129A81F00041D0
:1093D00052421292C4E90001129817B0BDE8F08F12
:1093E000FB21E93F7CD90240FB21F93F7370032E3A
:1093F0008A19A33B000040543163621A61B4D03D26
:10940000FB21394183C8C96D305FE43F0000E03F74
:10941000B03100002C3100000E310000182D4454F2
:10942000FB21F93D3326A611460B113C2DE9FF4DDA
:1094300021F0004807460C46B8F1795F08DA01F0E0
:10944000ADF8002801BF0020324904B0BDE8F08D1E
:109450003A4623461046194601F064F9054602468D
:109460002D480E460B460621784400F05DF82A464A
:10947000334601F057F9DDE9022382468B46384630
:10948000214601F04FF904460F4652465B462846F6
:10949000314601F047F922463B4601F069FB074699
:1094A0008A464FF0FF322846314602F01EF81B4A2A
:1094B00090450ADA3A46534601F05AFB04B00022BE
:1094C000BDE8F04D134B01F061BA154A4245A8BF03
:1094D000A8F500154FF00004B8BF124D22462B46E8
:1094E00001F046FB0646884622462B4600200949E5
:1094F00001F03EFB04460D463A465346304641468F
:1095000001F036FB04B022462B46BDE8F04D01F0D9
:109510003DBA00000000F03FDC2E00003333D33FA3
:109520000000E93F0000D23F2DE9F0414F1E00EB63
:10953000C7010446D1E9000115461E4637F0060270
:109540000DD02A46334601F0EDF87F1E04EBC70329
:10955000D3E9002300F0D2FD37F00602F1D1022F4B
:1095600025D0042F13D0062F18BFBDE8F0812A465E
:10957000334601F0D7F8D4E90A2300F0BFFD2A46AC
:10958000334601F0CFF8D4E9082300F0B7FD2A46AE
:10959000334601F0C7F8D4E9062300F0AFFD2A46B0
:1095A000334601F0BFF8D4E9042300F0A7FD2A46B2
:1095B000334601F0B7F8D4E9022300F09FFD2A46B4
:1095C000334601F0AFF8D4E90023BDE8F04100F0E4
:1095D00095BD00002DE9FF4D054621F0004084B007
:1095E0000C46B0F1795F0BDA2846FFF746FD0428F8
:1095F00008BF00F077F8284608B02146BDE8F08D96
:109600002A460B46104601F08DF806460F462A46BC
:10961000234601F087F8804626488A4632463B4674
:1096200005217844FFF780FF83461098029160B3CC
:10963000214A224B4046514601F074F8CDE9000121
:109640005A4640465146029B01F06CF882468846D5
:10965000DDE906014FF0FF3201F047FF5246434675
:1096600001F086FA32463B4601F05CF8DDE906235C
:1096700001F07EFADDE9002301F07AFA08B02A460B
:109680002346BDE8F04D01F081B90B465A463046FD
:10969000394601F047F8084A084B00F02FFD4246D2
:1096A000534601F03FF808B02A462346BDE8F04D86
:1096B00000F024BD222E0000495555555555C5BF13
:1096C000012201F012BF00F019BD0022134610461E
:1096D000114600F0CFBD40F2013200204FF0E041D2
:1096E00001F003BF024A0020110701F0FEBE000096
:1096F00001FDFFFF10B50446D1E9000100F002F8BA
:10970000206010BDF8B504460D466A4600F0BCFB6B
:1097100000987E30009000281FDC0022134620466F
:10972000294600F0FFFE18D0002140F608004FF057
:10973000000006462046294600F0AEFC044640F6EE
:10974000080006EA00014FF0000034F0004004BFBA
:109750000220FDF79CFD2046F8BD0098FF280DDB98
:109760000220FDF794FD002213462046294601F011
:10977000D7F88CBF04484FF0FF40F8BD204629467B
:10978000BDE8F84000F088BC000080FF10B504463A
:109790000A46D4E90003194600F0A2FBC4E900011F
:1097A00010BD30380A2801D20120704700207047D0
:1097B0002DE9F04D8D4F21F0004A86B005460C464C
:1097C000BA452ADBAAEB070028430AD0884882451D
:1097D00001DC1AD1CDB106B02846BDE8F04DFFF747
:1097E0006FBF844A844B284600F09CFF07460E4614
:1097F000824A834B2846214600F094FF06B03A4641
:109800003346BDE8F04D00F079BC0120FDF73FFD87
:1098100006B0BDE8F04DFFF758BF7A48824542DAFE
:10982000BAF1795F0BDA2846FFF727FC042808BF56
:10983000FFF758FF284606B02146BDE8F08D2A46BE
:109840000B46104600F06EFF834602466E480E46F9
:109850000B4606217844FFF767FE5A46334600F070
:1098600061FF804669488A465A4633460421784457
:10987000FFF75AFE5A46334600F054FF00223B469B
:1098800000F03CFC02460B464046514600F0F2FC1C
:109890002A46234600F046FF06B02A462346BDE886
:1098A000F04D00F02BBC284624F0004100223D463C
:1098B0003B4601F06BF84FF0FF3201F016FE064612
:1098C000024653480F460B4606217844FFF72CFE0C
:1098D00032463B4600F026FFCDE900014D483246B6
:1098E0003B4604217844FFF71FFE32463B4600F01A
:1098F00019FF00222B4600F001FC834602913046FE
:10990000394600F077FB804643480D46504517DC4A
:10991000DDE900015A46029B00F0ACFC42462B46B2
:1099200000F000FF42462B4600F0E8FB012201F068
:10993000DCFD304A304B01F01BF9304A304B4CE033
:109940004FF0000A52460B46404600F0D7FBCDE9E7
:10995000031052462B461046194600F0E3FE3246ED
:109960003B4601F013F8DDE9033200F083FC0646C4
:109970000F46DDE900015A46029B00F07BFC83465E
:10998000009101223046394601F0AFFD194A1A4BC9
:1099900000F0FCFF06460F4601224046294601F032
:1099A000A4FD5A46009B00F0BDFE32463B4601F046
:1099B000DFF806460F4601225046294601F095FD84
:1099C0000E4DDFF858802A46434600F0DFFF32464E
:1099D0003B4600F0DBFF2A46434600F0D7FF002C51
:1099E000D8BF81F0004106B0BDE8F08D0000F03F27
:1099F0000000F07F075C143326A6913C182D4454D8
:109A0000FB21F93F0000E03F002A0000162A000079
:109A10008A290000A02900003333EF3FFB21E93FF2
:109A20002DE9F84F04460D4621F00040009173499E
:109A3000814211DC7249884201DC06D12CB12046FA
:109A40002946BDE8F84FFFF73BBE6E48002DCCBF5E
:109A50006D496E49BDE8F88F6D49814211DD6D4950
:109A60008142D8BF4FF0FF366DDD20462946FFF713
:109A700004FB042808BFFFF735FE20462946BDE851
:109A8000F88F6549654F25F00045814233DD644913
:109A9000814219DD002632464FF080432046294698
:109AA00000F02CFB80468A4601222046294601F020
:109AB0001CFD00223B4601F05BF84246534600F095
:109AC000D9FB04460D463EE001260022BA463B463D
:109AD0002046294600F012FB80460F4600225346DE
:109AE0002046294601F044F842463B4600F0C2FBBE
:109AF00004460D4627E04B4981421BDDDFF828A1D3
:109B00000226002253462046294600F00BFE002282
:109B10003B4600F0F3FA80460F46002253462046AB
:109B2000294601F025F842463B4600F0A3FB0446D7
:109B30000D4608E0032622462B4600203B4900F054
:109B400099FB04460D4622462B461046194600F066
:109B5000E9FD8B46824602460B4600F0E3FD0746D0
:109B60000246334888460B4606217844FFF7DCFC62
:109B700052465B4600F0D6FD82462E488B463A465A
:109B8000434605217844FFF7CFFC3A46434600F0B0
:109B9000C9FD02460B46002E504659460CDA00F02D
:109BA000ADFA22462B4600F0BDFD01B022462B4601
:109BB000BDE8F04F00F0EABE00F0A0FA22462B46C6
:109BC00000F0B0FD1C4A7A4402EBC603D3E900233F
:109BD00000F0CEFF22462B4600F0CAFF174A7A4417
:109BE00002EBC603D3E9002300F0D0FE009A002A5E
:109BF000B8BF81F00041BDE8F88F000000001044BC
:109C00000000F07F182D4454FB21F93FFB21F9BFE0
:109C10000000DC3F0000203E0000F33F0000F03F6A
:109C20000000E63F008003400000F83F0000F0BF66
:109C3000A227000060270000FE260000C6260000C4
:109C40002DE9F04D9446CCF1000423F000464CEA97
:109C50000404524F46EAD4749A46884621F00042E2
:109C6000BC4206D8454240EA050442EAD474BC42EC
:109C700004D9BDE8F04D6246FFF725BDAAF1405575
:109C8000A5F17F6555EA0C040BD0022404EAAA74FE
:109C9000434DDFF810E144EAD87452EA000B04D0D7
:109CA0000CE0BDE8F04DFFF7BBBE002C14BF012C4B
:109CB000BDE8F08D022C30D0032C32D056EA0C0BCC
:109CC0000AD0BE4220D1BA4209D126F0804622F005
:109CD00080423346114617E000291ADB25E0DFF801
:109CE000C8B0FB44002C04BFDBE90001BDE8F08DE7
:109CF000012C02BFDBE9000181F00041BDE8F08DDD
:109D0000022C0AD0032C0CD0BA4212D1B8F1000FA9
:109D10000BDA23482549BDE8F08D28462449BDE8E3
:109D2000F08D28467146BDE8F08D1D482149BDE8FB
:109D3000F08D921B12153C2AC4BF19481D490EDC38
:109D4000BAF1000FBEBF12F13C0F0020014606DB46
:109D5000624600F08FFA21F00041FFF761FE002C0F
:109D600008BFBDE8F08D012C04BF81F00041BDE8C3
:109D7000F08D114A114B022C07D000F0F9FE2A4653
:109D8000BDE8F04D0A4B00F0F3BE00F0F1FE2A46AC
:109D9000BDE8F04D064B00F0F9BD00000000F07F7B
:109DA000182D4454FB2109C092260000FB21F9BF65
:109DB000FB210940FB21F93F075C143326A6A13C97
:109DC00030B583B00446FDF75DFA05460020CDE9C5
:109DD0000000024621466846FDF732FC2846FDF7A2
:109DE00056FADDE9000103B030BD000000B5244B98
:109DF00021F0004287B09A42DCBF0022134629DDE1
:109E0000204B9A4208D140B94FF00100FDF73FFACC
:109E1000FFF75BFC07B000BD03DBFFF751FC07B0A9
:109E200000BD02AAFFF73EF910F0030104BF0DF1D7
:109E3000080C9CE80F000DD0012001290ED002294A
:109E400014D00DF1080C00909CE80F00FFF7C2FB46
:109E500007B000BDFFF7EAFA07B000BD0DF1080C2E
:109E600000909CE80F00FFF7B5FB05E00DF1080C32
:109E70009CE80F00FFF7DAFA07B081F0004100BD5F
:109E8000FB21E93F0000F07F10B51446002222605C
:109E9000114A21F000439342A8BF10BD53EA0002CB
:109EA00008BF10BDB3F5801FA8BF226807DA3622AD
:109EB00001F01BFB6FF0350221F000432260DFF858
:109EC0001CC06FF31E510CEB23531A4441F0FF5199
:109ED00041F00051226010BD0000F07F02FCFFFF46
:109EE0002DE9F04106460C4640F2FF75174635EA6B
:109EF00014502BD000221346304600F013FB25D01F
:109F00003A463046214601F0F0FA06460C4635EA5C
:109F1000145010D000221346304600F003FB15D138
:109F20000220FDF7B4F9FFF7DDFB0A46214662F394
:109F30001E01BDE8F0810220FDF7A9F9FFF7CBFB78
:109F40000A46214662F31E01BDE8F08130462146F3
:109F5000BDE8F08100B5254B21F0004287B09A4260
:109F600003DC0022134600922BE0214B9A4208D1D9
:109F700040B94FF00100FDF78AF9FFF7A6FB07B0E3
:109F800000BD03DBFFF79CFB07B000BD02AAFFF793
:109F900089F810F003014FF001000DD0012914D011
:109FA00002291AD00DF1080C9CE80F00FFF73EFAC9
:109FB00007B081F0004100BD0DF1080C00909CE855
:109FC0000F00FFF707FB07B000BD0DF1080C9CE880
:109FD0000F00FFF72BFA07B000BD0DF1080C009041
:109FE0009CE80F00FFF7F6FAE2E70000FB21E93FEB
:109FF0000000F07F2DE9F04106460F4600F0D2FC4C
:10A0000004000D4618BF0120284320F00040C0F195
:10A010007F6000F1E040C00F0ED0301C18BF01205F
:10A02000384320F00040C0F17F6000F1E040C00FF5
:10A0300004BF0120FDF72BF920462946BDE8F08139
:10A0400010B500290AD00878002807D005487844C0
:10A05000FCF7E4FF002801D0002010BD024878443E
:10A0600010BD00002E2500002625000010B5002997
:10A070000AD00878002807D005487844FCF7CEFFBE
:10A08000002801D0002010BD0248784410BD000017
:10A090001E2500001625000021F00042A2F16052AA
:10A0A000B2F5801F01F0004328BFD2F17F6C0BD9BD
:10A0B0005FEA001C43EAC20242EB507018BF7047CF
:10A0C00028BF20F001007047B2F5801FBCBF1846C2
:10A0D00070474FEA410C1CF5001F02D2084601F000
:10A0E00024B970B500F0C8FB00000089FFF7F6BF87
:10A0F0004FF00040A0F580007047000010B591EAD5
:10A10000030F48BF83F0004300F13A85841A71EBD6
:10A11000030C05D2121943EB0C03001B61EB0C017D
:10A12000DFF824E14FEA1154A4EB135C1EEA430F5D
:10A1300018BF9EEA445F73D023EA0E03DCF1200EC1
:10A1400021EA045143F4801332D322FA0CFE10EBBF
:10A150000E0023FA0CFE41EB0E01CCF1200E03FAA7
:10A160000EFE10EB0E0051F10001B1F5801FCCF195
:10A17000200E32D201EB045112FA0EF2BDE810406B
:10A1800058BF7047401C38BF5FEA420218BF704793
:10A19000002814BF20F0010041F100014FEA410303
:10A1A00013F5001F38BF7047A1F1C04100F0B2BBEA
:10A1B000012A43EB0302ACF1200CDCF11F0E32BF8D
:10A1C0004FF0000E23FA0CF310EB030041EB0451A7
:10A1D000B4EB115FD0D0A1EB045101F58011490817
:10A1E0005FEA300001EB04510ED350F1000038BF9C
:10A1F00012FA0EFE08D1BDE81040C9E7401C38BF76
:10A200005FEA4202CAD1C3E7BDE810404FEA41030A
:10A2100013F5001F38BF7047A1F1C04100F07ABBB1
:10A220009EEA445F08D011EA5E0FBDE8104004BF0B
:10A2300001F0004100207047BDE8104070B500F00B
:10A240001BFB00BF64FBBE3E0000E0FF02494FF075
:10A25000000001F018B900BF0000F87F491058BF96
:10A26000C1F140415B1058BFC3F140438B42EFF353
:10A27000008070472DE9C04130B4DFF8A0C23CEA4D
:10A28000111418BF3CEA131400F0EC8081EA0305B6
:10A290001CEA111444EAD57418BF1CEA131500F027
:10A2A000C780A4EB05044FF0004545EAC12145EA0B
:10A2B000C32341EA505143EA525304F17F74994257
:10A2C00004F500344FEAC0204FEAC22208BF904292
:10A2D00000F09C804FEA13650FF24016765D4FEA5E
:10A2E000134506FB05F7C7F1807706FB07F74FEA32
:10A2F000D737A7FB03687642C8F58038A7FB06CEA0
:10A3000038BFA8F1010807FB08E64FF0000EA6FBD6
:10A31000028CE6FB03CEDCF1000CCEF1004E38BF20
:10A32000AEF1010EA6FB0C584FF000074FF00005F0
:10A33000E6FB0E87A1FB08C6A0FB07CE16EB0E06B8
:10A3400045F10005E1FB076515F1E04E7EBFA4F580
:10A3500080345FEA46066D4116F1800745F100053D
:10A360004FEA17274FEA066647EA0567A6F1DE4679
:10A37000B6F1805F4FEA15251FD9384624F0010C4D
:10A3800005EBC471BCF1FE6F01EB0C1102D8F0BCFF
:10A39000BDE8008124425CBF01F5801E9EEAC47FB7
:10A3A00002D4F0BCBDE80081244238D4F0BCA1F155
:10A3B000C041BDE8004100F0ADBA4FEAD22242EA06
:10A3C00043524FEAD323A7FB02864FEAD02040EA4C
:10A3D000415007FB03661EEA0E0F4FEAD12105FB31
:10A3E000026658BFA6EB0056B6EB00564FEA520E77
:10A3F0004EEAC37E18EB0E0E56EB530EBDD518EB8E
:10A4000002085E417F1C55F10005B6E74FF4801548
:10A410004FF000074FF000064FF00008ADE7F0BC2A
:10A420004FF0000001F1C04101F00041BDE80081A2
:10A4300011EA0C1F0CEA131500D00CE013EA0C1FF4
:10A4400000F025804FF00000F0BC81EA030101F02C
:10A450000041BDE80081F0BCBDE8004181EA030194
:10A4600000F058BAF0BCBDE8004170B500F004FA45
:10A47000097EFC3E00F007B881EA03014FF00000BE
:10A4800001F00041704781EA030100F043BAF0BCDB
:10A49000BDE800414FF0000021497047FFFDFBF986
:10A4A000F7F5F4F2F0EEEDEBE9E8E6E4E3E1E0DE07
:10A4B000DDDBDAD8D7D5D4D3D1D0CFCDCCCBCAC879
:10A4C000C7C6C5C4C2C1C0BFBEBDBCBBBAB9B8B7A0
:10A4D000B6B5B4B3B2B1B0AFAEADACABAAA9A8A893
:10A4E000A7A6A5A4A3A3A2A1A09F9F9E9D9C9C9B61
:10A4F0009A9999989797969595949393929191900C
:10A500008F8F8E8E8D8C8C8B8B8A8989888887879C
:10A510008685858484838382828181800000FF0711
:10A520000000F87F51EA030C17D41CF5801F58BFB8
:10A53000BCF5801F00F10680994218BF704708BF24
:10A540009042704707D711F5801F58BF13F5801F41
:10A5500019D499427047894270471CF5801F08D56D
:10A56000BCF5801FF7D58B4218BF704708BF8242E9
:10A5700070474FF4001C1CEB410F38BF1CEB430F1E
:10A5800001D28B42704770B500F076F992244900F1
:10A590004FF000514FF08053FFF760BE4FEA410388
:10A5A0004FEA5353A3F58063D3F11E03C8BFD3F121
:10A5B000210C0CDD4FF0004242EAC12242EA505227
:10A5C00032FA03FC8CEAE17CACEBE1707047102BB3
:10A5D000C4BF0020704703F5787CBCF1FF3F04D076
:10A5E0006FF0004282EA2100704770B500F044F934
:10A5F0004992248000207047F2E700004FEA11538F
:10A60000A3F58063D3F11E03A8BFD3F1200C08DBB0
:10A610004FF0004242EAC12252EA505232FA03F0AD
:10A62000704709420BD4102BC4BF0020704703F5BC
:10A63000787CBCF1FF3F05D04FF0FF3070474FF002
:10A640000000704770B500F017F900BF49922480F0
:10A6500000207047F0E710F0004248BF4042B0FAD7
:10A6600080F310FA03F10AD0C3F11D0303F58063F0
:10A670004FEA415002EB035202EBD12170474FF0F9
:10A6800000007047B0FA80F310FA03F10AD0C3F16A
:10A690001D0303F580634FEA41504FEA035202EB7A
:10A6A000D12170474FF000007047000051EA030CC1
:10A6B00017D41CF5801F58BFBCF5801F00F1068021
:10A6C000994218BF704708BF9042704707D711F5ED
:10A6D000801F58BF13F5801F19D4994270478942D3
:10A6E00070471CF5801F08D5BCF5801FF7D58B423D
:10A6F00018BF704708BF824270474FF4001C1CEB24
:10A70000410F38BF1CEB430F01D28B42704770B52D
:10A7100000F0B2F8922449004FF000514FF08053FE
:10A72000FFF79CBDDFF848C170B51CEA111E1EBFC3
:10A730001CEA13159EEA0C0F95EA0C0F00F06F80CF
:10A7400081EA030423EA4C134EEAD47E21EA4C1139
:10A7500041F4801143F48013AE44A1FB024CA0FBF2
:10A760000365AEF17F7E361955EB0C05A1FB034C5A
:10A770004CF10003A0FB021C16EB0C06654153F1E3
:10A780000003094218BF46F0010613F4007F0BD105
:10A790004FEA03314FEA0530340341EA155140EAEC
:10A7A00016506FF003020AE04FEAC3214FEAC520BA
:10A7B000F40241EA555140EA56506FF0020202EBB2
:10A7C0002E4201EB025585EACE710AD05FEA440CB5
:10A7D00018BF24F0004450F1000041F1000120EACC
:10A7E000D47040F2FE7C624500D270BDA84214BF16
:10A7F0004FF080444FF04044002E08BF0024BEF1CB
:10A80000806FA8BFA1F1C041BDE8704080F2828096
:10A810004FF0000001F1C04101F0004170479EEA95
:10A820000C0F0CEA131518BF95EA0C0F06D04FF069
:10A83000000081EA030E0EF0004170BD00F01CF82C
:10A840008900013E00F007B800F009B84FEA430C58
:10A850005FEA5C5C08D081EA030100F05BB84FEA74
:10A86000410C5FEA5C5CF6D14FF000000149704793
:10A870000000FF070000F87F0EF1020E2EF0030E1D
:10A880005EF8046B364205D4012A43EB030515F547
:10A89000001F12D8012841EB010C1CF5001F0CD839
:10A8A0000ED14FEAD17C15F5001F0CEB4C0C0CF1CE
:10A8B000020C08BF4CEBD37C04E04FF0080C01E025
:10A8C0004FEAD37C0CEB4C0526FA05F606F007069A
:10A8D000B6F1040C06D20EEB860CBDE870404CF0CD
:10A8E000010C6047DFE80CF0090B02024FF0004159
:10A8F0004FF00000A1F5002170BD19461046012857
:10A9000051EB010418BFD4F5001484BF002001F0FE
:10A91000004170BD0808A0F500114FEA31017047F1
:10A9200053EA010C17D41CF5801F58BFBCF5801FDB
:10A9300000F106808B4218BF704708BF8242704703
:10A9400007D713F5801F58BF11F5801F19D48B420C
:10A9500070479B4270471CF5801F08D5BCF5801FCF
:10A96000F7D5994218BF704708BF904270474FF41F
:10A97000001C1CEB430F38BF1CEB410F01D2994266
:10A9800070470FB40CBC03BCFFF7C1BE91EA030FC4
:10A9900010B581F000413FF5B9AB83F0004300F002
:10A9A000EFB800002DE9F04101F5801CBCF5001F57
:10A9B000C0F2C3804FEA115C21EA0C510CF1FD0C8E
:10A9C00041F480115FEA5C0C0CF5C07C01D34000BF
:10A9D00049413DA4890241EA905187028E0E0A0C3A
:10A9E000A45D04FB04F602FB06F6C6F14046A4FB98
:10A9F0000662F60D46EA422606FB06F4A4FB012396
:10AA00005242C3F1404338BF5B1EA6FB0242002402
:10AA1000E6FB0324D20B42EA4446A6FB0623A1FB35
:10AA200002E2A3FB07E4A4184FF0000252F1000277
:10AA3000E3FB01426442C2F1404E38BFAEF1010E69
:10AA4000A6FB04234FF00002E6FB0E32A2FB0346F6
:10AA50004FF00004B61954F10004E2FB0264A1FBBC
:10AA600006E6A4FB07E816EB08064FF0000858F1CD
:10AA70000008E4FB01687642C8F1405838BFA8F1ED
:10AA80000108A2FB06E4A3FB08E52D194FF0000422
:10AA900054F10004E2FB0854A1FB05E6A7FB04E81F
:10AAA00018EB06084FF0000656F10006E1FB04869D
:10AAB00018F1200556F10006A809A8F11B08B109F4
:10AAC00008F03F08B8F10A0F40EA86601CD901EB94
:10AAD0000C51BDE8F08100BFFCF5EEE8E2DDD8D313
:10AAE000CFCBC7C3C0BDB9B6B4B1AEACA9A7A5A3FF
:10AAF000A19F9D9B9A9896959392908F8D8C8B8910
:10AB00008887868584838281A0FB006800FB01F230
:10AB100008EB4208B8EB872807D5341858EB010436
:10AB2000D5D5401C51F10001D1E7341A78EB01046E
:10AB3000CDD4401E71F10001C9E75FEA4C0C5FEA19
:10AB40009C5C0DD105D34FF0000001F00041BDE841
:10AB5000F081BDE8F04170B5FFF78EFE6DDBFFBE02
:10AB6000BDE8F0414FF00000004970470000F87F59
:10AB700010B591EA030F48BF83F000433FF5C6AA22
:10AB8000841A71EB030C07D212198CF0004C43EBC2
:10AB90000C03001B61EB0C01DFF8A4E14FEA115438
:10ABA000A4EB135C1EEA430F18BF9EEA445F00F05B
:10ABB000B08023EA6E03524221EA0451C3EB6E03D4
:10ABC00038BF5B1EDCF1200E25D322FA0CFE10EB01
:10ABD0000E0043FA0CFE41EB0E01CCF1200E03FAFD
:10ABE0000EFE10EB0E0051F10001CCF1200E29D425
:10ABF00012FA0EF201EB0451BDE8104058BF704745
:10AC0000401C1CBFB2F1004F704700280CBF491C0C
:10AC100020F00100704712EB020E43EB030218BF55
:10AC20004FF0010E4EEA4202ACF1200CDCF11E0E98
:10AC300054D943FA0CFE10EB0E0051F1FF31CCF168
:10AC40001E0ED5D50EF1010E12FA0EFE404141EB5B
:10AC5000010101EB445C5FEA5C5C10D910EBDE7033
:10AC600001EB045138BFBEF1004FBDE8104018BFE2
:10AC7000704700280CBF491C20F00100704730D2FB
:10AC80004FEAD42C11F5001124F400641BD0B1FA62
:10AC900081F20B3AA41AA41ED2F12003914030FA9B
:10ACA00003F31943904001EBCC71002C01EB0451EC
:10ACB000BDE81040A8BF704701F1C0414FF000004F
:10ACC00001F000417047B0FA80F310FA03F100D1AF
:10ACD00010BDE41A173C4805C90AE4E701EB04512A
:10ACE00010BD491001EB0451BDE810404FEA30009F
:10ACF00002E04FF0000170474A0008BF0042F8D060
:10AD0000B2F5001F28BF704701F000414FF000006E
:10AD100070479EEA445F07D011EA5E0FBDE810401D
:10AD200004BF002100207047BDE8104070B5FFF758
:10AD3000A3FD00BF40DFF63E83F0004110467047A0
:10AD40000000E0FF43004FEAD30C4FEA3C0C4340C5
:10AD50001FBF40070CF1605113F0FE4F70471CF00D
:10AD6000006F03D100200CF0004170470CF000434D
:10AD700043EA507010B540EACC0000F090FA00BFF2
:10AD8000000000924FEA0001FFF7C4BD4FF0004100
:10AD90004FF00000A1F500217047000090EA010F7C
:10ADA00048BF81F0004100F1FE82421A3CBF801A88
:10ADB00089184FEAD0524FF07F4C1CEA410FA2EBAA
:10ADC000D15318BF9CEA026F00F03B804FF0004C5B
:10ADD0004CEA00204CEA012121FA03FC10EB0C0C98
:10ADE0001ED202F1FF325FEA1C2040EBC25038BF96
:10ADF00070471CF07F0F4FEA400C18BFBCF17F4F2B
:10AE000038BF7047C3F12003994008BF20F001000C
:10AE1000BCF17F4F38BF7047A0F1C04000F085BA49
:10AE20004FEA3C00000A40EBC25028BF1CF0FF0F65
:10AE30004FEA400CE6D018BFBCF17F4F38BF7047D7
:10AE4000EAE79CEA026F05D010EA5C0F08BF00F049
:10AE50000040704710B500F022FA00BF64FBBE3E10
:10AE6000401058BFC0F14040491058BFC1F14041A7
:10AE70008142EFF3008070474FF47F0C1CEAD01240
:10AE80001EBF1CEAD11392EA0C0F93EA0C0F00F0DC
:10AE9000858090EA010F48BF42F4807240F4000CB4
:10AEA00041F400002CF07F4120F07F4000B581424A
:10AEB000A2EB03020FF2081CACEB504EC0F10000F5
:10AEC0009EF800E04FEA4E0E00FB0EFC38BF490032
:10AED0004FEA2C1C02F5FA020CFB0EF34FEACE1ED1
:10AEE0004FEA112C4FEAC1210EEB635E42EB224286
:10AEF0000EFB0CFC4FEA1C5300FB03114FEA112C14
:10AF00004FEA01310EFB0CFC4FEADC4C00FB0C114C
:10AF1000C14228BF09184CEB03335DF804EB10EB7A
:10AF2000410143EBC250B2F57C0F38BF704729D5C1
:10AF300012F0F00F1CBF00F1C04000F0004070475D
:10AF4000008182838485868788898B8C8D8E8F9102
:10AF50009293959697999A9C9D9FA0A2A3A5A7A826
:10AF6000AAACAEB0B2B3B5B7B9BCBEC0C2C5C7C952
:10AF7000CCCED1D4D7D9DCDFE2E6E9ECF0F3F7FAB6
:10AF8000FE0000004FEA400C0CF1807CBCF17E4FCB
:10AF900028BF7047B0F1C04000F0C7B990EA010F78
:10AFA0000CEAD11348BF42F48072624538BF634552
:10AFB00007D213F47F0F16D080EA010000F00040A2
:10AFC000704710B500F06BF9097EFC3E00F005B843
:10AFD00080EA010000F00040704780EA010000F0C4
:10AFE000004000F0A2B912F47F0F04BF024870477E
:10AFF00080EA010000F099B90000C07F50EA010C1E
:10B0000000F113801CF5000F58BFBCF5000F01D4F0
:10B010008842704707D710F5000F58BF11F5000F91
:10B0200015D488427047894270471CF5000F04D53B
:10B03000BCF5000FF7D5814270474FF0807C1CEBC8
:10B04000400F38BF1CEB410F01D28142704710B551
:10B0500000F025F9922449004FF000504FF0805144
:10B06000FFF7FEBE41000B0ED3F19E0208D950F44B
:10B0700000034FEA032323FA02F048BF404270471F
:10B0800010B500F00CF900BF4992248000207047F1
:10B090006FF0004282EA200070470000C10DD1F13C
:10B0A0009E0206DB4FEA002343F0004323FA02F03E
:10B0B0007047004207D54FEA4001B1F1FE4F02D27E
:10B0C0004FF00000704710B500F0E9F84992248075
:10B0D000002070476FEA20007047000010F0004128
:10B0E00048BF4042B0FA80F310FA03F2C3F19D0367
:10B0F0000BD051EAC35101EB1220530638BF704701
:10B1000000F1010008BF20F001007047B0FA80F3A1
:10B1100010FA03F2C3F19D030AD0D90501EB122006
:10B12000530638BF704700F1010008BF20F001004E
:10B130007047000050EA010C00F113801CF5000F6D
:10B1400058BFBCF5000F01D48842704707D710F5EF
:10B15000000F58BF11F5000F15D48842704789427F
:10B1600070471CF5000F04D5BCF5000FF7D58142E0
:10B1700070474FF0807C1CEB400F38BF1CEB410F39
:10B1800001D28142704710B500F089F8922449003D
:10B190004FF000504FF08051FFF762BE4FF47F0C2C
:10B1A0001CEAD0121EBF1CEAD11392EA0C0F93EADC
:10B1B0000C0F00F0478090EA010F48BF42F4807204
:10B1C0004FF0004C4CEA00204CEA012102EB030254
:10B1D000A0FB0113A2F50002002918BF43F00103F0
:10B1E0005B0028BF4FEA330342EB22425FEA132C95
:10B1F0004CEBC2502EBFBCEB436FB2F57C0F7047D7
:10B200004FEA036CBCF1004F08BF20F00100B2F51B
:10B210007C0F38BF70470BD582F0FF0212F5803FDC
:10B22000C8BF704700F1C040D8BF00F00040704771
:10B2300000F5000C5FEA4C0C48BF7047B0F1C0400D
:10B2400000F073B890EA010F0CEAD11348BF42F442
:10B250008072624538BF634504D280EA010000F085
:10B260000040704710B500F01AF800BF8900013E99
:10B2700000F007B800F009B85FEA410C5FEA1C6C07
:10B2800008D080EA010000F050B85FEA400C5FEAA5
:10B290001C6CF6D14FF00040A0F5800070470EF115
:10B2A000020E2EF0030E5EF8044B244204D44FEA43
:10B2B0004102B2F17F4F11D84FEA4003B3F17F4F03
:10B2C0000CD80ED14FEAD07CB2F17F4F0CEB4C0C76
:10B2D0000CF1020C08BF4CEBD17C04E04FF0080CE1
:10B2E00001E04FEAD17C0CEB4C0324FA03F404F0A8
:10B2F0000704B4F1040C06D20EEB840CBDE8104038
:10B300004CF0010C6047DFE80CF0070802024FF038
:10B310000040A0F5800010BD0846420018BFD2F1E1
:10B32000807288BF00F0004010BDFF2141EAD0507C
:10B33000C005704751EA000C00F113801CF5000FA6
:10B3400058BFBCF5000F01D48142704707D711F5F3
:10B35000000F58BF10F5000F15D481427047894285
:10B3600070471CF5000F04D5BCF5000FF7D58842D7
:10B3700070474FF0807C1CEB410F38BF1CEB400F37
:10B3800001D28842704780EA010081EA000180EA28
:10B390000100FFF7F8BE000090EA010F48BF81F0FE
:10B3A00000413FF502AD421A04D882F00042A0EB02
:10B3B000020011444FEAD0524FF07F4C1CEA410F7B
:10B3C000A2EBD15318BF9CEA026F4AD04FF0004C59
:10B3D0004CEA00204CEA012121FA03FCB0EB0C0CF2
:10B3E0000FD412F0FE0F36D05FEA4C001DD50012CC
:10B3F00040EBC25038BF70471CF03F0F18BF70477A
:10B400000BE0A2F101025FEA1C2040EBC25038BF02
:10B4100070471CF07F0F18BF7047C3F1200399409D
:10B4200014BF401E20F00100704780084FEA12232D
:10B4300008BF7047B0FA80FCA2EB0C02CCF1280CDC
:10B4400060FA0CF093EA122F04BF00EBC250704771
:10B450004FEAC3707047130A5FEADC1008BF7047F9
:10B46000F6E79CEA026F04D010EA5C0F08BF0020E8
:10B47000704710B5FFF713FF40DFF63E81F0004044
:10B480007047FCF778BA0CF00F03092B08BF0820AF
:10B4900000F05F800A2B0BD0082B18BF704708BF45
:10B4A0001CF0400F0AD04FF000004FF00001704731
:10B4B0001CF0400F18BF4FF0004070471CF0100FF9
:10B4C00008D020F0704300F07F4242EAD3014FEAF7
:10B4D0004370704700F0604021F07F4242EA000272
:10B4E00001F07F4040EA727070474FF0FF0C4CF45F
:10B4F000E06C1CEA11531CBF9CEA030C9445C2BFCC
:10B50000DA4201EB02517047002B0DD0BCF1000F65
:10B510000FD0002A01F00041A4BF41F0E04141F00A
:10B520007F614FF00000704701F000414FF00000D4
:10B53000704750EA01334FF09B0C18BF4CF0806C01
:10B540007EF484AE7047FCF733BDFCF741BFFDF7D6
:10B55000CBB81CF4801F11D01CF4E02F03D06FEA8D
:10B56000CC31490070474FF04050EFF3008222F099
:10B57000704242EA000282F3008870474FF00000F8
:10B580007047000000000000CDCCCCBDCDCC4CBD40
:10B5900000000000000000000000000000000000AB
:10B5A000000000000000000000000000000000009B
:10B5B000000000000000000000000000CDCC4C3D69
:10B5C000CDCC4C3DCDCC4C3D295C8F3D00000000E6
:10B5D00000007000000000240000000200030000D2
:10B5E00000650054FFEF0000FA80000B128200019A
:10B5F000030C30C30E8C8CE914D5400213710F8EEE
:10B600003883F8833000F883258EF8833000F88380
:10B61000FFFFFFFF0FFEA9D6240004001A8279A1C4
:10B620000000003CFFFF00000010000038836FA204
:10B63000003E03304000000002CAE3093E800000E3
:10B64000200000000000000040000000600000003A
:10B65000000C0000000C186E000006920A16C0DFF5
:10B66000FFFF0256FD8CD377FFE1C496E0C5BEAA6A
:10B6700000000000FFFF0B2B0000165700000359CD
:10B680004000000000001DFA00026C1D00000000D8
:10B690003FFFDFEB003EB3B6000D227800002F3CE9
:10B6A00000000000001942B5000039A20000B36597
:10B6B000D90E9FC91DCF4C3430000000500000004F
:10B6C0003BB67AE80064000000C8000000000000FB
:10B6D000100000001000FA921000225E000D229F60
:10B6E0000001000000320000FF46000063D40000AB
:10B6F0001000000004D6000004CC000004CC0000C0
:10B700000000107200000040000000000000000077
:10B7100000060002000500070000000000640000B1
:10B72000000000000000000500050064002000008B
:10B7300000000000000000000000400000000300C6
:10B7400000000032F8980000FF650000830F000041
:10B75000FF9BFC0000000000000000000000000053
:10B7600000000000000000000000000000000000D9
:10B7700000000000000000000000000000001000B9
:10B7800040000000000000060000B26A0002000055
:10B790000001FB830068000000D9FC007CF1FF83FE
:10B7A0000000000000650000006403E80064002859
:10B7B000000000250000000016A00000000010009E
:10B7C00000001000002F0000000001F40000100035
:10B7D00000280000FFFF4581FFFFFA720000000013
:10B7E00000000000004400050005BAC6004778A22A
:10B7F000000000010000000000000600000000142E
:10B800000000254D002F706D000005AE000C02D029
:10B810000000000000000000000000000000000028
:10B82000001B0000000000000000000000000000FD
:10B83000006400000008000000000000000000009C
:10B8400000000000000000000000000000000000F8
:10B8500000000000000000000000000000000000E8
:10B8600000000000000000000000000000000000D8
:10B8700000000000000000000000000000000000C8
:10B8800000000000000000000000000000000000B8
:10B89000001B00000000000000000000000E000E71
:10B8A00000000AC70004000000000032FFFFFF9CF8
:10B8B00000000B2B000000020000000100000064EB
:10B8C000FFE5000000000000000000000000000094
:10B8D0000000000100000000000100000000000066
:10B8E000000180000001800000018000002426D3B8
:10B8F0000000000000000000000600100096003C60
:10B900000000000000000000000000000000000037
:10B910000C0A4E68CDCF770950166759C619CE82EA
:10B920000000000000000000000000000000000017
:10B93000000000000000000017D784000300000092
:10B940000000000000000000C7938F9D1E1B1C1903
:10B9500000000000000000000000000000000000E7
:10B9600000000000000000000203188500004000F5
:10B9700000000003000000030000000000000000C1
:10B980004000000000000000000000000000000077
:10B9900000000000000000000000000000000000A7
:10B9A0000000000000000000000000000000000097
:10B9B00000000000677DDF7E72902E554CF6E68811
:10B9C0000000000000000000000000000000000077
:10B9D000D8DCB4B8B0D8B9ABF3F8FAB3B7BB8E9E25
:10B9E000AEF132F51BF1B4B8B08097F1A9DFDFDF1B
:10B9F000AADFDFDFF2AAC5CDC7A90CC92C97F1A930
:10BA000089264666B28999A92D557DB0B08AA89637
:10BA1000365676F1BAA3B4B280C0B8A89711B283F3
:10BA200098BAA3F0240844106418B2B9B49883F10A
:10BA3000A329557DBAB5B1A38393F0002850F5B280
:10BA4000B6AA839328547CF1B9A3829361BAA2DA8F
:10BA5000DEDFDB819AB9AEF5606870F1DABAA2DF99
:10BA6000D9BAA2FAB9A38292DB31BAA2D9BAA2F8A2
:10BA7000DF85A4D0C1BBAD83C2C5C7B8A2DFDFDFFD
:10BA8000BAA0DFDFDFD8D8F1B8AAB38DB4980D35EE
:10BA90005DB2B6BAAF8C96198F9FA70E161EB49AD8
:10BAA000B8AA872C547CBAA4B08AB691325676B222
:10BAB0008494A4C808CDD8B8B4B0F19982A82D5503
:10BAC0007D98A80E161EA22C547C92A4F02C5078BF
:10BAD000F184A898C4CDFCD80DDBA8FC2DF3D9BA0D
:10BAE000A6F8DABAA6DED8BAB2B68696A6D0F3C859
:10BAF00041DAA6C8F8D8B0B4B882A892F52C548818
:10BB000098F135D9F418D8F1A2D0F8F9A884D9C79A
:10BB1000DFF8F883C5DADF69DF83C1D8F40114F1F7
:10BB2000A8824EA884F311D182F5D992289788F182
:10BB300009F41C1CD884A8F3C0F9D1D99782F12943
:10BB4000F40DD8F3F9F9D1D982F4C203D8DEDF1AA3
:10BB5000D8F1A2FAF9A88498D9C7DFF8F8F883C712
:10BB6000DADF69DFF883C3D8F40114F198A8822ED4
:10BB7000A884F311D182F5D992509788F109F41C69
:10BB8000D884A8F3C0F8F9D1D99782F149F40DD837
:10BB9000F3F9F9D1D982F4C403D8DEDFD8F1AD8846
:10BBA00098CCA809F9D98292A8F57CF1883ACF946B
:10BBB0004A6E98DB6931DAADF2DEF9D88795A8F2E2
:10BBC00021D1DAA5F9F417D9F1AE8ED0C0C3AE8277
:10BBD000C684C3A88595C8A588F2C0F1F4010EF10A
:10BBE0008E9EA8C63E56F554F18872F40115F19860
:10BBF00045856EF58E9E0488F142985A8E9E068881
:10BC000069F4011CF1981E1108D0F504F11E970289
:10BC100002983625DBF9D985A5F3C1DA85A5F3DFCE
:10BC2000D88595A8F309DAA5FAD88292A8F578F113
:10BC3000881A849F26889821DAF41DF3D8879F39C3
:10BC4000D1AFD9DFDFFBF9F40CF3D8FAD0F8DAF989
:10BC5000F9D0DFD9F9D8F40BD8F3879F39D1AFD910
:10BC6000DFDFF41DF3D8FAFCA869F9F9AFD0DADE0A
:10BC7000FAD9F88F9FA8F1CCF398DB45D9AFDFD084
:10BC8000F8D8F18F9FA8CAF38809DAAF8FCBF8D81C
:10BC9000F2AD978D0CD9A5DFF9BAA6F3FAF412F23A
:10BCA000D8950DD1D9BAA6F3FADAA5F2C1BAA6F39E
:10BCB000DFD8F1BAB2B68696A6D0CAF349DAA6CBD7
:10BCC000F8D8B0B4B8D8AD84F2C0DFF18FCBC3A838
:10BCD000B2B68696C8C1CBC3F3B0B48898A821DBAE
:10BCE000718D9D71859521D9ADF2FAD88597A828D7
:10BCF000D9F408D8F28D29DAF405D9F285A4C2F274
:10BD0000D8A88D9401D1D9F411F2D88721D8F40A9A
:10BD1000D8F28498A8C801D1D9F411D8F3A4C8BB2B
:10BD2000AFD0F2DEF8F8F8F8F8F8F8F8D8F1B8F68D
:10BD3000B5B9B08A95A3DE3CA3D9F8D85CA3D9F8ED
:10BD4000D87CA3D9F8D8F8F9D1A5D9DFDAFAD8B1D7
:10BD50008530F7D9DED8F830ADDADED8F2B48C9978
:10BD6000A32D557DA083DFDFDFB591A0F629D9FB98
:10BD7000D8A0FC29D9FAD8A0D051D9F8D8FC51D9EB
:10BD8000F9D879D9FBD8A0D0FC79D9FAD8A1F9F99A
:10BD9000F9F9F9A0DADFDFDFD8A1F8F8F8F8F8ACA4
:10BDA000DEF8ADDE8393AC2C547CF1A8DFDFDFF648
:10BDB0009D2CDAA0DFD9FADB2DF8D8A850DAA0D074
:10BDC000DED9D0F8F8F8DB55F8D8A878DAA0D0DFBB
:10BDD000D9D0FAF8F8F8F8DB7DF8D89CA88CF530C3
:10BDE000DB38D9D0DEDFA0D0DEDFD8A848DB58D9D9
:10BDF000DFD0DEA0DFD0DED8A868DB70D9DFDFA01F
:10BE0000DFDFD8F1A888902C547C98A8D05C38D17A
:10BE1000DAF2AE8CDFF9D8B087A8C1C1B188A8C664
:10BE2000F9F9DA36D8A8F9DA36D8A8F9DA36D8A87E
:10BE3000F9DA36D8A8F9DA36D8F78D9DADF818DAE0
:10BE4000F2AEDFD8F7ADFA30D9A4DEF9D8F2AEDE23
:10BE5000FAF983A7D9C3C5C7F1889BA77AADF7DEE6
:10BE6000DFA4F8849408A797F300AEF29819A48889
:10BE7000C6A39488F632DFF28393DB09D9F2AADFF6
:10BE8000D8D8AEF8F9D1DAF3A4DEA7F1889B7AD836
:10BE9000F38494AE19F9DAAAF1DFD8A881C0C3C53A
:10BEA000C7A39283F628ADDED9F8D8A350ADD9F850
:10BEB000D8A378ADD9F8D8F8F9D1A1DADEC3C5C7CF
:10BEC000D8A18194F818F2B089ACC3C5C7F1D8B82D
:10BED000B4B09786A8319B069907AB9728889BF04A
:10BEE0000C201440B0B4B8F0A88A9A285078B79BB8
:10BEF000A8295179247059446938644831F1BBABA1
:10BF000088002C547CF0B38BB8A804285078F1B08A
:10BF100088B49726A85998BBABB38B02264666B067
:10BF2000B8F08A9CA82951798B2951798A247059B3
:10BF30008B2058718A4469388B3940688A6448314B
:10BF40008B30496088F1AC002C547CF08CA804281C
:10BF50005078F1889726A85998AC8C02264666F04E
:10BF6000899CA8295179247059446938644831A9B9
:10BF70008809205970AB11384069A8193148608C84
:10BF8000A83C415C207C00F187981986A86E767EDB
:10BF9000A999882D557DD8B1B5B9A3DFDFDFAED023
:10BFA000DFAAD0DEF2ABF8F9D9B087C4AAF1DFDF9F
:10BFB000BBAFDFDFB9D8B1F1A3978E60DFB084F2F9
:10BFC000C8F8F9D9DED89385F14AB183A308B583BF
:10BFD0009A0810B79F10D8F1B0BAAEB08AC2B2B604
:10BFE0008E9EF1FBD9F41DD8F9D90CF1D8F8F8AD33
:10BFF00061D9AEFBD8F40CF1D8F8F8AD19D9AEFB85
:10C00000DFD8F416F1D8F8AD8D61D9F4F4ACF59C15
:10C010009C8DDF2BBAB6AEFAF8F40BD8F1AED0F89F
:10C02000AD51DAAEFAF8F1D8B9B1B6A3839C08B92C
:10C03000B1839AB5AAC0FD3083B79F10B58B93F238
:10C040000202D1ABDADED8F1B080BAABC0C3B284A1
:10C05000C1C3D8B1B9F38BA391B609B4D9ABDEB0E3
:10C06000879CB9A3DDF1B38B8B8B8B8BB087A3A39C
:10C07000A3A3B28BB69BF2A3A3A3A3A3A3A3A3A33F
:10C08000A3F1B087B59AA3F39BA3A3DCBAACDFB945
:10C09000A3A3A3A3A3A3A3A3A3A3A3A3A3A3A3A370
:10C0A000D8D8D8BBB3B7F1AAF9DAFFD9809AAA28B1
:10C0B000B48098A720B79787A86688F07951F19047
:10C0C0002C870CA781976293F07171608594012988
:10C0D000517990A5F1284C6C870C95188578A3832D
:10C0E00090284C6C886CD8F3A28200F210A89219A8
:10C0F00080A2F2D926D8F188A84DD948D896A83977
:10C1000080D93CD89580A839A68698D92CDA87A7FB
:10C110002CD8A8899519A980D938D8A88939A98097
:10C12000DA3CD8A82EA83990D90CD8A8953198D93E
:10C130000CD8A809D9FFD801DAFFD89539A9DA2691
:10C14000FFD890A80D8999A810809821DA2ED88957
:10C1500099A83180DA2ED8A886963180DA2ED8A810
:10C16000873180DA2ED8A88292F34180F1D92ED877
:10C17000A882F31980F1D92ED882ACF3C0A2802214
:10C18000F1A62EA72EA92298A829DAACDEFFD8A204
:10C19000F22AF1A92E8292A8F23180A696F1D90056
:10C1A000AC8C9C0C30ACDED0DEFFD88C9CACD010BC
:10C1B000ACDE8092A2F24C82A8F1CAF235F19688E8
:10C1C000A6D900D8F1FF000075191A0C6A231B1CB0
:10C1D0001F207274433B4138393A6B6C376F062429
:10C1E0006D6E70006800000476005401F7FD0001D8
:10C1F0008300000000080000000100183200050064
:10C20000000020410000D242295C0F3E9A99993EDD
:10C210003333733F295C0F3E303132333435363798
:10C22000383941424344454640305800303132337A
:10C23000343536373839616263646566403078007A
:10C2400004000008000000000000000200010000DF
:10C250001000000000000000555555555555C53FCC
:10C260007D6FEB0312D6D4BF5544880E55C1C93F2C
:10C270003B8F68B52882A4BF88B20175E0EF493FC3
:10C2800009F7FD0DE13D023F4B2D8A1C273A03C003
:10C29000C88A599CE52A004059018D1B6C06E6BFEF
:10C2A00082922EB1C5B8B33F4FBB610567ACDD3F8D
:10C2B000182D4454FB21E93F9BF681D20B73EF3FCD
:10C2C000182D4454FB21F93FE2652F227F2B7A3C45
:10C2D000075C143326A6813CBDCBF07A8807703CFE
:10C2E000075C143326A6913CC4EB98999999C9BF71
:10C2F000711623FEC671BCBF6D9A74AFF2B0B3BFA6
:10C300009AFDDE522DDEADBF2F6C6A2C44B4A2BF65
:10C310000D5555555555D53FFF8300922449C23FD1
:10C320006E204CC5CD45B73F513DD0A0660DB13F05
:10C33000EB0D76244B7BA93F11DA22E33AAD903F17
:10C3400000000000000000004C5555555555A53F14
:10C350007751C1166CC156BF9015CB19A001FA3E9A
:10C36000AD529C804F7E92BEC4B1B4BD9EEE213EC4
:10C37000D43888BEE9FAA8BD000000000000000023
:10C3800000004054FB21F93F3163621A61B4D03D93
:10C390000000601A61B4D03D7370032E8A19A33B6C
:10C3A0000000002E8A19A33BC14920259A837B39BE
:10C3B00000000000000000006E83F9A22915444E21
:10C3C000D15727FCC0DD34F5999562DB4190433CA1
:10C3D000AB6351FE61C5BBDE3A6E24B7E0D24D427D
:10C3E000EA2E49061C92D1091CEB1DFE3EA729B17D
:10C3F000F53582E88444BB2E26709CE9417E5FB40B
:10C4000039D69139F43953838B5F849C3B28F9BD2D
:10C41000FF97F81F0F9805DE8B112FEF1F6D0A5A3B
:10C42000CF7E366DB709CB27663F464F2DEA5F9E1C
:10C43000C7BA27757BF1E5EBF739073DEA92528AD7
:10C44000B15FFB6B085D8D1FA6F810111111813FC4
:10C45000D561C119A0012ABF7DFEB157E31DC73EBA
:10C46000EB9C2B8AE6E55ABE7CD5CF5A3AD9E53DFE
:10C4700002400000000000A0000000000540000095
:10C48000000000C8000000000C4000000000409CBC
:10C4900000000000194000000020BCBE00000000A9
:10C4A00034400000BFC91B8E00000004B5400000EE
:10C4B000504BCFD06607E2CF010000006C41000076
:10C4C0003E8251AADFEEA73401000000D9420000ED
:10C4D000DCB5A0E23A301F97FFFFFFFFB445000034
:10C4E000FD25A0C8E9A3C14FFFFFFFFFFF3F0000EC
:10C4F0000000008000000000FF3F000000000080FE
:10C500000000000050726F6475637420494420720B
:10C51000656164206173203020696E6469636174B1
:10C520006573206465766963652069732065697445
:10C5300068657220696E636F6D70617469626C65A5
:10C54000206F7220616E204D5055333035302E0AE9
:10C5500000000000A8C600080000002060020000E3
:10C560006C01000858C7000860020020C0070000E6
:10C57000C8010008000000000000F07F1C0000005F
:10C5800043000000F8FFFFFF0C0000000E00000059
:10C590000F0000002E00000010010000430000000A
:10C5A000F8FFFFFF004040404040404040404141D4
:10C5B0004141414040404040404040404040404078
:10C5C0004040404040050202020202020202020212
:10C5D000020202020220202020202020202020020F
:10C5E000020202020202909090909090101010109F
:10C5F000101010101010101010101010101010103B
:10C6000002020202020288888888888808080808CE
:10C61000080808080808080808080808080808089A
:10C6200002020202400000000000000000000000C2
:10C6300000000000000000000000000000000000FA
:10C6400000000000000000000000000000000000EA
:10C6500000000000000000000000000000000000DA
:10C6600000000000000000000000000000000000CA
:10C6700000000000000000000000000000000000BA
:10C6800000000000000000000000000000000000AA
:10C69000000000000000000000000000000000009A
:10C6A0000000000000000000011D84A24A042009CF
:10C6B000010203040607080923A04103182042824F
:10C6C0007028135072696E7420616C6C20636F6DFA
:10C6D0006D616E6420048675736167651339140B90
:10C6E000290873302A5B304B657463190978102070
:10C6F00070206F66207370656564206D6F6428819B
:10C700004A8B300A2669304AC7300A266430130340
:10C71000157E0874657374300A1C64301AF330296E
:10C72000C00A2532604A3F300A2669304A7B300A07
:10C730002664301AB7308113C8C11B08E4040120F5
:10C740001AF02432016904E12D01020304041808DF
:08C75000060708090204064E69
:0400000508000131BD
:00000001FF
