Component: ARM Compiler 5.05 update 1 (build 106) Tool: armlink [4d0efa]

==============================================================================

Section Cross References

    stm32f10x_vector.o(RESET) refers to stm32f10x_vector.o(STACK) for __initial_sp
    stm32f10x_vector.o(RESET) refers to stm32f10x_vector.o(.text) for Reset_Handler
    stm32f10x_vector.o(RESET) refers to stm32f10x_it.o(i.NMIException) for NMIException
    stm32f10x_vector.o(RESET) refers to stm32f10x_it.o(i.HardFaultException) for HardFaultException
    stm32f10x_vector.o(RESET) refers to stm32f10x_it.o(i.MemManageException) for MemManageException
    stm32f10x_vector.o(RESET) refers to stm32f10x_it.o(i.BusFaultException) for BusFaultException
    stm32f10x_vector.o(RESET) refers to stm32f10x_it.o(i.UsageFaultException) for UsageFaultException
    stm32f10x_vector.o(RESET) refers to stm32f10x_it.o(i.SVCHandler) for SVCHandler
    stm32f10x_vector.o(RESET) refers to stm32f10x_it.o(i.DebugMonitor) for DebugMonitor
    stm32f10x_vector.o(RESET) refers to stm32f10x_it.o(i.PendSVC) for PendSVC
    stm32f10x_vector.o(RESET) refers to stm32f10x_timebase.o(i.SysTickHandler) for SysTickHandler
    stm32f10x_vector.o(RESET) refers to stm32f10x_it.o(i.WWDG_IRQHandler) for WWDG_IRQHandler
    stm32f10x_vector.o(RESET) refers to stm32f10x_it.o(i.PVD_IRQHandler) for PVD_IRQHandler
    stm32f10x_vector.o(RESET) refers to stm32f10x_it.o(i.TAMPER_IRQHandler) for TAMPER_IRQHandler
    stm32f10x_vector.o(RESET) refers to stm32f10x_it.o(i.RTC_IRQHandler) for RTC_IRQHandler
    stm32f10x_vector.o(RESET) refers to stm32f10x_it.o(i.FLASH_IRQHandler) for FLASH_IRQHandler
    stm32f10x_vector.o(RESET) refers to stm32f10x_it.o(i.RCC_IRQHandler) for RCC_IRQHandler
    stm32f10x_vector.o(RESET) refers to stm32f10x_it.o(i.EXTI0_IRQHandler) for EXTI0_IRQHandler
==============================================================================

Removing Unused input sections from the image.

    Removing stm32f10x_vector.o(HEAP), (1024 bytes).
    Removing cortexm3_macro.o(.text), (122 bytes).
    Removing main.o(.bss), (34 bytes).
    Removing main.o(.bss), (360 bytes).
    Removing main.o(.bss), (10 bytes).
    Removing main.o(.bss), (4096 bytes).
    Removing main.o(.bss), (4096 bytes).
    Removing main.o(.bss), (12 bytes).
    Removing main.o(.constdata), (5 bytes).
    Removing main.o(.constdata), (5 bytes).
    Removing main.o(.constdata), (5 bytes).
    Removing main.o(.constdata), (5 bytes).
    Removing main.o(.constdata), (5 bytes).
    Removing main.o(.constdata), (5 bytes).
    Removing main.o(.constdata), (5 bytes).
    Removing main.o(.constdata), (5 bytes).
    Removing main.o(.constdata), (5 bytes).
    Removing main.o(.constdata), (5 bytes).
==============================================================================

Image Symbol Table

    Local Symbols

    Symbol Name                              Value     Ov Type        Size  Object(Section)

    ../clib/microlib/division.c              0x00000000   Number         0  ldiv.o ABSOLUTE
    ../clib/microlib/division.c              0x00000000   Number         0  uldiv.o ABSOLUTE
    ../clib/microlib/init/entry.s            0x00000000   Number         0  entry7a.o ABSOLUTE
    ../clib/microlib/init/entry.s            0x00000000   Number         0  entry9a.o ABSOLUTE
    ../clib/microlib/init/entry.s            0x00000000   Number         0  entry8b.o ABSOLUTE
    ../clib/microlib/init/entry.s            0x00000000   Number         0  entry5.o ABSOLUTE
    ../clib/microlib/init/entry.s            0x00000000   Number         0  entry2.o ABSOLUTE
    ../clib/microlib/init/entry.s            0x00000000   Number         0  entry.o ABSOLUTE
    ../clib/microlib/init/entry.s            0x00000000   Number         0  entry11a.o ABSOLUTE
    ../clib/microlib/init/entry.s            0x00000000   Number         0  entry8a.o ABSOLUTE
    ../clib/microlib/init/entry.s            0x00000000   Number         0  entry11b.o ABSOLUTE
    ../clib/microlib/init/entry.s            0x00000000   Number         0  entry7b.o ABSOLUTE
    ../clib/microlib/init/entry.s            0x00000000   Number         0  entry10b.o ABSOLUTE
    ../clib/microlib/init/entry.s            0x00000000   Number         0  entry9b.o ABSOLUTE
    ../clib/microlib/init/entry.s            0x00000000   Number         0  entry10a.o ABSOLUTE
    ../clib/microlib/longlong.c              0x00000000   Number         0  llshl.o ABSOLUTE
    ../clib/microlib/longlong.c              0x00000000   Number         0  llushr.o ABSOLUTE
    ../clib/microlib/string/memset.c         0x00000000   Number         0  memseta.o ABSOLUTE
    ../clib/microlib/stubs.s                 0x00000000   Number         0  iusefp.o ABSOLUTE
    ../fplib/microlib/fpepilogue.c           0x00000000   Number         0  depilogue.o ABSOLUTE
    ../fplib/microlib/fpfix.c                0x00000000   Number         0  dfixi.o ABSOLUTE
    ../fplib/microlib/fpflt.c                0x00000000   Number         0  dflti.o ABSOLUTE
    ../fplib/microlib/fpmul.c                0x00000000   Number         0  dmul.o ABSOLUTE
    ../fplib/microlib/fpscalb.c              0x00000000   Number         0  dscalb.o ABSOLUTE
    ..\..\STM32F10XFWLIB\src\stm32f10x_adc.c 0x00000000   Number         0  stm32f10x_adc.o ABSOLUTE
    ..\..\STM32F10XFWLIB\src\stm32f10x_bkp.c 0x00000000   Number         0  stm32f10x_bkp.o ABSOLUTE
    ..\..\STM32F10XFWLIB\src\stm32f10x_can.c 0x00000000   Number         0  stm32f10x_can.o ABSOLUTE
    ..\..\STM32F10XFWLIB\src\stm32f10x_dbgmcu.c 0x00000000   Number         0  stm32f10x_dbgmcu.o ABSOLUTE
    ..\..\STM32F10XFWLIB\src\stm32f10x_dma.c 0x00000000   Number         0  stm32f10x_dma.o ABSOLUTE
    ..\..\STM32F10XFWLIB\src\stm32f10x_exti.c 0x00000000   Number         0  stm32f10x_exti.o ABSOLUTE
    ..\..\STM32F10XFWLIB\src\stm32f10x_flash.c 0x00000000   Number         0  stm32f10x_flash.o ABSOLUTE
    ..\..\STM32F10XFWLIB\src\stm32f10x_fsmc.c 0x00000000   Number         0  stm32f10x_fsmc.o ABSOLUTE
    ..\..\STM32F10XFWLIB\src\stm32f10x_gpio.c 0x00000000   Number         0  stm32f10x_gpio.o ABSOLUTE
    ..\..\STM32F10XFWLIB\src\stm32f10x_i2c.c 0x00000000   Number         0  stm32f10x_i2c.o ABSOLUTE
    ..\..\STM32F10XFWLIB\src\stm32f10x_iwdg.c 0x00000000   Number         0  stm32f10x_iwdg.o ABSOLUTE
    ..\..\STM32F10XFWLIB\src\stm32f10x_lib.c 0x00000000   Number         0  stm32f10x_lib.o ABSOLUTE
    ..\..\STM32F10XFWLIB\src\stm32f10x_nvic.c 0x00000000   Number         0  stm32f10x_nvic.o ABSOLUTE
    ..\..\STM32F10XFWLIB\src\stm32f10x_pwr.c 0x00000000   Number         0  stm32f10x_pwr.o ABSOLUTE
    ..\..\STM32F10XFWLIB\src\stm32f10x_rcc.c 0x00000000   Number         0  stm32f10x_rcc.o ABSOLUTE
    ..\..\STM32F10XFWLIB\src\stm32f10x_rtc.c 0x00000000   Number         0  stm32f10x_rtc.o ABSOLUTE
    ..\..\STM32F10XFWLIB\src\stm32f10x_spi.c 0x00000000   Number         0  stm32f10x_spi.o ABSOLUTE
    ..\..\STM32F10XFWLIB\src\stm32f10x_systick.c 0x00000000   Number         0  stm32f10x_systick.o ABSOLUTE
    ..\..\STM32F10XFWLIB\src\stm32f10x_tim.c 0x00000000   Number         0  stm32f10x_tim.o ABSOLUTE
    ..\..\STM32F10XFWLIB\src\stm32f10x_usart.c 0x00000000   Number         0  stm32f10x_usart.o ABSOLUTE
    ..\..\STM32F10XFWLIB\src\stm32f10x_wwdg.c 0x00000000   Number         0  stm32f10x_wwdg.o ABSOLUTE
    ..\src\DISPLAY.c                         0x00000000   Number         0  display.o ABSOLUTE
    ..\src\Key.c                             0x00000000   Number         0  key.o ABSOLUTE
    ..\src\MC_Clarke_Park.c                  0x00000000   Number         0  mc_clarke_park.o ABSOLUTE
    ..\src\MC_Display.c                      0x00000000   Number         0  mc_display.o ABSOLUTE
    ..\src\MC_FOC_Drive.c                    0x00000000   Number         0  mc_foc_drive.o ABSOLUTE
    ..\src\MC_Globals.c                      0x00000000   Number         0  mc_globals.o ABSOLUTE
    ..\src\MC_Keys.c                         0x00000000   Number         0  mc_keys.o ABSOLUTE
    ..\src\MC_MotorControl_Layer.c           0x00000000   Number         0  mc_motorcontrol_layer.o ABSOLUTE
    ..\src\MC_PID_regulators.c               0x00000000   Number         0  mc_pid_regulators.o ABSOLUTE
    ..\src\MC_State_Observer.c               0x00000000   Number         0  mc_state_observer.o ABSOLUTE
    ..\src\MC_State_Observer_Interface.c     0x00000000   Number         0  mc_state_observer_interface.o ABSOLUTE
    ..\src\main.c                            0x00000000   Number         0  main.o ABSOLUTE
    ..\src\stm32_2.8_lcd.c                   0x00000000   Number         0  stm32_2.8_lcd.o ABSOLUTE
    ..\src\stm32f10x_MCdac.c                 0x00000000   Number         0  stm32f10x_mcdac.o ABSOLUTE
    ..\src\stm32f10x_Timebase.c              0x00000000   Number         0  stm32f10x_timebase.o ABSOLUTE
    ..\src\stm32f10x_encoder.c               0x00000000   Number         0  stm32f10x_encoder.o ABSOLUTE
    ..\src\stm32f10x_hall.c                  0x00000000   Number         0  stm32f10x_hall.o ABSOLUTE
    ..\src\stm32f10x_svpwm_1shunt.c          0x00000000   Number         0  stm32f10x_svpwm_1shunt.o ABSOLUTE
    ..\src\stm32f10x_svpwm_3shunt.c          0x00000000   Number         0  stm32f10x_svpwm_3shunt.o ABSOLUTE
    ..\src\stm32f10x_svpwm_ics.c             0x00000000   Number         0  stm32f10x_svpwm_ics.o ABSOLUTE
    ..\stm32f10x_it.c                        0x00000000   Number         0  stm32f10x_it.o ABSOLUTE
    cortexm3_macro.s                         0x00000000   Number         0  cortexm3_macro.o ABSOLUTE
    dc.s                                     0x00000000   Number         0  dc.o ABSOLUTE
    handlers.s                               0x00000000   Number         0  handlers.o ABSOLUTE
    init.s                                   0x00000000   Number         0  init.o ABSOLUTE
    stm32f10x_vector.s                       0x00000000   Number         0  stm32f10x_vector.o ABSOLUTE
    RESET                                    0x08000000   Section      304  stm32f10x_vector.o(RESET)
    .ARM.Collect$$$$00000000                 0x08000130   Section        0  entry.o(.ARM.Collect$$$$00000000)
    .ARM.Collect$$$$00000001                 0x08000130   Section        4  entry2.o(.ARM.Collect$$$$00000001)
    .ARM.Collect$$$$00000004                 0x08000134   Section        4  entry5.o(.ARM.Collect$$$$00000004)
    .ARM.Collect$$$$00000008                 0x08000138   Section        0  entry7b.o(.ARM.Collect$$$$00000008)
    .ARM.Collect$$$$0000000A                 0x08000138   Section        0  entry8b.o(.ARM.Collect$$$$0000000A)
    .ARM.Collect$$$$0000000B                 0x08000138   Section        8  entry9a.o(.ARM.Collect$$$$0000000B)
    .ARM.Collect$$$$0000000D                 0x08000140   Section        0  entry10a.o(.ARM.Collect$$$$0000000D)
    .ARM.Collect$$$$0000000F                 0x08000140   Section        0  entry11a.o(.ARM.Collect$$$$0000000F)
    .ARM.Collect$$$$00002712                 0x08000140   Section        4  entry2.o(.ARM.Collect$$$$00002712)
    __lit__00000000                          0x08000140   Data           4  entry2.o(.ARM.Collect$$$$00002712)
    .text                                    0x08000144   Section        8  stm32f10x_vector.o(.text)
    .text                                    0x0800014c   Section        0  memseta.o(.text)
    .text                                    0x08000170   Section        0  dmul.o(.text)
    .text                                    0x08000254   Section        0  dscalb.o(.text)
    .text                                    0x08000282   Section        0  dflti.o(.text)
    .text                                    0x080002a4   Section        0  dfixi.o(.text)
    .text                                    0x080002e2   Section        0  llushr.o(.text)
    .text                                    0x08000302   Section        0  depilogue.o(.text)
    .text                                    0x08000302   Section        0  iusefp.o(.text)
    .text                                    0x080003bc   Section       36  init.o(.text)
    .text                                    0x080003e0   Section        0  llshl.o(.text)
    i.ADC1_2_IRQHandler                      0x08000400   Section        0  stm32f10x_it.o(i.ADC1_2_IRQHandler)
    i.ADC3_IRQHandler                        0x08000464   Section        0  stm32f10x_it.o(i.ADC3_IRQHandler)
    i.ADC_ClearFlag                          0x08000466   Section        0  stm32f10x_adc.o(i.ADC_ClearFlag)
    i.ADC_Cmd                                0x0800046c   Section        0  stm32f10x_adc.o(i.ADC_Cmd)
    i.ADC_DeInit                             0x08000480   Section        0  stm32f10x_adc.o(i.ADC_DeInit)
    i.ADC_ExternalTrigInjectedConvCmd        0x080004bc   Section        0  stm32f10x_adc.o(i.ADC_ExternalTrigInjectedConvCmd)
    i.ADC_ExternalTrigInjectedConvConfig     0x080004d0   Section        0  stm32f10x_adc.o(i.ADC_ExternalTrigInjectedConvConfig)
    i.ADC_GetCalibrationStatus               0x080004dc   Section        0  stm32f10x_adc.o(i.ADC_GetCalibrationStatus)
    i.ADC_GetFlagStatus                      0x080004ea   Section        0  stm32f10x_adc.o(i.ADC_GetFlagStatus)
    i.ADC_GetITStatus                        0x080004f8   Section        0  stm32f10x_adc.o(i.ADC_GetITStatus)
    i.ADC_GetInjectedConversionValue         0x08000514   Section        0  stm32f10x_adc.o(i.ADC_GetInjectedConversionValue)
    i.ADC_ITConfig                           0x0800051c   Section        0  stm32f10x_adc.o(i.ADC_ITConfig)
    i.ADC_Init                               0x08000530   Section        0  stm32f10x_adc.o(i.ADC_Init)
    i.ADC_InjectedChannelConfig              0x08000578   Section        0  stm32f10x_adc.o(i.ADC_InjectedChannelConfig)
    i.ADC_InjectedSequencerLengthConfig      0x080005c2   Section        0  stm32f10x_adc.o(i.ADC_InjectedSequencerLengthConfig)
    i.ADC_SoftwareStartInjectedConvCmd       0x080005d2   Section        0  stm32f10x_adc.o(i.ADC_SoftwareStartInjectedConvCmd)
    i.ADC_StartCalibration                   0x080005e6   Section        0  stm32f10x_adc.o(i.ADC_StartCalibration)
    i.ADC_StructInit                         0x080005f0   Section        0  stm32f10x_adc.o(i.ADC_StructInit)
    i.BusFaultException                      0x08000602   Section        0  stm32f10x_it.o(i.BusFaultException)
    i.CAN_RX1_IRQHandler                     0x08000604   Section        0  stm32f10x_it.o(i.CAN_RX1_IRQHandler)
    i.CAN_SCE_IRQHandler                     0x08000606   Section        0  stm32f10x_it.o(i.CAN_SCE_IRQHandler)
    i.Clarke                                 0x08000608   Section        0  mc_clarke_park.o(i.Clarke)
    i.ClearLCD                               0x0800063c   Section        0  display.o(i.ClearLCD)
    i.ClrAllLcd                              0x0800069c   Section        0  display.o(i.ClrAllLcd)
    i.DMA1_Channel1_IRQHandler               0x080006ae   Section        0  stm32f10x_it.o(i.DMA1_Channel1_IRQHandler)
    i.DMA1_Channel2_IRQHandler               0x080006b0   Section        0  stm32f10x_it.o(i.DMA1_Channel2_IRQHandler)
    i.DMA1_Channel3_IRQHandler               0x080006b2   Section        0  stm32f10x_it.o(i.DMA1_Channel3_IRQHandler)
    i.DMA1_Channel4_IRQHandler               0x080006b4   Section        0  stm32f10x_it.o(i.DMA1_Channel4_IRQHandler)
    i.DMA1_Channel5_IRQHandler               0x080006b6   Section        0  stm32f10x_it.o(i.DMA1_Channel5_IRQHandler)
    i.DMA1_Channel6_IRQHandler               0x080006b8   Section        0  stm32f10x_it.o(i.DMA1_Channel6_IRQHandler)
    i.DMA1_Channel7_IRQHandler               0x080006ba   Section        0  stm32f10x_it.o(i.DMA1_Channel7_IRQHandler)
    i.DMA2_Channel1_IRQHandler               0x080006bc   Section        0  stm32f10x_it.o(i.DMA2_Channel1_IRQHandler)
    i.DMA2_Channel2_IRQHandler               0x080006be   Section        0  stm32f10x_it.o(i.DMA2_Channel2_IRQHandler)
    i.DMA2_Channel3_IRQHandler               0x080006c0   Section        0  stm32f10x_it.o(i.DMA2_Channel3_IRQHandler)
    i.DMA2_Channel4_5_IRQHandler             0x080006c2   Section        0  stm32f10x_it.o(i.DMA2_Channel4_5_IRQHandler)
    i.DebugMonitor                           0x080006c4   Section        0  stm32f10x_it.o(i.DebugMonitor)
    i.DispLCDBuf                             0x080006c8   Section        0  display.o(i.DispLCDBuf)
    i.EXTI0_IRQHandler                       0x08000720   Section        0  stm32f10x_it.o(i.EXTI0_IRQHandler)
    i.EXTI15_10_IRQHandler                   0x08000722   Section        0  stm32f10x_it.o(i.EXTI15_10_IRQHandler)
    i.EXTI1_IRQHandler                       0x08000724   Section        0  stm32f10x_it.o(i.EXTI1_IRQHandler)
    i.EXTI2_IRQHandler                       0x08000726   Section        0  stm32f10x_it.o(i.EXTI2_IRQHandler)
    i.EXTI3_IRQHandler                       0x08000728   Section        0  stm32f10x_it.o(i.EXTI3_IRQHandler)
    i.EXTI4_IRQHandler                       0x0800072a   Section        0  stm32f10x_it.o(i.EXTI4_IRQHandler)
    i.EXTI9_5_IRQHandler                     0x0800072c   Section        0  stm32f10x_it.o(i.EXTI9_5_IRQHandler)
    i.FLASH_IRQHandler                       0x0800072e   Section        0  stm32f10x_it.o(i.FLASH_IRQHandler)
    i.FLASH_PrefetchBufferCmd                0x08000730   Section        0  stm32f10x_flash.o(i.FLASH_PrefetchBufferCmd)
    i.FLASH_SetLatency                       0x08000748   Section        0  stm32f10x_flash.o(i.FLASH_SetLatency)
    i.FOC_CalcFluxTorqueRef                  0x08000760   Section        0  mc_foc_drive.o(i.FOC_CalcFluxTorqueRef)
    i.FOC_Init                               0x080007a8   Section        0  mc_foc_drive.o(i.FOC_Init)
    i.FOC_Model                              0x080007bc   Section        0  mc_foc_drive.o(i.FOC_Model)
    i.FOC_TorqueCtrl                         0x0800084c   Section        0  mc_foc_drive.o(i.FOC_TorqueCtrl)
    i.FSMC_IRQHandler                        0x08000868   Section        0  stm32f10x_it.o(i.FSMC_IRQHandler)
    i.GPIO_Configuration                     0x0800086c   Section        0  main.o(i.GPIO_Configuration)
    i.GPIO_Init                              0x08000960   Section        0  stm32f10x_gpio.o(i.GPIO_Init)
    i.GPIO_PinRemapConfig                    0x080009fc   Section        0  stm32f10x_gpio.o(i.GPIO_PinRemapConfig)
    i.GPIO_ReadInputDataBit                  0x08000a44   Section        0  stm32f10x_gpio.o(i.GPIO_ReadInputDataBit)
    i.GPIO_SetBits                           0x08000a52   Section        0  stm32f10x_gpio.o(i.GPIO_SetBits)
    i.GPIO_StructInit                        0x08000a56   Section        0  stm32f10x_gpio.o(i.GPIO_StructInit)
    i.HardFaultException                     0x08000a66   Section        0  stm32f10x_it.o(i.HardFaultException)
    i.I2C1_ER_IRQHandler                     0x08000a68   Section        0  stm32f10x_it.o(i.I2C1_ER_IRQHandler)
    i.I2C1_EV_IRQHandler                     0x08000a6a   Section        0  stm32f10x_it.o(i.I2C1_EV_IRQHandler)
    i.I2C2_ER_IRQHandler                     0x08000a6c   Section        0  stm32f10x_it.o(i.I2C2_ER_IRQHandler)
    i.I2C2_EV_IRQHandler                     0x08000a6e   Section        0  stm32f10x_it.o(i.I2C2_EV_IRQHandler)
    i.IsObserverConverged                    0x08000a70   Section        0  mc_state_observer_interface.o(i.IsObserverConverged)
    i.KEYS_ExportbKey                        0x08000af0   Section        0  mc_keys.o(i.KEYS_ExportbKey)
    i.KEYS_Init                              0x08000afc   Section        0  mc_keys.o(i.KEYS_Init)
    i.KeyProc                                0x08000b7c   Section        0  key.o(i.KeyProc)
    i.LcdReset                               0x08000c6c   Section        0  display.o(i.LcdReset)
    i.MCL_Chk_BusVolt                        0x08000cc4   Section        0  mc_motorcontrol_layer.o(i.MCL_Chk_BusVolt)
    i.MCL_Chk_OverTemp                       0x08000cec   Section        0  mc_motorcontrol_layer.o(i.MCL_Chk_OverTemp)
    i.MCL_ClearFault                         0x08000d1c   Section        0  mc_motorcontrol_layer.o(i.MCL_ClearFault)
    i.MCL_Get_BusVolt                        0x08000dbc   Section        0  mc_motorcontrol_layer.o(i.MCL_Get_BusVolt)
    i.MCL_Init                               0x08000dc8   Section        0  mc_motorcontrol_layer.o(i.MCL_Init)
    i.MCL_Init_Arrays                        0x08000e1c   Section        0  mc_motorcontrol_layer.o(i.MCL_Init_Arrays)
    i.MCL_Reset_PID_IntegralTerms            0x08000e30   Section        0  mc_motorcontrol_layer.o(i.MCL_Reset_PID_IntegralTerms)
    i.MCL_SetFault                           0x08000e4c   Section        0  mc_motorcontrol_layer.o(i.MCL_SetFault)
    i.MemManageException                     0x08000e90   Section        0  stm32f10x_it.o(i.MemManageException)
    i.NMIException                           0x08000e92   Section        0  stm32f10x_it.o(i.NMIException)
    i.NVIC_Configuration                     0x08000e94   Section        0  main.o(i.NVIC_Configuration)
    i.NVIC_Init                              0x08000ea0   Section        0  stm32f10x_nvic.o(i.NVIC_Init)
    i.NVIC_PriorityGroupConfig               0x08000f1c   Section        0  stm32f10x_nvic.o(i.NVIC_PriorityGroupConfig)
    i.NVIC_SetVectorTable                    0x08000f30   Section        0  stm32f10x_nvic.o(i.NVIC_SetVectorTable)
    i.NVIC_StructInit                        0x08000f44   Section        0  stm32f10x_nvic.o(i.NVIC_StructInit)
    i.NVIC_SystemHandlerPriorityConfig       0x08000f50   Section        0  stm32f10x_nvic.o(i.NVIC_SystemHandlerPriorityConfig)
    i.NumToArray                             0x08000fa0   Section        0  display.o(i.NumToArray)
    i.PID_Init                               0x0800102c   Section        0  mc_pid_regulators.o(i.PID_Init)
    i.PID_Regulator                          0x080010f4   Section        0  mc_pid_regulators.o(i.PID_Regulator)
    i.PVD_IRQHandler                         0x08001160   Section        0  stm32f10x_it.o(i.PVD_IRQHandler)
    i.Park                                   0x08001164   Section        0  mc_clarke_park.o(i.Park)
    i.PendSVC                                0x080011cc   Section        0  stm32f10x_it.o(i.PendSVC)
    i.ProcDownKey                            0x080011d0   Section        0  key.o(i.ProcDownKey)
    i.ProcFunKey                             0x080011e0   Section        0  key.o(i.ProcFunKey)
    i.ProcLeftKey                            0x0800120c   Section        0  key.o(i.ProcLeftKey)
    i.ProcRightKey                           0x0800121c   Section        0  key.o(i.ProcRightKey)
    i.ProcUpKey                              0x0800122c   Section        0  key.o(i.ProcUpKey)
    i.RCC_ADCCLKConfig                       0x0800123c   Section        0  stm32f10x_rcc.o(i.RCC_ADCCLKConfig)
    i.RCC_AHBPeriphClockCmd                  0x08001250   Section        0  stm32f10x_rcc.o(i.RCC_AHBPeriphClockCmd)
    i.RCC_APB1PeriphClockCmd                 0x08001268   Section        0  stm32f10x_rcc.o(i.RCC_APB1PeriphClockCmd)
    i.RCC_APB1PeriphResetCmd                 0x08001280   Section        0  stm32f10x_rcc.o(i.RCC_APB1PeriphResetCmd)
    i.RCC_APB2PeriphClockCmd                 0x08001298   Section        0  stm32f10x_rcc.o(i.RCC_APB2PeriphClockCmd)
    i.RCC_APB2PeriphResetCmd                 0x080012b0   Section        0  stm32f10x_rcc.o(i.RCC_APB2PeriphResetCmd)
    i.RCC_Configuration                      0x080012c8   Section        0  main.o(i.RCC_Configuration)
    i.RCC_DeInit                             0x08001328   Section        0  stm32f10x_rcc.o(i.RCC_DeInit)
    i.RCC_GetFlagStatus                      0x08001364   Section        0  stm32f10x_rcc.o(i.RCC_GetFlagStatus)
    i.RCC_GetSYSCLKSource                    0x08001394   Section        0  stm32f10x_rcc.o(i.RCC_GetSYSCLKSource)
    i.RCC_HCLKConfig                         0x080013a4   Section        0  stm32f10x_rcc.o(i.RCC_HCLKConfig)
    i.RCC_HSEConfig                          0x080013b8   Section        0  stm32f10x_rcc.o(i.RCC_HSEConfig)
    i.RCC_IRQHandler                         0x080013ec   Section        0  stm32f10x_it.o(i.RCC_IRQHandler)
    i.RCC_PCLK1Config                        0x080013f0   Section        0  stm32f10x_rcc.o(i.RCC_PCLK1Config)
    i.RCC_PCLK2Config                        0x08001404   Section        0  stm32f10x_rcc.o(i.RCC_PCLK2Config)
    i.RCC_PLLCmd                             0x08001418   Section        0  stm32f10x_rcc.o(i.RCC_PLLCmd)
    i.RCC_PLLConfig                          0x08001424   Section        0  stm32f10x_rcc.o(i.RCC_PLLConfig)
    i.RCC_SYSCLKConfig                       0x08001438   Section        0  stm32f10x_rcc.o(i.RCC_SYSCLKConfig)
    i.RCC_WaitForHSEStartUp                  0x0800144c   Section        0  stm32f10x_rcc.o(i.RCC_WaitForHSEStartUp)
    i.RTCAlarm_IRQHandler                    0x08001480   Section        0  stm32f10x_it.o(i.RTCAlarm_IRQHandler)
    i.RTC_IRQHandler                         0x08001482   Section        0  stm32f10x_it.o(i.RTC_IRQHandler)
    i.RevPark_Circle_Limitation              0x08001484   Section        0  mc_clarke_park.o(i.RevPark_Circle_Limitation)
    i.Rev_Park                               0x080014d8   Section        0  mc_clarke_park.o(i.Rev_Park)
    i.SDIO_IRQHandler                        0x08001530   Section        0  stm32f10x_it.o(i.SDIO_IRQHandler)
    i.SPI1_IRQHandler                        0x08001532   Section        0  stm32f10x_it.o(i.SPI1_IRQHandler)
    i.SPI2_IRQHandler                        0x08001534   Section        0  stm32f10x_it.o(i.SPI2_IRQHandler)
    i.SPI3_IRQHandler                        0x08001536   Section        0  stm32f10x_it.o(i.SPI3_IRQHandler)
    i.STO_Calc_Rotor_Angle                   0x08001538   Section        0  mc_state_observer.o(i.STO_Calc_Rotor_Angle)
    i.STO_Calc_Speed                         0x08001738   Section        0  mc_state_observer.o(i.STO_Calc_Speed)
    i.STO_Check_Speed_Reliability            0x080017c8   Section        0  mc_state_observer_interface.o(i.STO_Check_Speed_Reliability)
    i.STO_Gains_Init                         0x080017f4   Section        0  mc_state_observer.o(i.STO_Gains_Init)
    i.STO_Get_Electrical_Angle               0x08001830   Section        0  mc_state_observer.o(i.STO_Get_Electrical_Angle)
    i.STO_Get_Speed                          0x0800183c   Section        0  mc_state_observer.o(i.STO_Get_Speed)
    i.STO_Get_Speed_Hz                       0x08001848   Section        0  mc_state_observer_interface.o(i.STO_Get_Speed_Hz)
    i.STO_Init                               0x08001860   Section        0  mc_state_observer.o(i.STO_Init)
    i.STO_InitSpeedBuffer                    0x08001890   Section        0  mc_state_observer.o(i.STO_InitSpeedBuffer)
    i.STO_IsSpeed_Reliable                   0x080018ac   Section        0  mc_state_observer.o(i.STO_IsSpeed_Reliable)
    i.STO_StartUp_Init                       0x080018b8   Section        0  mc_state_observer_interface.o(i.STO_StartUp_Init)
    i.STO_Start_Up                           0x080018cc   Section        0  mc_state_observer_interface.o(i.STO_Start_Up)
    i.STO_StateObserverInterface_Init        0x08001af8   Section        0  mc_state_observer_interface.o(i.STO_StateObserverInterface_Init)
    i.SVCHandler                             0x08001b9c   Section        0  stm32f10x_it.o(i.SVCHandler)
    i.SVPWMEOCEvent                          0x08001ba0   Section        0  stm32f10x_svpwm_3shunt.o(i.SVPWMEOCEvent)
    i.SVPWMUpdateEvent                       0x08001bf0   Section        0  stm32f10x_svpwm_3shunt.o(i.SVPWMUpdateEvent)
    i.SVPWM_3ShuntAdvCurrentReading          0x08001c0c   Section        0  stm32f10x_svpwm_3shunt.o(i.SVPWM_3ShuntAdvCurrentReading)
    i.SVPWM_3ShuntCalcDutyCycles             0x08001c58   Section        0  stm32f10x_svpwm_3shunt.o(i.SVPWM_3ShuntCalcDutyCycles)
    i.SVPWM_3ShuntCurrentReadingCalibration  0x08001fb8   Section        0  stm32f10x_svpwm_3shunt.o(i.SVPWM_3ShuntCurrentReadingCalibration)
    i.SVPWM_3ShuntGetPhaseCurrentValues      0x080020d4   Section        0  stm32f10x_svpwm_3shunt.o(i.SVPWM_3ShuntGetPhaseCurrentValues)
    i.SVPWM_3ShuntInit                       0x080021ec   Section        0  stm32f10x_svpwm_3shunt.o(i.SVPWM_3ShuntInit)
    i.SetXY                                  0x0800251c   Section        0  display.o(i.SetXY)
    i.ShowBlank                              0x08002570   Section        0  display.o(i.ShowBlank)
    i.ShowChar                               0x080025e0   Section        0  display.o(i.ShowChar)
    i.ShowDispBuf                            0x08002654   Section        0  display.o(i.ShowDispBuf)
    i.ShowMenuMain                           0x08002668   Section        0  display.o(i.ShowMenuMain)
    i.ShowNum                                0x08002a7c   Section        0  display.o(i.ShowNum)
    i.Speed_PI                               0x08003018   Section        0  mc_state_observer.o(i.Speed_PI)
    i.SysTickHandler                         0x080030ac   Section        0  stm32f10x_timebase.o(i.SysTickHandler)
    i.SysTick_CLKSourceConfig                0x080031b8   Section        0  stm32f10x_systick.o(i.SysTick_CLKSourceConfig)
    i.SysTick_CounterCmd                     0x080031d0   Section        0  stm32f10x_systick.o(i.SysTick_CounterCmd)
    i.SysTick_ITConfig                       0x080031f4   Section        0  stm32f10x_systick.o(i.SysTick_ITConfig)
    i.SysTick_SetReload                      0x0800320c   Section        0  stm32f10x_systick.o(i.SysTick_SetReload)
    i.TAMPER_IRQHandler                      0x08003214   Section        0  stm32f10x_it.o(i.TAMPER_IRQHandler)
    i.TB_Delay_IsElapsed                     0x08003218   Section        0  stm32f10x_timebase.o(i.TB_Delay_IsElapsed)
    i.TB_Init                                0x0800322c   Section        0  stm32f10x_timebase.o(i.TB_Init)
    i.TB_Set_Delay_500us                     0x0800325c   Section        0  stm32f10x_timebase.o(i.TB_Set_Delay_500us)
    i.TB_Set_StartUp_Timeout                 0x08003268   Section        0  stm32f10x_timebase.o(i.TB_Set_StartUp_Timeout)
    i.TB_StartUp_Timeout_IsElapsed           0x0800327c   Section        0  stm32f10x_timebase.o(i.TB_StartUp_Timeout_IsElapsed)
    i.TIM1_BRK_IRQHandler                    0x08003290   Section        0  stm32f10x_it.o(i.TIM1_BRK_IRQHandler)
    i.TIM1_CC_IRQHandler                     0x080032ac   Section        0  stm32f10x_it.o(i.TIM1_CC_IRQHandler)
    i.TIM1_TRG_COM_IRQHandler                0x080032ae   Section        0  stm32f10x_it.o(i.TIM1_TRG_COM_IRQHandler)
    i.TIM1_UP_IRQHandler                     0x080032b0   Section        0  stm32f10x_it.o(i.TIM1_UP_IRQHandler)
    i.TIM2_IRQHandler                        0x080032c8   Section        0  stm32f10x_it.o(i.TIM2_IRQHandler)
    i.TIM3_IRQHandler                        0x080032ca   Section        0  stm32f10x_it.o(i.TIM3_IRQHandler)
    i.TIM4_IRQHandler                        0x080032cc   Section        0  stm32f10x_it.o(i.TIM4_IRQHandler)
    i.TIM5_IRQHandler                        0x080032ce   Section        0  stm32f10x_it.o(i.TIM5_IRQHandler)
    i.TIM6_IRQHandler                        0x080032d0   Section        0  stm32f10x_it.o(i.TIM6_IRQHandler)
    i.TIM7_IRQHandler                        0x080032d2   Section        0  stm32f10x_it.o(i.TIM7_IRQHandler)
    i.TIM8_BRK_IRQHandler                    0x080032d4   Section        0  stm32f10x_it.o(i.TIM8_BRK_IRQHandler)
    i.TIM8_CC_IRQHandler                     0x080032d6   Section        0  stm32f10x_it.o(i.TIM8_CC_IRQHandler)
    i.TIM8_TRG_COM_IRQHandler                0x080032d8   Section        0  stm32f10x_it.o(i.TIM8_TRG_COM_IRQHandler)
    i.TIM8_UP_IRQHandler                     0x080032da   Section        0  stm32f10x_it.o(i.TIM8_UP_IRQHandler)
    i.TIM_BDTRConfig                         0x080032dc   Section        0  stm32f10x_tim.o(i.TIM_BDTRConfig)
    i.TIM_ClearFlag                          0x080032fe   Section        0  stm32f10x_tim.o(i.TIM_ClearFlag)
    i.TIM_ClearITPendingBit                  0x08003304   Section        0  stm32f10x_tim.o(i.TIM_ClearITPendingBit)
    i.TIM_Cmd                                0x0800330a   Section        0  stm32f10x_tim.o(i.TIM_Cmd)
    i.TIM_CtrlPWMOutputs                     0x08003320   Section        0  stm32f10x_tim.o(i.TIM_CtrlPWMOutputs)
    i.TIM_DeInit                             0x08003338   Section        0  stm32f10x_tim.o(i.TIM_DeInit)
    i.TIM_GenerateEvent                      0x080033ec   Section        0  stm32f10x_tim.o(i.TIM_GenerateEvent)
    i.TIM_ITConfig                           0x080033f0   Section        0  stm32f10x_tim.o(i.TIM_ITConfig)
    i.TIM_OC1Init                            0x08003400   Section        0  stm32f10x_tim.o(i.TIM_OC1Init)
    i.TIM_OC1PreloadConfig                   0x08003460   Section        0  stm32f10x_tim.o(i.TIM_OC1PreloadConfig)
    i.TIM_OC2Init                            0x0800346c   Section        0  stm32f10x_tim.o(i.TIM_OC2Init)
    i.TIM_OC2PreloadConfig                   0x080034ec   Section        0  stm32f10x_tim.o(i.TIM_OC2PreloadConfig)
    i.TIM_OC3Init                            0x08003500   Section        0  stm32f10x_tim.o(i.TIM_OC3Init)
    i.TIM_OC3PreloadConfig                   0x0800357c   Section        0  stm32f10x_tim.o(i.TIM_OC3PreloadConfig)
    i.TIM_OC4Init                            0x08003588   Section        0  stm32f10x_tim.o(i.TIM_OC4Init)
    i.TIM_OC4PreloadConfig                   0x080035ec   Section        0  stm32f10x_tim.o(i.TIM_OC4PreloadConfig)
    i.TIM_OCStructInit                       0x08003600   Section        0  stm32f10x_tim.o(i.TIM_OCStructInit)
    i.TIM_SelectOutputTrigger                0x08003614   Section        0  stm32f10x_tim.o(i.TIM_SelectOutputTrigger)
    i.TIM_TimeBaseInit                       0x08003624   Section        0  stm32f10x_tim.o(i.TIM_TimeBaseInit)
    i.TIM_TimeBaseStructInit                 0x08003660   Section        0  stm32f10x_tim.o(i.TIM_TimeBaseStructInit)
    i.Timeproc                               0x08003674   Section        0  display.o(i.Timeproc)
    i.Trig_Functions                         0x080036e0   Section        0  mc_clarke_park.o(i.Trig_Functions)
    i.UART4_IRQHandler                       0x08003758   Section        0  stm32f10x_it.o(i.UART4_IRQHandler)
    i.UART5_IRQHandler                       0x0800375a   Section        0  stm32f10x_it.o(i.UART5_IRQHandler)
    i.USART1_IRQHandler                      0x0800375c   Section        0  stm32f10x_it.o(i.USART1_IRQHandler)
    i.USART2_IRQHandler                      0x0800375e   Section        0  stm32f10x_it.o(i.USART2_IRQHandler)
    i.USART3_IRQHandler                      0x08003760   Section        0  stm32f10x_it.o(i.USART3_IRQHandler)
    i.USBWakeUp_IRQHandler                   0x08003762   Section        0  stm32f10x_it.o(i.USBWakeUp_IRQHandler)
    i.USB_HP_CAN_TX_IRQHandler               0x08003764   Section        0  stm32f10x_it.o(i.USB_HP_CAN_TX_IRQHandler)
    i.USB_LP_CAN_RX0_IRQHandler              0x08003766   Section        0  stm32f10x_it.o(i.USB_LP_CAN_RX0_IRQHandler)
    i.UsageFaultException                    0x08003768   Section        0  stm32f10x_it.o(i.UsageFaultException)
    i.WWDG_IRQHandler                        0x0800376a   Section        0  stm32f10x_it.o(i.WWDG_IRQHandler)
    i.WriteCommandLCD                        0x0800376c   Section        0  display.o(i.WriteCommandLCD)
    i.WriteDataLCD                           0x080039e0   Section        0  display.o(i.WriteDataLCD)
    i.__scatterload_copy                     0x08003c54   Section       14  handlers.o(i.__scatterload_copy)
    i.__scatterload_null                     0x08003c62   Section        2  handlers.o(i.__scatterload_null)
    i.__scatterload_zeroinit                 0x08003c64   Section       14  handlers.o(i.__scatterload_zeroinit)
    i.main                                   0x08003c74   Section        0  main.o(i.main)
    .constdata                               0x08003d7c   Section        5  main.o(.constdata)
    .constdata                               0x08003d81   Section        5  main.o(.constdata)
    .constdata                               0x08003d86   Section        5  main.o(.constdata)
    .constdata                               0x08003d8b   Section        5  main.o(.constdata)
    .constdata                               0x08003d90   Section        5  main.o(.constdata)
    .constdata                               0x08003d95   Section        5  main.o(.constdata)
    .constdata                               0x08003d9a   Section        5  main.o(.constdata)
    .constdata                               0x08003d9f   Section        5  main.o(.constdata)
    .constdata                               0x08003da4   Section        5  main.o(.constdata)
    .constdata                               0x08003da9   Section        5  main.o(.constdata)
    .constdata                               0x08003dae   Section        5  main.o(.constdata)
    .constdata                               0x08003db3   Section        5  main.o(.constdata)
    .constdata                               0x08003db8   Section        5  main.o(.constdata)
    .constdata                               0x08003dbd   Section        5  main.o(.constdata)
    .constdata                               0x08003dc2   Section        5  main.o(.constdata)
    .constdata                               0x08003dc7   Section        5  main.o(.constdata)
    .constdata                               0x08003dcc   Section        5  main.o(.constdata)
    .constdata                               0x08003dd1   Section        5  main.o(.constdata)
    .constdata                               0x08003dd6   Section        5  main.o(.constdata)
    .constdata                               0x08003ddb   Section        5  main.o(.constdata)
    .constdata                               0x08003de0   Section        5  main.o(.constdata)
    .constdata                               0x08003de5   Section        5  main.o(.constdata)
    .constdata                               0x08003dea   Section        5  main.o(.constdata)
    .constdata                               0x08003def   Section        3  main.o(.constdata)
    .constdata                               0x08003df2   Section        2  main.o(.constdata)
    .constdata                               0x08003df4   Section        5  main.o(.constdata)
    .constdata                               0x08003df9   Section       50  main.o(.constdata)
    .constdata                               0x08003e2c   Section      646  mc_clarke_park.o(.constdata)
    .data                                    0x20000000   Section        2  main.o(.data)
    .data                                    0x20000002   Section        1  main.o(.data)
    .data                                    0x20000003   Section        1  main.o(.data)
    .data                                    0x20000004   Section        1  main.o(.data)
    .data                                    0x20000005   Section        1  main.o(.data)
    .data                                    0x20000006   Section        1  main.o(.data)
    .data                                    0x20000007   Section        1  main.o(.data)
    .data                                    0x20000008   Section        1  main.o(.data)
    .data                                    0x2000000a   Section        2  main.o(.data)
    .data                                    0x2000000c   Section        1  main.o(.data)
    .data                                    0x2000000d   Section        1  main.o(.data)
    .data                                    0x2000000e   Section        1  main.o(.data)
    .data                                    0x2000000f   Section        1  main.o(.data)
    .data                                    0x20000010   Section        1  main.o(.data)
    .data                                    0x20000011   Section        1  main.o(.data)
    .data                                    0x20000012   Section        4  mc_clarke_park.o(.data)
    Vector_Components                        0x20000012   Data           4  mc_clarke_park.o(.data)
    .data                                    0x20000016   Section        8  mc_foc_drive.o(.data)
    Stat_Curr_q_d_ref                        0x20000016   Data           4  mc_foc_drive.o(.data)
    Stat_Curr_q_d_ref_ref                    0x2000001a   Data           4  mc_foc_drive.o(.data)
    .data                                    0x20000020   Section       12  mc_motorcontrol_layer.o(.data)
    h_BusV_Average                           0x20000020   Data           2  mc_motorcontrol_layer.o(.data)
    w_Temp_Average                           0x20000028   Data           4  mc_motorcontrol_layer.o(.data)
    .data                                    0x2000002c   Section        4  mc_globals.o(.data)
    .data                                    0x20000030   Section        4  mc_globals.o(.data)
    .data                                    0x20000034   Section        4  mc_globals.o(.data)
    .data                                    0x20000038   Section        4  mc_globals.o(.data)
    .data                                    0x2000003c   Section        4  mc_globals.o(.data)
    .data                                    0x20000040   Section        4  mc_globals.o(.data)
    .data                                    0x20000044   Section        1  mc_globals.o(.data)
    .data                                    0x20000046   Section        2  mc_globals.o(.data)
    .data                                    0x20000048   Section        2  mc_globals.o(.data)
    .data                                    0x2000004a   Section        2  mc_globals.o(.data)
    .data                                    0x2000004c   Section       28  mc_state_observer_interface.o(.data)
    Start_Up_State                           0x2000004c   Data           1  mc_state_observer_interface.o(.data)
    bCounter                                 0x2000004d   Data           1  mc_state_observer_interface.o(.data)
    hAngle                                   0x2000004e   Data           2  mc_state_observer_interface.o(.data)
    bConvCounter                             0x20000050   Data           2  mc_state_observer_interface.o(.data)
    hFreq_Inc                                0x20000052   Data           2  mc_state_observer_interface.o(.data)
    wTime                                    0x20000054   Data           4  mc_state_observer_interface.o(.data)
    wStart_Up_Freq                           0x20000058   Data           4  mc_state_observer_interface.o(.data)
    wAlignmentTbase                          0x2000005c   Data           4  mc_state_observer_interface.o(.data)
    wStart_Up_I                              0x20000060   Data           4  mc_state_observer_interface.o(.data)
    hI_Inc                                   0x20000064   Data           4  mc_state_observer_interface.o(.data)
    .data                                    0x20000068   Section        4  mc_keys.o(.data)
    bKey                                     0x20000068   Data           1  mc_keys.o(.data)
    bPrevious_key                            0x20000069   Data           1  mc_keys.o(.data)
    bKey_Flag                                0x2000006a   Data           1  mc_keys.o(.data)
    .data                                    0x2000006c   Section       12  stm32f10x_timebase.o(.data)
    hStart_Up_TimeLeft_500us                 0x2000006e   Data           2  stm32f10x_timebase.o(.data)
    hTimebase_500us                          0x20000070   Data           2  stm32f10x_timebase.o(.data)
    hTimebase_display_500us                  0x20000072   Data           2  stm32f10x_timebase.o(.data)
    hKey_debounce_500us                      0x20000074   Data           2  stm32f10x_timebase.o(.data)
    hSpeedMeas_Timebase_500us                0x20000076   Data           2  stm32f10x_timebase.o(.data)
    .data                                    0x20000078   Section       10  stm32f10x_svpwm_3shunt.o(.data)
    bIndex                                   0x2000007a   Data           2  stm32f10x_svpwm_3shunt.o(.data)
    .data                                    0x20000084   Section        8  stm32f10x_rcc.o(.data)
    HSEStatus                                0x20000084   Data           1  stm32f10x_rcc.o(.data)
    StartUpCounter                           0x20000088   Data           4  stm32f10x_rcc.o(.data)
    .data                                    0x2000008c   Section       60  mc_state_observer.o(.data)
    Max_Speed_Out                            0x2000008c   Data           1  mc_state_observer.o(.data)
    Min_Speed_Out                            0x2000008d   Data           1  mc_state_observer.o(.data)
    Is_Speed_Reliable                        0x2000008e   Data           1  mc_state_observer.o(.data)
    bSpeed_Buffer_Index                      0x2000008f   Data           1  mc_state_observer.o(.data)
    hBemf_alfa_est                           0x20000090   Data           2  mc_state_observer.o(.data)
    hBemf_beta_est                           0x20000092   Data           2  mc_state_observer.o(.data)
    hRotor_El_Angle                          0x20000094   Data           2  mc_state_observer.o(.data)
    hRotor_Speed_dpp                         0x20000096   Data           2  mc_state_observer.o(.data)
    hC2                                      0x20000098   Data           2  mc_state_observer.o(.data)
    hC4                                      0x2000009a   Data           2  mc_state_observer.o(.data)
    hF1                                      0x2000009c   Data           2  mc_state_observer.o(.data)
    hF2                                      0x2000009e   Data           2  mc_state_observer.o(.data)
    hF3                                      0x200000a0   Data           2  mc_state_observer.o(.data)
    hC1                                      0x200000a2   Data           2  mc_state_observer.o(.data)
    hC3                                      0x200000a4   Data           2  mc_state_observer.o(.data)
    hC5                                      0x200000a6   Data           2  mc_state_observer.o(.data)
    hC6                                      0x200000a8   Data           2  mc_state_observer.o(.data)
    hSpeed_P_Gain                            0x200000aa   Data           2  mc_state_observer.o(.data)
    hSpeed_I_Gain                            0x200000ac   Data           2  mc_state_observer.o(.data)
    hPercentageFactor                        0x200000ae   Data           2  mc_state_observer.o(.data)
    wIalfa_est                               0x200000b0   Data           4  mc_state_observer.o(.data)
    wIbeta_est                               0x200000b4   Data           4  mc_state_observer.o(.data)
    wBemf_alfa_est                           0x200000b8   Data           4  mc_state_observer.o(.data)
    wBemf_beta_est                           0x200000bc   Data           4  mc_state_observer.o(.data)
    wSpeed_PI_integral_sum                   0x200000c0   Data           4  mc_state_observer.o(.data)
    wMotorMaxSpeed_dpp                       0x200000c4   Data           4  mc_state_observer.o(.data)
    .bss                                     0x200000c8   Section       10  main.o(.bss)
    .bss                                     0x200000d2   Section     1024  main.o(.bss)
    .bss                                     0x200004d4   Section       32  mc_globals.o(.bss)
    .bss                                     0x200004f4   Section       32  mc_globals.o(.bss)
    .bss                                     0x20000514   Section       32  mc_globals.o(.bss)
    .bss                                     0x20000534   Section      128  mc_state_observer.o(.bss)
    hSpeed_Buffer                            0x20000534   Data         128  mc_state_observer.o(.bss)
    STACK                                    0x200005b8   Section     1024  stm32f10x_vector.o(STACK)

    Global Symbols

    Symbol Name                              Value     Ov Type        Size  Object(Section)

    BuildAttributes$$THM_ISAv4$P$D$K$B$S$PE$A:L22UL41UL21$X:L11$S22US41US21$IEEE1$IW$USESV6$~STKCKD$USESV7$~SHL$OTIME$ROPI$EBA8$MICROLIB$REQ8$PRES8$EABIv2 0x00000000   Number         0  anon$$obj.o ABSOLUTE
    __ARM_use_no_argv                        0x00000000   Number         0  main.o ABSOLUTE
    __cpp_initialize__aeabi_                  - Undefined Weak Reference
    __cxa_finalize                            - Undefined Weak Reference
    __decompress                              - Undefined Weak Reference
    _clock_init                               - Undefined Weak Reference
    _microlib_exit                            - Undefined Weak Reference
    __Vectors                                0x08000000   Data           4  stm32f10x_vector.o(RESET)
    __main                                   0x08000131   Thumb Code     0  entry.o(.ARM.Collect$$$$00000000)
    _main_stk                                0x08000131   Thumb Code     0  entry2.o(.ARM.Collect$$$$00000001)
    _main_scatterload                        0x08000135   Thumb Code     0  entry5.o(.ARM.Collect$$$$00000004)
    __main_after_scatterload                 0x08000139   Thumb Code     0  entry5.o(.ARM.Collect$$$$00000004)
    _main_clock                              0x08000139   Thumb Code     0  entry7b.o(.ARM.Collect$$$$00000008)
    _main_cpp_init                           0x08000139   Thumb Code     0  entry8b.o(.ARM.Collect$$$$0000000A)
    _main_init                               0x08000139   Thumb Code     0  entry9a.o(.ARM.Collect$$$$0000000B)
    __rt_final_cpp                           0x08000141   Thumb Code     0  entry10a.o(.ARM.Collect$$$$0000000D)
    __rt_final_exit                          0x08000141   Thumb Code     0  entry11a.o(.ARM.Collect$$$$0000000F)
    Reset_Handler                            0x08000145   Thumb Code     4  stm32f10x_vector.o(.text)
    __aeabi_memset                           0x0800014d   Thumb Code    14  memseta.o(.text)
    __aeabi_memset4                          0x0800014d   Thumb Code     0  memseta.o(.text)
    __aeabi_memset8                          0x0800014d   Thumb Code     0  memseta.o(.text)
    __aeabi_memclr                           0x0800015b   Thumb Code     4  memseta.o(.text)
    __aeabi_memclr4                          0x0800015b   Thumb Code     0  memseta.o(.text)
    __aeabi_memclr8                          0x0800015b   Thumb Code     0  memseta.o(.text)
    _memset$wrapper                          0x0800015f   Thumb Code    18  memseta.o(.text)
    __aeabi_dmul                             0x08000171   Thumb Code   228  dmul.o(.text)
    __ARM_scalbn                             0x08000255   Thumb Code    46  dscalb.o(.text)
    scalbn                                   0x08000255   Thumb Code     0  dscalb.o(.text)
    __aeabi_i2d                              0x08000283   Thumb Code    34  dflti.o(.text)
    __aeabi_d2iz                             0x080002a5   Thumb Code    62  dfixi.o(.text)
    __aeabi_llsr                             0x080002e3   Thumb Code    32  llushr.o(.text)
    _ll_ushift_r                             0x080002e3   Thumb Code     0  llushr.o(.text)
    __I$use$fp                               0x08000303   Thumb Code     0  iusefp.o(.text)
    _double_round                            0x08000303   Thumb Code    30  depilogue.o(.text)
    _double_epilogue                         0x08000321   Thumb Code   156  depilogue.o(.text)
    __scatterload                            0x080003bd   Thumb Code    28  init.o(.text)
    __scatterload_rt2                        0x080003bd   Thumb Code     0  init.o(.text)
    __aeabi_llsl                             0x080003e1   Thumb Code    30  llshl.o(.text)
    _ll_shift_l                              0x080003e1   Thumb Code     0  llshl.o(.text)
    ADC1_2_IRQHandler                        0x08000401   Thumb Code    90  stm32f10x_it.o(i.ADC1_2_IRQHandler)
    ADC3_IRQHandler                          0x08000465   Thumb Code     2  stm32f10x_it.o(i.ADC3_IRQHandler)
    ADC_ClearFlag                            0x08000467   Thumb Code     6  stm32f10x_adc.o(i.ADC_ClearFlag)
    ADC_Cmd                                  0x0800046d   Thumb Code    20  stm32f10x_adc.o(i.ADC_Cmd)
    ADC_DeInit                               0x08000481   Thumb Code    56  stm32f10x_adc.o(i.ADC_DeInit)
    ADC_ExternalTrigInjectedConvCmd          0x080004bd   Thumb Code    20  stm32f10x_adc.o(i.ADC_ExternalTrigInjectedConvCmd)
    ADC_ExternalTrigInjectedConvConfig       0x080004d1   Thumb Code    12  stm32f10x_adc.o(i.ADC_ExternalTrigInjectedConvConfig)
    ADC_GetCalibrationStatus                 0x080004dd   Thumb Code    14  stm32f10x_adc.o(i.ADC_GetCalibrationStatus)
    ADC_GetFlagStatus                        0x080004eb   Thumb Code    14  stm32f10x_adc.o(i.ADC_GetFlagStatus)
    ADC_GetITStatus                          0x080004f9   Thumb Code    28  stm32f10x_adc.o(i.ADC_GetITStatus)
    ADC_GetInjectedConversionValue           0x08000515   Thumb Code     8  stm32f10x_adc.o(i.ADC_GetInjectedConversionValue)
    ADC_ITConfig                             0x0800051d   Thumb Code    18  stm32f10x_adc.o(i.ADC_ITConfig)
    ADC_Init                                 0x08000531   Thumb Code    62  stm32f10x_adc.o(i.ADC_Init)
    ADC_InjectedChannelConfig                0x08000579   Thumb Code    74  stm32f10x_adc.o(i.ADC_InjectedChannelConfig)
    ADC_InjectedSequencerLengthConfig        0x080005c3   Thumb Code    16  stm32f10x_adc.o(i.ADC_InjectedSequencerLengthConfig)
    ADC_SoftwareStartInjectedConvCmd         0x080005d3   Thumb Code    20  stm32f10x_adc.o(i.ADC_SoftwareStartInjectedConvCmd)
    ADC_StartCalibration                     0x080005e7   Thumb Code    10  stm32f10x_adc.o(i.ADC_StartCalibration)
    ADC_StructInit                           0x080005f1   Thumb Code    18  stm32f10x_adc.o(i.ADC_StructInit)
    BusFaultException                        0x08000603   Thumb Code     2  stm32f10x_it.o(i.BusFaultException)
    CAN_RX1_IRQHandler                       0x08000605   Thumb Code     2  stm32f10x_it.o(i.CAN_RX1_IRQHandler)
    CAN_SCE_IRQHandler                       0x08000607   Thumb Code     2  stm32f10x_it.o(i.CAN_SCE_IRQHandler)
    Clarke                                   0x08000609   Thumb Code    50  mc_clarke_park.o(i.Clarke)
    ClearLCD                                 0x0800063d   Thumb Code    86  display.o(i.ClearLCD)
    ClrAllLcd                                0x0800069d   Thumb Code    18  display.o(i.ClrAllLcd)
    DMA1_Channel1_IRQHandler                 0x080006af   Thumb Code     2  stm32f10x_it.o(i.DMA1_Channel1_IRQHandler)
    DMA1_Channel2_IRQHandler                 0x080006b1   Thumb Code     2  stm32f10x_it.o(i.DMA1_Channel2_IRQHandler)
    DMA1_Channel3_IRQHandler                 0x080006b3   Thumb Code     2  stm32f10x_it.o(i.DMA1_Channel3_IRQHandler)
    DMA1_Channel4_IRQHandler                 0x080006b5   Thumb Code     2  stm32f10x_it.o(i.DMA1_Channel4_IRQHandler)
    DMA1_Channel5_IRQHandler                 0x080006b7   Thumb Code     2  stm32f10x_it.o(i.DMA1_Channel5_IRQHandler)
    DMA1_Channel6_IRQHandler                 0x080006b9   Thumb Code     2  stm32f10x_it.o(i.DMA1_Channel6_IRQHandler)
    DMA1_Channel7_IRQHandler                 0x080006bb   Thumb Code     2  stm32f10x_it.o(i.DMA1_Channel7_IRQHandler)
    DMA2_Channel1_IRQHandler                 0x080006bd   Thumb Code     2  stm32f10x_it.o(i.DMA2_Channel1_IRQHandler)
    DMA2_Channel2_IRQHandler                 0x080006bf   Thumb Code     2  stm32f10x_it.o(i.DMA2_Channel2_IRQHandler)
    DMA2_Channel3_IRQHandler                 0x080006c1   Thumb Code     2  stm32f10x_it.o(i.DMA2_Channel3_IRQHandler)
    DMA2_Channel4_5_IRQHandler               0x080006c3   Thumb Code     2  stm32f10x_it.o(i.DMA2_Channel4_5_IRQHandler)
    DebugMonitor                             0x080006c5   Thumb Code     2  stm32f10x_it.o(i.DebugMonitor)
    DispLCDBuf                               0x080006c9   Thumb Code    80  display.o(i.DispLCDBuf)
    EXTI0_IRQHandler                         0x08000721   Thumb Code     2  stm32f10x_it.o(i.EXTI0_IRQHandler)
    EXTI15_10_IRQHandler                     0x08000723   Thumb Code     2  stm32f10x_it.o(i.EXTI15_10_IRQHandler)
    EXTI1_IRQHandler                         0x08000725   Thumb Code     2  stm32f10x_it.o(i.EXTI1_IRQHandler)
    EXTI2_IRQHandler                         0x08000727   Thumb Code     2  stm32f10x_it.o(i.EXTI2_IRQHandler)
    EXTI3_IRQHandler                         0x08000729   Thumb Code     2  stm32f10x_it.o(i.EXTI3_IRQHandler)
    EXTI4_IRQHandler                         0x0800072b   Thumb Code     2  stm32f10x_it.o(i.EXTI4_IRQHandler)
    EXTI9_5_IRQHandler                       0x0800072d   Thumb Code     2  stm32f10x_it.o(i.EXTI9_5_IRQHandler)
    FLASH_IRQHandler                         0x0800072f   Thumb Code     2  stm32f10x_it.o(i.FLASH_IRQHandler)
    FLASH_PrefetchBufferCmd                  0x08000731   Thumb Code    18  stm32f10x_flash.o(i.FLASH_PrefetchBufferCmd)
    FLASH_SetLatency                         0x08000749   Thumb Code    18  stm32f10x_flash.o(i.FLASH_SetLatency)
    FOC_CalcFluxTorqueRef                    0x08000761   Thumb Code    52  mc_foc_drive.o(i.FOC_CalcFluxTorqueRef)
    FOC_Init                                 0x080007a9   Thumb Code    16  mc_foc_drive.o(i.FOC_Init)
    FOC_Model                                0x080007bd   Thumb Code   112  mc_foc_drive.o(i.FOC_Model)
    FOC_TorqueCtrl                           0x0800084d   Thumb Code    16  mc_foc_drive.o(i.FOC_TorqueCtrl)
    FSMC_IRQHandler                          0x08000869   Thumb Code     2  stm32f10x_it.o(i.FSMC_IRQHandler)
    GPIO_Configuration                       0x0800086d   Thumb Code   224  main.o(i.GPIO_Configuration)
    GPIO_Init                                0x08000961   Thumb Code   154  stm32f10x_gpio.o(i.GPIO_Init)
    GPIO_PinRemapConfig                      0x080009fd   Thumb Code    66  stm32f10x_gpio.o(i.GPIO_PinRemapConfig)
    GPIO_ReadInputDataBit                    0x08000a45   Thumb Code    14  stm32f10x_gpio.o(i.GPIO_ReadInputDataBit)
    GPIO_SetBits                             0x08000a53   Thumb Code     4  stm32f10x_gpio.o(i.GPIO_SetBits)
    GPIO_StructInit                          0x08000a57   Thumb Code    16  stm32f10x_gpio.o(i.GPIO_StructInit)
    HardFaultException                       0x08000a67   Thumb Code     2  stm32f10x_it.o(i.HardFaultException)
    I2C1_ER_IRQHandler                       0x08000a69   Thumb Code     2  stm32f10x_it.o(i.I2C1_ER_IRQHandler)
    I2C1_EV_IRQHandler                       0x08000a6b   Thumb Code     2  stm32f10x_it.o(i.I2C1_EV_IRQHandler)
    I2C2_ER_IRQHandler                       0x08000a6d   Thumb Code     2  stm32f10x_it.o(i.I2C2_ER_IRQHandler)
    I2C2_EV_IRQHandler                       0x08000a6f   Thumb Code     2  stm32f10x_it.o(i.I2C2_EV_IRQHandler)
    IsObserverConverged                      0x08000a71   Thumb Code   122  mc_state_observer_interface.o(i.IsObserverConverged)
    KEYS_ExportbKey                          0x08000af1   Thumb Code     6  mc_keys.o(i.KEYS_ExportbKey)
    KEYS_Init                                0x08000afd   Thumb Code   118  mc_keys.o(i.KEYS_Init)
    KeyProc                                  0x08000b7d   Thumb Code   212  key.o(i.KeyProc)
    LcdReset                                 0x08000c6d   Thumb Code    82  display.o(i.LcdReset)
    MCL_Chk_BusVolt                          0x08000cc5   Thumb Code    34  mc_motorcontrol_layer.o(i.MCL_Chk_BusVolt)
    MCL_Chk_OverTemp                         0x08000ced   Thumb Code    40  mc_motorcontrol_layer.o(i.MCL_Chk_OverTemp)
    MCL_ClearFault                           0x08000d1d   Thumb Code   150  mc_motorcontrol_layer.o(i.MCL_ClearFault)
    MCL_Get_BusVolt                          0x08000dbd   Thumb Code     8  mc_motorcontrol_layer.o(i.MCL_Get_BusVolt)
    MCL_Init                                 0x08000dc9   Thumb Code    72  mc_motorcontrol_layer.o(i.MCL_Init)
    MCL_Init_Arrays                          0x08000e1d   Thumb Code    14  mc_motorcontrol_layer.o(i.MCL_Init_Arrays)
    MCL_Reset_PID_IntegralTerms              0x08000e31   Thumb Code    16  mc_motorcontrol_layer.o(i.MCL_Reset_PID_IntegralTerms)
    MCL_SetFault                             0x08000e4d   Thumb Code    50  mc_motorcontrol_layer.o(i.MCL_SetFault)
    MemManageException                       0x08000e91   Thumb Code     2  stm32f10x_it.o(i.MemManageException)
    NMIException                             0x08000e93   Thumb Code     2  stm32f10x_it.o(i.NMIException)
    NVIC_Configuration                       0x08000e95   Thumb Code    10  main.o(i.NVIC_Configuration)
    NVIC_Init                                0x08000ea1   Thumb Code   118  stm32f10x_nvic.o(i.NVIC_Init)
    NVIC_PriorityGroupConfig                 0x08000f1d   Thumb Code    10  stm32f10x_nvic.o(i.NVIC_PriorityGroupConfig)
    NVIC_SetVectorTable                      0x08000f31   Thumb Code    12  stm32f10x_nvic.o(i.NVIC_SetVectorTable)
    NVIC_StructInit                          0x08000f45   Thumb Code    12  stm32f10x_nvic.o(i.NVIC_StructInit)
    NVIC_SystemHandlerPriorityConfig         0x08000f51   Thumb Code    74  stm32f10x_nvic.o(i.NVIC_SystemHandlerPriorityConfig)
    NumToArray                               0x08000fa1   Thumb Code   136  display.o(i.NumToArray)
    PID_Init                                 0x0800102d   Thumb Code   178  mc_pid_regulators.o(i.PID_Init)
    PID_Regulator                            0x080010f5   Thumb Code   108  mc_pid_regulators.o(i.PID_Regulator)
    PVD_IRQHandler                           0x08001161   Thumb Code     2  stm32f10x_it.o(i.PVD_IRQHandler)
    Park                                     0x08001165   Thumb Code    98  mc_clarke_park.o(i.Park)
    PendSVC                                  0x080011cd   Thumb Code     2  stm32f10x_it.o(i.PendSVC)
    ProcDownKey                              0x080011d1   Thumb Code    10  key.o(i.ProcDownKey)
    ProcFunKey                               0x080011e1   Thumb Code    34  key.o(i.ProcFunKey)
    ProcLeftKey                              0x0800120d   Thumb Code    10  key.o(i.ProcLeftKey)
    ProcRightKey                             0x0800121d   Thumb Code    10  key.o(i.ProcRightKey)
    ProcUpKey                                0x0800122d   Thumb Code    10  key.o(i.ProcUpKey)
    RCC_ADCCLKConfig                         0x0800123d   Thumb Code    14  stm32f10x_rcc.o(i.RCC_ADCCLKConfig)
    RCC_AHBPeriphClockCmd                    0x08001251   Thumb Code    18  stm32f10x_rcc.o(i.RCC_AHBPeriphClockCmd)
    RCC_APB1PeriphClockCmd                   0x08001269   Thumb Code    18  stm32f10x_rcc.o(i.RCC_APB1PeriphClockCmd)
    RCC_APB1PeriphResetCmd                   0x08001281   Thumb Code    18  stm32f10x_rcc.o(i.RCC_APB1PeriphResetCmd)
    RCC_APB2PeriphClockCmd                   0x08001299   Thumb Code    18  stm32f10x_rcc.o(i.RCC_APB2PeriphClockCmd)
    RCC_APB2PeriphResetCmd                   0x080012b1   Thumb Code    18  stm32f10x_rcc.o(i.RCC_APB2PeriphResetCmd)
    RCC_Configuration                        0x080012c9   Thumb Code    96  main.o(i.RCC_Configuration)
    RCC_DeInit                               0x08001329   Thumb Code    48  stm32f10x_rcc.o(i.RCC_DeInit)
    RCC_GetFlagStatus                        0x08001365   Thumb Code    42  stm32f10x_rcc.o(i.RCC_GetFlagStatus)
    RCC_GetSYSCLKSource                      0x08001395   Thumb Code    10  stm32f10x_rcc.o(i.RCC_GetSYSCLKSource)
    RCC_HCLKConfig                           0x080013a5   Thumb Code    14  stm32f10x_rcc.o(i.RCC_HCLKConfig)
    RCC_HSEConfig                            0x080013b9   Thumb Code    48  stm32f10x_rcc.o(i.RCC_HSEConfig)
    RCC_IRQHandler                           0x080013ed   Thumb Code     2  stm32f10x_it.o(i.RCC_IRQHandler)
    RCC_PCLK1Config                          0x080013f1   Thumb Code    14  stm32f10x_rcc.o(i.RCC_PCLK1Config)
    RCC_PCLK2Config                          0x08001405   Thumb Code    16  stm32f10x_rcc.o(i.RCC_PCLK2Config)
    RCC_PLLCmd                               0x08001419   Thumb Code     6  stm32f10x_rcc.o(i.RCC_PLLCmd)
    RCC_PLLConfig                            0x08001425   Thumb Code    16  stm32f10x_rcc.o(i.RCC_PLLConfig)
    RCC_SYSCLKConfig                         0x08001439   Thumb Code    14  stm32f10x_rcc.o(i.RCC_SYSCLKConfig)
    RCC_WaitForHSEStartUp                    0x0800144d   Thumb Code    46  stm32f10x_rcc.o(i.RCC_WaitForHSEStartUp)
    RTCAlarm_IRQHandler                      0x08001481   Thumb Code     2  stm32f10x_it.o(i.RTCAlarm_IRQHandler)
    RTC_IRQHandler                           0x08001483   Thumb Code     2  stm32f10x_it.o(i.RTC_IRQHandler)
    RevPark_Circle_Limitation                0x08001485   Thumb Code    72  mc_clarke_park.o(i.RevPark_Circle_Limitation)
    Rev_Park                                 0x080014d9   Thumb Code    84  mc_clarke_park.o(i.Rev_Park)
    SDIO_IRQHandler                          0x08001531   Thumb Code     2  stm32f10x_it.o(i.SDIO_IRQHandler)
    SPI1_IRQHandler                          0x08001533   Thumb Code     2  stm32f10x_it.o(i.SPI1_IRQHandler)
    SPI2_IRQHandler                          0x08001535   Thumb Code     2  stm32f10x_it.o(i.SPI2_IRQHandler)
    SPI3_IRQHandler                          0x08001537   Thumb Code     2  stm32f10x_it.o(i.SPI3_IRQHandler)
    STO_Calc_Rotor_Angle                     0x08001539   Thumb Code   502  mc_state_observer.o(i.STO_Calc_Rotor_Angle)
    STO_Calc_Speed                           0x08001739   Thumb Code   136  mc_state_observer.o(i.STO_Calc_Speed)
    STO_Check_Speed_Reliability              0x080017c9   Thumb Code    38  mc_state_observer_interface.o(i.STO_Check_Speed_Reliability)
    STO_Gains_Init                           0x080017f5   Thumb Code    56  mc_state_observer.o(i.STO_Gains_Init)
    STO_Get_Electrical_Angle                 0x08001831   Thumb Code     8  mc_state_observer.o(i.STO_Get_Electrical_Angle)
    STO_Get_Speed                            0x0800183d   Thumb Code     8  mc_state_observer.o(i.STO_Get_Speed)
    STO_Get_Speed_Hz                         0x08001849   Thumb Code    20  mc_state_observer_interface.o(i.STO_Get_Speed_Hz)
    STO_Init                                 0x08001861   Thumb Code    38  mc_state_observer.o(i.STO_Init)
    STO_InitSpeedBuffer                      0x08001891   Thumb Code    18  mc_state_observer.o(i.STO_InitSpeedBuffer)
    STO_IsSpeed_Reliable                     0x080018ad   Thumb Code     6  mc_state_observer.o(i.STO_IsSpeed_Reliable)
    STO_StartUp_Init                         0x080018b9   Thumb Code    16  mc_state_observer_interface.o(i.STO_StartUp_Init)
    STO_Start_Up                             0x080018cd   Thumb Code   490  mc_state_observer_interface.o(i.STO_Start_Up)
    STO_StateObserverInterface_Init          0x08001af9   Thumb Code   154  mc_state_observer_interface.o(i.STO_StateObserverInterface_Init)
    SVCHandler                               0x08001b9d   Thumb Code     2  stm32f10x_it.o(i.SVCHandler)
    SVPWMEOCEvent                            0x08001ba1   Thumb Code    54  stm32f10x_svpwm_3shunt.o(i.SVPWMEOCEvent)
    SVPWMUpdateEvent                         0x08001bf1   Thumb Code    18  stm32f10x_svpwm_3shunt.o(i.SVPWMUpdateEvent)
    SVPWM_3ShuntAdvCurrentReading            0x08001c0d   Thumb Code    68  stm32f10x_svpwm_3shunt.o(i.SVPWM_3ShuntAdvCurrentReading)
    SVPWM_3ShuntCalcDutyCycles               0x08001c59   Thumb Code   828  stm32f10x_svpwm_3shunt.o(i.SVPWM_3ShuntCalcDutyCycles)
    SVPWM_3ShuntCurrentReadingCalibration    0x08001fb9   Thumb Code   270  stm32f10x_svpwm_3shunt.o(i.SVPWM_3ShuntCurrentReadingCalibration)
    SVPWM_3ShuntGetPhaseCurrentValues        0x080020d5   Thumb Code   264  stm32f10x_svpwm_3shunt.o(i.SVPWM_3ShuntGetPhaseCurrentValues)
    SVPWM_3ShuntInit                         0x080021ed   Thumb Code   790  stm32f10x_svpwm_3shunt.o(i.SVPWM_3ShuntInit)
    SetXY                                    0x0800251d   Thumb Code    78  display.o(i.SetXY)
    ShowBlank                                0x08002571   Thumb Code    98  display.o(i.ShowBlank)
    ShowChar                                 0x080025e1   Thumb Code   102  display.o(i.ShowChar)
    ShowDispBuf                              0x08002655   Thumb Code    18  display.o(i.ShowDispBuf)
    ShowMenuMain                             0x08002669   Thumb Code   930  display.o(i.ShowMenuMain)
    ShowNum                                  0x08002a7d   Thumb Code  1422  display.o(i.ShowNum)
    Speed_PI                                 0x08003019   Thumb Code   138  mc_state_observer.o(i.Speed_PI)
    SysTickHandler                           0x080030ad   Thumb Code   230  stm32f10x_timebase.o(i.SysTickHandler)
    SysTick_CLKSourceConfig                  0x080031b9   Thumb Code    24  stm32f10x_systick.o(i.SysTick_CLKSourceConfig)
    SysTick_CounterCmd                       0x080031d1   Thumb Code    36  stm32f10x_systick.o(i.SysTick_CounterCmd)
    SysTick_ITConfig                         0x080031f5   Thumb Code    24  stm32f10x_systick.o(i.SysTick_ITConfig)
    SysTick_SetReload                        0x0800320d   Thumb Code     8  stm32f10x_systick.o(i.SysTick_SetReload)
    TAMPER_IRQHandler                        0x08003215   Thumb Code     2  stm32f10x_it.o(i.TAMPER_IRQHandler)
    TB_Delay_IsElapsed                       0x08003219   Thumb Code    14  stm32f10x_timebase.o(i.TB_Delay_IsElapsed)
    TB_Init                                  0x0800322d   Thumb Code    42  stm32f10x_timebase.o(i.TB_Init)
    TB_Set_Delay_500us                       0x0800325d   Thumb Code     6  stm32f10x_timebase.o(i.TB_Set_Delay_500us)
    TB_Set_StartUp_Timeout                   0x08003269   Thumb Code    14  stm32f10x_timebase.o(i.TB_Set_StartUp_Timeout)
    TB_StartUp_Timeout_IsElapsed             0x0800327d   Thumb Code    14  stm32f10x_timebase.o(i.TB_StartUp_Timeout_IsElapsed)
    TIM1_BRK_IRQHandler                      0x08003291   Thumb Code    18  stm32f10x_it.o(i.TIM1_BRK_IRQHandler)
    TIM1_CC_IRQHandler                       0x080032ad   Thumb Code     2  stm32f10x_it.o(i.TIM1_CC_IRQHandler)
    TIM1_TRG_COM_IRQHandler                  0x080032af   Thumb Code     2  stm32f10x_it.o(i.TIM1_TRG_COM_IRQHandler)
    TIM1_UP_IRQHandler                       0x080032b1   Thumb Code    18  stm32f10x_it.o(i.TIM1_UP_IRQHandler)
    TIM2_IRQHandler                          0x080032c9   Thumb Code     2  stm32f10x_it.o(i.TIM2_IRQHandler)
    TIM3_IRQHandler                          0x080032cb   Thumb Code     2  stm32f10x_it.o(i.TIM3_IRQHandler)
    TIM4_IRQHandler                          0x080032cd   Thumb Code     2  stm32f10x_it.o(i.TIM4_IRQHandler)
    TIM5_IRQHandler                          0x080032cf   Thumb Code     2  stm32f10x_it.o(i.TIM5_IRQHandler)
    TIM6_IRQHandler                          0x080032d1   Thumb Code     2  stm32f10x_it.o(i.TIM6_IRQHandler)
    TIM7_IRQHandler                          0x080032d3   Thumb Code     2  stm32f10x_it.o(i.TIM7_IRQHandler)
    TIM8_BRK_IRQHandler                      0x080032d5   Thumb Code     2  stm32f10x_it.o(i.TIM8_BRK_IRQHandler)
    TIM8_CC_IRQHandler                       0x080032d7   Thumb Code     2  stm32f10x_it.o(i.TIM8_CC_IRQHandler)
    TIM8_TRG_COM_IRQHandler                  0x080032d9   Thumb Code     2  stm32f10x_it.o(i.TIM8_TRG_COM_IRQHandler)
    TIM8_UP_IRQHandler                       0x080032db   Thumb Code     2  stm32f10x_it.o(i.TIM8_UP_IRQHandler)
    TIM_BDTRConfig                           0x080032dd   Thumb Code    34  stm32f10x_tim.o(i.TIM_BDTRConfig)
    TIM_ClearFlag                            0x080032ff   Thumb Code     6  stm32f10x_tim.o(i.TIM_ClearFlag)
    TIM_ClearITPendingBit                    0x08003305   Thumb Code     6  stm32f10x_tim.o(i.TIM_ClearITPendingBit)
    TIM_Cmd                                  0x0800330b   Thumb Code    22  stm32f10x_tim.o(i.TIM_Cmd)
    TIM_CtrlPWMOutputs                       0x08003321   Thumb Code    22  stm32f10x_tim.o(i.TIM_CtrlPWMOutputs)
    TIM_DeInit                               0x08003339   Thumb Code   170  stm32f10x_tim.o(i.TIM_DeInit)
    TIM_GenerateEvent                        0x080033ed   Thumb Code     4  stm32f10x_tim.o(i.TIM_GenerateEvent)
    TIM_ITConfig                             0x080033f1   Thumb Code    16  stm32f10x_tim.o(i.TIM_ITConfig)
    TIM_OC1Init                              0x08003401   Thumb Code    88  stm32f10x_tim.o(i.TIM_OC1Init)
    TIM_OC1PreloadConfig                     0x08003461   Thumb Code    12  stm32f10x_tim.o(i.TIM_OC1PreloadConfig)
    TIM_OC2Init                              0x0800346d   Thumb Code   120  stm32f10x_tim.o(i.TIM_OC2Init)
    TIM_OC2PreloadConfig                     0x080034ed   Thumb Code    20  stm32f10x_tim.o(i.TIM_OC2PreloadConfig)
    TIM_OC3Init                              0x08003501   Thumb Code   116  stm32f10x_tim.o(i.TIM_OC3Init)
    TIM_OC3PreloadConfig                     0x0800357d   Thumb Code    12  stm32f10x_tim.o(i.TIM_OC3PreloadConfig)
    TIM_OC4Init                              0x08003589   Thumb Code    90  stm32f10x_tim.o(i.TIM_OC4Init)
    TIM_OC4PreloadConfig                     0x080035ed   Thumb Code    20  stm32f10x_tim.o(i.TIM_OC4PreloadConfig)
    TIM_OCStructInit                         0x08003601   Thumb Code    20  stm32f10x_tim.o(i.TIM_OCStructInit)
    TIM_SelectOutputTrigger                  0x08003615   Thumb Code    16  stm32f10x_tim.o(i.TIM_SelectOutputTrigger)
    TIM_TimeBaseInit                         0x08003625   Thumb Code    50  stm32f10x_tim.o(i.TIM_TimeBaseInit)
    TIM_TimeBaseStructInit                   0x08003661   Thumb Code    18  stm32f10x_tim.o(i.TIM_TimeBaseStructInit)
    Timeproc                                 0x08003675   Thumb Code    88  display.o(i.Timeproc)
    Trig_Functions                           0x080036e1   Thumb Code   114  mc_clarke_park.o(i.Trig_Functions)
    UART4_IRQHandler                         0x08003759   Thumb Code     2  stm32f10x_it.o(i.UART4_IRQHandler)
    UART5_IRQHandler                         0x0800375b   Thumb Code     2  stm32f10x_it.o(i.UART5_IRQHandler)
    USART1_IRQHandler                        0x0800375d   Thumb Code     2  stm32f10x_it.o(i.USART1_IRQHandler)
    USART2_IRQHandler                        0x0800375f   Thumb Code     2  stm32f10x_it.o(i.USART2_IRQHandler)
    USART3_IRQHandler                        0x08003761   Thumb Code     2  stm32f10x_it.o(i.USART3_IRQHandler)
    USBWakeUp_IRQHandler                     0x08003763   Thumb Code     2  stm32f10x_it.o(i.USBWakeUp_IRQHandler)
    USB_HP_CAN_TX_IRQHandler                 0x08003765   Thumb Code     2  stm32f10x_it.o(i.USB_HP_CAN_TX_IRQHandler)
    USB_LP_CAN_RX0_IRQHandler                0x08003767   Thumb Code     2  stm32f10x_it.o(i.USB_LP_CAN_RX0_IRQHandler)
    UsageFaultException                      0x08003769   Thumb Code     2  stm32f10x_it.o(i.UsageFaultException)
    WWDG_IRQHandler                          0x0800376b   Thumb Code     2  stm32f10x_it.o(i.WWDG_IRQHandler)
    WriteCommandLCD                          0x0800376d   Thumb Code   608  display.o(i.WriteCommandLCD)
    WriteDataLCD                             0x080039e1   Thumb Code   606  display.o(i.WriteDataLCD)
    __scatterload_copy                       0x08003c55   Thumb Code    14  handlers.o(i.__scatterload_copy)
    __scatterload_null                       0x08003c63   Thumb Code     2  handlers.o(i.__scatterload_null)
    __scatterload_zeroinit                   0x08003c65   Thumb Code    14  handlers.o(i.__scatterload_zeroinit)
    main                                     0x08003c75   Thumb Code   224  main.o(i.main)
    Eng_A                                    0x08003d7c   Data           5  main.o(.constdata)
    Eng_B                                    0x08003d81   Data           5  main.o(.constdata)
    Eng_C                                    0x08003d86   Data           5  main.o(.constdata)
    Eng_D                                    0x08003d8b   Data           5  main.o(.constdata)
    Eng_E                                    0x08003d90   Data           5  main.o(.constdata)
    Eng_H                                    0x08003d95   Data           5  main.o(.constdata)
    Eng_K                                    0x08003d9a   Data           5  main.o(.constdata)
    Eng_L                                    0x08003d9f   Data           5  main.o(.constdata)
    Eng_N                                    0x08003da4   Data           5  main.o(.constdata)
    Eng_O                                    0x08003da9   Data           5  main.o(.constdata)
    Eng_P                                    0x08003dae   Data           5  main.o(.constdata)
    Eng_Q                                    0x08003db3   Data           5  main.o(.constdata)
    Eng_R                                    0x08003db8   Data           5  main.o(.constdata)
    Eng_S                                    0x08003dbd   Data           5  main.o(.constdata)
    Eng_T                                    0x08003dc2   Data           5  main.o(.constdata)
    Eng_U                                    0x08003dc7   Data           5  main.o(.constdata)
    Eng_V                                    0x08003dcc   Data           5  main.o(.constdata)
    Eng_a                                    0x08003dd1   Data           5  main.o(.constdata)
    Eng_e                                    0x08003dd6   Data           5  main.o(.constdata)
    Eng_f                                    0x08003ddb   Data           5  main.o(.constdata)
    Eng_l                                    0x08003de0   Data           5  main.o(.constdata)
    Eng_o                                    0x08003de5   Data           5  main.o(.constdata)
    Eng_t                                    0x08003dea   Data           5  main.o(.constdata)
    sign_maohao                              0x08003def   Data           3  main.o(.constdata)
    sign_dot                                 0x08003df2   Data           2  main.o(.constdata)
    sign_fu                                  0x08003df4   Data           5  main.o(.constdata)
    number8x5                                0x08003df9   Data          50  main.o(.constdata)
    circle_limit_table                       0x08003e2c   Data         134  mc_clarke_park.o(.constdata)
    hSin_Cos_Table                           0x08003eb2   Data         512  mc_clarke_park.o(.constdata)
    Region$$Table$$Base                      0x080040b4   Number         0  anon$$obj.o(Region$$Table)
    Region$$Table$$Limit                     0x080040d4   Number         0  anon$$obj.o(Region$$Table)
    Res_f                                    0x20000000   Data           1  main.o(.data)
    FLAG0                                    0x20000001   Data           1  main.o(.data)
    ucKeyPressTime                           0x20000002   Data           1  main.o(.data)
    ucKeyDat                                 0x20000003   Data           1  main.o(.data)
    ucPreKey                                 0x20000004   Data           1  main.o(.data)
    ucKeyDebouce                             0x20000005   Data           1  main.o(.data)
    ucKeyNew                                 0x20000006   Data           1  main.o(.data)
    ucKeyOld                                 0x20000007   Data           1  main.o(.data)
    ucT10Ms                                  0x20000008   Data           1  main.o(.data)
    ucT1S                                    0x2000000a   Data           2  main.o(.data)
    ucT10S                                   0x2000000c   Data           1  main.o(.data)
    ucT100ms                                 0x2000000d   Data           1  main.o(.data)
    tmpbyte                                  0x2000000e   Data           1  main.o(.data)
    FLAG1                                    0x2000000f   Data           1  main.o(.data)
    FLAG3                                    0x20000010   Data           1  main.o(.data)
    FLAG4                                    0x20000011   Data           1  main.o(.data)
    h_ADCBusvolt                             0x20000022   Data           2  mc_motorcontrol_layer.o(.data)
    h_ADCTemp                                0x20000024   Data           2  mc_motorcontrol_layer.o(.data)
    wGlobal_Flags                            0x2000002c   Data           4  mc_globals.o(.data)
    Stat_Curr_a_b                            0x20000030   Data           4  mc_globals.o(.data)
    Stat_Curr_alfa_beta                      0x20000034   Data           4  mc_globals.o(.data)
    Stat_Curr_q_d                            0x20000038   Data           4  mc_globals.o(.data)
    Stat_Volt_q_d                            0x2000003c   Data           4  mc_globals.o(.data)
    Stat_Volt_alfa_beta                      0x20000040   Data           4  mc_globals.o(.data)
    State                                    0x20000044   Data           1  mc_globals.o(.data)
    hFlux_Reference                          0x20000046   Data           2  mc_globals.o(.data)
    hTorque_Reference                        0x20000048   Data           2  mc_globals.o(.data)
    hSpeed_Reference                         0x2000004a   Data           2  mc_globals.o(.data)
    bMenu_index                              0x2000006b   Data           1  mc_keys.o(.data)
    bPID_Speed_Sampling_Time_500us           0x2000006c   Data           1  stm32f10x_timebase.o(.data)
    PWM4Direction                            0x20000078   Data           1  stm32f10x_svpwm_3shunt.o(.data)
    bSector                                  0x20000079   Data           1  stm32f10x_svpwm_3shunt.o(.data)
    hPhaseAOffset                            0x2000007c   Data           2  stm32f10x_svpwm_3shunt.o(.data)
    hPhaseBOffset                            0x2000007e   Data           2  stm32f10x_svpwm_3shunt.o(.data)
    hPhaseCOffset                            0x20000080   Data           2  stm32f10x_svpwm_3shunt.o(.data)
    N2ABuf                                   0x200000c8   Data          10  main.o(.bss)
    ucLcdBuffer                              0x200000d2   Data        1024  main.o(.bss)
    PID_Flux_InitStructure                   0x200004d4   Data          32  mc_globals.o(.bss)
    PID_Torque_InitStructure                 0x200004f4   Data          32  mc_globals.o(.bss)
    PID_Speed_InitStructure                  0x20000514   Data          32  mc_globals.o(.bss)
    __initial_sp                             0x200009b8   Data           0  stm32f10x_vector.o(STACK)



==============================================================================

Memory Map of the image

  Image Entry point : 0x08000131

  Load Region LR_IROM1 (Base: 0x08000000, Size: 0x0000419c, Max: 0x00010000, ABSOLUTE)

    Execution Region ER_IROM1 (Base: 0x08000000, Size: 0x000040d4, Max: 0x00010000, ABSOLUTE)

    Base Addr    Size         Type   Attr      Idx    E Section Name        Object

    0x08000000   0x00000130   Data   RO            3    RESET               stm32f10x_vector.o
    0x08000130   0x00000000   Code   RO         4668  * .ARM.Collect$$$$00000000  mc_w.l(entry.o)
    0x08000130   0x00000004   Code   RO         4683    .ARM.Collect$$$$00000001  mc_w.l(entry2.o)
    0x08000134   0x00000004   Code   RO         4686    .ARM.Collect$$$$00000004  mc_w.l(entry5.o)
    0x08000138   0x00000000   Code   RO         4688    .ARM.Collect$$$$00000008  mc_w.l(entry7b.o)
    0x08000138   0x00000000   Code   RO         4690    .ARM.Collect$$$$0000000A  mc_w.l(entry8b.o)
    0x08000138   0x00000008   Code   RO         4691    .ARM.Collect$$$$0000000B  mc_w.l(entry9a.o)
    0x08000140   0x00000000   Code   RO         4693    .ARM.Collect$$$$0000000D  mc_w.l(entry10a.o)
    0x08000140   0x00000000   Code   RO         4695    .ARM.Collect$$$$0000000F  mc_w.l(entry11a.o)
    0x08000140   0x00000004   Code   RO         4684    .ARM.Collect$$$$00002712  mc_w.l(entry2.o)
    0x08000144   0x00000008   Code   RO            4    .text               stm32f10x_vector.o
    0x0800014c   0x00000024   Code   RO         4673    .text               mc_w.l(memseta.o)
    0x08000170   0x000000e4   Code   RO         4675    .text               mf_w.l(dmul.o)
    0x08000254   0x0000002e   Code   RO         4677    .text               mf_w.l(dscalb.o)
    0x08000282   0x00000022   Code   RO         4679    .text               mf_w.l(dflti.o)
    0x080002a4   0x0000003e   Code   RO         4681    .text               mf_w.l(dfixi.o)
    0x080002e2   0x00000020   Code   RO         4699    .text               mc_w.l(llushr.o)
    0x08000302   0x00000000   Code   RO         4701    .text               mc_w.l(iusefp.o)
    0x08000302   0x000000ba   Code   RO         4702    .text               mf_w.l(depilogue.o)
    0x080003bc   0x00000024   Code   RO         4704    .text               mc_w.l(init.o)
    0x080003e0   0x0000001e   Code   RO         4706    .text               mc_w.l(llshl.o)
    0x080003fe   0x00000002   PAD
    0x08000400   0x00000064   Code   RO           13    i.ADC1_2_IRQHandler  stm32f10x_it.o
    0x08000464   0x00000002   Code   RO           14    i.ADC3_IRQHandler   stm32f10x_it.o
    0x08000466   0x00000006   Code   RO         2121    i.ADC_ClearFlag     stm32f10x_adc.o
    0x0800046c   0x00000014   Code   RO         2123    i.ADC_Cmd           stm32f10x_adc.o
    0x08000480   0x0000003c   Code   RO         2125    i.ADC_DeInit        stm32f10x_adc.o
    0x080004bc   0x00000014   Code   RO         2129    i.ADC_ExternalTrigInjectedConvCmd  stm32f10x_adc.o
    0x080004d0   0x0000000c   Code   RO         2130    i.ADC_ExternalTrigInjectedConvConfig  stm32f10x_adc.o
    0x080004dc   0x0000000e   Code   RO         2131    i.ADC_GetCalibrationStatus  stm32f10x_adc.o
    0x080004ea   0x0000000e   Code   RO         2134    i.ADC_GetFlagStatus  stm32f10x_adc.o
    0x080004f8   0x0000001c   Code   RO         2135    i.ADC_GetITStatus   stm32f10x_adc.o
    0x08000514   0x00000008   Code   RO         2136    i.ADC_GetInjectedConversionValue  stm32f10x_adc.o
    0x0800051c   0x00000012   Code   RO         2140    i.ADC_ITConfig      stm32f10x_adc.o
    0x0800052e   0x00000002   PAD
    0x08000530   0x00000048   Code   RO         2141    i.ADC_Init          stm32f10x_adc.o
    0x08000578   0x0000004a   Code   RO         2142    i.ADC_InjectedChannelConfig  stm32f10x_adc.o
    0x080005c2   0x00000010   Code   RO         2144    i.ADC_InjectedSequencerLengthConfig  stm32f10x_adc.o
    0x080005d2   0x00000014   Code   RO         2149    i.ADC_SoftwareStartInjectedConvCmd  stm32f10x_adc.o
    0x080005e6   0x0000000a   Code   RO         2150    i.ADC_StartCalibration  stm32f10x_adc.o
    0x080005f0   0x00000012   Code   RO         2151    i.ADC_StructInit    stm32f10x_adc.o
    0x08000602   0x00000002   Code   RO           15    i.BusFaultException  stm32f10x_it.o
    0x08000604   0x00000002   Code   RO           16    i.CAN_RX1_IRQHandler  stm32f10x_it.o
    0x08000606   0x00000002   Code   RO           17    i.CAN_SCE_IRQHandler  stm32f10x_it.o
    0x08000608   0x00000032   Code   RO          908    i.Clarke            mc_clarke_park.o
    0x0800063a   0x00000002   PAD
    0x0800063c   0x00000060   Code   RO         1961    i.ClearLCD          display.o
    0x0800069c   0x00000012   Code   RO         1962    i.ClrAllLcd         display.o
    0x080006ae   0x00000002   Code   RO           18    i.DMA1_Channel1_IRQHandler  stm32f10x_it.o
    0x080006b0   0x00000002   Code   RO           19    i.DMA1_Channel2_IRQHandler  stm32f10x_it.o
    0x080006b2   0x00000002   Code   RO           20    i.DMA1_Channel3_IRQHandler  stm32f10x_it.o
    0x080006b4   0x00000002   Code   RO           21    i.DMA1_Channel4_IRQHandler  stm32f10x_it.o
    0x080006b6   0x00000002   Code   RO           22    i.DMA1_Channel5_IRQHandler  stm32f10x_it.o
    0x080006b8   0x00000002   Code   RO           23    i.DMA1_Channel6_IRQHandler  stm32f10x_it.o
    0x080006ba   0x00000002   Code   RO           24    i.DMA1_Channel7_IRQHandler  stm32f10x_it.o
    0x080006bc   0x00000002   Code   RO           25    i.DMA2_Channel1_IRQHandler  stm32f10x_it.o
    0x080006be   0x00000002   Code   RO           26    i.DMA2_Channel2_IRQHandler  stm32f10x_it.o
    0x080006c0   0x00000002   Code   RO           27    i.DMA2_Channel3_IRQHandler  stm32f10x_it.o
    0x080006c2   0x00000002   Code   RO           28    i.DMA2_Channel4_5_IRQHandler  stm32f10x_it.o
    0x080006c4   0x00000002   Code   RO           29    i.DebugMonitor      stm32f10x_it.o
    0x080006c6   0x00000002   PAD
    0x080006c8   0x00000058   Code   RO         1963    i.DispLCDBuf        display.o
    0x08000720   0x00000002   Code   RO           30    i.EXTI0_IRQHandler  stm32f10x_it.o
    0x08000722   0x00000002   Code   RO           31    i.EXTI15_10_IRQHandler  stm32f10x_it.o
    0x08000724   0x00000002   Code   RO           32    i.EXTI1_IRQHandler  stm32f10x_it.o
    0x08000726   0x00000002   Code   RO           33    i.EXTI2_IRQHandler  stm32f10x_it.o
    0x08000728   0x00000002   Code   RO           34    i.EXTI3_IRQHandler  stm32f10x_it.o
    0x0800072a   0x00000002   Code   RO           35    i.EXTI4_IRQHandler  stm32f10x_it.o
    0x0800072c   0x00000002   Code   RO           36    i.EXTI9_5_IRQHandler  stm32f10x_it.o
    0x0800072e   0x00000002   Code   RO           37    i.FLASH_IRQHandler  stm32f10x_it.o
    0x08000730   0x00000018   Code   RO         2663    i.FLASH_PrefetchBufferCmd  stm32f10x_flash.o
    0x08000748   0x00000018   Code   RO         2664    i.FLASH_SetLatency  stm32f10x_flash.o
    0x08000760   0x00000048   Code   RO         1036    i.FOC_CalcFluxTorqueRef  mc_foc_drive.o
    0x080007a8   0x00000014   Code   RO         1037    i.FOC_Init          mc_foc_drive.o
    0x080007bc   0x00000090   Code   RO         1038    i.FOC_Model         mc_foc_drive.o
    0x0800084c   0x0000001c   Code   RO         1039    i.FOC_TorqueCtrl    mc_foc_drive.o
    0x08000868   0x00000002   Code   RO           38    i.FSMC_IRQHandler   stm32f10x_it.o
    0x0800086a   0x00000002   PAD
    0x0800086c   0x000000f4   Code   RO          582    i.GPIO_Configuration  main.o
    0x08000960   0x0000009a   Code   RO         2691    i.GPIO_Init         stm32f10x_gpio.o
    0x080009fa   0x00000002   PAD
    0x080009fc   0x00000048   Code   RO         2693    i.GPIO_PinRemapConfig  stm32f10x_gpio.o
    0x08000a44   0x0000000e   Code   RO         2695    i.GPIO_ReadInputDataBit  stm32f10x_gpio.o
    0x08000a52   0x00000004   Code   RO         2699    i.GPIO_SetBits      stm32f10x_gpio.o
    0x08000a56   0x00000010   Code   RO         2700    i.GPIO_StructInit   stm32f10x_gpio.o
    0x08000a66   0x00000002   Code   RO           39    i.HardFaultException  stm32f10x_it.o
    0x08000a68   0x00000002   Code   RO           40    i.I2C1_ER_IRQHandler  stm32f10x_it.o
    0x08000a6a   0x00000002   Code   RO           41    i.I2C1_EV_IRQHandler  stm32f10x_it.o
    0x08000a6c   0x00000002   Code   RO           42    i.I2C2_ER_IRQHandler  stm32f10x_it.o
    0x08000a6e   0x00000002   Code   RO           43    i.I2C2_EV_IRQHandler  stm32f10x_it.o
    0x08000a70   0x00000080   Code   RO         1200    i.IsObserverConverged  mc_state_observer_interface.o
    0x08000af0   0x0000000c   Code   RO         1249    i.KEYS_ExportbKey   mc_keys.o
    0x08000afc   0x00000080   Code   RO         1250    i.KEYS_Init         mc_keys.o
    0x08000b7c   0x000000f0   Code   RO         1909    i.KeyProc           key.o
    0x08000c6c   0x00000058   Code   RO         1964    i.LcdReset          display.o
    0x08000cc4   0x00000028   Code   RO         1070    i.MCL_Chk_BusVolt   mc_motorcontrol_layer.o
    0x08000cec   0x00000030   Code   RO         1071    i.MCL_Chk_OverTemp  mc_motorcontrol_layer.o
    0x08000d1c   0x000000a0   Code   RO         1072    i.MCL_ClearFault    mc_motorcontrol_layer.o
    0x08000dbc   0x0000000c   Code   RO         1075    i.MCL_Get_BusVolt   mc_motorcontrol_layer.o
    0x08000dc8   0x00000054   Code   RO         1076    i.MCL_Init          mc_motorcontrol_layer.o
    0x08000e1c   0x00000014   Code   RO         1077    i.MCL_Init_Arrays   mc_motorcontrol_layer.o
    0x08000e30   0x0000001c   Code   RO         1078    i.MCL_Reset_PID_IntegralTerms  mc_motorcontrol_layer.o
    0x08000e4c   0x00000044   Code   RO         1079    i.MCL_SetFault      mc_motorcontrol_layer.o
    0x08000e90   0x00000002   Code   RO           44    i.MemManageException  stm32f10x_it.o
    0x08000e92   0x00000002   Code   RO           45    i.NMIException      stm32f10x_it.o
    0x08000e94   0x0000000a   Code   RO          583    i.NVIC_Configuration  main.o
    0x08000e9e   0x00000002   PAD
    0x08000ea0   0x0000007c   Code   RO         3065    i.NVIC_Init         stm32f10x_nvic.o
    0x08000f1c   0x00000014   Code   RO         3066    i.NVIC_PriorityGroupConfig  stm32f10x_nvic.o
    0x08000f30   0x00000014   Code   RO         3074    i.NVIC_SetVectorTable  stm32f10x_nvic.o
    0x08000f44   0x0000000c   Code   RO         3075    i.NVIC_StructInit   stm32f10x_nvic.o
    0x08000f50   0x00000050   Code   RO         3077    i.NVIC_SystemHandlerPriorityConfig  stm32f10x_nvic.o
    0x08000fa0   0x0000008c   Code   RO         1965    i.NumToArray        display.o
    0x0800102c   0x000000c8   Code   RO         1176    i.PID_Init          mc_pid_regulators.o
    0x080010f4   0x0000006c   Code   RO         1177    i.PID_Regulator     mc_pid_regulators.o
    0x08001160   0x00000002   Code   RO           46    i.PVD_IRQHandler    stm32f10x_it.o
    0x08001162   0x00000002   PAD
    0x08001164   0x00000068   Code   RO          909    i.Park              mc_clarke_park.o
    0x080011cc   0x00000002   Code   RO           47    i.PendSVC           stm32f10x_it.o
    0x080011ce   0x00000002   PAD
    0x080011d0   0x00000010   Code   RO         1910    i.ProcDownKey       key.o
    0x080011e0   0x0000002c   Code   RO         1911    i.ProcFunKey        key.o
    0x0800120c   0x00000010   Code   RO         1912    i.ProcLeftKey       key.o
    0x0800121c   0x00000010   Code   RO         1913    i.ProcRightKey      key.o
    0x0800122c   0x00000010   Code   RO         1915    i.ProcUpKey         key.o
    0x0800123c   0x00000014   Code   RO         3298    i.RCC_ADCCLKConfig  stm32f10x_rcc.o
    0x08001250   0x00000018   Code   RO         3299    i.RCC_AHBPeriphClockCmd  stm32f10x_rcc.o
    0x08001268   0x00000018   Code   RO         3300    i.RCC_APB1PeriphClockCmd  stm32f10x_rcc.o
    0x08001280   0x00000018   Code   RO         3301    i.RCC_APB1PeriphResetCmd  stm32f10x_rcc.o
    0x08001298   0x00000018   Code   RO         3302    i.RCC_APB2PeriphClockCmd  stm32f10x_rcc.o
    0x080012b0   0x00000018   Code   RO         3303    i.RCC_APB2PeriphResetCmd  stm32f10x_rcc.o
    0x080012c8   0x00000060   Code   RO          584    i.RCC_Configuration  main.o
    0x08001328   0x0000003c   Code   RO         3309    i.RCC_DeInit        stm32f10x_rcc.o
    0x08001364   0x00000030   Code   RO         3311    i.RCC_GetFlagStatus  stm32f10x_rcc.o
    0x08001394   0x00000010   Code   RO         3313    i.RCC_GetSYSCLKSource  stm32f10x_rcc.o
    0x080013a4   0x00000014   Code   RO         3314    i.RCC_HCLKConfig    stm32f10x_rcc.o
    0x080013b8   0x00000034   Code   RO         3315    i.RCC_HSEConfig     stm32f10x_rcc.o
    0x080013ec   0x00000002   Code   RO           48    i.RCC_IRQHandler    stm32f10x_it.o
    0x080013ee   0x00000002   PAD
    0x080013f0   0x00000014   Code   RO         3321    i.RCC_PCLK1Config   stm32f10x_rcc.o
    0x08001404   0x00000014   Code   RO         3322    i.RCC_PCLK2Config   stm32f10x_rcc.o
    0x08001418   0x0000000c   Code   RO         3323    i.RCC_PLLCmd        stm32f10x_rcc.o
    0x08001424   0x00000014   Code   RO         3324    i.RCC_PLLConfig     stm32f10x_rcc.o
    0x08001438   0x00000014   Code   RO         3327    i.RCC_SYSCLKConfig  stm32f10x_rcc.o
    0x0800144c   0x00000034   Code   RO         3329    i.RCC_WaitForHSEStartUp  stm32f10x_rcc.o
    0x08001480   0x00000002   Code   RO           49    i.RTCAlarm_IRQHandler  stm32f10x_it.o
    0x08001482   0x00000002   Code   RO           50    i.RTC_IRQHandler    stm32f10x_it.o
    0x08001484   0x00000054   Code   RO          910    i.RevPark_Circle_Limitation  mc_clarke_park.o
    0x080014d8   0x00000058   Code   RO          911    i.Rev_Park          mc_clarke_park.o
    0x08001530   0x00000002   Code   RO           51    i.SDIO_IRQHandler   stm32f10x_it.o
    0x08001532   0x00000002   Code   RO           52    i.SPI1_IRQHandler   stm32f10x_it.o
    0x08001534   0x00000002   Code   RO           53    i.SPI2_IRQHandler   stm32f10x_it.o
    0x08001536   0x00000002   Code   RO           54    i.SPI3_IRQHandler   stm32f10x_it.o
    0x08001538   0x00000200   Code   RO         4637    i.STO_Calc_Rotor_Angle  MC_State_Observer_lib.lib(mc_state_observer.o)
    0x08001738   0x00000090   Code   RO         4638    i.STO_Calc_Speed    MC_State_Observer_lib.lib(mc_state_observer.o)
    0x080017c8   0x0000002c   Code   RO         1201    i.STO_Check_Speed_Reliability  mc_state_observer_interface.o
    0x080017f4   0x0000003c   Code   RO         4644    i.STO_Gains_Init    MC_State_Observer_lib.lib(mc_state_observer.o)
    0x08001830   0x0000000c   Code   RO         4641    i.STO_Get_Electrical_Angle  MC_State_Observer_lib.lib(mc_state_observer.o)
    0x0800183c   0x0000000c   Code   RO         4640    i.STO_Get_Speed     MC_State_Observer_lib.lib(mc_state_observer.o)
    0x08001848   0x00000018   Code   RO         1203    i.STO_Get_Speed_Hz  mc_state_observer_interface.o
    0x08001860   0x00000030   Code   RO         4643    i.STO_Init          MC_State_Observer_lib.lib(mc_state_observer.o)
    0x08001890   0x0000001c   Code   RO         4642    i.STO_InitSpeedBuffer  MC_State_Observer_lib.lib(mc_state_observer.o)
    0x080018ac   0x0000000c   Code   RO         4639    i.STO_IsSpeed_Reliable  MC_State_Observer_lib.lib(mc_state_observer.o)
    0x080018b8   0x00000014   Code   RO         1204    i.STO_StartUp_Init  mc_state_observer_interface.o
    0x080018cc   0x0000022c   Code   RO         1205    i.STO_Start_Up      mc_state_observer_interface.o
    0x08001af8   0x000000a4   Code   RO         1206    i.STO_StateObserverInterface_Init  mc_state_observer_interface.o
    0x08001b9c   0x00000002   Code   RO           55    i.SVCHandler        stm32f10x_it.o
    0x08001b9e   0x00000002   PAD
    0x08001ba0   0x00000050   Code   RO         1587    i.SVPWMEOCEvent     stm32f10x_svpwm_3shunt.o
    0x08001bf0   0x0000001c   Code   RO         1588    i.SVPWMUpdateEvent  stm32f10x_svpwm_3shunt.o
    0x08001c0c   0x0000004c   Code   RO         1589    i.SVPWM_3ShuntAdvCurrentReading  stm32f10x_svpwm_3shunt.o
    0x08001c58   0x00000360   Code   RO         1590    i.SVPWM_3ShuntCalcDutyCycles  stm32f10x_svpwm_3shunt.o
    0x08001fb8   0x0000011c   Code   RO         1591    i.SVPWM_3ShuntCurrentReadingCalibration  stm32f10x_svpwm_3shunt.o
    0x080020d4   0x00000118   Code   RO         1592    i.SVPWM_3ShuntGetPhaseCurrentValues  stm32f10x_svpwm_3shunt.o
    0x080021ec   0x00000330   Code   RO         1593    i.SVPWM_3ShuntInit  stm32f10x_svpwm_3shunt.o
    0x0800251c   0x00000054   Code   RO         1966    i.SetXY             display.o
    0x08002570   0x00000070   Code   RO         1967    i.ShowBlank         display.o
    0x080025e0   0x00000074   Code   RO         1968    i.ShowChar          display.o
    0x08002654   0x00000012   Code   RO         1969    i.ShowDispBuf       display.o
    0x08002666   0x00000002   PAD
    0x08002668   0x00000414   Code   RO         1970    i.ShowMenuMain      display.o
    0x08002a7c   0x0000059c   Code   RO         1971    i.ShowNum           display.o
    0x08003018   0x00000094   Code   RO         4635    i.Speed_PI          MC_State_Observer_lib.lib(mc_state_observer.o)
    0x080030ac   0x0000010c   Code   RO         1461    i.SysTickHandler    stm32f10x_timebase.o
    0x080031b8   0x00000018   Code   RO         3738    i.SysTick_CLKSourceConfig  stm32f10x_systick.o
    0x080031d0   0x00000024   Code   RO         3739    i.SysTick_CounterCmd  stm32f10x_systick.o
    0x080031f4   0x00000018   Code   RO         3742    i.SysTick_ITConfig  stm32f10x_systick.o
    0x0800320c   0x00000008   Code   RO         3743    i.SysTick_SetReload  stm32f10x_systick.o
    0x08003214   0x00000002   Code   RO           56    i.TAMPER_IRQHandler  stm32f10x_it.o
    0x08003216   0x00000002   PAD
    0x08003218   0x00000014   Code   RO         1463    i.TB_Delay_IsElapsed  stm32f10x_timebase.o
    0x0800322c   0x00000030   Code   RO         1465    i.TB_Init           stm32f10x_timebase.o
    0x0800325c   0x0000000c   Code   RO         1467    i.TB_Set_Delay_500us  stm32f10x_timebase.o
    0x08003268   0x00000014   Code   RO         1469    i.TB_Set_StartUp_Timeout  stm32f10x_timebase.o
    0x0800327c   0x00000014   Code   RO         1470    i.TB_StartUp_Timeout_IsElapsed  stm32f10x_timebase.o
    0x08003290   0x0000001c   Code   RO           57    i.TIM1_BRK_IRQHandler  stm32f10x_it.o
    0x080032ac   0x00000002   Code   RO           58    i.TIM1_CC_IRQHandler  stm32f10x_it.o
    0x080032ae   0x00000002   Code   RO           59    i.TIM1_TRG_COM_IRQHandler  stm32f10x_it.o
    0x080032b0   0x00000018   Code   RO           60    i.TIM1_UP_IRQHandler  stm32f10x_it.o
    0x080032c8   0x00000002   Code   RO           61    i.TIM2_IRQHandler   stm32f10x_it.o
    0x080032ca   0x00000002   Code   RO           62    i.TIM3_IRQHandler   stm32f10x_it.o
    0x080032cc   0x00000002   Code   RO           63    i.TIM4_IRQHandler   stm32f10x_it.o
    0x080032ce   0x00000002   Code   RO           64    i.TIM5_IRQHandler   stm32f10x_it.o
    0x080032d0   0x00000002   Code   RO           65    i.TIM6_IRQHandler   stm32f10x_it.o
    0x080032d2   0x00000002   Code   RO           66    i.TIM7_IRQHandler   stm32f10x_it.o
    0x080032d4   0x00000002   Code   RO           67    i.TIM8_BRK_IRQHandler  stm32f10x_it.o
    0x080032d6   0x00000002   Code   RO           68    i.TIM8_CC_IRQHandler  stm32f10x_it.o
    0x080032d8   0x00000002   Code   RO           69    i.TIM8_TRG_COM_IRQHandler  stm32f10x_it.o
    0x080032da   0x00000002   Code   RO           70    i.TIM8_UP_IRQHandler  stm32f10x_it.o
    0x080032dc   0x00000022   Code   RO         3783    i.TIM_BDTRConfig    stm32f10x_tim.o
    0x080032fe   0x00000006   Code   RO         3788    i.TIM_ClearFlag     stm32f10x_tim.o
    0x08003304   0x00000006   Code   RO         3789    i.TIM_ClearITPendingBit  stm32f10x_tim.o
    0x0800330a   0x00000016   Code   RO         3794    i.TIM_Cmd           stm32f10x_tim.o
    0x08003320   0x00000016   Code   RO         3796    i.TIM_CtrlPWMOutputs  stm32f10x_tim.o
    0x08003336   0x00000002   PAD
    0x08003338   0x000000b4   Code   RO         3799    i.TIM_DeInit        stm32f10x_tim.o
    0x080033ec   0x00000004   Code   RO         3808    i.TIM_GenerateEvent  stm32f10x_tim.o
    0x080033f0   0x00000010   Code   RO         3819    i.TIM_ITConfig      stm32f10x_tim.o
    0x08003400   0x00000060   Code   RO         3823    i.TIM_OC1Init       stm32f10x_tim.o
    0x08003460   0x0000000c   Code   RO         3826    i.TIM_OC1PreloadConfig  stm32f10x_tim.o
    0x0800346c   0x00000080   Code   RO         3828    i.TIM_OC2Init       stm32f10x_tim.o
    0x080034ec   0x00000014   Code   RO         3831    i.TIM_OC2PreloadConfig  stm32f10x_tim.o
    0x08003500   0x0000007c   Code   RO         3833    i.TIM_OC3Init       stm32f10x_tim.o
    0x0800357c   0x0000000c   Code   RO         3836    i.TIM_OC3PreloadConfig  stm32f10x_tim.o
    0x08003588   0x00000064   Code   RO         3838    i.TIM_OC4Init       stm32f10x_tim.o
    0x080035ec   0x00000014   Code   RO         3840    i.TIM_OC4PreloadConfig  stm32f10x_tim.o
    0x08003600   0x00000014   Code   RO         3841    i.TIM_OCStructInit  stm32f10x_tim.o
    0x08003614   0x00000010   Code   RO         3851    i.TIM_SelectOutputTrigger  stm32f10x_tim.o
    0x08003624   0x0000003c   Code   RO         3865    i.TIM_TimeBaseInit  stm32f10x_tim.o
    0x08003660   0x00000012   Code   RO         3866    i.TIM_TimeBaseStructInit  stm32f10x_tim.o
    0x08003672   0x00000002   PAD
    0x08003674   0x0000006c   Code   RO         1973    i.Timeproc          display.o
    0x080036e0   0x00000078   Code   RO          912    i.Trig_Functions    mc_clarke_park.o
    0x08003758   0x00000002   Code   RO           71    i.UART4_IRQHandler  stm32f10x_it.o
    0x0800375a   0x00000002   Code   RO           72    i.UART5_IRQHandler  stm32f10x_it.o
    0x0800375c   0x00000002   Code   RO           73    i.USART1_IRQHandler  stm32f10x_it.o
    0x0800375e   0x00000002   Code   RO           74    i.USART2_IRQHandler  stm32f10x_it.o
    0x08003760   0x00000002   Code   RO           75    i.USART3_IRQHandler  stm32f10x_it.o
    0x08003762   0x00000002   Code   RO           76    i.USBWakeUp_IRQHandler  stm32f10x_it.o
    0x08003764   0x00000002   Code   RO           77    i.USB_HP_CAN_TX_IRQHandler  stm32f10x_it.o
    0x08003766   0x00000002   Code   RO           78    i.USB_LP_CAN_RX0_IRQHandler  stm32f10x_it.o
    0x08003768   0x00000002   Code   RO           79    i.UsageFaultException  stm32f10x_it.o
    0x0800376a   0x00000002   Code   RO           80    i.WWDG_IRQHandler   stm32f10x_it.o
    0x0800376c   0x00000274   Code   RO         1974    i.WriteCommandLCD   display.o
    0x080039e0   0x00000274   Code   RO         1975    i.WriteDataLCD      display.o
    0x08003c54   0x0000000e   Code   RO         4710    i.__scatterload_copy  mc_w.l(handlers.o)
    0x08003c62   0x00000002   Code   RO         4711    i.__scatterload_null  mc_w.l(handlers.o)
    0x08003c64   0x0000000e   Code   RO         4712    i.__scatterload_zeroinit  mc_w.l(handlers.o)
    0x08003c72   0x00000002   PAD
    0x08003c74   0x00000108   Code   RO          585    i.main              main.o
    0x08003d7c   0x00000005   Data   RO          594    .constdata          main.o
    0x08003d81   0x00000005   Data   RO          595    .constdata          main.o
    0x08003d86   0x00000005   Data   RO          596    .constdata          main.o
    0x08003d8b   0x00000005   Data   RO          597    .constdata          main.o
    0x08003d90   0x00000005   Data   RO          598    .constdata          main.o
    0x08003d95   0x00000005   Data   RO          601    .constdata          main.o
    0x08003d9a   0x00000005   Data   RO          604    .constdata          main.o
    0x08003d9f   0x00000005   Data   RO          605    .constdata          main.o
    0x08003da4   0x00000005   Data   RO          607    .constdata          main.o
    0x08003da9   0x00000005   Data   RO          608    .constdata          main.o
    0x08003dae   0x00000005   Data   RO          609    .constdata          main.o
    0x08003db3   0x00000005   Data   RO          610    .constdata          main.o
    0x08003db8   0x00000005   Data   RO          611    .constdata          main.o
    0x08003dbd   0x00000005   Data   RO          612    .constdata          main.o
    0x08003dc2   0x00000005   Data   RO          613    .constdata          main.o
    0x08003dc7   0x00000005   Data   RO          614    .constdata          main.o
    0x08003dcc   0x00000005   Data   RO          615    .constdata          main.o
    0x08003dd1   0x00000005   Data   RO          620    .constdata          main.o
    0x08003dd6   0x00000005   Data   RO          624    .constdata          main.o
    0x08003ddb   0x00000005   Data   RO          625    .constdata          main.o
    0x08003de0   0x00000005   Data   RO          631    .constdata          main.o
    0x08003de5   0x00000005   Data   RO          634    .constdata          main.o
    0x08003dea   0x00000005   Data   RO          639    .constdata          main.o
    0x08003def   0x00000003   Data   RO          654    .constdata          main.o
    0x08003df2   0x00000002   Data   RO          655    .constdata          main.o
    0x08003df4   0x00000005   Data   RO          658    .constdata          main.o
    0x08003df9   0x00000032   Data   RO          672    .constdata          main.o
    0x08003e2b   0x00000001   PAD
    0x08003e2c   0x00000286   Data   RO          913    .constdata          mc_clarke_park.o
    0x080040b2   0x00000002   PAD
    0x080040b4   0x00000020   Data   RO         4708    Region$$Table       anon$$obj.o


    Execution Region RW_IRAM1 (Base: 0x20000000, Size: 0x000009b8, Max: 0x00005000, ABSOLUTE)

    Base Addr    Size         Type   Attr      Idx    E Section Name        Object

    0x20000000   0x00000002   Data   RW          677    .data               main.o
    0x20000002   0x00000001   Data   RW          682    .data               main.o
    0x20000003   0x00000001   Data   RW          683    .data               main.o
    0x20000004   0x00000001   Data   RW          684    .data               main.o
    0x20000005   0x00000001   Data   RW          685    .data               main.o
    0x20000006   0x00000001   Data   RW          686    .data               main.o
    0x20000007   0x00000001   Data   RW          687    .data               main.o
    0x20000008   0x00000001   Data   RW          688    .data               main.o
    0x20000009   0x00000001   PAD
    0x2000000a   0x00000002   Data   RW          692    .data               main.o
    0x2000000c   0x00000001   Data   RW          693    .data               main.o
    0x2000000d   0x00000001   Data   RW          696    .data               main.o
    0x2000000e   0x00000001   Data   RW          739    .data               main.o
    0x2000000f   0x00000001   Data   RW          741    .data               main.o
    0x20000010   0x00000001   Data   RW          743    .data               main.o
    0x20000011   0x00000001   Data   RW          744    .data               main.o
    0x20000012   0x00000004   Data   RW          914    .data               mc_clarke_park.o
    0x20000016   0x00000008   Data   RW         1040    .data               mc_foc_drive.o
    0x2000001e   0x00000002   PAD
    0x20000020   0x0000000c   Data   RW         1080    .data               mc_motorcontrol_layer.o
    0x2000002c   0x00000004   Data   RW         1154    .data               mc_globals.o
    0x20000030   0x00000004   Data   RW         1155    .data               mc_globals.o
    0x20000034   0x00000004   Data   RW         1156    .data               mc_globals.o
    0x20000038   0x00000004   Data   RW         1157    .data               mc_globals.o
    0x2000003c   0x00000004   Data   RW         1159    .data               mc_globals.o
    0x20000040   0x00000004   Data   RW         1160    .data               mc_globals.o
    0x20000044   0x00000001   Data   RW         1161    .data               mc_globals.o
    0x20000045   0x00000001   PAD
    0x20000046   0x00000002   Data   RW         1162    .data               mc_globals.o
    0x20000048   0x00000002   Data   RW         1163    .data               mc_globals.o
    0x2000004a   0x00000002   Data   RW         1164    .data               mc_globals.o
    0x2000004c   0x0000001c   Data   RW         1207    .data               mc_state_observer_interface.o
    0x20000068   0x00000004   Data   RW         1253    .data               mc_keys.o
    0x2000006c   0x0000000c   Data   RW         1472    .data               stm32f10x_timebase.o
    0x20000078   0x0000000a   Data   RW         1595    .data               stm32f10x_svpwm_3shunt.o
    0x20000082   0x00000002   PAD
    0x20000084   0x00000008   Data   RW         3331    .data               stm32f10x_rcc.o
    0x2000008c   0x0000003c   Data   RW         4650    .data               MC_State_Observer_lib.lib(mc_state_observer.o)
    0x200000c8   0x0000000a   Zero   RW          586    .bss                main.o
    0x200000d2   0x00000400   Zero   RW          588    .bss                main.o
    0x200004d2   0x00000002   PAD
    0x200004d4   0x00000020   Zero   RW         1151    .bss                mc_globals.o
    0x200004f4   0x00000020   Zero   RW         1152    .bss                mc_globals.o
    0x20000514   0x00000020   Zero   RW         1153    .bss                mc_globals.o
    0x20000534   0x00000080   Zero   RW         4651    .bss                MC_State_Observer_lib.lib(mc_state_observer.o)
    0x200005b4   0x00000004   PAD
    0x200005b8   0x00000400   Zero   RW            1    STACK               stm32f10x_vector.o


==============================================================================

Image component sizes


      Code (inc. data)   RO Data    RW Data    ZI Data      Debug   Object Name

      4604        286          0          0          0      11032   display.o
       348         62          0          0          0       3763   key.o
       614         68        175         17       1034      76353   main.o
       446         28        646          4          0       6008   mc_clarke_park.o
       264         68          0          8          0       3164   mc_foc_drive.o
         0          0          0         31         96       1465   mc_globals.o
       140         16          0          4          0       1512   mc_keys.o
       460         76          0         12          0       6277   mc_motorcontrol_layer.o
       308         22          0          0          0       2199   mc_pid_regulators.o
       936         96          0         28          0       6009   mc_state_observer_interface.o
       410         14          0          0          0      20769   stm32f10x_adc.o
        48         12          0          0          0       1181   stm32f10x_flash.o
       260          6          0          0          0      10807   stm32f10x_gpio.o
       282         26          0          0          0      37163   stm32f10x_it.o
       256         30          0          0          0      11626   stm32f10x_nvic.o
       480        102          0          8          0      20831   stm32f10x_rcc.o
      2428        152          0         10          0       9912   stm32f10x_svpwm_3shunt.o
        92          0          0          0          0       2426   stm32f10x_systick.o
       916         54          0          0          0      38560   stm32f10x_tim.o
       388         68          0         12          0       4918   stm32f10x_timebase.o
         8          4        304          0       1024        436   stm32f10x_vector.o

    ----------------------------------------------------------------------
     13716       1190       1160        140       2156     276411   Object Totals
         0          0         32          0          0          0   (incl. Generated)
        28          0          3          6          2          0   (incl. Padding)

    ----------------------------------------------------------------------

      Code (inc. data)   RO Data    RW Data    ZI Data      Debug   Library Member Name

       976         66          0         60        128        662   mc_state_observer.o
         0          0          0          0          0          0   entry.o
         0          0          0          0          0          0   entry10a.o
         0          0          0          0          0          0   entry11a.o
         8          4          0          0          0          0   entry2.o
         4          0          0          0          0          0   entry5.o
         0          0          0          0          0          0   entry7b.o
         0          0          0          0          0          0   entry8b.o
         8          4          0          0          0          0   entry9a.o
        30          0          0          0          0          0   handlers.o
        36          8          0          0          0         68   init.o
         0          0          0          0          0          0   iusefp.o
        30          0          0          0          0         68   llshl.o
        32          0          0          0          0         68   llushr.o
        36          0          0          0          0        108   memseta.o
       186          0          0          0          0        176   depilogue.o
        62          0          0          0          0         80   dfixi.o
        34          0          0          0          0         76   dflti.o
       228          0          0          0          0         96   dmul.o
        46          0          0          0          0         80   dscalb.o

    ----------------------------------------------------------------------
      1720         82          0         60        132       1482   Library Totals
         4          0          0          0          4          0   (incl. Padding)

    ----------------------------------------------------------------------

      Code (inc. data)   RO Data    RW Data    ZI Data      Debug   Library Name

       976         66          0         60        128        662   MC_State_Observer_lib.lib
       184         16          0          0          0        312   mc_w.l
       556          0          0          0          0        508   mf_w.l

    ----------------------------------------------------------------------
      1720         82          0         60        132       1482   Library Totals

    ----------------------------------------------------------------------

==============================================================================


      Code (inc. data)   RO Data    RW Data    ZI Data      Debug   

     15436       1272       1160        200       2288     267137   Grand Totals
     15436       1272       1160        200       2288     267137   ELF Image Totals
     15436       1272       1160        200          0          0   ROM Totals

==============================================================================

    Total RO  Size (Code + RO Data)                16596 (  16.21kB)
    Total RW  Size (RW Data + ZI Data)              2488 (   2.43kB)
    Total ROM Size (Code + RO Data + RW Data)      16796 (  16.40kB)

==============================================================================

