Component: ARM Compiler 5.05 update 1 (build 106) Tool: armlink [4d0efa]

==============================================================================

Section Cross References

    main.o(i.Adjust_Speed) refers to bldc.o(i.BLDC_Stop) for BLDC_Stop
    main.o(i.Adjust_Speed) refers to pid.o(i.Speed_PIDAdjust) for Speed_PIDAdjust
    main.o(i.Adjust_Speed) refers to dflt_clz.o(x$fpl$dfltu) for __aeabi_ui2d
    main.o(i.Adjust_Speed) refers to ddiv.o(x$fpl$ddiv) for __aeabi_ddiv
    main.o(i.Adjust_Speed) refers to d2f.o(x$fpl$d2f) for __aeabi_d2f
    main.o(i.Adjust_Speed) refers to frleqf.o(x$fpl$frleqf) for __aeabi_cfrcmple
    main.o(i.Adjust_Speed) refers to fleqf.o(x$fpl$fleqf) for __aeabi_cfcmple
    main.o(i.Adjust_Speed) refers to bldc.o(i.BLDC_Start1) for BLDC_Start1
    main.o(i.Adjust_Speed) refers to main.o(.data) for frequent_1
    main.o(i.Adjust_Speed) refers to main.o(.bss) for Main_pid
    main.o(i.Adjust_Speed) refers to exti.o(.data) for Exti_speed_1
    main.o(i.FRAME_INIT) refers to lcd.o(i.LCD_Clear) for LCD_Clear
    main.o(i.FRAME_INIT) refers to lcd.o(i.LCD_DrawLine) for LCD_DrawLine
    main.o(i.FRAME_INIT) refers to lcd.o(i.LCD_ShowString) for LCD_ShowString
    main.o(i.FRAME_INIT) refers to lcd.o(.data) for POINT_COLOR
    main.o(i.FRAME_INIT1) refers to lcd.o(i.LCD_Clear) for LCD_Clear
    main.o(i.FRAME_INIT1) refers to lcd.o(i.LCD_DrawLine) for LCD_DrawLine
    main.o(i.FRAME_INIT1) refers to lcd.o(i.LCD_ShowString) for LCD_ShowString
==============================================================================

Removing Unused input sections from the image.

    Removing core_cm3.o(.emb_text), (32 bytes).
    Removing system_stm32f10x.o(i.SystemCoreClockUpdate), (164 bytes).
    Removing misc.o(i.NVIC_SetVectorTable), (20 bytes).
    Removing misc.o(i.NVIC_SystemLPConfig), (32 bytes).
    Removing stm32f10x_adc.o(i.ADC_AnalogWatchdogCmd), (20 bytes).
    Removing stm32f10x_adc.o(i.ADC_AnalogWatchdogSingleChannelConfig), (16 bytes).
    Removing stm32f10x_adc.o(i.ADC_AnalogWatchdogThresholdsConfig), (6 bytes).
    Removing stm32f10x_adc.o(i.ADC_AutoInjectedConvCmd), (22 bytes).
    Removing stm32f10x_adc.o(i.ADC_ClearFlag), (6 bytes).
    Removing stm32f10x_adc.o(i.ADC_ClearITPendingBit), (10 bytes).
    Removing stm32f10x_adc.o(i.ADC_DiscModeChannelCountConfig), (24 bytes).
    Removing stm32f10x_adc.o(i.ADC_DiscModeCmd), (22 bytes).
    Removing stm32f10x_adc.o(i.ADC_ExternalTrigConvCmd), (22 bytes).
    Removing stm32f10x_adc.o(i.ADC_ExternalTrigInjectedConvCmd), (22 bytes).
    Removing stm32f10x_adc.o(i.ADC_ExternalTrigInjectedConvConfig), (16 bytes).
    Removing stm32f10x_adc.o(i.ADC_GetConversionValue), (8 bytes).
    Removing stm32f10x_adc.o(i.ADC_GetDualModeConversionValue), (12 bytes).
    Removing stm32f10x_adc.o(i.ADC_GetITStatus), (36 bytes).
==============================================================================

Image Symbol Table

    Local Symbols

    Symbol Name                              Value     Ov Type        Size  Object(Section)

    ../clib/angel/boardlib.s                 0x00000000   Number         0  boardinit1.o ABSOLUTE
    ../clib/angel/boardlib.s                 0x00000000   Number         0  boardshut.o ABSOLUTE
    ../clib/angel/boardlib.s                 0x00000000   Number         0  boardinit2.o ABSOLUTE
    ../clib/angel/boardlib.s                 0x00000000   Number         0  boardinit3.o ABSOLUTE
    ../clib/angel/handlers.s                 0x00000000   Number         0  __scatter_zi.o ABSOLUTE
    ../clib/angel/handlers.s                 0x00000000   Number         0  __scatter_copy.o ABSOLUTE
    ../clib/angel/kernel.s                   0x00000000   Number         0  __rtentry.o ABSOLUTE
    ../clib/angel/kernel.s                   0x00000000   Number         0  rtexit2.o ABSOLUTE
    ../clib/angel/kernel.s                   0x00000000   Number         0  rtexit.o ABSOLUTE
    ../clib/angel/kernel.s                   0x00000000   Number         0  __rtentry2.o ABSOLUTE
    ../clib/angel/kernel.s                   0x00000000   Number         0  __rtentry4.o ABSOLUTE
    ../clib/angel/rt.s                       0x00000000   Number         0  rt_locale_intlibspace.o ABSOLUTE
    ../clib/angel/rt.s                       0x00000000   Number         0  rt_raise.o ABSOLUTE
    ../clib/angel/rt.s                       0x00000000   Number         0  rt_locale.o ABSOLUTE
    ../clib/angel/rt.s                       0x00000000   Number         0  rt_ctype_table.o ABSOLUTE
    ../clib/angel/scatter.s                  0x00000000   Number         0  __scatter.o ABSOLUTE
    ../clib/angel/startup.s                  0x00000000   Number         0  __main.o ABSOLUTE
    ../clib/angel/sys.s                      0x00000000   Number         0  use_no_semi.o ABSOLUTE
    ../clib/angel/sys.s                      0x00000000   Number         0  libspace.o ABSOLUTE
    ../clib/angel/sys.s                      0x00000000   Number         0  indicate_semi.o ABSOLUTE
    ../clib/angel/sys.s                      0x00000000   Number         0  sys_stackheap_outer.o ABSOLUTE
    ../clib/angel/sysapp.c                   0x00000000   Number         0  sys_exit.o ABSOLUTE
    ../clib/angel/sysapp.c                   0x00000000   Number         0  sys_command.o ABSOLUTE
    ../clib/angel/sysapp.c                   0x00000000   Number         0  sys_wrch.o ABSOLUTE
    ../clib/armsys.c                         0x00000000   Number         0  argv_veneer.o ABSOLUTE
    ../clib/armsys.c                         0x00000000   Number         0  _get_argv_nomalloc.o ABSOLUTE
    ../clib/armsys.c                         0x00000000   Number         0  argv_veneer.o ABSOLUTE
    ../clib/armsys.c                         0x00000000   Number         0  no_argv.o ABSOLUTE
    ../clib/bigflt.c                         0x00000000   Number         0  bigflt0.o ABSOLUTE
    ../clib/btod.s                           0x00000000   Number         0  btod.o ABSOLUTE
    ../clib/heapalloc.c                      0x00000000   Number         0  hrguard.o ABSOLUTE
    ../clib/heapaux.c                        0x00000000   Number         0  heapauxi.o ABSOLUTE
    ../clib/libinit.s                        0x00000000   Number         0  libshutdown2.o ABSOLUTE
    ../clib/libinit.s                        0x00000000   Number         0  libinit.o ABSOLUTE
    ../clib/libinit.s                        0x00000000   Number         0  libshutdown.o ABSOLUTE
    ../clib/libinit.s                        0x00000000   Number         0  libinit2.o ABSOLUTE
    ../clib/locale.c                         0x00000000   Number         0  _wcrtomb.o ABSOLUTE
    ../clib/locale.s                         0x00000000   Number         0  lc_ctype_c.o ABSOLUTE
    ../clib/locale.s                         0x00000000   Number         0  lc_numeric_c.o ABSOLUTE
    ../clib/longlong.s                       0x00000000   Number         0  lludiv10.o ABSOLUTE
    ../clib/memcpset.s                       0x00000000   Number         0  strcmpv7m.o ABSOLUTE
    ../clib/misc.s                           0x00000000   Number         0  printf_stubs.o ABSOLUTE
    ../clib/printf.c                         0x00000000   Number         0  __printf_ss.o ABSOLUTE
    ../clib/printf.c                         0x00000000   Number         0  __printf_flags.o ABSOLUTE
    ../clib/printf.c                         0x00000000   Number         0  _printf_hex_int.o ABSOLUTE
    ../clib/printf.c                         0x00000000   Number         0  _printf_dec.o ABSOLUTE
    ../clib/printf.c                         0x00000000   Number         0  __printf.o ABSOLUTE
    ../clib/printf.c                         0x00000000   Number         0  _printf_hex_int_ll.o ABSOLUTE
    ../clib/printf.c                         0x00000000   Number         0  _printf_wchar.o ABSOLUTE
    ../clib/printf.c                         0x00000000   Number         0  noretval__2sprintf.o ABSOLUTE
    ../clib/printf.c                         0x00000000   Number         0  __2sprintf.o ABSOLUTE
    ../clib/printf.c                         0x00000000   Number         0  c89vsnprintf.o ABSOLUTE
    ../clib/printf.c                         0x00000000   Number         0  _printf_hex_ptr.o ABSOLUTE
    ../clib/printf.c                         0x00000000   Number         0  _printf_hex_int_ptr.o ABSOLUTE
    ../clib/printf.c                         0x00000000   Number         0  _printf_hex_int_ll_ptr.o ABSOLUTE
    ../clib/printf.c                         0x00000000   Number         0  _printf_oct_ll.o ABSOLUTE
    ../clib/printf.c                         0x00000000   Number         0  _printf_char.o ABSOLUTE
    ../clib/printf.c                         0x00000000   Number         0  __printf_nopercent.o ABSOLUTE
    ../clib/printf.c                         0x00000000   Number         0  _printf_fp_infnan.o ABSOLUTE
    ../clib/printf.c                         0x00000000   Number         0  _printf_pad.o ABSOLUTE
    ../clib/printf.c                         0x00000000   Number         0  _printf_truncate.o ABSOLUTE
    ../clib/printf.c                         0x00000000   Number         0  _printf_str.o ABSOLUTE
    ../clib/printf.c                         0x00000000   Number         0  _printf_intcommon.o ABSOLUTE
    ../clib/printf.c                         0x00000000   Number         0  _printf_charcount.o ABSOLUTE
    ../clib/printf.c                         0x00000000   Number         0  _printf_fp_dec.o ABSOLUTE
    ../clib/printf.c                         0x00000000   Number         0  _printf_char_common.o ABSOLUTE
    ../clib/printf.c                         0x00000000   Number         0  _printf_hex_ll_ptr.o ABSOLUTE
    ../clib/printf.c                         0x00000000   Number         0  _sputc.o ABSOLUTE
    ../clib/printf.c                         0x00000000   Number         0  __printf_flags_ss_wp.o ABSOLUTE
    ../clib/printf.c                         0x00000000   Number         0  __printf_ss_wp.o ABSOLUTE
    ../clib/printf.c                         0x00000000   Number         0  __printf_flags_wp.o ABSOLUTE
    ../clib/printf.c                         0x00000000   Number         0  __printf_wp.o ABSOLUTE
    ../clib/printf.c                         0x00000000   Number         0  _snputc.o ABSOLUTE
    ../clib/printf.c                         0x00000000   Number         0  _printf_wctomb.o ABSOLUTE
    ../clib/printf.c                         0x00000000   Number         0  _printf_longlong_dec.o ABSOLUTE
    ../clib/printf.c                         0x00000000   Number         0  _printf_oct_int.o ABSOLUTE
    ../clib/printf.c                         0x00000000   Number         0  _printf_oct_int_ll.o ABSOLUTE
    ../clib/printf.c                         0x00000000   Number         0  _printf_hex_ll.o ABSOLUTE
    ../clib/printf.c                         0x00000000   Number         0  __printf_flags_ss.o ABSOLUTE
    ../clib/printf_percent.s                 0x00000000   Number         0  _printf_percent.o ABSOLUTE
    ../clib/printf_percent.s                 0x00000000   Number         0  _printf_c.o ABSOLUTE
    ../clib/printf_percent.s                 0x00000000   Number         0  _printf_n.o ABSOLUTE
    ../clib/printf_percent.s                 0x00000000   Number         0  _printf_x.o ABSOLUTE
    ../clib/printf_percent.s                 0x00000000   Number         0  _printf_g.o ABSOLUTE
    ../clib/printf_percent.s                 0x00000000   Number         0  _printf_llx.o ABSOLUTE
    ../clib/printf_percent.s                 0x00000000   Number         0  _printf_a.o ABSOLUTE
    ../clib/printf_percent.s                 0x00000000   Number         0  _printf_llo.o ABSOLUTE
    ../clib/printf_percent.s                 0x00000000   Number         0  _printf_percent_end.o ABSOLUTE
    ../clib/printf_percent.s                 0x00000000   Number         0  _printf_ls.o ABSOLUTE
    ../clib/printf_percent.s                 0x00000000   Number         0  _printf_lli.o ABSOLUTE
    ../clib/printf_percent.s                 0x00000000   Number         0  _printf_p.o ABSOLUTE
    ../clib/printf_percent.s                 0x00000000   Number         0  _printf_lc.o ABSOLUTE
    ../clib/printf_percent.s                 0x00000000   Number         0  _printf_o.o ABSOLUTE
    ../clib/printf_percent.s                 0x00000000   Number         0  _printf_lld.o ABSOLUTE
    ../clib/printf_percent.s                 0x00000000   Number         0  _printf_i.o ABSOLUTE
    ../clib/printf_percent.s                 0x00000000   Number         0  _printf_l.o ABSOLUTE
    ../clib/printf_percent.s                 0x00000000   Number         0  _printf_llu.o ABSOLUTE
    ../clib/printf_percent.s                 0x00000000   Number         0  _printf_u.o ABSOLUTE
    ../clib/printf_percent.s                 0x00000000   Number         0  _printf_ll.o ABSOLUTE
    ../clib/printf_percent.s                 0x00000000   Number         0  _printf_e.o ABSOLUTE
    ../clib/printf_percent.s                 0x00000000   Number         0  _printf_f.o ABSOLUTE
    ../clib/printf_percent.s                 0x00000000   Number         0  _printf_d.o ABSOLUTE
    ../clib/printf_percent.s                 0x00000000   Number         0  _printf_s.o ABSOLUTE
    ../clib/signal.c                         0x00000000   Number         0  defsig_exit.o ABSOLUTE
    ../clib/signal.c                         0x00000000   Number         0  defsig_rtmem_formal.o ABSOLUTE
    ../clib/signal.c                         0x00000000   Number         0  defsig_rtmem_outer.o ABSOLUTE
    ../clib/signal.c                         0x00000000   Number         0  defsig_general.o ABSOLUTE
    ../clib/signal.c                         0x00000000   Number         0  defsig_other.o ABSOLUTE
    ../clib/signal.c                         0x00000000   Number         0  defsig_segv_inner.o ABSOLUTE
    ../clib/signal.c                         0x00000000   Number         0  defsig_pvfn_inner.o ABSOLUTE
    ../clib/signal.c                         0x00000000   Number         0  defsig_stak_inner.o ABSOLUTE
    ../clib/signal.c                         0x00000000   Number         0  defsig_rtred_inner.o ABSOLUTE
    ../clib/signal.c                         0x00000000   Number         0  defsig_fpe_inner.o ABSOLUTE
    ../clib/signal.c                         0x00000000   Number         0  defsig_abrt_inner.o ABSOLUTE
    ../clib/signal.c                         0x00000000   Number         0  __raise.o ABSOLUTE
    ../clib/signal.c                         0x00000000   Number         0  defsig_cppl_inner.o ABSOLUTE
    ../clib/signal.c                         0x00000000   Number         0  defsig_rtmem_inner.o ABSOLUTE
    ../clib/signal.s                         0x00000000   Number         0  defsig.o ABSOLUTE
    ../clib/stdlib.c                         0x00000000   Number         0  exit.o ABSOLUTE
    ../fplib/d2f.s                           0x00000000   Number         0  d2f.o ABSOLUTE
    ../fplib/ddiv.s                          0x00000000   Number         0  ddiv.o ABSOLUTE
    ../fplib/dflt.s                          0x00000000   Number         0  dflt_clz.o ABSOLUTE
    ../fplib/dmul.s                          0x00000000   Number         0  dmul.o ABSOLUTE
    ../fplib/dnaninf.s                       0x00000000   Number         0  dnaninf.o ABSOLUTE
    ../fplib/dretinf.s                       0x00000000   Number         0  dretinf.o ABSOLUTE
    ../fplib/f2d.s                           0x00000000   Number         0  f2d.o ABSOLUTE
    ../fplib/faddsub.s                       0x00000000   Number         0  faddsub_clz.o ABSOLUTE
    ../fplib/fcmpi.s                         0x00000000   Number         0  fcmpi.o ABSOLUTE
    ../fplib/fdiv.s                          0x00000000   Number         0  fdiv.o ABSOLUTE
    ../fplib/feqf.s                          0x00000000   Number         0  feqf.o ABSOLUTE
    ../fplib/ffix.s                          0x00000000   Number         0  ffix.o ABSOLUTE
    ../fplib/ffixu.s                         0x00000000   Number         0  ffixu.o ABSOLUTE
    ../fplib/fflt.s                          0x00000000   Number         0  fflt_clz.o ABSOLUTE
    ../fplib/fleqf.s                         0x00000000   Number         0  fleqf.o ABSOLUTE
    ../fplib/fmul.s                          0x00000000   Number         0  fmul.o ABSOLUTE
    ../fplib/fnaninf.s                       0x00000000   Number         0  fnaninf.o ABSOLUTE
    ../fplib/fpinit.s                        0x00000000   Number         0  fpinit.o ABSOLUTE
    ../fplib/fretinf.s                       0x00000000   Number         0  fretinf.o ABSOLUTE
    ../fplib/frleqf.s                        0x00000000   Number         0  frleqf.o ABSOLUTE
    ../fplib/istatus.s                       0x00000000   Number         0  istatus.o ABSOLUTE
    ../fplib/printf1.s                       0x00000000   Number         0  printf1.o ABSOLUTE
    ../fplib/usenofp.s                       0x00000000   Number         0  usenofp.o ABSOLUTE
    ../mathlib/fpclassify.c                  0x00000000   Number         0  fpclassify.o ABSOLUTE
    Drive\ADC.c                              0x00000000   Number         0  adc.o ABSOLUTE
    Drive\BLDC\src\BLDC.c                    0x00000000   Number         0  bldc.o ABSOLUTE
    Drive\EXTI.c                             0x00000000   Number         0  exti.o ABSOLUTE
    Drive\Flash\Flash.c                      0x00000000   Number         0  flash.o ABSOLUTE
    Drive\KEY\src\KEY.c                      0x00000000   Number         0  key.o ABSOLUTE
    Drive\PID.c                              0x00000000   Number         0  pid.o ABSOLUTE
    Drive\RCC\RCC.c                          0x00000000   Number         0  rcc.o ABSOLUTE
    Drive\TIM.c                              0x00000000   Number         0  tim.o ABSOLUTE
    Drive\USART2\src\USART2.c                0x00000000   Number         0  usart2.o ABSOLUTE
    Drive\delay\delay.c                      0x00000000   Number         0  delay.o ABSOLUTE
    STM32F10x_StdPeriph_Driver\src\misc.c    0x00000000   Number         0  misc.o ABSOLUTE
    STM32F10x_StdPeriph_Driver\src\stm32f10x_adc.c 0x00000000   Number         0  stm32f10x_adc.o ABSOLUTE
    STM32F10x_StdPeriph_Driver\src\stm32f10x_bkp.c 0x00000000   Number         0  stm32f10x_bkp.o ABSOLUTE
    STM32F10x_StdPeriph_Driver\src\stm32f10x_can.c 0x00000000   Number         0  stm32f10x_can.o ABSOLUTE
    STM32F10x_StdPeriph_Driver\src\stm32f10x_crc.c 0x00000000   Number         0  stm32f10x_crc.o ABSOLUTE
    STM32F10x_StdPeriph_Driver\src\stm32f10x_dac.c 0x00000000   Number         0  stm32f10x_dac.o ABSOLUTE
    STM32F10x_StdPeriph_Driver\src\stm32f10x_dbgmcu.c 0x00000000   Number         0  stm32f10x_dbgmcu.o ABSOLUTE
    STM32F10x_StdPeriph_Driver\src\stm32f10x_dma.c 0x00000000   Number         0  stm32f10x_dma.o ABSOLUTE
    STM32F10x_StdPeriph_Driver\src\stm32f10x_exti.c 0x00000000   Number         0  stm32f10x_exti.o ABSOLUTE
    STM32F10x_StdPeriph_Driver\src\stm32f10x_flash.c 0x00000000   Number         0  stm32f10x_flash.o ABSOLUTE
    STM32F10x_StdPeriph_Driver\src\stm32f10x_fsmc.c 0x00000000   Number         0  stm32f10x_fsmc.o ABSOLUTE
    STM32F10x_StdPeriph_Driver\src\stm32f10x_gpio.c 0x00000000   Number         0  stm32f10x_gpio.o ABSOLUTE
    STM32F10x_StdPeriph_Driver\src\stm32f10x_i2c.c 0x00000000   Number         0  stm32f10x_i2c.o ABSOLUTE
    STM32F10x_StdPeriph_Driver\src\stm32f10x_iwdg.c 0x00000000   Number         0  stm32f10x_iwdg.o ABSOLUTE
    STM32F10x_StdPeriph_Driver\src\stm32f10x_pwr.c 0x00000000   Number         0  stm32f10x_pwr.o ABSOLUTE
    STM32F10x_StdPeriph_Driver\src\stm32f10x_rcc.c 0x00000000   Number         0  stm32f10x_rcc.o ABSOLUTE
    STM32F10x_StdPeriph_Driver\src\stm32f10x_rtc.c 0x00000000   Number         0  stm32f10x_rtc.o ABSOLUTE
    STM32F10x_StdPeriph_Driver\src\stm32f10x_sdio.c 0x00000000   Number         0  stm32f10x_sdio.o ABSOLUTE
    STM32F10x_StdPeriph_Driver\src\stm32f10x_spi.c 0x00000000   Number         0  stm32f10x_spi.o ABSOLUTE
    STM32F10x_StdPeriph_Driver\src\stm32f10x_tim.c 0x00000000   Number         0  stm32f10x_tim.o ABSOLUTE
    STM32F10x_StdPeriph_Driver\src\stm32f10x_usart.c 0x00000000   Number         0  stm32f10x_usart.o ABSOLUTE
    STM32F10x_StdPeriph_Driver\src\stm32f10x_wwdg.c 0x00000000   Number         0  stm32f10x_wwdg.o ABSOLUTE
    TFT_LCD\LCD\lcd.c                        0x00000000   Number         0  lcd.o ABSOLUTE
    TFT_LCD\SPI\spi.c                        0x00000000   Number         0  spi.o ABSOLUTE
    TFT_LCD\sys\sys.c                        0x00000000   Number         0  sys.o ABSOLUTE
    cmsis\\core_cm3.c                        0x00000000   Number         0  core_cm3.o ABSOLUTE
    cmsis\core_cm3.c                         0x00000000   Number         0  core_cm3.o ABSOLUTE
    cmsis_boot\startup\startup_stm32f10x_md.s 0x00000000   Number         0  startup_stm32f10x_md.o ABSOLUTE
    cmsis_boot\system_stm32f10x.c            0x00000000   Number         0  system_stm32f10x.o ABSOLUTE
    dc.s                                     0x00000000   Number         0  dc.o ABSOLUTE
    main.c                                   0x00000000   Number         0  main.o ABSOLUTE
    stm32f10x_it.c                           0x00000000   Number         0  stm32f10x_it.o ABSOLUTE
    RESET                                    0x08000000   Section      236  startup_stm32f10x_md.o(RESET)
    !!!main                                  0x080000ec   Section        8  __main.o(!!!main)
    !!!scatter                               0x080000f4   Section       52  __scatter.o(!!!scatter)
    !!handler_copy                           0x08000128   Section       26  __scatter_copy.o(!!handler_copy)
    !!handler_zi                             0x08000144   Section       28  __scatter_zi.o(!!handler_zi)
    .ARM.Collect$$_printf_percent$$00000000  0x08000160   Section        0  _printf_percent.o(.ARM.Collect$$_printf_percent$$00000000)
    .ARM.Collect$$_printf_percent$$00000001  0x08000160   Section        6  _printf_n.o(.ARM.Collect$$_printf_percent$$00000001)
    .ARM.Collect$$_printf_percent$$00000002  0x08000166   Section        6  _printf_p.o(.ARM.Collect$$_printf_percent$$00000002)
    .ARM.Collect$$_printf_percent$$00000003  0x0800016c   Section        6  _printf_f.o(.ARM.Collect$$_printf_percent$$00000003)
    .ARM.Collect$$_printf_percent$$00000004  0x08000172   Section        6  _printf_e.o(.ARM.Collect$$_printf_percent$$00000004)
    .ARM.Collect$$_printf_percent$$00000005  0x08000178   Section        6  _printf_g.o(.ARM.Collect$$_printf_percent$$00000005)
    .ARM.Collect$$_printf_percent$$00000006  0x0800017e   Section        6  _printf_a.o(.ARM.Collect$$_printf_percent$$00000006)
    .ARM.Collect$$_printf_percent$$00000007  0x08000184   Section       10  _printf_ll.o(.ARM.Collect$$_printf_percent$$00000007)
    .ARM.Collect$$_printf_percent$$00000008  0x0800018e   Section        6  _printf_i.o(.ARM.Collect$$_printf_percent$$00000008)
    .ARM.Collect$$_printf_percent$$00000009  0x08000194   Section        6  _printf_d.o(.ARM.Collect$$_printf_percent$$00000009)
    .ARM.Collect$$_printf_percent$$0000000A  0x0800019a   Section        6  _printf_u.o(.ARM.Collect$$_printf_percent$$0000000A)
    .ARM.Collect$$_printf_percent$$0000000B  0x080001a0   Section        6  _printf_o.o(.ARM.Collect$$_printf_percent$$0000000B)
    .ARM.Collect$$_printf_percent$$0000000C  0x080001a6   Section        6  _printf_x.o(.ARM.Collect$$_printf_percent$$0000000C)
    .ARM.Collect$$_printf_percent$$0000000D  0x080001ac   Section        6  _printf_lli.o(.ARM.Collect$$_printf_percent$$0000000D)
    .ARM.Collect$$_printf_percent$$0000000E  0x080001b2   Section        6  _printf_lld.o(.ARM.Collect$$_printf_percent$$0000000E)
    .ARM.Collect$$_printf_percent$$0000000F  0x080001b8   Section        6  _printf_llu.o(.ARM.Collect$$_printf_percent$$0000000F)
    .ARM.Collect$$_printf_percent$$00000010  0x080001be   Section        6  _printf_llo.o(.ARM.Collect$$_printf_percent$$00000010)
    .ARM.Collect$$_printf_percent$$00000011  0x080001c4   Section        6  _printf_llx.o(.ARM.Collect$$_printf_percent$$00000011)
    .ARM.Collect$$_printf_percent$$00000012  0x080001ca   Section       10  _printf_l.o(.ARM.Collect$$_printf_percent$$00000012)
    .ARM.Collect$$_printf_percent$$00000013  0x080001d4   Section        6  _printf_c.o(.ARM.Collect$$_printf_percent$$00000013)
    .ARM.Collect$$_printf_percent$$00000014  0x080001da   Section        6  _printf_s.o(.ARM.Collect$$_printf_percent$$00000014)
    .ARM.Collect$$_printf_percent$$00000015  0x080001e0   Section        6  _printf_lc.o(.ARM.Collect$$_printf_percent$$00000015)
    .ARM.Collect$$_printf_percent$$00000016  0x080001e6   Section        6  _printf_ls.o(.ARM.Collect$$_printf_percent$$00000016)
    .ARM.Collect$$_printf_percent$$00000017  0x080001ec   Section        4  _printf_percent_end.o(.ARM.Collect$$_printf_percent$$00000017)
    .ARM.Collect$$libinit$$00000000          0x080001f0   Section        2  libinit.o(.ARM.Collect$$libinit$$00000000)
    .ARM.Collect$$libinit$$00000002          0x080001f2   Section        0  libinit2.o(.ARM.Collect$$libinit$$00000002)
    .ARM.Collect$$libinit$$00000004          0x080001f2   Section        0  libinit2.o(.ARM.Collect$$libinit$$00000004)
    .ARM.Collect$$libinit$$0000000A          0x080001f2   Section        0  libinit2.o(.ARM.Collect$$libinit$$0000000A)
    .ARM.Collect$$libinit$$0000000C          0x080001f2   Section        0  libinit2.o(.ARM.Collect$$libinit$$0000000C)
    .ARM.Collect$$libinit$$0000000E          0x080001f2   Section        0  libinit2.o(.ARM.Collect$$libinit$$0000000E)
    .ARM.Collect$$libinit$$0000000F          0x080001f2   Section        6  libinit2.o(.ARM.Collect$$libinit$$0000000F)
    .ARM.Collect$$libinit$$00000011          0x080001f8   Section        0  libinit2.o(.ARM.Collect$$libinit$$00000011)
    .ARM.Collect$$libinit$$00000012          0x080001f8   Section       12  libinit2.o(.ARM.Collect$$libinit$$00000012)
    .ARM.Collect$$libinit$$00000013          0x08000204   Section        0  libinit2.o(.ARM.Collect$$libinit$$00000013)
    .ARM.Collect$$libinit$$00000015          0x08000204   Section        0  libinit2.o(.ARM.Collect$$libinit$$00000015)
    .ARM.Collect$$libinit$$00000016          0x08000204   Section       10  libinit2.o(.ARM.Collect$$libinit$$00000016)
    .ARM.Collect$$libinit$$00000017          0x0800020e   Section        0  libinit2.o(.ARM.Collect$$libinit$$00000017)
    .ARM.Collect$$libinit$$00000019          0x0800020e   Section        0  libinit2.o(.ARM.Collect$$libinit$$00000019)
    .ARM.Collect$$libinit$$0000001B          0x0800020e   Section        0  libinit2.o(.ARM.Collect$$libinit$$0000001B)
    .ARM.Collect$$libinit$$0000001D          0x0800020e   Section        0  libinit2.o(.ARM.Collect$$libinit$$0000001D)
    .ARM.Collect$$libinit$$0000001F          0x0800020e   Section        0  libinit2.o(.ARM.Collect$$libinit$$0000001F)
    .ARM.Collect$$libinit$$00000021          0x0800020e   Section        0  libinit2.o(.ARM.Collect$$libinit$$00000021)
    .ARM.Collect$$libinit$$00000023          0x0800020e   Section        0  libinit2.o(.ARM.Collect$$libinit$$00000023)
    .ARM.Collect$$libinit$$00000025          0x0800020e   Section        0  libinit2.o(.ARM.Collect$$libinit$$00000025)
    .ARM.Collect$$libinit$$0000002C          0x0800020e   Section        0  libinit2.o(.ARM.Collect$$libinit$$0000002C)
    .ARM.Collect$$libinit$$0000002E          0x0800020e   Section        0  libinit2.o(.ARM.Collect$$libinit$$0000002E)
    .ARM.Collect$$libinit$$00000030          0x0800020e   Section        0  libinit2.o(.ARM.Collect$$libinit$$00000030)
    .ARM.Collect$$libinit$$00000032          0x0800020e   Section        0  libinit2.o(.ARM.Collect$$libinit$$00000032)
    .ARM.Collect$$libinit$$00000033          0x0800020e   Section        2  libinit2.o(.ARM.Collect$$libinit$$00000033)
    .ARM.Collect$$libshutdown$$00000000      0x08000210   Section        2  libshutdown.o(.ARM.Collect$$libshutdown$$00000000)
    .ARM.Collect$$libshutdown$$00000003      0x08000212   Section        0  libshutdown2.o(.ARM.Collect$$libshutdown$$00000003)
    .ARM.Collect$$libshutdown$$00000006      0x08000212   Section        0  libshutdown2.o(.ARM.Collect$$libshutdown$$00000006)
    .ARM.Collect$$libshutdown$$00000009      0x08000212   Section        0  libshutdown2.o(.ARM.Collect$$libshutdown$$00000009)
    .ARM.Collect$$libshutdown$$0000000B      0x08000212   Section        0  libshutdown2.o(.ARM.Collect$$libshutdown$$0000000B)
    .ARM.Collect$$libshutdown$$0000000E      0x08000212   Section        0  libshutdown2.o(.ARM.Collect$$libshutdown$$0000000E)
    .ARM.Collect$$libshutdown$$0000000F      0x08000212   Section        2  libshutdown2.o(.ARM.Collect$$libshutdown$$0000000F)
    .ARM.Collect$$rtentry$$00000000          0x08000214   Section        0  __rtentry.o(.ARM.Collect$$rtentry$$00000000)
    .ARM.Collect$$rtentry$$00000002          0x08000214   Section        0  __rtentry2.o(.ARM.Collect$$rtentry$$00000002)
    .ARM.Collect$$rtentry$$00000004          0x08000214   Section        6  __rtentry4.o(.ARM.Collect$$rtentry$$00000004)
    .ARM.Collect$$rtentry$$00000009          0x0800021a   Section        0  __rtentry2.o(.ARM.Collect$$rtentry$$00000009)
    .ARM.Collect$$rtentry$$0000000A          0x0800021a   Section        4  __rtentry2.o(.ARM.Collect$$rtentry$$0000000A)
    .ARM.Collect$$rtentry$$0000000C          0x0800021e   Section        0  __rtentry2.o(.ARM.Collect$$rtentry$$0000000C)
    .ARM.Collect$$rtentry$$0000000D          0x0800021e   Section        8  __rtentry2.o(.ARM.Collect$$rtentry$$0000000D)
    .ARM.Collect$$rtexit$$00000000           0x08000226   Section        2  rtexit.o(.ARM.Collect$$rtexit$$00000000)
    .ARM.Collect$$rtexit$$00000002           0x08000228   Section        0  rtexit2.o(.ARM.Collect$$rtexit$$00000002)
    .ARM.Collect$$rtexit$$00000003           0x08000228   Section        4  rtexit2.o(.ARM.Collect$$rtexit$$00000003)
    .ARM.Collect$$rtexit$$00000004           0x0800022c   Section        6  rtexit2.o(.ARM.Collect$$rtexit$$00000004)
    .text                                    0x08000234   Section       64  startup_stm32f10x_md.o(.text)
    .text                                    0x08000274   Section        0  c89vsnprintf.o(.text)
    .text                                    0x080002a8   Section        0  __2sprintf.o(.text)
    .text                                    0x080002d4   Section        0  _printf_dec.o(.text)
    .text                                    0x0800034c   Section        0  __printf_flags_ss_wp.o(.text)
    .text                                    0x080004d4   Section        0  heapauxi.o(.text)
    .text                                    0x080004da   Section        0  _printf_pad.o(.text)
    .text                                    0x08000528   Section        0  _printf_truncate.o(.text)
    .text                                    0x0800054c   Section        0  _printf_str.o(.text)
    .text                                    0x0800059e   Section        0  _printf_intcommon.o(.text)
    .text                                    0x08000650   Section        0  _printf_charcount.o(.text)
    .text                                    0x08000678   Section        0  _printf_fp_dec.o(.text)
    _fp_digits                               0x0800067b   Thumb Code   428  _printf_fp_dec.o(.text)
    .text                                    0x08000a94   Section        0  _printf_char_common.o(.text)
    _printf_input_char                       0x08000a95   Thumb Code    10  _printf_char_common.o(.text)
    .text                                    0x08000ac4   Section        0  _sputc.o(.text)
    .text                                    0x08000ace   Section        0  _snputc.o(.text)
    .text                                    0x08000ae0   Section        0  _printf_wctomb.o(.text)
    .text                                    0x08000b9c   Section        0  _printf_longlong_dec.o(.text)
    .text                                    0x08000c18   Section        0  _printf_oct_int_ll.o(.text)
    _printf_longlong_oct_internal            0x08000c19   Thumb Code     0  _printf_oct_int_ll.o(.text)
    .text                                    0x08000c88   Section        0  _printf_hex_int_ll_ptr.o(.text)
    _printf_hex_common                       0x08000c89   Thumb Code     0  _printf_hex_int_ll_ptr.o(.text)
    .text                                    0x08000d1c   Section        8  rt_locale_intlibspace.o(.text)
    .text                                    0x08000d24   Section      138  lludiv10.o(.text)
    .text                                    0x08000db0   Section        0  _printf_fp_infnan.o(.text)
    .text                                    0x08000e30   Section        0  _printf_char.o(.text)
    .text                                    0x08000e5c   Section        0  _printf_wchar.o(.text)
    .text                                    0x08000e88   Section        0  bigflt0.o(.text)
    .text                                    0x08000f64   Section        0  _wcrtomb.o(.text)
    .text                                    0x08000fa4   Section        8  libspace.o(.text)
    .text                                    0x08000fac   Section       74  sys_stackheap_outer.o(.text)
    .text                                    0x08000ff8   Section       16  rt_ctype_table.o(.text)
    .text                                    0x08001008   Section        0  exit.o(.text)
    .text                                    0x08001014   Section      128  strcmpv7m.o(.text)
    .text                                    0x08001094   Section        0  sys_exit.o(.text)
    .text                                    0x080010a0   Section        2  use_no_semi.o(.text)
    .text                                    0x080010a2   Section        0  indicate_semi.o(.text)
    CL$$btod_d2e                             0x080010a2   Section       62  btod.o(CL$$btod_d2e)
    CL$$btod_d2e_denorm_low                  0x080010e0   Section       70  btod.o(CL$$btod_d2e_denorm_low)
    CL$$btod_d2e_norm_op1                    0x08001126   Section       96  btod.o(CL$$btod_d2e_norm_op1)
    CL$$btod_div_common                      0x08001186   Section      824  btod.o(CL$$btod_div_common)
    CL$$btod_e2e                             0x080014be   Section      198  btod.o(CL$$btod_e2e)
    CL$$btod_ediv                            0x08001584   Section       40  btod.o(CL$$btod_ediv)
    CL$$btod_emul                            0x080015ac   Section       40  btod.o(CL$$btod_emul)
    CL$$btod_mult_common                     0x080015d4   Section      580  btod.o(CL$$btod_mult_common)
    i.ADC1_2_IRQHandler                      0x08001818   Section        0  adc.o(i.ADC1_2_IRQHandler)
    i.ADC_Cmd                                0x0800181a   Section        0  stm32f10x_adc.o(i.ADC_Cmd)
    i.ADC_DMACmd                             0x08001830   Section        0  stm32f10x_adc.o(i.ADC_DMACmd)
    i.ADC_DeInit                             0x08001848   Section        0  stm32f10x_adc.o(i.ADC_DeInit)
    i.ADC_GetCalibrationStatus               0x080018a4   Section        0  stm32f10x_adc.o(i.ADC_GetCalibrationStatus)
    i.ADC_GetFlagStatus                      0x080018b8   Section        0  stm32f10x_adc.o(i.ADC_GetFlagStatus)
    i.ADC_GetResetCalibrationStatus          0x080018ca   Section        0  stm32f10x_adc.o(i.ADC_GetResetCalibrationStatus)
    i.ADC_Init                               0x080018e0   Section        0  stm32f10x_adc.o(i.ADC_Init)
    i.ADC_RegularChannelConfig               0x08001930   Section        0  stm32f10x_adc.o(i.ADC_RegularChannelConfig)
    i.ADC_ResetCalibration                   0x080019e8   Section        0  stm32f10x_adc.o(i.ADC_ResetCalibration)
    i.ADC_SoftwareStartConvCmd               0x080019f2   Section        0  stm32f10x_adc.o(i.ADC_SoftwareStartConvCmd)
    i.ADC_StartCalibration                   0x08001a08   Section        0  stm32f10x_adc.o(i.ADC_StartCalibration)
    i.Adc_Init                               0x08001a14   Section        0  adc.o(i.Adc_Init)
    i.Adjust_Speed                           0x08001af4   Section        0  main.o(i.Adjust_Speed)
    i.BLDC_GPIOConfig                        0x08001c1c   Section        0  bldc.o(i.BLDC_GPIOConfig)
    i.BLDC_Start                             0x08001c9c   Section        0  bldc.o(i.BLDC_Start)
    i.BLDC_Start1                            0x08001ce4   Section        0  bldc.o(i.BLDC_Start1)
    i.BLDC_Stop                              0x08001d0c   Section        0  bldc.o(i.BLDC_Stop)
    i.BLDC_TIM1Config                        0x08001d60   Section        0  bldc.o(i.BLDC_TIM1Config)
    i.BLDC_TIM3Config                        0x08001e84   Section        0  bldc.o(i.BLDC_TIM3Config)
    i.DMA_Cmd                                0x08001f28   Section        0  stm32f10x_dma.o(i.DMA_Cmd)
    i.DMA_Configuration                      0x08001f40   Section        0  adc.o(i.DMA_Configuration)
    i.DMA_DeInit                             0x08001fa0   Section        0  stm32f10x_dma.o(i.DMA_DeInit)
    i.DMA_Init                               0x080020ec   Section        0  stm32f10x_dma.o(i.DMA_Init)
    i.EXTI0_IRQHandler                       0x08002128   Section        0  exti.o(i.EXTI0_IRQHandler)
    i.EXTI0_Init                             0x08002174   Section        0  exti.o(i.EXTI0_Init)
    i.EXTI10_Init                            0x080021c4   Section        0  exti.o(i.EXTI10_Init)
    i.EXTI15_10_IRQHandler                   0x08002254   Section        0  exti.o(i.EXTI15_10_IRQHandler)
    i.EXTI1_IRQHandler                       0x080022a8   Section        0  exti.o(i.EXTI1_IRQHandler)
    i.EXTI1_Init                             0x080022d8   Section        0  exti.o(i.EXTI1_Init)
    i.EXTI_ClearITPendingBit                 0x08002328   Section        0  stm32f10x_exti.o(i.EXTI_ClearITPendingBit)
    i.EXTI_GetITStatus                       0x08002334   Section        0  stm32f10x_exti.o(i.EXTI_GetITStatus)
    i.EXTI_Init                              0x0800235c   Section        0  stm32f10x_exti.o(i.EXTI_Init)
    i.FLASH_ErasePage                        0x080023f0   Section        0  stm32f10x_flash.o(i.FLASH_ErasePage)
    i.FLASH_GetBank1Status                   0x0800243c   Section        0  stm32f10x_flash.o(i.FLASH_GetBank1Status)
    i.FLASH_Lock                             0x08002470   Section        0  stm32f10x_flash.o(i.FLASH_Lock)
    i.FLASH_PrefetchBufferCmd                0x08002484   Section        0  stm32f10x_flash.o(i.FLASH_PrefetchBufferCmd)
    i.FLASH_ProgramHalfWord                  0x080024a0   Section        0  stm32f10x_flash.o(i.FLASH_ProgramHalfWord)
    i.FLASH_SetLatency                       0x080024e0   Section        0  stm32f10x_flash.o(i.FLASH_SetLatency)
    i.FLASH_Unlock                           0x080024f8   Section        0  stm32f10x_flash.o(i.FLASH_Unlock)
    i.FLASH_WaitForLastOperation             0x08002510   Section        0  stm32f10x_flash.o(i.FLASH_WaitForLastOperation)
    i.FRAME_INIT                             0x08002538   Section        0  main.o(i.FRAME_INIT)
    i.FRAME_INIT1                            0x08002714   Section        0  main.o(i.FRAME_INIT1)
    i.GPIO_EXTILineConfig                    0x08002934   Section        0  stm32f10x_gpio.o(i.GPIO_EXTILineConfig)
    i.GPIO_Init                              0x08002974   Section        0  stm32f10x_gpio.o(i.GPIO_Init)
    i.GPIO_PinRemapConfig                    0x08002a8c   Section        0  stm32f10x_gpio.o(i.GPIO_PinRemapConfig)
    i.GPIO_ReadInputDataBit                  0x08002b1c   Section        0  stm32f10x_gpio.o(i.GPIO_ReadInputDataBit)
    i.GPIO_ResetBits                         0x08002b2e   Section        0  stm32f10x_gpio.o(i.GPIO_ResetBits)
    i.GPIO_SetBits                           0x08002b32   Section        0  stm32f10x_gpio.o(i.GPIO_SetBits)
    i.Get_Adc_Average                        0x08002b38   Section        0  adc.o(i.Get_Adc_Average)
    i.KEY_Init                               0x08002b88   Section        0  key.o(i.KEY_Init)
    i.KEY_Scan                               0x08002bb0   Section        0  main.o(i.KEY_Scan)
    i.KEY_Scan1                              0x08002dcc   Section        0  key.o(i.KEY_Scan1)
    i.LCD_Clear                              0x08002f48   Section        0  lcd.o(i.LCD_Clear)
    i.LCD_DrawLine                           0x08002f78   Section        0  lcd.o(i.LCD_DrawLine)
    i.LCD_DrawPoint                          0x08003028   Section        0  lcd.o(i.LCD_DrawPoint)
    i.LCD_Init                               0x08003048   Section        0  lcd.o(i.LCD_Init)
    i.LCD_SetCursor                          0x080032a0   Section        0  lcd.o(i.LCD_SetCursor)
    i.LCD_ShowChar2                          0x080032d4   Section        0  lcd.o(i.LCD_ShowChar2)
    i.LCD_ShowString                         0x08003530   Section        0  lcd.o(i.LCD_ShowString)
    i.LCD_WR_DATA                            0x08003598   Section        0  lcd.o(i.LCD_WR_DATA)
    i.LCD_WR_DATA8                           0x080035d0   Section        0  lcd.o(i.LCD_WR_DATA8)
    i.LCD_WR_REG                             0x08003600   Section        0  lcd.o(i.LCD_WR_REG)
    i.LCD_WriteRAM_Prepare                   0x08003630   Section        0  lcd.o(i.LCD_WriteRAM_Prepare)
    i.NVIC_Config                            0x08003640   Section        0  main.o(i.NVIC_Config)
    i.NVIC_Init                              0x0800371c   Section        0  misc.o(i.NVIC_Init)
    i.NVIC_PriorityGroupConfig               0x0800378c   Section        0  misc.o(i.NVIC_PriorityGroupConfig)
    i.NVIC_SystemReset                       0x080037a0   Section        0  main.o(i.NVIC_SystemReset)
    NVIC_SystemReset                         0x080037a1   Thumb Code    26  main.o(i.NVIC_SystemReset)
    i.RCC_ADCCLKConfig                       0x080037c4   Section        0  stm32f10x_rcc.o(i.RCC_ADCCLKConfig)
    i.RCC_AHBPeriphClockCmd                  0x080037dc   Section        0  stm32f10x_rcc.o(i.RCC_AHBPeriphClockCmd)
    i.RCC_APB1PeriphClockCmd                 0x080037fc   Section        0  stm32f10x_rcc.o(i.RCC_APB1PeriphClockCmd)
    i.RCC_APB1PeriphResetCmd                 0x0800381c   Section        0  stm32f10x_rcc.o(i.RCC_APB1PeriphResetCmd)
    i.RCC_APB2PeriphClockCmd                 0x0800383c   Section        0  stm32f10x_rcc.o(i.RCC_APB2PeriphClockCmd)
    i.RCC_APB2PeriphResetCmd                 0x0800385c   Section        0  stm32f10x_rcc.o(i.RCC_APB2PeriphResetCmd)
    i.RCC_DeInit                             0x0800387c   Section        0  stm32f10x_rcc.o(i.RCC_DeInit)
    i.RCC_GetClocksFreq                      0x080038c8   Section        0  stm32f10x_rcc.o(i.RCC_GetClocksFreq)
    i.RCC_GetFlagStatus                      0x0800399c   Section        0  stm32f10x_rcc.o(i.RCC_GetFlagStatus)
    i.RCC_GetSYSCLKSource                    0x080039d8   Section        0  stm32f10x_rcc.o(i.RCC_GetSYSCLKSource)
    i.RCC_HCLKConfig                         0x080039e8   Section        0  stm32f10x_rcc.o(i.RCC_HCLKConfig)
    i.RCC_HSEConfig                          0x08003a00   Section        0  stm32f10x_rcc.o(i.RCC_HSEConfig)
    i.RCC_PCLK1Config                        0x08003a4c   Section        0  stm32f10x_rcc.o(i.RCC_PCLK1Config)
    i.RCC_PCLK2Config                        0x08003a64   Section        0  stm32f10x_rcc.o(i.RCC_PCLK2Config)
    i.RCC_PLLCmd                             0x08003a7c   Section        0  stm32f10x_rcc.o(i.RCC_PLLCmd)
    i.RCC_PLLConfig                          0x08003a88   Section        0  stm32f10x_rcc.o(i.RCC_PLLConfig)
    i.RCC_SYSCLKConfig                       0x08003aa4   Section        0  stm32f10x_rcc.o(i.RCC_SYSCLKConfig)
    i.RCC_WaitForHSEStartUp                  0x08003abc   Section        0  stm32f10x_rcc.o(i.RCC_WaitForHSEStartUp)
    i.Rcc_init                               0x08003af4   Section        0  rcc.o(i.Rcc_init)
    i.Ref_LCD                                0x08003b14   Section        0  main.o(i.Ref_LCD)
    i.SPI1_Init                              0x08003bf8   Section        0  spi.o(i.SPI1_Init)
    i.SPI_Cmd                                0x08003d08   Section        0  stm32f10x_spi.o(i.SPI_Cmd)
    i.SPI_Init                               0x08003d20   Section        0  stm32f10x_spi.o(i.SPI_Init)
    i.SPI_WriteByte                          0x08003d5c   Section        0  spi.o(i.SPI_WriteByte)
    i.STMFLASH_Read                          0x08003d7e   Section        0  flash.o(i.STMFLASH_Read)
    i.STMFLASH_ReadHalfWord                  0x08003da0   Section        0  flash.o(i.STMFLASH_ReadHalfWord)
    i.STMFLASH_Write                         0x08003da8   Section        0  flash.o(i.STMFLASH_Write)
    i.STMFLASH_Write_NoCheck                 0x08003e90   Section        0  flash.o(i.STMFLASH_Write_NoCheck)
    i.SetSysClock                            0x08003eb6   Section        0  system_stm32f10x.o(i.SetSysClock)
    SetSysClock                              0x08003eb7   Thumb Code     8  system_stm32f10x.o(i.SetSysClock)
    i.SetSysClockTo72                        0x08003ec0   Section        0  system_stm32f10x.o(i.SetSysClockTo72)
    SetSysClockTo72                          0x08003ec1   Thumb Code   214  system_stm32f10x.o(i.SetSysClockTo72)
    i.Speed_PIDAdjust                        0x08003fa0   Section        0  pid.o(i.Speed_PIDAdjust)
    i.Speed_PIDInit                          0x08004060   Section        0  pid.o(i.Speed_PIDInit)
    i.SysTick_CLKSourceConfig                0x08004080   Section        0  misc.o(i.SysTick_CLKSourceConfig)
    i.SystemInit                             0x080040a8   Section        0  system_stm32f10x.o(i.SystemInit)
    i.System_clk_set                         0x08004108   Section        0  rcc.o(i.System_clk_set)
    i.TI1_Config                             0x08004174   Section        0  stm32f10x_tim.o(i.TI1_Config)
    TI1_Config                               0x08004175   Thumb Code   108  stm32f10x_tim.o(i.TI1_Config)
    i.TI2_Config                             0x080041f4   Section        0  stm32f10x_tim.o(i.TI2_Config)
    TI2_Config                               0x080041f5   Thumb Code   130  stm32f10x_tim.o(i.TI2_Config)
    i.TI3_Config                             0x0800428c   Section        0  stm32f10x_tim.o(i.TI3_Config)
    TI3_Config                               0x0800428d   Thumb Code   122  stm32f10x_tim.o(i.TI3_Config)
    i.TI4_Config                             0x0800431c   Section        0  stm32f10x_tim.o(i.TI4_Config)
    TI4_Config                               0x0800431d   Thumb Code   130  stm32f10x_tim.o(i.TI4_Config)
    i.TIM1_TRG_COM_IRQHandler                0x080043b4   Section        0  stm32f10x_it.o(i.TIM1_TRG_COM_IRQHandler)
    i.TIM2_IRQHandler                        0x080043c4   Section        0  tim.o(i.TIM2_IRQHandler)
    i.TIM2_Init                              0x08004404   Section        0  tim.o(i.TIM2_Init)
    i.TIM3_IRQHandler                        0x0800443c   Section        0  stm32f10x_it.o(i.TIM3_IRQHandler)
    i.TIM4_IRQHandler                        0x08004554   Section        0  tim.o(i.TIM4_IRQHandler)
    i.TIM4_Init                              0x08004614   Section        0  tim.o(i.TIM4_Init)
    i.TIM_BDTRConfig                         0x0800464c   Section        0  stm32f10x_tim.o(i.TIM_BDTRConfig)
    i.TIM_ClearITPendingBit                  0x0800466c   Section        0  stm32f10x_tim.o(i.TIM_ClearITPendingBit)
    i.TIM_Cmd                                0x08004672   Section        0  stm32f10x_tim.o(i.TIM_Cmd)
    i.TIM_CtrlPWMOutputs                     0x0800468a   Section        0  stm32f10x_tim.o(i.TIM_CtrlPWMOutputs)
    i.TIM_DeInit                             0x080046a8   Section        0  stm32f10x_tim.o(i.TIM_DeInit)
    i.TIM_GetITStatus                        0x08004890   Section        0  stm32f10x_tim.o(i.TIM_GetITStatus)
    i.TIM_ICInit                             0x080048b4   Section        0  stm32f10x_tim.o(i.TIM_ICInit)
    i.TIM_ITConfig                           0x08004960   Section        0  stm32f10x_tim.o(i.TIM_ITConfig)
    i.TIM_OC1Init                            0x08004974   Section        0  stm32f10x_tim.o(i.TIM_OC1Init)
    i.TIM_OC1PreloadConfig                   0x08004a0c   Section        0  stm32f10x_tim.o(i.TIM_OC1PreloadConfig)
    i.TIM_OC2Init                            0x08004a20   Section        0  stm32f10x_tim.o(i.TIM_OC2Init)
    i.TIM_OC2PreloadConfig                   0x08004ac4   Section        0  stm32f10x_tim.o(i.TIM_OC2PreloadConfig)
    i.TIM_OC3Init                            0x08004ae0   Section        0  stm32f10x_tim.o(i.TIM_OC3Init)
    i.TIM_OC3PreloadConfig                   0x08004b80   Section        0  stm32f10x_tim.o(i.TIM_OC3PreloadConfig)
    i.TIM_OC4Init                            0x08004b94   Section        0  stm32f10x_tim.o(i.TIM_OC4Init)
    i.TIM_SelectHallSensor                   0x08004c10   Section        0  stm32f10x_tim.o(i.TIM_SelectHallSensor)
    i.TIM_SelectInputTrigger                 0x08004c28   Section        0  stm32f10x_tim.o(i.TIM_SelectInputTrigger)
    i.TIM_SelectMasterSlaveMode              0x08004c3a   Section        0  stm32f10x_tim.o(i.TIM_SelectMasterSlaveMode)
    i.TIM_SelectOutputTrigger                0x08004c4c   Section        0  stm32f10x_tim.o(i.TIM_SelectOutputTrigger)
    i.TIM_SelectSlaveMode                    0x08004c5e   Section        0  stm32f10x_tim.o(i.TIM_SelectSlaveMode)
    i.TIM_SetIC1Prescaler                    0x08004c70   Section        0  stm32f10x_tim.o(i.TIM_SetIC1Prescaler)
    i.TIM_SetIC2Prescaler                    0x08004c82   Section        0  stm32f10x_tim.o(i.TIM_SetIC2Prescaler)
    i.TIM_SetIC3Prescaler                    0x08004c9c   Section        0  stm32f10x_tim.o(i.TIM_SetIC3Prescaler)
    i.TIM_SetIC4Prescaler                    0x08004cae   Section        0  stm32f10x_tim.o(i.TIM_SetIC4Prescaler)
    i.TIM_TimeBaseInit                       0x08004cc8   Section        0  stm32f10x_tim.o(i.TIM_TimeBaseInit)
    i.USART1_Config                          0x08004d6c   Section        0  usart2.o(i.USART1_Config)
    i.USART1_GPIOConfig                      0x08004db0   Section        0  usart2.o(i.USART1_GPIOConfig)
    i.USART1_IRQHandler                      0x08004df8   Section        0  usart2.o(i.USART1_IRQHandler)
    i.USART_ClearFlag                        0x08004e30   Section        0  stm32f10x_usart.o(i.USART_ClearFlag)
    i.USART_Cmd                              0x08004e42   Section        0  stm32f10x_usart.o(i.USART_Cmd)
    i.USART_GetFlagStatus                    0x08004e5a   Section        0  stm32f10x_usart.o(i.USART_GetFlagStatus)
    i.USART_GetITStatus                      0x08004e74   Section        0  stm32f10x_usart.o(i.USART_GetITStatus)
    i.USART_ITConfig                         0x08004ec8   Section        0  stm32f10x_usart.o(i.USART_ITConfig)
    i.USART_Init                             0x08004f14   Section        0  stm32f10x_usart.o(i.USART_Init)
    i.USART_ReceiveData                      0x08004fec   Section        0  stm32f10x_usart.o(i.USART_ReceiveData)
    i.USART_Reci                             0x08004ff8   Section        0  main.o(i.USART_Reci)
    i.USART_SendData                         0x08005138   Section        0  stm32f10x_usart.o(i.USART_SendData)
    i.__ARM_fpclassify                       0x08005140   Section        0  fpclassify.o(i.__ARM_fpclassify)
    i._is_digit                              0x08005168   Section        0  __printf_wp.o(i._is_digit)
    i.delay_init                             0x08005178   Section        0  delay.o(i.delay_init)
    i.delay_ms                               0x080051bc   Section        0  delay.o(i.delay_ms)
    i.delay_us                               0x08005208   Section        0  delay.o(i.delay_us)
    i.huanxiang                              0x08005254   Section        0  bldc.o(i.huanxiang)
    i.main                                   0x080052c4   Section        0  main.o(i.main)
    i.mes_show                               0x08005500   Section        0  main.o(i.mes_show)
    i.mes_show1                              0x0800567c   Section        0  main.o(i.mes_show1)
    i.uprintf                                0x08005828   Section        0  usart2.o(i.uprintf)
    locale$$code                             0x080058b4   Section       44  lc_numeric_c.o(locale$$code)
    locale$$code                             0x080058e0   Section       44  lc_ctype_c.o(locale$$code)
    x$fpl$d2f                                0x0800590c   Section       98  d2f.o(x$fpl$d2f)
    x$fpl$ddiv                               0x08005970   Section      688  ddiv.o(x$fpl$ddiv)
    ddiv_entry                               0x08005977   Thumb Code     0  ddiv.o(x$fpl$ddiv)
    x$fpl$dfltu                              0x08005c20   Section       38  dflt_clz.o(x$fpl$dfltu)
    x$fpl$dmul                               0x08005c48   Section      340  dmul.o(x$fpl$dmul)
    x$fpl$dnaninf                            0x08005d9c   Section      156  dnaninf.o(x$fpl$dnaninf)
    x$fpl$dretinf                            0x08005e38   Section       12  dretinf.o(x$fpl$dretinf)
    x$fpl$f2d                                0x08005e44   Section       86  f2d.o(x$fpl$f2d)
    x$fpl$fadd                               0x08005e9c   Section      196  faddsub_clz.o(x$fpl$fadd)
    _fadd1                                   0x08005eab   Thumb Code     0  faddsub_clz.o(x$fpl$fadd)
    x$fpl$fcmpinf                            0x08005f60   Section       24  fcmpi.o(x$fpl$fcmpinf)
    x$fpl$fdiv                               0x08005f78   Section      388  fdiv.o(x$fpl$fdiv)
    _fdiv1                                   0x08005f79   Thumb Code     0  fdiv.o(x$fpl$fdiv)
    x$fpl$feqf                               0x080060fc   Section      104  feqf.o(x$fpl$feqf)
    x$fpl$ffix                               0x08006164   Section       54  ffix.o(x$fpl$ffix)
    x$fpl$ffixu                              0x0800619c   Section       62  ffixu.o(x$fpl$ffixu)
    x$fpl$fflt                               0x080061dc   Section       48  fflt_clz.o(x$fpl$fflt)
    x$fpl$ffltu                              0x0800620c   Section       38  fflt_clz.o(x$fpl$ffltu)
    x$fpl$fleqf                              0x08006234   Section      104  fleqf.o(x$fpl$fleqf)
    x$fpl$fmul                               0x0800629c   Section      258  fmul.o(x$fpl$fmul)
    x$fpl$fnaninf                            0x0800639e   Section      140  fnaninf.o(x$fpl$fnaninf)
    x$fpl$fretinf                            0x0800642a   Section       10  fretinf.o(x$fpl$fretinf)
    x$fpl$frleqf                             0x08006434   Section       98  frleqf.o(x$fpl$frleqf)
    x$fpl$fsub                               0x08006498   Section      234  faddsub_clz.o(x$fpl$fsub)
    _fsub1                                   0x080064a7   Thumb Code     0  faddsub_clz.o(x$fpl$fsub)
    x$fpl$printf1                            0x08006582   Section        4  printf1.o(x$fpl$printf1)
    .constdata                               0x08006586   Section    80560  lcd.o(.constdata)
    x$fpl$usenofp                            0x08006586   Section        0  usenofp.o(x$fpl$usenofp)
    .constdata                               0x0801a036   Section       17  __printf_flags_ss_wp.o(.constdata)
    maptable                                 0x0801a036   Data          17  __printf_flags_ss_wp.o(.constdata)
    .constdata                               0x0801a048   Section        8  _printf_wctomb.o(.constdata)
    initial_mbstate                          0x0801a048   Data           8  _printf_wctomb.o(.constdata)
    .constdata                               0x0801a050   Section       40  _printf_hex_int_ll_ptr.o(.constdata)
    uc_hextab                                0x0801a050   Data          20  _printf_hex_int_ll_ptr.o(.constdata)
    lc_hextab                                0x0801a064   Data          20  _printf_hex_int_ll_ptr.o(.constdata)
    .constdata                               0x0801a078   Section      148  bigflt0.o(.constdata)
    tenpwrs_x                                0x0801a078   Data          60  bigflt0.o(.constdata)
    tenpwrs_i                                0x0801a0b4   Data          64  bigflt0.o(.constdata)
    locale$$data                             0x0801a12c   Section       28  lc_numeric_c.o(locale$$data)
    __lcnum_c_name                           0x0801a130   Data           2  lc_numeric_c.o(locale$$data)
    __lcnum_c_start                          0x0801a138   Data           0  lc_numeric_c.o(locale$$data)
    __lcnum_c_point                          0x0801a144   Data           0  lc_numeric_c.o(locale$$data)
    __lcnum_c_thousands                      0x0801a146   Data           0  lc_numeric_c.o(locale$$data)
    __lcnum_c_grouping                       0x0801a147   Data           0  lc_numeric_c.o(locale$$data)
    locale$$data                             0x0801a148   Section      272  lc_ctype_c.o(locale$$data)
    __lcnum_c_end                            0x0801a148   Data           0  lc_numeric_c.o(locale$$data)
    __lcctype_c_name                         0x0801a14c   Data           2  lc_ctype_c.o(locale$$data)
    __lcctype_c_start                        0x0801a154   Data           0  lc_ctype_c.o(locale$$data)
    __lcctype_c_end                          0x0801a258   Data           0  lc_ctype_c.o(locale$$data)
    .data                                    0x20000000   Section       49  main.o(.data)
    .data                                    0x20000034   Section       12  stm32f10x_it.o(.data)
    time_over                                0x2000003a   Data           1  stm32f10x_it.o(.data)
    enc_j                                    0x2000003b   Data           1  stm32f10x_it.o(.data)
    sp_sum                                   0x2000003c   Data           4  stm32f10x_it.o(.data)
    .data                                    0x20000040   Section       20  system_stm32f10x.o(.data)
    .data                                    0x20000054   Section       20  stm32f10x_rcc.o(.data)
    APBAHBPrescTable                         0x20000054   Data          16  stm32f10x_rcc.o(.data)
    ADCPrescTable                            0x20000064   Data           4  stm32f10x_rcc.o(.data)
    .data                                    0x20000068   Section        8  key.o(.data)
    .data                                    0x20000070   Section        2  usart2.o(.data)
    .data                                    0x20000072   Section        8  adc.o(.data)
    .data                                    0x2000007c   Section        9  tim.o(.data)
    .data                                    0x20000088   Section       11  exti.o(.data)
    .data                                    0x20000094   Section        4  delay.o(.data)
    fac_us                                   0x20000094   Data           1  delay.o(.data)
    fac_ms                                   0x20000096   Data           2  delay.o(.data)
    .data                                    0x20000098   Section        4  lcd.o(.data)
    .bss                                     0x2000009c   Section       28  main.o(.bss)
    .bss                                     0x200000b8   Section       24  stm32f10x_it.o(.bss)
    data                                     0x200000b8   Data          24  stm32f10x_it.o(.bss)
    .bss                                     0x200000d0   Section      200  usart2.o(.bss)
    .bss                                     0x20000198   Section     1024  flash.o(.bss)
    .bss                                     0x20000598   Section       10  lcd.o(.bss)
    .bss                                     0x200005a4   Section       96  libspace.o(.bss)
    HEAP                                     0x20000608   Section      512  startup_stm32f10x_md.o(HEAP)
    Heap_Mem                                 0x20000608   Data         512  startup_stm32f10x_md.o(HEAP)
    STACK                                    0x20000808   Section     1024  startup_stm32f10x_md.o(STACK)
    Stack_Mem                                0x20000808   Data        1024  startup_stm32f10x_md.o(STACK)
    __initial_sp                             0x20000c08   Data           0  startup_stm32f10x_md.o(STACK)

    Global Symbols

    Symbol Name                              Value     Ov Type        Size  Object(Section)

    BuildAttributes$$THM_ISAv4$P$D$K$B$S$PE$A:L22UL41UL21$X:L11$S22US41US21$IEEE1$IW$USESV6$~STKCKD$USESV7$~SHL$OTIME$ROPI$IEEEJ$EBA8$UX$STANDARDLIB$REQ8$PRES8$EABIv2 0x00000000   Number         0  anon$$obj.o ABSOLUTE
    __ARM_use_no_argv                        0x00000000   Number         0  main.o ABSOLUTE
    _printf_flags                            0x00000000   Number         0  printf_stubs.o ABSOLUTE
    _printf_return_value                     0x00000000   Number         0  printf_stubs.o ABSOLUTE
    _printf_sizespec                         0x00000000   Number         0  printf_stubs.o ABSOLUTE
    _printf_widthprec                        0x00000000   Number         0  printf_stubs.o ABSOLUTE
    __ARM_exceptions_init                     - Undefined Weak Reference
    __alloca_initialize                       - Undefined Weak Reference
    __arm_preinit_                            - Undefined Weak Reference
    __cpp_initialize__aeabi_                  - Undefined Weak Reference
    __cxa_finalize                            - Undefined Weak Reference
    __sigvec_lookup                           - Undefined Weak Reference
    _atexit_init                              - Undefined Weak Reference
    _call_atexit_fns                          - Undefined Weak Reference
    _clock_init                               - Undefined Weak Reference
    _fp_trap_init                             - Undefined Weak Reference
    _fp_trap_shutdown                         - Undefined Weak Reference
    _get_lc_collate                           - Undefined Weak Reference
    _get_lc_monetary                          - Undefined Weak Reference
    _get_lc_time                              - Undefined Weak Reference
    _getenv_init                              - Undefined Weak Reference
    _handle_redirection                       - Undefined Weak Reference
    _init_alloc                               - Undefined Weak Reference
    _init_user_alloc                          - Undefined Weak Reference
    _initio                                   - Undefined Weak Reference
    _printf_fp_hex                            - Undefined Weak Reference
    _printf_mbtowc                            - Undefined Weak Reference
    _printf_wc                                - Undefined Weak Reference
    _rand_init                                - Undefined Weak Reference
    _signal_finish                            - Undefined Weak Reference
    _signal_init                              - Undefined Weak Reference
    _terminate_alloc                          - Undefined Weak Reference
    _terminate_user_alloc                     - Undefined Weak Reference
    _terminateio                              - Undefined Weak Reference
    __Vectors_Size                           0x000000ec   Number         0  startup_stm32f10x_md.o ABSOLUTE
    __Vectors                                0x08000000   Data           4  startup_stm32f10x_md.o(RESET)
    __Vectors_End                            0x080000ec   Data           0  startup_stm32f10x_md.o(RESET)
    __main                                   0x080000ed   Thumb Code     8  __main.o(!!!main)
    __scatterload                            0x080000f5   Thumb Code     0  __scatter.o(!!!scatter)
    __scatterload_rt2                        0x080000f5   Thumb Code    44  __scatter.o(!!!scatter)
    __scatterload_rt2_thumb_only             0x080000f5   Thumb Code     0  __scatter.o(!!!scatter)
    __scatterload_null                       0x08000103   Thumb Code     0  __scatter.o(!!!scatter)
    __scatterload_copy                       0x08000129   Thumb Code    26  __scatter_copy.o(!!handler_copy)
    __scatterload_zeroinit                   0x08000145   Thumb Code    28  __scatter_zi.o(!!handler_zi)
    _printf_n                                0x08000161   Thumb Code     0  _printf_n.o(.ARM.Collect$$_printf_percent$$00000001)
    _printf_percent                          0x08000161   Thumb Code     0  _printf_percent.o(.ARM.Collect$$_printf_percent$$00000000)
    _printf_p                                0x08000167   Thumb Code     0  _printf_p.o(.ARM.Collect$$_printf_percent$$00000002)
    _printf_f                                0x0800016d   Thumb Code     0  _printf_f.o(.ARM.Collect$$_printf_percent$$00000003)
    _printf_e                                0x08000173   Thumb Code     0  _printf_e.o(.ARM.Collect$$_printf_percent$$00000004)
    _printf_g                                0x08000179   Thumb Code     0  _printf_g.o(.ARM.Collect$$_printf_percent$$00000005)
    _printf_a                                0x0800017f   Thumb Code     0  _printf_a.o(.ARM.Collect$$_printf_percent$$00000006)
    _printf_ll                               0x08000185   Thumb Code     0  _printf_ll.o(.ARM.Collect$$_printf_percent$$00000007)
    _printf_i                                0x0800018f   Thumb Code     0  _printf_i.o(.ARM.Collect$$_printf_percent$$00000008)
    _printf_d                                0x08000195   Thumb Code     0  _printf_d.o(.ARM.Collect$$_printf_percent$$00000009)
    _printf_u                                0x0800019b   Thumb Code     0  _printf_u.o(.ARM.Collect$$_printf_percent$$0000000A)
    _printf_o                                0x080001a1   Thumb Code     0  _printf_o.o(.ARM.Collect$$_printf_percent$$0000000B)
    _printf_x                                0x080001a7   Thumb Code     0  _printf_x.o(.ARM.Collect$$_printf_percent$$0000000C)
    _printf_lli                              0x080001ad   Thumb Code     0  _printf_lli.o(.ARM.Collect$$_printf_percent$$0000000D)
    _printf_lld                              0x080001b3   Thumb Code     0  _printf_lld.o(.ARM.Collect$$_printf_percent$$0000000E)
    _printf_llu                              0x080001b9   Thumb Code     0  _printf_llu.o(.ARM.Collect$$_printf_percent$$0000000F)
    _printf_llo                              0x080001bf   Thumb Code     0  _printf_llo.o(.ARM.Collect$$_printf_percent$$00000010)
    _printf_llx                              0x080001c5   Thumb Code     0  _printf_llx.o(.ARM.Collect$$_printf_percent$$00000011)
    _printf_l                                0x080001cb   Thumb Code     0  _printf_l.o(.ARM.Collect$$_printf_percent$$00000012)
    _printf_c                                0x080001d5   Thumb Code     0  _printf_c.o(.ARM.Collect$$_printf_percent$$00000013)
    _printf_s                                0x080001db   Thumb Code     0  _printf_s.o(.ARM.Collect$$_printf_percent$$00000014)
    _printf_lc                               0x080001e1   Thumb Code     0  _printf_lc.o(.ARM.Collect$$_printf_percent$$00000015)
    _printf_ls                               0x080001e7   Thumb Code     0  _printf_ls.o(.ARM.Collect$$_printf_percent$$00000016)
    _printf_percent_end                      0x080001ed   Thumb Code     0  _printf_percent_end.o(.ARM.Collect$$_printf_percent$$00000017)
    __rt_lib_init                            0x080001f1   Thumb Code     0  libinit.o(.ARM.Collect$$libinit$$00000000)
    __rt_lib_init_fp_1                       0x080001f3   Thumb Code     0  libinit2.o(.ARM.Collect$$libinit$$00000002)
    __rt_lib_init_heap_1                     0x080001f3   Thumb Code     0  libinit2.o(.ARM.Collect$$libinit$$0000000A)
    __rt_lib_init_lc_common                  0x080001f3   Thumb Code     0  libinit2.o(.ARM.Collect$$libinit$$0000000F)
    __rt_lib_init_preinit_1                  0x080001f3   Thumb Code     0  libinit2.o(.ARM.Collect$$libinit$$00000004)
    __rt_lib_init_rand_1                     0x080001f3   Thumb Code     0  libinit2.o(.ARM.Collect$$libinit$$0000000E)
    __rt_lib_init_user_alloc_1               0x080001f3   Thumb Code     0  libinit2.o(.ARM.Collect$$libinit$$0000000C)
    __rt_lib_init_lc_collate_1               0x080001f9   Thumb Code     0  libinit2.o(.ARM.Collect$$libinit$$00000011)
    __rt_lib_init_lc_ctype_2                 0x080001f9   Thumb Code     0  libinit2.o(.ARM.Collect$$libinit$$00000012)
    __rt_lib_init_lc_ctype_1                 0x08000205   Thumb Code     0  libinit2.o(.ARM.Collect$$libinit$$00000013)
    __rt_lib_init_lc_monetary_1              0x08000205   Thumb Code     0  libinit2.o(.ARM.Collect$$libinit$$00000015)
    __rt_lib_init_lc_numeric_2               0x08000205   Thumb Code     0  libinit2.o(.ARM.Collect$$libinit$$00000016)
    __rt_lib_init_alloca_1                   0x0800020f   Thumb Code     0  libinit2.o(.ARM.Collect$$libinit$$0000002E)
    __rt_lib_init_argv_1                     0x0800020f   Thumb Code     0  libinit2.o(.ARM.Collect$$libinit$$0000002C)
    __rt_lib_init_atexit_1                   0x0800020f   Thumb Code     0  libinit2.o(.ARM.Collect$$libinit$$0000001B)
    __rt_lib_init_clock_1                    0x0800020f   Thumb Code     0  libinit2.o(.ARM.Collect$$libinit$$00000021)
    __rt_lib_init_cpp_1                      0x0800020f   Thumb Code     0  libinit2.o(.ARM.Collect$$libinit$$00000032)
    __rt_lib_init_exceptions_1               0x0800020f   Thumb Code     0  libinit2.o(.ARM.Collect$$libinit$$00000030)
    __rt_lib_init_fp_trap_1                  0x0800020f   Thumb Code     0  libinit2.o(.ARM.Collect$$libinit$$0000001F)
    __rt_lib_init_getenv_1                   0x0800020f   Thumb Code     0  libinit2.o(.ARM.Collect$$libinit$$00000023)
    __rt_lib_init_lc_numeric_1               0x0800020f   Thumb Code     0  libinit2.o(.ARM.Collect$$libinit$$00000017)
    __rt_lib_init_lc_time_1                  0x0800020f   Thumb Code     0  libinit2.o(.ARM.Collect$$libinit$$00000019)
    __rt_lib_init_return                     0x0800020f   Thumb Code     0  libinit2.o(.ARM.Collect$$libinit$$00000033)
    __rt_lib_init_signal_1                   0x0800020f   Thumb Code     0  libinit2.o(.ARM.Collect$$libinit$$0000001D)
    __rt_lib_init_stdio_1                    0x0800020f   Thumb Code     0  libinit2.o(.ARM.Collect$$libinit$$00000025)
    __rt_lib_shutdown                        0x08000211   Thumb Code     0  libshutdown.o(.ARM.Collect$$libshutdown$$00000000)
    __rt_lib_shutdown_fp_trap_1              0x08000213   Thumb Code     0  libshutdown2.o(.ARM.Collect$$libshutdown$$00000006)
    __rt_lib_shutdown_heap_1                 0x08000213   Thumb Code     0  libshutdown2.o(.ARM.Collect$$libshutdown$$0000000E)
    __rt_lib_shutdown_return                 0x08000213   Thumb Code     0  libshutdown2.o(.ARM.Collect$$libshutdown$$0000000F)
    __rt_lib_shutdown_signal_1               0x08000213   Thumb Code     0  libshutdown2.o(.ARM.Collect$$libshutdown$$00000009)
    __rt_lib_shutdown_stdio_1                0x08000213   Thumb Code     0  libshutdown2.o(.ARM.Collect$$libshutdown$$00000003)
    __rt_lib_shutdown_user_alloc_1           0x08000213   Thumb Code     0  libshutdown2.o(.ARM.Collect$$libshutdown$$0000000B)
    __rt_entry                               0x08000215   Thumb Code     0  __rtentry.o(.ARM.Collect$$rtentry$$00000000)
    __rt_entry_presh_1                       0x08000215   Thumb Code     0  __rtentry2.o(.ARM.Collect$$rtentry$$00000002)
    __rt_entry_sh                            0x08000215   Thumb Code     0  __rtentry4.o(.ARM.Collect$$rtentry$$00000004)
    __rt_entry_li                            0x0800021b   Thumb Code     0  __rtentry2.o(.ARM.Collect$$rtentry$$0000000A)
    __rt_entry_postsh_1                      0x0800021b   Thumb Code     0  __rtentry2.o(.ARM.Collect$$rtentry$$00000009)
    __rt_entry_main                          0x0800021f   Thumb Code     0  __rtentry2.o(.ARM.Collect$$rtentry$$0000000D)
    __rt_entry_postli_1                      0x0800021f   Thumb Code     0  __rtentry2.o(.ARM.Collect$$rtentry$$0000000C)
    __rt_exit                                0x08000227   Thumb Code     0  rtexit.o(.ARM.Collect$$rtexit$$00000000)
    __rt_exit_ls                             0x08000229   Thumb Code     0  rtexit2.o(.ARM.Collect$$rtexit$$00000003)
    __rt_exit_prels_1                        0x08000229   Thumb Code     0  rtexit2.o(.ARM.Collect$$rtexit$$00000002)
    __rt_exit_exit                           0x0800022d   Thumb Code     0  rtexit2.o(.ARM.Collect$$rtexit$$00000004)
    Reset_Handler                            0x08000235   Thumb Code     8  startup_stm32f10x_md.o(.text)
    NMI_Handler                              0x0800023d   Thumb Code     2  startup_stm32f10x_md.o(.text)
    HardFault_Handler                        0x0800023f   Thumb Code     2  startup_stm32f10x_md.o(.text)
    MemManage_Handler                        0x08000241   Thumb Code     2  startup_stm32f10x_md.o(.text)
    BusFault_Handler                         0x08000243   Thumb Code     2  startup_stm32f10x_md.o(.text)
    UsageFault_Handler                       0x08000245   Thumb Code     2  startup_stm32f10x_md.o(.text)
    SVC_Handler                              0x08000247   Thumb Code     2  startup_stm32f10x_md.o(.text)
    DebugMon_Handler                         0x08000249   Thumb Code     2  startup_stm32f10x_md.o(.text)
    PendSV_Handler                           0x0800024b   Thumb Code     2  startup_stm32f10x_md.o(.text)
    SysTick_Handler                          0x0800024d   Thumb Code     2  startup_stm32f10x_md.o(.text)
    CAN1_RX1_IRQHandler                      0x0800024f   Thumb Code     0  startup_stm32f10x_md.o(.text)
    CAN1_SCE_IRQHandler                      0x0800024f   Thumb Code     0  startup_stm32f10x_md.o(.text)
    DMA1_Channel1_IRQHandler                 0x0800024f   Thumb Code     0  startup_stm32f10x_md.o(.text)
    DMA1_Channel2_IRQHandler                 0x0800024f   Thumb Code     0  startup_stm32f10x_md.o(.text)
    DMA1_Channel3_IRQHandler                 0x0800024f   Thumb Code     0  startup_stm32f10x_md.o(.text)
    DMA1_Channel4_IRQHandler                 0x0800024f   Thumb Code     0  startup_stm32f10x_md.o(.text)
    DMA1_Channel5_IRQHandler                 0x0800024f   Thumb Code     0  startup_stm32f10x_md.o(.text)
    DMA1_Channel6_IRQHandler                 0x0800024f   Thumb Code     0  startup_stm32f10x_md.o(.text)
    DMA1_Channel7_IRQHandler                 0x0800024f   Thumb Code     0  startup_stm32f10x_md.o(.text)
    EXTI2_IRQHandler                         0x0800024f   Thumb Code     0  startup_stm32f10x_md.o(.text)
    EXTI3_IRQHandler                         0x0800024f   Thumb Code     0  startup_stm32f10x_md.o(.text)
    EXTI4_IRQHandler                         0x0800024f   Thumb Code     0  startup_stm32f10x_md.o(.text)
    EXTI9_5_IRQHandler                       0x0800024f   Thumb Code     0  startup_stm32f10x_md.o(.text)
    FLASH_IRQHandler                         0x0800024f   Thumb Code     0  startup_stm32f10x_md.o(.text)
    I2C1_ER_IRQHandler                       0x0800024f   Thumb Code     0  startup_stm32f10x_md.o(.text)
    I2C1_EV_IRQHandler                       0x0800024f   Thumb Code     0  startup_stm32f10x_md.o(.text)
    I2C2_ER_IRQHandler                       0x0800024f   Thumb Code     0  startup_stm32f10x_md.o(.text)
    I2C2_EV_IRQHandler                       0x0800024f   Thumb Code     0  startup_stm32f10x_md.o(.text)
    PVD_IRQHandler                           0x0800024f   Thumb Code     0  startup_stm32f10x_md.o(.text)
    RCC_IRQHandler                           0x0800024f   Thumb Code     0  startup_stm32f10x_md.o(.text)
    RTCAlarm_IRQHandler                      0x0800024f   Thumb Code     0  startup_stm32f10x_md.o(.text)
    RTC_IRQHandler                           0x0800024f   Thumb Code     0  startup_stm32f10x_md.o(.text)
    SPI1_IRQHandler                          0x0800024f   Thumb Code     0  startup_stm32f10x_md.o(.text)
    SPI2_IRQHandler                          0x0800024f   Thumb Code     0  startup_stm32f10x_md.o(.text)
    TAMPER_IRQHandler                        0x0800024f   Thumb Code     0  startup_stm32f10x_md.o(.text)
    TIM1_BRK_IRQHandler                      0x0800024f   Thumb Code     0  startup_stm32f10x_md.o(.text)
    TIM1_CC_IRQHandler                       0x0800024f   Thumb Code     0  startup_stm32f10x_md.o(.text)
    TIM1_UP_IRQHandler                       0x0800024f   Thumb Code     0  startup_stm32f10x_md.o(.text)
    USART2_IRQHandler                        0x0800024f   Thumb Code     0  startup_stm32f10x_md.o(.text)
    USART3_IRQHandler                        0x0800024f   Thumb Code     0  startup_stm32f10x_md.o(.text)
    USBWakeUp_IRQHandler                     0x0800024f   Thumb Code     0  startup_stm32f10x_md.o(.text)
    USB_HP_CAN1_TX_IRQHandler                0x0800024f   Thumb Code     0  startup_stm32f10x_md.o(.text)
    USB_LP_CAN1_RX0_IRQHandler               0x0800024f   Thumb Code     0  startup_stm32f10x_md.o(.text)
    WWDG_IRQHandler                          0x0800024f   Thumb Code     0  startup_stm32f10x_md.o(.text)
    __user_initial_stackheap                 0x08000251   Thumb Code     0  startup_stm32f10x_md.o(.text)
    __c89vsnprintf                           0x08000275   Thumb Code    48  c89vsnprintf.o(.text)
    __2sprintf                               0x080002a9   Thumb Code    38  __2sprintf.o(.text)
    _printf_int_dec                          0x080002d5   Thumb Code   104  _printf_dec.o(.text)
    __printf                                 0x0800034d   Thumb Code   388  __printf_flags_ss_wp.o(.text)
    __use_two_region_memory                  0x080004d5   Thumb Code     2  heapauxi.o(.text)
    __rt_heap_escrow$2region                 0x080004d7   Thumb Code     2  heapauxi.o(.text)
    __rt_heap_expand$2region                 0x080004d9   Thumb Code     2  heapauxi.o(.text)
    _printf_pre_padding                      0x080004db   Thumb Code    44  _printf_pad.o(.text)
    _printf_post_padding                     0x08000507   Thumb Code    34  _printf_pad.o(.text)
    _printf_truncate_signed                  0x08000529   Thumb Code    18  _printf_truncate.o(.text)
    _printf_truncate_unsigned                0x0800053b   Thumb Code    18  _printf_truncate.o(.text)
    _printf_str                              0x0800054d   Thumb Code    82  _printf_str.o(.text)
    _printf_int_common                       0x0800059f   Thumb Code   178  _printf_intcommon.o(.text)
    _printf_charcount                        0x08000651   Thumb Code    40  _printf_charcount.o(.text)
    __lib_sel_fp_printf                      0x08000679   Thumb Code     2  _printf_fp_dec.o(.text)
    _printf_fp_dec_real                      0x08000827   Thumb Code   620  _printf_fp_dec.o(.text)
    _printf_char_common                      0x08000a9f   Thumb Code    32  _printf_char_common.o(.text)
    _sputc                                   0x08000ac5   Thumb Code    10  _sputc.o(.text)
    _snputc                                  0x08000acf   Thumb Code    16  _snputc.o(.text)
    _printf_wctomb                           0x08000ae1   Thumb Code   182  _printf_wctomb.o(.text)
    _printf_longlong_dec                     0x08000b9d   Thumb Code   108  _printf_longlong_dec.o(.text)
    _printf_longlong_oct                     0x08000c19   Thumb Code    68  _printf_oct_int_ll.o(.text)
    _printf_int_oct                          0x08000c5d   Thumb Code    24  _printf_oct_int_ll.o(.text)
    _printf_ll_oct                           0x08000c75   Thumb Code    12  _printf_oct_int_ll.o(.text)
    _printf_longlong_hex                     0x08000c89   Thumb Code    86  _printf_hex_int_ll_ptr.o(.text)
    _printf_int_hex                          0x08000cdf   Thumb Code    28  _printf_hex_int_ll_ptr.o(.text)
    _printf_ll_hex                           0x08000cfb   Thumb Code    12  _printf_hex_int_ll_ptr.o(.text)
    _printf_hex_ptr                          0x08000d07   Thumb Code    18  _printf_hex_int_ll_ptr.o(.text)
    __rt_locale                              0x08000d1d   Thumb Code     8  rt_locale_intlibspace.o(.text)
    _ll_udiv10                               0x08000d25   Thumb Code   138  lludiv10.o(.text)
    _printf_fp_infnan                        0x08000db1   Thumb Code   112  _printf_fp_infnan.o(.text)
    _printf_cs_common                        0x08000e31   Thumb Code    20  _printf_char.o(.text)
    _printf_char                             0x08000e45   Thumb Code    16  _printf_char.o(.text)
    _printf_string                           0x08000e55   Thumb Code     8  _printf_char.o(.text)
    _printf_lcs_common                       0x08000e5d   Thumb Code    20  _printf_wchar.o(.text)
    _printf_wchar                            0x08000e71   Thumb Code    16  _printf_wchar.o(.text)
    _printf_wstring                          0x08000e81   Thumb Code     8  _printf_wchar.o(.text)
    _btod_etento                             0x08000e89   Thumb Code   216  bigflt0.o(.text)
    _wcrtomb                                 0x08000f65   Thumb Code    64  _wcrtomb.o(.text)
    __user_libspace                          0x08000fa5   Thumb Code     8  libspace.o(.text)
    __user_perproc_libspace                  0x08000fa5   Thumb Code     0  libspace.o(.text)
    __user_perthread_libspace                0x08000fa5   Thumb Code     0  libspace.o(.text)
    __user_setup_stackheap                   0x08000fad   Thumb Code    74  sys_stackheap_outer.o(.text)
    __rt_ctype_table                         0x08000ff9   Thumb Code    16  rt_ctype_table.o(.text)
    exit                                     0x08001009   Thumb Code    12  exit.o(.text)
    strcmp                                   0x08001015   Thumb Code   128  strcmpv7m.o(.text)
    _sys_exit                                0x08001095   Thumb Code     8  sys_exit.o(.text)
    __I$use$semihosting                      0x080010a1   Thumb Code     0  use_no_semi.o(.text)
    __use_no_semihosting_swi                 0x080010a1   Thumb Code     2  use_no_semi.o(.text)
    __semihosting_library_function           0x080010a3   Thumb Code     0  indicate_semi.o(.text)
    _btod_d2e                                0x080010a3   Thumb Code    62  btod.o(CL$$btod_d2e)
    _d2e_denorm_low                          0x080010e1   Thumb Code    70  btod.o(CL$$btod_d2e_denorm_low)
    _d2e_norm_op1                            0x08001127   Thumb Code    96  btod.o(CL$$btod_d2e_norm_op1)
    __btod_div_common                        0x08001187   Thumb Code   696  btod.o(CL$$btod_div_common)
    _e2e                                     0x080014bf   Thumb Code   198  btod.o(CL$$btod_e2e)
    _btod_ediv                               0x08001585   Thumb Code    40  btod.o(CL$$btod_ediv)
    _btod_emul                               0x080015ad   Thumb Code    40  btod.o(CL$$btod_emul)
    __btod_mult_common                       0x080015d5   Thumb Code   580  btod.o(CL$$btod_mult_common)
    ADC1_2_IRQHandler                        0x08001819   Thumb Code     2  adc.o(i.ADC1_2_IRQHandler)
    ADC_Cmd                                  0x0800181b   Thumb Code    22  stm32f10x_adc.o(i.ADC_Cmd)
    ADC_DMACmd                               0x08001831   Thumb Code    22  stm32f10x_adc.o(i.ADC_DMACmd)
    ADC_DeInit                               0x08001849   Thumb Code    78  stm32f10x_adc.o(i.ADC_DeInit)
    ADC_GetCalibrationStatus                 0x080018a5   Thumb Code    20  stm32f10x_adc.o(i.ADC_GetCalibrationStatus)
    ADC_GetFlagStatus                        0x080018b9   Thumb Code    18  stm32f10x_adc.o(i.ADC_GetFlagStatus)
    ADC_GetResetCalibrationStatus            0x080018cb   Thumb Code    20  stm32f10x_adc.o(i.ADC_GetResetCalibrationStatus)
    ADC_Init                                 0x080018e1   Thumb Code    70  stm32f10x_adc.o(i.ADC_Init)
    ADC_RegularChannelConfig                 0x08001931   Thumb Code   184  stm32f10x_adc.o(i.ADC_RegularChannelConfig)
    ADC_ResetCalibration                     0x080019e9   Thumb Code    10  stm32f10x_adc.o(i.ADC_ResetCalibration)
    ADC_SoftwareStartConvCmd                 0x080019f3   Thumb Code    22  stm32f10x_adc.o(i.ADC_SoftwareStartConvCmd)
    ADC_StartCalibration                     0x08001a09   Thumb Code    10  stm32f10x_adc.o(i.ADC_StartCalibration)
    Adc_Init                                 0x08001a15   Thumb Code   212  adc.o(i.Adc_Init)
    Adjust_Speed                             0x08001af5   Thumb Code   262  main.o(i.Adjust_Speed)
    BLDC_GPIOConfig                          0x08001c1d   Thumb Code   112  bldc.o(i.BLDC_GPIOConfig)
    BLDC_Start                               0x08001c9d   Thumb Code    64  bldc.o(i.BLDC_Start)
    BLDC_Start1                              0x08001ce5   Thumb Code    40  bldc.o(i.BLDC_Start1)
    BLDC_Stop                                0x08001d0d   Thumb Code    74  bldc.o(i.BLDC_Stop)
    BLDC_TIM1Config                          0x08001d61   Thumb Code   288  bldc.o(i.BLDC_TIM1Config)
    BLDC_TIM3Config                          0x08001e85   Thumb Code   160  bldc.o(i.BLDC_TIM3Config)
    DMA_Cmd                                  0x08001f29   Thumb Code    24  stm32f10x_dma.o(i.DMA_Cmd)
    DMA_Configuration                        0x08001f41   Thumb Code    82  adc.o(i.DMA_Configuration)
    DMA_DeInit                               0x08001fa1   Thumb Code   324  stm32f10x_dma.o(i.DMA_DeInit)
    DMA_Init                                 0x080020ed   Thumb Code    60  stm32f10x_dma.o(i.DMA_Init)
    EXTI0_IRQHandler                         0x08002129   Thumb Code    60  exti.o(i.EXTI0_IRQHandler)
    EXTI0_Init                               0x08002175   Thumb Code    76  exti.o(i.EXTI0_Init)
    EXTI10_Init                              0x080021c5   Thumb Code   140  exti.o(i.EXTI10_Init)
    EXTI15_10_IRQHandler                     0x08002255   Thumb Code    70  exti.o(i.EXTI15_10_IRQHandler)
    EXTI1_IRQHandler                         0x080022a9   Thumb Code    38  exti.o(i.EXTI1_IRQHandler)
    EXTI1_Init                               0x080022d9   Thumb Code    76  exti.o(i.EXTI1_Init)
    EXTI_ClearITPendingBit                   0x08002329   Thumb Code     6  stm32f10x_exti.o(i.EXTI_ClearITPendingBit)
    EXTI_GetITStatus                         0x08002335   Thumb Code    34  stm32f10x_exti.o(i.EXTI_GetITStatus)
    EXTI_Init                                0x0800235d   Thumb Code   142  stm32f10x_exti.o(i.EXTI_Init)
    FLASH_ErasePage                          0x080023f1   Thumb Code    72  stm32f10x_flash.o(i.FLASH_ErasePage)
    FLASH_GetBank1Status                     0x0800243d   Thumb Code    48  stm32f10x_flash.o(i.FLASH_GetBank1Status)
    FLASH_Lock                               0x08002471   Thumb Code    14  stm32f10x_flash.o(i.FLASH_Lock)
    FLASH_PrefetchBufferCmd                  0x08002485   Thumb Code    22  stm32f10x_flash.o(i.FLASH_PrefetchBufferCmd)
    FLASH_ProgramHalfWord                    0x080024a1   Thumb Code    60  stm32f10x_flash.o(i.FLASH_ProgramHalfWord)
    FLASH_SetLatency                         0x080024e1   Thumb Code    18  stm32f10x_flash.o(i.FLASH_SetLatency)
    FLASH_Unlock                             0x080024f9   Thumb Code    12  stm32f10x_flash.o(i.FLASH_Unlock)
    FLASH_WaitForLastOperation               0x08002511   Thumb Code    38  stm32f10x_flash.o(i.FLASH_WaitForLastOperation)
    FRAME_INIT                               0x08002539   Thumb Code   416  main.o(i.FRAME_INIT)
    FRAME_INIT1                              0x08002715   Thumb Code   454  main.o(i.FRAME_INIT1)
    GPIO_EXTILineConfig                      0x08002935   Thumb Code    60  stm32f10x_gpio.o(i.GPIO_EXTILineConfig)
    GPIO_Init                                0x08002975   Thumb Code   278  stm32f10x_gpio.o(i.GPIO_Init)
    GPIO_PinRemapConfig                      0x08002a8d   Thumb Code   138  stm32f10x_gpio.o(i.GPIO_PinRemapConfig)
    GPIO_ReadInputDataBit                    0x08002b1d   Thumb Code    18  stm32f10x_gpio.o(i.GPIO_ReadInputDataBit)
    GPIO_ResetBits                           0x08002b2f   Thumb Code     4  stm32f10x_gpio.o(i.GPIO_ResetBits)
    GPIO_SetBits                             0x08002b33   Thumb Code     4  stm32f10x_gpio.o(i.GPIO_SetBits)
    Get_Adc_Average                          0x08002b39   Thumb Code    66  adc.o(i.Get_Adc_Average)
    KEY_Init                                 0x08002b89   Thumb Code    34  key.o(i.KEY_Init)
    KEY_Scan                                 0x08002bb1   Thumb Code   452  main.o(i.KEY_Scan)
    KEY_Scan1                                0x08002dcd   Thumb Code   366  key.o(i.KEY_Scan1)
    LCD_Clear                                0x08002f49   Thumb Code    44  lcd.o(i.LCD_Clear)
    LCD_DrawLine                             0x08002f79   Thumb Code   176  lcd.o(i.LCD_DrawLine)
    LCD_DrawPoint                            0x08003029   Thumb Code    28  lcd.o(i.LCD_DrawPoint)
    LCD_Init                                 0x08003049   Thumb Code   582  lcd.o(i.LCD_Init)
    LCD_SetCursor                            0x080032a1   Thumb Code    48  lcd.o(i.LCD_SetCursor)
    LCD_ShowChar2                            0x080032d5   Thumb Code   566  lcd.o(i.LCD_ShowChar2)
    LCD_ShowString                           0x08003531   Thumb Code   102  lcd.o(i.LCD_ShowString)
    LCD_WR_DATA                              0x08003599   Thumb Code    46  lcd.o(i.LCD_WR_DATA)
    LCD_WR_DATA8                             0x080035d1   Thumb Code    38  lcd.o(i.LCD_WR_DATA8)
    LCD_WR_REG                               0x08003601   Thumb Code    38  lcd.o(i.LCD_WR_REG)
    LCD_WriteRAM_Prepare                     0x08003631   Thumb Code    12  lcd.o(i.LCD_WriteRAM_Prepare)
    NVIC_Config                              0x08003641   Thumb Code   218  main.o(i.NVIC_Config)
    NVIC_Init                                0x0800371d   Thumb Code   100  misc.o(i.NVIC_Init)
    NVIC_PriorityGroupConfig                 0x0800378d   Thumb Code    10  misc.o(i.NVIC_PriorityGroupConfig)
    RCC_ADCCLKConfig                         0x080037c5   Thumb Code    18  stm32f10x_rcc.o(i.RCC_ADCCLKConfig)
    RCC_AHBPeriphClockCmd                    0x080037dd   Thumb Code    26  stm32f10x_rcc.o(i.RCC_AHBPeriphClockCmd)
    RCC_APB1PeriphClockCmd                   0x080037fd   Thumb Code    26  stm32f10x_rcc.o(i.RCC_APB1PeriphClockCmd)
    RCC_APB1PeriphResetCmd                   0x0800381d   Thumb Code    26  stm32f10x_rcc.o(i.RCC_APB1PeriphResetCmd)
    RCC_APB2PeriphClockCmd                   0x0800383d   Thumb Code    26  stm32f10x_rcc.o(i.RCC_APB2PeriphClockCmd)
    RCC_APB2PeriphResetCmd                   0x0800385d   Thumb Code    26  stm32f10x_rcc.o(i.RCC_APB2PeriphResetCmd)
    RCC_DeInit                               0x0800387d   Thumb Code    64  stm32f10x_rcc.o(i.RCC_DeInit)
    RCC_GetClocksFreq                        0x080038c9   Thumb Code   192  stm32f10x_rcc.o(i.RCC_GetClocksFreq)
    RCC_GetFlagStatus                        0x0800399d   Thumb Code    56  stm32f10x_rcc.o(i.RCC_GetFlagStatus)
    RCC_GetSYSCLKSource                      0x080039d9   Thumb Code    10  stm32f10x_rcc.o(i.RCC_GetSYSCLKSource)
    RCC_HCLKConfig                           0x080039e9   Thumb Code    18  stm32f10x_rcc.o(i.RCC_HCLKConfig)
    RCC_HSEConfig                            0x08003a01   Thumb Code    70  stm32f10x_rcc.o(i.RCC_HSEConfig)
    RCC_PCLK1Config                          0x08003a4d   Thumb Code    18  stm32f10x_rcc.o(i.RCC_PCLK1Config)
    RCC_PCLK2Config                          0x08003a65   Thumb Code    20  stm32f10x_rcc.o(i.RCC_PCLK2Config)
    RCC_PLLCmd                               0x08003a7d   Thumb Code     6  stm32f10x_rcc.o(i.RCC_PLLCmd)
    RCC_PLLConfig                            0x08003a89   Thumb Code    24  stm32f10x_rcc.o(i.RCC_PLLConfig)
    RCC_SYSCLKConfig                         0x08003aa5   Thumb Code    18  stm32f10x_rcc.o(i.RCC_SYSCLKConfig)
    RCC_WaitForHSEStartUp                    0x08003abd   Thumb Code    56  stm32f10x_rcc.o(i.RCC_WaitForHSEStartUp)
    Rcc_init                                 0x08003af5   Thumb Code    26  rcc.o(i.Rcc_init)
    Ref_LCD                                  0x08003b15   Thumb Code   188  main.o(i.Ref_LCD)
    SPI1_Init                                0x08003bf9   Thumb Code   256  spi.o(i.SPI1_Init)
    SPI_Cmd                                  0x08003d09   Thumb Code    24  stm32f10x_spi.o(i.SPI_Cmd)
    SPI_Init                                 0x08003d21   Thumb Code    60  stm32f10x_spi.o(i.SPI_Init)
    SPI_WriteByte                            0x08003d5d   Thumb Code    34  spi.o(i.SPI_WriteByte)
    STMFLASH_Read                            0x08003d7f   Thumb Code    34  flash.o(i.STMFLASH_Read)
    STMFLASH_ReadHalfWord                    0x08003da1   Thumb Code     6  flash.o(i.STMFLASH_ReadHalfWord)
    STMFLASH_Write                           0x08003da9   Thumb Code   222  flash.o(i.STMFLASH_Write)
    STMFLASH_Write_NoCheck                   0x08003e91   Thumb Code    38  flash.o(i.STMFLASH_Write_NoCheck)
    Speed_PIDAdjust                          0x08003fa1   Thumb Code   180  pid.o(i.Speed_PIDAdjust)
    Speed_PIDInit                            0x08004061   Thumb Code    24  pid.o(i.Speed_PIDInit)
    SysTick_CLKSourceConfig                  0x08004081   Thumb Code    40  misc.o(i.SysTick_CLKSourceConfig)
    SystemInit                               0x080040a9   Thumb Code    78  system_stm32f10x.o(i.SystemInit)
    System_clk_set                           0x08004109   Thumb Code   106  rcc.o(i.System_clk_set)
    TIM1_TRG_COM_IRQHandler                  0x080043b5   Thumb Code    12  stm32f10x_it.o(i.TIM1_TRG_COM_IRQHandler)
    TIM2_IRQHandler                          0x080043c5   Thumb Code    56  tim.o(i.TIM2_IRQHandler)
    TIM2_Init                                0x08004405   Thumb Code    54  tim.o(i.TIM2_Init)
    TIM3_IRQHandler                          0x0800443d   Thumb Code   244  stm32f10x_it.o(i.TIM3_IRQHandler)
    TIM4_IRQHandler                          0x08004555   Thumb Code   152  tim.o(i.TIM4_IRQHandler)
    TIM4_Init                                0x08004615   Thumb Code    52  tim.o(i.TIM4_Init)
    TIM_BDTRConfig                           0x0800464d   Thumb Code    32  stm32f10x_tim.o(i.TIM_BDTRConfig)
    TIM_ClearITPendingBit                    0x0800466d   Thumb Code     6  stm32f10x_tim.o(i.TIM_ClearITPendingBit)
    TIM_Cmd                                  0x08004673   Thumb Code    24  stm32f10x_tim.o(i.TIM_Cmd)
    TIM_CtrlPWMOutputs                       0x0800468b   Thumb Code    30  stm32f10x_tim.o(i.TIM_CtrlPWMOutputs)
    TIM_DeInit                               0x080046a9   Thumb Code   424  stm32f10x_tim.o(i.TIM_DeInit)
    TIM_GetITStatus                          0x08004891   Thumb Code    34  stm32f10x_tim.o(i.TIM_GetITStatus)
    TIM_ICInit                               0x080048b5   Thumb Code   150  stm32f10x_tim.o(i.TIM_ICInit)
    TIM_ITConfig                             0x08004961   Thumb Code    18  stm32f10x_tim.o(i.TIM_ITConfig)
    TIM_OC1Init                              0x08004975   Thumb Code   132  stm32f10x_tim.o(i.TIM_OC1Init)
    TIM_OC1PreloadConfig                     0x08004a0d   Thumb Code    18  stm32f10x_tim.o(i.TIM_OC1PreloadConfig)
    TIM_OC2Init                              0x08004a21   Thumb Code   154  stm32f10x_tim.o(i.TIM_OC2Init)
    TIM_OC2PreloadConfig                     0x08004ac5   Thumb Code    26  stm32f10x_tim.o(i.TIM_OC2PreloadConfig)
    TIM_OC3Init                              0x08004ae1   Thumb Code   150  stm32f10x_tim.o(i.TIM_OC3Init)
    TIM_OC3PreloadConfig                     0x08004b81   Thumb Code    18  stm32f10x_tim.o(i.TIM_OC3PreloadConfig)
    TIM_OC4Init                              0x08004b95   Thumb Code   114  stm32f10x_tim.o(i.TIM_OC4Init)
    TIM_SelectHallSensor                     0x08004c11   Thumb Code    24  stm32f10x_tim.o(i.TIM_SelectHallSensor)
    TIM_SelectInputTrigger                   0x08004c29   Thumb Code    18  stm32f10x_tim.o(i.TIM_SelectInputTrigger)
    TIM_SelectMasterSlaveMode                0x08004c3b   Thumb Code    18  stm32f10x_tim.o(i.TIM_SelectMasterSlaveMode)
    TIM_SelectOutputTrigger                  0x08004c4d   Thumb Code    18  stm32f10x_tim.o(i.TIM_SelectOutputTrigger)
    TIM_SelectSlaveMode                      0x08004c5f   Thumb Code    18  stm32f10x_tim.o(i.TIM_SelectSlaveMode)
    TIM_SetIC1Prescaler                      0x08004c71   Thumb Code    18  stm32f10x_tim.o(i.TIM_SetIC1Prescaler)
    TIM_SetIC2Prescaler                      0x08004c83   Thumb Code    26  stm32f10x_tim.o(i.TIM_SetIC2Prescaler)
    TIM_SetIC3Prescaler                      0x08004c9d   Thumb Code    18  stm32f10x_tim.o(i.TIM_SetIC3Prescaler)
    TIM_SetIC4Prescaler                      0x08004caf   Thumb Code    26  stm32f10x_tim.o(i.TIM_SetIC4Prescaler)
    TIM_TimeBaseInit                         0x08004cc9   Thumb Code   122  stm32f10x_tim.o(i.TIM_TimeBaseInit)
    USART1_Config                            0x08004d6d   Thumb Code    62  usart2.o(i.USART1_Config)
    USART1_GPIOConfig                        0x08004db1   Thumb Code    66  usart2.o(i.USART1_GPIOConfig)
    USART1_IRQHandler                        0x08004df9   Thumb Code    42  usart2.o(i.USART1_IRQHandler)
    USART_ClearFlag                          0x08004e31   Thumb Code    18  stm32f10x_usart.o(i.USART_ClearFlag)
    USART_Cmd                                0x08004e43   Thumb Code    24  stm32f10x_usart.o(i.USART_Cmd)
    USART_GetFlagStatus                      0x08004e5b   Thumb Code    26  stm32f10x_usart.o(i.USART_GetFlagStatus)
    USART_GetITStatus                        0x08004e75   Thumb Code    84  stm32f10x_usart.o(i.USART_GetITStatus)
    USART_ITConfig                           0x08004ec9   Thumb Code    74  stm32f10x_usart.o(i.USART_ITConfig)
    USART_Init                               0x08004f15   Thumb Code   210  stm32f10x_usart.o(i.USART_Init)
    USART_ReceiveData                        0x08004fed   Thumb Code    10  stm32f10x_usart.o(i.USART_ReceiveData)
    USART_Reci                               0x08004ff9   Thumb Code   226  main.o(i.USART_Reci)
    USART_SendData                           0x08005139   Thumb Code     8  stm32f10x_usart.o(i.USART_SendData)
    __ARM_fpclassify                         0x08005141   Thumb Code    40  fpclassify.o(i.__ARM_fpclassify)
    _is_digit                                0x08005169   Thumb Code    14  __printf_wp.o(i._is_digit)
    delay_init                               0x08005179   Thumb Code    50  delay.o(i.delay_init)
    delay_ms                                 0x080051bd   Thumb Code    72  delay.o(i.delay_ms)
    delay_us                                 0x08005209   Thumb Code    72  delay.o(i.delay_us)
    huanxiang                                0x08005255   Thumb Code   104  bldc.o(i.huanxiang)
    main                                     0x080052c5   Thumb Code   492  main.o(i.main)
    mes_show                                 0x08005501   Thumb Code   354  main.o(i.mes_show)
    mes_show1                                0x0800567d   Thumb Code   404  main.o(i.mes_show1)
    uprintf                                  0x08005829   Thumb Code   138  usart2.o(i.uprintf)
    _get_lc_numeric                          0x080058b5   Thumb Code    44  lc_numeric_c.o(locale$$code)
    _get_lc_ctype                            0x080058e1   Thumb Code    44  lc_ctype_c.o(locale$$code)
    __aeabi_d2f                              0x0800590d   Thumb Code     0  d2f.o(x$fpl$d2f)
    _d2f                                     0x0800590d   Thumb Code    98  d2f.o(x$fpl$d2f)
    __aeabi_ddiv                             0x08005971   Thumb Code     0  ddiv.o(x$fpl$ddiv)
    _ddiv                                    0x08005971   Thumb Code   552  ddiv.o(x$fpl$ddiv)
    __aeabi_ui2d                             0x08005c21   Thumb Code     0  dflt_clz.o(x$fpl$dfltu)
    _dfltu                                   0x08005c21   Thumb Code    38  dflt_clz.o(x$fpl$dfltu)
    __aeabi_dmul                             0x08005c49   Thumb Code     0  dmul.o(x$fpl$dmul)
    _dmul                                    0x08005c49   Thumb Code   332  dmul.o(x$fpl$dmul)
    __fpl_dnaninf                            0x08005d9d   Thumb Code   156  dnaninf.o(x$fpl$dnaninf)
    __fpl_dretinf                            0x08005e39   Thumb Code    12  dretinf.o(x$fpl$dretinf)
    __aeabi_f2d                              0x08005e45   Thumb Code     0  f2d.o(x$fpl$f2d)
    _f2d                                     0x08005e45   Thumb Code    86  f2d.o(x$fpl$f2d)
    __aeabi_fadd                             0x08005e9d   Thumb Code     0  faddsub_clz.o(x$fpl$fadd)
    _fadd                                    0x08005e9d   Thumb Code   196  faddsub_clz.o(x$fpl$fadd)
    __fpl_fcmp_Inf                           0x08005f61   Thumb Code    24  fcmpi.o(x$fpl$fcmpinf)
    __aeabi_fdiv                             0x08005f79   Thumb Code     0  fdiv.o(x$fpl$fdiv)
    _fdiv                                    0x08005f79   Thumb Code   384  fdiv.o(x$fpl$fdiv)
    __aeabi_cfcmpeq                          0x080060fd   Thumb Code     0  feqf.o(x$fpl$feqf)
    _fcmpeq                                  0x080060fd   Thumb Code   104  feqf.o(x$fpl$feqf)
    __aeabi_f2iz                             0x08006165   Thumb Code     0  ffix.o(x$fpl$ffix)
    _ffix                                    0x08006165   Thumb Code    54  ffix.o(x$fpl$ffix)
    __aeabi_f2uiz                            0x0800619d   Thumb Code     0  ffixu.o(x$fpl$ffixu)
    _ffixu                                   0x0800619d   Thumb Code    62  ffixu.o(x$fpl$ffixu)
    __aeabi_i2f                              0x080061dd   Thumb Code     0  fflt_clz.o(x$fpl$fflt)
    _fflt                                    0x080061dd   Thumb Code    48  fflt_clz.o(x$fpl$fflt)
    __aeabi_ui2f                             0x0800620d   Thumb Code     0  fflt_clz.o(x$fpl$ffltu)
    _ffltu                                   0x0800620d   Thumb Code    38  fflt_clz.o(x$fpl$ffltu)
    __aeabi_cfcmple                          0x08006235   Thumb Code     0  fleqf.o(x$fpl$fleqf)
    _fcmple                                  0x08006235   Thumb Code   104  fleqf.o(x$fpl$fleqf)
    __fpl_fcmple_InfNaN                      0x08006287   Thumb Code     0  fleqf.o(x$fpl$fleqf)
    __aeabi_fmul                             0x0800629d   Thumb Code     0  fmul.o(x$fpl$fmul)
    _fmul                                    0x0800629d   Thumb Code   258  fmul.o(x$fpl$fmul)
    __fpl_fnaninf                            0x0800639f   Thumb Code   140  fnaninf.o(x$fpl$fnaninf)
    __fpl_fretinf                            0x0800642b   Thumb Code    10  fretinf.o(x$fpl$fretinf)
    __aeabi_cfrcmple                         0x08006435   Thumb Code     0  frleqf.o(x$fpl$frleqf)
    _frcmple                                 0x08006435   Thumb Code    98  frleqf.o(x$fpl$frleqf)
    __aeabi_fsub                             0x08006499   Thumb Code     0  faddsub_clz.o(x$fpl$fsub)
    _fsub                                    0x08006499   Thumb Code   234  faddsub_clz.o(x$fpl$fsub)
    _printf_fp_dec                           0x08006583   Thumb Code     4  printf1.o(x$fpl$printf1)
    __I$use$fp                               0x08006586   Number         0  usenofp.o(x$fpl$usenofp)
    asc2_1206                                0x08006586   Data        1140  lcd.o(.constdata)
    asc2_1608                                0x080069fa   Data        1520  lcd.o(.constdata)
    asc2_2412                                0x08006fea   Data        3420  lcd.o(.constdata)
    asc2_3216                                0x08007d46   Data        6080  lcd.o(.constdata)
    asc2_4824                                0x08009506   Data       13680  lcd.o(.constdata)
    asc2_9648                                0x0800ca76   Data       54720  lcd.o(.constdata)
    Region$$Table$$Base                      0x0801a10c   Number         0  anon$$obj.o(Region$$Table)
    Region$$Table$$Limit                     0x0801a12c   Number         0  anon$$obj.o(Region$$Table)
    __ctype                                  0x0801a155   Data           0  lc_ctype_c.o(locale$$data)
    Ref_Lcd_flag                             0x20000000   Data           1  main.o(.data)
    state                                    0x20000001   Data           1  main.o(.data)
    feedback_value                           0x20000004   Data           4  main.o(.data)
    TIMER                                    0x20000008   Data           4  main.o(.data)
    frequent_1                               0x2000000c   Data           1  main.o(.data)
    I_Thrut                                  0x2000000e   Data           8  main.o(.data)
    Run_Pause                                0x20000016   Data           1  main.o(.data)
    Speed_aver                               0x20000017   Data           1  main.o(.data)
    Frequent_aver                            0x20000018   Data           2  main.o(.data)
    Mileage_e0                               0x2000001a   Data           2  main.o(.data)
    Frame_flag                               0x2000001c   Data           1  main.o(.data)
    Start_flag                               0x2000001d   Data           1  main.o(.data)
    Cart_flag                                0x2000001e   Data           1  main.o(.data)
    ERROR_flag                               0x2000001f   Data           1  main.o(.data)
    Assist                                   0x20000020   Data           1  main.o(.data)
    Mileage                                  0x20000021   Data           1  main.o(.data)
    datatemp                                 0x20000022   Data           2  main.o(.data)
    Flash_Buff                               0x20000024   Data           2  main.o(.data)
    V_BUS_Flag                               0x20000026   Data           1  main.o(.data)
    begin                                    0x20000027   Data           1  main.o(.data)
    Key                                      0x20000028   Data           1  main.o(.data)
    Mileage_Single                           0x2000002c   Data           4  main.o(.data)
    d                                        0x20000030   Data           1  main.o(.data)
    Speed_count                              0x20000034   Data           2  stm32f10x_it.o(.data)
    duzhuan_value                            0x20000036   Data           1  stm32f10x_it.o(.data)
    duzhuan                                  0x20000038   Data           2  stm32f10x_it.o(.data)
    SystemCoreClock                          0x20000040   Data           4  system_stm32f10x.o(.data)
    AHBPrescTable                            0x20000044   Data          16  system_stm32f10x.o(.data)
    KEY_Time                                 0x20000068   Data           2  key.o(.data)
    KEY_UP                                   0x2000006a   Data           6  key.o(.data)
    USART1_RX_STA                            0x20000070   Data           2  usart2.o(.data)
    AD_Buf                                   0x20000072   Data           8  adc.o(.data)
    AD_flag                                  0x2000007c   Data           1  tim.o(.data)
    Frequent_flag                            0x2000007d   Data           1  tim.o(.data)
    adcx                                     0x20000080   Data           4  tim.o(.data)
    a                                        0x20000084   Data           1  tim.o(.data)
    frequent_sum                             0x20000088   Data           4  exti.o(.data)
    frequent                                 0x2000008c   Data           1  exti.o(.data)
    Exti_speed_1                             0x2000008e   Data           2  exti.o(.data)
    Exti_speed                               0x20000090   Data           2  exti.o(.data)
    c                                        0x20000092   Data           1  exti.o(.data)
    POINT_COLOR                              0x20000098   Data           2  lcd.o(.data)
    BACK_COLOR                               0x2000009a   Data           2  lcd.o(.data)
    Main_pid                                 0x2000009c   Data          28  main.o(.bss)
    USART1_RX_BUF                            0x200000d0   Data         200  usart2.o(.bss)
    STMFLASH_BUF                             0x20000198   Data        1024  flash.o(.bss)
    lcddev                                   0x20000598   Data          10  lcd.o(.bss)
    __libspace_start                         0x200005a4   Data          96  libspace.o(.bss)
    __temporary_stack_top$libspace           0x20000604   Data           0  libspace.o(.bss)



==============================================================================

Memory Map of the image

  Image Entry point : 0x080000ed

  Load Region LR_IROM1 (Base: 0x08000000, Size: 0x0001a2f4, Max: 0x00020000, ABSOLUTE)

    Execution Region ER_IROM1 (Base: 0x08000000, Size: 0x0001a258, Max: 0x00020000, ABSOLUTE)

    Base Addr    Size         Type   Attr      Idx    E Section Name        Object

    0x08000000   0x000000ec   Data   RO          280    RESET               startup_stm32f10x_md.o
    0x080000ec   0x00000008   Code   RO         3805  * !!!main             c_w.l(__main.o)
    0x080000f4   0x00000034   Code   RO         4149    !!!scatter          c_w.l(__scatter.o)
    0x08000128   0x0000001a   Code   RO         4151    !!handler_copy      c_w.l(__scatter_copy.o)
    0x08000142   0x00000002   PAD
    0x08000144   0x0000001c   Code   RO         4153    !!handler_zi        c_w.l(__scatter_zi.o)
    0x08000160   0x00000000   Code   RO         3802    .ARM.Collect$$_printf_percent$$00000000  c_w.l(_printf_percent.o)
    0x08000160   0x00000006   Code   RO         3910    .ARM.Collect$$_printf_percent$$00000001  c_w.l(_printf_n.o)
    0x08000166   0x00000006   Code   RO         3912    .ARM.Collect$$_printf_percent$$00000002  c_w.l(_printf_p.o)
    0x0800016c   0x00000006   Code   RO         3801    .ARM.Collect$$_printf_percent$$00000003  c_w.l(_printf_f.o)
    0x08000172   0x00000006   Code   RO         3916    .ARM.Collect$$_printf_percent$$00000004  c_w.l(_printf_e.o)
    0x08000178   0x00000006   Code   RO         3917    .ARM.Collect$$_printf_percent$$00000005  c_w.l(_printf_g.o)
    0x0800017e   0x00000006   Code   RO         3918    .ARM.Collect$$_printf_percent$$00000006  c_w.l(_printf_a.o)
    0x08000184   0x0000000a   Code   RO         3923    .ARM.Collect$$_printf_percent$$00000007  c_w.l(_printf_ll.o)
    0x0800018e   0x00000006   Code   RO         3914    .ARM.Collect$$_printf_percent$$00000008  c_w.l(_printf_i.o)
    0x08000194   0x00000006   Code   RO         3800    .ARM.Collect$$_printf_percent$$00000009  c_w.l(_printf_d.o)
    0x0800019a   0x00000006   Code   RO         3915    .ARM.Collect$$_printf_percent$$0000000A  c_w.l(_printf_u.o)
    0x080001a0   0x00000006   Code   RO         3913    .ARM.Collect$$_printf_percent$$0000000B  c_w.l(_printf_o.o)
    0x080001a6   0x00000006   Code   RO         3911    .ARM.Collect$$_printf_percent$$0000000C  c_w.l(_printf_x.o)
    0x080001ac   0x00000006   Code   RO         3920    .ARM.Collect$$_printf_percent$$0000000D  c_w.l(_printf_lli.o)
    0x080001b2   0x00000006   Code   RO         3921    .ARM.Collect$$_printf_percent$$0000000E  c_w.l(_printf_lld.o)
    0x080001b8   0x00000006   Code   RO         3922    .ARM.Collect$$_printf_percent$$0000000F  c_w.l(_printf_llu.o)
    0x080001be   0x00000006   Code   RO         3927    .ARM.Collect$$_printf_percent$$00000010  c_w.l(_printf_llo.o)
    0x080001c4   0x00000006   Code   RO         3928    .ARM.Collect$$_printf_percent$$00000011  c_w.l(_printf_llx.o)
    0x080001ca   0x0000000a   Code   RO         3924    .ARM.Collect$$_printf_percent$$00000012  c_w.l(_printf_l.o)
    0x080001d4   0x00000006   Code   RO         3908    .ARM.Collect$$_printf_percent$$00000013  c_w.l(_printf_c.o)
    0x080001da   0x00000006   Code   RO         3909    .ARM.Collect$$_printf_percent$$00000014  c_w.l(_printf_s.o)
    0x080001e0   0x00000006   Code   RO         3925    .ARM.Collect$$_printf_percent$$00000015  c_w.l(_printf_lc.o)
    0x080001e6   0x00000006   Code   RO         3926    .ARM.Collect$$_printf_percent$$00000016  c_w.l(_printf_ls.o)
    0x080001ec   0x00000004   Code   RO         3919    .ARM.Collect$$_printf_percent$$00000017  c_w.l(_printf_percent_end.o)
    0x080001f0   0x00000002   Code   RO         4020    .ARM.Collect$$libinit$$00000000  c_w.l(libinit.o)
    0x080001f2   0x00000000   Code   RO         4022    .ARM.Collect$$libinit$$00000002  c_w.l(libinit2.o)
    0x080001f2   0x00000000   Code   RO         4024    .ARM.Collect$$libinit$$00000004  c_w.l(libinit2.o)
    0x080001f2   0x00000000   Code   RO         4027    .ARM.Collect$$libinit$$0000000A  c_w.l(libinit2.o)
    0x080001f2   0x00000000   Code   RO         4029    .ARM.Collect$$libinit$$0000000C  c_w.l(libinit2.o)
    0x080001f2   0x00000000   Code   RO         4031    .ARM.Collect$$libinit$$0000000E  c_w.l(libinit2.o)
    0x080001f2   0x00000006   Code   RO         4032    .ARM.Collect$$libinit$$0000000F  c_w.l(libinit2.o)
    0x080001f8   0x00000000   Code   RO         4034    .ARM.Collect$$libinit$$00000011  c_w.l(libinit2.o)
    0x080001f8   0x0000000c   Code   RO         4035    .ARM.Collect$$libinit$$00000012  c_w.l(libinit2.o)
    0x08000204   0x00000000   Code   RO         4036    .ARM.Collect$$libinit$$00000013  c_w.l(libinit2.o)
    0x08000204   0x00000000   Code   RO         4038    .ARM.Collect$$libinit$$00000015  c_w.l(libinit2.o)
    0x08000204   0x0000000a   Code   RO         4039    .ARM.Collect$$libinit$$00000016  c_w.l(libinit2.o)
    0x0800020e   0x00000000   Code   RO         4040    .ARM.Collect$$libinit$$00000017  c_w.l(libinit2.o)
    0x0800020e   0x00000000   Code   RO         4042    .ARM.Collect$$libinit$$00000019  c_w.l(libinit2.o)
    0x0800020e   0x00000000   Code   RO         4044    .ARM.Collect$$libinit$$0000001B  c_w.l(libinit2.o)
    0x0800020e   0x00000000   Code   RO         4046    .ARM.Collect$$libinit$$0000001D  c_w.l(libinit2.o)
    0x0800020e   0x00000000   Code   RO         4048    .ARM.Collect$$libinit$$0000001F  c_w.l(libinit2.o)
    0x0800020e   0x00000000   Code   RO         4050    .ARM.Collect$$libinit$$00000021  c_w.l(libinit2.o)
    0x0800020e   0x00000000   Code   RO         4052    .ARM.Collect$$libinit$$00000023  c_w.l(libinit2.o)
    0x0800020e   0x00000000   Code   RO         4054    .ARM.Collect$$libinit$$00000025  c_w.l(libinit2.o)
    0x0800020e   0x00000000   Code   RO         4058    .ARM.Collect$$libinit$$0000002C  c_w.l(libinit2.o)
    0x0800020e   0x00000000   Code   RO         4060    .ARM.Collect$$libinit$$0000002E  c_w.l(libinit2.o)
    0x0800020e   0x00000000   Code   RO         4062    .ARM.Collect$$libinit$$00000030  c_w.l(libinit2.o)
    0x0800020e   0x00000000   Code   RO         4064    .ARM.Collect$$libinit$$00000032  c_w.l(libinit2.o)
    0x0800020e   0x00000002   Code   RO         4065    .ARM.Collect$$libinit$$00000033  c_w.l(libinit2.o)
    0x08000210   0x00000002   Code   RO         4098    .ARM.Collect$$libshutdown$$00000000  c_w.l(libshutdown.o)
    0x08000212   0x00000000   Code   RO         4110    .ARM.Collect$$libshutdown$$00000003  c_w.l(libshutdown2.o)
    0x08000212   0x00000000   Code   RO         4113    .ARM.Collect$$libshutdown$$00000006  c_w.l(libshutdown2.o)
    0x08000212   0x00000000   Code   RO         4116    .ARM.Collect$$libshutdown$$00000009  c_w.l(libshutdown2.o)
    0x08000212   0x00000000   Code   RO         4118    .ARM.Collect$$libshutdown$$0000000B  c_w.l(libshutdown2.o)
    0x08000212   0x00000000   Code   RO         4121    .ARM.Collect$$libshutdown$$0000000E  c_w.l(libshutdown2.o)
    0x08000212   0x00000002   Code   RO         4122    .ARM.Collect$$libshutdown$$0000000F  c_w.l(libshutdown2.o)
    0x08000214   0x00000000   Code   RO         3857    .ARM.Collect$$rtentry$$00000000  c_w.l(__rtentry.o)
    0x08000214   0x00000000   Code   RO         3941    .ARM.Collect$$rtentry$$00000002  c_w.l(__rtentry2.o)
    0x08000214   0x00000006   Code   RO         3953    .ARM.Collect$$rtentry$$00000004  c_w.l(__rtentry4.o)
    0x0800021a   0x00000000   Code   RO         3943    .ARM.Collect$$rtentry$$00000009  c_w.l(__rtentry2.o)
    0x0800021a   0x00000004   Code   RO         3944    .ARM.Collect$$rtentry$$0000000A  c_w.l(__rtentry2.o)
    0x0800021e   0x00000000   Code   RO         3946    .ARM.Collect$$rtentry$$0000000C  c_w.l(__rtentry2.o)
    0x0800021e   0x00000008   Code   RO         3947    .ARM.Collect$$rtentry$$0000000D  c_w.l(__rtentry2.o)
    0x08000226   0x00000002   Code   RO         4066    .ARM.Collect$$rtexit$$00000000  c_w.l(rtexit.o)
    0x08000228   0x00000000   Code   RO         4076    .ARM.Collect$$rtexit$$00000002  c_w.l(rtexit2.o)
    0x08000228   0x00000004   Code   RO         4077    .ARM.Collect$$rtexit$$00000003  c_w.l(rtexit2.o)
    0x0800022c   0x00000006   Code   RO         4078    .ARM.Collect$$rtexit$$00000004  c_w.l(rtexit2.o)
    0x08000232   0x00000002   PAD
    0x08000234   0x00000040   Code   RO          281    .text               startup_stm32f10x_md.o
    0x08000274   0x00000034   Code   RO         3770    .text               c_w.l(c89vsnprintf.o)
    0x080002a8   0x0000002c   Code   RO         3772    .text               c_w.l(__2sprintf.o)
    0x080002d4   0x00000078   Code   RO         3778    .text               c_w.l(_printf_dec.o)
    0x0800034c   0x00000188   Code   RO         3797    .text               c_w.l(__printf_flags_ss_wp.o)
    0x080004d4   0x00000006   Code   RO         3803    .text               c_w.l(heapauxi.o)
    0x080004da   0x0000004e   Code   RO         3858    .text               c_w.l(_printf_pad.o)
    0x08000528   0x00000024   Code   RO         3860    .text               c_w.l(_printf_truncate.o)
    0x0800054c   0x00000052   Code   RO         3862    .text               c_w.l(_printf_str.o)
    0x0800059e   0x000000b2   Code   RO         3864    .text               c_w.l(_printf_intcommon.o)
    0x08000650   0x00000028   Code   RO         3866    .text               c_w.l(_printf_charcount.o)
    0x08000678   0x0000041a   Code   RO         3868    .text               c_w.l(_printf_fp_dec.o)
    0x08000a92   0x00000002   PAD
    0x08000a94   0x00000030   Code   RO         3870    .text               c_w.l(_printf_char_common.o)
    0x08000ac4   0x0000000a   Code   RO         3872    .text               c_w.l(_sputc.o)
    0x08000ace   0x00000010   Code   RO         3874    .text               c_w.l(_snputc.o)
    0x08000ade   0x00000002   PAD
    0x08000ae0   0x000000bc   Code   RO         3876    .text               c_w.l(_printf_wctomb.o)
    0x08000b9c   0x0000007c   Code   RO         3879    .text               c_w.l(_printf_longlong_dec.o)
    0x08000c18   0x00000070   Code   RO         3885    .text               c_w.l(_printf_oct_int_ll.o)
    0x08000c88   0x00000094   Code   RO         3905    .text               c_w.l(_printf_hex_int_ll_ptr.o)
    0x08000d1c   0x00000008   Code   RO         3958    .text               c_w.l(rt_locale_intlibspace.o)
    0x08000d24   0x0000008a   Code   RO         3960    .text               c_w.l(lludiv10.o)
    0x08000dae   0x00000002   PAD
    0x08000db0   0x00000080   Code   RO         3962    .text               c_w.l(_printf_fp_infnan.o)
    0x08000e30   0x0000002c   Code   RO         3966    .text               c_w.l(_printf_char.o)
    0x08000e5c   0x0000002c   Code   RO         3968    .text               c_w.l(_printf_wchar.o)
    0x08000e88   0x000000dc   Code   RO         3970    .text               c_w.l(bigflt0.o)
    0x08000f64   0x00000040   Code   RO         3995    .text               c_w.l(_wcrtomb.o)
    0x08000fa4   0x00000008   Code   RO         4004    .text               c_w.l(libspace.o)
    0x08000fac   0x0000004a   Code   RO         4007    .text               c_w.l(sys_stackheap_outer.o)
    0x08000ff6   0x00000002   PAD
    0x08000ff8   0x00000010   Code   RO         4009    .text               c_w.l(rt_ctype_table.o)
    0x08001008   0x0000000c   Code   RO         4011    .text               c_w.l(exit.o)
    0x08001014   0x00000080   Code   RO         4013    .text               c_w.l(strcmpv7m.o)
    0x08001094   0x0000000c   Code   RO         4088    .text               c_w.l(sys_exit.o)
    0x080010a0   0x00000002   Code   RO         4099    .text               c_w.l(use_no_semi.o)
    0x080010a2   0x00000000   Code   RO         4101    .text               c_w.l(indicate_semi.o)
    0x080010a2   0x0000003e   Code   RO         3973    CL$$btod_d2e        c_w.l(btod.o)
    0x080010e0   0x00000046   Code   RO         3975    CL$$btod_d2e_denorm_low  c_w.l(btod.o)
    0x08001126   0x00000060   Code   RO         3974    CL$$btod_d2e_norm_op1  c_w.l(btod.o)
    0x08001186   0x00000338   Code   RO         3983    CL$$btod_div_common  c_w.l(btod.o)
    0x080014be   0x000000c6   Code   RO         3980    CL$$btod_e2e        c_w.l(btod.o)
    0x08001584   0x00000028   Code   RO         3977    CL$$btod_ediv       c_w.l(btod.o)
    0x080015ac   0x00000028   Code   RO         3976    CL$$btod_emul       c_w.l(btod.o)
    0x080015d4   0x00000244   Code   RO         3982    CL$$btod_mult_common  c_w.l(btod.o)
    0x08001818   0x00000002   Code   RO         3350    i.ADC1_2_IRQHandler  adc.o
    0x0800181a   0x00000016   Code   RO          327    i.ADC_Cmd           stm32f10x_adc.o
    0x08001830   0x00000016   Code   RO          328    i.ADC_DMACmd        stm32f10x_adc.o
    0x08001846   0x00000002   PAD
    0x08001848   0x0000005c   Code   RO          329    i.ADC_DeInit        stm32f10x_adc.o
    0x080018a4   0x00000014   Code   RO          335    i.ADC_GetCalibrationStatus  stm32f10x_adc.o
    0x080018b8   0x00000012   Code   RO          338    i.ADC_GetFlagStatus  stm32f10x_adc.o
    0x080018ca   0x00000014   Code   RO          341    i.ADC_GetResetCalibrationStatus  stm32f10x_adc.o
    0x080018de   0x00000002   PAD
    0x080018e0   0x00000050   Code   RO          345    i.ADC_Init          stm32f10x_adc.o
    0x08001930   0x000000b8   Code   RO          349    i.ADC_RegularChannelConfig  stm32f10x_adc.o
    0x080019e8   0x0000000a   Code   RO          350    i.ADC_ResetCalibration  stm32f10x_adc.o
    0x080019f2   0x00000016   Code   RO          352    i.ADC_SoftwareStartConvCmd  stm32f10x_adc.o
    0x08001a08   0x0000000a   Code   RO          354    i.ADC_StartCalibration  stm32f10x_adc.o
    0x08001a12   0x00000002   PAD
    0x08001a14   0x000000e0   Code   RO         3351    i.Adc_Init          adc.o
    0x08001af4   0x00000128   Code   RO            1    i.Adjust_Speed      main.o
    0x08001c1c   0x00000080   Code   RO         3201    i.BLDC_GPIOConfig   bldc.o
    0x08001c9c   0x00000048   Code   RO         3202    i.BLDC_Start        bldc.o
    0x08001ce4   0x00000028   Code   RO         3203    i.BLDC_Start1       bldc.o
    0x08001d0c   0x00000054   Code   RO         3204    i.BLDC_Stop         bldc.o
    0x08001d60   0x00000124   Code   RO         3205    i.BLDC_TIM1Config   bldc.o
    0x08001e84   0x000000a4   Code   RO         3206    i.BLDC_TIM3Config   bldc.o
    0x08001f28   0x00000018   Code   RO          934    i.DMA_Cmd           stm32f10x_dma.o
    0x08001f40   0x00000060   Code   RO         3352    i.DMA_Configuration  adc.o
    0x08001fa0   0x0000014c   Code   RO          935    i.DMA_DeInit        stm32f10x_dma.o
    0x080020ec   0x0000003c   Code   RO          940    i.DMA_Init          stm32f10x_dma.o
    0x08002128   0x0000004c   Code   RO         3427    i.EXTI0_IRQHandler  exti.o
    0x08002174   0x00000050   Code   RO         3428    i.EXTI0_Init        exti.o
    0x080021c4   0x00000090   Code   RO         3429    i.EXTI10_Init       exti.o
    0x08002254   0x00000054   Code   RO         3430    i.EXTI15_10_IRQHandler  exti.o
    0x080022a8   0x00000030   Code   RO         3431    i.EXTI1_IRQHandler  exti.o
    0x080022d8   0x00000050   Code   RO         3432    i.EXTI1_Init        exti.o
    0x08002328   0x0000000c   Code   RO         1005    i.EXTI_ClearITPendingBit  stm32f10x_exti.o
    0x08002334   0x00000028   Code   RO         1009    i.EXTI_GetITStatus  stm32f10x_exti.o
    0x0800235c   0x00000094   Code   RO         1010    i.EXTI_Init         stm32f10x_exti.o
    0x080023f0   0x0000004c   Code   RO         1063    i.FLASH_ErasePage   stm32f10x_flash.o
    0x0800243c   0x00000034   Code   RO         1064    i.FLASH_GetBank1Status  stm32f10x_flash.o
    0x08002470   0x00000014   Code   RO         1073    i.FLASH_Lock        stm32f10x_flash.o
    0x08002484   0x0000001c   Code   RO         1075    i.FLASH_PrefetchBufferCmd  stm32f10x_flash.o
    0x080024a0   0x00000040   Code   RO         1076    i.FLASH_ProgramHalfWord  stm32f10x_flash.o
    0x080024e0   0x00000018   Code   RO         1080    i.FLASH_SetLatency  stm32f10x_flash.o
    0x080024f8   0x00000018   Code   RO         1081    i.FLASH_Unlock      stm32f10x_flash.o
    0x08002510   0x00000026   Code   RO         1085    i.FLASH_WaitForLastOperation  stm32f10x_flash.o
    0x08002536   0x00000002   PAD
    0x08002538   0x000001dc   Code   RO            2    i.FRAME_INIT        main.o
    0x08002714   0x00000220   Code   RO            3    i.FRAME_INIT1       main.o
    0x08002934   0x00000040   Code   RO         1361    i.GPIO_EXTILineConfig  stm32f10x_gpio.o
    0x08002974   0x00000116   Code   RO         1364    i.GPIO_Init         stm32f10x_gpio.o
    0x08002a8a   0x00000002   PAD
    0x08002a8c   0x00000090   Code   RO         1366    i.GPIO_PinRemapConfig  stm32f10x_gpio.o
    0x08002b1c   0x00000012   Code   RO         1368    i.GPIO_ReadInputDataBit  stm32f10x_gpio.o
    0x08002b2e   0x00000004   Code   RO         1371    i.GPIO_ResetBits    stm32f10x_gpio.o
    0x08002b32   0x00000004   Code   RO         1372    i.GPIO_SetBits      stm32f10x_gpio.o
    0x08002b36   0x00000002   PAD
    0x08002b38   0x00000050   Code   RO         3353    i.Get_Adc_Average   adc.o
    0x08002b88   0x00000028   Code   RO         3260    i.KEY_Init          key.o
    0x08002bb0   0x0000021c   Code   RO            4    i.KEY_Scan          main.o
    0x08002dcc   0x0000017c   Code   RO         3261    i.KEY_Scan1         key.o
    0x08002f48   0x00000030   Code   RO         3569    i.LCD_Clear         lcd.o
    0x08002f78   0x000000b0   Code   RO         3573    i.LCD_DrawLine      lcd.o
    0x08003028   0x00000020   Code   RO         3574    i.LCD_DrawPoint     lcd.o
    0x08003048   0x00000258   Code   RO         3577    i.LCD_Init          lcd.o
    0x080032a0   0x00000034   Code   RO         3579    i.LCD_SetCursor     lcd.o
    0x080032d4   0x0000025c   Code   RO         3581    i.LCD_ShowChar2     lcd.o
    0x08003530   0x00000066   Code   RO         3583    i.LCD_ShowString    lcd.o
    0x08003596   0x00000002   PAD
    0x08003598   0x00000038   Code   RO         3586    i.LCD_WR_DATA       lcd.o
    0x080035d0   0x00000030   Code   RO         3587    i.LCD_WR_DATA8      lcd.o
    0x08003600   0x00000030   Code   RO         3588    i.LCD_WR_REG        lcd.o
    0x08003630   0x00000010   Code   RO         3590    i.LCD_WriteRAM_Prepare  lcd.o
    0x08003640   0x000000da   Code   RO            5    i.NVIC_Config       main.o
    0x0800371a   0x00000002   PAD
    0x0800371c   0x00000070   Code   RO          285    i.NVIC_Init         misc.o
    0x0800378c   0x00000014   Code   RO          286    i.NVIC_PriorityGroupConfig  misc.o
    0x080037a0   0x00000024   Code   RO            6    i.NVIC_SystemReset  main.o
    0x080037c4   0x00000018   Code   RO         1787    i.RCC_ADCCLKConfig  stm32f10x_rcc.o
    0x080037dc   0x00000020   Code   RO         1788    i.RCC_AHBPeriphClockCmd  stm32f10x_rcc.o
    0x080037fc   0x00000020   Code   RO         1789    i.RCC_APB1PeriphClockCmd  stm32f10x_rcc.o
    0x0800381c   0x00000020   Code   RO         1790    i.RCC_APB1PeriphResetCmd  stm32f10x_rcc.o
    0x0800383c   0x00000020   Code   RO         1791    i.RCC_APB2PeriphClockCmd  stm32f10x_rcc.o
    0x0800385c   0x00000020   Code   RO         1792    i.RCC_APB2PeriphResetCmd  stm32f10x_rcc.o
    0x0800387c   0x0000004c   Code   RO         1798    i.RCC_DeInit        stm32f10x_rcc.o
    0x080038c8   0x000000d4   Code   RO         1799    i.RCC_GetClocksFreq  stm32f10x_rcc.o
    0x0800399c   0x0000003c   Code   RO         1800    i.RCC_GetFlagStatus  stm32f10x_rcc.o
    0x080039d8   0x00000010   Code   RO         1802    i.RCC_GetSYSCLKSource  stm32f10x_rcc.o
    0x080039e8   0x00000018   Code   RO         1803    i.RCC_HCLKConfig    stm32f10x_rcc.o
    0x08003a00   0x0000004c   Code   RO         1804    i.RCC_HSEConfig     stm32f10x_rcc.o
    0x08003a4c   0x00000018   Code   RO         1810    i.RCC_PCLK1Config   stm32f10x_rcc.o
    0x08003a64   0x00000018   Code   RO         1811    i.RCC_PCLK2Config   stm32f10x_rcc.o
    0x08003a7c   0x0000000c   Code   RO         1812    i.RCC_PLLCmd        stm32f10x_rcc.o
    0x08003a88   0x0000001c   Code   RO         1813    i.RCC_PLLConfig     stm32f10x_rcc.o
    0x08003aa4   0x00000018   Code   RO         1816    i.RCC_SYSCLKConfig  stm32f10x_rcc.o
    0x08003abc   0x00000038   Code   RO         1818    i.RCC_WaitForHSEStartUp  stm32f10x_rcc.o
    0x08003af4   0x00000020   Code   RO         3505    i.Rcc_init          rcc.o
    0x08003b14   0x000000e4   Code   RO            7    i.Ref_LCD           main.o
    0x08003bf8   0x00000110   Code   RO         3732    i.SPI1_Init         spi.o
    0x08003d08   0x00000018   Code   RO         2274    i.SPI_Cmd           stm32f10x_spi.o
    0x08003d20   0x0000003c   Code   RO         2287    i.SPI_Init          stm32f10x_spi.o
    0x08003d5c   0x00000022   Code   RO         3733    i.SPI_WriteByte     spi.o
    0x08003d7e   0x00000022   Code   RO         3526    i.STMFLASH_Read     flash.o
    0x08003da0   0x00000006   Code   RO         3527    i.STMFLASH_ReadHalfWord  flash.o
    0x08003da6   0x00000002   PAD
    0x08003da8   0x000000e8   Code   RO         3528    i.STMFLASH_Write    flash.o
    0x08003e90   0x00000026   Code   RO         3529    i.STMFLASH_Write_NoCheck  flash.o
    0x08003eb6   0x00000008   Code   RO          222    i.SetSysClock       system_stm32f10x.o
    0x08003ebe   0x00000002   PAD
    0x08003ec0   0x000000e0   Code   RO          223    i.SetSysClockTo72   system_stm32f10x.o
    0x08003fa0   0x000000c0   Code   RO         3328    i.Speed_PIDAdjust   pid.o
    0x08004060   0x00000020   Code   RO         3329    i.Speed_PIDInit     pid.o
    0x08004080   0x00000028   Code   RO          289    i.SysTick_CLKSourceConfig  misc.o
    0x080040a8   0x00000060   Code   RO          225    i.SystemInit        system_stm32f10x.o
    0x08004108   0x0000006a   Code   RO         3506    i.System_clk_set    rcc.o
    0x08004172   0x00000002   PAD
    0x08004174   0x00000080   Code   RO         2416    i.TI1_Config        stm32f10x_tim.o
    0x080041f4   0x00000098   Code   RO         2417    i.TI2_Config        stm32f10x_tim.o
    0x0800428c   0x00000090   Code   RO         2418    i.TI3_Config        stm32f10x_tim.o
    0x0800431c   0x00000098   Code   RO         2419    i.TI4_Config        stm32f10x_tim.o
    0x080043b4   0x00000010   Code   RO          180    i.TIM1_TRG_COM_IRQHandler  stm32f10x_it.o
    0x080043c4   0x00000040   Code   RO         3387    i.TIM2_IRQHandler   tim.o
    0x08004404   0x00000036   Code   RO         3388    i.TIM2_Init         tim.o
    0x0800443a   0x00000002   PAD
    0x0800443c   0x00000118   Code   RO          181    i.TIM3_IRQHandler   stm32f10x_it.o
    0x08004554   0x000000c0   Code   RO         3389    i.TIM4_IRQHandler   tim.o
    0x08004614   0x00000038   Code   RO         3390    i.TIM4_Init         tim.o
    0x0800464c   0x00000020   Code   RO         2421    i.TIM_BDTRConfig    stm32f10x_tim.o
    0x0800466c   0x00000006   Code   RO         2427    i.TIM_ClearITPendingBit  stm32f10x_tim.o
    0x08004672   0x00000018   Code   RO         2432    i.TIM_Cmd           stm32f10x_tim.o
    0x0800468a   0x0000001e   Code   RO         2434    i.TIM_CtrlPWMOutputs  stm32f10x_tim.o
    0x080046a8   0x000001e8   Code   RO         2437    i.TIM_DeInit        stm32f10x_tim.o
    0x08004890   0x00000022   Code   RO         2453    i.TIM_GetITStatus   stm32f10x_tim.o
    0x080048b2   0x00000002   PAD
    0x080048b4   0x000000ac   Code   RO         2455    i.TIM_ICInit        stm32f10x_tim.o
    0x08004960   0x00000012   Code   RO         2457    i.TIM_ITConfig      stm32f10x_tim.o
    0x08004972   0x00000002   PAD
    0x08004974   0x00000098   Code   RO         2461    i.TIM_OC1Init       stm32f10x_tim.o
    0x08004a0c   0x00000012   Code   RO         2464    i.TIM_OC1PreloadConfig  stm32f10x_tim.o
    0x08004a1e   0x00000002   PAD
    0x08004a20   0x000000a4   Code   RO         2466    i.TIM_OC2Init       stm32f10x_tim.o
    0x08004ac4   0x0000001a   Code   RO         2469    i.TIM_OC2PreloadConfig  stm32f10x_tim.o
    0x08004ade   0x00000002   PAD
    0x08004ae0   0x000000a0   Code   RO         2471    i.TIM_OC3Init       stm32f10x_tim.o
    0x08004b80   0x00000012   Code   RO         2474    i.TIM_OC3PreloadConfig  stm32f10x_tim.o
    0x08004b92   0x00000002   PAD
    0x08004b94   0x0000007c   Code   RO         2476    i.TIM_OC4Init       stm32f10x_tim.o
    0x08004c10   0x00000018   Code   RO         2484    i.TIM_SelectHallSensor  stm32f10x_tim.o
    0x08004c28   0x00000012   Code   RO         2485    i.TIM_SelectInputTrigger  stm32f10x_tim.o
    0x08004c3a   0x00000012   Code   RO         2486    i.TIM_SelectMasterSlaveMode  stm32f10x_tim.o
    0x08004c4c   0x00000012   Code   RO         2489    i.TIM_SelectOutputTrigger  stm32f10x_tim.o
    0x08004c5e   0x00000012   Code   RO         2490    i.TIM_SelectSlaveMode  stm32f10x_tim.o
    0x08004c70   0x00000012   Code   RO         2498    i.TIM_SetIC1Prescaler  stm32f10x_tim.o
    0x08004c82   0x0000001a   Code   RO         2499    i.TIM_SetIC2Prescaler  stm32f10x_tim.o
    0x08004c9c   0x00000012   Code   RO         2500    i.TIM_SetIC3Prescaler  stm32f10x_tim.o
    0x08004cae   0x0000001a   Code   RO         2501    i.TIM_SetIC4Prescaler  stm32f10x_tim.o
    0x08004cc8   0x000000a4   Code   RO         2503    i.TIM_TimeBaseInit  stm32f10x_tim.o
    0x08004d6c   0x00000044   Code   RO         3281    i.USART1_Config     usart2.o
    0x08004db0   0x00000048   Code   RO         3282    i.USART1_GPIOConfig  usart2.o
    0x08004df8   0x00000038   Code   RO         3283    i.USART1_IRQHandler  usart2.o
    0x08004e30   0x00000012   Code   RO         2964    i.USART_ClearFlag   stm32f10x_usart.o
    0x08004e42   0x00000018   Code   RO         2968    i.USART_Cmd         stm32f10x_usart.o
    0x08004e5a   0x0000001a   Code   RO         2971    i.USART_GetFlagStatus  stm32f10x_usart.o
    0x08004e74   0x00000054   Code   RO         2972    i.USART_GetITStatus  stm32f10x_usart.o
    0x08004ec8   0x0000004a   Code   RO         2974    i.USART_ITConfig    stm32f10x_usart.o
    0x08004f12   0x00000002   PAD
    0x08004f14   0x000000d8   Code   RO         2975    i.USART_Init        stm32f10x_usart.o
    0x08004fec   0x0000000a   Code   RO         2982    i.USART_ReceiveData  stm32f10x_usart.o
    0x08004ff6   0x00000002   PAD
    0x08004ff8   0x00000140   Code   RO            8    i.USART_Reci        main.o
    0x08005138   0x00000008   Code   RO         2985    i.USART_SendData    stm32f10x_usart.o
    0x08005140   0x00000028   Code   RO         4002    i.__ARM_fpclassify  m_ws.l(fpclassify.o)
    0x08005168   0x0000000e   Code   RO         3790    i._is_digit         c_w.l(__printf_wp.o)
    0x08005176   0x00000002   PAD
    0x08005178   0x00000044   Code   RO         3476    i.delay_init        delay.o
    0x080051bc   0x0000004c   Code   RO         3477    i.delay_ms          delay.o
    0x08005208   0x0000004c   Code   RO         3478    i.delay_us          delay.o
    0x08005254   0x00000070   Code   RO         3207    i.huanxiang         bldc.o
    0x080052c4   0x0000023c   Code   RO            9    i.main              main.o
    0x08005500   0x0000017c   Code   RO           10    i.mes_show          main.o
    0x0800567c   0x000001ac   Code   RO           11    i.mes_show1         main.o
    0x08005828   0x0000008a   Code   RO         3284    i.uprintf           usart2.o
    0x080058b2   0x00000002   PAD
    0x080058b4   0x0000002c   Code   RO         3998    locale$$code        c_w.l(lc_numeric_c.o)
    0x080058e0   0x0000002c   Code   RO         4069    locale$$code        c_w.l(lc_ctype_c.o)
    0x0800590c   0x00000062   Code   RO         3807    x$fpl$d2f           fz_ws.l(d2f.o)
    0x0800596e   0x00000002   PAD
    0x08005970   0x000002b0   Code   RO         3810    x$fpl$ddiv          fz_ws.l(ddiv.o)
    0x08005c20   0x00000026   Code   RO         3813    x$fpl$dfltu         fz_ws.l(dflt_clz.o)
    0x08005c46   0x00000002   PAD
    0x08005c48   0x00000154   Code   RO         3819    x$fpl$dmul          fz_ws.l(dmul.o)
    0x08005d9c   0x0000009c   Code   RO         3929    x$fpl$dnaninf       fz_ws.l(dnaninf.o)
    0x08005e38   0x0000000c   Code   RO         3931    x$fpl$dretinf       fz_ws.l(dretinf.o)
    0x08005e44   0x00000056   Code   RO         3821    x$fpl$f2d           fz_ws.l(f2d.o)
    0x08005e9a   0x00000002   PAD
    0x08005e9c   0x000000c4   Code   RO         3823    x$fpl$fadd          fz_ws.l(faddsub_clz.o)
    0x08005f60   0x00000018   Code   RO         3933    x$fpl$fcmpinf       fz_ws.l(fcmpi.o)
    0x08005f78   0x00000184   Code   RO         3830    x$fpl$fdiv          fz_ws.l(fdiv.o)
    0x080060fc   0x00000068   Code   RO         3833    x$fpl$feqf          fz_ws.l(feqf.o)
    0x08006164   0x00000036   Code   RO         3835    x$fpl$ffix          fz_ws.l(ffix.o)
    0x0800619a   0x00000002   PAD
    0x0800619c   0x0000003e   Code   RO         3839    x$fpl$ffixu         fz_ws.l(ffixu.o)
    0x080061da   0x00000002   PAD
    0x080061dc   0x00000030   Code   RO         3844    x$fpl$fflt          fz_ws.l(fflt_clz.o)
    0x0800620c   0x00000026   Code   RO         3843    x$fpl$ffltu         fz_ws.l(fflt_clz.o)
    0x08006232   0x00000002   PAD
    0x08006234   0x00000068   Code   RO         3849    x$fpl$fleqf         fz_ws.l(fleqf.o)
    0x0800629c   0x00000102   Code   RO         3851    x$fpl$fmul          fz_ws.l(fmul.o)
    0x0800639e   0x0000008c   Code   RO         3935    x$fpl$fnaninf       fz_ws.l(fnaninf.o)
    0x0800642a   0x0000000a   Code   RO         3937    x$fpl$fretinf       fz_ws.l(fretinf.o)
    0x08006434   0x00000062   Code   RO         3853    x$fpl$frleqf        fz_ws.l(frleqf.o)
    0x08006496   0x00000002   PAD
    0x08006498   0x000000ea   Code   RO         3825    x$fpl$fsub          fz_ws.l(faddsub_clz.o)
    0x08006582   0x00000004   Code   RO         3855    x$fpl$printf1       fz_ws.l(printf1.o)
    0x08006586   0x00000000   Code   RO         3939    x$fpl$usenofp       fz_ws.l(usenofp.o)
    0x08006586   0x00013ab0   Data   RO         3593    .constdata          lcd.o
    0x0801a036   0x00000011   Data   RO         3798    .constdata          c_w.l(__printf_flags_ss_wp.o)
    0x0801a047   0x00000001   PAD
    0x0801a048   0x00000008   Data   RO         3877    .constdata          c_w.l(_printf_wctomb.o)
    0x0801a050   0x00000028   Data   RO         3906    .constdata          c_w.l(_printf_hex_int_ll_ptr.o)
    0x0801a078   0x00000094   Data   RO         3971    .constdata          c_w.l(bigflt0.o)
    0x0801a10c   0x00000020   Data   RO         4147    Region$$Table       anon$$obj.o
    0x0801a12c   0x0000001c   Data   RO         3997    locale$$data        c_w.l(lc_numeric_c.o)
    0x0801a148   0x00000110   Data   RO         4068    locale$$data        c_w.l(lc_ctype_c.o)


    Execution Region RW_IRAM1 (Base: 0x20000000, Size: 0x00000c08, Max: 0x00005000, ABSOLUTE)

    Base Addr    Size         Type   Attr      Idx    E Section Name        Object

    0x20000000   0x00000031   Data   RW           13    .data               main.o
    0x20000031   0x00000003   PAD
    0x20000034   0x0000000c   Data   RW          183    .data               stm32f10x_it.o
    0x20000040   0x00000014   Data   RW          226    .data               system_stm32f10x.o
    0x20000054   0x00000014   Data   RW         1819    .data               stm32f10x_rcc.o
    0x20000068   0x00000008   Data   RW         3262    .data               key.o
    0x20000070   0x00000002   Data   RW         3286    .data               usart2.o
    0x20000072   0x00000008   Data   RW         3354    .data               adc.o
    0x2000007a   0x00000002   PAD
    0x2000007c   0x00000009   Data   RW         3391    .data               tim.o
    0x20000085   0x00000003   PAD
    0x20000088   0x0000000b   Data   RW         3433    .data               exti.o
    0x20000093   0x00000001   PAD
    0x20000094   0x00000004   Data   RW         3479    .data               delay.o
    0x20000098   0x00000004   Data   RW         3594    .data               lcd.o
    0x2000009c   0x0000001c   Zero   RW           12    .bss                main.o
    0x200000b8   0x00000018   Zero   RW          182    .bss                stm32f10x_it.o
    0x200000d0   0x000000c8   Zero   RW         3285    .bss                usart2.o
    0x20000198   0x00000400   Zero   RW         3531    .bss                flash.o
    0x20000598   0x0000000a   Zero   RW         3592    .bss                lcd.o
    0x200005a2   0x00000002   PAD
    0x200005a4   0x00000060   Zero   RW         4005    .bss                c_w.l(libspace.o)
    0x20000604   0x00000004   PAD
    0x20000608   0x00000200   Zero   RW          279    HEAP                startup_stm32f10x_md.o
    0x20000808   0x00000400   Zero   RW          278    STACK               startup_stm32f10x_md.o


==============================================================================

Image component sizes


      Code (inc. data)   RO Data    RW Data    ZI Data      Debug   Object Name

       402         40          0          8          0       2652   adc.o
       892         58          0          0          0       3777   bldc.o
         0          0          0          0          0         32   core_cm3.o
       220         26          0          4          0       1603   delay.o
       512         52          0         11          0       3303   exti.o
       310         10          0          0       1024       3233   flash.o
       420         20          0          8          0       1749   key.o
      1782        102      80560          4         10       9752   lcd.o
      4038        558          0         49         28     295995   main.o
       172         22          0          0          0       2061   misc.o
       224         20          0          0          0       2107   pid.o
       138          6          0          0          0        964   rcc.o
       306         16          0          0          0       1500   spi.o
        64         26        236          0       1536        804   startup_stm32f10x_md.o
       500         24          0          0          0       8502   stm32f10x_adc.o
       416          8          0          0          0       3426   stm32f10x_dma.o
       200         18          0          0          0       2104   stm32f10x_exti.o
       326         42          0          0          0      10823   stm32f10x_flash.o
       512         10          0          0          0       5084   stm32f10x_gpio.o
       296         40          0         12         24       1380   stm32f10x_it.o
       816        116          0         20          0      12663   stm32f10x_rcc.o
        84          0          0          0          0       9069   stm32f10x_spi.o
      2390        264          0          0          0      18687   stm32f10x_tim.o
       460          6          0          0          0       6671   stm32f10x_usart.o
       328         28          0         20          0       2109   system_stm32f10x.o
       366         52          0          9          0       2335   tim.o
       334         26          0          2        200       3476   usart2.o

    ----------------------------------------------------------------------
     16548       1590      80828        156       2824     415861   Object Totals
         0          0         32          0          0          0   (incl. Generated)
        40          0          0          9          2          0   (incl. Padding)

    ----------------------------------------------------------------------

      Code (inc. data)   RO Data    RW Data    ZI Data      Debug   Library Member Name

        44          6          0          0          0         84   __2sprintf.o
         8          0          0          0          0         68   __main.o
       392          4         17          0          0         92   __printf_flags_ss_wp.o
        14          0          0          0          0         68   __printf_wp.o
         0          0          0          0          0          0   __rtentry.o
        12          0          0          0          0          0   __rtentry2.o
         6          0          0          0          0          0   __rtentry4.o
        52          8          0          0          0          0   __scatter.o
        26          0          0          0          0          0   __scatter_copy.o
        28          0          0          0          0          0   __scatter_zi.o
         6          0          0          0          0          0   _printf_a.o
         6          0          0          0          0          0   _printf_c.o
        44          0          0          0          0        108   _printf_char.o
        48          6          0          0          0         96   _printf_char_common.o
        40          0          0          0          0         68   _printf_charcount.o
         6          0          0          0          0          0   _printf_d.o
       120         16          0          0          0         92   _printf_dec.o
         6          0          0          0          0          0   _printf_e.o
         6          0          0          0          0          0   _printf_f.o
      1050          0          0          0          0        216   _printf_fp_dec.o
       128         16          0          0          0         84   _printf_fp_infnan.o
         6          0          0          0          0          0   _printf_g.o
       148          4         40          0          0        160   _printf_hex_int_ll_ptr.o
         6          0          0          0          0          0   _printf_i.o
       178          0          0          0          0         88   _printf_intcommon.o
        10          0          0          0          0          0   _printf_l.o
         6          0          0          0          0          0   _printf_lc.o
        10          0          0          0          0          0   _printf_ll.o
         6          0          0          0          0          0   _printf_lld.o
         6          0          0          0          0          0   _printf_lli.o
         6          0          0          0          0          0   _printf_llo.o
         6          0          0          0          0          0   _printf_llu.o
         6          0          0          0          0          0   _printf_llx.o
       124         16          0          0          0         92   _printf_longlong_dec.o
         6          0          0          0          0          0   _printf_ls.o
         6          0          0          0          0          0   _printf_n.o
         6          0          0          0          0          0   _printf_o.o
       112          8          0          0          0        124   _printf_oct_int_ll.o
         6          0          0          0          0          0   _printf_p.o
        78          0          0          0          0        108   _printf_pad.o
         0          0          0          0          0          0   _printf_percent.o
         4          0          0          0          0          0   _printf_percent_end.o
         6          0          0          0          0          0   _printf_s.o
        82          0          0          0          0         80   _printf_str.o
        36          0          0          0          0         84   _printf_truncate.o
         6          0          0          0          0          0   _printf_u.o
        44          0          0          0          0        108   _printf_wchar.o
       188          6          8          0          0         92   _printf_wctomb.o
         6          0          0          0          0          0   _printf_x.o
        16          0          0          0          0         68   _snputc.o
        10          0          0          0          0         68   _sputc.o
        64          0          0          0          0         92   _wcrtomb.o
       220          4        148          0          0         96   bigflt0.o
      1910        128          0          0          0        672   btod.o
        52          4          0          0          0         80   c89vsnprintf.o
        12          0          0          0          0         72   exit.o
         6          0          0          0          0        152   heapauxi.o
         0          0          0          0          0          0   indicate_semi.o
        44         10        272          0          0         76   lc_ctype_c.o
        44         10         28          0          0         76   lc_numeric_c.o
         2          0          0          0          0          0   libinit.o
        30          0          0          0          0          0   libinit2.o
         2          0          0          0          0          0   libshutdown.o
         2          0          0          0          0          0   libshutdown2.o
         8          4          0          0         96         68   libspace.o
       138          0          0          0          0         80   lludiv10.o
        16          4          0          0          0         76   rt_ctype_table.o
         8          4          0          0          0         68   rt_locale_intlibspace.o
         2          0          0          0          0          0   rtexit.o
        10          0          0          0          0          0   rtexit2.o
       128          0          0          0          0         68   strcmpv7m.o
        12          4          0          0          0         68   sys_exit.o
        74          0          0          0          0         80   sys_stackheap_outer.o
         2          0          0          0          0         68   use_no_semi.o
        98          4          0          0          0         92   d2f.o
       688        140          0          0          0        208   ddiv.o
        38          0          0          0          0         68   dflt_clz.o
       340         12          0          0          0        104   dmul.o
       156          4          0          0          0         92   dnaninf.o
        12          0          0          0          0         68   dretinf.o
        86          4          0          0          0         84   f2d.o
       430          8          0          0          0        168   faddsub_clz.o
        24          0          0          0          0         68   fcmpi.o
       388         76          0          0          0         96   fdiv.o
       104          4          0          0          0         84   feqf.o
        54          4          0          0          0         84   ffix.o
        62          4          0          0          0         84   ffixu.o
        86          0          0          0          0        136   fflt_clz.o
       104          4          0          0          0         84   fleqf.o
       258          4          0          0          0         84   fmul.o
       140          4          0          0          0         84   fnaninf.o
        10          0          0          0          0         68   fretinf.o
        98          0          0          0          0         68   frleqf.o
         4          0          0          0          0         68   printf1.o
         0          0          0          0          0          0   usenofp.o
        40          0          0          0          0         68   fpclassify.o

    ----------------------------------------------------------------------
      9206        534        514          0        100       5900   Library Totals
        28          0          1          0          4          0   (incl. Padding)

    ----------------------------------------------------------------------

      Code (inc. data)   RO Data    RW Data    ZI Data      Debug   Library Name

      5958        262        513          0         96       3940   c_w.l
      3180        272          0          0          0       1892   fz_ws.l
        40          0          0          0          0         68   m_ws.l

    ----------------------------------------------------------------------
      9206        534        514          0        100       5900   Library Totals

    ----------------------------------------------------------------------

==============================================================================


      Code (inc. data)   RO Data    RW Data    ZI Data      Debug   

     25754       2124      81342        156       2924     410473   Grand Totals
     25754       2124      81342        156       2924     410473   ELF Image Totals
     25754       2124      81342        156          0          0   ROM Totals

==============================================================================

    Total RO  Size (Code + RO Data)               107096 ( 104.59kB)
    Total RW  Size (RW Data + ZI Data)              3080 (   3.01kB)
    Total ROM Size (Code + RO Data + RW Data)     107252 ( 104.74kB)

==============================================================================

