:020000040800F2
:10000000080C0020350200083D0200083F020008ED
:1000100041020008430200084502000800000000F9
:10002000000000000000000000000000470200087F
:1000300049020008000000004B0200084D020008C1
:100040004F0200084F0200084F0200084F0200084C
:100050004F0200084F02000829210008A9220008C9
:100060004F0200084F0200084F0200084F0200082C
:100070004F0200084F0200084F0200084F0200081C
:100080004F0200084F020008191800084F0200082C
:100090004F0200084F0200084F0200084F020008FC
:1000A0004F0200084F020008B54300084F02000845
:1000B000C54300083D440008554500084F020008AC
:1000C0004F0200084F0200084F0200084F020008CC
:1000D0004F020008F94D00084F0200084F020008C7
:1000E000552200084F0200084F02000800F002F8F5
:1000F00000F090F80AA090E8000C82448344AAF132
:100100000107DA4501D100F085F8AFF2090EBAE82F
:100110000F0013F0010F18BFFB1A43F0010318473B
:10012000EC9F01000CA00100103A24BF78C878C1F0
:10013000FAD8520724BF30C830C144BF04680C60ED
:10014000704700000023002400250026103A28BF35
:1001500078C1FBD8520728BF30C148BF0B60704739
:100160006E2900F07582702900F0CD85662906F0B1
:100170000882652906F00582672906F00282612956
:10018000AFF3008003681B0A28BF41F08001692992
:1001900000F0A080642900F09D80752900F09A800D
:1001A0006F2900F05B85782900F09985E92900F036
:1001B000F584E42900F0F284F52900F0EF84EF29BA
:1001C00000F05885F82900F098850368DB0928BFFE
:1001D00041F08001632900F03586732900F03A86EA
:1001E000E32900F04586F32900F04A860020704795
:1001F0001FB500F093FD04000020002105F070FB06
:10020000401C60600020002105F054FBE0601FBD31
:1002100010B510BD00F0CAFE1146FFF7E9FF05F06A
:1002200051F800F0F1FE03B4FFF7F2FF03BC00F059
:1002300031FF00000948804709480047FEE7FEE714
:10024000FEE7FEE7FEE7FEE7FEE7FEE7FEE7FEE786
:1002500004480549054A064B70470000A9400008BC
:10026000ED00000808060020080C00200808002007
:10027000080800207CB51D4616460C00009001D0F1
:100280002044401E074B7B442A4669460190304675
:1002900000F005FC05461CB10020694600F012FC88
:1002A00028467CBD450800000FB41CB5084B06AAC3
:1002B0007B4469460090059800F0F1FB044600205D
:1002C000694600F0FFFB20461CBC5DF814FB0000F3
:1002D000110800002DE9F041064600241068752938
:1002E000314616A510D000F01FF9002802DA40426E
:1002F00013A507E031688A0701D512A502E0490776
:1003000004D511A5012401E000F017F900210A220B
:1003100006F1240709E0B0FBF2FCB0FBF2F302FBAC
:100320001C00303078541846491C0028F3D123466D
:100330002A463046BDE8F04100F031B90000000027
:100340002D0000002B000000200000002DE9F05FD0
:10035000894604464FF0000ADFF874B1FB44C0F848
:1003600020A02046E1688847002874D0252806D0C0
:10037000D4E901219047206A401C2062F1E7002661
:100380005F462046E16888472028054607DB312D77
:1003900005D2781910F8200C08B10643F1E7B00730
:1003A00001D526F00406C4F81CA00027C4F818A044
:1003B0002A2D09D0284604F0D7FE38B304EB87086D
:1003C000303DC8F8185019E059F8041B204604EBDA
:1003D00087029161E1688847012F054618D1E069DD
:1003E000002820DA26F020061DE0D8F8180000EBDF
:1003F000800005EB40003038C8F818002046E1685E
:100400008847054604F0B0FE0028EED1012F0AD03F
:100410002E2D08D12046E16888477F1C0546022F13
:1004200046F02006C4DBA069002803DA404246F00B
:100430000106A061F00701D026F010066C2D0BD04C
:10044000682D09D04C2D39D06A2D35D0742D35D07A
:100450007A2D33D016E038E0E1682F4620468847F1
:10046000B842054609D16C2F26D04FF48060E16870
:10047000064320468847054604E06C2F1AD04FF407
:10048000807006430DB3A5F14100192802D820352C
:1004900046F400664A462946204626604E46FFF747
:1004A0005FFE80B101280BD0F61D26F0070000F199
:1004B000080956E74020E4E78020D8E70020D6E787
:1004C00006F104094DE7284652E7206ABDE8F09F8F
:1004D000D69C010070477047704770B50446856927
:1004E0000068C10601D5302600E02026C00707D0ED
:1004F00070BDD4E9012130469047206A401C20623B
:100500006D1EF6D570BD70B5044685690078C007CC
:1005100007D170BDD4E9012120209047206A401CFA
:1005200020626D1EF6D570BD09684A0501D540B23E
:100530007047C905FCD500B2704709684A0501D566
:10054000C0B27047C905FCD580B2704770B50C4683
:100550000546012A05D02878800600D5EA690023DF
:1005600002E0012305E05B1C934202D2E05C00281C
:10057000F9D1A869E618C01AA861286A1844286247
:100580002846FFF7AAFF04E0D5E9012114F8010B82
:100590009047B442F8D32846FFF7B5FF70BD2DE968
:1005A000F0470D4699469246044600F1240801683A
:1005B000880604D5E06921F01001216000E00120E7
:1005C000A84201DD471B00E00027A1697A1902EB70
:1005D0000900081AA0612078C00602D42046FFF75F
:1005E0007CFF002608E0D4E901211AF806009047B4
:1005F000206A401C761C20624E45F4DB2078C00641
:100600000AD52046FFF769FF06E0D4E90121302032
:100610009047206A401C2062381EA7F10107F4DCD5
:1006200007E0D4E9012118F805009047206A401C32
:100630002062281EA5F10105F3DC2046FFF763FFC9
:100640002078000602D50220BDE8F0870120FBE7F4
:1006500011680268006A530501D508700AE0D305E5
:1006600001D5088006E0130603D5C217C1E90002D0
:1006700000E008600120704770472DE9FF4F0C46ED
:100680001E464FF0FF378BB0D2E90001DDF86080E5
:100690000A908A46C1F30A5505B93D46002108462D
:1006A0004FF00000BAF1000F00F4400005DA00EB53
:1006B00080004FF4400101EA50004FEA9059B9F12F
:1006C000010F00DDB9460A9850EA4A000ED044F600
:1006D0001050A5F2FF3545432F14B8F1000F1ED07E
:1006E0007542291E1EDDC9F100021CE0B8F1010FA0
:1006F0004FF0000001D0302103E0F24305E0215427
:10070000401CB042FBDB30460022002121540B99F3
:10071000C1F80880C1E900200FB0BDE8F08FBD1B13
:100720006D1CDEE74A4600DA694206A800F0ACFB21
:1007300006AB93E8070003AB83E8070050460A992D
:1007400000F0AFFC8DE80700A0F500501F380090C6
:100750000398002D09DD42F21F014A46084403A90F
:100760000390684600F00EFF08E0A0F500504A46EE
:100770001F3803A90390684600F018FF8DE80700B2
:100780000004000C03D04FF0FF30410800E0104699
:10079000B8F1000F03D00022009215461EE0751E2E
:1007A00005D400F0BFFA303262556D1EF9D5B3465C
:1007B0000122084302D000227F1C04E02078302868
:1007C00001D100227F1E002A099786D01DE0112D3D
:1007D00007DA00F0A7FA303262556D1C50EA0102C8
:1007E000F5D1084302D00098C8B10EE00021681E80
:1007F00005E0235C625C63542254401E491C814224
:10080000F7DBAB46A81B401E0990002004F80B0044
:100810000B98099AC0F80880C0E9002B7CE71126E4
:100820004FF0000859E72DE9F04F88460446D21DE5
:1008300022F0070191B0D1E90001CDE90A0104F0ED
:100840007FFC02460B98C00F01D02D2007E02068E6
:10085000810701D52B2002E0202101EAC000032AF4
:10086000099001D0072A05DB03464146204600F0E7
:100870009FFA0BE12078800601D5E06900E00620B0
:10088000B8F1650F814606D0B8F1660F18D0B8F1FF
:10089000670F70D131E00020B9F1110F009001DB3A
:1008A000112301E009F101030AAA01A90CA8FFF72D
:1008B000E4FEDDE90C70002609F10105834647E0FE
:1008C00001204B4600904FF000470AAA01A90CA84E
:1008D000FFF7D3FEDDE90DB00C995D46002610B997
:1008E00009F101000D18B9EB050003D4C0F1FF3682
:1008F00009F10105A5EB09002BE0B9F1010F01DABF
:100900004FF001090020B9F1110F0090484601DDB8
:10091000112300E003460AAA01A90CA8FFF7ADFEC7
:10092000DDE90C704D4600268346207800070AD486
:10093000AB4500DA5D4601A8012D04DD411911F82F
:10094000011C302907D04F4502DA17F1040F04DAF1
:10095000012082460FE06D1EEEE7002F02DCED1B4A
:100960003E4403E0781CA84200DD7D1CB81B00F16A
:10097000010A4FF000472078000703D4AA4501DBA5
:100980004FF0FF3A0021B7F1004F0DF143088DF809
:10099000431024D002202B23002F01DA7F422D2385
:1009A0000A21021EA0F1010000DC5FB197FBF1FCFF
:1009B00097FBF1F201FB1C7C17460CF1300C08F898
:1009C00001CDEEE7A8F1010003702188090501D5EA
:1009D000452100E06521A0F1010800F8011C0998FB
:1009E0000FA9A1EB0807FF1D00B10120411901EB80
:1009F000EA70A1693844081A401EA0612078C00638
:100A000002D42046FFF769FD099828B1D4E90121F5
:100A10009047206A401C20622078C00622D52046DC
:100A2000FFF75BFD1EE0002E04DBB34502DD01A8ED
:100A3000805D00E03020D4E901219047206A401C0D
:100A40002062761CAAF101005FEA000A0AD100F0D8
:100A500065F9C0680168405CD4E901219047206ACB
:100A6000401C2062281EA5F10105DCDC07E0D4E96A
:100A7000012118F8010B9047206A401C2062381EA3
:100A8000A7F10107F3DC2046FFF73DFD032011B07D
:100A900043E6000001694A1C02610878704700B50E
:100AA0008FB0CDE901310021059105497944CDE9A7
:100AB000031011466846FFF749FC0FB000BD000067
:100AC000E5FFFFFF0A6802F8010B0A607047D1E9F1
:100AD00000239A4202D2531C0B6010707047000032
:100AE0002DE9FF5F15468A460446DFF8AC80F844DE
:100AF0000027D8E900103E46CDE9001010E03AF892
:100B000016106A4602A800F02DFA411C07D0217881
:100B1000890603D5E269391891420DD80744761C3D
:100B20002078800602D5E069B84205DDAE42E6DBFA
:100B30003AF816000028E2D1A069C01BA061204647
:100B4000FFF7CBFCD8E90010CDE90010002017E03A
:100B50003AF818106A4602A800F004FAB0F1FF3F14
:100B600081460BD000250DF1080B05E0D4E90121E9
:100B70001BF8050090476D1C4D45F7D308F10100A7
:100B8000B0428046E4DB206A384420622046FFF70A
:100B9000BAFCBDE8FF9F0000569501002DE9F04129
:100BA0008046D21D22F007020025D2E90002F52975
:100BB00015A614D0011E72F1000106DA0023D0EB55
:100BC000030063EB020211A608E0D8F800108B07BF
:100BD00001D50FA602E0490701D50EA60125114651
:100BE000002408F1240704E000F09CF830323A5564
:100BF000641C50EA0102F7D12B463246214640469A
:100C0000BDE8F041FFF7CBBC000000002D00000064
:100C10002B0000002000000030B4002100F124046B
:100C200008E002F00705D208303542EA4372DB08DB
:100C30006554491C52EA0305F3D10468002310A24D
:100C4000250708D504F020040C4304D0C46901230F
:100C50000CA2641EC46130BCFFF7A1BC10B50446F1
:100C600021461068FFF769FC02462046BDE81040A7
:100C70000023D1E7D21D22F00701D1E90023CBE701
:100C80000000000030000000F0B40D4601880905A6
:100C900002D5214C7C4402E01F4C7C440E340021E0
:100CA00000F1240608E002F00F071209E75D42EAAE
:100CB00003721B097754491C52EA0307F3D10278E7
:100CC0000023120704D5702D06D009B10223113478
:100CD0002246F0BCFFF763BC01231034F8E770B57F
:100CE00004460D4621461068FFF727FC02462946B8
:100CF0002046BDE870400023C6E7D21D22F007035E
:100D0000D3E90023C0E70368126843F020030360BF
:100D10000823C3610023B7E7B89301000048704778
:100D2000C405002030B5B0F10A024FEA900E71F10F
:100D300000034EEA817EB0EB0E0061EB91014FEAB9
:100D4000101E4EEA017E10EB0E0041EB11114FEA2E
:100D5000102E4EEA016E10EB0E0041EB11214FEA0E
:100D6000104E4EEA014E10EB0E0041EB11414018BF
:100D700041F100014FEAD00040EA41704FEAD10151
:100D800010EB80054FEA810444EA907444EB0104BF
:100D90006D1944EB0404521BA3414FF0000348BFFC
:100DA0000A3200D530BD401C41F1000130BD0000C9
:100DB0002DE9F0411F46044603260168072A01F485
:100DC000006004DB08B116A505E016A503E008B134
:100DD00015A500E015A521F010002060A069C01E37
:100DE000A0610FB1401EA0612046FFF776FB4FB116
:100DF000D4E9012138469047206A401C2062C01C7B
:100E0000206206E0206AFAE7D4E9012115F8010B17
:100E10009047761EF8D22046FFF775FBBDE8F081BB
:100E20004E414E006E616E00494E4600696E66008E
:100E300010B5436913B1AFF3008001E0FFF786FB03
:100E4000012010BD127800F124010A7000224A70BE
:100E50000122EDE711684FF0FF32E9E710B5436971
:100E600013B1AFF3008001E0FFF73AFE012010BD9F
:100E7000128800F1240182840022C2840122EDE75D
:100E800011684FF0FF32E9E72DE9F0478146164639
:100E90008AB0334878440DC88DE80D003048784456
:100EA000801C03AC0DC884E80D0041F69B3008445B
:100EB000372190FBF1F290FBF1F5A5F1800501FBE4
:100EC00012041B3C02D56442012000E00020DFF840
:100ED00090A080460027FA44AAF1BE0A0DE0E00780
:100EE00009D03246684607EB47010AEB810100F062
:100EF0005DFB8DE8070064107F1C002CEFD1184FBC
:100F00007F44AC3F18E0E80714D007EB04100DF164
:100F1000180A90E80E008AE80E00C068F04201D17D
:100F200098190890324606A903A800F03FFB03ABCE
:100F300083E807006D10641C002DE4D13246694639
:100F4000B8F1000F03A802D000F01CFB01E000F094
:100F50002DFBC9E90001C9F808200AB0BDE8F087F7
:100F60005C92010070B516460C46054600F044F848
:100F7000036893F80101012806D0FF2C0FD8185DF3
:100F800068B101202C7070BDD3F8070132462146AC
:100F900003F2071303442846BDE8704018474FF09A
:100FA000FF3070BD00487047A40500207546FFF76C
:100FB000F9FFAE4605006946534620F00700854616
:100FC00018B020B5FFF744F9BDE820404FF0000607
:100FD0004FF000074FF000084FF0000B21F0070121
:100FE000AC46ACE8C009ACE8C009ACE8C009ACE864
:100FF000C0098D467047000010B5FFF78FFE001D39
:1010000010BD00BFDD4800000446AFF3008020465D
:10101000FFF709F94FF0013C50F8042B51F8043B5D
:101020009A4221D1A2EB0C03934313EACC1317D1BC
:1010300050F8042B51F8043B9A4215D1A2EB0C0353
:10104000934313EACC130BD150F8042B51F8043B13
:101050009A4209D1A2EB0C03934313EACC13DBD0E1
:101060004FF00000704700BFD01A01BAB1FA81F109
:1010700001F0180122FA01F0CB40C1F12001DBB2EE
:10108000C0B2C01A2CFA01F3D11A914311EAC3116C
:10109000E6D1704701491820ABBEFEE726000200EA
:1010A00070475FEA400C08BF91F0000F4FEA8C23B5
:1010B0004FEAC12243EA51514FEA1C5018BF00F5D4
:1010C000F0404FEA300018BF41F000415FEA6C5C2D
:1010D00000F02980BCF1FF3F08BF40F0804070471E
:1010E000130C06BF12044FF0100C4FF0000C130E3F
:1010F00004BF12020CF1080C130F04BF12010CF113
:10110000040C930F04BF92000CF1020CD30F04BF28
:1011100052000CF1010C11464FF00002A0F11F002B
:10112000A0EB0C00704711F0004F08BF704731F082
:1011300000413FF4D5AF0B0C06BF09044FF0100C73
:101140004FF0000C0B0E04BF09020CF1080C0B0F42
:1011500004BF09010CF1040C8B0F04BF89000CF1D2
:10116000020CCB0F04BF49000CF1010CCCF12003A1
:10117000A0EB0C0022FA03F302FA0CF241EA03019D
:1011800000F10100704720F07F4C80EA030023F05B
:101190007F47ACEB070303F57C5300F0004003F1FD
:1011A000FF032DE980494FEA154B09B44FEA144378
:1011B00025EA0B4E24EA03480FF2042606EB132718
:1011C00049083E785FEA320203FB0667C7F500076D
:1011D00007FB06F64FEA54374FEAD64606F10206F9
:1011E00007FB066CCCF1005C4FEA1C472CEA074C6D
:1011F00007FB06F40CFB06F504EB15464FEA9616C2
:1012000034BF00204FF000404FEAD13706FB07FC07
:101210004FEA1C4C0CFB0BF7D21B03FB0CF761EBEA
:1012200007010CFB0EF7B0EB074072EB17420CFB0B
:1012300008F734BFA2EB0742B2EB074261EB17415C
:101240004FEA0C444FEA910706FB07FC4FEA1C4C9F
:101250000CFB0BF7B0EBC74072EB573203FB0CF7FC
:1012600034BFA2EBC742B2EBC74261EB57310CFB74
:101270000EF7B0EBC70072EB57720CFB08F734BFE8
:10128000A2EBC702B2EBC70261EB5771039F4FEAB3
:10129000816141EA921104EBCC044FEAD1374FEA65
:1012A000826206FB07FC42EA90124FEA80604FEA36
:1012B0001C4C0CFB0BF7D21B03FB0CF761EB07017B
:1012C0000CFB0EF7B0EB074072EB17420CFB08F774
:1012D00034BFA2EB0742B2EB074261EB17414FEA82
:1012E0008C554FEA910704EB9C2406FB07FC4FEA60
:1012F0001C4C0CFB0BF7B0EBC74072EB573203FBF7
:101300000CF734BFA2EBC742B2EBC74261EB5731D7
:101310000CFB0EF7B0EBC70072EB57720CFB08F733
:1013200034BFA2EBC702B2EBC70261EB577115EBFA
:101330004C254FEA816141EA92114FEA82624FEAFD
:10134000D13742EA901206FB07FC44F100044FEA51
:1013500080604FEA1C4C0CFB0BF7D21B03FB0CF715
:1013600061EB07010CFB0EF7B0EB074072EB174285
:101370000CFB08F734BFA2EB0742B2EB074261EB6C
:10138000174115EB1C154FEA813141EA92414FEAB2
:10139000823242EA90424FEA80304FEA0C7644F1C2
:1013A000000448EA03434EEA0B484FF0000EB2EB4C
:1013B000080C71EB030724BF624639464EEB0E0E54
:1013C0004FF0000B0018524149414BEB0B0BB2EBB5
:1013D000080C71EB03077BF1000B24BF6246394612
:1013E0004EEB0E0E4FF0000B0018524149414BEBF3
:1013F0000B0BB2EB080C71EB03077BF1000B24BF66
:10140000624639464EEB0E0E51EA020718BF46F00F
:10141000010616EB0E7655F1000254F1000103D5DA
:10142000BDE88901BDE80088BDE88901BDE8004844
:10143000B619524141EB0101A3F1010370478080CD
:101440007F7E7D7C7B7A797877767675747372711E
:1014500071706F6E6E6D6C6C6B6A6A6968686766D6
:1014600066656464636362616160605F5F5E5E5D68
:101470005D5C5C5B5B5A5A595958585757565655DC
:1014800055555454535352525251515050504F4F3E
:101490004F4E4E4D4D4D4C4C4C4B4B4B4A4A4A498E
:1014A00049494848484747474746464645454544D1
:1014B0004444444343434342424242414141002B5E
:1014C00026D4770021D01CB54FEA370703B44FF07C
:1014D00010004FF010014FF000000FBCBDE81040AD
:1014E0000BF1010BBBF1010F08BF5FEA170722BF29
:1014F00012F1010211F101014FF0004143F100032B
:1015000000F0004043EA00007047F9D35708DAE7DB
:1015100046EA064613F1400F4FEA16461FDD13F167
:10152000200FDFBF16430A46002120335B42C8D09C
:10153000C3F1200746EA064602FA07F74FEA1646C5
:1015400046EA0706C3F1200722FA03F201FA07F779
:1015500021FA03F14FF0000342EA0702B1E746EA3D
:10156000020646EA06464FEA164646EA0106BCBFB0
:1015700046EA0646360C4FF000034FF000024FF0EB
:1015800000019EE72DE9C048934630B491E8380049
:1015900007C831EA400C48BF34EA430C03D5FFF7D3
:1015A000F2FDFFF78CFFF0BCBDE800882DE9C048D4
:1015B000934630B491E8380007C810F0804F08BF58
:1015C00013F0804F03D100F005F8FFF778FFF0BC6F
:1015D000BDE8008820F07F4780EA030023F07F4CBD
:1015E00007EB0C03A3F57C5300F00040A3F1FE03CE
:1015F00092F0000F00F0B38095F0000F00F07780BC
:101600002DE901494FEA11404FEA144621EA00480A
:1016100000FB06FC24EA064708FB06F607FB08F871
:1016200000FB07F718EB06484CEB164C4FEA124B41
:1016300018EB07484FEA15464CEB174022EA0B4ED1
:101640000BFB06FC25EA06470EFB06F607FB0EFE23
:101650000BFB07F71EEB064E4CEB164C4FF000064B
:101660001EEB074E4CEB174B18EB0B0840F100003C
:1016700018EB0E0B58EB000840F100008F1A4FF0EA
:1016800000013CBFC943661B14BFB5EB040C00212D
:101690003CBFC943F61B4FEA17444EEA8E0E27EAB9
:1016A00004454FEA1C4704FB07622CEA074C05FB84
:1016B00007F70CFB05F604FB0CFC16EB074642EBA8
:1016C000174216EB0C4642EB1C421BEB060658EB8E
:1016D0000202414146EA9E0601D5BDE80189B619DC
:1016E000524141EB0101A3F10103BDE801894FEA39
:1016F00014454FEA114724EA054621EA074C05FB49
:1017000007F406FB07F70CFB06F105FB0CFC11EBDD
:10171000074144EB17444FEA124711EB0C4144EBED
:101720001C4422EA074C05FB07F206FB07F70CFBFB
:1017300006F605FB0CFC16EB074642EB174216EBD0
:101740000C4642EB1C456A1854F1000148BF704733
:10175000B619524141EB0101A3F10103704795F025
:10176000000F37D04FEA11424FEA144721EA0246F0
:1017700024EA074C02FB07F106FB07F70CFB06F413
:1017800002FB0CFC14EB074441EB17414FEA1547F1
:1017900014EB0C4441EB1C4125EA074C02FB07F516
:1017A00006FB07F70CFB06F602FB0CFC16EB0746E4
:1017B00045EB174516EB0C4645EB1C42121951F14F
:1017C000000148BF7047B619524141EB0101A3F136
:1017D000010370474FEA14454FEA114724EA0546D2
:1017E00021EA074C05FB07F106FB07F70CFB06F2A5
:1017F0004FF0000605FB0CFC12EB074241EB1741D2
:1018000012EB0C4251EB1C4148BF7047921841EB60
:101810000101A3F101037047704721B1826842F0D2
:101820000102826003E0826822F001028260704758
:1018300021B1826842F48072826003E0826822F4FF
:10184000807282607047000010B5044612488442DE
:1018500008D10121401502F001F80021601501F0C6
:10186000FDFF17E00D48844208D10121001501F069
:10187000F5FF0021201501F0F1FF0BE0084884423C
:1018800008D10121C80301F0E9FF00214FF4004015
:1018900001F0E4FF10BD00000024014000280140D9
:1018A000003C0140014600208A6802F004020AB1AF
:1018B000012000E0002070470246002013680B4022
:1018C0000BB1012000E000207047014600208A682B
:1018D00002F008020AB1012000E000207047000079
:1018E00030B502460020002350680F4C20400D798F
:1018F0000C6844EA05242043506090680B4C20405B
:10190000D1E902542C434D7944EA450420439060C8
:10191000D06A20F470000C7C641EE4B2234340EAD9
:101920000350D06230BD0000FFFEF0FFFDF7F1FF75
:10193000F0B504460D4600200021092D11DDE068B8
:10194000A5F10A0606EB4607072606FA07F18843C3
:10195000A5F10A0606EB460603FA06F10843E06025
:101960000CE0206905EB4507072606FA07F18843D6
:1019700005EB450603FA06F108432061072A0FDA52
:10198000606B561E06EB86071F2606FA07F1884392
:10199000561E06EB860605FA06F10843606322E050
:1019A0000D2A0FDA206BD61F06EB86071F2606FAD4
:1019B00007F18843D61F06EB860605FA06F10843B1
:1019C000206310E0E06AA2F10D0606EB86071F26F1
:1019D00006FA07F18843A2F10D0606EB860605FA22
:1019E00006F10843E062F0BD816841F008018160C2
:1019F000704721B1826842F4A002826003E08268ED
:101A000022F4A00282607047816841F00401816085
:101A10007047000000B587B001214FF4057001F058
:101A20000DFF4FF4004001F0CDFE1C20ADF8040086
:101A300000208DF8070001A92B4800F09BFF04202F
:101A4000ADF8040000208DF8070001A9274800F038
:101A500091FF2748FFF7F8FE0020029001208DF843
:101A60000C0000208DF80D004FF460200490002041
:101A7000059004208DF8180002A91D48FFF730FFDB
:101A80000723012202211A48FFF752FF07230222EF
:101A900003211748FFF74CFF0723032204211448B2
:101AA000FFF746FF072304220C211148FFF740FFF0
:101AB00001210F48FFF7BCFE01210D48FFF7ADFEE5
:101AC0000B48FFF791FF00BF0948FFF7FEFE002813
:101AD000FAD10748FFF798FF00BF0548FFF7E2FE7D
:101AE0000028FAD107B000BD0008014000100140F5
:101AF000002401402DE9F04700244048007828B92F
:101B000001203F49087000F001F946E03B480078A9
:101B100001280DDC3B48007800EB4002C2EBC0100E
:101B20004FF4FA6202EBC001374802F039FA34E0B0
:101B30003248007803280DDC3248007800EB400280
:101B4000C2EBC01040F6C41202EBC0012E4802F0F6
:101B500027FA22E02948007805280DDC294800787A
:101B600000EB4002C2EBC01040F6AC5202EBC001E9
:101B7000254802F015FA10E02048007807280CDC10
:101B80002048007800EB4002C2EBC01041F29412F2
:101B900002EBC0011C4802F003FA1C48008804F064
:101BA0003FF807463A460B460020194903F0E0FE8D
:101BB000054603F0ABFE8146164904F03BFC02D219
:101BC00000F0A4F80124012C15D11048008804F07D
:101BD00027F807463A460B4600200D4903F0C8FE99
:101BE000054603F093FE81460B4904F023FB02D225
:101BF00000F078F80024BDE8F08700000C00002019
:101C000001000020200000209C0000208E00002009
:101C1000008086400000C8410000A04108B54FF494
:101C2000E060ADF8000018208DF8030003208DF867
:101C300002006946154800F09DFE4FF46040ADF883
:101C4000000018208DF8030003208DF8020069467B
:101C50000F4800F08FFE01210E4800F017FF4FF4EF
:101C6000E070ADF8000048208DF8030069460A488E
:101C700000F080FE4FF48050ADF8000010208DF889
:101C800003006946024800F075FE08BD00080140E7
:101C9000000C0140000C1A000010014010B5012298
:101CA00040210E4802F05CFE0D48008840F006001E
:101CB0000B4908804020091D088003F0CBFA074833
:101CC000008840F001000549088004480C30008875
:101CD00040F0500001490C31088010BD0004004064
:101CE000082C014010B500240DE0601CC4B2FFF7C1
:101CF000D5FF052003F062FA00F008F8022003F097
:101D00005DFAFFF7CBFF642CEFDB10BD12480088B3
:101D10004FF6F87108401049088000200E4918312C
:101D2000088040F6CC400880002008800B480088DE
:101D30004FF6FE7108400949088000200749243108
:101D4000088006480C3000884FF6AF710840034900
:101D50000C31088070470000082C0140000400404E
:101D600000B58BB0464802F09FFC0220ADF8200081
:101D70004020ADF8220040F6C310ADF8240000204A
:101D8000ADF826008DF8280008A93D4802F09CFF18
:101D90006020ADF810000020ADF81200ADF814007E
:101DA000ADF81600ADF81800ADF81A00ADF81C003B
:101DB000ADF81E0004A9324802F0DCFD0020ADF8A9
:101DC000160004A92E4802F02BFE0020ADF81600E4
:101DD00004A92B4802F084FE6020ADF8100000201A
:101DE000ADF8120040F2DC50ADF816000020ADF85E
:101DF000180004A9224802F0CDFE7021204802F00C
:101E000025FF4FF40060ADF800004010ADF802006F
:101E10008010ADF804006420ADF806000020ADF895
:101E20000800ADF80A00ADF80C006946144802F04D
:101E30000DFC0821124802F0E9FD0821104802F0CB
:101E400041FE08210E4802F09BFE20210C4802F0C2
:101E5000EBFE20210A4802F0E7FE0121084802F0CB
:101E600014FC2021064802F001FC01222021044834
:101E700002F076FD0121024802F0FBFB0BB000BD31
:101E8000002C014000B58BB0264802F00DFC472025
:101E9000ADF820000020ADF822004FF6FF70ADF83D
:101EA00024000020ADF826008DF8280008A91D4860
:101EB00002F00AFF0020ADF81400ADF81600032070
:101EC000ADF818000020ADF81A000A20ADF81C008B
:101ED00005A9144802F0EEFC7020ADF804000120C2
:101EE000ADF806006420ADF80A000020ADF80C0043
:101EF00001A90C4802F094FD01210A4802F088FE75
:101F00004021084802F090FE0421064802F0A7FE96
:101F10008021044802F091FE5021024802F096FE12
:101F20000BB000BD0004004021B1026842F0010284
:101F3000026004E002684FF6FE731A4002607047C8
:101F400000B58BB00121084601F048FC114800F0B3
:101F500027F81148009011480190002002900420B9
:101F6000039000200490802005904000069080009F
:101F70000790202008900002099000200A906946EE
:101F8000044800F0B3F801210248FFF7CDFF0BB081
:101F900000BD0000080002404C24014072000020F7
:101FA00001684FF6FE72114001600021016041603E
:101FB0008160C1604B49884208D14A490839496863
:101FC00041F00F01474A083A51608AE0454914310F
:101FD000884208D143490839496841F0F001414A33
:101FE000083A51607DE03F492831884208D13D4997
:101FF0000839496841F470613A4A083A516070E022
:1020000038493C31884208D136490839496841F499
:102010007041344A083A516063E032495031884295
:1020200008D130490839496841F470212D4A083AED
:10203000516056E02B496431884208D1294908395A
:10204000496841F47001274A083A516049E025493E
:102050007831884208D123490839496841F07061D4
:10206000204A083A51603CE01F49884206D1011FCE
:10207000096841F00F01021F116032E01A49143162
:10208000884208D11849091F096841F0F001164A31
:10209000121F116025E014492831884208D11249E5
:1020A000091F096841F470610F4A121F116018E09E
:1020B0000D493C31884208D10B49091F096841F498
:1020C0007041094A121F11600BE0074950318842E4
:1020D00007D10549091F096841F47021024A121FFE
:1020E00011607047080002400804024010B5002249
:1020F000026847F6F0739A430C6A8B6823430C69B5
:1021000023434C6923438C692343CC6923434C6AA2
:1021100023438C6A23431A430260CB6843600B68F5
:1021200083604B68C36010BD10B50E4800880E492F
:10213000088000200B4908800C480078322805DC14
:102140000A480078401C0949087007E008480088E0
:10215000401C07490880002004490870012000F055
:10216000E3F810BD900000208E00002092000020B7
:102170001A0000200EB50121084601F05FFB012185
:10218000042001F05BFB0120ADF8080004208DF86D
:102190000B0002A90A4800F0EDFB0021084600F000
:1021A000C9FB0120009000208DF804000C208DF860
:1021B000050001208DF80600684600F0CFF80EBD3E
:1021C000000801400EB50121084601F037FB01214E
:1021D000082001F033FB4FF48060ADF808000420C4
:1021E0008DF80B0002A91A4800F0C4FB4FF4006000
:1021F000ADF8080004208DF80B0002A9144800F087
:10220000B9FB0A21012000F095FB0B21012000F011
:1022100091FB4FF48060009000208DF804001020A6
:102220008DF8050001208DF80600684600F096F84C
:102230004FF40060009000208DF8040010208DF80D
:10224000050001208DF80600684600F087F80EBDF5
:10225000000C014010B5642002F0D6FF4FF400617D
:102260000E4800F05BFC012804D10D4908700020E5
:102270000C4908704FF40061084800F04FFC38B971
:10228000002008490870042005490870FFF73EFD4A
:102290004FF4006000F048F810BD0000000C014051
:1022A000010000200C00002010B5022000F042F8D0
:1022B00048B107480078401C054908700548006887
:1022C000401C04490860022000F02EF810BD0000F8
:1022D0008C000020880000200EB50121084601F086
:1022E000ADFA0121042001F0A9FA0220ADF808009E
:1022F00004208DF80B0002A90A4800F03BFB0121E5
:10230000002000F017FB0220009000208DF8040050
:102310000C208DF8050001208DF80600684600F0BD
:102320001DF80EBD0008014001490860704700001B
:1023300014040140014600200022074B1B6803EAF9
:102340000102054B14331B680B4013B10AB1012085
:1023500000E00020704700000004014000212349F4
:102360008279002A3AD00A46126803689A430B46DB
:102370001A600A1D126803689A430B1D1A600279DD
:1023800011440A6803681A430A60184A083212683E
:1023900003689A43154B08331A601A1D12680368C4
:1023A0009A43124B0C331A604279102A0ED11A1F2D
:1023B000126803681A430D4B08331A601A1D12681D
:1023C00003681A43094B0C331A600DE00749427940
:1023D00011440A6803681A430A6005E0027911444F
:1023E0000A6803689A430A607047000000040140CD
:1023F00030B5044604254FF4302000F089F8054636
:10240000042D17D10C48006940F002000A49086108
:1024100008464461006940F0400008614FF43020F4
:1024200000F076F805460448006941F6FD71084061
:1024300001490861284630BD0020024004200B49B4
:10244000C96801F0010109B101200EE00749C9681E
:1024500001F0040109B1022007E00449C96801F054
:10246000100109B1032000E0042070470020024061
:102470000348006940F0800001490861704700008E
:10248000002002400549096821F01001034A11604B
:1024900011460968014311607047000000200240A6
:1024A00070B504460D460426F00200F031F80646E9
:1024B000042E11D10948006940F001000749086164
:1024C0002580F00200F024F806460448006941F631
:1024D000FE71084001490861304670BD002002408D
:1024E00001460020034A106800F0380008431060DD
:1024F000704700000020024002480349486003483A
:10250000486070472301674500200240AB89EFCD4A
:1025100000B502460423FFF791FF034603E0FFF7EF
:102520008DFF0346521E012B01D1002AF7D102B9BB
:102530000523184600BD00001CB54FF6FF7000F0E3
:1025400003FD0020644908804FF49F730222114666
:10255000104600F011FD4FF49F73EE220221104649
:1025600000F00AFD0223EE221946184600F004FD91
:102570004FF49F73EE221946022000F0FDFC282341
:10258000E62219460A2000F0F7FCBE23E62219468F
:102590000A2000F0F1FCB92357222D21104600F04B
:1025A000EBFC4FF49B737822C821104600F0E4FC4A
:1025B000FF23762219460A2000F0DEFC1023342285
:1025C0001946112000F0D8FC1F23112210211046BB
:1025D00000F0D2FC1F2334221946112000F0CCFC5D
:1025E000152334221021104600F0C6FC1523372293
:1025F0001946342000F0C0FC1A233722152110465A
:1026000000F0BAFC1A2337221946342000F0B4FC3B
:102610001F2334221A21104600F0AEFC2FA01821EF
:102620000B46C822CDE9001032210A2000F080FFBD
:102630002CA018210B46C822CDE9001032216420BD
:1026400000F076FF29A018210B46C822CDE9001022
:102650009B21B42000F06CFF26A010210B46C8225D
:10266000CDE9001011460B2000F062FF23A01821D5
:102670001023C822CDE90010DD21372000F058FFDB
:102680001FA010210B46C822CDE9001040F209110D
:102690000B2000F04DFF1CA010210B46C822CDE9F5
:1026A000001040F22711552000F042FF17A018211A
:1026B0001023C822CDE900101146872000F038FF12
:1026C00013A018211023C822CDE9001040F21311E5
:1026D000B92000F02DFF1CBD980000204153534944
:1026E0005354000053504545440000004B4D2F68A3
:1026F0000000000054494D45000000003A00000071
:102700004D494C45000000004B4D0000465245002D
:1027100052504D001CB54FF6FF7000F015FC002024
:102720006E4908804FF49F7302221146104600F054
:1027300023FC4FF49F73EE220221104600F01CFC94
:102740000223EE221946184600F016FC4FF49F7340
:10275000EE221946022000F00FFC4123DC2219462C
:10276000142000F009FC5F23DC221946142000F03D
:1027700003FC7D23DC221946142000F0FDFB9B2383
:10278000DC221946142000F0F7FBB923DC2219469D
:10279000142000F0F1FBD723DC221946142000F0AE
:1027A000EBFBF523DC221946142000F0E5FB40F298
:1027B0001313DC221946142000F0DEFBF52314224B
:1027C0004121104600F0D8FBF523DC2241211046C0
:1027D00000F0D2FB42A018211023C822CDE900103E
:1027E0004421192000F0A4FE40A018211023C82283
:1027F000CDE900106221192000F09AFE3EA01821B8
:102800001023C822CDE900108021192000F090FE8D
:102810003BA018211023C822CDE9001080217F2081
:1028200000F086FE37A018211023C822CDE9001041
:102830009E21192000F07CFE34A018211023C8220C
:10284000CDE90010BC21192000F072FE31A0182142
:102850001023C822CDE90010DA21192000F068FE0B
:102860002FA010210B46C822CDE9001048211046A8
:1028700000F05EFE2AA010210B46C822CDE9001010
:102880006621104600F054FE26A010210B46C822F7
:10289000CDE900108421BE2000F04AFE22A01021C4
:1028A0000B46C822CDE90010A221B42000F040FE62
:1028B0001FA010210B46C822CDE90010C021BE2068
:1028C00000F036FE1AA010210B46C822CDE90010F8
:1028D000DE21BE2000F02CFE1CBD00009800002070
:1028E0004D696C655F53756D000000004D696C6546
:1028F0005F53696E0000000054696D65720000004E
:102900003A00000053706565640000004672655F20
:1029100053756D004672655F417665720000000078
:102920004B6D00004D696E004B6D2F68000000007C
:1029300052504D0030B500228B071C0F0F2303FAB5
:1029400004F20B4B8C1053F824309343084C8D1039
:1029500044F8253023468C1053F824308C07240F7C
:1029600000FA04F42343024C8D1044F8253030BDA6
:10297000080001402DE9F041024600250026002014
:1029800000230024002791F803C00CF00F0591F8F4
:1029900003C00CF0100CBCF1000F03D091F802C082
:1029A0004CEA050591F800C0BCF1000F31D0146865
:1029B00000202BE04FF0010C0CFA00F3B1F800C03E
:1029C0000CEA03069E4220D183004FF00F0C0CFA54
:1029D00003F7BC4305FA03FC4CEA040491F803C076
:1029E000BCF1280F06D14FF0010C0CFA00FCC2F824
:1029F00014C00AE091F803C0BCF1480F05D14FF0B4
:102A0000010C0CFA00FCC2F810C0401C0828D1D3FD
:102A10001460B1F800C0BCF1FF0F34DD5468002031
:102A20002EE000F1080C4FF0010808FA0CF3B1F8A1
:102A300000C00CEA03069E4221D183004FF00F0C28
:102A40000CFA03F7BC4305FA03FC4CEA040491F8C2
:102A500003C0BCF1280F05D100F1080C08FA0CF8EE
:102A6000C2F8148091F803C0BCF1480F07D100F1FF
:102A7000080C4FF0010808FA0CF8C2F81080401C4E
:102A80000828CED35460BDE8F0810000F0B50A46B6
:102A9000002300240021002500F00046B6F1004F7D
:102AA00002D11D4EF16901E01B4E7168C0F3034570
:102AB00083B200F44016B6F5401F08D121F07061D2
:102AC000154E766826F07066134F7E6012E000F4B3
:102AD0008016B6F5801F06D1032606FA05F4A14339
:102AE00041F0706106E0460D360103FA06F6B14387
:102AF00041F0706122B1460D360103FA06F631430A
:102B000000F00046B6F1004F02D1034EF16101E042
:102B1000014E7160F0BD000000000140024600203F
:102B200093680B400BB1012000E000207047416129
:102B3000704701617047000010B501210F48FEF792
:102B400058FF00BF02210D48FEF7B6FE0028F9D05D
:102B500000240FE00A4931F814104FF4A57201FB6C
:102B600002F0C11700EB11510913064A22F81410A4
:102B7000601CC4B2042CEDDB10BD00000024014039
:102B8000720000200E00002008B50121102000F086
:102B900055FE4FF4E050ADF8000048208DF80300DA
:102BA00069460248FFF7E6FE08BD0000001001403C
:102BB0002DE9FE4F002000F009F96E490870084623
:102BC0000078C01E06287CD2DFE800F003A2A4B380
:102BD000B7CC69480078002875D1FFF79BFD67489E
:102BE000008867490978401A6649086066480068A5
:102BF00003F016F806460022644B03F025F804465D
:102C00000D466048006803F00BF8064600225F4B53
:102C100003F01AF822462B46CDE9000102F0A8FE87
:102C2000824600225A4B03F00FF8804602F06EFEF7
:102C3000029003F0B3FA5749087001204E4908701A
:102C40005548006850490968B0FBF1F053490880C5
:102C50005048007803F0DAFA02904A48006803F01E
:102C6000D5FA834603F0EEF807464D4A4D4B02F085
:102C7000EBFF054602F04AFE81464048008803F01B
:102C8000C5FA834603F0DEF80746454A454B02F095
:102C9000DBFF054602F03AFE824640480488E01712
:102CA00004EB5070C0103C490968C1F3CF01CDE975
:102CB00000103548027849465046029B02F0DEFC7F
:102CC00025E053E0FFE7FFF721F837480078374960
:102CD00008702B48007848700222354801F064F8EB
:102CE0004FF47840334908804FF6FF7000F02CF91C
:102CF00031A018211023C822CDE90010A0212820DE
:102D000000F016FCFFF718FC00201B4908702EE0AD
:102D100000F046FD2448007850B123480078401E5A
:102D20002149087008460078012801DA002008705F
:102D30001DE000201C49087019E023480078032892
:102D400004D1FEF7E3FF01201F4908701648007800
:102D5000401C1549087008460078042801DD05204C
:102D6000087004E003201849087000E000BF00BFAD
:102D7000BDE8FE8F280000201C0000201A00002063
:102D8000210000202C000020080000200000F03F5F
:102D900000001840170000208800002018000020C4
:102DA0009A9999999999B93F200000202400002010
:102DB00000FC010898000020575249544520535503
:102DC00043434553530000000100002010B5044662
:102DD0005A48008878B35948408860B3574880887B
:102DE00048B34FF480615648FFF798FE58B14FF44E
:102DF00000615348FFF792FE28B14FF480515048CC
:102E0000FFF78CFEB8B94FF4FA7002F0FDF94FF4F9
:102E100080614B48FFF782FE18B9002047490880BF
:102E200089E04FF400614648FFF778FE20B90020A2
:102E3000424948807FE009E04FF480514048FFF765
:102E40006DFE002877D13D49888074E04FF48061A1
:102E50003B48FFF763FE01286DD1C1023848FFF7F8
:102E60005DFE012867D101033548FFF757FE0128B1
:102E700061D132480088D8B93248008864280BDC18
:102E800030480088002807DB01202C4908800020FA
:102E90002C490880032010BD2A480088642807DDDB
:102EA0000120264908800020264908800420F2E7F6
:102EB00022484088D8B92348008864280BDC214880
:102EC0000088002807DB01201C49488000201D499C
:102ED00008800520DFE71B480088642807DD012003
:102EE000164948800020174908800620D3E7134878
:102EF0008088D8B91348008864280BDC1148008802
:102F0000002807DB01200D49888000200D4908803A
:102F10000720C0E70B480088642807DD0120074927
:102F200088800020074908800820B4E70120034971
:102F30000880488088800020ADE700006A000020FB
:102F4000001001406800002070B5064600240948C2
:102F50000588408845430021084600F0A1F900F0AB
:102F600067FB00BF03E0304600F016FB641CAC4278
:102F7000F9D370BD980500202DE9FF4F85B081463B
:102F80008A460020049003900798A0EB0905089852
:102F9000A0EB0A06CDF80890CDF804A0002D01DDC5
:102FA000012705E00DB9002702E04FF0FF376D4221
:102FB000002E02DD4FF0010806E016B94FF00008C0
:102FC00002E04FF0FF387642B54201DD2C4600E0CA
:102FD00034464FF0000B21E0019A91B2029A90B270
:102FE00000F022F804982844049003983044039099
:102FF0000498A04205DD0498001B04900298384410
:1030000002900398A04205DD0398001B03900198ED
:10301000404401900BF101001FFA80FB601C8345C6
:10302000DADD09B0BDE8F08F70B504460D462946DB
:10303000204600F035F900F0FBFA0248008800F065
:10304000ABFA70BD9800002010B5002090490860D0
:10305000322002F0B3F801208E49C1F884013220F9
:1030600002F0ACF801218C48FFF761FD142002F05A
:10307000A5F801218848FFF75CFD142002F09EF8B6
:10308000F020864908804FF4A07048802C20887179
:103090002A20C8712B200872CF2000F0B1FA00203E
:1030A00000F096FAD92000F093FA302000F090FA60
:1030B000ED2000F0A5FA642000F08AFA032000F069
:1030C00087FA122000F084FA812000F081FAE820CB
:1030D00000F096FA852000F07BFA102000F078FAD4
:1030E000782000F075FACB2000F08AFA392000F041
:1030F0006FFA2C2000F06CFA002000F069FA3420FE
:1031000000F066FA022000F063FAF72000F078FA87
:10311000202000F05DFAEA2000F072FA002000F0B2
:1031200057FA002000F054FAC02000F069FA21207C
:1031300000F04EFAC12000F063FA122000F048FAC5
:10314000C52000F05DFA322000F042FA3C2000F089
:103150003FFAC72000F054FAC12000F039FA3620B7
:1031600000F04EFA082000F033FA3A2000F048FA56
:10317000552000F02DFAB12000F042FA002000F0B6
:1031800027FA182000F024FAB62000F039FA0A20B5
:1031900000F01EFAA22000F01BFAF22000F030FA34
:1031A000002000F015FA262000F02AFA012000F095
:1031B0000FFAE02000F024FA0F2000F009FA202096
:1031C00000F006FA1E2000F003FA092000F000FAD1
:1031D000122000F0FDF90B2000F0FAF9502000F069
:1031E000F7F9BA2000F0F4F9442000F0F1F90920D1
:1031F00000F0EEF9142000F0EBF9052000F0E8F9FA
:10320000232000F0E5F9212000F0E2F9002000F091
:10321000DFF9E12000F0F4F9002000F0D9F91920DD
:1032200000F0D6F9192000F0D3F9002000F0D0F911
:10323000122000F0CDF9072000F0CAF92D2000F08F
:10324000C7F9282000F0C4F93F2000F0C1F902209E
:1032500000F0BEF90A2000F0BBF9082000F0B8F930
:10326000252000F0B5F92D2000F0B2F90F2000F074
:10327000AFF9112000F0C4F9782001F09FFF292058
:1032800000F0BEF94FF6FF70FFF75EFE10BD0000C4
:103290008481214200802142000C014098050020D9
:1032A00070B504460D460A49C87900F0A9F9201204
:1032B00000F08EF9E0B200F08BF90549087A00F0D1
:1032C0009FF9281200F084F9E8B200F081F970BD8E
:1032D000980500202DE9FC5F81460F4616461C46E6
:1032E00001978A48B0F80080A6F12000C6B20C9879
:1032F000002877D12046E31704EB5373DB102146F7
:103300004FEAE47C04EB5C7C4FEAEC0CA4EBCC0CC5
:10331000BCF1000F02D04FF0010C01E04FF0000CA7
:103320006344224604EBD27C4FEA6C0C03FB0CF3A3
:103330009BB20093002572E00C2C07D106EB4600EF
:10334000734901EB800010F805A02AE0102C05D18C
:10335000704800EB061010F805A022E0182C07D1E9
:1033600006EBC6006C4901EB800010F805A018E0E0
:10337000202C05D1694800EB861010F805A010E05C
:10338000302C07D106EBC600654901EB001010F8A0
:1033900005A006E006EBC600624901EB801010F8BC
:1033A00005A04FF0000B34E00AF0800018B1574838
:1033B000A0F8008003E05C48008854490880394642
:1033C0004846FFF731FE4FF6FF7000EA4A0A781CC4
:1033D00087B256484088B84205DC4C48A0F80080C7
:1033E000BDE8FC9F1FE00198381AA0420DD1019F53
:1033F00009F101001FFA80F94C480088484503DCB8
:103400004248A0F80080EBE706E00BF101001FFA4C
:1034100080FBBBF1080FC7DB00BF681C85B20098BA
:10342000854289DB6CE0002568E00C2C07D106EBB7
:103430004600374901EB800010F805A02AE0102C67
:1034400005D1344800EB061010F805A022E0182C36
:1034500007D106EBC600304901EB800010F805A04B
:1034600018E0202C05D12D4800EB861010F805A09F
:1034700010E0302C07D106EBC600294901EB001003
:1034800010F805A006E006EBC600264901EB801007
:1034900010F805A04FF0000B2AE00AF0800018B1E8
:1034A00039464846FFF7C0FD4FF6FF7000EA4A0A6A
:1034B000781C87B21D484088B84203DC1348A0F846
:1034C00000808DE70198381AA0420DD1019F09F1C3
:1034D00001001FFA80F915480088484503DC0B48B5
:1034E000A0F800807CE706E00BF101001FFA80FBEA
:1034F000BBF1080FD1DB00BF681C85B2A54294DB8D
:103500000248A0F8008000BF6AE700009800002091
:1035100086650008FA690008EA6F0008467D000821
:103520000695000876CA00089A0000209805002039
:103530002DE9F84F04460D4690469946DDE90A67A5
:1035400004F0FF0A08EB04001FFA80F809EB0500FD
:103550001FFA80F916E0444502DB5446A81985B2EB
:103560004D4500DB14E0002000903A7833462946B0
:103570002046FFF7AFFE304606EBD07104EB610149
:103580008CB27F1C38787E2802DC38782028E2DA7A
:1035900000BFBDE8F88F000010B5044610210A48AE
:1035A000FFF7C5FA20210848FFF7C3FA21120748A0
:1035B00000F0D4FBE1B2054800F0D0FB1021024836
:1035C000FFF7B7FA10BD00000010014000300140C5
:1035D00010B5044610210848FFF7A9FA2021064833
:1035E000FFF7A7FA2146054800F0B8FB1021024872
:1035F000FFF79FFA10BD00000010014000300140AD
:1036000010B5044610210848FFF791FA202106481A
:10361000FFF78DFAE1B2054800F0A0FB1021024847
:10362000FFF787FA10BD0000001001400030014094
:1036300010B502498879FFF7E3FF10BD9805002017
:1036400008B54FF4A06000F0A1F828208DF8000024
:1036500000208DF801008DF8020001208DF8030094
:10366000684600F05BF81D208DF8000000208DF802
:10367000010001208DF802008DF80300684600F07B
:103680004DF81E208DF8000000208DF8010002206A
:103690008DF8020001208DF80300684600F03EF826
:1036A00006208DF8000000208DF8010003208DF821
:1036B000020001208DF80300684600F02FF8072073
:1036C0008DF8000001208DF8010000208DF8020027
:1036D00001208DF80300684600F020F825208DF8C1
:1036E000000001208DF8010002208DF80200012069
:1036F0008DF80300684600F011F81C208DF80000DA
:1037000002208DF8010000208DF8020001208DF8C4
:103710000300684600F002F808BD000070B5002103
:1037200000230F22C47804B3154C246804F4E06429
:10373000C4F5E064210AC1F10403CA40447804FAE4
:1037400003F184781440214309010E4C0678A155F9
:10375000047804F01F050124AC4005786D11AD001C
:1037600005F1E025C5F8004109E0047804F01F05E3
:103770000124AC40044D0678761145F8264070BD12
:103780000CED00E000E400E080E100E002490143CC
:10379000024A1160704700000000FA050CED00E0DD
:1037A0000648006800F4E06005490843001D03492D
:1037B0000860BFF3408F00BFFEE700000CED00E0A3
:1037C0000000FA0501460020034A506820F44040FA
:1037D00008435060704700000010024029B1064ABB
:1037E00052690243044B5A6104E0034A526982431E
:1037F000014B5A61704700000010024029B1064A8F
:10380000D2690243044BDA6104E0034AD26982437D
:10381000014BDA61704700000010024029B1064AEE
:1038200012690243044B1A6104E0034A126982439D
:10383000014B1A61704700000010024029B1064A8E
:1038400092690243044B9A6104E0034A92698243FD
:10385000014B9A61704700000010024029B1064AEE
:10386000D2680243044BDA6004E0034AD268824320
:10387000014BDA6070470000001002400F480068FA
:1038800040F001000D490860084640680C490840B6
:103890000A494860084600680A4908400749086024
:1038A0000846006820F4802008600846406820F43C
:1038B000FE0048604FF41F0088607047001002400F
:1038C0000000FFF8FFFFF6FE30B5002100220024C3
:1038D00000232D4D6D6805F00C0121B1042905D0A0
:1038E000082923D105E0294D056022E0274D056018
:1038F0001FE0254D6D6805F47012234D6D6805F4C9
:103900008034022505EB92421CB9214D55430560D8
:103910000BE01D4D6D6805F400351DB11C4D554380
:10392000056002E0194D5543056002E0174D056042
:1039300000BF00BF144D6D6805F0F0010909154D79
:103940006B5C0568DD4045600F4D6D6805F4E06116
:10395000090A104D6B5C4568DD4085600A4D6D6855
:1039600005F46051C90A0B4D6B5C4568DD40C560CC
:10397000054D6D6805F44041890B074D6B5CC568CA
:10398000B5FBF3F5056130BD0010024000127A006E
:1039900000093D00540000206400002010B50146DD
:1039A0000022002300204A11012A02D1094C236879
:1039B00006E0022A02D1074C236A01E0054C636A43
:1039C00001F01F02012494401C400CB1012000E0D2
:1039D000002010BD001002400248406800F00C00BA
:1039E000704700000010024001460020034A506862
:1039F00020F0F000084350607047000000100240C3
:103A00001149096821F480310F4A11601146096893
:103A100021F480211160B0F5803F03D0B0F5802FF4
:103A20000ED106E00849096841F48031064A116068
:103A300007E00549096841F4A021034A116000E04C
:103A400000BF00BF70470000001002400146002088
:103A5000034A506820F4E06008435060704700005B
:103A60000010024001460020034A506820F46050D4
:103A700040EAC100506070470010024001490866EA
:103A8000704700000000424202460020044B586884
:103A900020F47C1042EA01031843014B5860704740
:103AA0000010024001460020034A506820F0030045
:103AB00008435060704700000010024038B50020F5
:103AC00000900024002500BF3120FFF767FF054666
:103AD0000098401C00900098B0F5A06F01D0002D18
:103AE000F2D03120FFF75AFF08B1012400E0002492
:103AF000204638BD10B500F007FB012146F63D20F9
:103B0000FFF79CFE01210248FFF778FE10BD000080
:103B1000070002002DE9F84F2D480078322855DDC6
:103B20002C48007800284ED12B480088F0B92B484B
:103B3000008802F06BFB814602F084F90746284AB0
:103B4000284B02F081F8054601F0E0FE04462648C5
:103B50000078C006000E25490090098888B200232D
:103B600023490A78214601F0CBFC2CE01A48008852
:103B700002F056F807463A460B4600201D4901F070
:103B8000F7FE054601F0C2FE04461448008802F024
:103B90003DFB824602F056F90746114A114B02F0EE
:103BA00053F8054601F0B2FE81460F480078C00682
:103BB000000E0E490090098888B223460C490A7805
:103BC000494601F09DFC002001490870BDE8F88FCE
:103BD000000000201C0000208E0000201A000020A1
:103BE0009A9999999999B93F0C00002008000020F2
:103BF000200000200080864000B587B001210C2005
:103C0000FFF71CFE01210803FFF718FEA020ADF806
:103C1000180018208DF81B0003208DF81A0006A943
:103C20003548FEF7A7FE1020ADF8180003208DF8E8
:103C30001A0010208DF81B0006A93048FEF79AFEE6
:103C400010212E48FEF773FF2020ADF81800032046
:103C50008DF81A0010208DF81B0006A92748FEF7E2
:103C600089FE20212548FEF762FF0220ADF81800EA
:103C700003208DF81A0010208DF81B0006A920489B
:103C8000FEF778FE02211E48FEF751FF0120ADF835
:103C9000180003208DF81A0010208DF81B0006A9CB
:103CA0001748FEF767FE01211548FEF740FF002088
:103CB000ADF804004FF48270ADF806000020ADF8B6
:103CC00008000220ADF80A000120ADF80C00400207
:103CD000ADF80E000020ADF81000ADF8120007207E
:103CE000ADF8140001A9074800F01AF801210548B1
:103CF00000F00AF807B000BD0008014000100140C4
:103D0000000C01400030014021B1028842F0400225
:103D1000028004E002884FF6BF731A4002807047A9
:103D200010B50022028802F441520B884C882343CC
:103D30008C882343CC8823430C8923434C89234319
:103D40008C892343CC8923431A430280838B4FF20F
:103D5000FF74234083830B8A038210BD024600BF99
:103D6000108900F002000028FAD0918100BF10896C
:103D700000F001000028FAD09089C0B2704730B539
:103D800003460C461546002207E0184600F008F8E6
:103D900024F812009B1C501C82B2AA42F5DB30BDF5
:103DA00001460888704700002DE9F05F80468A468A
:103DB0001746B8F1006F02D33348804501D3BDE800
:103DC000F09FFEF799FBA8F1006B4FEA9B25CBF320
:103DD0004809C9F50074A74200DC3C464DE04FF0AD
:103DE000006101EB85208A142849FFF7C8FF0026EF
:103DF0000BE009EB0600254931F810004FF6FF7182
:103E0000884200D003E0701C86B2A642F1DB00BFFE
:103E1000A6421BDA4FF0006101EB8520FEF7E8FABD
:103E2000002608E03AF8160006EB0901174A22F8C6
:103E30001100701C86B2A642F4DB4FF0006101EB6A
:103E400085208A14114900F023F804E022465146E7
:103E5000404600F01DF8A74200D10FE06D1C4FF066
:103E600000090AEB440AA044381B87B2B7F5007F6B
:103E700002DD4FF4007400E03C46B0E700BFFEF7FF
:103E8000F7FA00BF9BE7000000000208980100203D
:103E90002DE9F04105460E461746002407E036F8A6
:103EA00014102846FEF7FCFAAD1C601C84B2BC421C
:103EB000F5DBBDE8F08110B500F002F810BD0000A0
:103EC0000CB50020019000903348006840F4803029
:103ED0003149086000BF3048006800F400300090AD
:103EE0000198401C0190009818B90198B0F5A06F96
:103EF000F1D12948006800F4003010B10120009091
:103F000001E0002000900098012843D12348006878
:103F100040F01000214908600846006820F00300C6
:103F200008600846006840F0020008601A484068CF
:103F3000194948600846406848600846406840F4AF
:103F4000806048600846406820F47C10486008465D
:103F5000406840F4E81048600846006840F080700F
:103F6000086000BF0C48006800F000700028F9D01D
:103F70000948406820F00300074948600846406847
:103F800040F00200486000BF0348406800F00C00A9
:103F90000828F9D10CBD00000010024000200240AA
:103FA0002DE9F04104460D4642F6F820854200DD39
:103FB00000E028462060002D01DA002000E02846BD
:103FC00020602560234A12882168881A02F006F9C9
:103FD0006061D4E9051001F061FFA0610021E06893
:103FE00002F08CF80DD01C48E16801F0C5FF0646D0
:103FF000A16902F01FF904D21748E16801F0BCFF83
:10400000A061A169E06802F049F90746A16860690A
:1040100002F044F98046394601F040FF064602F0BE
:10402000A1F8606040F698016068884201DB0846AC
:1040300060606068002801DC00206060A08807499B
:104040000880A088091D0880A088091D0880606874
:10405000BDE8F0810400002000800945342C0140B7
:10406000002101604160044981600449C160002170
:1040700001614161816170478FC2753D17B7513948
:10408000042808D14FF0E021096941F004014FF004
:10409000E022116107E04FF0E021096921F00401FD
:1040A0004FF0E0221161704710B51348006840F0EE
:1040B00001001149086008464068104908400E494F
:1040C0004860084600680E4908400B4908600846E9
:1040D000006820F4802008600846406820F4FE0054
:1040E00048604FF41F008860FFF7E5FE4FF0006066
:1040F0000449086010BD0000001002400000FFF8F5
:10410000FFFFF6FE08ED00E010B5FFF7B7FB4FF438
:104110008030FFF775FCFFF7D1FC0446012C27D156
:104120000220FEF7DDF91020FEF7ACF90020FFF7C2
:10413000A5FC0020FFF758FC0020FFF793FCA0022D
:10414000FFF784FC4FF4E0112004FFF79DFC0120F1
:10415000FFF794FC00BF3920FFF720FC0028FAD0BD
:104160000220FFF79FFC00BFFFF736FC0828FBD1B9
:1041700010BD0000F0B50C46154600220021068C4B
:104180004FF6FE773E400684028B018C4FF60C768C
:1041900032407E1C06EA03162E433243104EB042D4
:1041A0000ED0104EB0420BD0B0F1804F08D00E4E62
:1041B000B04205D00D4EB04202D00D4EB04206D1F5
:1041C0004FF6FD76314044F00106314305E04FF6ED
:1041D000F576314044F00106314302830184F0BD9D
:1041E000002C014000340140000400400008004061
:1041F000000C0040F0B50C461546002200210026B8
:10420000078C4FF6EF7C07EA0C070784028B018CC2
:104210004FF6FF7707EA041640F6FF473A404FF69D
:10422000FF7707EA03373A434FF6FF7707EA052798
:104230003A43114FB8420ED0104FB8420BD0B0F1F4
:10424000804F08D00E4FB84205D00E4FB84202D072
:104250000D4FB84206D14FF6DF77394046F01007D0
:10426000394305E04FF65F77394044F01007394392
:1042700002830184F0BD0000002C014000340140A5
:104280000004004000080040000C0040F0B50C465F
:104290001546002200210026078C4FF6FF6C07EA26
:1042A0000C070784828B018C4FF6FF7707EA042600
:1042B0004FF60C773A404FF6FF7707EA03172F4384
:1042C0003A43114FB8420ED0104FB8420BD0B0F164
:1042D000804F08D00E4FB84205D00E4FB84202D0E2
:1042E0000D4FB84206D14FF6FF57394046F480775C
:1042F000394305E04FF2FF57394044F480773943A2
:1043000082830184F0BD0000002C01400034014094
:104310000004004000080040000C0040F0B50C46CE
:104320001546002200210026078C4EF6FF7C07EA86
:104330000C070784828B018C4FF6FF7707EA04365F
:1043400040F6FF473A404FF6FF7707EA05273A4322
:104350004FF6FF7707EA03373A43114FB8420ED0C2
:10436000104FB8420BD0B0F1804F08D00E4FB8427A
:1043700005D00E4FB84202D00D4FB84206D14DF6CF
:10438000FF77394046F48057394305E047F6FF5739
:10439000394044F48057394382830184F0BD0000E2
:1043A000002C01400034014000040040000800409F
:1043B000000C004002480088002001490880704736
:1043C000102C014010B50121880700F061FAA0B15E
:1043D0000A480078401C09490870084600783C28C3
:1043E00007D107480068401C0549086000200349C0
:1043F00008700121880700F039F910BD8400002001
:10440000080000203EB505460C46ADF80450ADF856
:1044100000400020ADF80600ADF8020069464FF0FC
:10442000804000F051FC0121880700F022F90122B0
:104430001146900700F094FA3EBD000010B53C48CC
:10444000008800F0100038B3394800884FF6EF714B
:1044500008403749088037480078022807DD0020E7
:104460003449087034480078401C3349087031489A
:104470000078401C2F4908703048007803280BD181
:104480002D480078042807DD05202C4908700320FA
:104490002B490870FDF73AFC2548008800F04000E1
:1044A000002844D0224800884FF6BF7108402049B8
:1044B000088000F0CFFE1E48243000881D4909788E
:1044C0004FF6FF7202FB01011E481F4A127840F8A6
:1044D00022101D480078401C1B49087008460078CF
:1044E000052817DD002409E0164850F82400174974
:1044F0000968084415490860601CC4B2062CF3DB47
:10450000124800680621B0FBF1F010490860002055
:104510000D4908700D48006849F64041A1EB400084
:104520000B4908600020034908700349087010BD5A
:10453000100400403A000020360000200100002056
:104540001F000020B80000203B0000203C0000209D
:104550000400002010B50121244800F099F900283A
:1045600043D00121214800F081F821480078401C07
:104570001F4908701F480088C82805DA1D480088B0
:10458000401C1C49088002E000201B4908801B4891
:104590000078401C1949087008460078322808D174
:1045A000174800781749087000201549087013490A
:1045B000087015480078401C1349087008460078B8
:1045C000012804DBFEF7B8FA00200F4908700F48F5
:1045D000008828B10D48408810B10C48808820B967
:1045E0000B480088401C0A49088010BD00080040A4
:1045F00000000020900000208E0000207D000020A0
:104600008C0000200C0000207C0000206A000020AC
:10461000680000203EB505460C46ADF80450ADF8E4
:1046200000400020ADF80600ADF8020069460648DB
:1046300000F04AFB0121044800F01BF8012211465A
:10464000014800F08DF93EBD000800400A884B8803
:104650001A438B881A43CB881A430B891A434B8918
:104660001A438B891A43A0F844207047CA43028238
:10467000704721B1028842F00102028004E0028802
:104680004FF6FE731A400280704731B1B0F84420F3
:1046900042F40042A0F8442005E0B0F84420C2F300
:1046A0000E02A0F84420704710B5044668488442C2
:1046B00008D10121C014FFF7D1F80021E014FFF761
:1046C000CDF8C4E0B4F1804F08D101210846FFF7CE
:1046D000A5F800210120FFF7A1F8B8E05D48844269
:1046E00008D101210220FFF799F800210220FFF7ED
:1046F00095F8ACE05848844208D101210420FFF726
:104700008DF800210420FFF789F8A0E05348844287
:1047100008D101210820FFF781F800210820FFF7C8
:104720007DF894E04E48844208D101211020FFF723
:1047300075F800211020FFF771F888E0494884429D
:1047400008D101212020FFF769F800212020FFF780
:1047500065F87CE04448844208D101214014FFF709
:104760007DF800216014FFF779F870E03F4884423B
:1047700009D10121C804FFF771F800214FF400208E
:10478000FFF76CF863E03A48844209D1012108053B
:10479000FFF764F800214FF48010FFF75FF856E050
:1047A0003448844209D101214805FFF757F8002118
:1047B0004FF40010FFF752F849E02F48844208D127
:1047C00001214020FFF72AF800214020FFF726F8BA
:1047D0003DE02A48844208D101218020FFF71EF8DD
:1047E00000218020FFF71AF831E02548844208D1E3
:1047F00001218015FFF712F80021A015FFF70EF830
:1048000025E02048844209D101210804FFF726F859
:1048100000214FF48030FFF721F818E01A48844255
:1048200009D101214804FFF719F800214FF40030A5
:10483000FFF714F80BE01548844208D101218804E1
:10484000FFF70CF800214FF48020FFF707F810BDA8
:10485000002C01400004004000080040000C004013
:10486000001000400014004000340140004C0140A2
:10487000005001400054014000180040001C00405E
:104880000020004000400140004401400048014039
:1048900030B50246002000230024158A05EA0103F2
:1048A000958905EA010413B10CB1012000E0002054
:1048B00030BD000070B505460C46244885420ED038
:1048C000234885420BD0B5F1804F08D0214885425E
:1048D00005D02148854202D02048854200D100E021
:1048E00000BF208850B92389A28861882846FFF735
:1048F00041FCE188284600F0BBF925E02088042827
:104900000AD12389A28861882846FFF773FCE188D1
:10491000284600F0B6F917E0208808280AD1238934
:10492000A28861882846FFF7B1FCE188284600F09C
:10493000B5F909E02389A28861882846FFF7EEFCD3
:10494000E188284600F0B3F970BD0000002C01405A
:10495000003401400004004000080040000C00400A
:104960001AB183890B43838102E083898B4383815E
:104970007047000070B5002400220023058C4FF61C
:10498000FE7635400584028C8388048B4FF68F7544
:104990002C40B51E2C400D882C43751E2A400D89D5
:1049A0002A434D882A43144DA8420BD0134DA842E8
:1049B00008D0134DA84205D0124DA84202D0124D86
:1049C000A84213D14FF6F7752A404D892A434FF676
:1049D000FB752A408D882A434FF6FF652B404FF622
:1049E000FF552B408D892B43CD892B438380048336
:1049F000CD888586028470BD002C014000340140C2
:104A00000040014000440140004801400A460021A6
:104A1000018B4FF6F7731940114301837047000073
:104A200070B5002400220023058C4FF6EF76354048
:104A30000584028C8388048B48F6FF752C404FF662
:104A4000FF452C400D884FF6FF7606EA05252C43DE
:104A50004FF6DF752A400D8906EA05152A434D8871
:104A600006EA05152A43154DA84202D0144DA84266
:104A70001DD14FF67F752A404D894FF6FF7606EA25
:104A800005152A434FF6BF752A408D8806EA05159D
:104A90002A434FF6FF352B404FF2FF752B408D898F
:104AA00006EA85052B43CD8906EA85052B438380DD
:104AB0000483CD880587028470BD0000002C01406E
:104AC000003401400A460021018B4FF2FF73194068
:104AD0004FF6FF7303EA0223194301837047000076
:104AE00070B5002400220023058C4FF6FF66354088
:104AF0000584028C8388848B4FF68F752C404FF68B
:104B0000FC752C400D882C434FF6FF552A400D892B
:104B10004FF6FF7606EA05252A434D8806EA052565
:104B20002A43154DA84202D0144DA8421DD14FF280
:104B3000FF752A404D894FF6FF7606EA05252A4380
:104B40004FF6FF352A408D8806EA05252A434EF6A2
:104B5000FF752B404DF6FF752B408D8906EA051534
:104B60002B43CD8906EA05152B4383808483CD88AA
:104B70008587028470BD0000002C01400034014094
:104B80000A460021818B4FF6F77319401143818348
:104B90007047000070B5002200230024058C4EF6FB
:104BA000FF7635400584038C8488828B48F6FF7538
:104BB0002A404FF6FF452A400D884FF6FF7606EA59
:104BC00005252A434DF6FF752B400D8906EA05356C
:104BD0002B434D8806EA05352B430B4DA84202D0E6
:104BE0000A4DA84208D14BF6FF752C408D894FF62F
:104BF000FF7606EA85152C4384808283CD88A0F851
:104C00004050038470BD0000002C0140003401407E
:104C100021B1828842F08002828004E082884FF6CF
:104C20007F731A40828070470A46002101894FF63F
:104C30008F73194011430181704702894FF67F73CA
:104C40001A40028102890A430281704782884FF626
:104C50008F731A40828082880A438280704702895B
:104C60004FF6F8731A40028102890A4302817047A5
:104C7000028B4FF6F3731A400283028B0A430283BE
:104C80007047028B4FF2FF331A400283028B4FF6BC
:104C9000FF7303EA01231A4302837047828B4FF6A6
:104CA000F3731A408283828B0A4382837047828B1C
:104CB0004FF2FF331A408283828B4FF6FF7303EA71
:104CC00001231A4382837047002202881D4B9842B9
:104CD0000ED01D4B98420BD0B0F1804F08D01B4B2B
:104CE000984205D01A4B984202D01A4B984204D1F0
:104CF0004FF68F731A404B881A43174B984207D0D0
:104D0000164B984204D04FF6FF431A40CB881A4303
:104D100002808B8883850B8803850A4B98420BD0D1
:104D2000094B984208D00E4B984205D00D4B984243
:104D300002D00D4B984201D10B7A03860123838266
:104D400070470000002C0140003401400004004086
:104D500000080040000C004000100040001400401B
:104D60000040014000440140004801401FB54FF49D
:104D7000E13000900020ADF80600ADF80400ADF879
:104D80000800ADF80C000C20ADF80A006946074891
:104D900000F0C0F8012240F22551044800F094F8D8
:104DA0000121024800F04DF81FBD0000003801400D
:104DB00008B54020ADF8000018208DF8030003204E
:104DC0008DF8020069460B48FDF7D4FD8020ADF850
:104DD000000004208DF8030069460648FDF7CAFD6F
:104DE00001210920FEF72AFD01210420FDF74EFED6
:104DF00008BD0000000C014010B540F225510948E3
:104E000000F038F860B1074800F0F0F8C4B2064886
:104E100001880088401C044A10800448445400BFA4
:104E200010BD00000038014070000020D0000020BC
:104E300001F40072B2F5007F00D100BFCA430280C6
:104E4000704721B1828942F40052828104E0828954
:104E50004DF6FF731A408281704702460020B1F57B
:104E6000007F00D100BF13880B400BB1012000E090
:104E70000020704770B50246002400230025002062
:104E800040F66A16B14200D100BFC1F3421501F0ED
:104E90001F03012606FA03F3012D02D19689334040
:104EA00006E0022D02D1168A334001E0968A334093
:104EB0000C12012606FA04F41688344013B10CB122
:104EC000012000E0002070BDF0B50346002400265C
:104ED0000025002040F66A17B94200D100BF1846ED
:104EE000C1F3421401F01F06012707FA06F5012C51
:104EF00001D10C3004E0022C01D1103000E014305C
:104F00001AB107682F43076002E00768AF430760E4
:104F1000F0BD00002DE9F04786B005460E4600249E
:104F2000A24600BFA1460027B08900B100BF2F46AE
:104F30002C8A4CF6FF700440F08804432C82AC8924
:104F40004EF6F3100440B088318908437189084354
:104F50000443AC81AC8A4FF6FF400440B08904435F
:104F6000AC8201A8FEF7B0FC1F48874202D1DDF8F1
:104F700010A001E0DDF80CA0A88900F4004040B1C9
:104F80000AEBCA0000EB0A1031684900B0FBF1F8E7
:104F900007E00AEBCA0000EB0A1031688900B0FB99
:104FA000F1F86420B8FBF0F004012009642101FB52
:104FB0001089A88900F4004040B1322000EBC900FC
:104FC000B0FBF1F000F00700044308E0322000EBF2
:104FD00009106421B0FBF1F000F00F0004432C81B4
:104FE00006B0BDE8F087000000380140014688881F
:104FF000C0F30800704700002DE9F04137480088F1
:10500000002868D036480078732827D135480078C2
:1050100035490988401A354908600846006834490E
:105020000968B0FBF1F6304601F0F0F80546314969
:1050300001F034F9044601F0B1F82F4908702F4807
:1050400000682B490968B0FBF1F02D4908802A4817
:1050500002782CA12D4800F0E7FB39E020480078C9
:105060006D2810D11F48007800F0DAFD0646284A66
:10507000284B00F0E9FD044622460B4626A12348B2
:1050800000F0D2FB24E016480078662807D11B48C0
:105090000068C20822A11D4800F0C6FB18E01048B5
:1050A0000078612805D120480078401C1E4908700E
:1050B0000EE00B48007862280AD11B480078401E99
:1050C000194908701948027819A1104800F0ACFB82
:1050D000002002490880BDE8F08100007000002037
:1050E000D0000020210000201A0000202C00002009
:1050F000080000200000C0401700002088000020A9
:105100001800002073252E3166730A000038014014
:105110009A9999999999B93F6D252E31666D0A0032
:105120006625640A660000002000002001000020BF
:10513000663125640A000000C1F3080282807047CE
:10514000490050EAC12018BF04204A0D18BF40F0A2
:10515000010040F2FF72B2EB515F08BF40F0020065
:10516000012808BF0520704730380A2801D20120E5
:10517000704700207047000010B56FF00400FEF784
:105180007FFF0A4800680A49B0FBF1F0094908703E
:105190000846007800EB4001C1EBC0104FF6FF71EC
:1051A00001EAC0000449088010BD00004000002052
:1051B00000127A0094000020960000200146114A57
:1051C00012884A434FF0E0235A6100229A611A463E
:1051D000126942F001021A6100BF4FF0E02210692B
:1051E00000F001021AB100F48032002AF5D04FF02D
:1051F000E022126922F001024FF0E0231A6100223E
:105200009A617047960000200146114A12784A437D
:105210004FF0E0235A6100229A611A46126942F067
:1052200001021A6100BF4FF0E022106900F0010294
:105230001AB100F48032002AF5D04FF0E022126952
:1052400022F001024FF0E0231A6100229A617047B8
:105250009400002019498968C1F3811017498968B1
:1052600001F4807140EA911000BF072823D2DFE8E3
:1052700000F02213090E1D18040043F28101104AA8
:10528000118019E04FF446510D4A118014E043F2A9
:1052900008110B4A11800FE043F21801084A1180EF
:1052A0000AE043F61001064A118005E043F60101C9
:1052B000034A118000E000BF00BF704700100140AA
:1052C000202C01401FB5FEF715FC022278497948D1
:1052D000FEF755FD764840787749087000207749F9
:1052E00008707548007876490880FEF7A9F9FFF73D
:1052F00043FFFEF781FCFDF7A7FE4FF478407149AC
:10530000088071A018211023C822CDE90010A02127
:105310005020FEF70DF9FDF70FF9FCF77FFCFCF7C5
:105320001FFDFCF7AFFD4FF480516948FDF701FC0C
:10533000FFF73EFDFFF71AFDFDF726FCFCF76AFBC1
:10534000FCF7FEFD472142F20F70FFF763F941F6CB
:105350001F4141F28730FFF755F8FCF7BDFFFCF71E
:1053600009FFFCF72FFF5B48FEF77AFE04205A493D
:1053700008704FF47A70FFF721FF98E0FFF73CFECA
:10538000FDF716FC4D48007810B90020524908700E
:105390005148007806284ED2DFE800F0033F4E1B4C
:1053A0005154FCF7B3FC11E0FDF702FC4A480078C9
:1053B000032802D14849087009E04048007818B134
:1053C00001204549087002E0FEF7A4FBECE700BFAE
:1053D00000BF1CE04FF4E17040490880091D0880BF
:1053E000091D0880FCF77EFCFFF706FEFDF7E0FBD9
:1053F000FEF790FB38480078032808D00020384991
:105400000870012034490870FCF780FC03E0324842
:1054100000780328DED000BF00BF3248007850B1CA
:105420000120314908702B48FEF71AFEFCF75AFCA0
:1054300002202949087037E0FCF75CFB34E0FCF7F8
:1054400065FC31E02FE02948027829A102A8FAF78B
:105450002BFF4FF6FF70FDF777FDFCF757FC4FF47D
:1054600078401849088023A018211023C822CDE9CC
:105470000010A0215020FEF75BF802A8182110238D
:10548000C822CDE90010A0210846FEF751F80020FF
:10549000FDF79CFC1949087008460078042801D1E2
:1054A000FEF77EF900BFCEE700BFFEF733FB65E7EE
:1054B0002200002000FC0108210000202000002024
:1054C0001A0000209800002057454C434F4D4500DE
:1054D000000C01409C00002001000020342C014001
:1054E000300000200C0000201D0000201F000020C4
:1054F000256400004552524F520000002800002051
:105500002DE9F04F8FB004460E4692469946DDF8DD
:1055100060B000253C2094FBF0F0C5B2C5EB05104F
:10552000A4EB800084B222464EA10DA8FAF7BCFE7F
:10553000304600F087FC07463A460B464BA10BA8C5
:10554000FAF7B2FE52464BA109A8FAF7ADFE48465B
:1055500000F078FC07463A460B4644A107A8FAF744
:10556000A3FE5A4643A105A8FAF79EFE2A4641A18A
:1055700003A8FAF799FE092C14DC3FA01821102388
:10558000C822CDE90010DE214120FDF7D1FF0DA892
:1055900018211023C822CDE90010DE214D20FDF78F
:1055A000C7FF0DE0092C0BDD3B2C09DC0DA81821F1
:1055B0001023C822CDE90010DE214120FDF7B8FFFD
:1055C000092D14DC2CA018211023C822CDE90010CD
:1055D000DE212020FDF7ACFF03A818211023C822EC
:1055E000CDE90010DE212C20FDF7A2FF0DE0092DF2
:1055F0000BDD3B2D09DC03A818211023C822CDE9BF
:105600000010DE212020FDF793FF0BA818211023A6
:10561000C822CDE9001040F21F111920FDF788FFC4
:1056200009A860211023C822CDE900105A211420B6
:10563000FDF77EFF07A830211023C822CDE9001016
:1056400064216E20FDF774FF05A830211023C822C5
:10565000CDE90010E6218C20FDF76AFF0FB0BDE810
:10566000F08F0000252E316400000000252E3166E9
:105670000000000025640000300000002DE9F04F1C
:1056800091B082460E4615469946DDF868B0002472
:105690003C2095FBF0F0C4B2C4EB0410A5EB8000F5
:1056A000C5B2504600F0CEFB07463A460B4658A11D
:1056B0000FA8FAF7F9FD304600F0C4FB07463A465A
:1056C0000B4653A10DA8FAF7EFFD2A4652A10BA8ED
:1056D000FAF7EAFD484600F0B5FB07463A460B46A6
:1056E0004BA109A8FAF7E0FD5A464BA107A8FAF723
:1056F000DBFD49A105A81B9AFAF7D6FD224646A173
:1057000003A8FAF7D1FD092D14DC44A018211023B9
:10571000C822CDE9001080218920FDF709FF0BA8E0
:1057200018211023C822CDE9001080219520FDF713
:10573000FFFE13E03A49504600F07CFE0ED2394994
:10574000504600F077FD09D80BA818211023C82275
:10575000CDE9001080218920FDF7EAFE092C14DC38
:105760002EA018211023C822CDE900108021692025
:10577000FDF7DEFE03A818211023C822CDE9001092
:1057800080217520FDF7D4FE0DE0092C0BDD3B2CAC
:1057900009DC03A818211023C822CDE900108021BC
:1057A0006920FDF7C5FE0FA818211023C822CDE9F6
:1057B000001044218220FDF7BBFE0DA81821102304
:1057C000C822CDE9001062218220FDF7B1FE09A8B0
:1057D00018211023C822CDE90010A0217820FDF760
:1057E000A7FE07A818211023C822CDE90010BC216C
:1057F0008220FDF79DFE05A818211023C822CDE9BF
:105800000010DA218220FDF793FE11B0BDE8F08F81
:10581000252E3166000000002564000030000000E5
:105820000000104100006C420FB430B5A1B0054635
:10583000002426A80090802101A8009B259AFAF751
:1058400019FD80212846FFF7F3FA26E001A8005D44
:105850000A2813D10D212846FFF76EFC00BF8021D6
:105860002846FFF7FAFA0028F9D02046621CD4B285
:1058700001AA115C2846FFF75FFC07E02046621C86
:10588000D4B201AA115C2846FFF756FC00BF802164
:105890002846FFF7E2FA0028F9D0802C03DA01A8A5
:1058A000005D0028D2D10020009021B030BC5DF80E
:1058B00014FB000010B500290AD00878002807D092
:1058C00005487844FBF7A6FB002801D0002010BD56
:1058D0000248784410BD00006A4801006248010097
:1058E00010B500290AD00878002807D00548784468
:1058F000FBF790FB002801D0002010BD024878443F
:1059000010BD00005A4801005248010021F0004239
:10591000A2F16052B2F5801F01F0004328BFD2F11E
:105920007F6C0BD95FEA001C43EAC20242EB507065
:1059300018BF704728BF20F001007047B2F5801FE4
:10594000BCBF184670474FEA410C1CF5001F02D23D
:10595000084600F06ABD70B500F020FA000000892A
:10596000FFF7F6BF4FF00040A0F580007047000041
:105970002DE9C04130B4DFF8A0C23CEA111418BFD1
:105980003CEA131400F0EC8081EA03051CEA1114D0
:1059900044EAD57418BF1CEA131500F0C780A4EBC5
:1059A00005044FF0004545EAC12145EAC32341EA19
:1059B000505143EA525304F17F74994204F5003484
:1059C0004FEAC0204FEAC22208BF904200F09C80FC
:1059D0004FEA13650FF24016765D4FEA134506FB5A
:1059E00005F7C7F1807706FB07F74FEAD737A7FB24
:1059F00003687642C8F58038A7FB06CE38BFA8F109
:105A0000010807FB08E64FF0000EA6FB028CE6FB40
:105A100003CEDCF1000CCEF1004E38BFAEF1010E2A
:105A2000A6FB0C584FF000074FF00005E6FB0E8771
:105A3000A1FB08C6A0FB07CE16EB0E0645F100053C
:105A4000E1FB076515F1E04E7EBFA4F580345FEA07
:105A500046066D4116F1800745F100054FEA17270C
:105A60004FEA066647EA0567A6F1DE46B6F1805FB3
:105A70004FEA15251FD9384624F0010C05EBC471F7
:105A8000BCF1FE6F01EB0C1102D8F0BCBDE8008147
:105A900024425CBF01F5801E9EEAC47F02D4F0BCA4
:105AA000BDE80081244238D4F0BCA1F1C041BDE87A
:105AB000004100F0C1B94FEAD22242EA43524FEA14
:105AC000D323A7FB02864FEAD02040EA415007FBD0
:105AD00003661EEA0E0F4FEAD12105FB026658BF8E
:105AE000A6EB0056B6EB00564FEA520E4EEAC37EC6
:105AF00018EB0E0E56EB530EBDD518EB02085E41A7
:105B00007F1C55F10005B6E74FF480154FF00007F4
:105B10004FF000064FF00008ADE7F0BC4FF000007A
:105B200001F1C04101F00041BDE8008111EA0C1F04
:105B30000CEA131500D00CE013EA0C1F00F02580CE
:105B40004FF00000F0BC81EA030101F00041BDE824
:105B50000081F0BCBDE8004181EA030100F06CB9AE
:105B6000F0BCBDE8004170B500F018F9097EFC3EBC
:105B700000F007B881EA03014FF0000001F0004196
:105B8000704781EA030100F057B9F0BCBDE800415D
:105B90004FF0000021497047FFFDFBF9F7F5F4F2E3
:105BA000F0EEEDEBE9E8E6E4E3E1E0DEDDDBDAD8B8
:105BB000D7D5D4D3D1D0CFCDCCCBCAC8C7C6C5C416
:105BC000C2C1C0BFBEBDBCBBBAB9B8B7B6B5B4B32D
:105BD000B2B1B0AFAEADACABAAA9A8A8A7A6A5A418
:105BE000A3A3A2A1A09F9F9E9D9C9C9B9A999998DC
:105BF0009797969595949393929191908F8F8E8E7F
:105C00008D8C8C8B8B8A898988888787868585840B
:105C100084838382828181800000FF070000F87FF7
:105C2000B0FA80F310FA03F10AD0C3F11D0303F5B3
:105C300080634FEA41504FEA035202EBD121704793
:105C40004FF0000070470000DFF848C170B51CEA53
:105C5000111E1EBF1CEA13159EEA0C0F95EA0C0FCD
:105C600000F06F8081EA030423EA4C134EEAD47EED
:105C700021EA4C1141F4801143F48013AE44A1FB9E
:105C8000024CA0FB0365AEF17F7E361955EB0C0587
:105C9000A1FB034C4CF10003A0FB021C16EB0C060D
:105CA000654153F10003094218BF46F0010613F4A1
:105CB000007F0BD14FEA03314FEA0530340341EA4C
:105CC000155140EA16506FF003020AE04FEAC32173
:105CD0004FEAC520F40241EA555140EA56506FF0B0
:105CE000020202EB2E4201EB025585EACE710AD088
:105CF0005FEA440C18BF24F0004450F1000041F169
:105D0000000120EAD47040F2FE7C624500D270BDF2
:105D1000A84214BF4FF080444FF04044002E08BF0B
:105D20000024BEF1806FA8BFA1F1C041BDE8704062
:105D300080F282804FF0000001F1C04101F000418B
:105D400070479EEA0C0F0CEA131518BF95EA0C0F6A
:105D500006D04FF0000081EA030E0EF0004170BD46
:105D600000F01CF88900013E00F007B800F009B807
:105D70004FEA430C5FEA5C5C08D081EA030100F063
:105D80005BB84FEA410C5FEA5C5CF6D14FF0000073
:105D9000014970470000FF070000F87F0EF1020E76
:105DA0002EF0030E5EF8046B364205D4012A43EB55
:105DB000030515F5001F12D8012841EB010C1CF555
:105DC000001F0CD80ED14FEAD17C15F5001F0CEB4B
:105DD0004C0C0CF1020C08BF4CEBD37C04E04FF0F0
:105DE000080C01E04FEAD37C0CEB4C0526FA05F6D3
:105DF00006F00706B6F1040C06D20EEB860CBDE8E1
:105E000070404CF0010C6047DFE80CF0090B020217
:105E10004FF000414FF00000A1F5002170BD194680
:105E20001046012851EB010418BFD4F5001484BFBB
:105E3000002001F0004170BD0808A0F500114FEAF4
:105E40003101704743004FEAD30C4FEA3C0C43400A
:105E50001FBF40070CF1605113F0FE4F70471CF05C
:105E6000006F03D100200CF0004170470CF000439C
:105E700043EA507010B540EACC0000F090FA00BF41
:105E8000000000924FEA0001FFF7D6BF4FF000413B
:105E90004FF00000A1F500217047000090EA010FCB
:105EA00048BF81F0004100F1FE82421A3CBF801AD7
:105EB00089184FEAD0524FF07F4C1CEA410FA2EBF9
:105EC000D15318BF9CEA026F00F03B804FF0004CAA
:105ED0004CEA00204CEA012121FA03FC10EB0C0CE7
:105EE0001ED202F1FF325FEA1C2040EBC25038BFE5
:105EF00070471CF07F0F4FEA400C18BFBCF17F4F7A
:105F000038BF7047C3F12003994008BF20F001005B
:105F1000BCF17F4F38BF7047A0F1C04000F085BA98
:105F20004FEA3C00000A40EBC25028BF1CF0FF0FB4
:105F30004FEA400CE6D018BFBCF17F4F38BF704726
:105F4000EAE79CEA026F05D010EA5C0F08BF00F098
:105F50000040704710B500F022FA00BF64FBBE3E5F
:105F6000401058BFC0F14040491058BFC1F14041F6
:105F70008142EFF3008070474FF47F0C1CEAD0128F
:105F80001EBF1CEAD11392EA0C0F93EA0C0F00F02B
:105F9000858090EA010F48BF42F4807240F4000C03
:105FA00041F400002CF07F4120F07F4000B5814299
:105FB000A2EB03020FF2081CACEB504EC0F1000044
:105FC0009EF800E04FEA4E0E00FB0EFC38BF490081
:105FD0004FEA2C1C02F5FA020CFB0EF34FEACE1E20
:105FE0004FEA112C4FEAC1210EEB635E42EB2242D5
:105FF0000EFB0CFC4FEA1C5300FB03114FEA112C63
:106000004FEA01310EFB0CFC4FEADC4C00FB0C119B
:10601000C14228BF09184CEB03335DF804EB10EBC9
:10602000410143EBC250B2F57C0F38BF704729D510
:1060300012F0F00F1CBF00F1C04000F000407047AC
:10604000008182838485868788898B8C8D8E8F9151
:106050009293959697999A9C9D9FA0A2A3A5A7A875
:10606000AAACAEB0B2B3B5B7B9BCBEC0C2C5C7C9A1
:10607000CCCED1D4D7D9DCDFE2E6E9ECF0F3F7FA05
:10608000FE0000004FEA400C0CF1807CBCF17E4F1A
:1060900028BF7047B0F1C04000F0C7B990EA010FC7
:1060A0000CEAD11348BF42F48072624538BF6345A1
:1060B00007D213F47F0F16D080EA010000F00040F1
:1060C000704710B500F06BF9097EFC3E00F005B892
:1060D00080EA010000F00040704780EA010000F013
:1060E000004000F0A2B912F47F0F04BF02487047CD
:1060F00080EA010000F099B90000C07F50EA010C6D
:1061000000F113801CF5000F58BFBCF5000F01D43F
:106110008842704707D710F5000F58BF11F5000FE0
:1061200015D488427047894270471CF5000F04D58A
:10613000BCF5000FF7D5814270474FF0807C1CEB17
:10614000400F38BF1CEB410F01D28142704710B5A0
:1061500000F025F9922449004FF000504FF0805193
:10616000FFF7FEBE41000B0ED3F19E0208D950F49A
:1061700000034FEA032323FA02F048BF404270476E
:1061800010B500F00CF900BF499224800020704740
:106190006FF0004282EA200070470000C10DD1F18B
:1061A0009E0206DB4FEA002343F0004323FA02F08D
:1061B0007047004207D54FEA4001B1F1FE4F02D2CD
:1061C0004FF00000704710B500F0E9F849922480C4
:1061D000002070476FEA20007047000010F0004177
:1061E00048BF4042B0FA80F310FA03F2C3F19D03B6
:1061F0000BD051EAC35101EB1220530638BF704750
:1062000000F1010008BF20F001007047B0FA80F3F0
:1062100010FA03F2C3F19D030AD0D90501EB122055
:10622000530638BF704700F1010008BF20F001009D
:106230007047000050EA010C00F113801CF5000FBC
:1062400058BFBCF5000F01D48842704707D710F53E
:10625000000F58BF11F5000F15D4884270478942CE
:1062600070471CF5000F04D5BCF5000FF7D581422F
:1062700070474FF0807C1CEB400F38BF1CEB410F88
:1062800001D28142704710B500F089F8922449008C
:106290004FF000504FF08051FFF762BE4FF47F0C7B
:1062A0001CEAD0121EBF1CEAD11392EA0C0F93EA2B
:1062B0000C0F00F0478090EA010F48BF42F4807253
:1062C0004FF0004C4CEA00204CEA012102EB0302A3
:1062D000A0FB0113A2F50002002918BF43F001033F
:1062E0005B0028BF4FEA330342EB22425FEA132CE4
:1062F0004CEBC2502EBFBCEB436FB2F57C0F704726
:106300004FEA036CBCF1004F08BF20F00100B2F56A
:106310007C0F38BF70470BD582F0FF0212F5803F2B
:10632000C8BF704700F1C040D8BF00F000407047C0
:1063300000F5000C5FEA4C0C48BF7047B0F1C0405C
:1063400000F073B890EA010F0CEAD11348BF42F491
:106350008072624538BF634504D280EA010000F0D4
:106360000040704710B500F01AF800BF8900013EE8
:1063700000F007B800F009B85FEA410C5FEA1C6C56
:1063800008D080EA010000F050B85FEA400C5FEAF4
:106390001C6CF6D14FF00040A0F5800070470EF164
:1063A000020E2EF0030E5EF8044B244204D44FEA92
:1063B0004102B2F17F4F11D84FEA4003B3F17F4F52
:1063C0000CD80ED14FEAD07CB2F17F4F0CEB4C0CC5
:1063D0000CF1020C08BF4CEBD17C04E04FF0080C30
:1063E00001E04FEAD17C0CEB4C0324FA03F404F0F7
:1063F0000704B4F1040C06D20EEB840CBDE8104087
:106400004CF0010C6047DFE80CF0070802024FF087
:106410000040A0F5800010BD0846420018BFD2F130
:10642000807288BF00F0004010BDFF2141EAD050CB
:10643000C005704751EA000C00F113801CF5000FF5
:1064400058BFBCF5000F01D48142704707D711F542
:10645000000F58BF10F5000F15D4814270478942D4
:1064600070471CF5000F04D5BCF5000FF7D5884226
:1064700070474FF0807C1CEB410F38BF1CEB400F86
:1064800001D28842704780EA010081EA000180EA77
:106490000100FFF7F8BE000090EA010F48BF81F04D
:1064A00000413FF502AD421A04D882F00042A0EB51
:1064B000020011444FEAD0524FF07F4C1CEA410FCA
:1064C000A2EBD15318BF9CEA026F4AD04FF0004CA8
:1064D0004CEA00204CEA012121FA03FCB0EB0C0C41
:1064E0000FD412F0FE0F36D05FEA4C001DD500121B
:1064F00040EBC25038BF70471CF03F0F18BF7047C9
:106500000BE0A2F101025FEA1C2040EBC25038BF51
:1065100070471CF07F0F18BF7047C3F120039940EC
:1065200014BF401E20F00100704780084FEA12237C
:1065300008BF7047B0FA80FCA2EB0C02CCF1280C2B
:1065400060FA0CF093EA122F04BF00EBC2507047C0
:106550004FEAC3707047130A5FEADC1008BF704748
:10656000F6E79CEA026F04D010EA5C0F08BF002037
:10657000704710B5FFF713FF40DFF63E81F0004093
:106580007047FAF750B9000000000000000000005A
:106590000000000000003F4000000000000000007C
:1065A0003000400030004000000009000BC03D00FA
:1065B0000BC03D00090018C024407FE0224031801C
:1065C0000000180024C01B000D80324001800380B1
:1065D0001C4027401C800740004010006000000065
:1065E0000000000000000000000000001F802040AC
:1065F00040200000402020401F80000000000900D3
:1066000006001F80060009000000040004003F800F
:106610000400040000000010006000000000000002
:106620000000040004000400040004000000000056
:1066300000400000000000000000002001C0060033
:106640003800400000001F802040204020401F8074
:106650000000000010403FC000400000000018C0D3
:106660002140224024401840000010802040244057
:1066700024401B80000002000D0011003FC00140BB
:1066800000003C80244024402440238000001F80E0
:10669000244024403440038000003000200027C004
:1066A0003800200000001B802440244024401B8030
:1066B00000001C0022C0224022401F800000000079
:1066C000000008400000000000000000000004601E
:1066D000000000000000000004000A0011002080FB
:1066E00040400900090009000900090000000000FD
:1066F0004040208011000A000400180020002340C0
:106700002400180000001F802040274029401F401F
:106710000000004007C039000F0001C000402040C9
:106720003FC0244024401B8000001F8020402040A8
:1067300020403080000020403FC0204020401F808B
:10674000000020403FC024402E4030C000002040C8
:106750003FC024402E00300000000F001080204079
:1067600022403380020020403FC0040004003FC0AC
:106770002040204020403FC02040204000000060DA
:10678000202020203FC02000200020403FC0244087
:106790000B0030C0204020403FC02040004000405F
:1067A00000C03FC03C0003C03C003FC00000204090
:1067B0003FC00C4023003FC020001F8020402040ED
:1067C00020401F80000020403FC0244024001800CB
:1067D00000001F802140214020E01FA00000204039
:1067E0003FC02440260019C0004018C02440244067
:1067F000224031800000300020403FC02040300067
:10680000000020003F80004000403F80200020002A
:106810003E0001C0070038002000380007C03C00DF
:1068200007C038000000204039C0060039C02040B1
:1068300000002000384007C03840200000003040F1
:1068400021C02640384020C00000000000007FE04A
:10685000402040200000000070000C000380004039
:1068600000000000402040207FE000000000000009
:106870002000400020000000000000100010001068
:106880000010001000100000000040000000000098
:106890000000000002800540054003C000402000C9
:1068A0003FC0044004400380000000000380044017
:1068B00004400640000000000380044024403FC024
:1068C0000040000003800540054003400000000038
:1068D00004401FC0244024402000000002E0055076
:1068E00005500650042020403FC00440040003C06F
:1068F00000400000044027C00040000000000010DD
:106900000010041027E00000000020403FC00140BC
:10691000070004C00440204020403FC00040004029
:10692000000007C0040007C0040003C000000440CA
:1069300007C00440040003C000400000038004407E
:10694000044003800000041007F00450044003805A
:106950000000000003800440045007F000100440D1
:1069600007C002400400040000000000064005408B
:10697000054004C00000000004001F8004400040E7
:106980000000040007800040044007C000400400ED
:10699000070004C0018006000400060001C00700D3
:1069A00001C006000000044006C0010006C004400B
:1069B00000000410071004E001800600040000003D
:1069C000044005C006400440000000000000040030
:1069D0007BE040200000000000000000FFF000000D
:1069E0000000000040207BE00400000000004000A8
:1069F0008000400020002000400000000000000057
:106A00000000000000000000000000000000000086
:106A10001FCC000C00000000000000000800300047
:106A200060000800300060000000022003FC1E200F
:106A3000022003FC1E200220000000000E1811049A
:106A40003FFF10840C78000000000F0010840F3806
:106A500000C0077818840078000000780F8410C404
:106A600011240E9800E400840008080068007000FB
:106A70000000000000000000000000000000000016
:106A800007E0181820044002000000004002200423
:106A9000181807E0000000000000024002400180DA
:106AA0000FF0018002400240000000800080008062
:106AB0000FF800800080008000000001000D000E33
:106AC00000000000000000000000000000800080C6
:106AD000008000800080008000800000000C000C1E
:106AE0000000000000000000000000000006001888
:106AF00000600180060018002000000007F0080870
:106B000010041004080807F000000000080408043E
:106B10001FFC000400040000000000000E0C101414
:106B20001024104411840E0C000000000C181004F6
:106B30001104110412880C700000000000E0032012
:106B4000042408241FFC0024000000001F98108467
:106B500011041104108810700000000007F008886C
:106B60001104110418880070000000001C001000BF
:106B700010FC13001C001000000000000E3811442F
:106B80001084108411440E38000000000700088CA7
:106B900010441044088807F00000000000000000C6
:106BA000030C030C000000000000000000000001C6
:106BB000010600000000000000000000008001400D
:106BC0000220041008081004000002200220022005
:106BD0000220022002200220000000001004080809
:106BE0000410022001400080000000000E0012008E
:106BF000100C106C10800F00000003E00C1813E460
:106C0000142417C4082807D000000004003C03C463
:106C10001C40074000E4001C000410041FFC110489
:106C2000110411040E880070000003E00C18100419
:106C30001004100410081C10000010041FFC1004A5
:106C400010041004080807F0000010041FFC1104D1
:106C5000110417C410040818000010041FFC1104CC
:106C6000110017C010000800000003E00C18100409
:106C7000100410441C780040000010041FFC108415
:106C80000080008010841FFC100400001004100419
:106C90001FFC10041004000000000003000110019C
:106CA00010011FFE10001000000010041FFC110452
:106CB00003801464181C1004000010041FFC10044E
:106CC000000400040004000C000010041FFC1F005E
:106CD00000FC1F001FFC1004000010041FFC0C042B
:106CE000030000E010181FFC100007F00808100453
:106CF00010041004080807F0000010041FFC1084A2
:106D00001080108010800F00000007F00818102479
:106D10001024101C080A07F2000010041FFC1104C4
:106D2000110011C011300E0C000400000E1C1104E3
:106D30001084108410441C38000018001000100447
:106D40001FFC100410001800000010001FF81004B1
:106D50000004000410041FF8100010001E0011E0D1
:106D6000001C007013801C0010001FC0103C00E0CD
:106D70001F0000E0103C1FC000001004180C163467
:106D800001C001C01634180C100410001C001304BC
:106D900000FC13041C00100000000804101C106408
:106DA000108413041C0410180000000000000000F0
:106DB0007FFE4002400240020000000030000C0054
:106DC00003800060001C000300000000400240023D
:106DD00040027FFE000000000000000000002000D4
:106DE00040004000400020000000000100010001C0
:106DF000000100010001000100010000400040000E
:106E000020000000000000000000000000980124A5
:106E100001440144014400FC000410001FFC0088F0
:106E20000104010400880070000000000070008868
:106E300001040104010400880000000000700088C3
:106E40000104010411081FFC0004000000F80144C3
:106E500001440144014400C8000000000104010491
:106E60000FFC1104110411001800000000D60129C4
:106E70000129012901C90106000010041FFC00843A
:106E800001000100010400FC0004000001041904D9
:106E900019FC0004000400000000000000030001D1
:106EA0000101190119FE0000000010041FFC00245C
:106EB000004001B4010C01040000000010041004A3
:106EC0001FFC0004000400000000010401FC010498
:106ED000010001FC0104010000FC010401FC00842C
:106EE00001000100010400FC0004000000F801049E
:106EF00001040104010400F80000010101FF008504
:106F00000104010400880070000000000070008887
:106F100001040104010501FF00010104010401FC59
:106F200000840104010001800000000000CC012465
:106F30000124012401240198000000000100010047
:106F400007F80104010400000000010001F800043A
:106F500000040004010801FC00040100018001702C
:106F6000000C001001600180010001F0010C0030F4
:106F700001C00030010C01F0010000000104018C8F
:106F800000740170018C0104000001010181017194
:106F9000000E001801600180010000000184010C56
:106FA000013401440184010C0000000000000000D5
:106FB000000001003EFC4002400200000000000012
:106FC0000000FFFF0000000000000000400240023F
:106FD0003EFC010000000000000000006000800096
:106FE0008000400040002000200000000000000061
:106FF0000000000000000000000000000000000091
:107000000000000000000000000000000000000080
:10701000000000000000000000000000000F8038A9
:107020000FFE380F80380000000000000000000054
:1070300000000000000000000100000600000C003D
:10704000003800003100000600000C00003800008D
:107050003000000000000000000061800067F807B9
:10706000F9800061800061800061800061800067BC
:10707000F807F980006180000000000000000000B7
:1070800001C0E003E0F00630080418081FFFFE040A
:107090000E080787F00381E000000000000001F007
:1070A00000060C00040408060C7001F9C0000E0074
:1070B000003BE000EC18070808040C180003E0008F
:1070C00000000001E00007F003F818041C08041792
:1070D0000807E1D003C0E00023B0003C080020080E
:1070E000000010000000000000010000310000322C
:1070F00000001C0000000000000000000000000074
:10710000000000000000000000000000000000007F
:10711000000000000000000000007F0001FFC00729
:1071200080F00C0018100004200002000000000095
:10713000002000021000040C00180780F001FFC0BE
:10714000007F0000000000000000000000000000C0
:107150000000000000004200006600006600003CE5
:107160000000180003FFC0001800003C000066008B
:107170000066000042000000000008000008000057
:10718000080000080000080001FFC0000800000817
:1071900000000800000800000800000000000001D6
:1071A00000003100003200001C0000000000000060
:1071B00000000000000000000000000000000000CF
:1071C0000000080000080000080000080000080097
:1071D0000008000008000008000008000008000087
:1071E000000000000000000000003800003800002F
:1071F0003800000000000000000000000000000057
:1072000000000000000000000000000600001C005C
:107210000070000180000E0000380000C000070070
:10722000001C0000300000000000000000007F8013
:1072300001FFE0038070060018040008040008063F
:10724000001803807001FFE0007F80000000000054
:107250000000000001000801000801000803FFF819
:1072600007FFF80000080000080000080000000008
:10727000000000000001C03802C05804009804015A
:1072800018040218040418061C1803F81801E0F882
:1072900000000000000000000001C0E003C0F00496
:1072A000000804080804080806180803F41801E791
:1072B000F00001E0000000000000000000000300FA
:1072C000000D0000110000610000810803010807A3
:1072D000FFF80FFFF800010800010800000000009F
:1072E000000000E007FCD006080806100806100899
:1072F000061008061838060FF00607C00000000048
:107300000000000000003F8001FFE003843002081D
:1073100018041008041008041008071810030FF0D0
:107320000007C000000000000000000003C00007CC
:1073300000000600000600F80607F806180006E040
:107340000007000006000000000000000001E1E06E
:1073500003F7F0063410041808041808040C080495
:107360000C0806161803F3F001C1E000000000004D
:107370000000F80003FC3003063804020804020889
:107380000402080404100308F001FFC0007F00009D
:1073900000000000000000000000000000000000ED
:1073A00000007038007038007038000000000000E5
:1073B00000000000000000000000000000000000CD
:1073C000000000000000301A00301C000000000027
:1073D00000000000000000000000000000000000AD
:1073E000000800001400002200004100008080011D
:1073F0000040020020040010080008000000000007
:1074000000002100002100002100002100002100D7
:1074100000210000210000210000210000210000C7
:107420000000000000000000080008040010020036
:107430002001004000808000410000220000140074
:1074400000080000000000000003C00004C00004A9
:107450000000080038080F380808380810000C3001
:107460000007E00003C000000000000000003F80B3
:1074700000FFE0038070020F1006708804C08804CB
:107480008308047F8802C09003012000FE400000B2
:10749000080000180001F8003E0801C200070200C1
:1074A00007E20000FE00001FC80001F800003800DD
:1074B000000804000807FFF807FFF804080804089C
:1074C0000804080804080806180803F41801E7F07F
:1074D0000001E0000000000000003F8001FFE00329
:1074E000807002001804000804000804000804006A
:1074F000100600200780C000000004000807FFF805
:1075000007FFF8040008040008040008040018023B
:10751000001003807001FFE0007F80000000040085
:107520000807FFF807FFF80408080408080408081B
:10753000040808043E080400080600180100600062
:10754000000004000807FFF807FFF8040808040813
:1075500000040800040800043E00060000060000C5
:10756000018000000000000000003F8001FFE003F8
:1075700080700600180400080402080402080203D0
:10758000F00783F000020000020004000807FFF883
:1075900007FFF804080800080000080000080000C1
:1075A000080004080807FFF807FFF80400080000B7
:1075B0000000000004000804000804000807FFF8A9
:1075C00007FFF80400080400080400080000000099
:1075D0000000000000000006000007000001040099
:1075E0000104000104000307FFFE07FFFC04000084
:1075F00004000004000004000807FFF807FFF80477
:107600000C08001800003E0004C7800503C80600EF
:10761000F804003804001800000804000807FFF808
:1076200007FFF80400080000080000080000080038
:1076300000080000080000180000600000000400BE
:107640000807FFF807800807FC00007FC00003F868
:107650000007C000780007800807FFF807FFF8045C
:10766000000804000807FFF807000803C00000E056
:1076700000003800001E000007000001C00400F0F8
:1076800007FFF8040000000000007F8001FFE00316
:1076900080700600180400080400080600180300A3
:1076A0003001FFE0007F8000000004000807FFF8C1
:1076B00007FFF804040804040004040004040004A0
:1076C0000400060C0003F80001F0000000000000B8
:1076D00000007F8001FFE0038070060088040088BE
:1076E0000400C806003C03003E01FFE6007F840062
:1076F000000004000807FFF807FFF8040808040862
:1077000000040C00040F00040BC00610F003F03856
:1077100001E00800000800000001E0F803F0300676
:107720003010041808041808040C08040C08020699
:10773000180207F00781E000000001800006000049
:1077400004000004000004000807FFF807FFF80425
:10775000000804000004000006000001800004008E
:107760000007FFE007FFF004001800000800000811
:1077700000000800000800000804001007FFE004F3
:10778000000004000006000007E00007FE00041FE0
:10779000E00001F80000380001E0043E0007C000EE
:1077A00006000004000004000007E00007FFC0041A
:1077B0001FF80007C007F80007FF80043FF8000724
:1077C000C004F800070000040000000000040008E6
:1077D00006001807C07805F1C8003E00001F8004AD
:1077E00063E80780F80600180400080000000400A1
:1077F0000006000007800007E008047C08001FF86E
:107800000007F800180804E008070000060000045C
:1078100000000000000100080600380400F804031E
:10782000E8040F08047C0805F00807C008070018E2
:1078300004006000000000000000000000000000E4
:1078400000000000003FFFFE200002200002200098
:1078500002200002200002000000000000000000E2
:1078600008000007000000C000003800000600000B
:1078700001C000003000000E000001000000000008
:107880000000000020000220000220000220000270
:107890002000023FFFFE000000000000000000008A
:1078A00000000000000000000000000800001000C0
:1078B0000030000020000030000010000008000030
:1078C00000000000000000000100000100000100B5
:1078D00000010000010000010000010000010000A3
:1078E0000100000100000100000100000000000094
:1078F0000000002000002000001000001000000028
:107900000000000000000000000000000000000077
:10791000000000F00019F8001B18002208002608DB
:10792000002408002410003FF8001FF800000800A1
:10793000001800000004000007FFF80FFFF0001817
:1079400018001008002008002008003018001FF060
:10795000000FC00000000000000007C0001FF00082
:107960001830002008002008002008003C08001CF7
:10797000100000600000000000000000000007C0D0
:10798000001FF0003818002008002008002008041C
:10799000101007FFF80FFFF00000100000000000BB
:1079A000000000000007C0001FF000123000221885
:1079B000002208002208003208001E10000E2000DD
:1079C000000000000000200000200800200801FF47
:1079D000F803FFF806200804200804200807200008
:1079E00003000000000000000000000E000E6E000A
:1079F0001FF30031B10020B10020B1003191001F10
:107A000013002E1E00200E003000000000040008AD
:107A100007FFF80FFFF8001008002000002000000A
:107A20002008003FF8001FF80000080000000000D8
:107A300000000000002008002008002008063FF891
:107A4000063FF800000800000800000800000000E1
:107A50000000000000000000000003000003002000
:107A600001002001002003063FFE063FFC0000004D
:107A700000000000000000000004000807FFF80FED
:107A8000FFF8000188000300002FC00038F8002034
:107A9000380020080000080000000000000000007E
:107AA00004000804000804000807FFF80FFFF800AE
:107AB000000800000800000800000000000000208E
:107AC00008003FF8003FF8001008002000003FF8D1
:107AD000003FF8001008002000003FF8003FF800C9
:107AE0000008000000002008003FF8003FF80010E8
:107AF00008001000002000002008003FF8001FF8D8
:107B00000000080000000000000007C0000FF000A7
:107B10001830003008002008002008003008001845
:107B200030000FF00007C00000000000000020013E
:107B3000003FFF003FFF0010110020090020080057
:107B40002008003038001FF0000FC00000000000C7
:107B5000000007C0001FF0003818002008002008AF
:107B6000002009001011001FFF003FFF000001006E
:107B70000000002008002008002008003FF8003F17
:107B8000F80008080010080020080020000030005D
:107B9000003000000000000000000000000C780031
:107BA0001E18003308002308002108002188002146
:107BB000980030F000386000000000000000200055
:107BC00000200000200000FFF003FFF80020080064
:107BD0002008002008000030000000000000000025
:107BE00000002000003FF0007FF8000018000008AF
:107BF000000008002010003FF8007FF00000100097
:107C00000000000000002000003000003C00003FA9
:107C1000800023F0000078000070002380003C000A
:107C2000003000002000002000003C00003FE00089
:107C300023F80000E0002700003E00003FE00021A4
:107C4000F80001E0003E00002000000000002008D5
:107C5000002008003838003E680027800003C80074
:107C60002CF8003838002018002008000000000020
:107C700000002000003003003C01003F830023ECA3
:107C8000000070002380003C000020000020000065
:107C9000000000000000000000380800203800202C
:107CA000F80023E8002F88003E080038080020185C
:107CB0000000700000000000000000000000000054
:107CC00000000000000008000014001FF7FC300056
:107CD000062000020000000000000000000000007C
:107CE000000000000000000000000000FFFFFF0097
:107CF0000000000000000000000000000000000084
:107D0000000000002000023000061FF7FC001400F5
:107D1000000800000000000000000000000000005B
:107D2000000000000018000060000040000040005B
:107D30000020000010000008000004000004000003
:107D40000C00001000000000000000000000000017
:107D50000000000000000000000000000000000023
:107D60000000000000000000000000000000000013
:107D70000000000000000000000000000000000003
:107D800000000000000000000000000000000000F3
:107D9000000000000000000000000000000007F0EC
:107DA00000C007FFE1E007F001E0000000C00000B4
:107DB00000000000000000000000000000000000C3
:107DC0000000000000000000000000000000002093
:107DD000000001C00000078000001F0000001E001E
:107DE00000001C20000001C00000078000001F00F0
:107DF00000001E0000001C00000000000000000049
:107E00000000000000000000000000180C00001836
:107E10000C0000180FE0001FFC0003F80C00001815
:107E20000C0000180C0000180C0000180C000018C2
:107E30000FE0001FFC0003F80C0000180C000018F5
:107E40000C00000000000000000000000000000026
:107E50000780007807C000FC0640010E00200307E1
:107E60000020020380200FFFFFFC0201C02002005F
:107E7000E0600130704001F03F8000F01F00000022
:107E800000000000000000FE000001FF00000301F0
:107E9000800002008060030181C001FF070000FE36
:107EA00018000000E0000003BF00000CFFC00071DC
:107EB000806001C10020030180600000FFC000005D
:107EC0003F000000000000001F0000007FC000FC19
:107ED000C0C001FF80600303E02002027820020698
:107EE0001E2003FC074001F00380000103C00001D5
:107EF0001C600001E02000010020000100400000A3
:107F000001800000000000000000002000001C6054
:107F100000001C4000001F8000000F000000000057
:107F20000000000000000000000000000000000051
:107F30000000000000000000000000000000000041
:107F40000000000000000000000000000000000031
:107F50000000000000000000000000000000000021
:107F600000000007F800003FFF00007807C001C0D4
:107F700000E00300003004000008080000041000C6
:107F800000020000000000000000100000020800D5
:107F90000004040000080300003001C000E0007885
:107FA00007C0003FFF000007F800000000000000CD
:107FB00000000000000000000000000000000000C1
:107FC0000000000000000000000000000000000CA5
:107FD0001800000E3800000E3800000630000003C4
:107FE00060000061438000FFFF80006143000003E8
:107FF000600000063000000E3800000E3800000C53
:108000001800000000000000000000000000000058
:108010008000000080000000800000008000000060
:10802000800000008000007FFF0000008000000052
:108030008000000080000000800000008000000040
:1080400080000000000000000000000000010000AF
:1080500000E3000000E2000000FC000000780000E7
:108060000000000000000000000000000000000010
:108070000000000000000000000000000000000000
:108080000000000000000000000000008000000070
:1080900080000000800000008000000080000000E0
:1080A00080000000800000008000000080000000D0
:1080B00080000000800000008000000080000000C0
:1080C0008000000000000000000000000000000030
:1080D00000C0000001E0000001E0000000C000005E
:1080E0000000000000000000000000000000000090
:1080F0000000000000000000000000000000000080
:10810000000000000000000000000000000C000063
:108110000038000000E00000038000000E000000B6
:1081200038000000E00000038000000E000000386E
:10813000000000E00000038000000E0000001800B6
:108140000000000000000000000000000000000F20
:10815000F800007FFF0000F00780018000C00300EE
:108160000060020000200200002002000020030046
:108170000060018000C000E00380007FFF00000F6E
:10818000F8000000000000000000000000000000F7
:10819000000000800020008000200080002000807F
:1081A000006001FFFFE003FFFFE00000006000004F
:1081B000002000000020000000200000000000005F
:1081C0000000000000000000000000000000007837
:1081D00000E00098016001000260020004600200FB
:1081E000086002001060020020600200406003008E
:1081F00080600183006001FE00E0007C07800000D9
:10820000000000000000000000000000000000F07E
:10821000078001F007C001000040020000200201B9
:1082200000200201002002010020030380200186BB
:10823000804001FCC0C000787F8000001E0000006C
:108240000000000000000000000000000800000026
:108250003800000048000001880000060800000CFB
:108260000810003008100040081001FFFFF003FF65
:10827000FFF003FFFFF000000810000008100000EE
:1082800008100000000000000000000000000000D6
:108290000780001F864003E1002003020020030442
:1082A0000020030400200304002003040020030630
:1082B0000040030301C00301FF8003007E000000B3
:1082C00000000000000000000000000000000007A7
:1082D000FC00003FFF000070C380008180C00101EE
:1082E00000600302002002020020020200200202BD
:1082F00000200203004001C180C000C0FF800000D8
:108300007E0000000000000000000000000000F0FF
:10831000000003C000000380000003000000030011
:1083200007E003003FE00301C0000306000003185C
:108330000000036000000380000003000000000054
:108340000000000000000000000000001F00007896
:108350003F8000FC60C0018EC04003078020020304
:10836000002002018020020180200201C0200301C0
:10837000E040018670C000FC3F8000781F000000D4
:1083800000000000000000000000003F000000FFAF
:1083900081C001C0C1C00100602002002020020095
:1083A00020200200202002002060020040C00100C6
:1083B000C18000C18F00007FFE00001FF0000000A0
:1083C00000000000000000000000000000000000AD
:1083D000000000000000000000000000000000039A
:1083E00000C0000781E0000781E0000300C000003A
:1083F000000000000000000000000000000000007D
:10840000000000000000000000000000000000006C
:108410000000000000000000000000000000000656
:108420000066000600780000000000000000000068
:10843000000000000000000000000000000000003C
:10844000000000000000000000000000000000002C
:1084500080000001C0000003600000063000000C36
:10846000180000180C00003006000060030000C077
:108470000180010000400200002004000010000004
:1084800000000000000000000000000410000004D4
:10849000100000041000000410000004100000048C
:1084A000100000041000000410000004100000047C
:1084B000100000041000000410000004100000046C
:1084C0001000000000000000000000000000040098
:1084D0000010020000200100004000C00180006088
:1084E00003000030060000180C00000C1800000605
:1084F0003000000360000001C000000080000000A8
:1085000000000000000000000000000000000078F3
:10851000000001F800000238000002000000040022
:1085200000C0040079E0040081E0040100C00403FD
:108530000000020200000306000001FC000000F839
:1085400000000000000000000000000FF800003FE5
:10855000FE000070078000C000C00101F840030762
:10856000FC20021E04200230082002203020023F9E
:10857000FC20013F044001800CC000E03180001F5E
:10858000C2000000000000000020000000600000A9
:1085900003E000003E200003E020003E200003E056
:1085A00020000380200007FC2000003FE0000003C3
:1085B000FE2000003FE0000001E00000002000007D
:1085C0000020000000000000000002000020020067
:1085D000002003FFFFE003FFFFE002010020020193
:1085E00000200201002002010020020100200303FC
:1085F00000200186806001FCC0C000F87F80000080
:108600001F0000000000000000000007F800003F0D
:10861000FF000070078000C000C0010000400300A0
:1086200000200200002002000020020000200200C2
:10863000002001000040018000C003C00180003024
:108640000600000000000000000002000020020000
:10865000002003FFFFE003FFFFE002000020020014
:108660000020020000200200002003000060010042
:108670000040018000C000F00780007FFE00000F76
:10868000F8000000000000000000020000200200CE
:10869000002003FFFFE003FFFFE0020100200201D2
:1086A000002002010020020100200201002002033C
:1086B0008020020FE0200300006003C000E00060A3
:1086C0000300000000000000000002000020020083
:1086D000002003FFFFE003FFFFE002010020020192
:1086E000002002010000020100000201000002015E
:1086F000000002038000030FE0000300000003C03D
:10870000000000600000000000000007F800003FCB
:10871000FE000070078001C001C00100004003009E
:1087200000200200002002000020020000200100C2
:1087300020200100204003C03F8000303F80000027
:10874000200000002000020000200200002003FFA3
:10875000FFE003FFFFE00200802002008020000015
:1087600080000000800000008000020080200200E5
:10877000802003FFFFE003FFFFE002000020020073
:1087800000200000000000000000000000000000C9
:108790000000020000200200002002000020020071
:1087A000002003FFFFE003FFFFE0020000200200C3
:1087B0000020020000200200002000000000000055
:1087C000000000000000000000000000000E00009B
:1087D000000F0000000F0000000102000001020075
:1087E0000001020000030200000603FFFFFC03FF7C
:1087F000FFF802000000020000000200000002007A
:108800000000000000000000000002000020020044
:10881000002003FFFFE003FFFFE00200C020020191
:10882000002000078000000FE0000030F800026028
:108830003E2003800F20030003E0020000E002005E
:1088400000200000002000000000020000200200C4
:10885000002003FFFFE003FFFFE002000020020012
:108860000020000000200000002000000020000088
:1088700000200000002000000060000000E0000078
:10888000030000000000020000200200002003FF9F
:10889000FFE003E0002003FF0020001FF0000001C4
:1088A000FF8000000FE000001E000003E000003E1B
:1088B000002003E0002003FFFFE003FFFFE00200D1
:1088C000002002000020020000200200002003FF20
:1088D000FFE00380002003F0002000FC0000001FE8
:1088E00000000007C0000001F00000007C00020052
:1088F0001F80020007E003FFFFE00200000002000B
:1089000000000000000000000000000FF800003F21
:10891000FE0000F00780018000C00100004002005E
:1089200000200200002002000020020000200100C0
:108930000040018000C000F00380003FFE00000FF7
:10894000F80000000000000000000200002002000B
:10895000002003FFFFE003FFFFE002008020020091
:1089600080200200800002008000020080000200DF
:108970008000030180000183000000FE0000007CF5
:1089800000000000000000000000000FF800007F61
:10899000FF0000F00380018001C0010006400200DA
:1089A00004200200042002000620020003E001006F
:1089B00000F80180005C00E0038C003FFF0C000F1A
:1089C000FC1800000000000000000200002002006F
:1089D000002003FFFFE003FFFFE00201002002018F
:1089E0000020020180000201E0000201FC000303FC
:1089F0003F80018607E001FC00E000F80020000055
:108A000000200000000000000000000000000078CE
:108A1000060000FE01E0018600C0030300400203DF
:108A2000002002018020020180200201C0200200FB
:108A3000C0200100E060018070C003E03F800000C2
:108A40001F00000000000000000000600000038024
:108A500000000300000002000000020000200200ED
:108A6000002003FFFFE003FFFFE002000020020000
:108A7000002002000000020000000380000000E06F
:108A8000000000000000020000000200000003FFE0
:108A9000FF0003FFFFC00200004002000060000072
:108AA0000020000000200000002000000020020044
:108AB00000400200008003FFFF00020000000200EF
:108AC00000000000000000000000020000000200A2
:108AD000000003C0000003FC0000023FC0000003D0
:108AE000F80000007F80000007E000000780000021
:108AF00078000203C000023C000003C00000020036
:108B00000000020000000200000003C0000003FF9C
:108B10008000023FFE0002007FE000000F00020024
:108B2000F00003EF000003FF8000020FFE000000D2
:108B30003FE000001F000207E00003F80000030010
:108B400000000200000000000000020000200200FF
:108B50000020038000E003F0032002FC0C20021F31
:108B600030000007C0000007F00002187C0002601F
:108B70001F20038003E0020000E00200002000004C
:108B800000200000000000000000020000000300C0
:108B9000000003C0000003F80000023E0020020FA6
:108BA000C0200001FFE000007FE000038020021CE5
:108BB000002002700000038000000200000002009C
:108BC0000000000000000000000000000020006025
:108BD00000E0038003E003000FA002003E2002003B
:108BE000F8200203E020020F8020023E00200278DD
:108BF000002003E00060038000E0020003000000AA
:108C00000000000000000000000000000000000064
:108C100000000000000000000000000000001FFF36
:108C2000FFFC1000000410000004100000041000FD
:108C300000041000000410000004100000040000F4
:108C40000000000000000000000000000000000024
:108C500000000700000003C0000000780000001EB4
:108C600000000003C0000000F00000001E00000033
:108C70000780000000F00000003C0000000600003B
:108C800000000000000000000000000000001000D4
:108C90000004100000041000000410000004100084
:108CA000000410000004100000041FFFFFFC00007F
:108CB00000000000000000000000000000000000B4
:108CC00000000000000000000000000000000000A4
:108CD0000000000000000200000004000000080086
:108CE000000018000000100000001800000018002C
:108CF000000004000000020000000000000000006E
:108D00000000000000000000000100000001000061
:108D1000000100000001000000010000000100004F
:108D2000000100000001000000010000000100003F
:108D3000000100000001000000010000000100002F
:108D40000001000000010000000000000000000021
:108D500000001000000010000000100000001800CB
:108D600000000800000004000000000000000000F7
:108D700000000000000000000000000000000000F3
:108D8000000000000000000000000000038000015F
:108D90008FC000038C60000618200004102000041F
:108DA0001020000420200004204000062040000382
:108DB000FFC00001FFE000000020000000200000D4
:108DC00000C00000000000000000020000000200DF
:108DD000000003FFFFE007FFFFC0000180C00002AA
:108DE00000600002002000040020000400200004B5
:108DF000002000060040000300C00001FF800000CA
:108E0000FE00000000000000000000000000000064
:108E10007E000001FF80000381C0000200400006C8
:108E200000200004002000040020000400200006B0
:108E300000200003C0400001C080000003000000CB
:108E40000000000000000000000000000000000022
:108E50007E000001FF80000380C000060060000467
:108E60000020000400200004002002040040020250
:108E7000008003FFFFE007FFFFC00000004000008C
:108E800000400000000000000000000000000000A2
:108E90007E000001FF80000311C0000210400004AA
:108EA00010600004102000041020000410200006B0
:108EB0001020000310400001F0C00000710000000D
:108EC000000000000000000000000000000000049E
:108ED0000000000400200004002000040020007FA7
:108EE000FFE001FFFFE00104002003040020020472
:108EF000002002040020020400000200000001C063
:108F0000000001C0000000000000000000000000A0
:108F1000001C0000E33E0003FFC200020CC300047B
:108F200004C1000404C1000404C1000404C100061B
:108F30000CC10003F8C30005F0620006007E0006C5
:108F4000003C0000000000000000020000200200C1
:108F5000002003FFFFE007FFFFE000010020000208
:108F600000200006000000040000000400000004CF
:108F70000020000600200003FFE00001FFE00000E9
:108F800000200000002000000000000000000000A1
:108F90000000000400200004002000040020000461
:108FA00000200387FFE0038FFFE003800020000024
:108FB0000020000000200000002000000000000051
:108FC00000000000000000000000000000000000A1
:108FD0000000000000060000000700000001000083
:108FE000000100040001000400010004000300046B
:108FF00000060387FFFC038FFFF8038000000000DA
:10900000000000000000000000000200002002003C
:10901000002003FFFFE007FFFFE000000820000042
:109020001020000030000000FC0000058E0000074A
:1090300007A0000601E0000400E00004002000009A
:109040000020000000000000000000000000000000
:1090500000000200002002000020020000200200A8
:10906000002003FFFFE007FFFFE0000000200000FA
:109070000020000000200000002000000000000090
:1090800000000000000000000000000400200007B5
:10909000FFE0000FFFE000020020000400000004D9
:1090A00000200007FFE00003FFE0000200200004B2
:1090B0000000000400200007FFE00003FFE00000C4
:1090C0000020000000000000000000040020000458
:1090D00000200007FFE0000FFFE000010020000279
:1090E0000020000200000004000000040000000452
:1090F0000020000600200003FFE00001FFE0000068
:10910000002000000020000000000000000000001F
:109110007E000000FF80000381C0000200400006C6
:1091200000200004002000040020000400200006AD
:10913000002000020040000381C00001FF80000009
:109140007E00000000000000000000040001000498
:1091500000010007FFFF000FFFFF000100C1000238
:10916000004100040020000400200004002000044E
:10917000002000060040000301C00001FF80000045
:109180007E00000000000000000000000000000061
:109190007E000001FF80000380C000020060000428
:1091A0000020000400200004002000040020000231
:1091B0000041000300C10003FFFF0007FFFF0000A4
:1091C0000001000000010000000000040020000475
:1091D00000200004002000040020000FFFE0000F2A
:1091E000FFE00000C0200001002000020020000677
:1091F000002000040000000400000007000000033D
:10920000000000000000000000000000000000005E
:1092100003E00001C0E00003E0400006302000044D
:109220003020000418200004182000041820000436
:109230000C2000020C60000307C0000783800000C0
:10924000000000000000000000000000000000041A
:1092500000000004000000040000000C0000001FDB
:10926000FF8000FFFFC00004006000040020000435
:1092700000200004002000040040000001800000E5
:1092800000000000000000000000000400000004D6
:1092900000000007FF80000FFFC00000006000001A
:1092A000002000000020000000200000002000043A
:1092B0000040000400800007FFE0000FFFC0000036
:1092C0000040000000400000000000040000000416
:1092D0000000000780000007F0000004FE0000040A
:1092E0001FC0000003E00000038000001C00000419
:1092F000600000078000000600000004000000007D
:10930000000000000000000400000006000000074C
:10931000C0000007FC0000043F80000003E00004E0
:109320000F800006F0000007F0000007FF80000437
:109330000FE00000038000043C000007C0000006AE
:1093400000000004000000000000000000200004F5
:10935000002000040060000700E0000783200007F1
:10936000E6000004F80000003C0000045E20000558
:1093700087A0000601E00004006000040020000057
:1093800000200000000000000000000400000004B5
:109390000003000700030007E0010004F8010004D7
:1093A0001F02000007FC000000E0000007000004AE
:1093B00038000007C00000060000000400000004A0
:1093C0000000000000000000000000000000000796
:1093D0008060000600E0000403E0000407A0000431
:1093E0000E2000043C20000470200005E02000074F
:1093F000802000070060000400E0000003800000FF
:10940000000000000000000000000000000000005C
:10941000000000000000000000000000000000004C
:10942000000000008000000080000001400007FEF6
:109430003FF80800000410000002100000020000C5
:10944000000000000000000000000000000000001C
:10945000000000000000000000000000000000000C
:10946000000000000000FFFFFFFF00000000000000
:1094700000000000000000000000000000000000EC
:1094800000000000000000000000000000001000CC
:109490000002100000020800000407FE3FF800016F
:1094A000400000008000000080000000000000007C
:1094B00000000000000000000000000000000000AC
:1094C0000000000000000000000018000000300054
:1094D00000004000000040000000400000002000AC
:1094E000000030000000080000000400000002003E
:1094F000000002000000020000000C000000180044
:10950000000000000000000000000000000000005B
:10951000000000000000000000000000000000004B
:10952000000000000000000000000000000000003B
:10953000000000000000000000000000000000002B
:10954000000000000000000000000000000000001B
:10955000000000000000000000000000000000000B
:1095600000000000000000000000000000000000FB
:1095700000000000000000000000000000000000EB
:1095800000000000000000000000000000000000DB
:1095900000000000000000000000000000000000CB
:1095A00000000000000000000000000000000000BB
:1095B00000000000000000000000000000000000AB
:1095C000000000000000000000000000000000009B
:1095D0000E0000FFC0001F0001FFFFFC1F0001FF85
:1095E000FFFC1F0000FFC0000E0000000000000094
:1095F000000000000000000000000000000000006B
:10960000000000000000000000000000000000005A
:10961000000000000000000000000000000000004A
:10962000000000000000000000000000000000003A
:10963000000000000000000000040000000000180E
:109640000000000000700000000001E000000000C9
:1096500007C0000000000F80000000001F00000095
:1096600000001E00000000000C04000000000018B4
:109670000000000000700000000001E00000000099
:1096800007C0000000000F80000000001F00000065
:1096900000001E00000000000C00000000000000A0
:1096A00000000000000000000000000000000000BA
:1096B00000000000000000000000000000000000AA
:1096C00000000001E00F00000001E00F00000001B9
:1096D000E00F00000001E00FFF000001FFFFFF00AE
:1096E00000FFFFFF000000FFE00F00000001E00F9F
:1096F00000000001E00F00000001E00F0000000189
:10970000E00F00000001E00F00000001E00F00008A
:109710000001E00FFF000001FFFFFF0000FFFFFF5F
:10972000000000FFE00F00000001E00F000000015A
:10973000E00F00000001E00F00000000000000004A
:109740000000000000000000000000000000000019
:10975000000000000000000000000001E000000721
:10976000C003F800001FF003FC00003FF803E60010
:109770000070FC01C20000403E00010000C01E005D
:10978000010000800F00010007FFFFFFFFF807FF47
:10979000FFFFFFF8008003C00100008001E003002C
:1097A00000C001F00200006380FC0E00007F803FDB
:1097B000FC00003F801FF800000F0007E0000000E1
:1097C0000000000000000000000000000000000099
:1097D000000000000000000000000000000FF80082
:1097E0000000003FFE00000000600700000000C015
:1097F00001800000008000800300008000800E00D7
:1098000000800180380000600301C000003FFE07B7
:109810000000000FF83C0000000000E00000000025
:109820000380000000001E0FF0000000707FFC00AD
:109830000001C0E00600000F0180030000380100B5
:10984000010000E001000100008001800300000031
:1098500000E006000000007FFC000000000FF000A8
:1098600000000000000000000000000000000007F1
:10987000E0000000003FF8000000007FFC00000056
:1098800000E03E00000FE1800E00003FFF000700F7
:1098900000603FC0030000400FF00300008005FCA3
:1098A000030000800C7F03000080181F820000C0AE
:1098B0007807E600007FF001FC00007FE200F8007E
:1098C000001F82007C0000000203DE00000003FF96
:1098D0000F00000003F00700000003000300000079
:1098E0000200030000000200020000000000060069
:1098F0000000000018000000000000000000000050
:1099000000000002000000000E06000000001F0C16
:10991000000000001F1C000000001FF800000000F5
:109920000FE00000000007C0000000000000000081
:109930000000000000000000000000000000000027
:109940000000000000000000000000000000000017
:109950000000000000000000000000000000000007
:1099600000000000000000000000000000000000F7
:1099700000000000000000000000000000000000E7
:1099800000000000000000000000000000000000D7
:1099900000000000000000000000000000000000C7
:1099A00000000000000000000000000000000000B7
:1099B00000000000000000000000000000000000A7
:1099C000000000001FF800000001FFFF80000007FA
:1099D000FFFFE000001FE003F800003E00007E00F3
:1099E00000F000000F0001C00000038003800000B1
:1099F00000C00600000000600C00000000301000F5
:109A0000000000080000000000000000000000004E
:109A10000000000000000000000000000000000046
:109A200000001000000000081800000000180E00E0
:109A3000000000700700000000E00380000001C08B
:109A400000E000000780007800001E00003E0000DB
:109A50007C00000FE007F0000003FFFFE0000000C3
:109A6000FFFF000000001FF80000000000000000E1
:109A700000000000000000000000000000000000E6
:109A800000000000000000000000000000000000D6
:109A900000000000000000000000000000000000C6
:109AA00000000000000000000000000000000000B6
:109AB00000000000300C00000000781E00000000D4
:109AC000781E000000003C3C000000001C3C000030
:109AD00000001C38000000000E700000000006604E
:109AE0000000000003C00000000FF187F000000F2D
:109AF000FFFFF000000FE18FF000000003C0000046
:109B000000000660000000000E70000000001C381D
:109B1000000000003C38000000003C3C0000000059
:109B2000781E00000000781E00000000300E0000CB
:109B30000000000000000000000000000000000025
:109B40000000000001800000000001800000000013
:109B50000180000000000180000000000180000082
:109B60000000018000000000018000000000018072
:109B70000000000001800000000FFFFFF000000F58
:109B8000FFFFF000000001800000000001800000E5
:109B90000000018000000000018000000000018042
:109BA00000000000018000000000018000000000B3
:109BB00001800000000001800000000000000000A3
:109BC0000000000000000000000000000000000095
:109BD0000000000000000002000000000E0600006F
:109BE00000001F0C000000001F1C000000001FF8F8
:109BF000000000000FE00000000007C000000000AF
:109C00000000000000000000000000000000000054
:109C10000000000000000000000000000000000044
:109C20000000000000000000000000000000000034
:109C30000000000000000000000000000000000024
:109C40000000000000000000000000000000000014
:109C50000000000000000000000000000000000004
:109C600000000000018000000000018000000000F2
:109C70000180000000000180000000000180000061
:109C80000000018000000000018000000000018051
:109C900000000000018000000000018000000000C2
:109CA0000180000000000180000000000180000031
:109CB0000000018000000000018000000000018021
:109CC0000000000001800000000001800000000092
:109CD0000180000000000180000000000180000001
:109CE0000000000000000000000000000000000074
:109CF0000000000000000000000000001E00000046
:109D000000003F00000000003F00000000003F0096
:109D1000000000003F00000000001E0000000000E6
:109D20000000000000000000000000000000000033
:109D30000000000000000000000000000000000023
:109D40000000000000000000000000000000000013
:109D50000000000000000000000000000000000003
:109D600000000000000000000000000000000000F3
:109D700000000000000000000000000000000000E3
:109D8000000000000000001800000000007000004B
:109D9000000001C0000000000700000000001C00DF
:109DA0000000000060000000000380000000000EC2
:109DB0000000000000380000000000E0000000008B
:109DC0000380000000000E000000000038000000CA
:109DD0000000E0000000000300000000001C000084
:109DE000000000700000000001C00000000007003B
:109DF000000000000C000000000000000000000057
:109E00000000000000000000000000000000000052
:109E1000000000003FFC00000001FFFF8000000781
:109E2000FFFFE000001FC003F800003C00003C0002
:109E3000007000000E0000600000020000C0000082
:109E4000030000800000010000800000010000808D
:109E5000000001000080000001000040000002003E
:109E6000006000000600003800001C00001F800198
:109E7000F800000FFFFFE0000001FFFF800000007E
:109E80003FFC000000000000000000000000000097
:109E900000000000000000000000000000000000C2
:109EA00000000000000000000000000000000000B2
:109EB0000000000000000000000000100000010091
:109EC0000010000001000010000001000010000060
:109ED0000100001000000300003FFFFFFF00007FB3
:109EE000FFFFFF0000FFFFFFFF0000000000030076
:109EF0000000000001000000000001000000000060
:109F0000010000000000010000000000000000004F
:109F10000000000000000000000000000000000041
:109F20000000000000000000000000000000000031
:109F300000000000000007000007C0001F00001F15
:109F4000E0003700003FE00067000020E000C700AD
:109F50000040000387000040000707000080000E5B
:109F600007000080001C0700008000380700008008
:109F700000700700008000E0070000C001C007007B
:109F800000600780070000781F000700003FFE0008
:109F90000F00001FF8003F000007E000F000000085
:109FA00000000000000000000000000000000000B1
:109FB00000000000000000000000000000000000A1
:109FC000000000000000000000000000F000000F92
:109FD0000001F800001F8001FC00003F8000E60047
:109FE00000638000020000400000010000800100CA
:109FF00001000080010001000080010001000080DC
:10A000000100010000800380010000C00280030005
:10A0100000600680020000781CC00600003FF87057
:10A020001C00001FF03FF8000007C01FF0000000F8
:10A030000007C00000000000000000000000000059
:10A040000000000000000000000000000000000010
:10A0500000000000000E00000000001E00000000D4
:10A0600000760000000000C60000000003060000AB
:10A0700000000E0600000000180600000000700638
:10A0800001000000C0060100000380060100000E70
:10A0900000060100001800060100007FFFFFFF001E
:10A0A00000FFFFFFFF0000FFFFFFFF0000000006B2
:10A0B000030000000006010000000006010000008F
:10A0C0000006010000000006010000000000000082
:10A0D0000000000000000000000000000000000080
:10A0E000000000000000000000000001E00000008F
:10A0F000FF83F80000FF0383FC0000E00701C600B7
:10A1000000E00C00020000E00C00030000E018007A
:10A11000010000E01800010000E01800010000E06C
:10A120001800010000E01800010000E01800030022
:10A1300000E01C00020000E00E000E0000E007C07E
:10A140003C0000E003FFF80000E001FFF000000029
:10A15000007F800000000000000000000000000000
:10A1600000000000000000000000000000000000EF
:10A17000000000001FFE00000000FFFFC0000007FD
:10A18000FFFFF000000F80C0F800001803801C00E3
:10A1900000300300060000600600020000400600D8
:10A1A000030000800C00010000800C000100008012
:10A1B0000C00010000800C00010000800C00010078
:10A1C00000FC0E000200007C07000600007C07C0B7
:10A1D0001C00001C03FFF800000000FFF00000005E
:10A1E000003FC00000000000000000000000000070
:10A1F000000000000000000000000000000000005F
:10A20000000000000000000000070000000000FC4B
:10A210000000000000F00000000000F0000000005E
:10A2200000E00000000000E000007E0000E0000709
:10A23000FF0000E0003FFF0000E000FFFF0000E043
:10A2400003E0000000E00F00000000E03800000024
:10A2500000E0E000000000E38000000000EE0000ED
:10A26000000000F80000000000F00000000000C046
:10A2700000000000000000000000000000000000DE
:10A2800000000000000000000000000000000000CE
:10A29000000000000007E0000007C01FF000001FE2
:10A2A000F03FF800003FF8781C0000707CE00600EA
:10A2B00000603F80020000C01F00030000800F000C
:10A2C000010000800700010000800780010000807D
:10A2D00003800100008003C00100008003E0010052
:10A2E00000C007E0020000600CF8060000783C7C2B
:10A2F0001C00003FF83FFC00001FF01FF0000007AB
:10A30000C007E000000000000000000000000000A6
:10A31000000000000000000000000000000000003D
:10A3200000000001FC000000000FFF800000001F83
:10A33000FFC01C00003C03E03E00007000E03E0057
:10A34000004000701F0000C000700100008000305D
:10A35000010000800030010000800030010000801A
:10A360000030030000800060020000400060060032
:10A37000004000C01C00003001807800001C07076E
:10A38000F000000FFFFFC0000003FFFF000000000F
:10A390007FF000000000000000000000000000004E
:10A3A00000000000000000000000000000000000AD
:10A3B000000000000000000000000000000000009D
:10A3C000000000000000000000000000000000008D
:10A3D00000000000000000000000000000001E005F
:10A3E0001E0000003F003F0000003F003F00000053
:10A3F0003F003F0000003F003F0000001E001E0025
:10A40000000000000000000000000000000000004C
:10A41000000000000000000000000000000000003C
:10A42000000000000000000000000000000000002C
:10A43000000000000000000000000000000000001C
:10A44000000000000000000000000000000000000C
:10A4500000000000000000000000000000000000FC
:10A4600000000000000000000000000000000000EC
:10A47000000000001E000F0800001E000F78000002
:10A480001E000FF000001E000F8000000000000002
:10A4900000000000000000000000000000000000BC
:10A4A00000000000000000000000000000000000AC
:10A4B000000000000000000000000000000000009C
:10A4C000000000000000000000000000000000008C
:10A4D000000000000000000000000100000000007B
:10A4E00003800000000006C0000000000C600000B7
:10A4F0000000183000000000301800000000600C60
:10A5000000000000C00600000001800300000003FE
:10A510000001800000060000C000000C0000600088
:10A52000001800003000003000001800006000003B
:10A530000C0000E000000E0001C0000007000080D9
:10A540000000020000000000000000000000000009
:10A5500000000000000000000000000000000000FB
:10A5600000000000300C00000000300C0000000073
:10A57000300C00000000300C00000000300C000027
:10A580000000300C00000000300C00000000300C17
:10A5900000000000300C00000000300C0000000043
:10A5A000300C00000000300C00000000300C0000F7
:10A5B0000000300C00000000300C00000000300CE7
:10A5C00000000000300C00000000300C0000000013
:10A5D000300C00000000300C00000000300C0000C7
:10A5E000000000000000000000000000000000006B
:10A5F000000000000000000000800000020001C018
:10A600000000070000E000000E00006000000C00E9
:10A61000003000001800001800003000000C00009E
:10A62000600000060000C00000030001800000017F
:10A63000800300000000C00600000000600C000065
:10A6400000003018000000001830000000000C600E
:10A650000000000006C000000000038000000000B1
:10A6600001000000000000000000000000000000E9
:10A6700000000000000000000000000000000000DA
:10A6800000000007C0000000001FE0000000003BC9
:10A69000E00000000061E000000000C0E0000000F9
:10A6A00000C00000000001800000000001800000E8
:10A6B0000E00018000001F000180007F1F0001804C
:10A6C00000FF1F00018001C00E0001800380000018
:10A6D00000C00700000000E00F00000000701E0036
:10A6E0000000003FFC000000001FF8000000000711
:10A6F000E00000000000000000000000000000007A
:10A700000000000000000000000000000000000049
:10A71000000000001FF800000000FFFF80000003A1
:10A72000FFFFE000000FC003F000001C00007800F5
:10A73000003001FC1C0000600FFF0E0000403E03D3
:10A74000860000C0F00187000081C0018300008105
:10A75000000303000082000703000082001C0300C6
:10A76000008207FF03000041FFFF86000043FF81D6
:10A770008600002200018C00003800031C00000F3E
:10A78000001E30000007FFF8E0000000FFC080005E
:10A7900000000000000000000000010000000000B8
:10A7A0000100000000000300000000003F00000066
:10A7B0000003FF000000003FC100000003FC010097
:10A7C00000003FD000000003FC100000003FC0105C
:10A7D000000000FC0010000000F80010000001FF65
:10A7E00080100000007FF81000000003FFD0000080
:10A7F00000003FFE0100000003FFE1000000003FF9
:10A80000FF0000000003FF00000000003F00000008
:10A810000000030000000000010000000000010033
:10A8200000000000000000000000000000800000A8
:10A83000010000800000010000800000010000FF16
:10A84000FFFFFF0000FFFFFFFF0000FFFFFFFF0013
:10A850000080020001000080020001000080020070
:10A860000100008002000100008002000100008061
:10A870000200010000800200010000C0060001008B
:10A8800000E00D00030000703D000200007FF9C0F1
:10A890000600003FF0F01C00000FC07FFC0000002D
:10A8A000003FF8000000000FE00000000000000082
:10A8B0000000000000000000000000000000000098
:10A8C000000000001FFC00000000FFFF80000003EC
:10A8D000FFFFE000000FC003F800001E00007C0036
:10A8E000003800001C00002000000E0000400000A6
:10A8F000060000400000030000800000030000800C
:10A90000000003000080000003000080000003003E
:10A9100000800000030000C00000060000400000AE
:10A920000600006000000C00007000001800007CB1
:10A930000000300000FF0001E00000038003000081
:10A940000000000000000000000000000080000087
:10A95000010000800000010000800000010000FFF5
:10A96000FFFFFF0000FFFFFFFF0000FFFFFFFF00F2
:10A970000080000001000080000001000080000055
:10A980000100008000000100008000000100008044
:10A99000000003000040000002000040000006002C
:10A9A000006000000600003000001C00001C0000D9
:10A9B0003800000F8003F0000007FFFFE0000001F7
:10A9C000FFFF800000003FF80000000000000000D2
:10A9D00000000000000000000000000000800000F7
:10A9E000010000800000010000800000010000FF65
:10A9F000FFFFFF0000FFFFFFFF0000FFFFFFFF0062
:10AA000000800200010000800200010000800200BE
:10AA100001000080020001000080020001000080AF
:10AA2000020001000080020001000080030001001C
:10AA300000800780010000C07FF0030000E00000FC
:10AA4000030000F000000700003C00000F000006BB
:10AA500000003C0000000000C000000000000000FA
:10AA60000000000000000000000000000080000066
:10AA7000010000800000010000800000010000FFD4
:10AA8000FFFFFF0000FFFFFFFF0000FFFFFFFF00D1
:10AA90000080010001000080010001000080010031
:10AAA0000100008001000000008001000000008023
:10AAB0000100000000800100000000800100000093
:10AAC000008001800000008003C0000000C03FF84B
:10AAD000000000E00000000000E00000000000F0C6
:10AAE00000000000003C0000000000060000000024
:10AAF00000000000000000000000000000001FF83F
:10AB000000000000FFFF80000003FFFFE000000FD7
:10AB1000C003F000001E00007C00003800000C00A4
:10AB200000600000060000400000020000C00000BD
:10AB30000300008000000100008000000100008090
:10AB40000000010000800000010000400020010022
:10AB50000040002002000070003006000078003F36
:10AB6000FC0000FF003FFC000003803FFC000000F1
:10AB70000030000000000020000000000020000065
:10AB800000000000000000800000010000800000C4
:10AB9000010000800000010000FFFFFFFF0000FF38
:10ABA000FFFFFF0000FFFFFFFF000080010001002A
:10ABB0000080010001000080010001000000010090
:10ABC0000000000001000000000001000000000083
:10ABD00001000000000001000000008001000100F1
:10ABE00000800100010000800100010000FFFFFF64
:10ABF000FF0000FFFFFFFF0000FFFFFFFF000080DE
:10AC00000000010000800000010000800000010041
:10AC10000000000000000000000000000000000034
:10AC20000000000000000000000000000000000024
:10AC30000000000000800000010000800000010012
:10AC40000080000001000080000001000080000082
:10AC5000010000800000010000FFFFFFFF0000FF77
:10AC6000FFFFFF0000FFFFFFFF000080000001006A
:10AC70000080000001000080000001000080000052
:10AC800001000080000001000080000001000000C1
:10AC900000000000000000000000000000000000B4
:10ACA00000000000000000000000000000000000A4
:10ACB00000000000000000700000000000F800002C
:10ACC000000000F800000000007C0000000000040C
:10ACD000000000000004008000000004008000006C
:10ACE00000040080000000040080000000080080D4
:10ACF0000000001800800000003000FFFFFFFFF0A0
:10AD000000FFFFFFFFC000FFFFFFFF00008000000B
:10AD100000000080000000000080000000000080B3
:10AD20000000000000800000000000800000000023
:10AD30000000000000000000000000000080000093
:10AD4000010000800000010000800000010000FF01
:10AD5000FFFFFF0000FFFFFFFF0000FFFFFFFF00FE
:10AD6000008001C0010000800780010000800E000B
:10AD7000010000003F00000000007FC00000000153
:10AD8000E7F00000008381FC00000087007F0000E6
:10AD9000009E001FE10000F80003F90000F0000031
:10ADA000FF0000E000003F0000C000000F00008036
:10ADB000000003000080000001000000000001000E
:10ADC0000000000000000000000000000000000083
:10ADD00000000080000001000080000001000080F1
:10ADE0000000010000FFFFFFFF0000FFFFFFFF006A
:10ADF00000FFFFFFFF000080000001000080000056
:10AE000001000080000001000000000001000000BF
:10AE1000000001000000000001000000000001002F
:10AE20000000000001000000000001000000000020
:10AE30000300000000000300000000000700000005
:10AE400000000F00000000003E0000000000E000D5
:10AE500000000000000000800000010000800000F1
:10AE6000010000800000010000FFFFFFFF0000FC68
:10AE70000000010000FFE0000100007FFE00010073
:10AE80000003FFF0000000003FFF0000000001FF92
:10AE9000F8000000001FFF0000000001FE0000009D
:10AEA000000FE000000001FC000000003FC00000B7
:10AEB0000003FC000100007FC000010000F800005A
:10AEC000010000FFFFFFFF0000FFFFFFFF0000FF8A
:10AED000FFFFFF0000800000010000800000010073
:10AEE0000080000001000000000000000080000061
:10AEF000010000800000010000800000010000FF50
:10AF0000FFFFFF0000F00000010000FC0000010056
:10AF1000003F00000100001FC00000000007F0001B
:10AF200000000001FC00000000007F0000000000A5
:10AF30001FC00000000007E00000000001F8000052
:10AF40000000007E00000000001F8000008000075D
:10AF5000E00000800003F80000800000FE0000FF19
:10AF6000FFFFFF00008000000000008000000000E4
:10AF70000080000000000000000000000000000051
:10AF8000000000003FF800000001FFFF8000000704
:10AF9000FFFFE000000F8001F000003C00003800DF
:10AFA000003000000C0000600000060000400000BF
:10AFB000020000800000010000800000010000800D
:10AFC000000001000080000001000080000001007E
:10AFD00000400000020000400000060000300000B9
:10AFE0000C00003C00001800000F8001F00000077A
:10AFF000FFFFE0000001FFFF800000001FF80000DD
:10B0000000000000000000000000000000800000C0
:10B01000010000800000010000800000010000FF2E
:10B02000FFFFFF0000FFFFFFFF0000FFFFFFFF002B
:10B03000008000800100008000800100008000800E
:10B04000010000800080000000800080000000807F
:10B050000080000000800080000000800080000070
:10B0600000C00180000000400100000000600300FB
:10B07000000000380E000000003FFE000000001F2E
:10B08000F80000000007F0000000000000000000D1
:10B0900000000000000000000000000000000000B0
:10B0A000000000003FFC00000001FFFFC00000079F
:10B0B000FFFFE000001F8003F800003C00007C0060
:10B0C00000700000FC0000600001860000C000036A
:10B0D00002000080000301000080000301000080E6
:10B0E0000003810000800001E10000800001FF00FA
:10B0F000004000007FC0004000001FE00020000072
:10B100000FF0003800003C70001F8001F87000074D
:10B11000FFFFE0600001FFFF818000003FFC0000B6
:10B12000000000000000000000000000008000009F
:10B13000010000800000010000800000010000FF0D
:10B14000FFFFFF0000FFFFFFFF0000FFFFFFFF000A
:10B15000008001000100008001000100008001006A
:10B1600001000080010000000080018000000080DC
:10B1700001F00000008001FC000000C003FF00009F
:10B1800000C0031FE00000600607F80000781E0002
:10B19000FF00003FFC003F00001FF8000700000F09
:10B1A000E0000300000000000100000000000100BA
:10B1B000000000000000000000000000000000008F
:10B1C00000000007E003C000000FF001FF00003F97
:10B1D000F8003E0000383C000E0000601E00060033
:10B1E00000400E00020000800F00030000800700F6
:10B1F00001000080078001000080038001000080C2
:10B2000003800100008001C0010000C001E00100D6
:10B21000004000E00200006000F006000078007CC2
:10B220001C00007E003FFC0000FF001FF00000003B
:10B230000007E00000000000000000000000000027
:10B2400000000000000000000000000000060000F8
:10B250000000007C0000000000F00000000000C0C2
:10B2600000000000008000000000008000000000DE
:10B27000008000000100008000000100008000004C
:10B28000010000FFFFFFFF0000FFFFFFFF0000FFC6
:10B29000FFFFFF00008000000100008000000100AF
:10B2A000008000000100008000000000008000001D
:10B2B000000000C00000000000E00000000000FCF2
:10B2C0000000000000060000000000000000000078
:10B2D000000000000000008000000000008000006E
:10B2E000000000800000000000FFFFFFE00000FF02
:10B2F000FFFFF80000FFFFFFFC00008000001E00C1
:10B300000080000006000080000007000000000030
:10B310000300000000000300000000000300000024
:10B320000000030000000000030000000000030014
:10B330000000000006000080000006000080000001
:10B340000C0000800000380000FFFFFFE0000080DC
:10B3500000000000008000000000008000000000ED
:10B36000000000000000000000000000008000005D
:10B37000000000800000000000C00000000000F895
:10B380000000000000FF8000000000FFF00000004F
:10B390000087FF0000000080FFE0000000000FFEBB
:10B3A0000000000001FFE0000000001FFC000000A2
:10B3B0000001FF0000000000FC000000000FC000C2
:10B3C000000000FE000000000FE000000080FE0012
:10B3D000000000CFF000000000FF0000000000F0BF
:10B3E0000000000000C0000000000080000000001D
:10B3F00000800000000000800000000000800000CD
:10B40000000000FF0000000000FFFE00000000FF41
:10B41000FFFC00000081FFFFF800008003FFFF0039
:10B4200000000007FC000000000FC000008000FCCE
:10B43000000000C007C0000000FE7E00000000FF0A
:10B44000FC00000000FFFFF800000081FFFFF0009B
:10B45000008003FFFF000000000FF80000800FFED7
:10B4600000000087FF80000000FFE000000000F8FF
:10B4700000000000008000000000008000000000CC
:10B4800000000000000000000000000000000000BC
:10B49000010000800000010000800000030000C0E7
:10B4A0000000070000F000001F0000FE0000710017
:10B4B00000FF8001C100008FE00700000083F81C3E
:10B4C00000000000FE70000000003FC0000000000F
:10B4D0000FF0000000003DFC00000000F07F0000C5
:10B4E0000083801FE100008E0003F90000F80000D7
:10B4F000FF0000E000003F0000C000000F000080DF
:10B5000000000300008000000100000000000100B6
:10B5100000000000000000000000000000800000AB
:10B52000000000800000000000E00000000000F8C3
:10B530000000000000FF0000000000FFC00000004D
:10B540000087F80001000081FF00010000003FC0FB
:10B55000010000000FFFFF00000001FFFF000000DE
:10B5600003FFFF0000001F80010000807E0001003B
:10B570000083F000010000DF8000000000FC0000FC
:10B58000000000F00000000000C00000000000808B
:10B59000000000000080000000000000000000002B
:10B5A000000000000000000000000000000000009B
:10B5B0000000000000000100000600000700003C41
:10B5C00000001F0000F800007F0000E00001FD0007
:10B5D00000C00007F10000C0000FC1000080003F64
:10B5E0000100008000FC0100008003F001000080E9
:10B5F0000FC0010000803F0001000080FC0001003E
:10B600000083F8000100008FE000030000BF80000D
:10B61000030000FE0000070000F800001F0000E02B
:10B6200000007C0000800000C0000000000000005E
:10B63000000000000000000000000000000000000A
:10B6400000000000000000000000000000000000FA
:10B6500000000000000000000000000000000000EA
:10B660000000000000000000000000001FFFFFFFBE
:10B67000FFF81FFFFFFFFFF8180000000018180078
:10B680000000001818000000001818000000001842
:10B690001800000000181800000000181800000032
:10B6A0000018180000000018180000000018000022
:10B6B000000000000000000000000000000000008A
:10B6C000000000000000000000000000000000007A
:10B6D0000000000000000000000000000000030067
:10B6E0000000000003E00000000000F8000000007F
:10B6F000003F000000000007C00000000001F8004B
:10B70000000000003F00000000000FC0000000002B
:10B7100001F800000000007E00000000000FC000E3
:10B7200000000003F000000000007E0000000000A8
:10B730001F800000000003F00000000000FC00007B
:10B740000000001C000000000004000000000000D9
:10B7500000000000000000000000000000000000E9
:10B760000000000000000000180000000018180091
:10B770000000001818000000001818000000001851
:10B780001800000000181800000000181800000041
:10B7900000181800000000181800000000181FFF13
:10B7A000FFFFFFF81FFFFFFFFFF800000000000091
:10B7B0000000000000000000000000000000000089
:10B7C0000000000000000000000000000000000079
:10B7D0000000000000000000000000000000000069
:10B7E0000000000000000000000000000000000059
:10B7F0000000000000000000000000000000000049
:10B8000000000000000000000000008000000000B8
:10B810000100000000000700000000000E00000012
:10B8200000001C00000000001C00000000001800C8
:10B83000000000001C00000000001C0000000000D0
:10B840000E000000000007000000000001000000E2
:10B850000000008000000000000000000000000068
:10B8600000000000000000000000000000000000D8
:10B8700000000000000000000000000300000000C5
:10B8800000030000000000030000000000030000AF
:10B89000000000030000000000030000000000039F
:10B8A0000000000000030000000000030000000092
:10B8B000000300000000000300000000000300007F
:10B8C000000000030000000000030000000000036F
:10B8D0000000000000030000000000030000000062
:10B8E000000300000000000300000000000300004F
:10B8F000000000030000000000030000000000033F
:10B900000000000000030000000000000000000034
:10B910000000000000000000000000000000100017
:10B9200000000000100000000000180000000000EF
:10B930001800000000001C00000000001C000000B7
:10B9400000000E00000000000600000000000200E1
:10B9500000000000010000000000000000000000E6
:10B9600000000000000000000000000000000000D7
:10B9700000000000000000000000000000000000C7
:10B9800000000000000000000000000000000000B7
:10B9900000000000000000000000000000000000A7
:10B9A0000000000000007800000003C1FC0000005F
:10B9B00007C3FE00000007C7860000000C06030056
:10B9C0000000080401000000100C01000000100835
:10B9D0000100000010080100000010080100000034
:10B9E00010180200000010100200000018100400DF
:10B9F00000000C10040000000FFFFE00000007FF15
:10BA0000FF00000003FFFF00000000000300000033
:10BA100000000300000000000600000000001C0001
:10BA20000000000000000000000000000080000096
:10BA3000000000800000000000800000000000FF07
:10BA4000FFFFFF0001FFFFFFFE0003FFFFFFFC0001
:10BA5000000003800E0000000700020000000C0040
:10BA6000030000000C0001000000180001000000AD
:10BA7000180001000000180001000000180001007B
:10BA800000001C00020000000E00060000000F80F5
:10BA90001C00000007FFF800000003FFF00000009A
:10BAA000007FC00000000000000000000000000057
:10BAB0000000000000000000000000000000000086
:10BAC00000000000000000000000003F80000000B7
:10BAD00000FFF000000003FFF800000007C07C003A
:10BAE000000006001E0000000C0006000000080018
:10BAF0000700000010000300000010000300000019
:10BB000010000300000010000300000010000300FC
:10BB100000001800030000000DC0060000000FC068
:10BB20000600000007C00C00000003C03800000041
:10BB300000006000000000000000000000000000A5
:10BB400000000000000000000000000000000000F5
:10BB500000000000000000000000003FC0000000E6
:10BB600001FFF000000003FFF800000007803C0028
:10BB700000000E000E000000080007000000180082
:10BB8000030000001000030000001000030000008C
:10BB900010000300000010000300008008000600F1
:10BBA000008008000C0000800400380000FFFFFF48
:10BBB000FF0001FFFFFFFF0003FFFFFFFE0000008B
:10BBC000000002000000000002000000000002006F
:10BBD0000000000000000000000000000000000065
:10BBE00000000000000000000000003F8000000096
:10BBF00000FFF000000003FFF800000007087C00D1
:10BC000000000C081E0000000808060000001808CC
:10BC100007000000100803000000100803000000E7
:10BC200010080300000010080300000010080300C3
:10BC300000000808020000000C08060000000708C9
:10BC40000C00000007F81800000003F830000000A6
:10BC5000007800000000000000000000000000006C
:10BC600000000000000000000000000000000000D4
:10BC700000000000100000000000100001000000A3
:10BC80001000010000001000010000001000010081
:10BC90000000100001000007FFFFFF00001FFFFF72
:10BCA000FF00003FFFFFFF00007010000100004098
:10BCB0001000010000801000010000801000010051
:10BCC00000801000010000801000010000801000C2
:10BCD000000000FC10000000007C00000000007C60
:10BCE000000000000038000000000000000000001C
:10BCF0000000000000000000000000000000000044
:10BD000000000000000000000000000000F0000043
:10BD100000F871F8000003FCFBFC000007FEFE0CBD
:10BD200000000E071C04000018011C060000100093
:10BD30009C02000010008C02000010008C02000029
:10BD400010008E02000010008E02000018018E020A
:10BD500000000E070E0600000FFF060400000FFC97
:10BD6000070C000009F807FC0000180003F80000A9
:10BD70001C0001E000001E00000000000E0000009A
:10BD80000000000000000000000000000080000033
:10BD9000010000800000010000800000010000FFA1
:10BDA000FFFFFF0001FFFFFFFF0003FFFFFFFF009A
:10BDB00000000300010000000600010000000C006C
:10BDC000010000000C00000000001800000000004E
:10BDD000180000000000180000000000180001001A
:10BDE00000001C00010000001E00010000000FFF09
:10BDF000FF00000007FFFF00000003FFFF0000003E
:10BE0000000001000000000001000000000001002F
:10BE10000000000000000000000000000000000022
:10BE20000000000000000000000000000000000012
:10BE300000000000000010000100000010000100E0
:10BE400000001000010000001000010000001000C0
:10BE5000010000701000010000F81FFFFF0000F853
:10BE60003FFFFF0000F83FFFFF00007000000100EF
:10BE700000000000010000000000010000000000C0
:10BE800001000000000001000000000001000000AF
:10BE900000000000000000000000000000000000A2
:10BEA0000000000000000000000000000000000092
:10BEB0000000000000000000000000000000000082
:10BEC0000000001800000000003C00000000003EE0
:10BED00000000000001E00000000000E0000000036
:10BEE0000006000000000006000010000006000030
:10BEF0001000000600001000000C00001000000CF4
:10BF000000701000003800F81FFFFFF800F83FFF36
:10BF1000FFF000F83FFFFFC00070000000000000CD
:10BF20000000000000000000000000000000000011
:10BF30000000000000000000000000000080000081
:10BF4000010000800000010000800000010000FFEF
:10BF5000FFFFFF0001FFFFFFFF0003FFFFFFFF00E8
:10BF60000000000381000000000701000000001E27
:10BF700001000000003C00000000007C0000000008
:10BF800000FF0000000019CFC00000001B83F1007B
:10BF900000001E01F90000001C007F0000001800D6
:10BFA0001F00000018000F00000018000300000030
:10BFB0001800010000000000010000000000000067
:10BFC0000000000000000000000000000000000071
:10BFD0000000000000000000000000000000000061
:10BFE000000000000080000001000080000001004F
:10BFF00000800000010000800000010000800000BF
:10C00000010000800000010001FFFFFFFF0001FFB1
:10C01000FFFFFF0003FFFFFFFF0000000000010023
:10C02000000000000100000000000100000000000E
:10C0300001000000000001000000000001000000FD
:10C0400000000000000000000000000000000000F0
:10C0500000000000000000001000010000001000BF
:10C06000010000001FFFFF0000001FFFFF00000095
:10C070003FFFFF0000000600010000000C0001006F
:10C080000000180000000000180001000000180067
:10C09000010000001FFFFF0000001FFFFF00000065
:10C0A00007FFFF0000000600010000000C00010077
:10C0B0000000180000000000180001000000180037
:10C0C000010000001FFFFF0000000FFFFF00000045
:10C0D00007FFFF0000000000010000000000010059
:10C0E0000000000000000000000000000000100040
:10C0F000010000001000010000001000010000001D
:10C100001FFFFF0000001FFFFF0000003FFFFF00B8
:10C1100000000300010000000600010000000E0006
:10C12000010000000C0000000000180000000000EA
:10C1300018000000000018000000000018000100B6
:10C1400000001C00010000001E00010000000FFFA5
:10C15000FF00000007FFFF00000003FFFF000000DA
:10C1600000000100000000000100000000000100CC
:10C1700000000000000000000000000000000000BF
:10C1800000000000003F8000000000FFE000000011
:10C1900001FFF800000003C03C00000006000C0096
:10C1A00000000C000600000008000200000018005B
:10C1B000010000001000010000001000010000005C
:10C1C0001000010000001000010000001800010034
:10C1D00000000800020000000C000600000006003D
:10C1E0000C00000007C03C00000003FFF800000046
:10C1F00000FFE0000000003F8000000000000000A1
:10C20000000000000000000000000000000010001E
:10C2100000020000100000020000100000020000F8
:10C220001FFFFFFE00001FFFFFFE00003FFFFFFE9D
:10C23000000003000C0200000600060200000C00D3
:10C24000020200000C0001000000180001000000C4
:10C250001800010000001800010000001800010093
:10C2600000001800030000000C00060000000E0093
:10C270000E00000007803C00000007FFF8000000EF
:10C2800001FFF0000000007F8000000000000000BF
:10C29000000000000000000000000000000000009E
:10C2A00000000000003FC000000001FFF00000009F
:10C2B00003FFFC00000007803C0000000E000E00A1
:10C2C0000000080007000000180003000000100034
:10C2D0000300000010000300000010000300000035
:10C2E000100003000000080006020000080006021B
:10C2F000000006001C02000007FFFFFE00000FFF09
:10C30000FFFE00001FFFFFFE000000000002000013
:10C310000000000200000000000200000000000019
:10C32000000000000000000000000000000000000D
:10C3300000000000100001000000100001000000DB
:10C3400010000100000010000100000010000100BA
:10C3500000001FFFFF0000003FFFFF0000003FFF45
:10C36000FF00000000E0010000000180010000006B
:10C370000300010000000600010000000C000100A5
:10C380000000080001000000180000000000180074
:10C39000000000001F00000000001F00000000005F
:10C3A0000F00000000000E00000000000000000070
:10C3B000000000000000000000000000000000007D
:10C3C000000000000000000000000000000000006D
:10C3D00000007E00000003E03F00000007F00E00B8
:10C3E00000000FF0060000000C38020000001838B2
:10C3F00002000000101C01000000101C01000000E1
:10C40000100C01000000100E01000000100E0100D1
:10C4100000001007010000000807010000000807E5
:10C42000030000000C03C60000000F03FE00000024
:10C430000781FC0000000000F80000000000000080
:10C4400000000000000000000000000000000000EC
:10C4500000000000000000000000100000000000CC
:10C46000100000000000100000000000100000009C
:10C4700000003000000000003000000000007FFFDE
:10C48000F8000001FFFFFC00000FFFFFFE000000AE
:10C4900010000F0000001000030000001000030057
:10C4A0000000100003000000100003000000100056
:10C4B0000200000010000600000010000C00000048
:10C4C000000030000000000000000000000000003C
:10C4D000000000000000000000000000000010004C
:10C4E000000000001000000000001000000000002C
:10C4F0001FFFF80000001FFFFC0000003FFFFE00D0
:10C50000000000000F000000000007000000000015
:10C510000300000000000300000000000300000012
:10C5200000000300000000000200000010000600F0
:10C53000000010000C0000001000180000001FFF99
:10C54000FF0000001FFFFF0000003FFFFE00000093
:10C5500000000200000000000200000000000200D5
:10C5600000000000000000000000000000000000CB
:10C57000000000001000000000001000000000009B
:10C580001800000000001E00000000001F800000D6
:10C5900000001FF0000000001BFE00000000107FE4
:10C5A00080000000101FF00000000003FE000000EB
:10C5B00000007F00000000003E0000000001F000CD
:10C5C0000000100F80000000107E000000001BF033
:10C5D000000000001F80000000001E00000000009E
:10C5E0001800000000001000000000001000000013
:10C5F000000000000000000010000000000010001B
:10C60000000000001C00000000001FC0000000002F
:10C610001FFC000000001FFFC0000000103FFC00D6
:10C6200000000003FF0000000001FC000000100FEC
:10C63000E0000000107F000000001FF0000000007C
:10C640001FE0000000001FFE0000000019FFC000F6
:10C650000000103FFC0000000003FF000000100776
:10C66000FC000000107F800000001FF800000000A8
:10C670001F800000000018000000000010000000F3
:10C68000000010000000000000000000000000009A
:10C690000000000000000100000010000100000088
:10C6A0001000010000001800030000001C000F0033
:10C6B00000001F001F0000001F80710000001FE02D
:10C6C000C000000011FB80000000007E00000000A0
:10C6D000003F00000000007FC100000010E3F100F7
:10C6E00000001380FD0000001E007F0000001C0001
:10C6F0001F000000100007000000100003000000F1
:10C700001000010000000000010000000000000017
:10C710000000000000000000000000000000000019
:10C72000000000001000000000001000000C0000DD
:10C730001800001E00001E00001E00001FC0000E9A
:10C7400000001FF00006000013FE00040000107F30
:10C7500080180000001FF0F000000003FFC0000080
:10C7600000007E0000000003F0000000101F8000A9
:10C77000000010FC000000001FE0000000001F008F
:10C78000000000001C00000000001000000000007D
:10C790001000000000001000000000000000000079
:10C7A0000000000000000000000000000000000089
:10C7B0000000000000000000000007C003000000AF
:10C7C0001F00070000001C001F00000018003F00B1
:10C7D00000001000FD0000001003F1000000100731
:10C7E000E1000000101F81000000103E0100000069
:10C7F00010FC0100000011F00100000017E0010032
:10C8000000001F80010000001E00030000001C004B
:10C810000F00000010003F0000000000E0000000DA
:10C820000000000000000000000000000000000008
:10C8300000000000000000000000000000000000F8
:10C8400000000000000000000000000000000000E8
:10C8500000000000000000000000000000000000D8
:10C8600000000000000000000000000000000000C8
:10C8700000000000008000000000008000000000B8
:10C880000140000000000360000001FFFE3FFFC008
:10C8900007FFFC1FFFE00C00000000300800000054
:10C8A0000010100000000008100000000008100038
:10C8B0000000000800000000000000000000000070
:10C8C0000000000000000000000000000000000068
:10C8D0000000000000000000000000000000000058
:10C8E0000000000000000000000000000000000048
:10C8F0000000000000000000000000000000000038
:10C900000000000000000000FFFFFFFFFFFF00002D
:10C910000000000000000000000000000000000017
:10C920000000000000000000000000000000000007
:10C9300000000000000000000000000000000000F7
:10C9400000000000000000000000000000000000E7
:10C9500000000000000000000000000000000000D7
:10C96000000000000000000010000000000810009F
:10C97000000000081000000000080800000000107F
:10C980000C000000003007FFFC1FFFE001FFFE3F2E
:10C99000FFC0000003600000000001400000000034
:10C9A0000080000000000080000000000000000087
:10C9B0000000000000000000000000000000000077
:10C9C0000000000000000000000000000000000067
:10C9D0000000000000000000000000000000000057
:10C9E0000000000000000000000000000000000047
:10C9F00000000600000000001800000000006000B9
:10CA000000000000400000000000C0000000000026
:10CA1000C00000000000C00000000000E0000000B6
:10CA200000007000000000003800000000001C0042
:10CA3000000000000E0000000000070000000000E1
:10CA4000038000000000038000000000018000005F
:10CA50000000018000000000010000000000030051
:10CA6000000000000C00000000003000000000008A
:10CA700000000000000000000000000000000000B6
:10CA800000000000000000000000000000000000A6
:10CA90000000000000000000000000000000000096
:10CAA0000000000000000000000000000000000086
:10CD9000000000000000001F000000003FF800003D
:10CDA0000000003F80000000FFFFF8000000007F4F
:10CDB000C0000001FFFFFFF8000000FFE0000001DD
:10CDC000FFFFFFFFFFF800FFE0000001FFFFFFFF94
:10CDD000FFF800FFE0000001FFFFFFFFFFF800FF8A
:10CDE000E0000001FFFFFFF8000000FFE00000008E
:10CDF000FFFFF8000000007FC00000003FF80000C7
:10CE00000000003F80000000000000000000001F44
:10CE10000000000000000000000000000000000012
:10CE20000000000000000000000000000000000002
:10CE300000000000000000000000000000000000F2
:10CE400000000000000000000000000000000000E2
:10CE500000000000000000000000000000000000D2
:10CE600000000000000000000000000000000000C2
:10CE700000000000000000000000000000000000B2
:10CE800000000000000000000000000000000000A2
:10CE90000000000000000000000000000000000092
:10CEA0000000000000000000000000000000000082
:10CEB0000000000000000000000000000000000072
:10CEC0000000000000000000000000000000000062
:10CED0000000000000000000000000000000000052
:10CEE0000000000000000000000000000000000042
:10CEF0000000000000000000000000000000000032
:10CF00000000000000000000000000000000000021
:10CF10000000000000000000000000000000000011
:10CF20000000000000000000000000000000000001
:10CF300000000000000000000000000000000000F1
:10CF400000000000000000000000000000180000C9
:10CF50000000000000000000007800000000000059
:10CF60000000000001F000000000000000000000D0
:10CF700007E0000000000000000000001FC00000EB
:10CF800000000000000000003F80000000000000E2
:10CF900000000000FF00000000000000000000038F
:10CFA000FE000000000000000000000FFC00000078
:10CFB000000000000000003FF8000000000000003A
:10CFC000000000FFF000000000000000000001FF72
:10CFD000E000000000000000000003FFC0000000AF
:10CFE00000000000000003FF8000000000000000BF
:10CFF000000003FF0000000000000000000003FE2E
:10D000000018000000000000000001FC0078000093
:10D0100000000000000000F001F00000000000002F
:10D020000000000007E00000000000000000000019
:10D030001FC0000000000000000000003F80000052
:10D040000000000000000000FF00000000000000E1
:10D0500000000003FE000000000000000000000FC0
:10D06000FC000000000000000000003FF80000008D
:10D0700000000000000000FFF000000000000000C1
:10D08000000001FFE000000000000000000003FFBE
:10D09000C000000000000000000003FF800000004E
:10D0A00000000000000003FF00000000000000007E
:10D0B000000003FE0000000000000000000001FC72
:10D0C0000000000000000000000000F00000000070
:10D0D0000000000000000000000000000000000050
:10D0E0000000000000000000000000000000000040
:10D0F0000000000000000000000000000000000030
:10D10000000000000000000000000000000000001F
:10D11000000000000000000000000000000000000F
:10D1200000000000000000000000000000000000FF
:10D1300000000000000000000000000000000000EF
:10D1400000000000000000000000000000000000DF
:10D150000000000000000000000000000001FC00D2
:10D16000003F8000000000000001FC00003F800044
:10D17000000000000001FC00003F800000000000F3
:10D180000001FC00003F8000000000000001FC00E6
:10D19000003F8000000000000001FC00003F800014
:10D1A000000000000001FC00003F801FC0000000E4
:10D1B0000001FC00003FFFFFC00000000001FC0078
:10D1C0007FFFFFFFC00000000001FFFFFFFFFFF037
:10D1D0000000000001FFFFFFFFFF800000000000D3
:10D1E000FFFFFFFF803F800000000000FFFFFC000A
:10D1F000003F800000000000FE01FC00003F8000B6
:10D20000000000000001FC00003F80000000000062
:10D210000001FC00003F8000000000000001FC0055
:10D22000003F8000000000000001FC00003F800083
:10D23000000000000001FC00003F80000000000032
:10D240000001FC00003F8000000000000001FC0025
:10D25000003F8000000000000001FC00003F800053
:10D26000000000000001FC00003F80000000000002
:10D270000001FC00003F8000000000000001FC00F5
:10D28000003F8000000000000001FC00003F800023
:10D29000000000000001FC00003F800000000000D2
:10D2A0000001FC00003F801FC00000000001FC00E6
:10D2B000003FFFFFC00000000001FC007FFFFFFFF8
:10D2C000C00000000001FFFFFFFFFFE000000000C2
:10D2D00003FFFFFFFFFF800000000000FFFFFFFFD4
:10D2E000803F800000000000FFFFFC00003F800046
:10D2F00000000000FE01FC00003F80000000000074
:10D300000001FC00003F8000000000000001FC0064
:10D31000003F8000000000000001FC00003F800092
:10D32000000000000001FC00003F80000000000041
:10D330000001FC00003F8000000000000001FC0034
:10D34000003F80000000000000000000000000001E
:10D3500000000000000000000000000000000000CD
:10D3600000000000000000000000000000000000BD
:10D3700000000000000000000000000000000000AD
:10D38000000000000000000000000000000000009D
:10D39000000000000000000000000000000000008D
:10D3A000000000000000000000000000000000007D
:10D3B000000000000000000000000000000000006D
:10D3C0000000000000007E000000000000000000DF
:10D3D0000001FF8000000000000FE0000001FFE0FE
:10D3E00000000000003FFC000003FFF00000000010
:10D3F00000FFFF000003FFF80000000001FFFF80B6
:10D400000003FFFC0000000003FFFFC00003FFFC5F
:10D410000000000007C0FFE00001FE1E0000000049
:10D420000F003FF00000F806000000001C000FF89D
:10D4300000000007000000001C0007FC00000003C3
:10D4400000000000380003FE0000000300000000A0
:10D45000300001FF0000000180000000300000FFEC
:10D4600000000001800000006000007F80000001DB
:10D47000800000006000007FC00000018000003FCD
:10D48000FFFFFFFFFFFFFFFFFFE0003FFFFFFFFF8A
:10D49000FFFFFFFFFFE0003FFFFFFFFFFFFFFFFF7A
:10D4A000FFE000006000000FF800000180000000B5
:10D4B00060000007FC000001800000006000000325
:10D4C000FC0000030000000070000003FE000003E9
:10D4D0000000000030000001FF0000030000000019
:10D4E0003807C000FF800006000000003E0FE0008B
:10D4F0007FC0000E000000001FFFE0003FE0000CB6
:10D50000000000000FFFE0001FF8003C00000000DA
:10D510000FFFE0000FFF00F80000000007FFE00031
:10D5200007FFFFF00000000003FFC00003FFFFE063
:10D530000000000000FFC00000FFFFC0000000006E
:10D54000003F0000003FFF0000000000000000005E
:10D55000000FF800000000000000000000000000C4
:10D5600000000000000000000000000000000000BB
:10D5700000000000000000000000000000000000AB
:10D58000000000000000000000000000000000009B
:10D59000000000000000000000000000000000008B
:10D5A000000000000000000000000000000000007B
:10D5B000000000000000000000000000000000006B
:10D5C00000000000001FFE0000000000000000003E
:10D5D00001FFFFE0000000000000000007FFFFF86F
:10D5E00000000000000000000FFFFFFE0000000030
:10D5F000000000001FFFFFFF00000000000000000F
:10D600003F80007F800000000000000078000007DD
:10D610008000000000000000E0000003C0000000E7
:10D6200000000000C0000001C000000080000000F9
:10D63000C0000000C0000007C0000000C0000000E3
:10D64000C000001F80000000C0000000C00000FEFD
:10D6500000000000E0000001C00003F8000000002E
:10D660007000000780001FC0000000003F00007F26
:10D6700080007F00000000003FFFFFFF0001F80076
:10D68000000000000FFFFFFE000FE00000000000A0
:10D6900007FFFFFC003F80000000000001FFFFE0EB
:10D6A00001FC000000000000001FFE0007F0000069
:10D6B00000000000000000003F80000000000000AB
:10D6C00000000000FE000000000000000000000359
:10D6D000F8000000000000000000001FC000000073
:10D6E000000000000000007F001FFE00000000009E
:10D6F000000003F801FFFFC00000000000000FE081
:10D7000007FFFFF00000000000007F801FFFFFFC0C
:10D71000000000000001FC003FFFFFFE00000000D1
:10D72000000FF0007F80007F00000000003F8000BD
:10D73000F80000078000000000FE0001E00000018A
:10D74000C000000007F80001C0000001C000000098
:10D750001FC0000180000000C0000000FF000001A9
:10D7600080000000C0000000F80000018000000000
:10D77000C000000060000001C0000001C000000007
:10D7800000000000F0000007800000000000000022
:10D790007F00007F80000000000000003FFFFFFFCF
:10D7A00000000000000000001FFFFFFE000000005E
:10D7B000000000000FFFFFF8000000000000000064
:10D7C00001FFFFE00000000000000000001FFE005D
:10D7D0000000000000000000000000000000000049
:10D7E0000000000000000000000000000000000039
:10D7F0000000000000000000000000000000000029
:10D800000000000000000000000FFC00000000000D
:10D8100000000000007FFF8000000000000000000A
:10D8200003FFFFE0000000000000000007FFFFF022
:10D8300000000000000000001FFFFFF800000000D3
:10D84000000000003F8007FC000000000000000016
:10D850007C0000FE00000000003FF800F000003FE8
:10D860000000000001FFFFC1E000000F8000000089
:10D8700007FFFFFF80000007800000000FFFFFFF91
:10D8800080000007800000001FFFFFFFE000000392
:10D89000C00000003E003FFFFC000003C00000008D
:10D8A000780001FFFF000001C00000007000003F91
:10D8B000FFC00001C0000000E000001FFFF00001F9
:10D8C000C0000000C0000038FFFC0001C0000000E4
:10D8D000C00000383FFF0001C0000000C000007021
:10D8E00007FFC00180000000C00000E001FFE0036E
:10D8F00080000000C00003E0007FF803000000008B
:10D90000E0000FC0001FFC07000000007800FF804F
:10D910000007FF0E000000007FFFFF000001FF9CDA
:10D92000000000003FFFFE000000FFF800000000C4
:10D930001FFFF80000003FF00000000007FFE006B6
:10D9400000001FF00000000001FF000600000FF8BB
:10D95000000000000000000600003FFC0000000086
:10D96000000000060001FDFE0000000000000007AE
:10D97000003FF8FF0000000000000007FFFFC03F6D
:10D980008000000000000007FFFE001F8000000074
:10D9900000000007FFE0000FC000000000000007CB
:10D9A000FE000007C000000000000007C0000003E8
:10D9B000C00000000000000700000001C0000000DF
:10D9C0000000000600000001C0000000000000068A
:10D9D00000000001C000000000000006000000017F
:10D9E000800000000000000600000003800000002E
:10D9F000000000000000000F000000000000000018
:10DA00000000003E0000000000000000000001F8DF
:10DA10000000000000000000000000C00000000046
:10DA200000000000000000000000000000000000F6
:10DA300000000000000000000000000000000000E6
:10DA400000000000000000000000000000000000D6
:10DA500000000000000000000000000000000000C6
:10DA600000000000000000000000000000000000B6
:10DA7000000000000008000000000000000000009E
:10DA8000001C00000000000000000078001C0000E6
:10DA900000000000000001FC003800000000000051
:10DAA000000001FE0078000000000000000003FEFE
:10DAB00000F0000000000000000003FF01E0000093
:10DAC00000000000000003FF87E0000000000000ED
:10DAD000000003FFFFC0000000000000000003FF83
:10DAE000FF80000000000000000001FFFF000000B8
:10DAF00000000000000000FFFC000000000000002B
:10DB00000000007FF0000000000000000000001F87
:10DB1000C000000000000000000000000000000045
:10DB200000000000000000000000000000000000F5
:10DB300000000000000000000000000000000000E5
:10DB400000000000000000000000000000000000D5
:10DB500000000000000000000000000000000000C5
:10DD7000000000000000007FFF0000000000000025
:10DD800000000FFFFFF800000000000000007FFF10
:10DD9000FFFF0000000000000003FFFFFFFFE000A6
:10DDA00000000000000FFFFFFFFFF8000000000070
:10DDB000003FFF8000FFFE000000000000FFF000B9
:10DDC0000007FF800000000003FF000000007FE06C
:10DDD0000000000007F8000000000FF8000000003D
:10DDE0001FE00000000003FC000000003F80000076
:10DDF000000000FF00000000FE0000000000003FE7
:10DE000080000001F80000000000000FC0000003C7
:10DE1000F000000000000003E0000007C000000068
:10DE200000000001F000000F800000000000000072
:10DE3000FC00001E00000000000000003E00003C4E
:10DE400000000000000000001F000078000000003B
:10DE5000000000000F8000F0000000000000000043
:10DE600007C001C0000000000000000001C00380E6
:10DE7000000000000000000000E0010000000000C1
:10DE80000000000000400000000000000000000052
:10DE90000000000000000000000000000000000082
:10DEA0000000000000000000000000000000000072
:10DEB0000000000000000000000000000000000062
:10DEC0000000000000000000000000000000000052
:10DED0000000000000000000000000000000000042
:10DEE0000000000000000100000000000000000031
:10DEF00000400380000000000000000000E001E09E
:10DF0000000000000000000003C000F0000000005E
:10DF10000000000007800078000000000000000002
:10DF20000F00003C00000000000000001E00001F69
:10DF300000000000000000007C00000F80000000D6
:10DF400000000000F8000007E000000000000003EF
:10DF5000F0000003F000000000000007E0000000F7
:10DF6000FC0000000000001FC00000007F00000057
:10DF70000000007F000000001FC00000000001FE44
:10DF8000000000000FF8000000000FF80000000083
:10DF900003FF000000007FF00000000001FFF00020
:10DFA0000003FFC000000000007FFF8000FFFF00B3
:10DFB00000000000000FFFFFFFFFFC00000000005A
:10DFC0000003FFFFFFFFE0000000000000007FFFF4
:10DFD000FFFF80000000000000000FFFFFF80000BE
:10DFE000000000000000007FFF00000000000000B3
:10DFF0000000000000000000000000000000000021
:10E000000000000000000000000000000000000010
:10E010000000000000000000000000000000000000
:10E0200000000000000000000000000000000000F0
:10E0300000000000000000000000000000000000E0
:10E0400000000000000000000000000000000000D0
:10E0500000000000000000000000000000000000C0
:10E0600000000000000000000000000000000000B0
:10E0700000000000000000000000000000000000A0
:10E080000000000000000000000000000000000090
:10E090000000000000000000000000000000000080
:10E0A0000000000000000000000000000000000070
:10E0B0000000000000000000000000000000000060
:10E0C0000000000000000000000000000000000050
:10E0D0000000000000000000000000000000000040
:10E0E0000000000000000000000000000000000030
:10E0F0000000000000000000000000000000000020
:10E10000000000000000000000000000000000000F
:10E1100000000000000000000000000000000000FF
:10E12000000000000000000000000F000078000068
:10E130000000000000001F8000FC00000000000044
:10E1400000001FC001FC00000000000000001FC014
:10E1500001FC00000000000000001FE003FC0000C4
:10E160000000000000001FE003FC000000000000B1
:10E1700000001FF007F800000000000000000FF092
:10E1800007F8000000000000000007F007F00000A2
:10E1900000000000000003F80FE000000000000095
:10E1A000000001F80FC0000000000000000000FCAB
:10E1B0001F800000000000000000007C1F800000A5
:10E1C000000000000000003C1F00000000000000F4
:10E1D0000000001E3E000000000000000000001EC5
:10E1E0003C000000000000000000000E38000000AD
:10E1F00000000000003FC0077001FF0000000000A9
:10E20000007FFF03603FFF000000000000FFFFFDF4
:10E21000C7FFFF800000000000FFFFFFFFFFFF803F
:10E220000000000000FFFFF1DFFFFF8000000000A2
:10E2300000FFFE03607FFF0000000000007FC007BA
:10E240007001FF00000000000000000E3800000018
:10E25000000000000000001E3C0000000000000064
:10E260000000003E3C000000000000000000007CB8
:10E270001E00000000000000000000FC1F00000065
:10E2800000000000000000FC1F80000000000000F3
:10E29000000001F80FC0000000000000000003F8BB
:10E2A0000FE0000000000000000007F007F0000091
:10E2B0000000000000000FF007F800000000000060
:10E2C00000001FF007F800000000000000001FE041
:10E2D00003FC00000000000000001FE003FC000041
:10E2E0000000000000001FC001FC00000000000052
:10E2F00000001FC001FC00000000000000001F80A3
:10E3000000FC00000000000000000F00007C000086
:10E3100000000000000000000000000000000000FD
:10E3200000000000000000000000000000000000ED
:10E3300000000000000000000000000000000000DD
:10E3400000000000000000000000000000000000CD
:10E3500000000000000000000000000000000000BD
:10E36000000000000000000000000001C0000000EC
:10E370000000000000000001C000000000000000DC
:10E3800000000001C00000000000000000000001CB
:10E39000C00000000000000000000001C0000000FC
:10E3A0000000000000000001C000000000000000AC
:10E3B00000000001C000000000000000000000019B
:10E3C000C00000000000000000000001C0000000CC
:10E3D0000000000000000001C0000000000000007C
:10E3E00000000001C000000000000000000000016B
:10E3F000C00000000000000000000001C00000009C
:10E400000000000000000001C0000000000000004B
:10E4100000000001C000000000000000000000013A
:10E42000C00000000000000000000001C00000006B
:10E430000000000000000001C0000000000000001B
:10E4400000000001C000000000000000003FFFFFCE
:10E45000FFFFFE0000000000003FFFFFFFFFFE0087
:10E4600000000000003FFFFFFFFFFE000000000073
:10E4700000000001C00000000000000000000001DA
:10E48000C00000000000000000000001C00000000B
:10E490000000000000000001C000000000000000BB
:10E4A00000000001C00000000000000000000001AA
:10E4B000C00000000000000000000001C0000000DB
:10E4C0000000000000000001C0000000000000008B
:10E4D00000000001C000000000000000000000017A
:10E4E000C00000000000000000000001C0000000AB
:10E4F0000000000000000001C0000000000000005B
:10E5000000000001C0000000000000000000000149
:10E51000C00000000000000000000001C00000007A
:10E520000000000000000001C0000000000000002A
:10E5300000000001C0000000000000000000000119
:10E54000C00000000000000000000001C00000004A
:10E5500000000000000000000000000000000000BB
:10E5600000000000000000000000000000000000AB
:10E57000000000000000000000000000000000009B
:10E58000000000000000000000000000000000008B
:10E59000000000000000000000000000000000007B
:10E5A000000000000000000000000000000000006B
:10E5B0000000000000000000000000000004000057
:10E5C0000000000000000000000E0000000000003D
:10E5D0000000003C000E000000000000000000FEF3
:10E5E000001C000000000000000000FF003C0000D4
:10E5F00000000000000001FF0078000000000000A3
:10E60000000001FF80F0000000000000000001FF9A
:10E61000C3F0000000000000000001FFFFE0000068
:10E6200000000000000001FFFFC00000000000002B
:10E63000000000FFFF800000000000000000007FDD
:10E64000FE000000000000000000003FF800000095
:10E65000000000000000000FE000000000000000CB
:10E6600000000000000000000000000000000000AA
:10E67000000000000000000000000000000000009A
:10E68000000000000000000000000000000000008A
:10E69000000000000000000000000000000000007A
:10E6A000000000000000000000000000000000006A
:10E6B000000000000000000000000000000000005A
:10E6C000000000000000000000000000000000004A
:10E6D000000000000000000000000000000000003A
:10E6E000000000000000000000000000000000002A
:10E6F000000000000000000000000000000000001A
:10E700000000000000000000000000000000000009
:10E7100000000000000000000000000000000000F9
:10E7200000000000000000000000000000000000E9
:10E7300000000000000000000000000000000000D9
:10E7400000000000000000000000000000000000C9
:10E7500000000000000000000000000000000000B9
:10E7600000000000000000000000000000000000A9
:10E770000000000000000000000000000000000099
:10E780000000000000000000000000000000000089
:10E790000000000000000000000000000000000079
:10E7A0000000000000000000000000000000000069
:10E7B0000000000000000000000000000000000059
:10E7C0000000000000000000000000000000000049
:10E7D0000000000000000000000000000000000138
:10E7E000C00000000000000000000001C0000000A8
:10E7F0000000000000000001C00000000000000058
:10E8000000000001C0000000000000000000000146
:10E81000C00000000000000000000001C000000077
:10E820000000000000000001C00000000000000027
:10E8300000000001C0000000000000000000000116
:10E84000C00000000000000000000001C000000047
:10E850000000000000000001C000000000000000F7
:10E8600000000001C00000000000000000000001E6
:10E87000C00000000000000000000001C000000017
:10E880000000000000000001C000000000000000C7
:10E8900000000001C00000000000000000000001B6
:10E8A000C00000000000000000000001C0000000E7
:10E8B0000000000000000001C00000000000000097
:10E8C00000000001C0000000000000000000000186
:10E8D000C00000000000000000000001C0000000B7
:10E8E0000000000000000001C00000000000000067
:10E8F00000000001C0000000000000000000000156
:10E90000C00000000000000000000001C000000086
:10E910000000000000000001C00000000000000036
:10E9200000000001C0000000000000000000000125
:10E93000C00000000000000000000001C000000056
:10E940000000000000000001C00000000000000006
:10E9500000000001C00000000000000000000001F5
:10E96000C00000000000000000000001C000000026
:10E970000000000000000001C000000000000000D6
:10E9800000000001C00000000000000000000001C5
:10E99000C00000000000000000000001C0000000F6
:10E9A0000000000000000001C000000000000000A6
:10E9B00000000001C0000000000000000000000195
:10E9C000C00000000000000000000001C0000000C6
:10E9D0000000000000000000000000000000000037
:10E9E0000000000000000000000000000000000027
:10E9F0000000000000000000000000000000000017
:10EA00000000000000000000000000000000000006
:10EA100000000000000000000000000000000000F6
:10EA200000000000000000000000000000000000E6
:10EA300000000000000000000000000000000000D6
:10EA4000000000000000003E000000000000000088
:10EA50000000007F0000000000000000000000FF38
:10EA60008000000000000000000001FFC000000066
:10EA700000000000000001FFC000000000000000D6
:10EA8000000001FFC000000000000000000001FFC6
:10EA9000C000000000000000000001FFC0000000F6
:10EAA00000000000000000FF8000000000000000E7
:10EAB0000000007F00000000000000000000003E99
:10EAC0000000000000000000000000000000000046
:10EAD0000000000000000000000000000000000036
:10EAE0000000000000000000000000000000000026
:10EAF0000000000000000000000000000000000016
:10EB00000000000000000000000000000000000005
:10EB100000000000000000000000000000000000F5
:10EB200000000000000000000000000000000000E5
:10EB300000000000000000000000000000000000D5
:10EB400000000000000000000000000000000000C5
:10EB500000000000000000000000000000000000B5
:10EB600000000000000000000000000000000000A5
:10EB70000000000000000000000000000000000095
:10EB80000000000000000000000000000000000085
:10EB90000000000000000000000000000000000075
:10EBA0000000000000000000000000000000000065
:10EBB0000000000000000000000000000000000055
:10EBC0000000000000000000000000000000000045
:10EBD0000000000000000000000000000000000035
:10EBE0000000000000000000000000000000000025
:10EBF0000000000000000000000000000000000015
:10EC00000000000000000000000000000000000004
:10EC100000000000000000000000000000000000F4
:10EC200000000000000000000000000000000000E4
:10EC300000000000000000000000000000000000D4
:10EC400000000000000000000000000000000000C4
:10EC500000000000000000000000000000000000B4
:10EC60000000000001800000000000000000000023
:10EC70000780000000000000000000001FC000002E
:10EC800000000000000000007F8000000000000085
:10EC900000000001FE00000000000000000000076E
:10ECA000F8000000000000000000001FE00000006D
:10ECB000000000000000007F0000000000000000D5
:10ECC000000003FC000000000000000000000FF046
:10ECD000000000000000000000003FC00000000035
:10ECE000000000000000FF00000000000000000025
:10ECF0000003FC000000000000000000000FF00016
:10ED00000000000000000000003FC0000000000004
:10ED10000000000000FF00000000000000000000F4
:10ED200003F8000000000000000000001FE00000E9
:10ED300000000000000000007F80000000000000D4
:10ED400000000001FE0000000000000000000007BD
:10ED5000F8000000000000000000001FE0000000BC
:10ED6000000000000000007F8000000000000000A4
:10ED7000000001FE0000000000000000000007F09D
:10ED8000000000000000000000003FC00000000084
:10ED9000000000000000FF00000000000000000074
:10EDA0000003FC000000000000000000000FF00065
:10EDB0000000000000000000003FC0000000000054
:10EDC0000000000000FF0000000000000000000044
:10EDD00003FC000000000000000000000FF0000035
:10EDE00000000000000000003F8000000000000064
:10EDF00000000001FE00000000000000000000070D
:10EE0000F8000000000000000000001FE00000000B
:10EE1000000000000000007F8000000000000000F3
:10EE2000000000FE0000000000000000000000786C
:10EE30000000000000000000000000600000000072
:10EE400000000000000000000000000000000000C2
:10EE500000000000000000000000000000000000B2
:10EE600000000000000000000000000000000000A2
:10EE70000000000000000000000000000000000092
:10EE80000000000000000000000000000000000082
:10EE90000000000000000000000000000000000072
:10EEA0000000000000000000000000000000000062
:10EEB00000000000000000FFFFC000000000000094
:10EEC00000001FFFFFFE0000000000000000FFFF29
:10EED000FFFFE000000000000007FFFFFFFFF80059
:10EEE00000000000001FFFFFFFFFFE000000000009
:10EEF000007FFFFFFFFFFF800000000000FFFFFF1B
:10EF0000FFFFFFC00000000003FFFE00001FFFF036
:10EF10000000000007FF800000007FF800000000F4
:10EF20000FF80000000007FC000000001FE00000D8
:10EF3000000001FE000000003F8000000000003ED5
:10EF4000000000003E0000000000001F0000000064
:10EF50007800000000000007800000007000000042
:10EF600000000003800000006000000000000001BD
:10EF700080000000E000000000000001C000000070
:10EF8000C000000000000000C0000000C000000041
:10EF900000000000C0000000C000000000000000F1
:10EFA000C0000000C000000000000000C000000021
:10EFB000C000000000000000C0000000C000000011
:10EFC00000000001C0000000E0000000000000019F
:10EFD00080000000700000000000000380000000BE
:10EFE0007800000000000007800000003C000000E6
:10EFF0000000000F000000003E0000000000003F85
:10F00000000000001F800000000000FE0000000063
:10F010000FF00000000003FC0000000007FF0000EC
:10F0200000003FF80000000003FFFC00001FFFF09D
:10F030000000000001FFFFFFFFFFFFE000000000F5
:10F04000007FFFFFFFFFFF8000000000003FFFFF89
:10F05000FFFFFE0000000000000FFFFFFFFFF800B1
:10F06000000000000001FFFFFFFFE00000000000C3
:10F0700000001FFFFFFE000000000000000000FF76
:10F08000FFC00000000000000000000000000000C1
:10F090000000000000000000000000000000000070
:10F0A0000000000000000000000000000000000060
:10F0B0000000000000000000000000000000000050
:10F0C0000000000000000000000000000000000040
:10F0D0000000000000000000000000000000000030
:10F0E0000000000000000000000000000000000020
:10F0F0000000000000000000000000000000000010
:10F1000000000000000000000000000000000000FF
:10F1100000000000000000000000000000000000EF
:10F1200000000000000000000000000000000000DF
:10F130000300000000000001800000000300000048
:10F14000000000018000000003000000000000013A
:10F1500080000000030000000000000180000000AB
:10F160000300000000000001800000000300000018
:10F17000000000018000000003000000000000010A
:10F180008000000003000000000000038000000079
:10F19000070000000000000380000000078000005E
:10F1A000000000078000000007C000000000000F02
:10F1B000800000000FFFFFFFFFFFFFFF8000000047
:10F1C0000FFFFFFFFFFFFFFF800000001FFFFFFF9B
:10F1D000FFFFFFFF800000003FFFFFFFFFFFFFFF7B
:10F1E00080000000FFFFFFFFFFFFFFFF8000000027
:10F1F000FFFFFFFFFFFFFFFF800000000000000097
:10F200000000000F80000000000000000000000768
:10F2100080000000000000000000000380000000EB
:10F22000000000000000000380000000000000005B
:10F23000000000018000000000000000000000014C
:10F2400080000000000000000000000180000000BD
:10F25000000000000000000180000000000000002D
:10F26000000000018000000000000000000000011C
:10F27000800000000000000000000001800000008D
:10F28000000000000000000000000000000000007E
:10F29000000000000000000000000000000000006E
:10F2A000000000000000000000000000000000005E
:10F2B000000000000000000000000000000000004E
:10F2C000000000000000000000000000000000003E
:10F2D000000000000000000000000000000000002E
:10F2E000000000000000000000000000000000001E
:10F2F000000000000000000000000000000000000E
:10F3000000000000000000000000000000000000FD
:10F3100000000000000000000000000000000000ED
:10F3200000000000000000000000000000000000DD
:10F3300000000000000000000000001F800000002E
:10F34000000FE0000000007F80000000007FF80058
:10F35000000000FF8000000001FFFC00000001FF32
:10F360008000000003FFFC00000007DF80000000B9
:10F3700007FFFC0000000F9F800000000FCFFC0083
:10F3800000001E1F800000000E01FC0000003C1F5A
:10F39000800000001C00F0000000781F80000000CA
:10F3A000380000000001F01F800000003000000065
:10F3B0000003E01F80000000600000000007C01F85
:10F3C0008000000060000000000F801F800000002F
:10F3D00040000000001E001F80000000C000000070
:10F3E000003C001F80000000C00000000078001FEB
:10F3F00080000000C000000000F0001F800000003E
:10F40000C000000001E0001F80000000C0000000FC
:10F4100003C0001F80000000C00000000780001F24
:10F4200080000000C00000000F00001F80000000EE
:10F43000E00000003E00001F80000000E00000002F
:10F440007C00001F80000000E0000001F800001FA9
:10F450008000000070000003F000001F800000002A
:10F460007800000FE000001F800000007C00003FDB
:10F47000C000001F800000003F0000FF8000001F50
:10F48000800000003FE00FFF0000001F8000000030
:10F490001FFFFFFE0000003F800000001FFFFFFC79
:10F4A0000000007F800000000FFFFFF80000007FD9
:10F4B0008000000007FFFFF0000001FF8000000057
:10F4C00001FFFFC0000007FF80000000007FFF0079
:10F4D00000003FFF80000000001FF0000000FFE080
:10F4E00000000000000000000000F000000000002C
:10F4F000000000000000000000000000000000000C
:10F5000000000000000000000000000000000000FB
:10F5100000000000000000000000000000000000EB
:10F5200000000000000000000000000000000000DB
:10F5300000000000000000000000000000000000CB
:10F5400000000000000000000000000000000000BB
:10F5500000000000000000000000000000000000AB
:10F56000000000000000000000000000000000009B
:10F57000000000000000000000000000000000008B
:10F580000000000000001F8000000000007F00005D
:10F5900000003FE00000000001FF800000007FF05D
:10F5A0000000000003FFC0000000FFF800000000A2
:10F5B00007FFC0000000FFFC000000000FFFC000BC
:10F5C0000000FFFE000000001FFFC00000007FFEE3
:10F5D000000000003FFFC00000001E070000000008
:10F5E000380F000000000003000000007000000061
:10F5F0000000000180000000600000000000000129
:10F600008000000060000000000000018000000099
:10F61000C000000000000000C0000000C0000003A7
:10F6200000000000C0000000C00000030000000057
:10F63000C0000000C000000300000000C000000087
:10F64000C000000300000000C0000000C000000770
:10F6500000000000C0000000C00000070000000023
:10F66000C0000000E000000780000000C0000000B3
:10F67000E000000F80000001C00000007000000FDB
:10F6800080000001C00000007800001DC0000003E1
:10F69000800000007C00007DC000000380000000AE
:10F6A0003F0000FCE0000007800000003FE007F89A
:10F6B000F000000F000000001FFFFFF07800001FA7
:10F6C000000000000FFFFFF07E00007E0000000041
:10F6D00007FFFFE03FC007FE0000000003FFFFC080
:10F6E0003FFFFFFC0000000001FFFF001FFFFFF8CD
:10F6F00000000000007FFE000FFFFFF00000000090
:10F70000001FF00003FFFFE0000000000000000009
:10F7100001FFFF800000000000000000007FFE00ED
:10F720000000000000000000000FF00000000000DA
:10F7300000000000000000000000000000000000C9
:10F7400000000000000000000000000000000000B9
:10F7500000000000000000000000000000000000A9
:10F760000000000000000000000000000000000099
:10F770000000000000000000000000000000000089
:10F780000000000000000000000000000000000079
:10F790000000000000000000000000000000000069
:10F7A000000C00000000000000000000003C000011
:10F7B0000000000000000000007C000000000000CD
:10F7C0000000000001FC000000000000000000003C
:10F7D00003EC000000000000000000000F8C00009F
:10F7E00000000000000000003E0C000000000000CF
:10F7F000000000007C0C0000000000000000000180
:10F80000F00C00000000000000000003E00C00000D
:10F81000000000000000000F800C0000000000004D
:10F820000000003F000C0000000000000000007C11
:10F83000000C000000000000000001F0000C0000BF
:10F8400000000000000003E0000C000000000000C9
:10F8500000000F80000C00000000000000001F00EE
:10F86000000C0001C000000000007C00000C000142
:10F87000C00000000001F000000C0001C00000000A
:10F880000003E000000C0001C0000000000F800039
:10F89000000C0001C0000000001F0000000C00016F
:10F8A000C0000000007C0000000C0001C00000004F
:10F8B00001F80000000C0001C000000003E000009F
:10F8C000000C0003C00000000FFFFFFFFFFFFFFF61
:10F8D000C00000001FFFFFFFFFFFFFFFC000000090
:10F8E0007FFFFFFFFFFFFFFFC00000007FFFFFFF64
:10F8F000FFFFFFFFC00000007FFFFFFFFFFFFFFFD4
:10F90000C00000007FFFFFFFFFFFFFFFC0000000FF
:10F910007FFFFFFFFFFFFFFFC000000000000000AF
:10F92000000C0003C000000000000000000C0003F9
:10F93000C000000000000000000C0001C00000003A
:10F9400000000000000C0001C000000000000000EA
:10F95000000C0001C000000000000000000C0001CD
:10F96000C000000000000000000C0001C00000000A
:10F9700000000000000C0001C000000000000000BA
:10F98000000C0001C000000000000000000C00009E
:10F990000000000000000000000000000000000067
:10F9A0000000000000000000000000000000000057
:10F9B0000000000000000000000000000000000047
:10F9C0000000000000000000000000000000000037
:10F9D0000000000000000000000000000000000027
:10F9E0000000000000000000000000000000000017
:10F9F0000000000000000000000000000000000007
:10FA00000000000000003F000000000000000000B7
:10FA10000000FFC000000000000000000001FFF037
:10FA2000000000000000001FE001FFF800000000DF
:10FA3000003FFFFFE001FFFC000000007FFFFFC16F
:10FA4000F001FFFC000000007F800003E000FE0EDC
:10FA5000000000007C00000780007C070000000020
:10FA60007C00000F00000003000000007C00001E6E
:10FA700000000001800000007C00003C000000014C
:10FA8000800000007C0000380000000180000000C1
:10FA90007C00007800000000C00000007C000078BE
:10FAA00000000000C00000007C00007000000000AA
:10FAB000C00000007C0000F000000000C00000005A
:10FAC0007C0000F000000000C00000007C0000F09E
:10FAD00000000000C00000007C0000F000000000FA
:10FAE000C00000007C0000F000000000C00000002A
:10FAF0007C0000F000000001C00000007C0000F06D
:10FB000000000001C00000007C0000F800000001BF
:10FB1000800000007C0000FC00000003800000006A
:10FB20007C00007C00000007800000007C00007E5C
:10FB30000000000F000000007C00007F8000003FFC
:10FB4000000000007C00003FE00000FE000000001C
:10FB50007C00001FFE000FFE000000007C00001F64
:10FB6000FFFFFFFC000000007C00000FFFFFFFF81C
:10FB7000000000007C000007FFFFFFF00000000015
:10FB80007C000001FFFFFFC0000000007C000000BF
:10FB9000FFFFFF0000000000600000001FFFFC00EE
:10FBA000000000000000000003FFC0000000000093
:10FBB0000000000000000000000000000000000045
:10FBC0000000000000000000000000000000000035
:10FBD0000000000000000000000000000000000025
:10FBE0000000000000000000000000000000000015
:10FBF0000000000000000000000000000000000005
:10FC000000000000000000000000000000000000F4
:10FC100000000000000000000000000000000000E4
:10FC200000000000000000000000000000000000D4
:10FC3000000000000000001FFFF0000000000000B6
:10FC4000000007FFFFFF80000000000000007FFFB2
:10FC5000FFFFF800000000000001FFFFFFFFFE00B3
:10FC6000000000000007FFFFFFFFFF800000000012
:10FC7000001FFFFFFFFFFFE000000000007FFFFF0D
:10FC8000FFFFFFF00000000000FFFC007C01FFF818
:10FC90000000000001FF0001F8000FFC0000000060
:10FCA00003F00003E00001FE0000000007C00007B1
:10FCB000C000007E000000000F00000F0000003FA9
:10FCC000000000001E00001E0000000F00000000E9
:10FCD0001C00003E00000007800000003800003CCF
:10FCE00000000003800000003000007800000003E6
:10FCF000800000007000007800000001C0000000DB
:10FD00006000007800000001C0000000600000F00A
:10FD100000000000C0000000C00000F00000000073
:10FD2000C0000000C00000F000000000C0000000A3
:10FD3000C00000F000000000C0000000C00000F0A3
:10FD400000000000C0000000C00000F00000000043
:10FD5000C0000000C00000F000000000C000000073
:10FD6000C00000F80000000180000000E00000F882
:10FD70000000000180000000E000007C00000003A3
:10FD8000800000007FE0007E00000007000000000F
:10FD90007FF0007F0000000F000000007FF8003FB0
:10FDA0008000001E000000003FF8001FE000007C03
:10FDB000000000001FF8001FFE000FF80000000008
:10FDC0000FF8000FFFFFFFF80000000007F000072A
:10FDD000FFFFFFE00000000003E00001FFFFFFC0A5
:10FDE00000000000000000007FFFFF000000000096
:10FDF000000000001FFFFC000000000000000000E9
:10FE000001FFC00000000000000000000000000032
:10FE100000000000000000000000000000000000E2
:10FE200000000000000000000000000000000000D2
:10FE300000000000000000000000000000000000C2
:10FE400000000000000000000000000000000000B2
:10FE500000000000000000000000000000000000A2
:10FE60000000000000000000000000000000000092
:10FE70000000000000000000000000000000000082
:10FE800000038000000000000000000000FF800070
:10FE900000000000000000003FFF00000000000024
:10FEA000000000007FF800000000000000000000DB
:10FEB0007FE0000000000000000000007F800000E4
:10FEC00000000000000000007F00000000000000B3
:10FED000000000007E0000000000000000000000A4
:10FEE0007E00000000000000000000007C00000018
:10FEF00000000000000000007C0000000000000086
:10FF0000000000007C000000000003FE0000000074
:10FF10007C0000000000FFFF800000007C0000006B
:10FF2000000FFFFFC00000007C000000007FFFFF0B
:10FF3000C00000007C00000003FFFFFFC0000000C5
:10FF40007C0000000FFFFFFFC00000007C000000ED
:10FF50007FFFFFFF800000007C000001FFFFFFFF2C
:10FF6000000000007C000007FF800000000000008F
:10FF70007C00001FF8000000000000007C00007FF3
:10FF8000C0000000000000007C0001FE0000000036
:10FF9000000000007C0007F00000000000000000EE
:10FFA0007C001FC000000000000000007C007E00FC
:10FFB00000000000000000007C01F80000000000CC
:10FFC000000000007C07E0000000000000000000CE
:10FFD0007C1F800000000000000000007C7E00000C
:10FFE00000000000000000007DF80000000000009C
:10FFF000000000007FE000000000000000000000A2
:020000040801F1
:100000007FC0000000000000000000007F00000032
:1000100000000000000000007C0000000000000064
:100020000000000070000000000000000000000060
:1000300000000000000000000000000000000000C0
:1000400000000000000000000000000000000000B0
:1000500000000000000000000000000000000000A0
:100060000000000000000000000000000000000090
:100070000000000000000000000000000000000080
:100080000000000000000000000000000000000070
:100090000000000000000000000000000000000060
:1000A0000000000000000000000000000007F80051
:1000B0000000000000000000003FFF000000000002
:1000C000001FE00000FFFFC000000000007FFC00F8
:1000D00001FFFFE00000000001FFFF0007FFFFF04D
:1000E0000000000003FFFF800FFC03F80000000089
:1000F00007FFFFC01FC0007C000000000FE07FE092
:100100003F00003E000000001F001FF03E00000EF8
:10011000000000003C000FF878000007000000001D
:10012000380003FCF000000700000000700001FC34
:10013000E000000380000000700001FFC00000012B
:1001400080000000600000FFC0000001800000008F
:100150006000007F80000001C0000000C000003F80
:1001600080000000C0000000C000003F80000000D0
:10017000C0000000C000001FC0000000C000000060
:10018000C000001FC0000000C0000000C000000F41
:10019000E0000000C0000000C000000FE000000010
:1001A000C0000000C0000007F0000000C000000018
:1001B000C0000007F0000000C0000000C000000701
:1001C000F8000000C0000000E0000007FC00000193
:1001D000800000006000000FFC00000180000000B3
:1001E0007000001FFE000001800000007000003C55
:1001F000FF00000300000000380000787F80000747
:10020000000000003E0000F87FC0000F000000006A
:100210001F0003F03FE0001E000000000FE00FE0B1
:100220001FF8007C0000000007FFFFC00FFE01F870
:100230000000000003FFFF8007FFFFF00000000048
:1002400001FFFF0003FFFFE000000000007FFC0053
:1002500000FFFFC000000000001FE000003FFF00A3
:1002600000000000000000000007F800000000008F
:10027000000000000000000000000000000000007E
:10028000000000000000000000000000000000006E
:10029000000000000000000000000000000000005E
:1002A000000000000000000000000000000000004E
:1002B000000000000000000000000000000000003E
:1002C000000000000000000000000000000000002E
:1002D000000000000000000000000000000000001E
:1002E00000000000000000000000FFE0000000002F
:1002F00000000000000FFFFE0000000000000000F2
:10030000003FFFFF800000000000000000FFFFFF33
:10031000E00001F00000000001FFFFFFF00003FC1F
:100320000000000007FFFFFFF80007FE00000000CC
:100330000FFC003FFC0007FF000000001FC000078B
:10034000FE0007FF000000001F000001FE0007FF85
:10035000800000003C0000007F0003FF80000000E0
:10036000380000003F0000FF800000007000000027
:100370001F000003C0000000700000000F8000019B
:10038000C0000000600000000F800000C0000000FE
:10039000E000000007800000C0000000C000000076
:1003A00007800000C0000000C000000007800000BF
:1003B000C0000000C000000007800000C000000076
:1003C000C000000007800000C0000000C000000066
:1003D00007800001C0000000C0000000078000018D
:1003E00080000000C00000000F000003800000003B
:1003F000C00000000F00000380000000E0000000CB
:100400001F00000700000000600000001E00000F39
:1004100000000000700000003E00001E0000000010
:10042000780000007C00007E000000003800000022
:10043000F80001FC000000001E000001F00007F8B9
:10044000000000001F800007E0003FF000000000F7
:100450000FE0000F8007FFE00000000007FE007FB4
:1004600003FFFF800000000003FFFFFFFFFFFF000E
:100470000000000001FFFFFFFFFFFC000000000084
:10048000007FFFFFFFFFF00000000000001FFFFFE4
:10049000FFFFC000000000000007FFFFFFFE00009C
:1004A000000000000000FFFFFFF00000000000005F
:1004B000000007FFFC00000000000000000000003A
:1004C000000000000000000000000000000000002C
:1004D000000000000000000000000000000000001C
:1004E000000000000000000000000000000000000C
:1004F00000000000000000000000000000000000FC
:1005000000000000000000000000000000000000EB
:1005100000000000000000000000000000000000DB
:1005200000000000000000000000000000000000CB
:1005300000000000000000000000000000000000BB
:1005400000000000000000000000000000000000AB
:10055000000000000000000000000000000000009B
:10056000000000000000000000000000000000008B
:10057000000000000000000000000000000000007B
:10058000000000000000000000000000000000006B
:10059000000000000000000000000000000000005B
:1005A000000000000000000000000000000000004B
:1005B000000000000000000000000000000000003B
:1005C000000000000000000000000000000000002B
:1005D000000000F80000003E00000000000001FCE8
:1005E0000000007F00000000000003FE000000FF8C
:1005F00080000000000007FF000001FFC0000000B5
:10060000000007FF000001FFC0000000000007FF1E
:10061000000001FFC0000000000007FF000001FF14
:10062000C0000000000007FF000001FFC000000044
:10063000000003FE000000FF80000000000001FC3D
:100640000000007F00000000000000F80000003EF5
:10065000000000000000000000000000000000009A
:10066000000000000000000000000000000000008A
:10067000000000000000000000000000000000007A
:10068000000000000000000000000000000000006A
:10069000000000000000000000000000000000005A
:1006A000000000000000000000000000000000004A
:1006B000000000000000000000000000000000003A
:1006C000000000000000000000000000000000002A
:1006D000000000000000000000000000000000001A
:1006E000000000000000000000000000000000000A
:1006F00000000000000000000000000000000000FA
:1007000000000000000000000000000000000000E9
:1007100000000000000000000000000000000000D9
:1007200000000000000000000000000000000000C9
:1007300000000000000000000000000000000000B9
:1007400000000000000000000000000000000000A9
:100750000000000000000000000000000000000099
:100760000000000000000000000000000000000089
:100770000000000000000000000000000000000079
:100780000000000000000000000000000000000069
:100790000000000000000000000000000000000059
:1007A0000000000000000000000000000000000049
:1007B0000000000000000000000000000000000039
:1007C0000000000000000000000000000000000029
:1007D0000000000000000000000000000000000019
:1007E0000000000000000000000000000000000009
:1007F00000000000000000000000000000000000F9
:1008000000000000000000000000000000000000E8
:10081000000000000000000000000000000003FCD9
:100820000000007F80200000000003FC0000007F2B
:1008300081E00000000003FC0000007F8FE000006A
:10084000000003FC0000007FBFE00000000003FC8C
:100850000000007FFFC00000000003FC0000007FDC
:10086000FE000000000003FC0000007FF800000014
:10087000000003FC0000007FC0000000000000003A
:100880000000000000000000000000000000000068
:100890000000000000000000000000000000000058
:1008A0000000000000000000000000000000000048
:1008B0000000000000000000000000000000000038
:1008C0000000000000000000000000000000000028
:1008D0000000000000000000000000000000000018
:1008E0000000000000000000000000000000000008
:1008F00000000000000000000000000000000000F8
:1009000000000000000000000000000000000000E7
:1009100000000000000000000000000000000000D7
:1009200000000000000000000000000000000000C7
:1009300000000000000000000000000000000000B7
:1009400000000000000000000000000000000000A7
:100950000000000000000000000000000000000097
:100960000000000000000000000000000000000087
:100970000000000000000000000000000000000077
:100980000000000000000000000000000000000067
:100990000000000000000000000000000000000057
:1009A0000000000000000000000000000000000047
:1009B0000000000000000000000000000000000037
:1009C00000000000800000000000000000000001A6
:1009D000C00000000000000000000003E000000074
:1009E0000000000000000007F00000000000000010
:1009F0000000000FF8000000000000000000001FD1
:100A00007C000000000000000000003E3E000000EE
:100A1000000000000000007C1F000000000000003B
:100A2000000000F80F80000000000000000001F04E
:100A300007C0000000000000000003E003E0000029
:100A400000000000000007C001F0000000000000EE
:100A500000000F8000F800000000000000001F00F0
:100A6000007C00000000000000003E00003E00008E
:100A70000000000000007C00001F000000000000DB
:100A80000000F800000F8000000000000001F000EE
:100A90000007C000000000000003E0000003E000C9
:100AA000000000000007C0000001F000000000008E
:100AB000000F80000000F80000000000001F000090
:100AC00000007C0000000000003E000000003E002E
:100AD00000000000007C000000001F00000000007B
:100AE00000F8000000000F800000000001F000008E
:100AF000000007C00000000003E00000000003E069
:100B00000000000007C00000000001F0000000002D
:100B10000F800000000000F8000000001F0000002F
:100B20000000007C000000003E0000000000003ECD
:100B3000000000007C0000000000001F000000001A
:100B4000F80000000000000F80000001F00000002D
:100B500000000007C0000000E000000000000003EB
:100B600080000000400000000000000100000000C4
:100B70000000000000000000000000000000000075
:100B80000000000000000000000000000000000065
:100B90000000000000000000000000000000000055
:100BA0000000000000000000000000000000000045
:100BB0000000000000000000000000000000000035
:100BC0000000000000000000000000000000000025
:100BD000000000000000000000000000000007000E
:100BE00000E00000000000000000070000E000003E
:100BF000000000000000070000E00000000000000E
:100C00000000070000E000000000000000000700F6
:100C100000E00000000000000000070000E000000D
:100C2000000000000000070000E0000000000000DD
:100C30000000070000E000000000000000000700C6
:100C400000E00000000000000000070000E00000DD
:100C5000000000000000070000E0000000000000AD
:100C60000000070000E00000000000000000070096
:100C700000E00000000000000000070000E00000AD
:100C8000000000000000070000E00000000000007D
:100C90000000070000E00000000000000000070066
:100CA00000E00000000000000000070000E000007D
:100CB000000000000000070000E00000000000004D
:100CC0000000070000E00000000000000000070036
:100CD00000E00000000000000000070000E000004D
:100CE000000000000000070000E00000000000001D
:100CF0000000070000E00000000000000000070006
:100D000000E00000000000000000070000E000001C
:100D1000000000000000070000E0000000000000EC
:100D20000000070000E000000000000000000700D5
:100D300000E00000000000000000070000E00000EC
:100D4000000000000000070000E0000000000000BC
:100D50000000070000E000000000000000000700A5
:100D600000E00000000000000000070000E00000BC
:100D7000000000000000070000E00000000000008C
:100D80000000070000E00000000000000000070075
:100D900000E00000000000000000070000E000008C
:100DA000000000000000070000E00000000000005C
:100DB0000000070000E00000000000000000070045
:100DC00000E00000000000000000070000E000005C
:100DD0000000000000000000000000000000000013
:100DE0000000000000000000000000000000000003
:100DF00000000000000000000000000000000000F3
:100E000000000000000000000000000000000000E2
:100E100000000000000000000000000000000000D2
:100E200000000000000000000000000000000000C2
:100E300000000000000000000000000000000000B2
:100E4000400000000000000100000000E000000081
:100E50000000000380000001F00000000000000717
:100E6000C0000000F80000000000000F800000003B
:100E70007C0000000000001F000000003E00000099
:100E80000000003E000000001F0000000000007C89
:100E9000000000000F800000000000F800000000CB
:100EA00007C00000000001F00000000003E00000A7
:100EB000000003E00000000001F00000000007C097
:100EC0000000000000F8000000000F80000000009B
:100ED000007C000000001F0000000000003E000039
:100EE00000003E0000000000001F000000007C0029
:100EF00000000000000F80000000F800000000006B
:100F00000007C0000001F000000000000003E00046
:100F10000003E000000000000001F0000007C00036
:100F2000000000000000F800000F8000000000003A
:100F300000007C00001F00000000000000003E00D8
:100F4000003E00000000000000001F00007C0000C8
:100F50000000000000000F8000F80000000000000A
:100F6000000007C001F0000000000000000003E0E6
:100F700003E0000000000000000001F007C00000D6
:100F800000000000000000F80F80000000000000DA
:100F90000000007C1F000000000000000000003E78
:100FA0003E000000000000000000001F7C00000068
:100FB000000000000000000FF8000000000000002A
:100FC00000000007F0000000000000000000000327
:100FD000E00000000000000000000001C000000070
:100FE0000000000000000000800000000000000081
:100FF00000000000000000000000000000000000F1
:1010000000000000000000000000000000000000E0
:1010100000000000000000000000000000000000D0
:1010200000000000000000000000000000000000C0
:1010300000000000000000000000000000000000B0
:1010400000000000000000000000000000000000A0
:101050000000000000000000000000000000000090
:101060000000000000000000000000000000000080
:10107000000000000007F800000000000000000071
:10108000003FFE00000000000000000000FFFE0026
:10109000000000000000000001FFFF000000000051
:1010A0000000000003FFFF0000000000000000003F
:1010B0000781FF0000000000000000000F00FF009B
:1010C00000000000000000001C007E000000000086
:1010D0000000000038003E0000000000000000009A
:1010E0007800000000000000000000007000000018
:1010F0000000000000000000600000000000000090
:1011000000000000E00000000000000000000000FF
:10111000E00000000000001F00000000C000000010
:101120000000003F80000001C00000000000007FC0
:10113000C0000001C000000003FFC0FFE00000018C
:10114000C00000001FFFC0FFE0000001C000000061
:101150003FFFC0FFE0000001C00000007F0000FF73
:10116000E0000001C0000000FC0000FFE000000102
:10117000C0000001F800007FC0000001C0000003B3
:10118000F000003F80000001E0000003E000001FCD
:1011900000000000E0000007E00000000000000088
:1011A000F000000FC000000000000000F000001F71
:1011B00080000000000000007800003F8000000078
:1011C000000000007C00007F000000000000000024
:1011D0007F0000FE00000000000000003FE007FE6E
:1011E00000000000000000001FFFFFFC00000000E6
:1011F000000000000FFFFFF80000000000000000EA
:1012000007FFFFF8000000000000000003FFFFF0F0
:10121000000000000000000001FFFFC0000000000F
:1012200000000000007FFF800000000000000000C0
:10123000000FFC00000000000000000000000000A3
:10124000000000000000000000000000000000009E
:10125000000000000000000000000000000000008E
:10126000000000000000000000000000000000007E
:10127000000000000000000000000000000000006E
:10128000000000000000000000000000000000005E
:10129000000000000000000000000000000000004E
:1012A00000000000000000000000003FFF80000080
:1012B0000000000000000FFFFFFC00000000000025
:1012C00000007FFFFFFFC000000000000001FFFFE3
:1012D000FFFFF000000000000007FFFFFFFFFC0021
:1012E00000000000001FFF00003FFF0000000000A2
:1012F000007FC0000000FF800000000000FE000032
:1013000000001FE00000000001F00000000003F0FA
:101310000000000003E00000000001F800000000F1
:10132000078000000000007C000000000F000000AB
:101330007FF0003E000000001E000007FFFE001EC0
:10134000000000001C00003FFFFF800F00000000B5
:10135000380001FFFFFFC00700000000300007FF5A
:10136000FFFFC0078000000070001FFF8003E00344
:101370008000000060003FF00000E00380000000FB
:101380006000FF000000E001C0000000C001FC00A0
:101390000000E001C0000000C003F0000000C00138
:1013A000C0000000C007C0000001C001C000000074
:1013B000C007000000038001C0000000C00E000054
:1013C000000F0001C0000000C00C0000003E000142
:1013D000C0000000C00C000001F80001C0000000C7
:1013E000C00C00007FFF8003C00000006006003FCB
:1013F000FFFFC0038000000060071FFFFFFFE00346
:10140000800000007003FFFFFF83E0078000000002
:10141000300FFFFFC001E00700000000380FFFF0B1
:101420000001E00F000000001C0FFC000001E00EB6
:10143000000000000E0F00000003C01C00000000B0
:10144000070000000007803C00000000078000004B
:10145000000F80780000000001E00000003E00F076
:101460000000000000FC000001FC03E000000000A0
:10147000007FE0001FF0078000000000000FFFFF6A
:10148000FFC01F00000000000003FFFFFF001C0062
:101490000000000000001FFFE00008000000000046
:1014A000000000000000000000000000000000003C
:1014B000000000000000000000000000000000002C
:1014C000000000000000000000000001800000009B
:1014D000000000000000000180000000000000008B
:1014E0000000000180000000000000000000000378
:1014F00080000000000000000000000780000000E5
:10150000000000000000003F80000000000000001C
:10151000000003FF800000000000000000003FFF0B
:1015200080000000000000000003FFFF80000000BA
:1015300000000000003FFC038000000000000000ED
:1015400003FFC00180000000000000003FFC00011C
:101550008000000000000003FFC0000180000000C8
:101560000000003FFD80000180000000000007FF38
:10157000C18000000000000000007FFC018000002E
:10158000000000000007FFC0018000000000000014
:10159000007FFC00018000000000000007FFC00089
:1015A00001800000000000007FFC000001800000BE
:1015B000000000007FC0000001800000000000006B
:1015C000FE0000000180000000000000FFF00000AD
:1015D0000180000000000000FFFF0000018000000B
:1015E00000000001FFFFF00001800000000000008B
:1015F000FFFFFF0001800000000000000FFFFFF868
:10160000018000000000000000FFFFFF818000005B
:10161000000000000007FFFFF9800000000000004C
:1016200000007FFFFFE0000180000000000007FFD6
:10163000FFFE0001800000000000007FFFFFF001BE
:101640008000000000000003FFFFFF018000000099
:10165000000000003FFFFFFF8000000000000000CE
:1016600003FFFFFF8000000000000000003FFFFFBD
:1016700080000000000000000001FFFF800000006B
:101680000000000000001FFF8000000000000000BC
:10169000000001FF80000000000000000000001FAB
:1016A0008000000000000000000000078000000033
:1016B00000000000000000038000000000000000A7
:1016C0000000000180000000000000000000000198
:1016D0008000000000000000000000018000000009
:1016E00000000000000000000000000000000000FA
:1016F00000000000000000000000000000000000EA
:1017000000000000000000000000000000000000D9
:101710000000000000000000000000006000000069
:1017200000000001800000006000000000000001D7
:101730008000000060000000000000018000000048
:101740006000000000000001800000007000000048
:1017500000000003800000007FFFFFFFFFFFFFFF8E
:10176000800000007FFFFFFFFFFFFFFF8000000001
:101770007FFFFFFFFFFFFFFF800000007FFFFFFFF5
:10178000FFFFFFFF800000007FFFFFFFFFFFFFFF65
:10179000800000007FFFFFFFFFFFFFFF80000000D1
:1017A00070000003000000038000000060000003E0
:1017B0000000000180000000600000030000000144
:1017C00080000000600000030000000180000000B5
:1017D00060000003000000018000000060000003C2
:1017E0000000000180000000600000030000000114
:1017F0008000000060000003000000018000000085
:101800006000000300000001800000006000000391
:1018100000000001800000006000000300000001E3
:101820008000000060000003000000018000000054
:10183000700000030000000180000000700000073D
:10184000000000018000000070000007800000011F
:10185000800000007800000F80000003800000007E
:101860007800001F80000003800000003C00003D65
:10187000C0000007000000003E00007DE0000007FF
:10188000000000003F8000F8E000000F00000000B2
:101890001FE007F8F000001F000000001FFFFFF02E
:1018A0007C00003E000000000FFFFFF07E0000FE05
:1018B000000000000FFFFFE03FE007FC0000000019
:1018C00007FFFFC03FFFFFFC0000000001FFFF809B
:1018D0001FFFFFF80000000000FFFE000FFFFFF0F9
:1018E00000000000001FF00007FFFFE00000000004
:1018F0000000000001FFFFC0000000000000000029
:10190000007FFF000000000000000000000FF80052
:1019100000000000000000000000000000000000C7
:1019200000000000000000000000000000000000B7
:1019300000000000000000000000000000000000A7
:101940000000000000000000000000000000000097
:101950000000000000000000000000000000003F48
:10196000FFC0000000000000000007FFFFFF0000B4
:101970000000000000007FFFFFFFE000000000000B
:101980000001FFFFFFFFFC00000000000007FFFF59
:10199000FFFFFE0000000000001FFFFFFFFFFF80B1
:1019A00000000000003FFFFFFFFFFFC0000000003D
:1019B00000FFFF00003FFFF00000000001FFE0001B
:1019C0000000FFF80000000003FE000000000FF818
:1019D0000000000007F80000000003FC0000000009
:1019E0000FE00000000000FE000000001F8000006B
:1019F0000000003E000000001E0000000000001F6C
:101A0000000000003C0000000000000F000000008B
:101A10003800000000000007800000007000000097
:101A200000000007800000007000000000000003BC
:101A3000800000006000000000000003C000000003
:101A40006000000000000001C0000000C0000000B5
:101A500000000001C0000000C00000000000000104
:101A6000C0000000C000000000000001C000000035
:101A7000C000000000000001C0000000C000000025
:101A800000000001C0000000C000000000000001D4
:101A9000C0000000C000000000000001C000000005
:101AA000C000000000000003800000006000000093
:101AB0000000000380000000600000000000000340
:101AC000800000007000000000000007000000001F
:101AD0007000000000000007000000003800000057
:101AE0000000000E000000003C0000000000001C90
:101AF000000000003E000000000000380000000070
:101B00003F00000000000070000000003FC0000027
:101B1000000001E0000000007FE00000000007C0BE
:101B200000000000FFFC000000001F80000000001B
:101B300007FF00000000FE0000000000007F8000A2
:101B40000001F80000000000000300000000C000D9
:101B50000000000000000000000000000000000085
:101B60000000000000000000000000000000000075
:101B70000000000000000000000000000000000065
:101B80000000000000000000000000000000000055
:101B900000000000000000000000000060000000E5
:101BA0000000000180000000600000000000000153
:101BB00080000000600000000000000180000000C4
:101BC00060000000000000018000000070000000C4
:101BD00000000003800000007FFFFFFFFFFFFFFF0A
:101BE000800000007FFFFFFFFFFFFFFF800000007D
:101BF0007FFFFFFFFFFFFFFF800000007FFFFFFF71
:101C0000FFFFFFFF800000007FFFFFFFFFFFFFFFE0
:101C1000800000007FFFFFFFFFFFFFFF800000004C
:101C20007000000000000003800000007000000051
:101C300000000003800000006000000000000001C0
:101C40008000000060000000000000018000000033
:101C50006000000000000001800000006000000043
:101C60000000000180000000600000000000000192
:101C70008000000060000000000000018000000003
:101C80006000000000000001800000006000000013
:101C9000000000038000000070000000000000034E
:101CA0008000000030000000000000030000000081
:101CB00030000000000000070000000038000000B5
:101CC0000000000700000000380000000000000FC6
:101CD000000000001C0000000000001E00000000CA
:101CE0001E0000000000001E000000000F000000A9
:101CF0000000003C000000000F8000000000007C9D
:101D00000000000007C00000000001F80000000013
:101D100007F00000000003F80000000003FC0000D2
:101D200000001FF00000000001FF80000000FFE045
:101D30000000000000FFFE00003FFFC000000000A8
:101D4000007FFFFFFFFFFF8000000000003FFFFF5C
:101D5000FFFFFE0000000000000FFFFFFFFFFC0080
:101D6000000000000007FFFFFFFFF0000000000080
:101D70000000FFFFFFFF80000000000000001FFFC9
:101D8000FFFC000000000000000000FFFF0000005A
:101D90000000000000000000000000000000000043
:101DA0000000000000000000000000000000000033
:101DB0000000000000000000000000000000000023
:101DC0000000000000000000000000000000000013
:101DD00000000000000000000000000060000000A3
:101DE0000000000180000000600000000000000111
:101DF0008000000060000000000000018000000082
:101E00006000000000000001800000007000000081
:101E100000000003800000007FFFFFFFFFFFFFFFC7
:101E2000800000007FFFFFFFFFFFFFFF800000003A
:101E30007FFFFFFFFFFFFFFF800000007FFFFFFF2E
:101E4000FFFFFFFF800000007FFFFFFFFFFFFFFF9E
:101E5000800000007FFFFFFFFFFFFFFF800000000A
:101E60007000000300000003800000006000000319
:101E7000000000018000000060000003000000017D
:101E800080000000600000030000000180000000EE
:101E900060000003000000018000000060000003FB
:101EA000000000018000000060000003000000014D
:101EB00080000000600000030000000180000000BE
:101EC00060000003000000018000000060000003CB
:101ED000000000018000000060000003000000011D
:101EE000800000006000000300000001800000008E
:101EF000600000030000000180000000600000039B
:101F00000000000180000000600000078000000168
:101F100080000000600000078000000180000000D9
:101F20006000000FC0000001800000007000003F52
:101F3000F80000038000000070000FFFFFC00003E6
:101F40008000000070000FFFFFC000038000000051
:101F50007800000000000007800000007C00000006
:101F600000000007800000007E0000000000000F5D
:101F7000800000007F0000000000001F80000000C3
:101F80007F8000000000003F800000007FE0000034
:101F90000000007F800000001FF00000000000FF34
:101FA0008000000003FC0000000003FE00000000B1
:101FB000007E000000000FE00000000000040000B0
:101FC00000003F00000000000000000000001000C2
:101FD0000000000000000000000000000000000001
:101FE00000000000000000000000000000000000F1
:101FF00000000000000000000000000000000000E1
:1020000000000000000000000000000000000000D0
:102010000000000000000000000000006000000060
:1020200000000001800000006000000000000001CE
:10203000800000006000000000000001800000003F
:10204000600000000000000180000000700000003F
:1020500000000003800000007FFFFFFFFFFFFFFF85
:10206000800000007FFFFFFFFFFFFFFF80000000F8
:102070007FFFFFFFFFFFFFFF800000007FFFFFFFEC
:10208000FFFFFFFF800000007FFFFFFFFFFFFFFF5C
:10209000800000007FFFFFFFFFFFFFFF80000000C8
:1020A00070000003000000038000000060000003D7
:1020B000000000018000000060000003000000013B
:1020C00080000000600000030000000180000000AC
:1020D00060000003000000018000000060000003B9
:1020E000000000000000000060000003000000008D
