Component: ARM Compiler 5.05 update 1 (build 106) Tool: armlink [4d0efa]

==============================================================================

Section Cross References

    main.o(i.NVIC_Config) refers to misc.o(i.NVIC_PriorityGroupConfig) for NVIC_PriorityGroupConfig
    main.o(i.NVIC_Config) refers to misc.o(i.NVIC_Init) for NVIC_Init
    main.o(i.main) refers to rcc.o(i.Rcc_init) for Rcc_init
    main.o(i.main) refers to main.o(i.NVIC_Config) for NVIC_Config
    main.o(i.main) refers to delay.o(i.delay_init) for delay_init
    main.o(i.main) refers to pwm.o(i.PWM_Init) for PWM_Init
    main.o(i.main) refers to usart2.o(i.USART1_Config) for USART1_Config
    main.o(i.main) refers to key.o(i.KEY_Init) for KEY_Init
    main.o(i.main) refers to tim.o(i.TIM1_init) for TIM1_init
    main.o(i.main) refers to tim.o(i.TIM2_init) for TIM2_init
    main.o(i.main) refers to tim.o(i.TIM4_Init) for TIM4_Init
    main.o(i.main) refers to pid.o(i.Speed_PIDInit) for Speed_PIDInit
    main.o(i.main) refers to main.o(.bss) for Main_pid_parameter
    system_stm32f10x.o(i.SetSysClock) refers to system_stm32f10x.o(i.SetSysClockTo72) for SetSysClockTo72
    system_stm32f10x.o(i.SystemCoreClockUpdate) refers to system_stm32f10x.o(.data) for SystemCoreClock
    system_stm32f10x.o(i.SystemInit) refers to system_stm32f10x.o(i.SetSysClock) for SetSysClock
    startup_stm32f10x_hd.o(STACK) refers (Special) to heapauxi.o(.text) for __use_two_region_memory
    startup_stm32f10x_hd.o(HEAP) refers (Special) to heapauxi.o(.text) for __use_two_region_memory
==============================================================================

Removing Unused input sections from the image.

    Removing main.o(.data), (5 bytes).
    Removing stm32f10x_it.o(.data), (3 bytes).
    Removing core_cm3.o(.emb_text), (32 bytes).
    Removing system_stm32f10x.o(i.SystemCoreClockUpdate), (164 bytes).
    Removing misc.o(i.NVIC_SetVectorTable), (20 bytes).
    Removing misc.o(i.NVIC_SystemLPConfig), (32 bytes).
    Removing stm32f10x_adc.o(i.ADC_AnalogWatchdogCmd), (20 bytes).
    Removing stm32f10x_adc.o(i.ADC_AnalogWatchdogSingleChannelConfig), (16 bytes).
    Removing stm32f10x_adc.o(i.ADC_AnalogWatchdogThresholdsConfig), (6 bytes).
    Removing stm32f10x_adc.o(i.ADC_AutoInjectedConvCmd), (22 bytes).
    Removing stm32f10x_adc.o(i.ADC_ClearFlag), (6 bytes).
    Removing stm32f10x_adc.o(i.ADC_ClearITPendingBit), (10 bytes).
    Removing stm32f10x_adc.o(i.ADC_Cmd), (22 bytes).
    Removing stm32f10x_adc.o(i.ADC_DMACmd), (22 bytes).
    Removing stm32f10x_adc.o(i.ADC_DeInit), (92 bytes).
    Removing stm32f10x_adc.o(i.ADC_DiscModeChannelCountConfig), (24 bytes).
    Removing stm32f10x_adc.o(i.ADC_DiscModeCmd), (22 bytes).
    Removing stm32f10x_adc.o(i.ADC_ExternalTrigConvCmd), (22 bytes).
==============================================================================

Image Symbol Table

    Local Symbols

    Symbol Name                              Value     Ov Type        Size  Object(Section)

    ../clib/angel/boardlib.s                 0x00000000   Number         0  boardshut.o ABSOLUTE
    ../clib/angel/boardlib.s                 0x00000000   Number         0  boardinit2.o ABSOLUTE
    ../clib/angel/boardlib.s                 0x00000000   Number         0  boardinit3.o ABSOLUTE
    ../clib/angel/boardlib.s                 0x00000000   Number         0  boardinit1.o ABSOLUTE
    ../clib/angel/handlers.s                 0x00000000   Number         0  __scatter_zi.o ABSOLUTE
    ../clib/angel/handlers.s                 0x00000000   Number         0  __scatter_copy.o ABSOLUTE
    ../clib/angel/kernel.s                   0x00000000   Number         0  rtexit2.o ABSOLUTE
    ../clib/angel/kernel.s                   0x00000000   Number         0  rtexit.o ABSOLUTE
    ../clib/angel/kernel.s                   0x00000000   Number         0  __rtentry.o ABSOLUTE
    ../clib/angel/kernel.s                   0x00000000   Number         0  __rtentry4.o ABSOLUTE
    ../clib/angel/kernel.s                   0x00000000   Number         0  __rtentry2.o ABSOLUTE
    ../clib/angel/rt.s                       0x00000000   Number         0  rt_locale_intlibspace.o ABSOLUTE
    ../clib/angel/rt.s                       0x00000000   Number         0  rt_errno_addr_intlibspace.o ABSOLUTE
    ../clib/angel/rt.s                       0x00000000   Number         0  rt_locale.o ABSOLUTE
    ../clib/angel/rt.s                       0x00000000   Number         0  rt_heap_descriptor.o ABSOLUTE
    ../clib/angel/rt.s                       0x00000000   Number         0  rt_heap_descriptor_intlibspace.o ABSOLUTE
    ../clib/angel/rt.s                       0x00000000   Number         0  rt_ctype_table.o ABSOLUTE
    ../clib/angel/rt.s                       0x00000000   Number         0  rt_raise.o ABSOLUTE
    ../clib/angel/rt.s                       0x00000000   Number         0  rt_errno_addr.o ABSOLUTE
    ../clib/angel/scatter.s                  0x00000000   Number         0  __scatter.o ABSOLUTE
    ../clib/angel/startup.s                  0x00000000   Number         0  __main.o ABSOLUTE
    ../clib/angel/sys.s                      0x00000000   Number         0  sys_stackheap_outer.o ABSOLUTE
    ../clib/angel/sys.s                      0x00000000   Number         0  indicate_semi.o ABSOLUTE
    ../clib/angel/sys.s                      0x00000000   Number         0  use_no_semi.o ABSOLUTE
    ../clib/angel/sys.s                      0x00000000   Number         0  mutex_dummy.o ABSOLUTE
    ../clib/angel/sys.s                      0x00000000   Number         0  libspace.o ABSOLUTE
    ../clib/angel/sysapp.c                   0x00000000   Number         0  sys_exit.o ABSOLUTE
    ../clib/angel/sysapp.c                   0x00000000   Number         0  sys_wrch.o ABSOLUTE
    ../clib/angel/sysapp.c                   0x00000000   Number         0  sys_command.o ABSOLUTE
    ../clib/armsys.c                         0x00000000   Number         0  _get_argv_nomalloc.o ABSOLUTE
    ../clib/armsys.c                         0x00000000   Number         0  argv_veneer.o ABSOLUTE
    ../clib/armsys.c                         0x00000000   Number         0  no_argv.o ABSOLUTE
    ../clib/armsys.c                         0x00000000   Number         0  argv_veneer.o ABSOLUTE
    ../clib/armsys.c                         0x00000000   Number         0  _get_argv.o ABSOLUTE
    ../clib/bigflt.c                         0x00000000   Number         0  bigflt0.o ABSOLUTE
    ../clib/btod.s                           0x00000000   Number         0  btod.o ABSOLUTE
    ../clib/ctype.c                          0x00000000   Number         0  isspace.o ABSOLUTE
    ../clib/fenv.c                           0x00000000   Number         0  _rserrno.o ABSOLUTE
    ../clib/heap1.c                          0x00000000   Number         0  h1_init_mt.o ABSOLUTE
    ../clib/heap1.c                          0x00000000   Number         0  h1_alloc.o ABSOLUTE
    ../clib/heap1.c                          0x00000000   Number         0  h1_extend.o ABSOLUTE
    ../clib/heap1.c                          0x00000000   Number         0  h1_init.o ABSOLUTE
    ../clib/heap1.c                          0x00000000   Number         0  h1_free.o ABSOLUTE
    ../clib/heap1.c                          0x00000000   Number         0  h1_free_mt.o ABSOLUTE
    ../clib/heap1.c                          0x00000000   Number         0  h1_extend_mt.o ABSOLUTE
    ../clib/heap1.c                          0x00000000   Number         0  h1_alloc_mt.o ABSOLUTE
    ../clib/heap1.c                          0x00000000   Number         0  h1_final_mt.o ABSOLUTE
    ../clib/heap1.c                          0x00000000   Number         0  h1_final.o ABSOLUTE
    ../clib/heap2.c                          0x00000000   Number         0  heap2.o ABSOLUTE
    ../clib/heap2.c                          0x00000000   Number         0  fdtree.o ABSOLUTE
    ../clib/heap2.c                          0x00000000   Number         0  heap2mt.o ABSOLUTE
    ../clib/heapalloc.c                      0x00000000   Number         0  malloc.o ABSOLUTE
    ../clib/heapalloc.c                      0x00000000   Number         0  free.o ABSOLUTE
    ../clib/heapalloc.c                      0x00000000   Number         0  hguard.o ABSOLUTE
    ../clib/heapalloc.c                      0x00000000   Number         0  hrguard.o ABSOLUTE
    ../clib/heapalloc.c                      0x00000000   Number         0  maybetermalloc1.o ABSOLUTE
    ../clib/heapalloc.c                      0x00000000   Number         0  init_alloc.o ABSOLUTE
    ../clib/heapalloc.c                      0x00000000   Number         0  maybetermalloc2.o ABSOLUTE
    ../clib/heapalloc.c                      0x00000000   Number         0  maybetermalloc1.o ABSOLUTE
    ../clib/heapalloc.c                      0x00000000   Number         0  maybetermalloc2.o ABSOLUTE
    ../clib/heapalloc.c                      0x00000000   Number         0  heapstubs.o ABSOLUTE
    ../clib/heapalloc.c                      0x00000000   Number         0  term_alloc.o ABSOLUTE
    ../clib/heapaux.c                        0x00000000   Number         0  heapauxi.o ABSOLUTE
    ../clib/heapaux.c                        0x00000000   Number         0  heapauxa.o ABSOLUTE
    ../clib/libinit.s                        0x00000000   Number         0  libinit.o ABSOLUTE
    ../clib/libinit.s                        0x00000000   Number         0  libinit2.o ABSOLUTE
    ../clib/libinit.s                        0x00000000   Number         0  libshutdown.o ABSOLUTE
    ../clib/libinit.s                        0x00000000   Number         0  libshutdown2.o ABSOLUTE
    ../clib/locale.c                         0x00000000   Number         0  _wcrtomb.o ABSOLUTE
    ../clib/locale.s                         0x00000000   Number         0  lc_ctype_c.o ABSOLUTE
    ../clib/locale.s                         0x00000000   Number         0  lc_numeric_c.o ABSOLUTE
    ../clib/longlong.s                       0x00000000   Number         0  llshl.o ABSOLUTE
    ../clib/longlong.s                       0x00000000   Number         0  lludiv10.o ABSOLUTE
    ../clib/memcpset.s                       0x00000000   Number         0  rt_memclr_w.o ABSOLUTE
    ../clib/memcpset.s                       0x00000000   Number         0  rt_memcpy_w.o ABSOLUTE
    ../clib/memcpset.s                       0x00000000   Number         0  strcmpv7m.o ABSOLUTE
    ../clib/misc.s                           0x00000000   Number         0  printf_stubs.o ABSOLUTE
    ../clib/printf.c                         0x00000000   Number         0  _printf_hex_ll.o ABSOLUTE
    ../clib/printf.c                         0x00000000   Number         0  _printf_oct_int_ll.o ABSOLUTE
    ../clib/printf.c                         0x00000000   Number         0  _printf_oct_int.o ABSOLUTE
    ../clib/printf.c                         0x00000000   Number         0  _printf_oct_ll.o ABSOLUTE
    ../clib/printf.c                         0x00000000   Number         0  _printf_longlong_dec.o ABSOLUTE
    ../clib/printf.c                         0x00000000   Number         0  c89vsnprintf.o ABSOLUTE
    ../clib/printf.c                         0x00000000   Number         0  _printf_intcommon.o ABSOLUTE
    ../clib/printf.c                         0x00000000   Number         0  _printf_fp_dec.o ABSOLUTE
    ../clib/printf.c                         0x00000000   Number         0  __printf_nopercent.o ABSOLUTE
    ../clib/printf.c                         0x00000000   Number         0  _printf_wctomb.o ABSOLUTE
    ../clib/printf.c                         0x00000000   Number         0  _printf_char.o ABSOLUTE
    ../clib/printf.c                         0x00000000   Number         0  _printf_hex_int_ll_ptr.o ABSOLUTE
    ../clib/printf.c                         0x00000000   Number         0  _snputc.o ABSOLUTE
    ../clib/printf.c                         0x00000000   Number         0  _printf_wchar.o ABSOLUTE
    ../clib/printf.c                         0x00000000   Number         0  _sputc.o ABSOLUTE
    ../clib/printf.c                         0x00000000   Number         0  __printf_wp.o ABSOLUTE
    ../clib/printf.c                         0x00000000   Number         0  _printf_hex_int.o ABSOLUTE
    ../clib/printf.c                         0x00000000   Number         0  __printf_flags_wp.o ABSOLUTE
    ../clib/printf.c                         0x00000000   Number         0  _printf_char_common.o ABSOLUTE
    ../clib/printf.c                         0x00000000   Number         0  _printf_charcount.o ABSOLUTE
    ../clib/printf.c                         0x00000000   Number         0  __printf.o ABSOLUTE
    ../clib/printf.c                         0x00000000   Number         0  _printf_dec.o ABSOLUTE
    ../clib/printf.c                         0x00000000   Number         0  _printf_str.o ABSOLUTE
    ../clib/printf.c                         0x00000000   Number         0  _printf_truncate.o ABSOLUTE
    ../clib/printf.c                         0x00000000   Number         0  __printf_ss_wp.o ABSOLUTE
    ../clib/printf.c                         0x00000000   Number         0  _printf_hex_ll_ptr.o ABSOLUTE
    ../clib/printf.c                         0x00000000   Number         0  __printf_flags_ss_wp.o ABSOLUTE
    ../clib/printf.c                         0x00000000   Number         0  _printf_hex_int_ptr.o ABSOLUTE
    ../clib/printf.c                         0x00000000   Number         0  _printf_hex_ptr.o ABSOLUTE
    ../clib/printf.c                         0x00000000   Number         0  _printf_pad.o ABSOLUTE
    ../clib/printf.c                         0x00000000   Number         0  _printf_fp_infnan.o ABSOLUTE
    ../clib/printf.c                         0x00000000   Number         0  _printf_hex_int_ll.o ABSOLUTE
    ../clib/printf.c                         0x00000000   Number         0  __printf_ss.o ABSOLUTE
    ../clib/printf.c                         0x00000000   Number         0  __printf_flags_ss.o ABSOLUTE
    ../clib/printf.c                         0x00000000   Number         0  __printf_flags.o ABSOLUTE
    ../clib/printf_percent.s                 0x00000000   Number         0  _printf_u.o ABSOLUTE
    ../clib/printf_percent.s                 0x00000000   Number         0  _printf_f.o ABSOLUTE
    ../clib/printf_percent.s                 0x00000000   Number         0  _printf_e.o ABSOLUTE
    ../clib/printf_percent.s                 0x00000000   Number         0  _printf_g.o ABSOLUTE
    ../clib/printf_percent.s                 0x00000000   Number         0  _printf_a.o ABSOLUTE
    ../clib/printf_percent.s                 0x00000000   Number         0  _printf_percent.o ABSOLUTE
    ../clib/printf_percent.s                 0x00000000   Number         0  _printf_lli.o ABSOLUTE
    ../clib/printf_percent.s                 0x00000000   Number         0  _printf_lld.o ABSOLUTE
    ../clib/printf_percent.s                 0x00000000   Number         0  _printf_llu.o ABSOLUTE
    ../clib/printf_percent.s                 0x00000000   Number         0  _printf_ll.o ABSOLUTE
    ../clib/printf_percent.s                 0x00000000   Number         0  _printf_l.o ABSOLUTE
    ../clib/printf_percent.s                 0x00000000   Number         0  _printf_lc.o ABSOLUTE
    ../clib/printf_percent.s                 0x00000000   Number         0  _printf_ls.o ABSOLUTE
    ../clib/printf_percent.s                 0x00000000   Number         0  _printf_llo.o ABSOLUTE
    ../clib/printf_percent.s                 0x00000000   Number         0  _printf_llx.o ABSOLUTE
    ../clib/printf_percent.s                 0x00000000   Number         0  _printf_percent_end.o ABSOLUTE
    ../clib/printf_percent.s                 0x00000000   Number         0  _printf_c.o ABSOLUTE
    ../clib/printf_percent.s                 0x00000000   Number         0  _printf_s.o ABSOLUTE
    ../clib/printf_percent.s                 0x00000000   Number         0  _printf_n.o ABSOLUTE
    ../clib/printf_percent.s                 0x00000000   Number         0  _printf_x.o ABSOLUTE
    ../clib/printf_percent.s                 0x00000000   Number         0  _printf_p.o ABSOLUTE
    ../clib/printf_percent.s                 0x00000000   Number         0  _printf_o.o ABSOLUTE
    ../clib/printf_percent.s                 0x00000000   Number         0  _printf_i.o ABSOLUTE
    ../clib/printf_percent.s                 0x00000000   Number         0  _printf_d.o ABSOLUTE
    ../clib/scanf.c                          0x00000000   Number         0  scanf_hexfp.o ABSOLUTE
    ../clib/scanf.c                          0x00000000   Number         0  scanf_infnan.o ABSOLUTE
    ../clib/scanf.c                          0x00000000   Number         0  scanf_fp.o ABSOLUTE
    ../clib/scanf.c                          0x00000000   Number         0  strtod.o ABSOLUTE
    ../clib/scanf.c                          0x00000000   Number         0  _sgetc.o ABSOLUTE
    ../clib/scanf.c                          0x00000000   Number         0  _chval.o ABSOLUTE
    ../clib/signal.c                         0x00000000   Number         0  defsig_rtmem_formal.o ABSOLUTE
    ../clib/signal.c                         0x00000000   Number         0  defsig_pvfn_inner.o ABSOLUTE
    ../clib/signal.c                         0x00000000   Number         0  defsig_other.o ABSOLUTE
    ../clib/signal.c                         0x00000000   Number         0  defsig_segv_inner.o ABSOLUTE
    ../clib/signal.c                         0x00000000   Number         0  __raise.o ABSOLUTE
    ../clib/signal.c                         0x00000000   Number         0  defsig_cppl_inner.o ABSOLUTE
    ../clib/signal.c                         0x00000000   Number         0  defsig_general.o ABSOLUTE
    ../clib/signal.c                         0x00000000   Number         0  defsig_stak_inner.o ABSOLUTE
    ../clib/signal.c                         0x00000000   Number         0  defsig_rtred_inner.o ABSOLUTE
    ../clib/signal.c                         0x00000000   Number         0  defsig_fpe_inner.o ABSOLUTE
    ../clib/signal.c                         0x00000000   Number         0  defsig_exit.o ABSOLUTE
    ../clib/signal.c                         0x00000000   Number         0  defsig_rtmem_inner.o ABSOLUTE
    ../clib/signal.c                         0x00000000   Number         0  defsig_abrt_inner.o ABSOLUTE
    ../clib/signal.c                         0x00000000   Number         0  defsig_rtmem_outer.o ABSOLUTE
    ../clib/signal.s                         0x00000000   Number         0  defsig.o ABSOLUTE
    ../clib/stdlib.c                         0x00000000   Number         0  exit.o ABSOLUTE
    ../fplib/d2f.s                           0x00000000   Number         0  d2f.o ABSOLUTE
    ../fplib/daddsub.s                       0x00000000   Number         0  daddsub_clz.o ABSOLUTE
    ../fplib/dcheck1.s                       0x00000000   Number         0  dcheck1.o ABSOLUTE
    ../fplib/dcmpi.s                         0x00000000   Number         0  dcmpi.o ABSOLUTE
    ../fplib/ddiv.s                          0x00000000   Number         0  ddiv.o ABSOLUTE
    ../fplib/deqf.s                          0x00000000   Number         0  deqf.o ABSOLUTE
    ../fplib/dfix.s                          0x00000000   Number         0  dfix.o ABSOLUTE
    ../fplib/dflt.s                          0x00000000   Number         0  dflt_clz.o ABSOLUTE
    ../fplib/dleqf.s                         0x00000000   Number         0  dleqf.o ABSOLUTE
    ../fplib/dmul.s                          0x00000000   Number         0  dmul.o ABSOLUTE
    ../fplib/dnaninf.s                       0x00000000   Number         0  dnaninf.o ABSOLUTE
    ../fplib/dretinf.s                       0x00000000   Number         0  dretinf.o ABSOLUTE
    ../fplib/drleqf.s                        0x00000000   Number         0  drleqf.o ABSOLUTE
    ../fplib/f2d.s                           0x00000000   Number         0  f2d.o ABSOLUTE
    ../fplib/faddsub.s                       0x00000000   Number         0  faddsub_clz.o ABSOLUTE
    ../fplib/fcmpi.s                         0x00000000   Number         0  fcmpi.o ABSOLUTE
    ../fplib/fdiv.s                          0x00000000   Number         0  fdiv.o ABSOLUTE
    ../fplib/feqf.s                          0x00000000   Number         0  feqf.o ABSOLUTE
    ../fplib/ffix.s                          0x00000000   Number         0  ffix.o ABSOLUTE
    ../fplib/fflt.s                          0x00000000   Number         0  fflt_clz.o ABSOLUTE
    ../fplib/fleqf.s                         0x00000000   Number         0  fleqf.o ABSOLUTE
    ../fplib/fmul.s                          0x00000000   Number         0  fmul.o ABSOLUTE
    ../fplib/fnaninf.s                       0x00000000   Number         0  fnaninf.o ABSOLUTE
    ../fplib/fpconst.s                       0x00000000   Number         0  fpconst.o ABSOLUTE
    ../fplib/fpinit.s                        0x00000000   Number         0  fpinit.o ABSOLUTE
    ../fplib/fretinf.s                       0x00000000   Number         0  fretinf.o ABSOLUTE
    ../fplib/istatus.s                       0x00000000   Number         0  istatus.o ABSOLUTE
    ../fplib/printf1.s                       0x00000000   Number         0  printf1.o ABSOLUTE
    ../fplib/retnan.s                        0x00000000   Number         0  retnan.o ABSOLUTE
    ../fplib/scalbn.s                        0x00000000   Number         0  scalbn.o ABSOLUTE
    ../fplib/scanf1.s                        0x00000000   Number         0  scanf1.o ABSOLUTE
    ../fplib/scanf2.s                        0x00000000   Number         0  scanf2.o ABSOLUTE
    ../fplib/scanf2a.s                       0x00000000   Number         0  scanf2a.o ABSOLUTE
    ../fplib/scanf2b.s                       0x00000000   Number         0  scanf2b.o ABSOLUTE
    ../fplib/trapv.s                         0x00000000   Number         0  trapv.o ABSOLUTE
    ../fplib/usenofp.s                       0x00000000   Number         0  usenofp.o ABSOLUTE
    ../mathlib/atof.c                        0x00000000   Number         0  atof.o ABSOLUTE
    ../mathlib/cos_i.c                       0x00000000   Number         0  cos_i.o ABSOLUTE
    ../mathlib/dunder.c                      0x00000000   Number         0  dunder.o ABSOLUTE
    ../mathlib/fpclassify.c                  0x00000000   Number         0  fpclassify.o ABSOLUTE
    ../mathlib/frexp.c                       0x00000000   Number         0  frexp.o ABSOLUTE
    ../mathlib/ldexp.c                       0x00000000   Number         0  ldexp_x.o ABSOLUTE
    ../mathlib/ldexp.c                       0x00000000   Number         0  ldexp.o ABSOLUTE
    ../mathlib/narrow.c                      0x00000000   Number         0  narrow.o ABSOLUTE
    ../mathlib/poly.c                        0x00000000   Number         0  poly.o ABSOLUTE
    ../mathlib/qnan.c                        0x00000000   Number         0  qnan.o ABSOLUTE
    ../mathlib/rred.c                        0x00000000   Number         0  rred.o ABSOLUTE
    ../mathlib/sin.c                         0x00000000   Number         0  sin.o ABSOLUTE
    ../mathlib/sin.c                         0x00000000   Number         0  sin_x.o ABSOLUTE
    ../mathlib/sin_i.c                       0x00000000   Number         0  sin_i.o ABSOLUTE
    ../mathlib/sin_i.c                       0x00000000   Number         0  sin_i_x.o ABSOLUTE
    Drive\ADC.c                              0x00000000   Number         0  adc.o ABSOLUTE
    Drive\DataScope_DP.C                     0x00000000   Number         0  datascope_dp.o ABSOLUTE
    Drive\Flash\Flash.c                      0x00000000   Number         0  flash.o ABSOLUTE
    Drive\KEY\src\KEY.c                      0x00000000   Number         0  key.o ABSOLUTE
    Drive\PID.c                              0x00000000   Number         0  pid.o ABSOLUTE
    Drive\RCC\RCC.c                          0x00000000   Number         0  rcc.o ABSOLUTE
    Drive\SDS.c                              0x00000000   Number         0  sds.o ABSOLUTE
    Drive\TIM.c                              0x00000000   Number         0  tim.o ABSOLUTE
    Drive\USART2\src\USART2.c                0x00000000   Number         0  usart2.o ABSOLUTE
    Drive\USART_Function.c                   0x00000000   Number         0  usart_function.o ABSOLUTE
    Drive\delay\delay.c                      0x00000000   Number         0  delay.o ABSOLUTE
    Drive\pwm.c                              0x00000000   Number         0  pwm.o ABSOLUTE
    STM32F10x_StdPeriph_Driver\src\misc.c    0x00000000   Number         0  misc.o ABSOLUTE
    STM32F10x_StdPeriph_Driver\src\stm32f10x_adc.c 0x00000000   Number         0  stm32f10x_adc.o ABSOLUTE
    STM32F10x_StdPeriph_Driver\src\stm32f10x_bkp.c 0x00000000   Number         0  stm32f10x_bkp.o ABSOLUTE
    STM32F10x_StdPeriph_Driver\src\stm32f10x_can.c 0x00000000   Number         0  stm32f10x_can.o ABSOLUTE
    STM32F10x_StdPeriph_Driver\src\stm32f10x_crc.c 0x00000000   Number         0  stm32f10x_crc.o ABSOLUTE
    STM32F10x_StdPeriph_Driver\src\stm32f10x_dac.c 0x00000000   Number         0  stm32f10x_dac.o ABSOLUTE
    STM32F10x_StdPeriph_Driver\src\stm32f10x_dbgmcu.c 0x00000000   Number         0  stm32f10x_dbgmcu.o ABSOLUTE
    STM32F10x_StdPeriph_Driver\src\stm32f10x_dma.c 0x00000000   Number         0  stm32f10x_dma.o ABSOLUTE
    STM32F10x_StdPeriph_Driver\src\stm32f10x_exti.c 0x00000000   Number         0  stm32f10x_exti.o ABSOLUTE
    STM32F10x_StdPeriph_Driver\src\stm32f10x_flash.c 0x00000000   Number         0  stm32f10x_flash.o ABSOLUTE
    STM32F10x_StdPeriph_Driver\src\stm32f10x_fsmc.c 0x00000000   Number         0  stm32f10x_fsmc.o ABSOLUTE
    STM32F10x_StdPeriph_Driver\src\stm32f10x_gpio.c 0x00000000   Number         0  stm32f10x_gpio.o ABSOLUTE
    STM32F10x_StdPeriph_Driver\src\stm32f10x_i2c.c 0x00000000   Number         0  stm32f10x_i2c.o ABSOLUTE
    STM32F10x_StdPeriph_Driver\src\stm32f10x_iwdg.c 0x00000000   Number         0  stm32f10x_iwdg.o ABSOLUTE
    STM32F10x_StdPeriph_Driver\src\stm32f10x_pwr.c 0x00000000   Number         0  stm32f10x_pwr.o ABSOLUTE
    STM32F10x_StdPeriph_Driver\src\stm32f10x_rcc.c 0x00000000   Number         0  stm32f10x_rcc.o ABSOLUTE
    STM32F10x_StdPeriph_Driver\src\stm32f10x_rtc.c 0x00000000   Number         0  stm32f10x_rtc.o ABSOLUTE
    STM32F10x_StdPeriph_Driver\src\stm32f10x_sdio.c 0x00000000   Number         0  stm32f10x_sdio.o ABSOLUTE
    STM32F10x_StdPeriph_Driver\src\stm32f10x_spi.c 0x00000000   Number         0  stm32f10x_spi.o ABSOLUTE
    STM32F10x_StdPeriph_Driver\src\stm32f10x_tim.c 0x00000000   Number         0  stm32f10x_tim.o ABSOLUTE
    STM32F10x_StdPeriph_Driver\src\stm32f10x_usart.c 0x00000000   Number         0  stm32f10x_usart.o ABSOLUTE
    STM32F10x_StdPeriph_Driver\src\stm32f10x_wwdg.c 0x00000000   Number         0  stm32f10x_wwdg.o ABSOLUTE
    cmsis\\core_cm3.c                        0x00000000   Number         0  core_cm3.o ABSOLUTE
    cmsis\core_cm3.c                         0x00000000   Number         0  core_cm3.o ABSOLUTE
    cmsis_boot\arm\startup_stm32f10x_hd.s    0x00000000   Number         0  startup_stm32f10x_hd.o ABSOLUTE
    cmsis_boot\system_stm32f10x.c            0x00000000   Number         0  system_stm32f10x.o ABSOLUTE
    dc.s                                     0x00000000   Number         0  dc.o ABSOLUTE
    main.c                                   0x00000000   Number         0  main.o ABSOLUTE
    stm32f10x_it.c                           0x00000000   Number         0  stm32f10x_it.o ABSOLUTE
    RESET                                    0x08000000   Section      304  startup_stm32f10x_hd.o(RESET)
    !!!main                                  0x08000130   Section        8  __main.o(!!!main)
    !!!scatter                               0x08000138   Section       52  __scatter.o(!!!scatter)
    !!handler_copy                           0x0800016c   Section       26  __scatter_copy.o(!!handler_copy)
    !!handler_zi                             0x08000188   Section       28  __scatter_zi.o(!!handler_zi)
    .ARM.Collect$$_printf_percent$$00000000  0x080001a4   Section        0  _printf_percent.o(.ARM.Collect$$_printf_percent$$00000000)
    .ARM.Collect$$_printf_percent$$00000001  0x080001a4   Section        6  _printf_n.o(.ARM.Collect$$_printf_percent$$00000001)
    .ARM.Collect$$_printf_percent$$00000002  0x080001aa   Section        6  _printf_p.o(.ARM.Collect$$_printf_percent$$00000002)
    .ARM.Collect$$_printf_percent$$00000003  0x080001b0   Section        6  _printf_f.o(.ARM.Collect$$_printf_percent$$00000003)
    .ARM.Collect$$_printf_percent$$00000004  0x080001b6   Section        6  _printf_e.o(.ARM.Collect$$_printf_percent$$00000004)
    .ARM.Collect$$_printf_percent$$00000005  0x080001bc   Section        6  _printf_g.o(.ARM.Collect$$_printf_percent$$00000005)
    .ARM.Collect$$_printf_percent$$00000006  0x080001c2   Section        6  _printf_a.o(.ARM.Collect$$_printf_percent$$00000006)
    .ARM.Collect$$_printf_percent$$00000007  0x080001c8   Section       10  _printf_ll.o(.ARM.Collect$$_printf_percent$$00000007)
    .ARM.Collect$$_printf_percent$$00000008  0x080001d2   Section        6  _printf_i.o(.ARM.Collect$$_printf_percent$$00000008)
    .ARM.Collect$$_printf_percent$$00000009  0x080001d8   Section        6  _printf_d.o(.ARM.Collect$$_printf_percent$$00000009)
    .ARM.Collect$$_printf_percent$$0000000A  0x080001de   Section        6  _printf_u.o(.ARM.Collect$$_printf_percent$$0000000A)
    .ARM.Collect$$_printf_percent$$0000000B  0x080001e4   Section        6  _printf_o.o(.ARM.Collect$$_printf_percent$$0000000B)
    .ARM.Collect$$_printf_percent$$0000000C  0x080001ea   Section        6  _printf_x.o(.ARM.Collect$$_printf_percent$$0000000C)
    .ARM.Collect$$_printf_percent$$0000000D  0x080001f0   Section        6  _printf_lli.o(.ARM.Collect$$_printf_percent$$0000000D)
    .ARM.Collect$$_printf_percent$$0000000E  0x080001f6   Section        6  _printf_lld.o(.ARM.Collect$$_printf_percent$$0000000E)
    .ARM.Collect$$_printf_percent$$0000000F  0x080001fc   Section        6  _printf_llu.o(.ARM.Collect$$_printf_percent$$0000000F)
    .ARM.Collect$$_printf_percent$$00000010  0x08000202   Section        6  _printf_llo.o(.ARM.Collect$$_printf_percent$$00000010)
    .ARM.Collect$$_printf_percent$$00000011  0x08000208   Section        6  _printf_llx.o(.ARM.Collect$$_printf_percent$$00000011)
    .ARM.Collect$$_printf_percent$$00000012  0x0800020e   Section       10  _printf_l.o(.ARM.Collect$$_printf_percent$$00000012)
    .ARM.Collect$$_printf_percent$$00000013  0x08000218   Section        6  _printf_c.o(.ARM.Collect$$_printf_percent$$00000013)
    .ARM.Collect$$_printf_percent$$00000014  0x0800021e   Section        6  _printf_s.o(.ARM.Collect$$_printf_percent$$00000014)
    .ARM.Collect$$_printf_percent$$00000015  0x08000224   Section        6  _printf_lc.o(.ARM.Collect$$_printf_percent$$00000015)
    .ARM.Collect$$_printf_percent$$00000016  0x0800022a   Section        6  _printf_ls.o(.ARM.Collect$$_printf_percent$$00000016)
    .ARM.Collect$$_printf_percent$$00000017  0x08000230   Section        4  _printf_percent_end.o(.ARM.Collect$$_printf_percent$$00000017)
    .ARM.Collect$$libinit$$00000000          0x08000234   Section        2  libinit.o(.ARM.Collect$$libinit$$00000000)
    .ARM.Collect$$libinit$$00000002          0x08000236   Section        0  libinit2.o(.ARM.Collect$$libinit$$00000002)
    .ARM.Collect$$libinit$$00000004          0x08000236   Section        0  libinit2.o(.ARM.Collect$$libinit$$00000004)
    .ARM.Collect$$libinit$$00000005          0x08000236   Section        8  libinit2.o(.ARM.Collect$$libinit$$00000005)
    .ARM.Collect$$libinit$$0000000A          0x0800023e   Section        0  libinit2.o(.ARM.Collect$$libinit$$0000000A)
    .ARM.Collect$$libinit$$0000000C          0x0800023e   Section        0  libinit2.o(.ARM.Collect$$libinit$$0000000C)
    .ARM.Collect$$libinit$$0000000E          0x0800023e   Section        0  libinit2.o(.ARM.Collect$$libinit$$0000000E)
    .ARM.Collect$$libinit$$0000000F          0x0800023e   Section        6  libinit2.o(.ARM.Collect$$libinit$$0000000F)
    .ARM.Collect$$libinit$$00000011          0x08000244   Section        0  libinit2.o(.ARM.Collect$$libinit$$00000011)
    .ARM.Collect$$libinit$$00000012          0x08000244   Section       12  libinit2.o(.ARM.Collect$$libinit$$00000012)
    .ARM.Collect$$libinit$$00000013          0x08000250   Section        0  libinit2.o(.ARM.Collect$$libinit$$00000013)
    .ARM.Collect$$libinit$$00000015          0x08000250   Section        0  libinit2.o(.ARM.Collect$$libinit$$00000015)
    .ARM.Collect$$libinit$$00000016          0x08000250   Section       10  libinit2.o(.ARM.Collect$$libinit$$00000016)
    .ARM.Collect$$libinit$$00000017          0x0800025a   Section        0  libinit2.o(.ARM.Collect$$libinit$$00000017)
    .ARM.Collect$$libinit$$00000019          0x0800025a   Section        0  libinit2.o(.ARM.Collect$$libinit$$00000019)
    .ARM.Collect$$libinit$$0000001B          0x0800025a   Section        0  libinit2.o(.ARM.Collect$$libinit$$0000001B)
    .ARM.Collect$$libinit$$0000001D          0x0800025a   Section        0  libinit2.o(.ARM.Collect$$libinit$$0000001D)
    .ARM.Collect$$libinit$$0000001F          0x0800025a   Section        0  libinit2.o(.ARM.Collect$$libinit$$0000001F)
    .ARM.Collect$$libinit$$00000021          0x0800025a   Section        0  libinit2.o(.ARM.Collect$$libinit$$00000021)
    .ARM.Collect$$libinit$$00000023          0x0800025a   Section        0  libinit2.o(.ARM.Collect$$libinit$$00000023)
    .ARM.Collect$$libinit$$00000025          0x0800025a   Section        0  libinit2.o(.ARM.Collect$$libinit$$00000025)
    .ARM.Collect$$libinit$$0000002C          0x0800025a   Section        0  libinit2.o(.ARM.Collect$$libinit$$0000002C)
    .ARM.Collect$$libinit$$0000002E          0x0800025a   Section        0  libinit2.o(.ARM.Collect$$libinit$$0000002E)
    .ARM.Collect$$libinit$$00000030          0x0800025a   Section        0  libinit2.o(.ARM.Collect$$libinit$$00000030)
    .ARM.Collect$$libinit$$00000032          0x0800025a   Section        0  libinit2.o(.ARM.Collect$$libinit$$00000032)
    .ARM.Collect$$libinit$$00000033          0x0800025a   Section        2  libinit2.o(.ARM.Collect$$libinit$$00000033)
    .ARM.Collect$$libshutdown$$00000000      0x0800025c   Section        2  libshutdown.o(.ARM.Collect$$libshutdown$$00000000)
    .ARM.Collect$$libshutdown$$00000003      0x0800025e   Section        0  libshutdown2.o(.ARM.Collect$$libshutdown$$00000003)
    .ARM.Collect$$libshutdown$$00000006      0x0800025e   Section        0  libshutdown2.o(.ARM.Collect$$libshutdown$$00000006)
    .ARM.Collect$$libshutdown$$00000009      0x0800025e   Section        0  libshutdown2.o(.ARM.Collect$$libshutdown$$00000009)
    .ARM.Collect$$libshutdown$$0000000B      0x0800025e   Section        0  libshutdown2.o(.ARM.Collect$$libshutdown$$0000000B)
    .ARM.Collect$$libshutdown$$0000000E      0x0800025e   Section        0  libshutdown2.o(.ARM.Collect$$libshutdown$$0000000E)
    .ARM.Collect$$libshutdown$$0000000F      0x0800025e   Section        2  libshutdown2.o(.ARM.Collect$$libshutdown$$0000000F)
    .ARM.Collect$$rtentry$$00000000          0x08000260   Section        0  __rtentry.o(.ARM.Collect$$rtentry$$00000000)
    .ARM.Collect$$rtentry$$00000002          0x08000260   Section        0  __rtentry2.o(.ARM.Collect$$rtentry$$00000002)
    .ARM.Collect$$rtentry$$00000004          0x08000260   Section        6  __rtentry4.o(.ARM.Collect$$rtentry$$00000004)
    .ARM.Collect$$rtentry$$00000009          0x08000266   Section        0  __rtentry2.o(.ARM.Collect$$rtentry$$00000009)
    .ARM.Collect$$rtentry$$0000000A          0x08000266   Section        4  __rtentry2.o(.ARM.Collect$$rtentry$$0000000A)
    .ARM.Collect$$rtentry$$0000000C          0x0800026a   Section        0  __rtentry2.o(.ARM.Collect$$rtentry$$0000000C)
    .ARM.Collect$$rtentry$$0000000D          0x0800026a   Section        8  __rtentry2.o(.ARM.Collect$$rtentry$$0000000D)
    .ARM.Collect$$rtexit$$00000000           0x08000272   Section        2  rtexit.o(.ARM.Collect$$rtexit$$00000000)
    .ARM.Collect$$rtexit$$00000002           0x08000274   Section        0  rtexit2.o(.ARM.Collect$$rtexit$$00000002)
    .ARM.Collect$$rtexit$$00000003           0x08000274   Section        4  rtexit2.o(.ARM.Collect$$rtexit$$00000003)
    .ARM.Collect$$rtexit$$00000004           0x08000278   Section        6  rtexit2.o(.ARM.Collect$$rtexit$$00000004)
    .emb_text                                0x08000280   Section        0  maybetermalloc1.o(.emb_text)
    .text                                    0x08000280   Section       64  startup_stm32f10x_hd.o(.text)
    .text                                    0x080002c0   Section        0  h1_alloc.o(.text)
    .text                                    0x08000320   Section        0  c89vsnprintf.o(.text)
    .text                                    0x08000354   Section       78  rt_memclr_w.o(.text)
    .text                                    0x080003a4   Section      128  strcmpv7m.o(.text)
    .text                                    0x08000424   Section        0  heapauxi.o(.text)
    .text                                    0x0800042c   Section        8  rt_heap_descriptor_intlibspace.o(.text)
    .text                                    0x08000434   Section        0  hguard.o(.text)
    .text                                    0x08000438   Section        0  init_alloc.o(.text)
    .text                                    0x080004c2   Section        0  h1_init.o(.text)
    .text                                    0x080004d0   Section        0  h1_free.o(.text)
    .text                                    0x0800051e   Section        0  _rserrno.o(.text)
    .text                                    0x08000534   Section        0  _printf_pad.o(.text)
    .text                                    0x08000582   Section        0  _printf_truncate.o(.text)
    .text                                    0x080005a6   Section        0  _printf_str.o(.text)
    .text                                    0x080005f8   Section        0  _printf_dec.o(.text)
    .text                                    0x08000670   Section        0  _printf_charcount.o(.text)
    .text                                    0x08000698   Section        0  _printf_char_common.o(.text)
    _printf_input_char                       0x08000699   Thumb Code    10  _printf_char_common.o(.text)
    .text                                    0x080006c8   Section        0  _sputc.o(.text)
    .text                                    0x080006d2   Section        0  _snputc.o(.text)
    .text                                    0x080006e4   Section        0  _printf_wctomb.o(.text)
    .text                                    0x080007a0   Section        0  _printf_longlong_dec.o(.text)
    .text                                    0x0800081c   Section        0  _printf_oct_int_ll.o(.text)
    _printf_longlong_oct_internal            0x0800081d   Thumb Code     0  _printf_oct_int_ll.o(.text)
    .text                                    0x0800088c   Section        0  _printf_hex_int_ll_ptr.o(.text)
    _printf_hex_common                       0x0800088d   Thumb Code     0  _printf_hex_int_ll_ptr.o(.text)
    .text                                    0x08000920   Section        0  __printf_flags_ss_wp.o(.text)
    .text                                    0x08000aa8   Section        0  strtod.o(.text)
    _local_sscanf                            0x08000aa9   Thumb Code    60  strtod.o(.text)
    .text                                    0x08000b48   Section        8  libspace.o(.text)
    .text                                    0x08000b50   Section        8  rt_errno_addr_intlibspace.o(.text)
    .text                                    0x08000b58   Section        0  h1_extend.o(.text)
    .text                                    0x08000b8c   Section      138  lludiv10.o(.text)
    .text                                    0x08000c16   Section        0  isspace.o(.text)
    .text                                    0x08000c28   Section        0  _printf_intcommon.o(.text)
    .text                                    0x08000cda   Section        0  _printf_fp_dec.o(.text)
    _fp_digits                               0x08000cdd   Thumb Code   428  _printf_fp_dec.o(.text)
    .text                                    0x080010f4   Section        0  _printf_char.o(.text)
    .text                                    0x08001120   Section        0  _printf_wchar.o(.text)
    .text                                    0x0800114c   Section        0  _sgetc.o(.text)
    .text                                    0x0800118c   Section        0  _wcrtomb.o(.text)
    .text                                    0x080011cc   Section        0  defsig_rtmem_outer.o(.text)
    .text                                    0x080011da   Section        2  use_no_semi.o(.text)
    .text                                    0x080011dc   Section        0  indicate_semi.o(.text)
    .text                                    0x080011dc   Section       74  sys_stackheap_outer.o(.text)
    .text                                    0x08001228   Section       16  rt_ctype_table.o(.text)
    .text                                    0x08001238   Section        8  rt_locale_intlibspace.o(.text)
    .text                                    0x08001240   Section        0  _printf_fp_infnan.o(.text)
    .text                                    0x080012c0   Section        0  scanf_fp.o(.text)
    _fp_value                                0x080012c1   Thumb Code   508  scanf_fp.o(.text)
    .text                                    0x08001764   Section        0  bigflt0.o(.text)
    .text                                    0x08001840   Section        0  exit.o(.text)
    .text                                    0x0800184c   Section        0  defsig_exit.o(.text)
    .text                                    0x08001858   Section        0  defsig_rtmem_inner.o(.text)
    .text                                    0x080018a8   Section        0  sys_exit.o(.text)
    .text                                    0x080018b4   Section        0  defsig_general.o(.text)
    .text                                    0x080018e6   Section        0  sys_wrch.o(.text)
    .text                                    0x080018f4   Section        0  scanf_hexfp.o(.text)
    .text                                    0x08001c0c   Section        0  scanf_infnan.o(.text)
    .text                                    0x08001d40   Section       38  llshl.o(.text)
    .text                                    0x08001d66   Section        0  _chval.o(.text)
    CL$$btod_d2e                             0x08001d82   Section       62  btod.o(CL$$btod_d2e)
    CL$$btod_d2e_denorm_low                  0x08001dc0   Section       70  btod.o(CL$$btod_d2e_denorm_low)
    CL$$btod_d2e_norm_op1                    0x08001e06   Section       96  btod.o(CL$$btod_d2e_norm_op1)
    CL$$btod_div_common                      0x08001e66   Section      824  btod.o(CL$$btod_div_common)
    CL$$btod_e2d                             0x080021a0   Section       84  btod.o(CL$$btod_e2d)
    CL$$btod_e2e                             0x080021f4   Section      198  btod.o(CL$$btod_e2e)
    CL$$btod_ediv                            0x080022ba   Section       40  btod.o(CL$$btod_ediv)
    CL$$btod_edivd                           0x080022e2   Section       40  btod.o(CL$$btod_edivd)
    CL$$btod_emul                            0x0800230a   Section       40  btod.o(CL$$btod_emul)
    CL$$btod_emuld                           0x08002332   Section       40  btod.o(CL$$btod_emuld)
    CL$$btod_mult_common                     0x0800235a   Section      580  btod.o(CL$$btod_mult_common)
    i.ADC1_2_IRQHandler                      0x0800259e   Section        0  adc.o(i.ADC1_2_IRQHandler)
    i.DataScope_Get_Channel_Data             0x080025a0   Section        0  datascope_dp.o(i.DataScope_Get_Channel_Data)
    i.FLASH_PrefetchBufferCmd                0x08002644   Section        0  stm32f10x_flash.o(i.FLASH_PrefetchBufferCmd)
    i.FLASH_SetLatency                       0x08002660   Section        0  stm32f10x_flash.o(i.FLASH_SetLatency)
    i.Float2Byte                             0x08002678   Section        0  datascope_dp.o(i.Float2Byte)
    i.GPIO_Init                              0x08002694   Section        0  stm32f10x_gpio.o(i.GPIO_Init)
    i.GPIO_PinRemapConfig                    0x080027ac   Section        0  stm32f10x_gpio.o(i.GPIO_PinRemapConfig)
    i.KEY_Init                               0x0800283c   Section        0  key.o(i.KEY_Init)
    i.Motor1                                 0x08002864   Section        0  pwm.o(i.Motor1)
    i.Motor2                                 0x0800288c   Section        0  pwm.o(i.Motor2)
    i.NVIC_Config                            0x080028b4   Section        0  main.o(i.NVIC_Config)
    i.NVIC_Init                              0x080028fc   Section        0  misc.o(i.NVIC_Init)
    i.NVIC_PriorityGroupConfig               0x0800296c   Section        0  misc.o(i.NVIC_PriorityGroupConfig)
    i.PWM_Init                               0x08002980   Section        0  pwm.o(i.PWM_Init)
    i.RCC_APB1PeriphClockCmd                 0x08002a70   Section        0  stm32f10x_rcc.o(i.RCC_APB1PeriphClockCmd)
    i.RCC_APB1PeriphResetCmd                 0x08002a90   Section        0  stm32f10x_rcc.o(i.RCC_APB1PeriphResetCmd)
    i.RCC_APB2PeriphClockCmd                 0x08002ab0   Section        0  stm32f10x_rcc.o(i.RCC_APB2PeriphClockCmd)
    i.RCC_APB2PeriphResetCmd                 0x08002ad0   Section        0  stm32f10x_rcc.o(i.RCC_APB2PeriphResetCmd)
    i.RCC_DeInit                             0x08002af0   Section        0  stm32f10x_rcc.o(i.RCC_DeInit)
    i.RCC_GetClocksFreq                      0x08002b3c   Section        0  stm32f10x_rcc.o(i.RCC_GetClocksFreq)
    i.RCC_GetFlagStatus                      0x08002c10   Section        0  stm32f10x_rcc.o(i.RCC_GetFlagStatus)
    i.RCC_GetSYSCLKSource                    0x08002c4c   Section        0  stm32f10x_rcc.o(i.RCC_GetSYSCLKSource)
    i.RCC_HCLKConfig                         0x08002c5c   Section        0  stm32f10x_rcc.o(i.RCC_HCLKConfig)
    i.RCC_HSEConfig                          0x08002c74   Section        0  stm32f10x_rcc.o(i.RCC_HSEConfig)
    i.RCC_PCLK1Config                        0x08002cc0   Section        0  stm32f10x_rcc.o(i.RCC_PCLK1Config)
    i.RCC_PCLK2Config                        0x08002cd8   Section        0  stm32f10x_rcc.o(i.RCC_PCLK2Config)
    i.RCC_PLLCmd                             0x08002cf0   Section        0  stm32f10x_rcc.o(i.RCC_PLLCmd)
    i.RCC_PLLConfig                          0x08002cfc   Section        0  stm32f10x_rcc.o(i.RCC_PLLConfig)
    i.RCC_SYSCLKConfig                       0x08002d18   Section        0  stm32f10x_rcc.o(i.RCC_SYSCLKConfig)
    i.RCC_WaitForHSEStartUp                  0x08002d30   Section        0  stm32f10x_rcc.o(i.RCC_WaitForHSEStartUp)
    i.Rcc_init                               0x08002d68   Section        0  rcc.o(i.Rcc_init)
    i.SetSysClock                            0x08002d88   Section        0  system_stm32f10x.o(i.SetSysClock)
    SetSysClock                              0x08002d89   Thumb Code     8  system_stm32f10x.o(i.SetSysClock)
    i.SetSysClockTo72                        0x08002d90   Section        0  system_stm32f10x.o(i.SetSysClockTo72)
    SetSysClockTo72                          0x08002d91   Thumb Code   214  system_stm32f10x.o(i.SetSysClockTo72)
    i.Speed_PIDAdjust                        0x08002e70   Section        0  pid.o(i.Speed_PIDAdjust)
    i.Speed_PIDInit                          0x08002f20   Section        0  pid.o(i.Speed_PIDInit)
    i.SysTick_CLKSourceConfig                0x08002f44   Section        0  misc.o(i.SysTick_CLKSourceConfig)
    i.SystemInit                             0x08002f6c   Section        0  system_stm32f10x.o(i.SystemInit)
    i.System_clk_set                         0x08002fcc   Section        0  rcc.o(i.System_clk_set)
    i.TI1_Config                             0x08003038   Section        0  stm32f10x_tim.o(i.TI1_Config)
    TI1_Config                               0x08003039   Thumb Code   108  stm32f10x_tim.o(i.TI1_Config)
    i.TI2_Config                             0x080030b8   Section        0  stm32f10x_tim.o(i.TI2_Config)
    TI2_Config                               0x080030b9   Thumb Code   130  stm32f10x_tim.o(i.TI2_Config)
    i.TI3_Config                             0x08003150   Section        0  stm32f10x_tim.o(i.TI3_Config)
    TI3_Config                               0x08003151   Thumb Code   122  stm32f10x_tim.o(i.TI3_Config)
    i.TI4_Config                             0x080031e0   Section        0  stm32f10x_tim.o(i.TI4_Config)
    TI4_Config                               0x080031e1   Thumb Code   130  stm32f10x_tim.o(i.TI4_Config)
    i.TIM1_init                              0x08003278   Section        0  tim.o(i.TIM1_init)
    i.TIM2_init                              0x0800331c   Section        0  tim.o(i.TIM2_init)
    i.TIM4_IRQHandler                        0x080033c8   Section        0  tim.o(i.TIM4_IRQHandler)
    i.TIM4_Init                              0x08003534   Section        0  tim.o(i.TIM4_Init)
    i.TIM_ARRPreloadConfig                   0x0800356c   Section        0  stm32f10x_tim.o(i.TIM_ARRPreloadConfig)
    i.TIM_ClearFlag                          0x08003584   Section        0  stm32f10x_tim.o(i.TIM_ClearFlag)
    i.TIM_ClearITPendingBit                  0x0800358a   Section        0  stm32f10x_tim.o(i.TIM_ClearITPendingBit)
    i.TIM_Cmd                                0x08003590   Section        0  stm32f10x_tim.o(i.TIM_Cmd)
    i.TIM_DeInit                             0x080035a8   Section        0  stm32f10x_tim.o(i.TIM_DeInit)
    i.TIM_EncoderInterfaceConfig             0x08003790   Section        0  stm32f10x_tim.o(i.TIM_EncoderInterfaceConfig)
    i.TIM_GetCounter                         0x080037d2   Section        0  stm32f10x_tim.o(i.TIM_GetCounter)
    i.TIM_GetITStatus                        0x080037d8   Section        0  stm32f10x_tim.o(i.TIM_GetITStatus)
    i.TIM_ICInit                             0x080037fc   Section        0  stm32f10x_tim.o(i.TIM_ICInit)
    i.TIM_ICStructInit                       0x080038a8   Section        0  stm32f10x_tim.o(i.TIM_ICStructInit)
    i.TIM_ITConfig                           0x080038ba   Section        0  stm32f10x_tim.o(i.TIM_ITConfig)
    i.TIM_OC1Init                            0x080038cc   Section        0  stm32f10x_tim.o(i.TIM_OC1Init)
    i.TIM_OC1PreloadConfig                   0x08003964   Section        0  stm32f10x_tim.o(i.TIM_OC1PreloadConfig)
    i.TIM_OC2Init                            0x08003978   Section        0  stm32f10x_tim.o(i.TIM_OC2Init)
    i.TIM_OC2PreloadConfig                   0x08003a1c   Section        0  stm32f10x_tim.o(i.TIM_OC2PreloadConfig)
    i.TIM_OC3Init                            0x08003a38   Section        0  stm32f10x_tim.o(i.TIM_OC3Init)
    i.TIM_OC3PreloadConfig                   0x08003ad8   Section        0  stm32f10x_tim.o(i.TIM_OC3PreloadConfig)
    i.TIM_OC4Init                            0x08003aec   Section        0  stm32f10x_tim.o(i.TIM_OC4Init)
    i.TIM_OC4PreloadConfig                   0x08003b68   Section        0  stm32f10x_tim.o(i.TIM_OC4PreloadConfig)
    i.TIM_SetIC1Prescaler                    0x08003b82   Section        0  stm32f10x_tim.o(i.TIM_SetIC1Prescaler)
    i.TIM_SetIC2Prescaler                    0x08003b94   Section        0  stm32f10x_tim.o(i.TIM_SetIC2Prescaler)
    i.TIM_SetIC3Prescaler                    0x08003bae   Section        0  stm32f10x_tim.o(i.TIM_SetIC3Prescaler)
    i.TIM_SetIC4Prescaler                    0x08003bc0   Section        0  stm32f10x_tim.o(i.TIM_SetIC4Prescaler)
    i.TIM_TimeBaseInit                       0x08003bdc   Section        0  stm32f10x_tim.o(i.TIM_TimeBaseInit)
    i.TIM_TimeBaseStructInit                 0x08003c80   Section        0  stm32f10x_tim.o(i.TIM_TimeBaseStructInit)
    i.USART1_Config                          0x08003c94   Section        0  usart2.o(i.USART1_Config)
    i.USART1_IRQHandler                      0x08003d58   Section        0  usart2.o(i.USART1_IRQHandler)
    i.USART_ClearFlag                        0x08003ef4   Section        0  stm32f10x_usart.o(i.USART_ClearFlag)
    i.USART_ClearITPendingBit                0x08003f06   Section        0  stm32f10x_usart.o(i.USART_ClearITPendingBit)
    i.USART_ClockInit                        0x08003f24   Section        0  stm32f10x_usart.o(i.USART_ClockInit)
    i.USART_Cmd                              0x08003f46   Section        0  stm32f10x_usart.o(i.USART_Cmd)
    i.USART_GetFlagStatus                    0x08003f5e   Section        0  stm32f10x_usart.o(i.USART_GetFlagStatus)
    i.USART_GetITStatus                      0x08003f78   Section        0  stm32f10x_usart.o(i.USART_GetITStatus)
    i.USART_ITConfig                         0x08003fcc   Section        0  stm32f10x_usart.o(i.USART_ITConfig)
    i.USART_Init                             0x08004018   Section        0  stm32f10x_usart.o(i.USART_Init)
    i.USART_ReceiveData                      0x080040f0   Section        0  stm32f10x_usart.o(i.USART_ReceiveData)
    i.USART_SendData                         0x080040fa   Section        0  stm32f10x_usart.o(i.USART_SendData)
    i.__ARM_fpclassify                       0x08004102   Section        0  fpclassify.o(i.__ARM_fpclassify)
    i.__ieee754_rem_pio2                     0x0800412c   Section        0  rred.o(i.__ieee754_rem_pio2)
    i.__kernel_cos                           0x080044b4   Section        0  cos_i.o(i.__kernel_cos)
    i.__kernel_poly                          0x080045b0   Section        0  poly.o(i.__kernel_poly)
    i.__kernel_sin                           0x0800465c   Section        0  sin_i.o(i.__kernel_sin)
    i.__mathlib_dbl_infnan                   0x08004748   Section        0  dunder.o(i.__mathlib_dbl_infnan)
    i.__mathlib_dbl_invalid                  0x0800474e   Section        0  dunder.o(i.__mathlib_dbl_invalid)
    i.__mathlib_dbl_overflow                 0x0800475a   Section        0  dunder.o(i.__mathlib_dbl_overflow)
    i.__mathlib_dbl_underflow                0x08004768   Section        0  dunder.o(i.__mathlib_dbl_underflow)
    i.__mathlib_narrow                       0x08004778   Section        0  narrow.o(i.__mathlib_narrow)
    i.__mathlib_tofloat                      0x08004788   Section        0  narrow.o(i.__mathlib_tofloat)
    i.__support_ldexp                        0x08004810   Section        0  ldexp.o(i.__support_ldexp)
    i._is_digit                              0x08004826   Section        0  __printf_wp.o(i._is_digit)
    i.atof                                   0x08004834   Section        0  atof.o(i.atof)
    i.cmd_exec                               0x08004860   Section        0  usart2.o(i.cmd_exec)
    i.cmd_parse                              0x080048c0   Section        0  usart2.o(i.cmd_parse)
    i.delay_init                             0x08004948   Section        0  delay.o(i.delay_init)
    i.frexp                                  0x0800498c   Section        0  frexp.o(i.frexp)
    i.ldexp                                  0x080049e4   Section        0  ldexp.o(i.ldexp)
    i.main                                   0x08004a58   Section        0  main.o(i.main)
    i.set_speed_p                            0x08004aa0   Section        0  usart_function.o(i.set_speed_p)
    i.sin                                    0x08004afc   Section        0  sin.o(i.sin)
    i.uprintf                                0x08004b9c   Section        0  usart2.o(i.uprintf)
    locale$$code                             0x08004c28   Section       44  lc_numeric_c.o(locale$$code)
    locale$$code                             0x08004c54   Section       44  lc_ctype_c.o(locale$$code)
    x$fpl$d2f                                0x08004c80   Section       98  d2f.o(x$fpl$d2f)
    x$fpl$dadd                               0x08004ce4   Section      336  daddsub_clz.o(x$fpl$dadd)
    _dadd1                                   0x08004cf5   Thumb Code     0  daddsub_clz.o(x$fpl$dadd)
    x$fpl$dcheck1                            0x08004e34   Section       16  dcheck1.o(x$fpl$dcheck1)
    x$fpl$dcmpinf                            0x08004e44   Section       24  dcmpi.o(x$fpl$dcmpinf)
    x$fpl$ddiv                               0x08004e5c   Section      688  ddiv.o(x$fpl$ddiv)
    ddiv_entry                               0x08004e63   Thumb Code     0  ddiv.o(x$fpl$ddiv)
    x$fpl$deqf                               0x0800510c   Section      120  deqf.o(x$fpl$deqf)
    x$fpl$dfix                               0x08005184   Section       94  dfix.o(x$fpl$dfix)
    x$fpl$dflt                               0x080051e2   Section       46  dflt_clz.o(x$fpl$dflt)
    x$fpl$dfltu                              0x08005210   Section       38  dflt_clz.o(x$fpl$dfltu)
    x$fpl$dleqf                              0x08005238   Section      120  dleqf.o(x$fpl$dleqf)
    x$fpl$dmul                               0x080052b0   Section      340  dmul.o(x$fpl$dmul)
    x$fpl$dnaninf                            0x08005404   Section      156  dnaninf.o(x$fpl$dnaninf)
    x$fpl$dretinf                            0x080054a0   Section       12  dretinf.o(x$fpl$dretinf)
    x$fpl$drleqf                             0x080054ac   Section      108  drleqf.o(x$fpl$drleqf)
    x$fpl$drsb                               0x08005518   Section       22  daddsub_clz.o(x$fpl$drsb)
    x$fpl$dsub                               0x08005530   Section      468  daddsub_clz.o(x$fpl$dsub)
    _dsub1                                   0x08005541   Thumb Code     0  daddsub_clz.o(x$fpl$dsub)
    x$fpl$f2d                                0x08005704   Section       86  f2d.o(x$fpl$f2d)
    x$fpl$fadd                               0x0800575c   Section      196  faddsub_clz.o(x$fpl$fadd)
    _fadd1                                   0x0800576b   Thumb Code     0  faddsub_clz.o(x$fpl$fadd)
    x$fpl$fcmpinf                            0x08005820   Section       24  fcmpi.o(x$fpl$fcmpinf)
    x$fpl$fdiv                               0x08005838   Section      388  fdiv.o(x$fpl$fdiv)
    _fdiv1                                   0x08005839   Thumb Code     0  fdiv.o(x$fpl$fdiv)
    x$fpl$feqf                               0x080059bc   Section      104  feqf.o(x$fpl$feqf)
    x$fpl$ffix                               0x08005a24   Section       54  ffix.o(x$fpl$ffix)
    x$fpl$fflt                               0x08005a5c   Section       48  fflt_clz.o(x$fpl$fflt)
    x$fpl$fleqf                              0x08005a8c   Section      104  fleqf.o(x$fpl$fleqf)
    x$fpl$fmul                               0x08005af4   Section      258  fmul.o(x$fpl$fmul)
    x$fpl$fnaninf                            0x08005bf6   Section      140  fnaninf.o(x$fpl$fnaninf)
    x$fpl$fretinf                            0x08005c82   Section       10  fretinf.o(x$fpl$fretinf)
    x$fpl$fsub                               0x08005c8c   Section      234  faddsub_clz.o(x$fpl$fsub)
    _fsub1                                   0x08005c9b   Thumb Code     0  faddsub_clz.o(x$fpl$fsub)
    x$fpl$printf1                            0x08005d76   Section        4  printf1.o(x$fpl$printf1)
    x$fpl$retnan                             0x08005d7a   Section      100  retnan.o(x$fpl$retnan)
    x$fpl$scalbn                             0x08005dde   Section       92  scalbn.o(x$fpl$scalbn)
    x$fpl$scanf1                             0x08005e3a   Section        4  scanf1.o(x$fpl$scanf1)
    x$fpl$scanf2                             0x08005e3e   Section        8  scanf2.o(x$fpl$scanf2)
    x$fpl$trapveneer                         0x08005e46   Section       48  trapv.o(x$fpl$trapveneer)
    x$fpl$usenofp                            0x08005e76   Section        0  usenofp.o(x$fpl$usenofp)
    .constdata                               0x08005e78   Section        8  _printf_wctomb.o(.constdata)
    initial_mbstate                          0x08005e78   Data           8  _printf_wctomb.o(.constdata)
    .constdata                               0x08005e80   Section       40  _printf_hex_int_ll_ptr.o(.constdata)
    uc_hextab                                0x08005e80   Data          20  _printf_hex_int_ll_ptr.o(.constdata)
    lc_hextab                                0x08005e94   Data          20  _printf_hex_int_ll_ptr.o(.constdata)
    .constdata                               0x08005ea8   Section       17  __printf_flags_ss_wp.o(.constdata)
    maptable                                 0x08005ea8   Data          17  __printf_flags_ss_wp.o(.constdata)
    .constdata                               0x08005ec0   Section       48  cos_i.o(.constdata)
    C                                        0x08005ec0   Data          48  cos_i.o(.constdata)
    .constdata                               0x08005ef0   Section      200  rred.o(.constdata)
    pio2s                                    0x08005ef0   Data          48  rred.o(.constdata)
    twooverpi                                0x08005f20   Data         152  rred.o(.constdata)
    .constdata                               0x08005fb8   Section       40  sin_i.o(.constdata)
    S                                        0x08005fb8   Data          40  sin_i.o(.constdata)
    .constdata                               0x08005fe0   Section      148  bigflt0.o(.constdata)
    tenpwrs_x                                0x08005fe0   Data          60  bigflt0.o(.constdata)
    tenpwrs_i                                0x0800601c   Data          64  bigflt0.o(.constdata)
    c$$dinf                                  0x08006094   Section        8  fpconst.o(c$$dinf)
    locale$$data                             0x0800609c   Section       28  lc_numeric_c.o(locale$$data)
    __lcnum_c_name                           0x080060a0   Data           2  lc_numeric_c.o(locale$$data)
    __lcnum_c_start                          0x080060a8   Data           0  lc_numeric_c.o(locale$$data)
    __lcnum_c_point                          0x080060b4   Data           0  lc_numeric_c.o(locale$$data)
    __lcnum_c_thousands                      0x080060b6   Data           0  lc_numeric_c.o(locale$$data)
    __lcnum_c_grouping                       0x080060b7   Data           0  lc_numeric_c.o(locale$$data)
    locale$$data                             0x080060b8   Section      272  lc_ctype_c.o(locale$$data)
    __lcnum_c_end                            0x080060b8   Data           0  lc_numeric_c.o(locale$$data)
    __lcctype_c_name                         0x080060bc   Data           2  lc_ctype_c.o(locale$$data)
    __lcctype_c_start                        0x080060c4   Data           0  lc_ctype_c.o(locale$$data)
    __lcctype_c_end                          0x080061c8   Data           0  lc_ctype_c.o(locale$$data)
    .data                                    0x20000000   Section       20  system_stm32f10x.o(.data)
    .data                                    0x20000014   Section       20  stm32f10x_rcc.o(.data)
    APBAHBPrescTable                         0x20000014   Data          16  stm32f10x_rcc.o(.data)
    ADCPrescTable                            0x20000024   Data           4  stm32f10x_rcc.o(.data)
    .data                                    0x20000028   Section        8  key.o(.data)
    .data                                    0x20000030   Section       60  usart2.o(.data)
    cmd_tbl                                  0x20000034   Data          48  usart2.o(.data)
    cmd_line_index                           0x20000064   Data           4  usart2.o(.data)
    cmd_line_length                          0x20000068   Data           4  usart2.o(.data)
    .data                                    0x2000006c   Section       24  tim.o(.data)
    Fang_Flag                                0x2000007c   Data           4  tim.o(.data)
    Zheng_Flag                               0x20000080   Data           4  tim.o(.data)
    .data                                    0x20000084   Section        4  delay.o(.data)
    fac_us                                   0x20000084   Data           1  delay.o(.data)
    fac_ms                                   0x20000086   Data           2  delay.o(.data)
    .bss                                     0x20000088   Section       64  main.o(.bss)
    .bss                                     0x200000c8   Section      248  usart2.o(.bss)
    cmd_line                                 0x200000c8   Data          33  usart2.o(.bss)
    cmd_argv                                 0x200000ec   Data          12  usart2.o(.bss)
    .bss                                     0x200001c0   Section       42  datascope_dp.o(.bss)
    .bss                                     0x200001ec   Section       96  libspace.o(.bss)
    HEAP                                     0x20000250   Section      512  startup_stm32f10x_hd.o(HEAP)
    Heap_Mem                                 0x20000250   Data         512  startup_stm32f10x_hd.o(HEAP)
    STACK                                    0x20000450   Section     1024  startup_stm32f10x_hd.o(STACK)
    Stack_Mem                                0x20000450   Data        1024  startup_stm32f10x_hd.o(STACK)
    __initial_sp                             0x20000850   Data           0  startup_stm32f10x_hd.o(STACK)

    Global Symbols

    Symbol Name                              Value     Ov Type        Size  Object(Section)

    BuildAttributes$$THM_ISAv4$P$D$K$B$S$PE$A:L22UL41UL21$X:L11$S22US41US21$IEEE1$IW$USESV6$~STKCKD$USESV7$~SHL$OTIME$ROPI$IEEEX$EBA8$UX$STANDARDLIB$REQ8$PRES8$EABIv2 0x00000000   Number         0  anon$$obj.o ABSOLUTE
    __ARM_use_no_argv                        0x00000000   Number         0  main.o ABSOLUTE
    _printf_flags                            0x00000000   Number         0  printf_stubs.o ABSOLUTE
    _printf_return_value                     0x00000000   Number         0  printf_stubs.o ABSOLUTE
    _printf_sizespec                         0x00000000   Number         0  printf_stubs.o ABSOLUTE
    _printf_widthprec                        0x00000000   Number         0  printf_stubs.o ABSOLUTE
    __ARM_exceptions_init                     - Undefined Weak Reference
    __alloca_initialize                       - Undefined Weak Reference
    __arm_preinit_                            - Undefined Weak Reference
    __cpp_initialize__aeabi_                  - Undefined Weak Reference
    __cxa_finalize                            - Undefined Weak Reference
    __sigvec_lookup                           - Undefined Weak Reference
    __user_heap_extent                        - Undefined Weak Reference
    _atexit_init                              - Undefined Weak Reference
    _call_atexit_fns                          - Undefined Weak Reference
    _clock_init                               - Undefined Weak Reference
    _fp_trap_init                             - Undefined Weak Reference
    _fp_trap_shutdown                         - Undefined Weak Reference
    _get_lc_collate                           - Undefined Weak Reference
    _get_lc_monetary                          - Undefined Weak Reference
    _get_lc_time                              - Undefined Weak Reference
    _getenv_init                              - Undefined Weak Reference
    _handle_redirection                       - Undefined Weak Reference
    _initio                                   - Undefined Weak Reference
    _mutex_acquire                            - Undefined Weak Reference
    _mutex_free                               - Undefined Weak Reference
    _mutex_release                            - Undefined Weak Reference
    _printf_fp_hex                            - Undefined Weak Reference
    _printf_mbtowc                            - Undefined Weak Reference
    _printf_wc                                - Undefined Weak Reference
    _rand_init                                - Undefined Weak Reference
    _signal_finish                            - Undefined Weak Reference
    _signal_init                              - Undefined Weak Reference
    _terminateio                              - Undefined Weak Reference
    __Vectors_Size                           0x00000130   Number         0  startup_stm32f10x_hd.o ABSOLUTE
    __Vectors                                0x08000000   Data           4  startup_stm32f10x_hd.o(RESET)
    __Vectors_End                            0x08000130   Data           0  startup_stm32f10x_hd.o(RESET)
    __main                                   0x08000131   Thumb Code     8  __main.o(!!!main)
    __scatterload                            0x08000139   Thumb Code     0  __scatter.o(!!!scatter)
    __scatterload_rt2                        0x08000139   Thumb Code    44  __scatter.o(!!!scatter)
    __scatterload_rt2_thumb_only             0x08000139   Thumb Code     0  __scatter.o(!!!scatter)
    __scatterload_null                       0x08000147   Thumb Code     0  __scatter.o(!!!scatter)
    __scatterload_copy                       0x0800016d   Thumb Code    26  __scatter_copy.o(!!handler_copy)
    __scatterload_zeroinit                   0x08000189   Thumb Code    28  __scatter_zi.o(!!handler_zi)
    _printf_n                                0x080001a5   Thumb Code     0  _printf_n.o(.ARM.Collect$$_printf_percent$$00000001)
    _printf_percent                          0x080001a5   Thumb Code     0  _printf_percent.o(.ARM.Collect$$_printf_percent$$00000000)
    _printf_p                                0x080001ab   Thumb Code     0  _printf_p.o(.ARM.Collect$$_printf_percent$$00000002)
    _printf_f                                0x080001b1   Thumb Code     0  _printf_f.o(.ARM.Collect$$_printf_percent$$00000003)
    _printf_e                                0x080001b7   Thumb Code     0  _printf_e.o(.ARM.Collect$$_printf_percent$$00000004)
    _printf_g                                0x080001bd   Thumb Code     0  _printf_g.o(.ARM.Collect$$_printf_percent$$00000005)
    _printf_a                                0x080001c3   Thumb Code     0  _printf_a.o(.ARM.Collect$$_printf_percent$$00000006)
    _printf_ll                               0x080001c9   Thumb Code     0  _printf_ll.o(.ARM.Collect$$_printf_percent$$00000007)
    _printf_i                                0x080001d3   Thumb Code     0  _printf_i.o(.ARM.Collect$$_printf_percent$$00000008)
    _printf_d                                0x080001d9   Thumb Code     0  _printf_d.o(.ARM.Collect$$_printf_percent$$00000009)
    _printf_u                                0x080001df   Thumb Code     0  _printf_u.o(.ARM.Collect$$_printf_percent$$0000000A)
    _printf_o                                0x080001e5   Thumb Code     0  _printf_o.o(.ARM.Collect$$_printf_percent$$0000000B)
    _printf_x                                0x080001eb   Thumb Code     0  _printf_x.o(.ARM.Collect$$_printf_percent$$0000000C)
    _printf_lli                              0x080001f1   Thumb Code     0  _printf_lli.o(.ARM.Collect$$_printf_percent$$0000000D)
    _printf_lld                              0x080001f7   Thumb Code     0  _printf_lld.o(.ARM.Collect$$_printf_percent$$0000000E)
    _printf_llu                              0x080001fd   Thumb Code     0  _printf_llu.o(.ARM.Collect$$_printf_percent$$0000000F)
    _printf_llo                              0x08000203   Thumb Code     0  _printf_llo.o(.ARM.Collect$$_printf_percent$$00000010)
    _printf_llx                              0x08000209   Thumb Code     0  _printf_llx.o(.ARM.Collect$$_printf_percent$$00000011)
    _printf_l                                0x0800020f   Thumb Code     0  _printf_l.o(.ARM.Collect$$_printf_percent$$00000012)
    _printf_c                                0x08000219   Thumb Code     0  _printf_c.o(.ARM.Collect$$_printf_percent$$00000013)
    _printf_s                                0x0800021f   Thumb Code     0  _printf_s.o(.ARM.Collect$$_printf_percent$$00000014)
    _printf_lc                               0x08000225   Thumb Code     0  _printf_lc.o(.ARM.Collect$$_printf_percent$$00000015)
    _printf_ls                               0x0800022b   Thumb Code     0  _printf_ls.o(.ARM.Collect$$_printf_percent$$00000016)
    _printf_percent_end                      0x08000231   Thumb Code     0  _printf_percent_end.o(.ARM.Collect$$_printf_percent$$00000017)
    __rt_lib_init                            0x08000235   Thumb Code     0  libinit.o(.ARM.Collect$$libinit$$00000000)
    __rt_lib_init_fp_1                       0x08000237   Thumb Code     0  libinit2.o(.ARM.Collect$$libinit$$00000002)
    __rt_lib_init_heap_2                     0x08000237   Thumb Code     0  libinit2.o(.ARM.Collect$$libinit$$00000005)
    __rt_lib_init_preinit_1                  0x08000237   Thumb Code     0  libinit2.o(.ARM.Collect$$libinit$$00000004)
    __rt_lib_init_heap_1                     0x0800023f   Thumb Code     0  libinit2.o(.ARM.Collect$$libinit$$0000000A)
    __rt_lib_init_lc_common                  0x0800023f   Thumb Code     0  libinit2.o(.ARM.Collect$$libinit$$0000000F)
    __rt_lib_init_rand_1                     0x0800023f   Thumb Code     0  libinit2.o(.ARM.Collect$$libinit$$0000000E)
    __rt_lib_init_user_alloc_1               0x0800023f   Thumb Code     0  libinit2.o(.ARM.Collect$$libinit$$0000000C)
    __rt_lib_init_lc_collate_1               0x08000245   Thumb Code     0  libinit2.o(.ARM.Collect$$libinit$$00000011)
    __rt_lib_init_lc_ctype_2                 0x08000245   Thumb Code     0  libinit2.o(.ARM.Collect$$libinit$$00000012)
    __rt_lib_init_lc_ctype_1                 0x08000251   Thumb Code     0  libinit2.o(.ARM.Collect$$libinit$$00000013)
    __rt_lib_init_lc_monetary_1              0x08000251   Thumb Code     0  libinit2.o(.ARM.Collect$$libinit$$00000015)
    __rt_lib_init_lc_numeric_2               0x08000251   Thumb Code     0  libinit2.o(.ARM.Collect$$libinit$$00000016)
    __rt_lib_init_alloca_1                   0x0800025b   Thumb Code     0  libinit2.o(.ARM.Collect$$libinit$$0000002E)
    __rt_lib_init_argv_1                     0x0800025b   Thumb Code     0  libinit2.o(.ARM.Collect$$libinit$$0000002C)
    __rt_lib_init_atexit_1                   0x0800025b   Thumb Code     0  libinit2.o(.ARM.Collect$$libinit$$0000001B)
    __rt_lib_init_clock_1                    0x0800025b   Thumb Code     0  libinit2.o(.ARM.Collect$$libinit$$00000021)
    __rt_lib_init_cpp_1                      0x0800025b   Thumb Code     0  libinit2.o(.ARM.Collect$$libinit$$00000032)
    __rt_lib_init_exceptions_1               0x0800025b   Thumb Code     0  libinit2.o(.ARM.Collect$$libinit$$00000030)
    __rt_lib_init_fp_trap_1                  0x0800025b   Thumb Code     0  libinit2.o(.ARM.Collect$$libinit$$0000001F)
    __rt_lib_init_getenv_1                   0x0800025b   Thumb Code     0  libinit2.o(.ARM.Collect$$libinit$$00000023)
    __rt_lib_init_lc_numeric_1               0x0800025b   Thumb Code     0  libinit2.o(.ARM.Collect$$libinit$$00000017)
    __rt_lib_init_lc_time_1                  0x0800025b   Thumb Code     0  libinit2.o(.ARM.Collect$$libinit$$00000019)
    __rt_lib_init_return                     0x0800025b   Thumb Code     0  libinit2.o(.ARM.Collect$$libinit$$00000033)
    __rt_lib_init_signal_1                   0x0800025b   Thumb Code     0  libinit2.o(.ARM.Collect$$libinit$$0000001D)
    __rt_lib_init_stdio_1                    0x0800025b   Thumb Code     0  libinit2.o(.ARM.Collect$$libinit$$00000025)
    __rt_lib_shutdown                        0x0800025d   Thumb Code     0  libshutdown.o(.ARM.Collect$$libshutdown$$00000000)
    __rt_lib_shutdown_fp_trap_1              0x0800025f   Thumb Code     0  libshutdown2.o(.ARM.Collect$$libshutdown$$00000006)
    __rt_lib_shutdown_heap_1                 0x0800025f   Thumb Code     0  libshutdown2.o(.ARM.Collect$$libshutdown$$0000000E)
    __rt_lib_shutdown_return                 0x0800025f   Thumb Code     0  libshutdown2.o(.ARM.Collect$$libshutdown$$0000000F)
    __rt_lib_shutdown_signal_1               0x0800025f   Thumb Code     0  libshutdown2.o(.ARM.Collect$$libshutdown$$00000009)
    __rt_lib_shutdown_stdio_1                0x0800025f   Thumb Code     0  libshutdown2.o(.ARM.Collect$$libshutdown$$00000003)
    __rt_lib_shutdown_user_alloc_1           0x0800025f   Thumb Code     0  libshutdown2.o(.ARM.Collect$$libshutdown$$0000000B)
    __rt_entry                               0x08000261   Thumb Code     0  __rtentry.o(.ARM.Collect$$rtentry$$00000000)
    __rt_entry_presh_1                       0x08000261   Thumb Code     0  __rtentry2.o(.ARM.Collect$$rtentry$$00000002)
    __rt_entry_sh                            0x08000261   Thumb Code     0  __rtentry4.o(.ARM.Collect$$rtentry$$00000004)
    __rt_entry_li                            0x08000267   Thumb Code     0  __rtentry2.o(.ARM.Collect$$rtentry$$0000000A)
    __rt_entry_postsh_1                      0x08000267   Thumb Code     0  __rtentry2.o(.ARM.Collect$$rtentry$$00000009)
    __rt_entry_main                          0x0800026b   Thumb Code     0  __rtentry2.o(.ARM.Collect$$rtentry$$0000000D)
    __rt_entry_postli_1                      0x0800026b   Thumb Code     0  __rtentry2.o(.ARM.Collect$$rtentry$$0000000C)
    __rt_exit                                0x08000273   Thumb Code     0  rtexit.o(.ARM.Collect$$rtexit$$00000000)
    __rt_exit_ls                             0x08000275   Thumb Code     0  rtexit2.o(.ARM.Collect$$rtexit$$00000003)
    __rt_exit_prels_1                        0x08000275   Thumb Code     0  rtexit2.o(.ARM.Collect$$rtexit$$00000002)
    __rt_exit_exit                           0x08000279   Thumb Code     0  rtexit2.o(.ARM.Collect$$rtexit$$00000004)
    Reset_Handler                            0x08000281   Thumb Code     8  startup_stm32f10x_hd.o(.text)
    _maybe_terminate_alloc                   0x08000281   Thumb Code     0  maybetermalloc1.o(.emb_text)
    NMI_Handler                              0x08000289   Thumb Code     2  startup_stm32f10x_hd.o(.text)
    HardFault_Handler                        0x0800028b   Thumb Code     2  startup_stm32f10x_hd.o(.text)
    MemManage_Handler                        0x0800028d   Thumb Code     2  startup_stm32f10x_hd.o(.text)
    BusFault_Handler                         0x0800028f   Thumb Code     2  startup_stm32f10x_hd.o(.text)
    UsageFault_Handler                       0x08000291   Thumb Code     2  startup_stm32f10x_hd.o(.text)
    SVC_Handler                              0x08000293   Thumb Code     2  startup_stm32f10x_hd.o(.text)
    DebugMon_Handler                         0x08000295   Thumb Code     2  startup_stm32f10x_hd.o(.text)
    PendSV_Handler                           0x08000297   Thumb Code     2  startup_stm32f10x_hd.o(.text)
    SysTick_Handler                          0x08000299   Thumb Code     2  startup_stm32f10x_hd.o(.text)
    ADC3_IRQHandler                          0x0800029b   Thumb Code     0  startup_stm32f10x_hd.o(.text)
    CAN1_RX1_IRQHandler                      0x0800029b   Thumb Code     0  startup_stm32f10x_hd.o(.text)
    CAN1_SCE_IRQHandler                      0x0800029b   Thumb Code     0  startup_stm32f10x_hd.o(.text)
    DMA1_Channel1_IRQHandler                 0x0800029b   Thumb Code     0  startup_stm32f10x_hd.o(.text)
    DMA1_Channel2_IRQHandler                 0x0800029b   Thumb Code     0  startup_stm32f10x_hd.o(.text)
    DMA1_Channel3_IRQHandler                 0x0800029b   Thumb Code     0  startup_stm32f10x_hd.o(.text)
    DMA1_Channel4_IRQHandler                 0x0800029b   Thumb Code     0  startup_stm32f10x_hd.o(.text)
    DMA1_Channel5_IRQHandler                 0x0800029b   Thumb Code     0  startup_stm32f10x_hd.o(.text)
    DMA1_Channel6_IRQHandler                 0x0800029b   Thumb Code     0  startup_stm32f10x_hd.o(.text)
    DMA1_Channel7_IRQHandler                 0x0800029b   Thumb Code     0  startup_stm32f10x_hd.o(.text)
    DMA2_Channel1_IRQHandler                 0x0800029b   Thumb Code     0  startup_stm32f10x_hd.o(.text)
    DMA2_Channel2_IRQHandler                 0x0800029b   Thumb Code     0  startup_stm32f10x_hd.o(.text)
    DMA2_Channel3_IRQHandler                 0x0800029b   Thumb Code     0  startup_stm32f10x_hd.o(.text)
    DMA2_Channel4_5_IRQHandler               0x0800029b   Thumb Code     0  startup_stm32f10x_hd.o(.text)
    EXTI0_IRQHandler                         0x0800029b   Thumb Code     0  startup_stm32f10x_hd.o(.text)
    EXTI15_10_IRQHandler                     0x0800029b   Thumb Code     0  startup_stm32f10x_hd.o(.text)
    EXTI1_IRQHandler                         0x0800029b   Thumb Code     0  startup_stm32f10x_hd.o(.text)
    EXTI2_IRQHandler                         0x0800029b   Thumb Code     0  startup_stm32f10x_hd.o(.text)
    EXTI3_IRQHandler                         0x0800029b   Thumb Code     0  startup_stm32f10x_hd.o(.text)
    EXTI4_IRQHandler                         0x0800029b   Thumb Code     0  startup_stm32f10x_hd.o(.text)
    EXTI9_5_IRQHandler                       0x0800029b   Thumb Code     0  startup_stm32f10x_hd.o(.text)
    FLASH_IRQHandler                         0x0800029b   Thumb Code     0  startup_stm32f10x_hd.o(.text)
    FSMC_IRQHandler                          0x0800029b   Thumb Code     0  startup_stm32f10x_hd.o(.text)
    I2C1_ER_IRQHandler                       0x0800029b   Thumb Code     0  startup_stm32f10x_hd.o(.text)
    I2C1_EV_IRQHandler                       0x0800029b   Thumb Code     0  startup_stm32f10x_hd.o(.text)
    I2C2_ER_IRQHandler                       0x0800029b   Thumb Code     0  startup_stm32f10x_hd.o(.text)
    I2C2_EV_IRQHandler                       0x0800029b   Thumb Code     0  startup_stm32f10x_hd.o(.text)
    PVD_IRQHandler                           0x0800029b   Thumb Code     0  startup_stm32f10x_hd.o(.text)
    RCC_IRQHandler                           0x0800029b   Thumb Code     0  startup_stm32f10x_hd.o(.text)
    RTCAlarm_IRQHandler                      0x0800029b   Thumb Code     0  startup_stm32f10x_hd.o(.text)
    RTC_IRQHandler                           0x0800029b   Thumb Code     0  startup_stm32f10x_hd.o(.text)
    SDIO_IRQHandler                          0x0800029b   Thumb Code     0  startup_stm32f10x_hd.o(.text)
    SPI1_IRQHandler                          0x0800029b   Thumb Code     0  startup_stm32f10x_hd.o(.text)
    SPI2_IRQHandler                          0x0800029b   Thumb Code     0  startup_stm32f10x_hd.o(.text)
    SPI3_IRQHandler                          0x0800029b   Thumb Code     0  startup_stm32f10x_hd.o(.text)
    TAMPER_IRQHandler                        0x0800029b   Thumb Code     0  startup_stm32f10x_hd.o(.text)
    TIM1_BRK_IRQHandler                      0x0800029b   Thumb Code     0  startup_stm32f10x_hd.o(.text)
    TIM1_CC_IRQHandler                       0x0800029b   Thumb Code     0  startup_stm32f10x_hd.o(.text)
    TIM1_TRG_COM_IRQHandler                  0x0800029b   Thumb Code     0  startup_stm32f10x_hd.o(.text)
    TIM1_UP_IRQHandler                       0x0800029b   Thumb Code     0  startup_stm32f10x_hd.o(.text)
    TIM2_IRQHandler                          0x0800029b   Thumb Code     0  startup_stm32f10x_hd.o(.text)
    TIM3_IRQHandler                          0x0800029b   Thumb Code     0  startup_stm32f10x_hd.o(.text)
    TIM5_IRQHandler                          0x0800029b   Thumb Code     0  startup_stm32f10x_hd.o(.text)
    TIM6_IRQHandler                          0x0800029b   Thumb Code     0  startup_stm32f10x_hd.o(.text)
    TIM7_IRQHandler                          0x0800029b   Thumb Code     0  startup_stm32f10x_hd.o(.text)
    TIM8_BRK_IRQHandler                      0x0800029b   Thumb Code     0  startup_stm32f10x_hd.o(.text)
    TIM8_CC_IRQHandler                       0x0800029b   Thumb Code     0  startup_stm32f10x_hd.o(.text)
    TIM8_TRG_COM_IRQHandler                  0x0800029b   Thumb Code     0  startup_stm32f10x_hd.o(.text)
    TIM8_UP_IRQHandler                       0x0800029b   Thumb Code     0  startup_stm32f10x_hd.o(.text)
    UART4_IRQHandler                         0x0800029b   Thumb Code     0  startup_stm32f10x_hd.o(.text)
    UART5_IRQHandler                         0x0800029b   Thumb Code     0  startup_stm32f10x_hd.o(.text)
    USART2_IRQHandler                        0x0800029b   Thumb Code     0  startup_stm32f10x_hd.o(.text)
    USART3_IRQHandler                        0x0800029b   Thumb Code     0  startup_stm32f10x_hd.o(.text)
    USBWakeUp_IRQHandler                     0x0800029b   Thumb Code     0  startup_stm32f10x_hd.o(.text)
    USB_HP_CAN1_TX_IRQHandler                0x0800029b   Thumb Code     0  startup_stm32f10x_hd.o(.text)
    USB_LP_CAN1_RX0_IRQHandler               0x0800029b   Thumb Code     0  startup_stm32f10x_hd.o(.text)
    WWDG_IRQHandler                          0x0800029b   Thumb Code     0  startup_stm32f10x_hd.o(.text)
    __user_initial_stackheap                 0x0800029d   Thumb Code     0  startup_stm32f10x_hd.o(.text)
    malloc                                   0x080002c1   Thumb Code    94  h1_alloc.o(.text)
    __c89vsnprintf                           0x08000321   Thumb Code    48  c89vsnprintf.o(.text)
    __aeabi_memclr4                          0x08000355   Thumb Code     0  rt_memclr_w.o(.text)
    __aeabi_memclr8                          0x08000355   Thumb Code     0  rt_memclr_w.o(.text)
    __rt_memclr_w                            0x08000355   Thumb Code    78  rt_memclr_w.o(.text)
    _memset_w                                0x08000359   Thumb Code     0  rt_memclr_w.o(.text)
    strcmp                                   0x080003a5   Thumb Code   128  strcmpv7m.o(.text)
    __use_two_region_memory                  0x08000425   Thumb Code     2  heapauxi.o(.text)
    __rt_heap_escrow                         0x08000427   Thumb Code     2  heapauxi.o(.text)
    __rt_heap_expand                         0x08000429   Thumb Code     2  heapauxi.o(.text)
    __rt_heap_descriptor                     0x0800042d   Thumb Code     8  rt_heap_descriptor_intlibspace.o(.text)
    __use_no_heap                            0x08000435   Thumb Code     2  hguard.o(.text)
    __heap$guard                             0x08000437   Thumb Code     2  hguard.o(.text)
    _terminate_user_alloc                    0x08000439   Thumb Code     2  init_alloc.o(.text)
    _init_user_alloc                         0x0800043b   Thumb Code     2  init_alloc.o(.text)
    __Heap_Full                              0x0800043d   Thumb Code    34  init_alloc.o(.text)
    __Heap_Broken                            0x0800045f   Thumb Code     6  init_alloc.o(.text)
    _init_alloc                              0x08000465   Thumb Code    94  init_alloc.o(.text)
    __Heap_Initialize                        0x080004c3   Thumb Code    10  h1_init.o(.text)
    __Heap_DescSize                          0x080004cd   Thumb Code     4  h1_init.o(.text)
    free                                     0x080004d1   Thumb Code    78  h1_free.o(.text)
    __read_errno                             0x0800051f   Thumb Code    10  _rserrno.o(.text)
    __set_errno                              0x08000529   Thumb Code    12  _rserrno.o(.text)
    _printf_pre_padding                      0x08000535   Thumb Code    44  _printf_pad.o(.text)
    _printf_post_padding                     0x08000561   Thumb Code    34  _printf_pad.o(.text)
    _printf_truncate_signed                  0x08000583   Thumb Code    18  _printf_truncate.o(.text)
    _printf_truncate_unsigned                0x08000595   Thumb Code    18  _printf_truncate.o(.text)
    _printf_str                              0x080005a7   Thumb Code    82  _printf_str.o(.text)
    _printf_int_dec                          0x080005f9   Thumb Code   104  _printf_dec.o(.text)
    _printf_charcount                        0x08000671   Thumb Code    40  _printf_charcount.o(.text)
    _printf_char_common                      0x080006a3   Thumb Code    32  _printf_char_common.o(.text)
    _sputc                                   0x080006c9   Thumb Code    10  _sputc.o(.text)
    _snputc                                  0x080006d3   Thumb Code    16  _snputc.o(.text)
    _printf_wctomb                           0x080006e5   Thumb Code   182  _printf_wctomb.o(.text)
    _printf_longlong_dec                     0x080007a1   Thumb Code   108  _printf_longlong_dec.o(.text)
    _printf_longlong_oct                     0x0800081d   Thumb Code    68  _printf_oct_int_ll.o(.text)
    _printf_int_oct                          0x08000861   Thumb Code    24  _printf_oct_int_ll.o(.text)
    _printf_ll_oct                           0x08000879   Thumb Code    12  _printf_oct_int_ll.o(.text)
    _printf_longlong_hex                     0x0800088d   Thumb Code    86  _printf_hex_int_ll_ptr.o(.text)
    _printf_int_hex                          0x080008e3   Thumb Code    28  _printf_hex_int_ll_ptr.o(.text)
    _printf_ll_hex                           0x080008ff   Thumb Code    12  _printf_hex_int_ll_ptr.o(.text)
    _printf_hex_ptr                          0x0800090b   Thumb Code    18  _printf_hex_int_ll_ptr.o(.text)
    __printf                                 0x08000921   Thumb Code   388  __printf_flags_ss_wp.o(.text)
    __strtod_int                             0x08000ae5   Thumb Code    88  strtod.o(.text)
    __user_libspace                          0x08000b49   Thumb Code     8  libspace.o(.text)
    __user_perproc_libspace                  0x08000b49   Thumb Code     0  libspace.o(.text)
    __user_perthread_libspace                0x08000b49   Thumb Code     0  libspace.o(.text)
    __aeabi_errno_addr                       0x08000b51   Thumb Code     8  rt_errno_addr_intlibspace.o(.text)
    __errno$intlibspace                      0x08000b51   Thumb Code     0  rt_errno_addr_intlibspace.o(.text)
    __rt_errno_addr$intlibspace              0x08000b51   Thumb Code     0  rt_errno_addr_intlibspace.o(.text)
    __Heap_ProvideMemory                     0x08000b59   Thumb Code    52  h1_extend.o(.text)
    _ll_udiv10                               0x08000b8d   Thumb Code   138  lludiv10.o(.text)
    isspace                                  0x08000c17   Thumb Code    18  isspace.o(.text)
    _printf_int_common                       0x08000c29   Thumb Code   178  _printf_intcommon.o(.text)
    __lib_sel_fp_printf                      0x08000cdb   Thumb Code     2  _printf_fp_dec.o(.text)
    _printf_fp_dec_real                      0x08000e89   Thumb Code   620  _printf_fp_dec.o(.text)
    _printf_cs_common                        0x080010f5   Thumb Code    20  _printf_char.o(.text)
    _printf_char                             0x08001109   Thumb Code    16  _printf_char.o(.text)
    _printf_string                           0x08001119   Thumb Code     8  _printf_char.o(.text)
    _printf_lcs_common                       0x08001121   Thumb Code    20  _printf_wchar.o(.text)
    _printf_wchar                            0x08001135   Thumb Code    16  _printf_wchar.o(.text)
    _printf_wstring                          0x08001145   Thumb Code     8  _printf_wchar.o(.text)
    _sgetc                                   0x0800114d   Thumb Code    30  _sgetc.o(.text)
    _sbackspace                              0x0800116b   Thumb Code    34  _sgetc.o(.text)
    _wcrtomb                                 0x0800118d   Thumb Code    64  _wcrtomb.o(.text)
    __rt_SIGRTMEM                            0x080011cd   Thumb Code    14  defsig_rtmem_outer.o(.text)
    __I$use$semihosting                      0x080011db   Thumb Code     0  use_no_semi.o(.text)
    __use_no_semihosting_swi                 0x080011db   Thumb Code     2  use_no_semi.o(.text)
    __semihosting_library_function           0x080011dd   Thumb Code     0  indicate_semi.o(.text)
    __user_setup_stackheap                   0x080011dd   Thumb Code    74  sys_stackheap_outer.o(.text)
    __rt_ctype_table                         0x08001229   Thumb Code    16  rt_ctype_table.o(.text)
    __rt_locale                              0x08001239   Thumb Code     8  rt_locale_intlibspace.o(.text)
    _printf_fp_infnan                        0x08001241   Thumb Code   112  _printf_fp_infnan.o(.text)
    _scanf_really_real                       0x080014bd   Thumb Code   668  scanf_fp.o(.text)
    _btod_etento                             0x08001765   Thumb Code   216  bigflt0.o(.text)
    exit                                     0x08001841   Thumb Code    12  exit.o(.text)
    __sig_exit                               0x0800184d   Thumb Code    10  defsig_exit.o(.text)
    __rt_SIGRTMEM_inner                      0x08001859   Thumb Code    22  defsig_rtmem_inner.o(.text)
    _sys_exit                                0x080018a9   Thumb Code     8  sys_exit.o(.text)
    __default_signal_display                 0x080018b5   Thumb Code    50  defsig_general.o(.text)
    _ttywrch                                 0x080018e7   Thumb Code    14  sys_wrch.o(.text)
    _scanf_really_hex_real                   0x080018f5   Thumb Code   778  scanf_hexfp.o(.text)
    _scanf_really_infnan                     0x08001c0d   Thumb Code   292  scanf_infnan.o(.text)
    __aeabi_llsl                             0x08001d41   Thumb Code     0  llshl.o(.text)
    _ll_shift_l                              0x08001d41   Thumb Code    38  llshl.o(.text)
    _chval                                   0x08001d67   Thumb Code    28  _chval.o(.text)
    _btod_d2e                                0x08001d83   Thumb Code    62  btod.o(CL$$btod_d2e)
    _d2e_denorm_low                          0x08001dc1   Thumb Code    70  btod.o(CL$$btod_d2e_denorm_low)
    _d2e_norm_op1                            0x08001e07   Thumb Code    96  btod.o(CL$$btod_d2e_norm_op1)
    __btod_div_common                        0x08001e67   Thumb Code   696  btod.o(CL$$btod_div_common)
    _e2d                                     0x080021a1   Thumb Code    80  btod.o(CL$$btod_e2d)
    _e2e                                     0x080021f5   Thumb Code   198  btod.o(CL$$btod_e2e)
    _btod_ediv                               0x080022bb   Thumb Code    40  btod.o(CL$$btod_ediv)
    _btod_edivd                              0x080022e3   Thumb Code    40  btod.o(CL$$btod_edivd)
    _btod_emul                               0x0800230b   Thumb Code    40  btod.o(CL$$btod_emul)
    _btod_emuld                              0x08002333   Thumb Code    40  btod.o(CL$$btod_emuld)
    __btod_mult_common                       0x0800235b   Thumb Code   580  btod.o(CL$$btod_mult_common)
    ADC1_2_IRQHandler                        0x0800259f   Thumb Code     2  adc.o(i.ADC1_2_IRQHandler)
    DataScope_Get_Channel_Data               0x080025a1   Thumb Code   158  datascope_dp.o(i.DataScope_Get_Channel_Data)
    FLASH_PrefetchBufferCmd                  0x08002645   Thumb Code    22  stm32f10x_flash.o(i.FLASH_PrefetchBufferCmd)
    FLASH_SetLatency                         0x08002661   Thumb Code    18  stm32f10x_flash.o(i.FLASH_SetLatency)
    Float2Byte                               0x08002679   Thumb Code    28  datascope_dp.o(i.Float2Byte)
    GPIO_Init                                0x08002695   Thumb Code   278  stm32f10x_gpio.o(i.GPIO_Init)
    GPIO_PinRemapConfig                      0x080027ad   Thumb Code   138  stm32f10x_gpio.o(i.GPIO_PinRemapConfig)
    KEY_Init                                 0x0800283d   Thumb Code    34  key.o(i.KEY_Init)
    Motor1                                   0x08002865   Thumb Code    34  pwm.o(i.Motor1)
    Motor2                                   0x0800288d   Thumb Code    34  pwm.o(i.Motor2)
    NVIC_Config                              0x080028b5   Thumb Code    70  main.o(i.NVIC_Config)
    NVIC_Init                                0x080028fd   Thumb Code   100  misc.o(i.NVIC_Init)
    NVIC_PriorityGroupConfig                 0x0800296d   Thumb Code    10  misc.o(i.NVIC_PriorityGroupConfig)
    PWM_Init                                 0x08002981   Thumb Code   226  pwm.o(i.PWM_Init)
    RCC_APB1PeriphClockCmd                   0x08002a71   Thumb Code    26  stm32f10x_rcc.o(i.RCC_APB1PeriphClockCmd)
    RCC_APB1PeriphResetCmd                   0x08002a91   Thumb Code    26  stm32f10x_rcc.o(i.RCC_APB1PeriphResetCmd)
    RCC_APB2PeriphClockCmd                   0x08002ab1   Thumb Code    26  stm32f10x_rcc.o(i.RCC_APB2PeriphClockCmd)
    RCC_APB2PeriphResetCmd                   0x08002ad1   Thumb Code    26  stm32f10x_rcc.o(i.RCC_APB2PeriphResetCmd)
    RCC_DeInit                               0x08002af1   Thumb Code    64  stm32f10x_rcc.o(i.RCC_DeInit)
    RCC_GetClocksFreq                        0x08002b3d   Thumb Code   192  stm32f10x_rcc.o(i.RCC_GetClocksFreq)
    RCC_GetFlagStatus                        0x08002c11   Thumb Code    56  stm32f10x_rcc.o(i.RCC_GetFlagStatus)
    RCC_GetSYSCLKSource                      0x08002c4d   Thumb Code    10  stm32f10x_rcc.o(i.RCC_GetSYSCLKSource)
    RCC_HCLKConfig                           0x08002c5d   Thumb Code    18  stm32f10x_rcc.o(i.RCC_HCLKConfig)
    RCC_HSEConfig                            0x08002c75   Thumb Code    70  stm32f10x_rcc.o(i.RCC_HSEConfig)
    RCC_PCLK1Config                          0x08002cc1   Thumb Code    18  stm32f10x_rcc.o(i.RCC_PCLK1Config)
    RCC_PCLK2Config                          0x08002cd9   Thumb Code    20  stm32f10x_rcc.o(i.RCC_PCLK2Config)
    RCC_PLLCmd                               0x08002cf1   Thumb Code     6  stm32f10x_rcc.o(i.RCC_PLLCmd)
    RCC_PLLConfig                            0x08002cfd   Thumb Code    24  stm32f10x_rcc.o(i.RCC_PLLConfig)
    RCC_SYSCLKConfig                         0x08002d19   Thumb Code    18  stm32f10x_rcc.o(i.RCC_SYSCLKConfig)
    RCC_WaitForHSEStartUp                    0x08002d31   Thumb Code    56  stm32f10x_rcc.o(i.RCC_WaitForHSEStartUp)
    Rcc_init                                 0x08002d69   Thumb Code    26  rcc.o(i.Rcc_init)
    Speed_PIDAdjust                          0x08002e71   Thumb Code   168  pid.o(i.Speed_PIDAdjust)
    Speed_PIDInit                            0x08002f21   Thumb Code    26  pid.o(i.Speed_PIDInit)
    SysTick_CLKSourceConfig                  0x08002f45   Thumb Code    40  misc.o(i.SysTick_CLKSourceConfig)
    SystemInit                               0x08002f6d   Thumb Code    78  system_stm32f10x.o(i.SystemInit)
    System_clk_set                           0x08002fcd   Thumb Code   106  rcc.o(i.System_clk_set)
    TIM1_init                                0x08003279   Thumb Code   156  tim.o(i.TIM1_init)
    TIM2_init                                0x0800331d   Thumb Code   168  tim.o(i.TIM2_init)
    TIM4_IRQHandler                          0x080033c9   Thumb Code   302  tim.o(i.TIM4_IRQHandler)
    TIM4_Init                                0x08003535   Thumb Code    52  tim.o(i.TIM4_Init)
    TIM_ARRPreloadConfig                     0x0800356d   Thumb Code    24  stm32f10x_tim.o(i.TIM_ARRPreloadConfig)
    TIM_ClearFlag                            0x08003585   Thumb Code     6  stm32f10x_tim.o(i.TIM_ClearFlag)
    TIM_ClearITPendingBit                    0x0800358b   Thumb Code     6  stm32f10x_tim.o(i.TIM_ClearITPendingBit)
    TIM_Cmd                                  0x08003591   Thumb Code    24  stm32f10x_tim.o(i.TIM_Cmd)
    TIM_DeInit                               0x080035a9   Thumb Code   424  stm32f10x_tim.o(i.TIM_DeInit)
    TIM_EncoderInterfaceConfig               0x08003791   Thumb Code    66  stm32f10x_tim.o(i.TIM_EncoderInterfaceConfig)
    TIM_GetCounter                           0x080037d3   Thumb Code     6  stm32f10x_tim.o(i.TIM_GetCounter)
    TIM_GetITStatus                          0x080037d9   Thumb Code    34  stm32f10x_tim.o(i.TIM_GetITStatus)
    TIM_ICInit                               0x080037fd   Thumb Code   150  stm32f10x_tim.o(i.TIM_ICInit)
    TIM_ICStructInit                         0x080038a9   Thumb Code    18  stm32f10x_tim.o(i.TIM_ICStructInit)
    TIM_ITConfig                             0x080038bb   Thumb Code    18  stm32f10x_tim.o(i.TIM_ITConfig)
    TIM_OC1Init                              0x080038cd   Thumb Code   132  stm32f10x_tim.o(i.TIM_OC1Init)
    TIM_OC1PreloadConfig                     0x08003965   Thumb Code    18  stm32f10x_tim.o(i.TIM_OC1PreloadConfig)
    TIM_OC2Init                              0x08003979   Thumb Code   154  stm32f10x_tim.o(i.TIM_OC2Init)
    TIM_OC2PreloadConfig                     0x08003a1d   Thumb Code    26  stm32f10x_tim.o(i.TIM_OC2PreloadConfig)
    TIM_OC3Init                              0x08003a39   Thumb Code   150  stm32f10x_tim.o(i.TIM_OC3Init)
    TIM_OC3PreloadConfig                     0x08003ad9   Thumb Code    18  stm32f10x_tim.o(i.TIM_OC3PreloadConfig)
    TIM_OC4Init                              0x08003aed   Thumb Code   114  stm32f10x_tim.o(i.TIM_OC4Init)
    TIM_OC4PreloadConfig                     0x08003b69   Thumb Code    26  stm32f10x_tim.o(i.TIM_OC4PreloadConfig)
    TIM_SetIC1Prescaler                      0x08003b83   Thumb Code    18  stm32f10x_tim.o(i.TIM_SetIC1Prescaler)
    TIM_SetIC2Prescaler                      0x08003b95   Thumb Code    26  stm32f10x_tim.o(i.TIM_SetIC2Prescaler)
    TIM_SetIC3Prescaler                      0x08003baf   Thumb Code    18  stm32f10x_tim.o(i.TIM_SetIC3Prescaler)
    TIM_SetIC4Prescaler                      0x08003bc1   Thumb Code    26  stm32f10x_tim.o(i.TIM_SetIC4Prescaler)
    TIM_TimeBaseInit                         0x08003bdd   Thumb Code   122  stm32f10x_tim.o(i.TIM_TimeBaseInit)
    TIM_TimeBaseStructInit                   0x08003c81   Thumb Code    18  stm32f10x_tim.o(i.TIM_TimeBaseStructInit)
    USART1_Config                            0x08003c95   Thumb Code   182  usart2.o(i.USART1_Config)
    USART1_IRQHandler                        0x08003d59   Thumb Code   318  usart2.o(i.USART1_IRQHandler)
    USART_ClearFlag                          0x08003ef5   Thumb Code    18  stm32f10x_usart.o(i.USART_ClearFlag)
    USART_ClearITPendingBit                  0x08003f07   Thumb Code    30  stm32f10x_usart.o(i.USART_ClearITPendingBit)
    USART_ClockInit                          0x08003f25   Thumb Code    34  stm32f10x_usart.o(i.USART_ClockInit)
    USART_Cmd                                0x08003f47   Thumb Code    24  stm32f10x_usart.o(i.USART_Cmd)
    USART_GetFlagStatus                      0x08003f5f   Thumb Code    26  stm32f10x_usart.o(i.USART_GetFlagStatus)
    USART_GetITStatus                        0x08003f79   Thumb Code    84  stm32f10x_usart.o(i.USART_GetITStatus)
    USART_ITConfig                           0x08003fcd   Thumb Code    74  stm32f10x_usart.o(i.USART_ITConfig)
    USART_Init                               0x08004019   Thumb Code   210  stm32f10x_usart.o(i.USART_Init)
    USART_ReceiveData                        0x080040f1   Thumb Code    10  stm32f10x_usart.o(i.USART_ReceiveData)
    USART_SendData                           0x080040fb   Thumb Code     8  stm32f10x_usart.o(i.USART_SendData)
    __ARM_fpclassify                         0x08004103   Thumb Code    40  fpclassify.o(i.__ARM_fpclassify)
    __ieee754_rem_pio2                       0x0800412d   Thumb Code   828  rred.o(i.__ieee754_rem_pio2)
    __kernel_cos                             0x080044b5   Thumb Code   230  cos_i.o(i.__kernel_cos)
    __kernel_poly                            0x080045b1   Thumb Code   170  poly.o(i.__kernel_poly)
    __kernel_sin                             0x0800465d   Thumb Code   224  sin_i.o(i.__kernel_sin)
    __mathlib_dbl_infnan                     0x08004749   Thumb Code     6  dunder.o(i.__mathlib_dbl_infnan)
    __mathlib_dbl_invalid                    0x0800474f   Thumb Code    12  dunder.o(i.__mathlib_dbl_invalid)
    __mathlib_dbl_overflow                   0x0800475b   Thumb Code    14  dunder.o(i.__mathlib_dbl_overflow)
    __mathlib_dbl_underflow                  0x08004769   Thumb Code    10  dunder.o(i.__mathlib_dbl_underflow)
    __mathlib_narrow                         0x08004779   Thumb Code    16  narrow.o(i.__mathlib_narrow)
    __mathlib_tofloat                        0x08004789   Thumb Code   132  narrow.o(i.__mathlib_tofloat)
    __support_ldexp                          0x08004811   Thumb Code    22  ldexp.o(i.__support_ldexp)
    _is_digit                                0x08004827   Thumb Code    14  __printf_wp.o(i._is_digit)
    atof                                     0x08004835   Thumb Code    42  atof.o(i.atof)
    cmd_exec                                 0x08004861   Thumb Code    84  usart2.o(i.cmd_exec)
    cmd_parse                                0x080048c1   Thumb Code   136  usart2.o(i.cmd_parse)
    delay_init                               0x08004949   Thumb Code    50  delay.o(i.delay_init)
    frexp                                    0x0800498d   Thumb Code    80  frexp.o(i.frexp)
    ldexp                                    0x080049e5   Thumb Code   116  ldexp.o(i.ldexp)
    main                                     0x08004a59   Thumb Code    64  main.o(i.main)
    set_speed_p                              0x08004aa1   Thumb Code    58  usart_function.o(i.set_speed_p)
    sin                                      0x08004afd   Thumb Code   150  sin.o(i.sin)
    uprintf                                  0x08004b9d   Thumb Code   138  usart2.o(i.uprintf)
    _get_lc_numeric                          0x08004c29   Thumb Code    44  lc_numeric_c.o(locale$$code)
    _get_lc_ctype                            0x08004c55   Thumb Code    44  lc_ctype_c.o(locale$$code)
    __aeabi_d2f                              0x08004c81   Thumb Code     0  d2f.o(x$fpl$d2f)
    _d2f                                     0x08004c81   Thumb Code    98  d2f.o(x$fpl$d2f)
    __aeabi_dadd                             0x08004ce5   Thumb Code     0  daddsub_clz.o(x$fpl$dadd)
    _dadd                                    0x08004ce5   Thumb Code   332  daddsub_clz.o(x$fpl$dadd)
    __fpl_dcheck_NaN1                        0x08004e35   Thumb Code    10  dcheck1.o(x$fpl$dcheck1)
    __fpl_dcmp_Inf                           0x08004e45   Thumb Code    24  dcmpi.o(x$fpl$dcmpinf)
    __aeabi_ddiv                             0x08004e5d   Thumb Code     0  ddiv.o(x$fpl$ddiv)
    _ddiv                                    0x08004e5d   Thumb Code   552  ddiv.o(x$fpl$ddiv)
    __aeabi_cdcmpeq                          0x0800510d   Thumb Code     0  deqf.o(x$fpl$deqf)
    _dcmpeq                                  0x0800510d   Thumb Code   120  deqf.o(x$fpl$deqf)
    __aeabi_d2iz                             0x08005185   Thumb Code     0  dfix.o(x$fpl$dfix)
    _dfix                                    0x08005185   Thumb Code    94  dfix.o(x$fpl$dfix)
    __aeabi_i2d                              0x080051e3   Thumb Code     0  dflt_clz.o(x$fpl$dflt)
    _dflt                                    0x080051e3   Thumb Code    46  dflt_clz.o(x$fpl$dflt)
    __aeabi_ui2d                             0x08005211   Thumb Code     0  dflt_clz.o(x$fpl$dfltu)
    _dfltu                                   0x08005211   Thumb Code    38  dflt_clz.o(x$fpl$dfltu)
    __aeabi_cdcmple                          0x08005239   Thumb Code     0  dleqf.o(x$fpl$dleqf)
    _dcmple                                  0x08005239   Thumb Code   120  dleqf.o(x$fpl$dleqf)
    __fpl_dcmple_InfNaN                      0x0800529b   Thumb Code     0  dleqf.o(x$fpl$dleqf)
    __aeabi_dmul                             0x080052b1   Thumb Code     0  dmul.o(x$fpl$dmul)
    _dmul                                    0x080052b1   Thumb Code   332  dmul.o(x$fpl$dmul)
    __fpl_dnaninf                            0x08005405   Thumb Code   156  dnaninf.o(x$fpl$dnaninf)
    __fpl_dretinf                            0x080054a1   Thumb Code    12  dretinf.o(x$fpl$dretinf)
    __aeabi_cdrcmple                         0x080054ad   Thumb Code     0  drleqf.o(x$fpl$drleqf)
    _drcmple                                 0x080054ad   Thumb Code   108  drleqf.o(x$fpl$drleqf)
    __aeabi_drsub                            0x08005519   Thumb Code     0  daddsub_clz.o(x$fpl$drsb)
    _drsb                                    0x08005519   Thumb Code    22  daddsub_clz.o(x$fpl$drsb)
    __aeabi_dsub                             0x08005531   Thumb Code     0  daddsub_clz.o(x$fpl$dsub)
    _dsub                                    0x08005531   Thumb Code   464  daddsub_clz.o(x$fpl$dsub)
    __aeabi_f2d                              0x08005705   Thumb Code     0  f2d.o(x$fpl$f2d)
    _f2d                                     0x08005705   Thumb Code    86  f2d.o(x$fpl$f2d)
    __aeabi_fadd                             0x0800575d   Thumb Code     0  faddsub_clz.o(x$fpl$fadd)
    _fadd                                    0x0800575d   Thumb Code   196  faddsub_clz.o(x$fpl$fadd)
    __fpl_fcmp_Inf                           0x08005821   Thumb Code    24  fcmpi.o(x$fpl$fcmpinf)
    __aeabi_fdiv                             0x08005839   Thumb Code     0  fdiv.o(x$fpl$fdiv)
    _fdiv                                    0x08005839   Thumb Code   384  fdiv.o(x$fpl$fdiv)
    __aeabi_cfcmpeq                          0x080059bd   Thumb Code     0  feqf.o(x$fpl$feqf)
    _fcmpeq                                  0x080059bd   Thumb Code   104  feqf.o(x$fpl$feqf)
    __aeabi_f2iz                             0x08005a25   Thumb Code     0  ffix.o(x$fpl$ffix)
    _ffix                                    0x08005a25   Thumb Code    54  ffix.o(x$fpl$ffix)
    __aeabi_i2f                              0x08005a5d   Thumb Code     0  fflt_clz.o(x$fpl$fflt)
    _fflt                                    0x08005a5d   Thumb Code    48  fflt_clz.o(x$fpl$fflt)
    __aeabi_cfcmple                          0x08005a8d   Thumb Code     0  fleqf.o(x$fpl$fleqf)
    _fcmple                                  0x08005a8d   Thumb Code   104  fleqf.o(x$fpl$fleqf)
    __fpl_fcmple_InfNaN                      0x08005adf   Thumb Code     0  fleqf.o(x$fpl$fleqf)
    __aeabi_fmul                             0x08005af5   Thumb Code     0  fmul.o(x$fpl$fmul)
    _fmul                                    0x08005af5   Thumb Code   258  fmul.o(x$fpl$fmul)
    __fpl_fnaninf                            0x08005bf7   Thumb Code   140  fnaninf.o(x$fpl$fnaninf)
    __fpl_fretinf                            0x08005c83   Thumb Code    10  fretinf.o(x$fpl$fretinf)
    __aeabi_fsub                             0x08005c8d   Thumb Code     0  faddsub_clz.o(x$fpl$fsub)
    _fsub                                    0x08005c8d   Thumb Code   234  faddsub_clz.o(x$fpl$fsub)
    _printf_fp_dec                           0x08005d77   Thumb Code     4  printf1.o(x$fpl$printf1)
    __fpl_return_NaN                         0x08005d7b   Thumb Code   100  retnan.o(x$fpl$retnan)
    __ARM_scalbn                             0x08005ddf   Thumb Code    92  scalbn.o(x$fpl$scalbn)
    _scanf_real                              0x08005e3b   Thumb Code     4  scanf1.o(x$fpl$scanf1)
    _scanf_hex_real                          0x08005e3f   Thumb Code     4  scanf2.o(x$fpl$scanf2)
    _scanf_infnan                            0x08005e43   Thumb Code     4  scanf2.o(x$fpl$scanf2)
    __fpl_cmpreturn                          0x08005e47   Thumb Code    48  trapv.o(x$fpl$trapveneer)
    __I$use$fp                               0x08005e76   Number         0  usenofp.o(x$fpl$usenofp)
    Region$$Table$$Base                      0x08006074   Number         0  anon$$obj.o(Region$$Table)
    Region$$Table$$Limit                     0x08006094   Number         0  anon$$obj.o(Region$$Table)
    __aeabi_HUGE_VAL                         0x08006094   Data           0  fpconst.o(c$$dinf)
    __aeabi_HUGE_VALL                        0x08006094   Data           0  fpconst.o(c$$dinf)
    __aeabi_INFINITY                         0x08006094   Data           0  fpconst.o(c$$dinf)
    __dInf                                   0x08006094   Data           0  fpconst.o(c$$dinf)
    __huge_val                               0x08006094   Data           0  fpconst.o(c$$dinf)
    __ctype                                  0x080060c5   Data           0  lc_ctype_c.o(locale$$data)
    SystemCoreClock                          0x20000000   Data           4  system_stm32f10x.o(.data)
    AHBPrescTable                            0x20000004   Data          16  system_stm32f10x.o(.data)
    KEY_Time                                 0x20000028   Data           2  key.o(.data)
    KEY_UP                                   0x2000002a   Data           6  key.o(.data)
    USART1_RX_STA                            0x20000030   Data           2  usart2.o(.data)
    RUN_MODE                                 0x2000006c   Data           1  tim.o(.data)
    Zheng_W                                  0x20000070   Data           4  tim.o(.data)
    Fang_T                                   0x20000074   Data           2  tim.o(.data)
    Targe_SPEED                              0x20000078   Data           4  tim.o(.data)
    Main_pid_parameter                       0x20000088   Data          32  main.o(.bss)
    Slave_pid_parameter                      0x200000a8   Data          32  main.o(.bss)
    USART1_RX_BUF                            0x200000f8   Data         200  usart2.o(.bss)
    DataScope_OutPut_Buffer                  0x200001c0   Data          42  datascope_dp.o(.bss)
    __libspace_start                         0x200001ec   Data          96  libspace.o(.bss)
    __temporary_stack_top$libspace           0x2000024c   Data           0  libspace.o(.bss)



==============================================================================

Memory Map of the image

  Image Entry point : 0x08000131

  Load Region LR_IROM1 (Base: 0x08000000, Size: 0x00006250, Max: 0x00020000, ABSOLUTE)

    Execution Region ER_IROM1 (Base: 0x08000000, Size: 0x000061c8, Max: 0x00020000, ABSOLUTE)

    Base Addr    Size         Type   Attr      Idx    E Section Name        Object

    0x08000000   0x00000130   Data   RO          205    RESET               startup_stm32f10x_hd.o
    0x08000130   0x00000008   Code   RO         3591  * !!!main             c_w.l(__main.o)
    0x08000138   0x00000034   Code   RO         4131    !!!scatter          c_w.l(__scatter.o)
    0x0800016c   0x0000001a   Code   RO         4133    !!handler_copy      c_w.l(__scatter_copy.o)
    0x08000186   0x00000002   PAD
    0x08000188   0x0000001c   Code   RO         4135    !!handler_zi        c_w.l(__scatter_zi.o)
    0x080001a4   0x00000000   Code   RO         3766    .ARM.Collect$$_printf_percent$$00000000  c_w.l(_printf_percent.o)
    0x080001a4   0x00000006   Code   RO         3755    .ARM.Collect$$_printf_percent$$00000001  c_w.l(_printf_n.o)
    0x080001aa   0x00000006   Code   RO         3757    .ARM.Collect$$_printf_percent$$00000002  c_w.l(_printf_p.o)
    0x080001b0   0x00000006   Code   RO         3762    .ARM.Collect$$_printf_percent$$00000003  c_w.l(_printf_f.o)
    0x080001b6   0x00000006   Code   RO         3763    .ARM.Collect$$_printf_percent$$00000004  c_w.l(_printf_e.o)
    0x080001bc   0x00000006   Code   RO         3764    .ARM.Collect$$_printf_percent$$00000005  c_w.l(_printf_g.o)
    0x080001c2   0x00000006   Code   RO         3765    .ARM.Collect$$_printf_percent$$00000006  c_w.l(_printf_a.o)
    0x080001c8   0x0000000a   Code   RO         3770    .ARM.Collect$$_printf_percent$$00000007  c_w.l(_printf_ll.o)
    0x080001d2   0x00000006   Code   RO         3759    .ARM.Collect$$_printf_percent$$00000008  c_w.l(_printf_i.o)
    0x080001d8   0x00000006   Code   RO         3760    .ARM.Collect$$_printf_percent$$00000009  c_w.l(_printf_d.o)
    0x080001de   0x00000006   Code   RO         3761    .ARM.Collect$$_printf_percent$$0000000A  c_w.l(_printf_u.o)
    0x080001e4   0x00000006   Code   RO         3758    .ARM.Collect$$_printf_percent$$0000000B  c_w.l(_printf_o.o)
    0x080001ea   0x00000006   Code   RO         3756    .ARM.Collect$$_printf_percent$$0000000C  c_w.l(_printf_x.o)
    0x080001f0   0x00000006   Code   RO         3767    .ARM.Collect$$_printf_percent$$0000000D  c_w.l(_printf_lli.o)
    0x080001f6   0x00000006   Code   RO         3768    .ARM.Collect$$_printf_percent$$0000000E  c_w.l(_printf_lld.o)
    0x080001fc   0x00000006   Code   RO         3769    .ARM.Collect$$_printf_percent$$0000000F  c_w.l(_printf_llu.o)
    0x08000202   0x00000006   Code   RO         3774    .ARM.Collect$$_printf_percent$$00000010  c_w.l(_printf_llo.o)
    0x08000208   0x00000006   Code   RO         3775    .ARM.Collect$$_printf_percent$$00000011  c_w.l(_printf_llx.o)
    0x0800020e   0x0000000a   Code   RO         3771    .ARM.Collect$$_printf_percent$$00000012  c_w.l(_printf_l.o)
    0x08000218   0x00000006   Code   RO         3753    .ARM.Collect$$_printf_percent$$00000013  c_w.l(_printf_c.o)
    0x0800021e   0x00000006   Code   RO         3754    .ARM.Collect$$_printf_percent$$00000014  c_w.l(_printf_s.o)
    0x08000224   0x00000006   Code   RO         3772    .ARM.Collect$$_printf_percent$$00000015  c_w.l(_printf_lc.o)
    0x0800022a   0x00000006   Code   RO         3773    .ARM.Collect$$_printf_percent$$00000016  c_w.l(_printf_ls.o)
    0x08000230   0x00000004   Code   RO         3915    .ARM.Collect$$_printf_percent$$00000017  c_w.l(_printf_percent_end.o)
    0x08000234   0x00000002   Code   RO         4012    .ARM.Collect$$libinit$$00000000  c_w.l(libinit.o)
    0x08000236   0x00000000   Code   RO         3783    .ARM.Collect$$libinit$$00000002  c_w.l(libinit2.o)
    0x08000236   0x00000000   Code   RO         3785    .ARM.Collect$$libinit$$00000004  c_w.l(libinit2.o)
    0x08000236   0x00000008   Code   RO         3786    .ARM.Collect$$libinit$$00000005  c_w.l(libinit2.o)
    0x0800023e   0x00000000   Code   RO         3788    .ARM.Collect$$libinit$$0000000A  c_w.l(libinit2.o)
    0x0800023e   0x00000000   Code   RO         3790    .ARM.Collect$$libinit$$0000000C  c_w.l(libinit2.o)
    0x0800023e   0x00000000   Code   RO         3792    .ARM.Collect$$libinit$$0000000E  c_w.l(libinit2.o)
    0x0800023e   0x00000006   Code   RO         3793    .ARM.Collect$$libinit$$0000000F  c_w.l(libinit2.o)
    0x08000244   0x00000000   Code   RO         3795    .ARM.Collect$$libinit$$00000011  c_w.l(libinit2.o)
    0x08000244   0x0000000c   Code   RO         3796    .ARM.Collect$$libinit$$00000012  c_w.l(libinit2.o)
    0x08000250   0x00000000   Code   RO         3797    .ARM.Collect$$libinit$$00000013  c_w.l(libinit2.o)
    0x08000250   0x00000000   Code   RO         3799    .ARM.Collect$$libinit$$00000015  c_w.l(libinit2.o)
    0x08000250   0x0000000a   Code   RO         3800    .ARM.Collect$$libinit$$00000016  c_w.l(libinit2.o)
    0x0800025a   0x00000000   Code   RO         3801    .ARM.Collect$$libinit$$00000017  c_w.l(libinit2.o)
    0x0800025a   0x00000000   Code   RO         3803    .ARM.Collect$$libinit$$00000019  c_w.l(libinit2.o)
    0x0800025a   0x00000000   Code   RO         3805    .ARM.Collect$$libinit$$0000001B  c_w.l(libinit2.o)
    0x0800025a   0x00000000   Code   RO         3807    .ARM.Collect$$libinit$$0000001D  c_w.l(libinit2.o)
    0x0800025a   0x00000000   Code   RO         3809    .ARM.Collect$$libinit$$0000001F  c_w.l(libinit2.o)
    0x0800025a   0x00000000   Code   RO         3811    .ARM.Collect$$libinit$$00000021  c_w.l(libinit2.o)
    0x0800025a   0x00000000   Code   RO         3813    .ARM.Collect$$libinit$$00000023  c_w.l(libinit2.o)
    0x0800025a   0x00000000   Code   RO         3815    .ARM.Collect$$libinit$$00000025  c_w.l(libinit2.o)
    0x0800025a   0x00000000   Code   RO         3819    .ARM.Collect$$libinit$$0000002C  c_w.l(libinit2.o)
    0x0800025a   0x00000000   Code   RO         3821    .ARM.Collect$$libinit$$0000002E  c_w.l(libinit2.o)
    0x0800025a   0x00000000   Code   RO         3823    .ARM.Collect$$libinit$$00000030  c_w.l(libinit2.o)
    0x0800025a   0x00000000   Code   RO         3825    .ARM.Collect$$libinit$$00000032  c_w.l(libinit2.o)
    0x0800025a   0x00000002   Code   RO         3826    .ARM.Collect$$libinit$$00000033  c_w.l(libinit2.o)
    0x0800025c   0x00000002   Code   RO         4111    .ARM.Collect$$libshutdown$$00000000  c_w.l(libshutdown.o)
    0x0800025e   0x00000000   Code   RO         4034    .ARM.Collect$$libshutdown$$00000003  c_w.l(libshutdown2.o)
    0x0800025e   0x00000000   Code   RO         4037    .ARM.Collect$$libshutdown$$00000006  c_w.l(libshutdown2.o)
    0x0800025e   0x00000000   Code   RO         4040    .ARM.Collect$$libshutdown$$00000009  c_w.l(libshutdown2.o)
    0x0800025e   0x00000000   Code   RO         4042    .ARM.Collect$$libshutdown$$0000000B  c_w.l(libshutdown2.o)
    0x0800025e   0x00000000   Code   RO         4045    .ARM.Collect$$libshutdown$$0000000E  c_w.l(libshutdown2.o)
    0x0800025e   0x00000002   Code   RO         4046    .ARM.Collect$$libshutdown$$0000000F  c_w.l(libshutdown2.o)
    0x08000260   0x00000000   Code   RO         3649    .ARM.Collect$$rtentry$$00000000  c_w.l(__rtentry.o)
    0x08000260   0x00000000   Code   RO         3874    .ARM.Collect$$rtentry$$00000002  c_w.l(__rtentry2.o)
    0x08000260   0x00000006   Code   RO         3886    .ARM.Collect$$rtentry$$00000004  c_w.l(__rtentry4.o)
    0x08000266   0x00000000   Code   RO         3876    .ARM.Collect$$rtentry$$00000009  c_w.l(__rtentry2.o)
    0x08000266   0x00000004   Code   RO         3877    .ARM.Collect$$rtentry$$0000000A  c_w.l(__rtentry2.o)
    0x0800026a   0x00000000   Code   RO         3879    .ARM.Collect$$rtentry$$0000000C  c_w.l(__rtentry2.o)
    0x0800026a   0x00000008   Code   RO         3880    .ARM.Collect$$rtentry$$0000000D  c_w.l(__rtentry2.o)
    0x08000272   0x00000002   Code   RO         4019    .ARM.Collect$$rtexit$$00000000  c_w.l(rtexit.o)
    0x08000274   0x00000000   Code   RO         4067    .ARM.Collect$$rtexit$$00000002  c_w.l(rtexit2.o)
    0x08000274   0x00000004   Code   RO         4068    .ARM.Collect$$rtexit$$00000003  c_w.l(rtexit2.o)
    0x08000278   0x00000006   Code   RO         4069    .ARM.Collect$$rtexit$$00000004  c_w.l(rtexit2.o)
    0x0800027e   0x00000002   PAD
    0x08000280   0x00000000   Code   RO         3895    .emb_text           c_w.l(maybetermalloc1.o)
    0x08000280   0x00000040   Code   RO          206    .text               startup_stm32f10x_hd.o
    0x080002c0   0x0000005e   Code   RO         3529    .text               c_w.l(h1_alloc.o)
    0x0800031e   0x00000002   PAD
    0x08000320   0x00000034   Code   RO         3583    .text               c_w.l(c89vsnprintf.o)
    0x08000354   0x0000004e   Code   RO         3585    .text               c_w.l(rt_memclr_w.o)
    0x080003a2   0x00000002   PAD
    0x080003a4   0x00000080   Code   RO         3587    .text               c_w.l(strcmpv7m.o)
    0x08000424   0x00000006   Code   RO         3589    .text               c_w.l(heapauxi.o)
    0x0800042a   0x00000002   PAD
    0x0800042c   0x00000008   Code   RO         3653    .text               c_w.l(rt_heap_descriptor_intlibspace.o)
    0x08000434   0x00000004   Code   RO         3655    .text               c_w.l(hguard.o)
    0x08000438   0x0000008a   Code   RO         3657    .text               c_w.l(init_alloc.o)
    0x080004c2   0x0000000e   Code   RO         3663    .text               c_w.l(h1_init.o)
    0x080004d0   0x0000004e   Code   RO         3665    .text               c_w.l(h1_free.o)
    0x0800051e   0x00000016   Code   RO         3681    .text               c_w.l(_rserrno.o)
    0x08000534   0x0000004e   Code   RO         3685    .text               c_w.l(_printf_pad.o)
    0x08000582   0x00000024   Code   RO         3687    .text               c_w.l(_printf_truncate.o)
    0x080005a6   0x00000052   Code   RO         3689    .text               c_w.l(_printf_str.o)
    0x080005f8   0x00000078   Code   RO         3691    .text               c_w.l(_printf_dec.o)
    0x08000670   0x00000028   Code   RO         3693    .text               c_w.l(_printf_charcount.o)
    0x08000698   0x00000030   Code   RO         3695    .text               c_w.l(_printf_char_common.o)
    0x080006c8   0x0000000a   Code   RO         3697    .text               c_w.l(_sputc.o)
    0x080006d2   0x00000010   Code   RO         3699    .text               c_w.l(_snputc.o)
    0x080006e2   0x00000002   PAD
    0x080006e4   0x000000bc   Code   RO         3701    .text               c_w.l(_printf_wctomb.o)
    0x080007a0   0x0000007c   Code   RO         3704    .text               c_w.l(_printf_longlong_dec.o)
    0x0800081c   0x00000070   Code   RO         3710    .text               c_w.l(_printf_oct_int_ll.o)
    0x0800088c   0x00000094   Code   RO         3730    .text               c_w.l(_printf_hex_int_ll_ptr.o)
    0x08000920   0x00000188   Code   RO         3750    .text               c_w.l(__printf_flags_ss_wp.o)
    0x08000aa8   0x000000a0   Code   RO         3776    .text               c_w.l(strtod.o)
    0x08000b48   0x00000008   Code   RO         3870    .text               c_w.l(libspace.o)
    0x08000b50   0x00000008   Code   RO         3891    .text               c_w.l(rt_errno_addr_intlibspace.o)
    0x08000b58   0x00000034   Code   RO         3897    .text               c_w.l(h1_extend.o)
    0x08000b8c   0x0000008a   Code   RO         3901    .text               c_w.l(lludiv10.o)
    0x08000c16   0x00000012   Code   RO         3903    .text               c_w.l(isspace.o)
    0x08000c28   0x000000b2   Code   RO         3905    .text               c_w.l(_printf_intcommon.o)
    0x08000cda   0x0000041a   Code   RO         3907    .text               c_w.l(_printf_fp_dec.o)
    0x080010f4   0x0000002c   Code   RO         3911    .text               c_w.l(_printf_char.o)
    0x08001120   0x0000002c   Code   RO         3913    .text               c_w.l(_printf_wchar.o)
    0x0800114c   0x00000040   Code   RO         3916    .text               c_w.l(_sgetc.o)
    0x0800118c   0x00000040   Code   RO         3918    .text               c_w.l(_wcrtomb.o)
    0x080011cc   0x0000000e   Code   RO         3923    .text               c_w.l(defsig_rtmem_outer.o)
    0x080011da   0x00000002   Code   RO         3952    .text               c_w.l(use_no_semi.o)
    0x080011dc   0x00000000   Code   RO         3954    .text               c_w.l(indicate_semi.o)
    0x080011dc   0x0000004a   Code   RO         3955    .text               c_w.l(sys_stackheap_outer.o)
    0x08001226   0x00000002   PAD
    0x08001228   0x00000010   Code   RO         3957    .text               c_w.l(rt_ctype_table.o)
    0x08001238   0x00000008   Code   RO         3964    .text               c_w.l(rt_locale_intlibspace.o)
    0x08001240   0x00000080   Code   RO         3968    .text               c_w.l(_printf_fp_infnan.o)
    0x080012c0   0x000004a4   Code   RO         3970    .text               c_w.l(scanf_fp.o)
    0x08001764   0x000000dc   Code   RO         3972    .text               c_w.l(bigflt0.o)
    0x08001840   0x0000000c   Code   RO         3997    .text               c_w.l(exit.o)
    0x0800184c   0x0000000a   Code   RO         3999    .text               c_w.l(defsig_exit.o)
    0x08001856   0x00000002   PAD
    0x08001858   0x00000050   Code   RO         4001    .text               c_w.l(defsig_rtmem_inner.o)
    0x080018a8   0x0000000c   Code   RO         4017    .text               c_w.l(sys_exit.o)
    0x080018b4   0x00000032   Code   RO         4030    .text               c_w.l(defsig_general.o)
    0x080018e6   0x0000000e   Code   RO         4064    .text               c_w.l(sys_wrch.o)
    0x080018f4   0x00000318   Code   RO         4073    .text               c_w.l(scanf_hexfp.o)
    0x08001c0c   0x00000134   Code   RO         4075    .text               c_w.l(scanf_infnan.o)
    0x08001d40   0x00000026   Code   RO         4089    .text               c_w.l(llshl.o)
    0x08001d66   0x0000001c   Code   RO         4091    .text               c_w.l(_chval.o)
    0x08001d82   0x0000003e   Code   RO         3975    CL$$btod_d2e        c_w.l(btod.o)
    0x08001dc0   0x00000046   Code   RO         3977    CL$$btod_d2e_denorm_low  c_w.l(btod.o)
    0x08001e06   0x00000060   Code   RO         3976    CL$$btod_d2e_norm_op1  c_w.l(btod.o)
    0x08001e66   0x00000338   Code   RO         3985    CL$$btod_div_common  c_w.l(btod.o)
    0x0800219e   0x00000002   PAD
    0x080021a0   0x00000054   Code   RO         3983    CL$$btod_e2d        c_w.l(btod.o)
    0x080021f4   0x000000c6   Code   RO         3982    CL$$btod_e2e        c_w.l(btod.o)
    0x080022ba   0x00000028   Code   RO         3979    CL$$btod_ediv       c_w.l(btod.o)
    0x080022e2   0x00000028   Code   RO         3981    CL$$btod_edivd      c_w.l(btod.o)
    0x0800230a   0x00000028   Code   RO         3978    CL$$btod_emul       c_w.l(btod.o)
    0x08002332   0x00000028   Code   RO         3980    CL$$btod_emuld      c_w.l(btod.o)
    0x0800235a   0x00000244   Code   RO         3984    CL$$btod_mult_common  c_w.l(btod.o)
    0x0800259e   0x00000002   Code   RO         3241    i.ADC1_2_IRQHandler  adc.o
    0x080025a0   0x000000a4   Code   RO         3466    i.DataScope_Get_Channel_Data  datascope_dp.o
    0x08002644   0x0000001c   Code   RO         1000    i.FLASH_PrefetchBufferCmd  stm32f10x_flash.o
    0x08002660   0x00000018   Code   RO         1005    i.FLASH_SetLatency  stm32f10x_flash.o
    0x08002678   0x0000001c   Code   RO         3467    i.Float2Byte        datascope_dp.o
    0x08002694   0x00000116   Code   RO         1289    i.GPIO_Init         stm32f10x_gpio.o
    0x080027aa   0x00000002   PAD
    0x080027ac   0x00000090   Code   RO         1291    i.GPIO_PinRemapConfig  stm32f10x_gpio.o
    0x0800283c   0x00000028   Code   RO         3126    i.KEY_Init          key.o
    0x08002864   0x00000028   Code   RO         3417    i.Motor1            pwm.o
    0x0800288c   0x00000028   Code   RO         3418    i.Motor2            pwm.o
    0x080028b4   0x00000046   Code   RO            1    i.NVIC_Config       main.o
    0x080028fa   0x00000002   PAD
    0x080028fc   0x00000070   Code   RO          210    i.NVIC_Init         misc.o
    0x0800296c   0x00000014   Code   RO          211    i.NVIC_PriorityGroupConfig  misc.o
    0x08002980   0x000000f0   Code   RO         3419    i.PWM_Init          pwm.o
    0x08002a70   0x00000020   Code   RO         1714    i.RCC_APB1PeriphClockCmd  stm32f10x_rcc.o
    0x08002a90   0x00000020   Code   RO         1715    i.RCC_APB1PeriphResetCmd  stm32f10x_rcc.o
    0x08002ab0   0x00000020   Code   RO         1716    i.RCC_APB2PeriphClockCmd  stm32f10x_rcc.o
    0x08002ad0   0x00000020   Code   RO         1717    i.RCC_APB2PeriphResetCmd  stm32f10x_rcc.o
    0x08002af0   0x0000004c   Code   RO         1723    i.RCC_DeInit        stm32f10x_rcc.o
    0x08002b3c   0x000000d4   Code   RO         1724    i.RCC_GetClocksFreq  stm32f10x_rcc.o
    0x08002c10   0x0000003c   Code   RO         1725    i.RCC_GetFlagStatus  stm32f10x_rcc.o
    0x08002c4c   0x00000010   Code   RO         1727    i.RCC_GetSYSCLKSource  stm32f10x_rcc.o
    0x08002c5c   0x00000018   Code   RO         1728    i.RCC_HCLKConfig    stm32f10x_rcc.o
    0x08002c74   0x0000004c   Code   RO         1729    i.RCC_HSEConfig     stm32f10x_rcc.o
    0x08002cc0   0x00000018   Code   RO         1735    i.RCC_PCLK1Config   stm32f10x_rcc.o
    0x08002cd8   0x00000018   Code   RO         1736    i.RCC_PCLK2Config   stm32f10x_rcc.o
    0x08002cf0   0x0000000c   Code   RO         1737    i.RCC_PLLCmd        stm32f10x_rcc.o
    0x08002cfc   0x0000001c   Code   RO         1738    i.RCC_PLLConfig     stm32f10x_rcc.o
    0x08002d18   0x00000018   Code   RO         1741    i.RCC_SYSCLKConfig  stm32f10x_rcc.o
    0x08002d30   0x00000038   Code   RO         1743    i.RCC_WaitForHSEStartUp  stm32f10x_rcc.o
    0x08002d68   0x00000020   Code   RO         3354    i.Rcc_init          rcc.o
    0x08002d88   0x00000008   Code   RO          147    i.SetSysClock       system_stm32f10x.o
    0x08002d90   0x000000e0   Code   RO          148    i.SetSysClockTo72   system_stm32f10x.o
    0x08002e70   0x000000b0   Code   RO         3213    i.Speed_PIDAdjust   pid.o
    0x08002f20   0x00000024   Code   RO         3214    i.Speed_PIDInit     pid.o
    0x08002f44   0x00000028   Code   RO          214    i.SysTick_CLKSourceConfig  misc.o
    0x08002f6c   0x00000060   Code   RO          150    i.SystemInit        system_stm32f10x.o
    0x08002fcc   0x0000006a   Code   RO         3355    i.System_clk_set    rcc.o
    0x08003036   0x00000002   PAD
    0x08003038   0x00000080   Code   RO         2341    i.TI1_Config        stm32f10x_tim.o
    0x080030b8   0x00000098   Code   RO         2342    i.TI2_Config        stm32f10x_tim.o
    0x08003150   0x00000090   Code   RO         2343    i.TI3_Config        stm32f10x_tim.o
    0x080031e0   0x00000098   Code   RO         2344    i.TI4_Config        stm32f10x_tim.o
    0x08003278   0x000000a4   Code   RO         3276    i.TIM1_init         tim.o
    0x0800331c   0x000000ac   Code   RO         3277    i.TIM2_init         tim.o
    0x080033c8   0x0000016c   Code   RO         3278    i.TIM4_IRQHandler   tim.o
    0x08003534   0x00000038   Code   RO         3279    i.TIM4_Init         tim.o
    0x0800356c   0x00000018   Code   RO         2345    i.TIM_ARRPreloadConfig  stm32f10x_tim.o
    0x08003584   0x00000006   Code   RO         2351    i.TIM_ClearFlag     stm32f10x_tim.o
    0x0800358a   0x00000006   Code   RO         2352    i.TIM_ClearITPendingBit  stm32f10x_tim.o
    0x08003590   0x00000018   Code   RO         2357    i.TIM_Cmd           stm32f10x_tim.o
    0x080035a8   0x000001e8   Code   RO         2362    i.TIM_DeInit        stm32f10x_tim.o
    0x08003790   0x00000042   Code   RO         2366    i.TIM_EncoderInterfaceConfig  stm32f10x_tim.o
    0x080037d2   0x00000006   Code   RO         2376    i.TIM_GetCounter    stm32f10x_tim.o
    0x080037d8   0x00000022   Code   RO         2378    i.TIM_GetITStatus   stm32f10x_tim.o
    0x080037fa   0x00000002   PAD
    0x080037fc   0x000000ac   Code   RO         2380    i.TIM_ICInit        stm32f10x_tim.o
    0x080038a8   0x00000012   Code   RO         2381    i.TIM_ICStructInit  stm32f10x_tim.o
    0x080038ba   0x00000012   Code   RO         2382    i.TIM_ITConfig      stm32f10x_tim.o
    0x080038cc   0x00000098   Code   RO         2386    i.TIM_OC1Init       stm32f10x_tim.o
    0x08003964   0x00000012   Code   RO         2389    i.TIM_OC1PreloadConfig  stm32f10x_tim.o
    0x08003976   0x00000002   PAD
    0x08003978   0x000000a4   Code   RO         2391    i.TIM_OC2Init       stm32f10x_tim.o
    0x08003a1c   0x0000001a   Code   RO         2394    i.TIM_OC2PreloadConfig  stm32f10x_tim.o
    0x08003a36   0x00000002   PAD
    0x08003a38   0x000000a0   Code   RO         2396    i.TIM_OC3Init       stm32f10x_tim.o
    0x08003ad8   0x00000012   Code   RO         2399    i.TIM_OC3PreloadConfig  stm32f10x_tim.o
    0x08003aea   0x00000002   PAD
    0x08003aec   0x0000007c   Code   RO         2401    i.TIM_OC4Init       stm32f10x_tim.o
    0x08003b68   0x0000001a   Code   RO         2403    i.TIM_OC4PreloadConfig  stm32f10x_tim.o
    0x08003b82   0x00000012   Code   RO         2423    i.TIM_SetIC1Prescaler  stm32f10x_tim.o
    0x08003b94   0x0000001a   Code   RO         2424    i.TIM_SetIC2Prescaler  stm32f10x_tim.o
    0x08003bae   0x00000012   Code   RO         2425    i.TIM_SetIC3Prescaler  stm32f10x_tim.o
    0x08003bc0   0x0000001a   Code   RO         2426    i.TIM_SetIC4Prescaler  stm32f10x_tim.o
    0x08003bda   0x00000002   PAD
    0x08003bdc   0x000000a4   Code   RO         2428    i.TIM_TimeBaseInit  stm32f10x_tim.o
    0x08003c80   0x00000012   Code   RO         2429    i.TIM_TimeBaseStructInit  stm32f10x_tim.o
    0x08003c92   0x00000002   PAD
    0x08003c94   0x000000c4   Code   RO         3154    i.USART1_Config     usart2.o
    0x08003d58   0x0000019c   Code   RO         3155    i.USART1_IRQHandler  usart2.o
    0x08003ef4   0x00000012   Code   RO         2889    i.USART_ClearFlag   stm32f10x_usart.o
    0x08003f06   0x0000001e   Code   RO         2890    i.USART_ClearITPendingBit  stm32f10x_usart.o
    0x08003f24   0x00000022   Code   RO         2891    i.USART_ClockInit   stm32f10x_usart.o
    0x08003f46   0x00000018   Code   RO         2893    i.USART_Cmd         stm32f10x_usart.o
    0x08003f5e   0x0000001a   Code   RO         2896    i.USART_GetFlagStatus  stm32f10x_usart.o
    0x08003f78   0x00000054   Code   RO         2897    i.USART_GetITStatus  stm32f10x_usart.o
    0x08003fcc   0x0000004a   Code   RO         2899    i.USART_ITConfig    stm32f10x_usart.o
    0x08004016   0x00000002   PAD
    0x08004018   0x000000d8   Code   RO         2900    i.USART_Init        stm32f10x_usart.o
    0x080040f0   0x0000000a   Code   RO         2907    i.USART_ReceiveData  stm32f10x_usart.o
    0x080040fa   0x00000008   Code   RO         2910    i.USART_SendData    stm32f10x_usart.o
    0x08004102   0x00000028   Code   RO         3948    i.__ARM_fpclassify  m_ws.l(fpclassify.o)
    0x0800412a   0x00000002   PAD
    0x0800412c   0x00000388   Code   RO         3857    i.__ieee754_rem_pio2  m_ws.l(rred.o)
    0x080044b4   0x000000fc   Code   RO         3840    i.__kernel_cos      m_ws.l(cos_i.o)
    0x080045b0   0x000000aa   Code   RO         3950    i.__kernel_poly     m_ws.l(poly.o)
    0x0800465a   0x00000002   PAD
    0x0800465c   0x000000ec   Code   RO         3862    i.__kernel_sin      m_ws.l(sin_i.o)
    0x08004748   0x00000006   Code   RO         3844    i.__mathlib_dbl_infnan  m_ws.l(dunder.o)
    0x0800474e   0x0000000c   Code   RO         3846    i.__mathlib_dbl_invalid  m_ws.l(dunder.o)
    0x0800475a   0x0000000e   Code   RO         3847    i.__mathlib_dbl_overflow  m_ws.l(dunder.o)
    0x08004768   0x00000010   Code   RO         3849    i.__mathlib_dbl_underflow  m_ws.l(dunder.o)
    0x08004778   0x00000010   Code   RO         4058    i.__mathlib_narrow  m_ws.l(narrow.o)
    0x08004788   0x00000088   Code   RO         4059    i.__mathlib_tofloat  m_ws.l(narrow.o)
    0x08004810   0x00000016   Code   RO         4117    i.__support_ldexp   m_ws.l(ldexp.o)
    0x08004826   0x0000000e   Code   RO         3743    i._is_digit         c_w.l(__printf_wp.o)
    0x08004834   0x0000002a   Code   RO         3636    i.atof              m_ws.l(atof.o)
    0x0800485e   0x00000002   PAD
    0x08004860   0x00000060   Code   RO         3156    i.cmd_exec          usart2.o
    0x080048c0   0x00000088   Code   RO         3157    i.cmd_parse         usart2.o
    0x08004948   0x00000044   Code   RO         3325    i.delay_init        delay.o
    0x0800498c   0x00000058   Code   RO         4086    i.frexp             m_ws.l(frexp.o)
    0x080049e4   0x00000074   Code   RO         4118    i.ldexp             m_ws.l(ldexp.o)
    0x08004a58   0x00000048   Code   RO            2    i.main              main.o
    0x08004aa0   0x0000005c   Code   RO         3496    i.set_speed_p       usart_function.o
    0x08004afc   0x000000a0   Code   RO         3640    i.sin               m_ws.l(sin.o)
    0x08004b9c   0x0000008a   Code   RO         3158    i.uprintf           usart2.o
    0x08004c26   0x00000002   PAD
    0x08004c28   0x0000002c   Code   RO         3921    locale$$code        c_w.l(lc_numeric_c.o)
    0x08004c54   0x0000002c   Code   RO         4026    locale$$code        c_w.l(lc_ctype_c.o)
    0x08004c80   0x00000062   Code   RO         3593    x$fpl$d2f           fz_ws.l(d2f.o)
    0x08004ce2   0x00000002   PAD
    0x08004ce4   0x00000150   Code   RO         3595    x$fpl$dadd          fz_ws.l(daddsub_clz.o)
    0x08004e34   0x00000010   Code   RO         4013    x$fpl$dcheck1       fz_ws.l(dcheck1.o)
    0x08004e44   0x00000018   Code   RO         4112    x$fpl$dcmpinf       fz_ws.l(dcmpi.o)
    0x08004e5c   0x000002b0   Code   RO         3933    x$fpl$ddiv          fz_ws.l(ddiv.o)
    0x0800510c   0x00000078   Code   RO         4079    x$fpl$deqf          fz_ws.l(deqf.o)
    0x08005184   0x0000005e   Code   RO         3601    x$fpl$dfix          fz_ws.l(dfix.o)
    0x080051e2   0x0000002e   Code   RO         3937    x$fpl$dflt          fz_ws.l(dflt_clz.o)
    0x08005210   0x00000026   Code   RO         3936    x$fpl$dfltu         fz_ws.l(dflt_clz.o)
    0x08005236   0x00000002   PAD
    0x08005238   0x00000078   Code   RO         4114    x$fpl$dleqf         fz_ws.l(dleqf.o)
    0x080052b0   0x00000154   Code   RO         3605    x$fpl$dmul          fz_ws.l(dmul.o)
    0x08005404   0x0000009c   Code   RO         3827    x$fpl$dnaninf       fz_ws.l(dnaninf.o)
    0x080054a0   0x0000000c   Code   RO         3829    x$fpl$dretinf       fz_ws.l(dretinf.o)
    0x080054ac   0x0000006c   Code   RO         4081    x$fpl$drleqf        fz_ws.l(drleqf.o)
    0x08005518   0x00000016   Code   RO         3596    x$fpl$drsb          fz_ws.l(daddsub_clz.o)
    0x0800552e   0x00000002   PAD
    0x08005530   0x000001d4   Code   RO         3597    x$fpl$dsub          fz_ws.l(daddsub_clz.o)
    0x08005704   0x00000056   Code   RO         3607    x$fpl$f2d           fz_ws.l(f2d.o)
    0x0800575a   0x00000002   PAD
    0x0800575c   0x000000c4   Code   RO         3609    x$fpl$fadd          fz_ws.l(faddsub_clz.o)
    0x08005820   0x00000018   Code   RO         3831    x$fpl$fcmpinf       fz_ws.l(fcmpi.o)
    0x08005838   0x00000184   Code   RO         3616    x$fpl$fdiv          fz_ws.l(fdiv.o)
    0x080059bc   0x00000068   Code   RO         3619    x$fpl$feqf          fz_ws.l(feqf.o)
    0x08005a24   0x00000036   Code   RO         3621    x$fpl$ffix          fz_ws.l(ffix.o)
    0x08005a5a   0x00000002   PAD
    0x08005a5c   0x00000030   Code   RO         3626    x$fpl$fflt          fz_ws.l(fflt_clz.o)
    0x08005a8c   0x00000068   Code   RO         3631    x$fpl$fleqf         fz_ws.l(fleqf.o)
    0x08005af4   0x00000102   Code   RO         3633    x$fpl$fmul          fz_ws.l(fmul.o)
    0x08005bf6   0x0000008c   Code   RO         3833    x$fpl$fnaninf       fz_ws.l(fnaninf.o)
    0x08005c82   0x0000000a   Code   RO         3835    x$fpl$fretinf       fz_ws.l(fretinf.o)
    0x08005c8c   0x000000ea   Code   RO         3611    x$fpl$fsub          fz_ws.l(faddsub_clz.o)
    0x08005d76   0x00000004   Code   RO         3837    x$fpl$printf1       fz_ws.l(printf1.o)
    0x08005d7a   0x00000064   Code   RO         4050    x$fpl$retnan        fz_ws.l(retnan.o)
    0x08005dde   0x0000005c   Code   RO         3944    x$fpl$scalbn        fz_ws.l(scalbn.o)
    0x08005e3a   0x00000004   Code   RO         3946    x$fpl$scanf1        fz_ws.l(scanf1.o)
    0x08005e3e   0x00000008   Code   RO         4052    x$fpl$scanf2        fz_ws.l(scanf2.o)
    0x08005e46   0x00000030   Code   RO         4083    x$fpl$trapveneer    fz_ws.l(trapv.o)
    0x08005e76   0x00000000   Code   RO         3839    x$fpl$usenofp       fz_ws.l(usenofp.o)
    0x08005e76   0x00000002   PAD
    0x08005e78   0x00000008   Data   RO         3702    .constdata          c_w.l(_printf_wctomb.o)
    0x08005e80   0x00000028   Data   RO         3731    .constdata          c_w.l(_printf_hex_int_ll_ptr.o)
    0x08005ea8   0x00000011   Data   RO         3751    .constdata          c_w.l(__printf_flags_ss_wp.o)
    0x08005eb9   0x00000007   PAD
    0x08005ec0   0x00000030   Data   RO         3841    .constdata          m_ws.l(cos_i.o)
    0x08005ef0   0x000000c8   Data   RO         3859    .constdata          m_ws.l(rred.o)
    0x08005fb8   0x00000028   Data   RO         3863    .constdata          m_ws.l(sin_i.o)
    0x08005fe0   0x00000094   Data   RO         3973    .constdata          c_w.l(bigflt0.o)
    0x08006074   0x00000020   Data   RO         4129    Region$$Table       anon$$obj.o
    0x08006094   0x00000008   Data   RO         4047    c$$dinf             fz_ws.l(fpconst.o)
    0x0800609c   0x0000001c   Data   RO         3920    locale$$data        c_w.l(lc_numeric_c.o)
    0x080060b8   0x00000110   Data   RO         4025    locale$$data        c_w.l(lc_ctype_c.o)


    Execution Region RW_IRAM1 (Base: 0x20000000, Size: 0x00000850, Max: 0x00005000, ABSOLUTE)

    Base Addr    Size         Type   Attr      Idx    E Section Name        Object

    0x20000000   0x00000014   Data   RW          151    .data               system_stm32f10x.o
    0x20000014   0x00000014   Data   RW         1744    .data               stm32f10x_rcc.o
    0x20000028   0x00000008   Data   RW         3128    .data               key.o
    0x20000030   0x0000003c   Data   RW         3160    .data               usart2.o
    0x2000006c   0x00000018   Data   RW         3280    .data               tim.o
    0x20000084   0x00000004   Data   RW         3328    .data               delay.o
    0x20000088   0x00000040   Zero   RW            3    .bss                main.o
    0x200000c8   0x000000f8   Zero   RW         3159    .bss                usart2.o
    0x200001c0   0x0000002a   Zero   RW         3468    .bss                datascope_dp.o
    0x200001ea   0x00000002   PAD
    0x200001ec   0x00000060   Zero   RW         3871    .bss                c_w.l(libspace.o)
    0x2000024c   0x00000004   PAD
    0x20000250   0x00000200   Zero   RW          204    HEAP                startup_stm32f10x_hd.o
    0x20000450   0x00000400   Zero   RW          203    STACK               startup_stm32f10x_hd.o


==============================================================================

Image component sizes


      Code (inc. data)   RO Data    RW Data    ZI Data      Debug   Object Name

         2          0          0          0          0        376   adc.o
         0          0          0          0          0         32   core_cm3.o
       192         18          0          0         42       1760   datascope_dp.o
        68         18          0          4          0        601   delay.o
        40          6          0          8          0        929   key.o
       142          8          0          0         64     252876   main.o
       172         22          0          0          0       2009   misc.o
       212         18          0          0          0       1790   pid.o
       320         26          0          0          0       1617   pwm.o
       138          6          0          0          0        932   rcc.o
        64         26        304          0       1536        784   startup_stm32f10x_hd.o
        52         12          0          0          0       1057   stm32f10x_flash.o
       422          6          0          0          0       2738   stm32f10x_gpio.o
       760        104          0         20          0      11332   stm32f10x_rcc.o
      2396        264          0          0          0      18357   stm32f10x_tim.o
       524          6          0          0          0       7767   stm32f10x_usart.o
       328         28          0         20          0       2037   system_stm32f10x.o
       756         78          0         24          0       2676   tim.o
       978        120          0         60        248       5903   usart2.o
        92         34          0          0          0        554   usart_function.o

    ----------------------------------------------------------------------
      7680        800        336        136       1892     316127   Object Totals
         0          0         32          0          0          0   (incl. Generated)
        22          0          0          0          2          0   (incl. Padding)

    ----------------------------------------------------------------------

      Code (inc. data)   RO Data    RW Data    ZI Data      Debug   Library Member Name

         8          0          0          0          0         68   __main.o
       392          4         17          0          0         92   __printf_flags_ss_wp.o
        14          0          0          0          0         68   __printf_wp.o
         0          0          0          0          0          0   __rtentry.o
        12          0          0          0          0          0   __rtentry2.o
         6          0          0          0          0          0   __rtentry4.o
        52          8          0          0          0          0   __scatter.o
        26          0          0          0          0          0   __scatter_copy.o
        28          0          0          0          0          0   __scatter_zi.o
        28          0          0          0          0         68   _chval.o
         6          0          0          0          0          0   _printf_a.o
         6          0          0          0          0          0   _printf_c.o
        44          0          0          0          0        108   _printf_char.o
        48          6          0          0          0         96   _printf_char_common.o
        40          0          0          0          0         68   _printf_charcount.o
         6          0          0          0          0          0   _printf_d.o
       120         16          0          0          0         92   _printf_dec.o
         6          0          0          0          0          0   _printf_e.o
         6          0          0          0          0          0   _printf_f.o
      1050          0          0          0          0        216   _printf_fp_dec.o
       128         16          0          0          0         84   _printf_fp_infnan.o
         6          0          0          0          0          0   _printf_g.o
       148          4         40          0          0        160   _printf_hex_int_ll_ptr.o
         6          0          0          0          0          0   _printf_i.o
       178          0          0          0          0         88   _printf_intcommon.o
        10          0          0          0          0          0   _printf_l.o
         6          0          0          0          0          0   _printf_lc.o
        10          0          0          0          0          0   _printf_ll.o
         6          0          0          0          0          0   _printf_lld.o
         6          0          0          0          0          0   _printf_lli.o
         6          0          0          0          0          0   _printf_llo.o
         6          0          0          0          0          0   _printf_llu.o
         6          0          0          0          0          0   _printf_llx.o
       124         16          0          0          0         92   _printf_longlong_dec.o
         6          0          0          0          0          0   _printf_ls.o
         6          0          0          0          0          0   _printf_n.o
         6          0          0          0          0          0   _printf_o.o
       112          8          0          0          0        124   _printf_oct_int_ll.o
         6          0          0          0          0          0   _printf_p.o
        78          0          0          0          0        108   _printf_pad.o
         0          0          0          0          0          0   _printf_percent.o
         4          0          0          0          0          0   _printf_percent_end.o
         6          0          0          0          0          0   _printf_s.o
        82          0          0          0          0         80   _printf_str.o
        36          0          0          0          0         84   _printf_truncate.o
         6          0          0          0          0          0   _printf_u.o
        44          0          0          0          0        108   _printf_wchar.o
       188          6          8          0          0         92   _printf_wctomb.o
         6          0          0          0          0          0   _printf_x.o
        22          0          0          0          0        100   _rserrno.o
        64          0          0          0          0         84   _sgetc.o
        16          0          0          0          0         68   _snputc.o
        10          0          0          0          0         68   _sputc.o
        64          0          0          0          0         92   _wcrtomb.o
       220          4        148          0          0         96   bigflt0.o
      2074        132          0          0          0        940   btod.o
        52          4          0          0          0         80   c89vsnprintf.o
        10          0          0          0          0         68   defsig_exit.o
        50          0          0          0          0         88   defsig_general.o
        80         58          0          0          0         76   defsig_rtmem_inner.o
        14          0          0          0          0         80   defsig_rtmem_outer.o
        12          0          0          0          0         72   exit.o
        94          0          0          0          0         80   h1_alloc.o
        52          0          0          0          0         68   h1_extend.o
        78          0          0          0          0         80   h1_free.o
        14          0          0          0          0         84   h1_init.o
         6          0          0          0          0        152   heapauxi.o
         4          0          0          0          0        136   hguard.o
         0          0          0          0          0          0   indicate_semi.o
       138          0          0          0          0        168   init_alloc.o
        18          0          0          0          0         76   isspace.o
        44         10        272          0          0         76   lc_ctype_c.o
        44         10         28          0          0         76   lc_numeric_c.o
         2          0          0          0          0          0   libinit.o
        38          0          0          0          0          0   libinit2.o
         2          0          0          0          0          0   libshutdown.o
         2          0          0          0          0          0   libshutdown2.o
         8          4          0          0         96         68   libspace.o
        38          0          0          0          0         68   llshl.o
       138          0          0          0          0         80   lludiv10.o
         0          0          0          0          0          0   maybetermalloc1.o
        16          4          0          0          0         76   rt_ctype_table.o
         8          4          0          0          0         68   rt_errno_addr_intlibspace.o
         8          4          0          0          0         68   rt_heap_descriptor_intlibspace.o
         8          4          0          0          0         68   rt_locale_intlibspace.o
        78          0          0          0          0         80   rt_memclr_w.o
         2          0          0          0          0          0   rtexit.o
        10          0          0          0          0          0   rtexit2.o
      1188         12          0          0          0        148   scanf_fp.o
       792         14          0          0          0        100   scanf_hexfp.o
       308         16          0          0          0        100   scanf_infnan.o
       128          0          0          0          0         68   strcmpv7m.o
       160         12          0          0          0        120   strtod.o
        12          4          0          0          0         68   sys_exit.o
        74          0          0          0          0         80   sys_stackheap_outer.o
        14          0          0          0          0         76   sys_wrch.o
         2          0          0          0          0         68   use_no_semi.o
        98          4          0          0          0         92   d2f.o
       826         16          0          0          0        348   daddsub_clz.o
        16          4          0          0          0         68   dcheck1.o
        24          0          0          0          0         68   dcmpi.o
       688        140          0          0          0        208   ddiv.o
       120          4          0          0          0         92   deqf.o
        94          4          0          0          0         92   dfix.o
        84          0          0          0          0        136   dflt_clz.o
       120          4          0          0          0         92   dleqf.o
       340         12          0          0          0        104   dmul.o
       156          4          0          0          0         92   dnaninf.o
        12          0          0          0          0         68   dretinf.o
       108          0          0          0          0         80   drleqf.o
        86          4          0          0          0         84   f2d.o
       430          8          0          0          0        168   faddsub_clz.o
        24          0          0          0          0         68   fcmpi.o
       388         76          0          0          0         96   fdiv.o
       104          4          0          0          0         84   feqf.o
        54          4          0          0          0         84   ffix.o
        48          0          0          0          0         68   fflt_clz.o
       104          4          0          0          0         84   fleqf.o
       258          4          0          0          0         84   fmul.o
       140          4          0          0          0         84   fnaninf.o
         0          0          8          0          0          0   fpconst.o
        10          0          0          0          0         68   fretinf.o
         4          0          0          0          0         68   printf1.o
       100          0          0          0          0         68   retnan.o
        92          0          0          0          0         68   scalbn.o
         4          0          0          0          0         68   scanf1.o
         8          0          0          0          0         84   scanf2.o
        48          0          0          0          0         68   trapv.o
         0          0          0          0          0          0   usenofp.o
        42          0          0          0          0         84   atof.o
       252         22         48          0          0        124   cos_i.o
        48          6          0          0          0        272   dunder.o
        40          0          0          0          0         68   fpclassify.o
        88          8          0          0          0         76   frexp.o
       138          0          0          0          0        160   ldexp.o
       152          4          0          0          0        168   narrow.o
       170          0          0          0          0         96   poly.o
       904         76        200          0          0        140   rred.o
       160         10          0          0          0        108   sin.o
       236         12         40          0          0        128   sin_i.o

    ----------------------------------------------------------------------
     16200        820        816          0        100      10568   Library Totals
        36          2          7          0          4          0   (incl. Padding)

    ----------------------------------------------------------------------

      Code (inc. data)   RO Data    RW Data    ZI Data      Debug   Library Name

      9346        380        513          0         96       6208   c_w.l
      4588        300          8          0          0       2936   fz_ws.l
      2230        138        288          0          0       1424   m_ws.l

    ----------------------------------------------------------------------
     16200        820        816          0        100      10568   Library Totals

    ----------------------------------------------------------------------

==============================================================================


      Code (inc. data)   RO Data    RW Data    ZI Data      Debug   

     23880       1620       1152        136       1992     316239   Grand Totals
     23880       1620       1152        136       1992     316239   ELF Image Totals
     23880       1620       1152        136          0          0   ROM Totals

==============================================================================

    Total RO  Size (Code + RO Data)                25032 (  24.45kB)
    Total RW  Size (RW Data + ZI Data)              2128 (   2.08kB)
    Total ROM Size (Code + RO Data + RW Data)      25168 (  24.58kB)

==============================================================================

