:020000040800F2
:100000005008002081020008890200088B020008C5
:100010008D0200088F020008910200080000000015
:100020000000000000000000000000009302000833
:1000300095020008000000009702000899020008DD
:100040009B0200089B0200089B0200089B0200081C
:100050009B0200089B0200089B0200089B0200080C
:100060009B0200089B0200089B0200089B020008FC
:100070009B0200089B0200089B0200089B020008EC
:100080009B0200089B0200089F2500089B020008B5
:100090009B0200089B0200089B0200089B020008CC
:1000A0009B0200089B0200089B0200089B020008BC
:1000B0009B0200089B020008C93300089B0200084D
:1000C0009B0200089B0200089B0200089B0200089C
:1000D0009B020008593D00089B0200089B02000893
:1000E0009B0200089B0200089B0200089B0200087C
:1000F0009B0200089B0200089B0200089B0200086C
:100100009B0200089B0200089B0200089B0200085B
:100110009B0200089B0200089B0200089B0200084B
:100120009B0200089B0200089B0200089B0200083B
:1001300000F002F800F094F80AA090E8000C824465
:100140008344AAF10107DA4501D100F089F8AFF242
:10015000090EBAE80F0013F0010F18BFFB1A43F0A5
:1001600001031847105F0000305F0000103A24BF01
:1001700078C878C1FAD8520724BF30C830C144BF0C
:1001800004680C607047000000230024002500264E
:10019000103A28BF78C1FBD8520728BF30C148BFEA
:1001A0000B6070476E2900F06382702900F0AD8308
:1001B000662905F0E085652905F0DD85672905F0EC
:1001C000DA856129AFF3008003681B0A28BF41F07C
:1001D0008001692900F01082642900F00D827529E0
:1001E00000F00A826F2900F03B83782900F07983C0
:1001F000E92900F0D582E42900F0D282F52900F047
:10020000CF82EF2900F03883F82900F07883036863
:10021000DB0928BF41F08001632900F0758773294D
:1002200000F07A87E32900F08587F32900F08A87B8
:10023000002070471FB59DE8030000F013F900F09F
:10024000FBFF04000020002104F004FD401C60605E
:100250000020002104F0E8FCE0601FBD10B510BDD7
:1002600000F0BCFF1146FFF7E5FF04F0F5FB01F0DD
:10027000E7FA03B4FFF7F2FF03BC01F015FB00003F
:100280000948804709480047FEE7FEE7FEE7FEE72A
:10029000FEE7FEE7FEE7FEE7FEE7FEE70448054966
:1002A000054A064B704700006D2F00083101000819
:1002B000500200205008002050040020500400206C
:1002C00070B5064600F0B2F8056806F10B0020F0A4
:1002D0000704B4429CBF002070BD2B466A68BAB1C7
:1002E0001068A04210D304F1080188423CBF506856
:1002F000586007D35168101941601168091B0160EB
:1003000058601460101D70BD13465268002AE7D172
:100310002146284600F092F80028DED170BD00008A
:100320007CB51D4616460C00009001D02044401EAE
:10033000074B7B442A4669460190304600F0B1F9EC
:1003400005461CB10020694600F0BEF928467CBD78
:100350009D0300004FF0000200B5134694469646F8
:10036000203922BFA0E80C50A0E80C50B1F12001C8
:10037000BFF4F7AF090728BFA0E80C5048BF0CC076
:100380005DF804EB890028BF40F8042B08BF7047D4
:1003900048BF20F8022B11F0804F18BF00F8012B46
:1003A000704700004FF0013C50F8042B51F8043B1B
:1003B0009A4221D1A2EB0C03934313EACC1317D139
:1003C00050F8042B51F8043B9A4215D1A2EB0C03D0
:1003D000934313EACC130BD150F8042B51F8043B90
:1003E0009A4209D1A2EB0C03934313EACC13DBD05E
:1003F0004FF00000704700BFD01A01BAB1FA81F186
:1004000001F0180122FA01F0CB40C1F12001DBB26A
:10041000C0B2C01A2CFA01F3D11A914311EAC311E8
:10042000E6D170477047704770470000004870473A
:10043000F4010020704770477047704738B5044694
:100440000A4600206946AFF30080002808BF38BD87
:1004500002460099204600F07FFB012038BD0120B4
:1004600000F0B4BEF8B5AFF30080054600200C469E
:10047000102000BF0646A819A0420DD93246694691
:100480000020AFF30080070008BF00F09FFE009837
:10049000A04218BF0546C419FFF7C8FF056007460C
:1004A000F01D20F007004619284600F00AF8B44273
:1004B00008BFF8BDA21B31463868BDE8F84000F01F
:1004C0004BBB00210160C0E901107047102070474C
:1004D00070B50446051FFFF7A9FF0068002C14BF84
:1004E000446870BD002C18BFAC423CBF2046646815
:1004F000F8D301680A18AA4218BF456003D12A68D8
:1005000005461144016028684119A1421CBF6C6076
:1005100070BD6168696021680844286070BD10B5CD
:1005200000F016FB006810BD10B5044600F010FB8B
:10053000046010BD70B5044685690068C10601D528
:10054000302600E02026C00707D070BDD4E9012185
:1005500030469047206A401C20626D1EF6D570BD63
:1005600070B5044685690078C00707D170BDD4E92D
:10057000012120209047206A401C20626D1EF6D584
:1005800070BD09684A0501D540B27047C905FCD560
:1005900000B2704709684A0501D5C0B27047C90565
:1005A000FCD580B2704770B50C460546012A05D0CF
:1005B0002878800600D5EA69002302E0012305E0DF
:1005C0005B1C934202D2E05C0028F9D1A869E618CE
:1005D000C01AA861286A184428622846FFF7AAFFB3
:1005E00004E0D5E9012114F8010B9047B442F8D397
:1005F0002846FFF7B5FF70BD2DE9F04106460024FF
:1006000010687529314616A510D0FFF7BAFF0028EB
:1006100002DA404213A507E031688A0701D512A526
:1006200002E0490704D511A5012401E0FFF7B2FF5C
:1006300000210A2206F1240709E0B0FBF2FCB0FB1E
:10064000F2F302FB1C00303078541846491C002895
:10065000F3D123462A463046BDE8F04100F0E4BA23
:10066000000000002D0000002B0000002000000012
:1006700011680268006A530501D508700AE0D305C5
:1006800001D5088006E0130603D5C217C1E90002B0
:1006900000E008600120704701694A1C0261087887
:1006A000704700B58FB0CDE90131002105910549B2
:1006B0007944CDE903101146684600F031F90FB0D6
:1006C00000BD0000E5FFFFFF0A6802F8010B0A60A9
:1006D0007047D1E900239A4202D2531C0B6010707C
:1006E000704700002DE9FF5F15468A460446DFF893
:1006F000AC80F8440027D8E900103E46CDE9001050
:1007000010E03AF816106A4602A800F03FFD411CBE
:1007100007D02178890603D5E269391891420DD8AE
:100720000744761C2078800602D5E069B84205DDD2
:10073000AE42E6DB3AF816000028E2D1A069C01B01
:10074000A0612046FFF7F6FED8E90010CDE90010C1
:10075000002017E03AF818106A4602A800F016FDCB
:10076000B0F1FF3F81460BD000250DF1080B05E0ED
:10077000D4E901211BF8050090476D1C4D45F7D3C6
:1007800008F10100B0428046E4DB206A3844206270
:100790002046FFF7E5FEBDE8FF9F000082570000FE
:1007A0002DE9F0418046D21D22F007020025D2E952
:1007B0000002F52915A614D0011E72F1000106DA17
:1007C0000023D0EB030063EB020211A608E0D8F887
:1007D00000108B0701D50FA602E0490701D50EA630
:1007E00001251146002408F1240704E000F0CEF9A9
:1007F00030323A55641C50EA0102F7D12B4632469A
:1008000021464046BDE8F04100F00EBA000000006D
:100810002D0000002B0000002000000030B400215B
:1008200000F1240408E002F00705D208303542EA5E
:100830004372DB086554491C52EA0305F3D104688E
:10084000002310A2250708D504F020040C4304D08F
:10085000C46901230CA2641EC46130BC00F0E4B979
:1008600010B5044621461068FFF794FE0246204664
:10087000BDE810400023D1E7D21D22F00701D1E9E5
:100880000023CBE70000000030000000F0B40D466C
:100890000188090502D5214C7C4402E01F4C7C44B0
:1008A0000E34002100F1240608E002F00F071209BF
:1008B000E75D42EA03721B097754491C52EA0307B9
:1008C000F3D102780023120704D5702D06D009B1A8
:1008D000022311342246F0BC00F0A6B901231034E3
:1008E000F8E770B504460D4621461068FFF752FE42
:1008F000024629462046BDE870400023C6E7D21DC7
:1009000022F00703D3E90023C0E70368126843F02D
:10091000200303600823C3610023B7E7E455000008
:100920002DE9F05F894604464FF0000ADFF874B104
:10093000FB44C0F820A02046E1688847002874D016
:10094000252806D0D4E901219047206A401C206266
:10095000F1E700265F462046E168884720280546E3
:1009600007DB312D05D2781910F8200C08B10643A9
:10097000F1E7B00701D526F00406C4F81CA0002753
:10098000C4F818A02A2D09D0284603F04CFF38B32C
:1009900004EB8708303DC8F8185019E059F8041BDB
:1009A000204604EB87029161E1688847012F0546E4
:1009B00018D1E069002820DA26F020061DE0D8F8DA
:1009C000180000EB800005EB40003038C8F8180034
:1009D0002046E1688847054603F025FF0028EED150
:1009E000012F0AD02E2D08D12046E16888477F1CB0
:1009F0000546022F46F02006C4DBA069002803DA72
:100A0000404246F00106A061F00701D026F0100632
:100A10006C2D0BD0682D09D04C2D39D06A2D35D0D6
:100A2000742D35D07A2D33D016E038E0E1682F46AA
:100A300020468847B842054609D16C2F26D04FF48E
:100A40008060E168064320468847054604E06C2F35
:100A50001AD04FF4807006430DB3A5F14100192858
:100A600002D8203546F400664A46294620462660CC
:100A70004E46FFF797FB80B101280BD0F61D26F0FC
:100A8000070000F1080956E74020E4E78020D8E796
:100A90000020D6E706F104094DE7284652E7206A10
:100AA000BDE8F09F745500000FB4002300B589B075
:100AB0000CA900910B99CB60204B7B440693204BF3
:100AC0007B44079304236FF00042CDE901321D4AB5
:100AD0007A446B4608920246002005F0AEF909B050
:100AE0005DF814FB70B506464FF0FF3015460C4616
:100AF000324686B00091CDE901016946002004909C
:100B000004A8FFF7D1FF03460498211825B108B1C6
:100B10000A4600E022462A6000280DD0002B02DDA4
:100B20000098884208D03246081B69460094CDE9F7
:100B3000010404A8FFF7B8FF06B070BD8F060000DF
:100B4000A70600004301000000487047EC010020A8
:100B500000487047EC010020034640688C4600289E
:100B600018BF88423CBF03464068F8D31868184451
:100B7000884207D00CF1030020F00700001D411A45
:100B8000521A0146081D0A60FFF7A2BC30B5B0F149
:100B90000A024FEA900E71F100034EEA817EB0EB3B
:100BA0000E0061EB91014FEA101E4EEA017E10EB40
:100BB0000E0041EB11114FEA102E4EEA016E10EBC0
:100BC0000E0041EB11214FEA104E4EEA014E10EBA0
:100BD0000E0041EB1141401841F100014FEAD000F5
:100BE00040EA41704FEAD10110EB80054FEA8104E1
:100BF00044EA907444EB01046D1944EB0404521B65
:100C0000A3414FF0000348BF0A3200D530BD401C5D
:100C100041F1000130BD10B5044600F005FB00684D
:100C2000005D00F0010010BD2DE9F0470D4699462A
:100C30009246044600F124080168880604D5E0695C
:100C400021F01001216000E00120A84201DD471BD6
:100C500000E00027A1697A1902EB0900081AA061D7
:100C60002078C00602D42046FFF764FC002608E086
:100C7000D4E901211AF806009047206A401C761C2E
:100C800020624E45F4DB2078C0060AD52046FFF7E7
:100C900051FC06E0D4E9012130209047206A401C35
:100CA0002062381EA7F10107F4DC07E0D4E9012136
:100CB00018F805009047206A401C2062281EA5F104
:100CC0000105F3DC2046FFF74BFC2078000602D537
:100CD0000220BDE8F0870120FBE770472DE9FF4FB8
:100CE0000C461E464FF0FF378BB0D2E90001DDF80D
:100CF00060800A908A46C1F30A5505B93D46002135
:100D000008464FF00000BAF1000F00F4400005DA89
:100D100000EB80004FF4400101EA50004FEA905987
:100D2000B9F1010F00DDB9460A9850EA4A000ED029
:100D300044F61050A5F2FF3545432F14B8F1000FCB
:100D40001ED07542291E1EDDC9F100021CE0B8F15B
:100D5000010F4FF0000001D0302103E0F24305E025
:100D60002154401CB042FBDB3046002200212154BC
:100D70000B99C1F80880C1E900200FB0BDE8F08FE1
:100D8000BD1B6D1CDEE74A4600DA694206A800F08A
:100D9000E9FC06AB93E8070003AB83E80700504685
:100DA0000A9900F0EEFF8DE80700A0F500501F380B
:100DB00000900398002D09DD42F21F014A460844C5
:100DC00003A90390684601F078FA08E0A0F5005006
:100DD0004A461F3803A90390684601F096FA8DE849
:100DE00007000004000C03D04FF0FF30410800E082
:100DF0001046B8F1000F03D00022009215461EE005
:100E0000751E05D4FFF7C2FE303262556D1EF9D54E
:100E1000B3460122084302D000227F1C04E0207860
:100E2000302801D100227F1E002A099786D01DE0BC
:100E3000112D07DAFFF7AAFE303262556D1C50EA19
:100E40000102F5D1084302D00098C8B10EE000219C
:100E5000681E05E0235C625C63542254401E491CFA
:100E60008142F7DBAB46A81B401E0990002004F826
:100E70000B000B98099AC0F80880C0E9002B7CE7AA
:100E800011264FF0000859E72DE9F04F8846044637
:100E9000D21D22F0070191B0D1E90001CDE90A018C
:100EA00003F02FF902460B98C00F01D02D2007E068
:100EB0002068810701D52B2002E0202101EAC00033
:100EC000032A099001D0072A05DB03464146204644
:100ED00000F0B6F90BE12078800601D5E06900E06A
:100EE0000620B8F1650F814606D0B8F1660F18D01C
:100EF000B8F1670F70D131E00020B9F1110F009007
:100F000001DB112301E009F101030AAA01A90CA8E0
:100F1000FFF7E4FEDDE90C70002609F101058346C8
:100F200047E001204B4600904FF000470AAA01A974
:100F30000CA8FFF7D3FEDDE90DB00C995D46002645
:100F400010B909F101000D18B9EB050003D4C0F187
:100F5000FF3609F10105A5EB09002BE0B9F1010FFE
:100F600001DA4FF001090020B9F1110F0090484655
:100F700001DD112300E003460AAA01A90CA8FFF72E
:100F8000ADFEDDE90C704D46002683462078000753
:100F90000AD4AB4500DA5D4601A8012D04DD4119F4
:100FA00011F8011C302907D04F4502DA17F1040F60
:100FB00004DA012082460FE06D1EEEE7002F02DC0E
:100FC000ED1B3E4403E0781CA84200DD7D1CB81BED
:100FD00000F1010A4FF000472078000703D4AA452A
:100FE00001DB4FF0FF3A0021B7F1004F0DF143084C
:100FF0008DF8431024D002202B23002F01DA7F42EA
:101000002D230A21021EA0F1010000DC5FB197FB35
:10101000F1FC97FBF1F201FB1C7C17460CF1300C44
:1010200008F801CDEEE7A8F1010003702188090559
:1010300001D5452100E06521A0F1010800F8011C5F
:1010400009980FA9A1EB0807FF1D00B10120411964
:1010500001EBEA70A1693844081A401EA0612078AB
:10106000C00602D42046FFF765FA099828B1D4E9F2
:1010700001219047206A401C20622078C00622D5BA
:101080002046FFF757FA1EE0002E04DBB34502DDD1
:1010900001A8805D00E03020D4E901219047206A5A
:1010A000401C2062761CAAF101005FEA000A0AD106
:1010B00000F0C2F8C0680168405CD4E901219047A3
:1010C000206A401C2062281EA5F10105DCDC07E037
:1010D000D4E9012118F8010B9047206A401C2062D6
:1010E000381EA7F10107F3DC2046FFF739FA032089
:1010F00011B043E610B5436913B1AFF3008001E0CE
:10110000FFF751FA012010BD127800F124010A7096
:1011100000224A700122EDE711684FF0FF32E9E743
:1011200010B5436913B1AFF3008001E0FFF7DAFABD
:10113000012010BD128800F1240182840022C284A3
:101140000122EDE711684FF0FF32E9E7426842B152
:10115000016811F8013B23B1521EC0E90012184684
:1011600070470121C160881E704742685AB1C36848
:10117000016843B983688B4205D0491E521CC0E9FF
:101180000012002070474FF0FF30704770B51646D0
:101190000C46054600F048F8036893F80101012861
:1011A00006D0FF2C0FD8185D68B101202C7070BDDF
:1011B000D3F807013246214603F2071303442846B9
:1011C000BDE8704018474FF0FF3070BD10B500F01B
:1011D00043FBBDE8104000F039BB70477546FFF790
:1011E000B3FCAE4605006946534620F0070085462D
:1011F00018B020B5FFF752F8BDE820404FF00006C8
:101200004FF000074FF000084FF0000B21F00701EE
:10121000AC46ACE8C009ACE8C009ACE8C009ACE831
:10122000C0098D467047000010B500F005F8001D9C
:1012300010BD00BF213A0000004870470C0200209A
:101240002DE9F0411F46044603260168072A01F4F0
:10125000006004DB08B116A505E016A503E008B19F
:1012600015A500E015A521F010002060A069C01EA2
:10127000A0610FB1401EA0612046FFF75BF94FB19E
:10128000D4E9012138469047206A401C2062C01CE6
:10129000206206E0206AFAE7D4E9012115F8010B83
:1012A0009047761EF8D22046FFF75AF9BDE8F08144
:1012B0004E414E006E616E00494E4600696E6600FA
:1012C0002DE9FF4F064689B00878FF2806D0491C53
:1012D0002D2805D000244FF0000908E000200CE084
:1012E0000124F8E709EB8903491C00EB430908785E
:1012F000FF28F7D114B1C9F100008146107800250C
:101300002C46AA4629462D2801D02B2804D1521C50
:101310002D2813D0002082468B461078FF280FD04E
:101320004FF0000C0A21521CA5FB017804FB01813F
:1013300005FB0C11C5194BEB0104EEE70120EAE7B0
:10134000002108464FF00000BAF1000F02D000EB78
:1013500080004008C0F38158B8F1010F01DD4FF063
:10136000FF380C9809EB000755EA040009D04FF04C
:10137000020917F5FA7F0BDA4FEACA70C6E900B026
:1013800012E04FEACA70C6E900B00DB0BDE8F08FB8
:10139000B7F5FA7F0DDDF0487844D0E90010C6E9D2
:1013A000001040EACA707060FFF7D2FBC0F80090EE
:1013B000EBE7391E02DAC8F1000200E0424600DA2B
:1013C000794206A800F0CEF906AB93E8070003AB1C
:1013D00083E8070044F23E005BEA040100905846AF
:1013E00004D144F21E012C465D460091210C0904F3
:1013F000014306D10099240444EA15442D04103910
:10140000009104F07F41014306D10099240244EA8F
:1014100015642D020839009104F07041014306D192
:101420000099240144EA15742D01091F009104F06C
:101430004041014306D10099A40044EA9574AD00EF
:10144000891E009104F00041084304D100986D19F1
:101450006441401E009042466846002FCDE9014598
:1014600003A902DD00F065FF01E000F03AFFBAF1E8
:10147000000F04460D4601D084F0004440F2FF778F
:1014800024F00040284303D0C4F30A50B84212D1DC
:10149000FFF75EFBC0F80090C4F30A50B8420AD1CF
:1014A000AE487844D0E90010C6E9001004F00041CD
:1014B0000843706069E7C6E9005466E72DE9FF4F0D
:1014C0001F464FF0000A4FF0FF38454691B0D7E96C
:1014D0000146CDF83CA0FFF7AFFEC0680168405C54
:1014E0001090B96912986D1C8847396A81468847FF
:1014F0000028F6D1B9F1FF3F0AD0002E24F4D064C1
:1015000011DDB9F12B0F08D0B9F12D0F0BD102E08D
:10151000404615B03AE744F48064B96912986D1CEE
:101520008847761E8146600504A901D52D2000E07C
:101530002B20002E01F1010B0DF130088DF8100069
:101540003FDDB9F1690F08D0B9F1490F05D0B9F104
:101550006E0F02D0B9F14E0F1CD13B4601A8009589
:1015600080E85002DDE912126FF0020004F069FC1D
:10157000C11CCED10EE0B96912986D1C8847814616
:101580001398761E44F4007405600F98401C002EDA
:101590000F9016DDB9F1300FEDD0B9F1780F02D010
:1015A000B9F1580F0DD10F9801280AD13B46CDE96A
:1015B0000054DDE91212001F029604F040FCC11C29
:1015C000A7D1109989453ED144F0800406E01399D3
:1015D000681CAAF1010A44F400740860B9696D1C22
:1015E0001298761E884730288146F0D02BE010995B
:1015F000894505D1200603D4761E44F0800418E006
:10160000484603F010F908B3761E0DF123018B450F
:1016100044F4007408D2A9F130000BF8010B200645
:1016200007D5AAF1010003E0200602D40AF1010067
:101630008246A00502D51399681C0860B969129802
:101640006D1C88478146002ED1DC53E0002E51DD11
:10165000B9F1650F02D0B9F1450F4BD1A00549D5BD
:10166000B9696D1C1298761E24F440748847002EC8
:1016700081460CDD2B2804D0B9F12D0F07D144F49D
:101680008074B96912986D1C8847761E8146E00502
:1016900001D52D2100E02B2108F8011BCDF8008099
:1016A00021E0761E0DF13901884544F400740CD216
:1016B000A9F1300010F0FF0088F8000002D1009975
:1016C000884509D908F1010806E0E00501D524485C
:1016D00001E042F20F708246B96912986D1C88478A
:1016E000814613980560002E04DD484603F09BF800
:1016F0000028D6D1F96912988847FF2053468BF805
:10170000000088F8000000200A900B9004AA0CA9A1
:101710000AA8FFF7D5FDA00502D46FF00100F8E696
:1017200014F0240F0AD0E00714D13868DDE90A125A
:10173000031D3B600068C0E900120BE00AA968467F
:1017400003F01AF8E00705D13868009A011D3960E6
:10175000006802602846DCE6F84C0000EE4B000012
:10176000F1D8FFFF2DE9F047814616468AB033488D
:1017700078440DC88DE80D0030487844801C03ACD7
:101780000DC884E80D0041F69B300844372190FBDA
:10179000F1F290FBF1F5A5F1800501FB12041B3C71
:1017A00002D56442012000E00020DFF890A08046CE
:1017B0000027FA44AAF1BE0A0DE0E00709D032463C
:1017C000684607EB47010AEB810100F09EFD8DE8BA
:1017D000070064107F1C002CEFD1184F7F44AC3FF2
:1017E00018E0E80714D007EB04100DF1180A90E890
:1017F0000E008AE80E00C068F04201D198190890E6
:10180000324606A903A800F080FD03AB83E8070079
:101810006D10641C002DE4D132466946B8F1000F0A
:1018200003A802D000F049FD01E000F06EFDC9E917
:101830000001C9F808200AB0BDE8F087E8480000B8
:101840000446AFF300802046FEF713FD002801D0C8
:1018500000F02AB87047000010B5012805D000211B
:1018600003A000F027F8012010BD09A1F8E700004F
:1018700053494752544D454D3A204F7574206F6679
:101880002068656170206D656D6F727900000000E1
:101890003A2048656170206D656D6F727920636FC5
:1018A000727275707465640001491820ABBEFEE762
:1018B0002600020070B505460C460A2000E06D1CAB
:1018C00000F011F835B128780028F8D102E0641C46
:1018D00000F009F814B120780028F8D1BDE8704074
:1018E0000A20AFF3008008B569468DF80000032098
:1018F000ABBE08BD2DE9FF4F1F464FF03C0987B036
:101900004FF00042DDE9141001F10108DDF858A0A4
:1019100002EA4050039000200490834605460446A6
:101920000590B969461E08988847AAF1010A0290F5
:10193000BAF1000F37DD02982E2815D0102100F0E3
:1019400012FA00282ADB4FF0010B0499014316D04C
:10195000B9F1000F0BDB4A46C11700F0F1F905435E
:101960000C43A9F1040905E00120059007E008B146
:1019700045F0010501200490059800B9361DB969AC
:10198000089808F101088847BBF1000FAAF1010A85
:101990000290CDD00999C1F80080C9E7029870285B
:1019A00008D0502806D0F96908988847BBF1000F85
:1019B00014D04FE0002002900120BBF1000F0490F2
:1019C00009D0B969089808F101088847AAF1010906
:1019D000B9F1000F07DCF969089888476FF001003A
:1019E0000BB0BDE8F08F2B2804D02D280CD14FF080
:1019F000FF300490B969089808F101088847A9F1F7
:101A00000109B9F1000FE6DD411CE4D00A2100F024
:101A1000AAF90028DFDB029908F1010801EB810136
:101A200000EB41000290B969089888470A2100F04C
:101A30009AF9099AA9F10109B9F1000FC2F80080D9
:101A400001DD0028E7DAF9690898884704990298C7
:101A500000FB016655EA040004D004F0404109008F
:101A600002D006E0039898E0A40044EA9574AD0023
:101A7000B61E04F00041080002D16D196441761EC3
:101A8000159810F0240F03D04FF00B095C4803E0C9
:101A90004FF028096FF07D008246564507DAAAEB21
:101AA00006018944B9F1410F01DD4FF041090120E0
:101AB0000021A9F1010200F043F9024628400B463B
:101AC0002140084301D0012100E00021501E029175
:101AD00043F1FF3128402140084301D0012000E0BC
:101AE00000200299834651EA0B014FD0002108469D
:101AF0004FF00000039900F4400039B100EB800082
:101B00004FF4400100EBD07001EA6000801501281D
:101B100002DD4FF0FF3000E013D0401C36D00298B9
:101B200060B3BBF1000F0CD14A460120002100F048
:101B300007F928402140084301D0012000E000209F
:101B4000E0B101204A46002100F0FAF803464019AE
:101B50000A4661412D1A8C4111D3B9F1400F09DDBC
:101B6000159810F0240F02D0AAF1340603E0AAF170
:101B7000170600E0761C00254FF0004406E05B1ECF
:101B800042F1FF3220EA030521EA0204CAF1010012
:101B9000B04206DA1B4903980843019000200090E8
:101BA0000EE0039AC4F3D321E80A0A43164940EA37
:101BB00044500A433146CDE90002684602F028FE4F
:101BC000159810F0240F0BD01598C00715D1386860
:101BD000DDE90012031D3B600068C0E900120CE063
:101BE00002A8694602F0C8FD1598C00705D13868FB
:101BF000029A011D3960006802604046F0E600006C
:101C000002FCFFFF0000F07F0000F03F2DE9FF4FD6
:101C100092461D4685B04FF00041DDE9124BDDE9EB
:101C200014727F1E01EA4B50414940F0FF4940EADF
:101C30000108002122F020004928049102D04E28FA
:101C400028D04CE03BA0012607C88DE80700A96911
:101C50000698641C88477F1E014606D41DF80600BE
:101C600018B121F0200181420BD0E969069888471C
:101C7000032E34D0082E32D06FF0010009B0BDE839
:101C8000F08F761C032E01D0082EE0D1601CCAF81C
:101C90000000DCE7A9690698641C88477F1E2AD4E7
:101CA00020F02000412826D1A9690698641C8847A5
:101CB0007F1E20D420F020004E281CD1A969069850
:101CC000641C88477F1E48F4002849F48009CAF83C
:101CD000004001D4282806D0E969069888475FEAC1
:101CE000CB7012D022E0A9690698641C88477F1E39
:101CF00001D4002803DAE96906988847BCE7292857
:101D0000F1D1641CCAF80040E9E71BF0240F07D0AA
:101D100028680499031D2B600068C0E9001805E0DD
:101D20002868021D2A600068C0F800902046A5E7D8
:101D30000000F07F494E46494E49545900000000CA
:101D4000B2F120030AD5C2F1200301FA02F120FA10
:101D500003F300FA02F041EA0301704700FA03F1CD
:101D60004FF0000070473A2800D2303820F02002AF
:101D7000412A01D3A2F13700884201D34FF0FF304E
:101D800070475FEA400C08BF91F0000F4FEA8C23C8
:101D90004FEAC12243EA51514FEA1C5018BF00F5E7
:101DA000F0404FEA300018BF41F000415FEA6C5C40
:101DB00000F02980BCF1FF3F08BF40F08040704731
:101DC000130C06BF12044FF0100C4FF0000C130E52
:101DD00004BF12020CF1080C130F04BF12010CF126
:101DE000040C930F04BF92000CF1020CD30F04BF3C
:101DF00052000CF1010C11464FF00002A0F11F003F
:101E0000A0EB0C00704711F0004F08BF704731F095
:101E100000413FF4D5AF0B0C06BF09044FF0100C86
:101E20004FF0000C0B0E04BF09020CF1080C0B0F55
:101E300004BF09010CF1040C8B0F04BF89000CF1E5
:101E4000020CCB0F04BF49000CF1010CCCF12003B4
:101E5000A0EB0C0022FA03F302FA0CF241EA0301B0
:101E600000F10100704720F07F4C80EA030023F06E
:101E70007F47ACEB070303F57C5300F0004003F110
:101E8000FF032DE980494FEA154B09B44FEA14438B
:101E900025EA0B4E24EA03480FF2042606EB13272B
:101EA00049083E785FEA320203FB0667C7F5000780
:101EB00007FB06F64FEA54374FEAD64606F102060C
:101EC00007FB066CCCF1005C4FEA1C472CEA074C80
:101ED00007FB06F40CFB06F504EB15464FEA9616D5
:101EE00034BF00204FF000404FEAD13706FB07FC1B
:101EF0004FEA1C4C0CFB0BF7D21B03FB0CF761EBFE
:101F000007010CFB0EF7B0EB074072EB17420CFB1E
:101F100008F734BFA2EB0742B2EB074261EB17416F
:101F20004FEA0C444FEA910706FB07FC4FEA1C4CB2
:101F30000CFB0BF7B0EBC74072EB573203FB0CF70F
:101F400034BFA2EBC742B2EBC74261EB57310CFB87
:101F50000EF7B0EBC70072EB57720CFB08F734BFFB
:101F6000A2EBC702B2EBC70261EB5771039F4FEAC6
:101F7000816141EA921104EBCC044FEAD1374FEA78
:101F8000826206FB07FC42EA90124FEA80604FEA49
:101F90001C4C0CFB0BF7D21B03FB0CF761EB07018E
:101FA0000CFB0EF7B0EB074072EB17420CFB08F787
:101FB00034BFA2EB0742B2EB074261EB17414FEA95
:101FC0008C554FEA910704EB9C2406FB07FC4FEA73
:101FD0001C4C0CFB0BF7B0EBC74072EB573203FB0A
:101FE0000CF734BFA2EBC742B2EBC74261EB5731EB
:101FF0000CFB0EF7B0EBC70072EB57720CFB08F747
:1020000034BFA2EBC702B2EBC70261EB577115EB0D
:102010004C254FEA816141EA92114FEA82624FEA10
:10202000D13742EA901206FB07FC44F100044FEA64
:1020300080604FEA1C4C0CFB0BF7D21B03FB0CF728
:1020400061EB07010CFB0EF7B0EB074072EB174298
:102050000CFB08F734BFA2EB0742B2EB074261EB7F
:10206000174115EB1C154FEA813141EA92414FEAC5
:10207000823242EA90424FEA80304FEA0C7644F1D5
:10208000000448EA03434EEA0B484FF0000EB2EB5F
:10209000080C71EB030724BF624639464EEB0E0E67
:1020A0004FF0000B0018524149414BEB0B0BB2EBC8
:1020B000080C71EB03077BF1000B24BF6246394625
:1020C0004EEB0E0E4FF0000B0018524149414BEB06
:1020D0000B0BB2EB080C71EB03077BF1000B24BF79
:1020E000624639464EEB0E0E51EA020718BF46F023
:1020F000010616EB0E7655F1000254F1000103D5EE
:10210000BDE88901BDE80088BDE88901BDE8004857
:10211000B619524141EB0101A3F1010370478080E0
:102120007F7E7D7C7B7A7978777676757473727131
:1021300071706F6E6E6D6C6C6B6A6A6968686766E9
:1021400066656464636362616160605F5F5E5E5D7B
:102150005D5C5C5B5B5A5A595958585757565655EF
:1021600055555454535352525251515050504F4F51
:102170004F4E4E4D4D4D4C4C4C4B4B4B4A4A4A49A1
:1021800049494848484747474746464645454544E4
:10219000444444434343434242424241414100009C
:1021A00046EA0646A3F570534FEA164646EA4256FB
:1021B0004FEAD22242EA415210B54FEAD121A3F1AF
:1021C000010300F017F820F0004000F1010C00F0CE
:1021D000004701EB00501146BCF5006F40EA0700D4
:1021E00000D210BD02484FF0000140EA070010BDC8
:1021F0000000F07F002B26D4770021D01CB54FEAD9
:10220000370703B44FF010004FF010014FF00000FB
:102210000FBCBDE810400BF1010BBBF1010F08BF73
:102220005FEA170722BF12F1010211F101014FF01D
:10223000004143F1000300F0004043EA0000704712
:10224000F9D35708DAE746EA064613F1400F4FEA9A
:1022500016461FDD13F1200FDFBF16430A4600218B
:1022600020335B42C8D0C3F1200746EA064602FA93
:1022700007F74FEA164646EA0706C3F1200722FA97
:1022800003F201FA07F721FA03F14FF0000342EAE3
:102290000702B1E746EA020646EA06464FEA164654
:1022A00046EA0106BCBF46EA0646360C4FF000037C
:1022B0004FF000024FF000019EE72DE9C048934621
:1022C00030B491E8380007C831EA400C48BF34EA1E
:1022D000430C03D5FFF7C7FDFFF78CFFF0BCBDE84B
:1022E00000882DE9C048934630B491E8380007C80B
:1022F00031EA400C48BF34EA430C03D5FFF7B3FD85
:10230000FFF74EFFF0BCBDE800882DE9C0489346BA
:1023100030B491E8380007C810F0804F08BF13F0C0
:10232000804F03D100F019F8FFF764FFF0BCBDE85F
:1023300000882DE9C048934630B491E8380007C8BA
:1023400010F0804F08BF13F0804F03D100F005F864
:10235000FFF726FFF0BCBDE8008820F07F4780EA49
:10236000030023F07F4C07EB0C03A3F57C5300F034
:102370000040A3F1FE0392F0000F00F0B38095F04F
:10238000000F00F077802DE901494FEA11404FEA34
:10239000144621EA004800FB06FC24EA064708FB35
:1023A00006F607FB08F800FB07F718EB06484CEBAE
:1023B000164C4FEA124B18EB07484FEA15464CEB08
:1023C000174022EA0B4E0BFB06FC25EA06470EFBE4
:1023D00006F607FB0EFE0BFB07F71EEB064E4CEB5B
:1023E000164C4FF000061EEB074E4CEB174B18EB4C
:1023F0000B0840F1000018EB0E0B58EB000840F101
:1024000000008F1A4FF000013CBFC943661B14BF88
:10241000B5EB040C00213CBFC943F61B4FEA17443F
:102420004EEA8E0E27EA04454FEA1C4704FB07627A
:102430002CEA074C05FB07F70CFB05F604FB0CFC2C
:1024400016EB074642EB174216EB0C4642EB1C42DA
:102450001BEB060658EB0202414146EA9E0601D5F7
:10246000BDE80189B619524141EB0101A3F1010315
:10247000BDE801894FEA14454FEA114724EA0546B1
:1024800021EA074C05FB07F406FB07F70CFB06F1F6
:1024900005FB0CFC11EB074144EB17444FEA1247D4
:1024A00011EB0C4144EB1C4422EA074C05FB07F2FC
:1024B00006FB07F70CFB06F605FB0CFC16EB0746C4
:1024C00042EB174216EB0C4642EB1C456A1854F1DE
:1024D000000148BF7047B619524141EB0101A3F119
:1024E0000103704795F0000F37D04FEA11424FEAD1
:1024F000144721EA024624EA074C02FB07F106FBD7
:1025000007F70CFB06F402FB0CFC14EB074441EB51
:1025100017414FEA154714EB0C4441EB1C4125EAE7
:10252000074C02FB07F506FB07F70CFB06F602FB60
:102530000CFC16EB074645EB174516EB0C4645EB36
:102540001C42121951F1000148BF7047B61952419F
:1025500041EB0101A3F1010370474FEA14454FEA33
:10256000114724EA054621EA074C05FB07F106FB63
:1025700007F70CFB06F24FF0000605FB0CFC12EB14
:10258000074241EB174112EB0C4251EB1C4148BF93
:102590007047921841EB0101A3F1010370477047A6
:1025A00013B50C460A2C00DC04B91CBD0B2C43D21D
:1025B000DFE804F042060C12181E242A30363C00D4
:1025C00001221F49684600F057F835E005221C49F2
:1025D000684600F051F82FE009221949684600F0DA
:1025E0004BF829E00D221649684600F045F823E033
:1025F00011221349684600F03FF81DE015221049EA
:10260000684600F039F817E019220D49684600F0D5
:1026100033F811E01D220A49684600F02DF80BE05E
:1026200021220749684600F027F805E025220449E1
:10263000684600F021F800BF00BF00BFB5E700000A
:10264000C00100200549096821F01001034A11600A
:1026500011460968014311607047000000200240E4
:1026600001460020034A106800F03800084310605B
:10267000704700000020024030B503461C788C549F
:102680005D78541C0D559D78941C0D55DD78D41C37
:102690000D5530BD2DE9F0410246002500260020F1
:1026A00000230024002791F803C00CF00F0591F8D7
:1026B00003C00CF0100CBCF1000F03D091F802C065
:1026C0004CEA050591F800C0BCF1000F31D0146848
:1026D00000202BE04FF0010C0CFA00F3B1F800C021
:1026E0000CEA03069E4220D183004FF00F0C0CFA37
:1026F00003F7BC4305FA03FC4CEA040491F803C059
:10270000BCF1280F06D14FF0010C0CFA00FCC2F806
:1027100014C00AE091F803C0BCF1480F05D14FF096
:10272000010C0CFA00FCC2F810C0401C0828D1D3E0
:102730001460B1F800C0BCF1FF0F34DD5468002014
:102740002EE000F1080C4FF0010808FA0CF3B1F884
:1027500000C00CEA03069E4221D183004FF00F0C0B
:102760000CFA03F7BC4305FA03FC4CEA040491F8A5
:1027700003C0BCF1280F05D100F1080C08FA0CF8D1
:10278000C2F8148091F803C0BCF1480F07D100F1E2
:10279000080C4FF0010808FA0CF8C2F81080401C31
:1027A0000828CED35460BDE8F0810000F0B50A4699
:1027B000002300240021002500F00046B6F1004F60
:1027C00002D11D4EF16901E01B4E7168C0F3034553
:1027D00083B200F44016B6F5401F08D121F07061B5
:1027E000154E766826F07066134F7E6012E000F496
:1027F0008016B6F5801F06D1032606FA05F4A1431C
:1028000041F0706106E0460D360103FA06F6B14369
:1028100041F0706122B1460D360103FA06F63143EC
:1028200000F00046B6F1004F02D1034EF16101E025
:10283000014E7160F0BD00000000014008B50121AB
:10284000102000F035F94FF46050ADF8000048203A
:102850008DF8030069460248FFF71CFF08BD000021
:10286000001001400146002906DA4842064A10805D
:102870000020121F108004E00020034A1080121F65
:1028800011800020704700003804004001460029F4
:1028900006DA4842064A10800020121D108004E02B
:1028A0000020034A1080121D118000207047000094
:1028B0003C04004008B54FF4A06000F057F81E201B
:1028C0008DF8000000208DF801008DF80200012035
:1028D0008DF80300684600F011F825208DF80000FF
:1028E00000208DF8010002208DF8020001208DF8F3
:1028F0000300684600F002F808BD000070B5002132
:1029000000230F22C47804B3154C246804F4E06457
:10291000C4F5E064210AC1F10403CA40447804FA12
:1029200003F184781440214309010E4C0678A15527
:10293000047804F01F050124AC4005786D11AD004A
:1029400005F1E025C5F8004109E0047804F01F0511
:102950000124AC40044D0678761145F8264070BD40
:102960000CED00E000E400E080E100E002490143FA
:10297000024A1160704700000000FA050CED00E00B
:1029800030B589B005460C460121022000F070F8F0
:1029900001210C2000F08CF8C020ADF82000182098
:1029A0008DF8230003208DF8220008A92D48FFF799
:1029B00071FE0320ADF8200018208DF823000320BD
:1029C0008DF8220008A92848FFF764FEADF81850DA
:1029D000ADF814400020ADF81A00ADF8160005A9B6
:1029E000224801F0FBF86020ADF804000120ADF8AA
:1029F00006000020ADF80A00ADF80C0001A91B4844
:102A000000F064FF0020ADF80A0001A9174800F0AB
:102A1000B3FF0020ADF80A0001A9144801F00CF83A
:102A20000020ADF80A0001A9104801F05FF8082164
:102A30000E4800F097FF08210C4800F0EFFF082136
:102A40000A4801F049F80821084801F08DF80121F1
:102A5000064800F08BFD0121044800F099FD09B003
:102A600030BD000000080140000C0140000400409F
:102A700029B1064AD2690243044BDA6104E0034AF1
:102A8000D2698243014BDA617047000000100240B6
:102A900029B1064A12690243044B1A6104E0034A51
:102AA00012698243014B1A61704700000010024016
:102AB00029B1064A92690243044B9A6104E0034A31
:102AC00092698243014B9A617047000000100240F6
:102AD00029B1064AD2680243044BDA6004E0034A93
:102AE000D2688243014BDA60704700000010024058
:102AF0000F48006840F001000D4908600846406832
:102B00000C4908400A494860084600680A490840DC
:102B1000074908600846006820F4802008600846DD
:102B2000406820F4FE0048604FF41F008860704742
:102B3000001002400000FFF8FFFFF6FE30B5002154
:102B40000022002400232D4D6D6805F00C0121B1F9
:102B5000042905D0082923D105E0294D056022E08C
:102B6000274D05601FE0254D6D6805F47012234D5B
:102B70006D6805F48034022505EB92421CB9214DA5
:102B8000554305600BE01D4D6D6805F400351DB122
:102B90001C4D5543056002E0194D5543056002E0A8
:102BA000174D056000BF00BF144D6D6805F0F001C2
:102BB0000909154D6B5C0568DD4045600F4D6D687A
:102BC00005F4E061090A104D6B5C4568DD408560E5
:102BD0000A4D6D6805F46051C90A0B4D6B5C456880
:102BE000DD40C560054D6D6805F44041890B074D1A
:102BF0006B5CC568B5FBF3F5056130BD00100240A4
:102C000000127A0000093D0014000020240000207A
:102C100010B501460022002300204A11012A02D1EA
:102C2000094C236806E0022A02D1074C236A01E01E
:102C3000054C636A01F01F02012494401C400CB152
:102C4000012000E0002010BD001002400248406852
:102C500000F00C0070470000001002400146002008
:102C6000034A506820F0F0000843506070470000AD
:102C7000001002401149096821F480310F4A1160A7
:102C80001146096821F480211160B0F5803F03D01E
:102C9000B0F5802F0ED106E00849096841F4803173
:102CA000064A116007E00549096841F4A021034A7A
:102CB000116000E000BF00BF70470000001002403C
:102CC00001460020034A506820F4E0600843506049
:102CD000704700000010024001460020034A50687F
:102CE00020F4605040EAC10050607047001002407C
:102CF0000149086670470000000042420246002079
:102D0000044B586820F47C1042EA01031843014B3D
:102D1000586070470010024001460020034A506886
:102D200020F003000843506070470000001002408C
:102D300038B5002000900024002500BF3120FFF7A7
:102D400067FF05460098401C00900098B0F5A06F02
:102D500001D0002DF2D03120FFF75AFF08B1012435
:102D600000E00024204638BD10B500F02FF9012105
:102D700044F63D20FFF79CFE01210248FFF778FE54
:102D800010BD00000700020010B500F001F810BDF2
:102D90000CB50020019000903348006840F480306A
:102DA0003149086000BF3048006800F400300090EE
:102DB0000198401C0190009818B90198B0F5A06FD7
:102DC000F1D12948006800F4003010B101200090D2
:102DD00001E0002000900098012843D123480068BA
:102DE00040F01000214908600846006820F0030008
:102DF00008600846006840F0020008601A48406811
:102E0000194948600846406848600846406840F4F0
:102E1000806048600846406820F47C10486008469E
:102E2000406840F4E81048600846006840F0807050
:102E3000086000BF0C48006800F000700028F9D05E
:102E40000948406820F00300074948600846406888
:102E500040F00200486000BF0348406800F00C00EA
:102E60000828F9D10CBD00000010024000200240EB
:102E70002DE9F84F04460D46164625602168881B4B
:102E800002F0ECFD6061D4E9050102F0FFFE009064
:102E90006169E06902F062FCE0610021E06802F033
:102EA0008DFD0DD01C48E16802F0C6FC0746E169C3
:102EB00002F0ECFD04D21848E16802F0BDFCE061CC
:102EC0002169009802F016FE8146E169E06802F08F
:102ED00011FE8246A168606902F00CFE83465146ED
:102EE00002F03CFC8046494602F038FC074602F0FE
:102EF00099FD606040F69F716068884201DB08467A
:102F0000606006496068884201DC0846606060696C
:102F1000A0616068BDE8F88F00F0794561F0FFFFBF
:102F2000002101604160054981600549C1600021BF
:102F3000016141618161C161704700008FC2753DCF
:102F400017B75139042808D14FF0E021096941F041
:102F500004014FF0E022116107E04FF0E021096920
:102F600021F004014FF0E0221161704710B51348C1
:102F7000006840F0010011490860084640681049A7
:102F800008400E494860084600680E4908400B4951
:102F900008600846006820F4802008600846406801
:102FA00020F4FE0048604FF41F008860FFF7ECFE3D
:102FB0004FF000600449086010BD0000001002409E
:102FC0000000FFF8FFFFF6FE08ED00E010B5FFF788
:102FD0008FFD4FF48030FFF74DFEFFF7A9FE04464A
:102FE000012C27D10220FFF73BFB1020FFF72AFB23
:102FF0000020FFF77DFE0020FFF730FE0020FFF7E6
:103000006BFEA002FFF75CFE4FF4E0112004FFF717
:1030100075FE0120FFF76CFE00BF3920FFF7F8FDB9
:103020000028FAD00220FFF777FE00BFFFF70EFE60
:103030000828FBD110BD0000F0B50C461546002253
:103040000021068C4FF6FE773E400684028B018CF1
:103050004FF60C7632407E1C06EA03162E433243AE
:10306000104EB0420ED0104EB0420BD0B0F1804F97
:1030700008D00E4EB04205D00D4EB04202D00D4EDB
:10308000B04206D14FF6FD76314044F0010631439F
:1030900005E04FF6F576314044F0010631430283F6
:1030A0000184F0BD002C01400034014000040040C8
:1030B00000080040000C0040F0B50C461546002208
:1030C00000210026078C4FF6EF7C07EA0C070784E7
:1030D000028B018C4FF6FF7707EA041640F6FF4794
:1030E0003A404FF6FF7707EA03373A434FF6FF7748
:1030F00007EA05273A43114FB8420ED0104FB842A5
:103100000BD0B0F1804F08D00E4FB84205D00E4F13
:10311000B84202D00D4FB84206D14FF6DF773940A2
:1031200046F01007394305E04FF65F77394044F029
:103130001007394302830184F0BD0000002C0140D8
:10314000003401400004004000080040000C004032
:10315000F0B50C461546002200210026078C4FF6DC
:10316000FF6C07EA0C070784828B018C4FF6FF7710
:1031700007EA04264FF60C773A404FF6FF7707EA46
:1031800003172F433A43114FB8420ED0104FB842A5
:103190000BD0B0F1804F08D00E4FB84205D00E4F83
:1031A000B84202D00D4FB84206D14FF6FF57394012
:1031B00046F48077394305E04FF2FF57394044F435
:1031C0008077394382830184F0BD0000002C0140E8
:1031D000003401400004004000080040000C0040A2
:1031E000F0B50C461546002200210026078C4EF64D
:1031F000FF7C07EA0C070784828B018C4FF6FF7770
:1032000007EA043640F6FF473A404FF6FF7707EAF1
:1032100005273A434FF6FF7707EA03373A43114F42
:10322000B8420ED0104FB8420BD0B0F1804F08D04A
:103230000E4FB84205D00E4FB84202D00D4FB842E3
:1032400006D14DF6FF77394046F48057394305E003
:1032500047F6FF57394044F480573943828301844D
:10326000F0BD0000002C014000340140000400408B
:1032700000080040000C004000B587B0012140F676
:103280000400FFF715FC04208DF81B0003208DF8C7
:103290001A000002ADF8180006A91E48FFF7FAF957
:1032A0001D4800F081F903A800F0EAFC0020ADF809
:1032B0000C004FF6FF70ADF810000020ADF81200C2
:1032C000ADF80E0003A9144800F088FC00231A464C
:1032D0000321114800F05CFA684600F0E5FA062088
:1032E000ADF8080069460C4800F088FA01210A4848
:1032F00000F048F901221146074800F0DEFA41F2D9
:1033000070700549243108800121034800F040F91C
:1033100007B000BD00080140002C014000B587B097
:1033200001210420FFF7C4FB01210846FFF7A0FBA1
:1033300004208DF81B0003208DF81A00ADF818004A
:1033400006A92048FFF7A6F94FF0804000F02CF9BD
:1033500003A800F095FC0020ADF80C004FF6FF70BC
:10336000ADF810000020ADF81200ADF80E0003A972
:103370004FF0804000F032FC00231A4603214FF04A
:10338000804000F005FA684600F08EFA0620ADF89D
:10339000080069464FF0804000F030FA01218807AC
:1033A00000F0F0F801221146900700F086FA41F291
:1033B00070704FF0804188840121880700F0E8F8A0
:1033C00007B000BD000801402DE9F84F01214A482F
:1033D00000F002FA00287DD00121474800F0D5F81E
:1033E000464800F0F6F9A0F5B854703C4FF0804024
:1033F00000F0EFF9A0F58059A9F5EE6941F270707F
:103400003E4924310880090788843D48007820BB64
:103410003C48006802F076F907463B4A3B4B01F016
:1034200061FC054601F02CFC36490860084601683D
:103430003748006802F05EFB009002F063F907462F
:1034400001F05CFB05460022324B01F031FF824661
:1034500001F098FE3049086012E030480068401CD6
:103460002E490860084600682D490988B0FBF1F232
:1034700001FB120020B92848006840422649086034
:103480002246254801682748FFF7F2FC0546FFF76A
:10349000E9F94A4621462448FFF7EAFC0546FFF7CA
:1034A000F5F91D48006802F0D9FA05460121FFF739
:1034B00077F8204602F0D2FA05460221FFF770F8AD
:1034C000C9F1000002F0CAFA05460321FFF768F8C7
:1034D000164800E00DE0008828B11448408810B17B
:1034E0001248808828B912480088401C00B2104950
:1034F0000880BDE8F88F000000080040002C014063
:103500006C000020800000207B14AE47E17A843FED
:103510007000002000C07240780000207C00002075
:103520007400002088000020A80000202A0000204D
:10353000280000203EB505460C46ADF80450ADF815
:1035400000400020ADF80600ADF8020069460648CC
:1035500000F044FB0121044800F01AF80122114652
:10356000014800F0AAF93EBD0008004021B10288E0
:1035700042F08002028004E002884FF67F731A4016
:1035800002807047CA4302827047CA430282704772
:1035900021B1028842F00102028004E002884FF665
:1035A000FE731A400280704710B504466848844292
:1035B00008D10121C014FFF78BFA0021E014FFF7B6
:1035C00087FAC4E0B4F1804F08D101210846FFF723
:1035D0005FFA00210120FFF75BFAB8E05D48844202
:1035E00008D101210220FFF753FA00210220FFF742
:1035F0004FFAACE05848844208D101210420FFF77B
:1036000047FA00210420FFF743FAA0E05348844220
:1036100008D101210820FFF73BFA00210820FFF71D
:1036200037FA94E04E48844208D101211020FFF778
:103630002FFA00211020FFF72BFA88E04948844236
:1036400008D101212020FFF723FA00212020FFF7D5
:103650001FFA7CE04448844208D101214014FFF75E
:1036600037FA00216014FFF733FA70E03F488442D4
:1036700009D10121C804FFF72BFA00214FF40020E3
:10368000FFF726FA63E03A48844209D10121080590
:10369000FFF71EFA00214FF48010FFF719FA56E0E9
:1036A0003448844209D101214805FFF711FA00216D
:1036B0004FF40010FFF70CFA49E02F48844208D17C
:1036C00001214020FFF7E4F900214020FFF7E0F955
:1036D0003DE02A48844208D101218020FFF7D8F933
:1036E00000218020FFF7D4F931E02548844208D139
:1036F00001218015FFF7CCF90021A015FFF7C8F9CB
:1037000025E02048844209D101210804FFF7E0F9AF
:1037100000214FF48030FFF7DBF918E01A488442AB
:1037200009D101214804FFF7D3F900214FF40030FB
:10373000FFF7CEF90BE01548844208D10121880437
:10374000FFF7C6F900214FF48020FFF7C1F910BD43
:10375000002C01400004004000080040000C004024
:10376000001000400014004000340140004C0140B3
:10377000005001400054014000180040001C00406F
:10378000002000400040014000440140004801404A
:10379000F0B50C4615461E46002100220023018983
:1037A000028B038C4FF6F877394021434FF6FC47E4
:1037B0003A4040F201173A434FF6DD773B404FF66F
:1037C000FF7707EA06172F433B43018102830384F7
:1037D000F0BD0146888C704730B5024600200023BA
:1037E0000024158A05EA0103958905EA010413B14D
:1037F0000CB1012000E0002030BD000070B505468E
:103800000C46244885420ED0234885420BD0B5F1A2
:10381000804F08D02148854205D02148854202D0FA
:103820002048854200D100E000BF208850B923899C
:10383000A28861882846FFF7FFFBE188284600F050
:10384000A0F925E0208804280AD12389A28861886C
:103850002846FFF731FCE188284600F09BF917E085
:10386000208808280AD12389A28861882846FFF782
:103870006FFCE188284600F09AF909E02389A288C4
:1038800061882846FFF7ACFCE188284600F098F9EB
:1038900070BD0000002C01400034014000040040D5
:1038A00000080040000C00400021018041800121FF
:1038B00081800021C180018170471AB183890B4347
:1038C000838102E083898B438381704770B5002434
:1038D00000220023058C4FF6FE7635400584028CCD
:1038E0008388048B4FF68F752C40B51E2C400D88B5
:1038F0002C43751E2A400D892A434D882A43144DB6
:10390000A8420BD0134DA84208D0134DA84205D0B1
:10391000124DA84202D0124DA84213D14FF6F775AE
:103920002A404D892A434FF6FB752A408D882A4349
:103930004FF6FF652B404FF6FF552B408D892B43EB
:10394000CD892B4383800483CD888586028470BD16
:10395000002C01400034014000400140004401407F
:10396000004801400A460021018B4FF6F7731940C9
:10397000114301837047000070B50024002200232A
:10398000058C4FF6EF7635400584028C8388048BD6
:1039900048F6FF752C404FF6FF452C400D884FF63A
:1039A000FF7606EA05252C434FF6DF752A400D8980
:1039B00006EA05152A434D8806EA05152A43154DE2
:1039C000A84202D0144DA8421DD14FF67F752A405F
:1039D0004D894FF6FF7606EA05152A434FF6BF7567
:1039E0002A408D8806EA05152A434FF6FF352B40FD
:1039F0004FF2FF752B408D8906EA85052B43CD8953
:103A000006EA85052B4383800483CD8805870284DD
:103A100070BD0000002C0140003401400A46002126
:103A2000018B4FF2FF7319404FF6FF7303EA022335
:103A3000194301837047000070B500240022002361
:103A4000058C4FF6FF6635400584028C8388848B95
:103A50004FF68F752C404FF6FC752C400D882C438B
:103A60004FF6FF552A400D894FF6FF7606EA0525E9
:103A70002A434D8806EA05252A43154DA84202D05F
:103A8000144DA8421DD14FF2FF752A404D894FF6C3
:103A9000FF7606EA05252A434FF6FF352A408D8832
:103AA00006EA05252A434EF6FF752B404DF6FF75B5
:103AB0002B408D8906EA05152B43CD8906EA0515AD
:103AC0002B4383808483CD888587028470BD00006A
:103AD000002C0140003401400A460021818B4FF642
:103AE000F7731940114381837047000070B50022BD
:103AF00000230024058C4EF6FF7635400584038CA8
:103B00008488828B48F6FF752A404FF6FF452A408D
:103B10000D884FF6FF7606EA05252A434DF6FF7518
:103B20002B400D8906EA05352B434D8806EA0535FD
:103B30002B430B4DA84202D00A4DA84208D14BF6A8
:103B4000FF752C408D894FF6FF7606EA85152C43CC
:103B500084808283CD88A0F84050038470BD00002B
:103B6000002C0140003401400A460021818B4FF2B5
:103B7000FF7319404FF6FF7303EA02231943818351
:103B80007047028B4FF6F3731A400283028B0A438D
:103B900002837047028B4FF2FF331A400283028B7D
:103BA0004FF6FF7303EA01231A4302837047828BA7
:103BB0004FF6F3731A408283828B0A4382837047E5
:103BC000828B4FF2FF331A408283828B4FF6FF7352
:103BD00003EA01231A43828370470000002202880F
:103BE0001D4B98420ED01D4B98420BD0B0F1804F28
:103BF00008D01B4B984205D01A4B984202D01A4B62
:103C0000984204D14FF68F731A404B881A43174BD2
:103C1000984207D0164B984204D04FF6FF431A4003
:103C2000CB881A4302808B8883850B8803850A4BD7
:103C300098420BD0094B984208D00E4B984205D0C1
:103C40000D4B984202D00D4B984201D10B7A03865E
:103C50000123838270470000002C014000340140A2
:103C60000004004000080040000C0040001000402C
:103C70000014004000400140004401400048014061
:103C80004FF6FF71818000210180C1804180017267
:103C90007047000010B588B04020ADF80C00182027
:103CA0008DF80F0003208DF80E0003A92748FEF7BA
:103CB000F1FC8020ADF80C0004208DF80F0003A962
:103CC0002248FEF7E7FC01210920FEF7F1FE012161
:103CD0000420FEF76BFD4FF4E13004900020ADF8B6
:103CE0001600ADF81400ADF81800ADF81C000C205B
:103CF000ADF81A000020ADF804004FF40070ADF8E4
:103D000008000020ADF80600ADF80A0001A910482F
:103D100000F008F904A90E4800F07EF9012240F2F3
:103D200025510B4800F052F90121094800F00BF928
:103D3000002406E00A20FCF7C3FA064941F82400F3
:103D4000641C032CF6DB08B010BD0000000C014021
:103D500000380140EC000020F8B540F225514E48F3
:103D600000F00AF9002866D040F225514A4800F0D8
:103D7000CAF8494800F0BCF9C6B20A2E5CD147A186
:103D8000454800F00BFF4748006800B9F8BD4648B9
:103D900001680068401C444A106044484654444A44
:103DA000694600F08DFD0446002C22DAE01C48B97B
:103DB00000203C4908603C49086020213B48FCF752
:103DC000C9FAE3E7A01C20B93AA1334800F0E6FEA7
:103DD00005E0601C18B93DA12F4800F0DFFE00206F
:103DE000304908603049086021213048FCF7B2FAB8
:103DF000CCE72F49009800F033FD0446002C11DA7F
:103E0000A01C28B92A4835A10268234800F0C6FE44
:103E10000020244908602449086021212348FCF738
:103E200099FAB3E700201F4908601F490860212163
:103E30001E48FCF78FFA2CE01A480068202805D1AC
:103E4000002018490860184908609FE700250BE02A
:103E500015480068401B401E1449085C1249096857
:103E6000491B124A50546D1C0F4800680D490968DF
:103E7000401AA842ECD80D480A4909684654094836
:103E80000068401C0749086007480068401C064954
:103E9000086000BF7AE7000000380140646F6E657B
:103EA000000000006400002068000020C80000201E
:103EB000EC0000200A74686520706172616D2069F1
:103EC0007320746F6F206C6F6E6700000A746F6FE1
:103ED000206D616E7920706172616D000D0A6E6FE8
:103EE000742066696E6420636F6D6D6D616E643AF7
:103EF00025730A0001F40072B2F5007F00D100BF03
:103F0000CA430280704710B50022002340F66A14AD
:103F1000A14200D100BF0A1201249440A3B2DC43A5
:103F2000048010BD10B502460020108A4FF2FF0336
:103F300018400B884C8823438C882343CC88234328
:103F40001843108210BD21B1828942F4005282814F
:103F500004E082894DF6FF731A4082817047024661
:103F60000020B1F5007F00D100BF13880B400BB1DA
:103F7000012000E00020704770B5024600240023B5
:103F80000025002040F66A16B14200D100BFC1F3FF
:103F9000421501F01F03012606FA03F3012D02D199
:103FA0009689334006E0022D02D1168A334001E0A3
:103FB000968A33400C12012606FA04F4168834401F
:103FC00013B10CB1012000E0002070BDF0B5034634
:103FD000002400260025002040F66A17B94200D1CF
:103FE00000BF1846C1F3421401F01F06012707FA6B
:103FF00006F5012C01D10C3004E0022C01D1103067
:1040000000E014301AB107682F43076002E0076828
:10401000AF430760F0BD00002DE9F04786B00546CC
:104020000E460024A24600BFA1460027B08900B179
:1040300000BF2F462C8A4CF6FF700440F0880443E2
:104040002C82AC894EF6F3100440B08831890843C5
:10405000718908430443AC81AC8A4FF6FF400440A9
:10406000B0890443AC8201A8FEF768FD1F4887426F
:1040700002D1DDF810A001E0DDF80CA0A88900F461
:10408000004040B10AEBCA0000EB0A103168490059
:10409000B0FBF1F807E00AEBCA0000EB0A10316848
:1040A0008900B0FBF1F86420B8FBF0F004012009AE
:1040B000642101FB1089A88900F4004040B132203E
:1040C00000EBC900B0FBF1F000F00700044308E08A
:1040D000322000EB09106421B0FBF1F000F00F007A
:1040E00004432C8106B0BDE8F08700000038014091
:1040F00001468888C0F308007047C1F30802828037
:104100007047490050EAC12018BF04204A0D18BF6B
:1041100040F0010040F2FF72B2EB515F08BF40F087
:104120000200012808BF0520704700002DE9F74F65
:10413000144694B00021C4E902111599079121F0A9
:104140000045C9498D4206DC1599C4E9000117B044
:104150000020BDE8F08FC549DFF814A3A9423CDD7B
:104160000799C44E0029C44FC44A1599534619DD16
:1041700001F0DEF9554506D0C14AC24B01F0D8F92D
:10418000C4E900010AE04FF0D352BE4B01F0D0F970
:1041900032463B4601F0CCF9C4E9000117B00120DA
:1041A000BDE8F08F00F09EFD554506D0B44AB54BF2
:1041B00000F098FDC4E900010AE04FF0D352B14B82
:1041C00000F090FD32463B4600F08CFDC4E9000152
:1041D00017B04FF0FF30BDE8F08FAB49A9421599F9
:1041E00078DB21F0004183468846A84AA84B01F0BD
:1041F0005FF80022A74B00F075FD00F0C3FF0990A7
:1042000000F0EFFF06460F469C4A534601F050F877
:1042100043465A4601F080F980468A46984A994BAF
:104220003046394601F044F82A0D01250B924246EA
:10423000534601F071F9032DC4E9000139D00B9800
:10424000C1F30A51401A05EB45111139814230DAA8
:104250009148C346784400EB0510CDF80CA00C90B3
:10426000D0E900233046394601F022F802460B46D9
:10427000049106905846039901F05AF980468A46FF
:1042800002460B465846039901F052F9049B069AE0
:1042900001F04EF983460C9803913946D0E9022388
:1042A000304601F005F85A46039B01F041F96D1CB8
:1042B000BDE707980028A2BF099817B0BDE8F08FA6
:1042C000616881F000416160099817B04042BDE823
:1042D000F08FFFE784461598C1F31301C0F30A502D
:1042E000A0F2F5304FEA601800F01F06C6F120007A
:1042F000139000200690079041F4801E05206D4623
:1043000076B1664A08EB00017A4452F8213002EB9C
:104310008101B3404A68139922FA01F1194305E07B
:104320005F4908EB0002794451F82210A1FB0E27E7
:10433000A1FB0C131A449A4234BF0123002303EB60
:10434000070A05EB8003D3E901B70F448F4234BF5E
:104350000121002193448B4411B1934502D903E01C
:10436000934501D2012100E00021C3E901B7514486
:1043700045F82010011EA0F10100C1DC0298059F44
:1043800000F10050800F12900298DDE90356800082
:1043900000F027FF834628460D9100F039FF6FF0AB
:1043A0001D0201F01CFDCDE90E01304600F030FF8A
:1043B0006FF03D0201F013FD80468A46384600F05A
:1043C00027FF6FF05D0201F00AFD074642465346A3
:1043D000119100F087FCDDE90E2300F083FC5A46C2
:1043E0000D9B00F07FFC00250E465A4628460D9B8B
:1043F00001F09EF8DDE90E2301F09AF8424653469B
:1044000001F096F83A46119B01F086F8DFF898A083
:10441000244A534600F04CFF07468846234A244B63
:104420003146284600F044FF3A46434600F05AFC25
:10443000074688464FF0A84253463146284600F0CA
:1044400037FF3A46434600F04DFC159A12F0004FF4
:1044500004D0129A81F0004152421292C4E9000144
:10446000129817B0BDE8F08FFB21E93F7CD90240DC
:10447000FB21F93F7370032E8A19A33B00004054BF
:104480003163621A61B4D03DFB21394183C8C96DE3
:10449000305FE43F0000E03F981C0000141C000067
:1044A000F61B0000182D4454FB21F93D3326A611BC
:1044B000460B113C2DE9FF4D21F0004807460C4604
:1044C000B8F1795F08DA00F05DFE002801BF002036
:1044D000324904B0BDE8F08D3A46234610461946ED
:1044E00000F0E6FE054602462D480E460B46062124
:1044F000784400F05DF82A46334600F0D9FEDDE945
:10450000022382468B463846214600F0D1FE0446FF
:104510000F4652465B462846314600F0C9FE224609
:104520003B4601F005F807468A464FF0FF32284621
:10453000314601F054FC1B4A90450ADA3A4653468C
:1045400000F0F6FF04B00022BDE8F04D134B00F080
:10455000E3BF154A4245A8BFA8F500154FF0000477
:10456000B8BF124D22462B4600F0E2FF06468846B1
:1045700022462B460020094900F0DAFF04460D468A
:104580003A4653463046414600F0D2FF04B0224638
:104590002B46BDE8F04D00F0BFBF00000000F03F2B
:1045A000CC1900003333D33F0000E93F0000D23F75
:1045B0002DE9F0414F1E00EBC7010446D1E900018F
:1045C00015461E4637F006020DD02A46334600F047
:1045D0006FFE7F1E04EBC703D3E9002300F082FBCC
:1045E00037F00602F1D1022F25D0042F13D0062F69
:1045F00018BFBDE8F0812A46334600F059FED4E9E1
:104600000A2300F06FFB2A46334600F051FED4E93E
:10461000082300F067FB2A46334600F049FED4E940
:10462000062300F05FFB2A46334600F041FED4E942
:10463000042300F057FB2A46334600F039FED4E944
:10464000022300F04FFB2A46334600F031FED4E946
:104650000023BDE8F04100F045BB00002DE9FF4D0F
:10466000054621F0004084B00C46B0F1795F0BDACA
:104670002846FFF746FD042808BF00F075F82846D5
:1046800008B02146BDE8F08D2A460B46104600F0E2
:104690000FFE06460F462A46234600F009FE8046D6
:1046A00026488A4632463B4605217844FFF780FF7C
:1046B00083461098029160B3214A224B40465146EE
:1046C00000F0F6FDCDE900015A4640465146029BF6
:1046D00000F0EEFD82468846DDE906014FF0FF322C
:1046E00001F07DFB5246434600F022FF32463B4636
:1046F00000F0DEFDDDE9062300F01AFFDDE900230E
:1047000000F016FF08B02A462346BDE8F04D00F041
:1047100003BF0B465A463046394600F0C9FD084AE9
:10472000084B00F0DFFA4246534600F0C1FD08B0E6
:104730002A462346BDE8F04D00F0D4BA0A1900001D
:10474000495555555555C5BF012201F048BB0022BA
:1047500013461046114600F081BB40F201320020A2
:104760004FF0E04101F03BBB024A0020110701F08D
:1047700036BB000001FDFFFF10B50446D1E9000182
:1047800000F002F8206010BDF8B504460D466A46F8
:1047900000F0FCF800987E30009000281FDC00221A
:1047A00013462046294600F0B1FC18D0002140F6FF
:1047B00008004FF0000006462046294600F060FA47
:1047C000044640F6080006EA00014FF0000034F00D
:1047D000004004BF0220FBF7A7FE2046F8BD00986A
:1047E000FF280DDB0220FBF79FFE00221346204628
:1047F000294600F05BFE8CBF04484FF0FF40F8BD37
:1048000020462946BDE8F84000F03ABA000080FF93
:1048100010B504460A46D4E90003194600F0E2F850
:10482000C4E9000110BD30380A2801D201207047C8
:104830000020704730B583B00446FBF770FE054694
:104840000020CDE90000024621466846FCF74AF9FF
:104850002846FBF769FEDDE9000103B030BD00002A
:104860002DE9F04105460E460024012715B9601ECA
:10487000BDE8F081002418E004EB44020D4B03EB8B
:1048800002103168FBF78EFD70B90BA10B4800F0E8
:1048900085F904EB4400074901EB00103146C26A78
:1048A000284690470020E3E7641CBC42E4D36FF045
:1048B0000100DDE7340000200A000000003801405C
:1048C0002DE9F04103460F46144600250022002141
:1048D00028466D1C1E5C25E0202E14D11AB92846EE
:1048E0006D1C1E5C1EE0032902D1081FBDE8F0818B
:1048F000002054F821C00CF80200491C0022284670
:104900006D1C1E5C0EE0092A02D16FF00100EDE77C
:1049100054F821801046521C08F8006028466D1C8F
:104920001E5C00BF0D2ED7D119B912B96FF002006D
:10493000DCE74FF000080846491C54F8200000F856
:10494000028039600020D1E710B56FF00400FEF757
:10495000F9FA0A4800680A49B0FBF1F00949087001
:104960000846007800EB4001C1EBC0104FF6FF7124
:1049700001EAC0000449088010BD000000000020CA
:1049800000127A00840000208600002010B5144632
:1049900000222260114A21F000439342A8BF10BDBB
:1049A00053EA000208BF10BDB3F5801FA8BF2268FC
:1049B00007DA362201F013FA6FF0350221F00043D6
:1049C0002260DFF81CC06FF31E510CEB23531A4416
:1049D00041F0FF5141F00051226010BD0000F07F16
:1049E00002FCFFFF2DE9F04106460C4640F2FF7540
:1049F000174635EA14502BD000221346304600F0FB
:104A000085FB25D03A463046214601F0E8F90646B6
:104A10000C4635EA145010D000221346304600F000
:104A200075FB15D10220FBF77FFDFFF79DFE0A46BF
:104A3000214662F31E01BDE8F0810220FBF774FD00
:104A4000FFF78BFE0A46214662F31E01BDE8F081A6
:104A500030462146BDE8F081FEF786F9FDF72AFFD2
:104A6000FFF772FF002140F69F70FDF789FFFFF707
:104A700011F9FDF7E3FEFEF7FFFBFEF74FFC4721C0
:104A800041F28730FEF756FD0348FEF749FA034826
:104A9000FEF746FA00BFFEE788000020A8000020CD
:104AA0002DE9F04104460D46022C03DA0BA1114812
:104AB00000F074F86868FFF7BDFE064600F0E0F805
:104AC0008046404600F01EFE064632460B460AA1CE
:104AD000084800F063F8BDE8F08100006572726F6D
:104AE00072216578703A706F736974696F6E5F7068
:104AF00020320A00003801402566000000B5254B31
:104B000021F0004287B09A4203DC00221346009253
:104B10002BE0214B9A4208D140B94FF00100FBF73E
:104B200003FDFFF714FE07B000BD03DBFFF70CFE2B
:104B300007B000BD02AAFFF7F9FA10F003014FF029
:104B400001000DD0012914D002291AD00DF1080C52
:104B50009CE80F00FFF7AEFC07B081F0004100BDFC
:104B60000DF1080C00909CE80F00FFF777FD07B0EF
:104B700000BD0DF1080C9CE80F00FFF79BFC07B08F
:104B800000BD0DF1080C00909CE80F00FFF766FDDA
:104B9000E2E70000FB21E93F0000F07F0FB430B5F1
:104BA000A1B00546002426A80090802101A8009B02
:104BB000259AFBF7B5FB80212846FFF79BF926E0F5
:104BC00001A8005D0A2813D10D212846FFF795FAA8
:104BD00000BF80212846FFF7C2F90028F9D02046FF
:104BE000621CD4B201AA115C2846FFF786FA07E0DE
:104BF0002046621CD4B201AA115C2846FFF77DFA58
:104C000000BF80212846FFF7AAF90028F9D0802CA0
:104C100003DA01A8005D0028D2D10020009021B065
:104C200030BC5DF814FB000010B500290AD00878EC
:104C3000002807D005487844FBF7B4FB002801D0D2
:104C4000002010BD0248784410BD0000661400002A
:104C50005E14000010B500290AD00878002807D09B
:104C600005487844FBF79EFB002801D0002010BDCA
:104C70000248784410BD0000561400004E14000095
:104C800021F00042A2F16052B2F5801F01F0004312
:104C900028BFD2F17F6C0BD95FEA001C43EAC20245
:104CA00042EB507018BF704728BF20F001007047DA
:104CB000B2F5801FBCBF184670474FEA410C1CF587
:104CC000001F02D2084600F0DCBF70B500F09AFB6E
:104CD00000000089FFF7F6BF4FF00040A0F580000C
:104CE0007047000010B591EA030F48BF83F00043FE
:104CF00000F12684841A71EB030C05D2121943EBE0
:104D00000C03001B61EB0C01DFF824E14FEA1154A6
:104D1000A4EB135C1EEA430F18BF9EEA445F73D0F6
:104D200023EA0E03DCF1200E21EA045143F4801340
:104D300032D322FA0CFE10EB0E0023FA0CFE41EBEC
:104D40000E01CCF1200E03FA0EFE10EB0E0051F115
:104D50000001B1F5801FCCF1200E32D201EB0451DD
:104D600012FA0EF2BDE8104058BF7047401C38BF21
:104D70005FEA420218BF7047002814BF20F001000C
:104D800041F100014FEA410313F5001F38BF70479E
:104D9000A1F1C04100F084BB012A43EB0302ACF156
:104DA000200CDCF11F0E32BF4FF0000E23FA0CF383
:104DB00010EB030041EB0451B4EB115FD0D0A1EB39
:104DC000045101F5801149085FEA300001EB0451FC
:104DD0000ED350F1000038BF12FA0EFE08D1BDE824
:104DE0001040C9E7401C38BF5FEA4202CAD1C3E79E
:104DF000BDE810404FEA410313F5001F38BF70476C
:104E0000A1F1C04100F04CBB9EEA445F08D011EA1A
:104E10005E0FBDE8104004BF01F000410020704764
:104E2000BDE8104070B500F0EDFA00BF64FBBE3E77
:104E30000000E0FF02494FF0000000F09EBF00BFFD
:104E40000000F87F491058BFC1F140415B1058BFC6
:104E5000C3F140438B42EFF3008070472DE9C0411E
:104E600030B4DFF8A0C23CEA111418BF3CEA1314B6
:104E700000F0EC8081EA03051CEA111444EAD574C1
:104E800018BF1CEA131500F0C780A4EB05044FF00F
:104E9000004545EAC12145EAC32341EA505143EAAE
:104EA000525304F17F74994204F500344FEAC02054
:104EB0004FEAC22208BF904200F09C804FEA13657F
:104EC0000FF24016765D4FEA134506FB05F7C7F172
:104ED000807706FB07F74FEAD737A7FB03687642D0
:104EE000C8F58038A7FB06CE38BFA8F1010807FB3C
:104EF00008E64FF0000EA6FB028CE6FB03CEDCF1C9
:104F0000000CCEF1004E38BFAEF1010EA6FB0C58DE
:104F10004FF000074FF00005E6FB0E87A1FB08C627
:104F2000A0FB07CE16EB0E0645F10005E1FB076579
:104F300015F1E04E7EBFA4F580345FEA46066D4170
:104F400016F1800745F100054FEA17274FEA06667C
:104F500047EA0567A6F1DE46B6F1805F4FEA152500
:104F60001FD9384624F0010C05EBC471BCF1FE6F6B
:104F700001EB0C1102D8F0BCBDE8008124425CBFFB
:104F800001F5801E9EEAC47F02D4F0BCBDE800811A
:104F9000244238D4F0BCA1F1C041BDE8004100F08A
:104FA0007FBA4FEAD22242EA43524FEAD323A7FB09
:104FB00002864FEAD02040EA415007FB03661EEA12
:104FC0000E0F4FEAD12105FB026658BFA6EB005633
:104FD000B6EB00564FEA520E4EEAC37E18EB0E0EA9
:104FE00056EB530EBDD518EB02085E417F1C55F100
:104FF0000005B6E74FF480154FF000074FF00006AC
:105000004FF00008ADE7F0BC4FF0000001F1C041E7
:1050100001F00041BDE8008111EA0C1F0CEA1315F4
:1050200000D00CE013EA0C1F00F025804FF00000C8
:10503000F0BC81EA030101F00041BDE80081F0BC51
:10504000BDE8004181EA030100F02ABAF0BCBDE8E6
:10505000004170B500F0D6F9097EFC3E00F007B8BB
:1050600081EA03014FF0000001F00041704781EA3E
:10507000030100F015BAF0BCBDE800414FF000009C
:1050800021497047FFFDFBF9F7F5F4F2F0EEEDEB87
:10509000E9E8E6E4E3E1E0DEDDDBDAD8D7D5D4D336
:1050A000D1D0CFCDCCCBCAC8C7C6C5C4C2C1C0BF82
:1050B000BEBDBCBBBAB9B8B7B6B5B4B3B2B1B0AF88
:1050C000AEADACABAAA9A8A8A7A6A5A4A3A3A2A16C
:1050D000A09F9F9E9D9C9C9B9A9999989797969527
:1050E00095949393929191908F8F8E8E8D8C8C8BC3
:1050F0008B8A89898888878786858584848383824B
:10510000828181800000FF070000F87F51EA030CD4
:1051100017D41CF5801F58BFBCF5801F00F1068016
:10512000994218BF704708BF9042704707D711F5E2
:10513000801F58BF13F5801F19D4994270478942C8
:1051400070471CF5801F08D5BCF5801FF7D58B4232
:1051500018BF704708BF824270474FF4001C1CEB19
:10516000410F38BF1CEB430F01D28B42704770B523
:1051700000F048F9922449004FF000514FF080535D
:10518000FFF760BE4FEA41034FEA5353A3F5806334
:10519000D3F11E03C8BFD3F1210C0CDD4FF0004248
:1051A00042EAC12242EA505232FA03FC8CEAE17C24
:1051B000ACEBE1707047102BC4BF0020704703F5C3
:1051C000787CBCF1FF3F04D06FF0004282EA2100FE
:1051D000704770B500F016F949922480002070479E
:1051E000F2E710F0004248BF4042B0FA80F310FAF4
:1051F00003F10AD0C3F11D0303F580634FEA415068
:1052000002EB035202EBD12170474FF000007047D0
:10521000B0FA80F310FA03F10AD0C3F11D0303F5CD
:1052200080634FEA41504FEA035202EBD1217047AD
:105230004FF000007047000051EA030C17D41CF532
:10524000801F58BFBCF5801F00F10680994218BF2F
:10525000704708BF9042704707D711F5801F58BFAD
:1052600013F5801F19D499427047894270471CF585
:10527000801F08D5BCF5801FF7D58B4218BF70473B
:1052800008BF824270474FF4001C1CEB410F38BF2F
:105290001CEB430F01D28B42704770B500F0B2F89F
:1052A000922449004FF000514FF08053FFF7CABDE0
:1052B000DFF848C170B51CEA111E1EBF1CEA1315A9
:1052C0009EEA0C0F95EA0C0F00F06F8081EA030450
:1052D00023EA4C134EEAD47E21EA4C1141F48011AA
:1052E00043F48013AE44A1FB024CA0FB0365AEF176
:1052F0007F7E361955EB0C05A1FB034C4CF10003E6
:10530000A0FB021C16EB0C06654153F10003094299
:1053100018BF46F0010613F4007F0BD14FEA0331AA
:105320004FEA0530340341EA155140EA16506FF058
:1053300003020AE04FEAC3214FEAC520F40241EA22
:10534000555140EA56506FF0020202EB2E4201EB3B
:10535000025585EACE710AD05FEA440C18BF24F0EA
:10536000004450F1000041F1000120EAD47040F205
:10537000FE7C624500D270BDA84214BF4FF080444D
:105380004FF04044002E08BF0024BEF1806FA8BF3C
:10539000A1F1C041BDE8704080F282804FF0000072
:1053A00001F1C04101F0004170479EEA0C0F0CEA88
:1053B000131518BF95EA0C0F06D04FF0000081EAD4
:1053C000030E0EF0004170BD00F01CF88900013E94
:1053D00000F007B800F009B84FEA430C5FEA5C5CE4
:1053E00008D081EA030100F05BB84FEA410C5FEAA4
:1053F0005C5CF6D14FF00000014970470000FF07E8
:105400000000F87F0EF1020E2EF0030E5EF8046B22
:10541000364205D4012A43EB030515F5001F12D8C7
:10542000012841EB010C1CF5001F0CD80ED14FEAEE
:10543000D17C15F5001F0CEB4C0C0CF1020C08BFD5
:105440004CEBD37C04E04FF0080C01E04FEAD37C36
:105450000CEB4C0526FA05F606F00706B6F1040C2F
:1054600006D20EEB860CBDE870404CF0010C604794
:10547000DFE80CF0090B02024FF000414FF0000092
:10548000A1F5002170BD19461046012851EB010419
:1054900018BFD4F5001484BF002001F0004170BD96
:1054A0000808A0F500114FEA3101704753EA010CDA
:1054B00017D41CF5801F58BFBCF5801F00F1068073
:1054C0008B4218BF704708BF8242704707D713F559
:1054D000801F58BF11F5801F19D48B4270479B4223
:1054E00070471CF5801F08D5BCF5801FF7D5994281
:1054F00018BF704708BF904270474FF4001C1CEB68
:10550000430F38BF1CEB410F01D2994270470FB4D3
:105510000CBC03BCFFF7C1BE91EA030F10B581F0CC
:1055200000413FF5E7AB83F0004300F009B800000D
:1055300010B591EA030F48BF83F000433FF5DAABA3
:10554000841A71EB030C07D212198CF0004C43EB58
:105550000C03001B61EB0C01DFF8A4E14FEA1154CE
:10556000A4EB135C1EEA430F18BF9EEA445F00F0F1
:10557000B08023EA6E03524221EA0451C3EB6E036A
:1055800038BF5B1EDCF1200E25D322FA0CFE10EB97
:105590000E0043FA0CFE41EB0E01CCF1200E03FA93
:1055A0000EFE10EB0E0051F10001CCF1200E29D4BB
:1055B00012FA0EF201EB0451BDE8104058BF7047DB
:1055C000401C1CBFB2F1004F704700280CBF491CA3
:1055D00020F00100704712EB020E43EB030218BFEC
:1055E0004FF0010E4EEA4202ACF1200CDCF11E0E2F
:1055F00054D943FA0CFE10EB0E0051F1FF31CCF1FF
:105600001E0ED5D50EF1010E12FA0EFE404141EBF1
:10561000010101EB445C5FEA5C5C10D910EBDE70C9
:1056200001EB045138BFBEF1004FBDE8104018BF78
:10563000704700280CBF491C20F00100704730D291
:105640004FEAD42C11F5001124F400641BD0B1FAF8
:1056500081F20B3AA41AA41ED2F12003914030FA31
:1056600003F31943904001EBCC71002C01EB045182
:10567000BDE81040A8BF704701F1C0414FF00000E5
:1056800001F000417047B0FA80F310FA03F100D145
:1056900010BDE41A173C4805C90AE4E701EB0451C0
:1056A00010BD491001EB0451BDE810404FEA300035
:1056B00002E04FF0000170474A0008BF0042F8D0F6
:1056C000B2F5001F28BF704701F000414FF0000005
:1056D00070479EEA445F07D011EA5E0FBDE81040B4
:1056E00004BF002100207047BDE8104070B5FFF7EF
:1056F00089FE00BF40DFF63E83F000411046704750
:105700000000E0FF43004FEAD30C4FEA3C0C43405B
:105710001FBF40070CF1605113F0FE4F70471CF0A3
:10572000006F03D100200CF0004170470CF00043E3
:1057300043EA507010B540EACC0000F05CFA00BFBC
:10574000000000924FEA0001FFF7AABE4FF00041AF
:105750004FF00000A1F500217047000090EA010F12
:1057600048BF81F0004100F19882421A3CBF801A84
:1057700089184FEAD0524FF07F4C1CEA410FA2EB40
:10578000D15318BF9CEA026F00F03B804FF0004CF1
:105790004CEA00204CEA012121FA03FC10EB0C0C2E
:1057A0001ED202F1FF325FEA1C2040EBC25038BF2C
:1057B00070471CF07F0F4FEA400C18BFBCF17F4FC1
:1057C00038BF7047C3F12003994008BF20F00100A3
:1057D000BCF17F4F38BF7047A0F1C04000F051BA14
:1057E0004FEA3C00000A40EBC25028BF1CF0FF0FFC
:1057F0004FEA400CE6D018BFBCF17F4F38BF70476E
:10580000EAE79CEA026F05D010EA5C0F08BF00F0DF
:105810000040704710B500F0EEF900BF64FBBE3EDB
:10582000401058BFC0F14040491058BFC1F140413D
:105830008142EFF3008070474FF47F0C1CEAD012D6
:105840001EBF1CEAD11392EA0C0F93EA0C0F00F072
:10585000858090EA010F48BF42F4807240F4000C4A
:1058600041F400002CF07F4120F07F4000B58142E0
:10587000A2EB03020FF2081CACEB504EC0F100008B
:105880009EF800E04FEA4E0E00FB0EFC38BF4900C8
:105890004FEA2C1C02F5FA020CFB0EF34FEACE1E67
:1058A0004FEA112C4FEAC1210EEB635E42EB22421C
:1058B0000EFB0CFC4FEA1C5300FB03114FEA112CAA
:1058C0004FEA01310EFB0CFC4FEADC4C00FB0C11E3
:1058D000C14228BF09184CEB03335DF804EB10EB11
:1058E000410143EBC250B2F57C0F38BF704729D558
:1058F00012F0F00F1CBF00F1C04000F000407047F4
:10590000008182838485868788898B8C8D8E8F9198
:105910009293959697999A9C9D9FA0A2A3A5A7A8BC
:10592000AAACAEB0B2B3B5B7B9BCBEC0C2C5C7C9E8
:10593000CCCED1D4D7D9DCDFE2E6E9ECF0F3F7FA4C
:10594000FE0000004FEA400C0CF1807CBCF17E4F61
:1059500028BF7047B0F1C04000F093B990EA010F42
:105960000CEAD11348BF42F48072624538BF6345E8
:1059700007D213F47F0F16D080EA010000F0004038
:10598000704710B500F037F9097EFC3E00F005B80D
:1059900080EA010000F00040704780EA010000F05A
:1059A000004000F06EB912F47F0F04BF0248704748
:1059B00080EA010000F065B90000C07F50EA010CE8
:1059C00000F113801CF5000F58BFBCF5000F01D487
:1059D0008842704707D710F5000F58BF11F5000F28
:1059E00015D488427047894270471CF5000F04D5D2
:1059F000BCF5000FF7D5814270474FF0807C1CEB5F
:105A0000400F38BF1CEB410F01D28142704710B5E7
:105A100000F0F1F8922449004FF000504FF080510F
:105A2000FFF7FEBE41000B0ED3F19E0208D950F4E1
:105A300000034FEA032323FA02F048BF40427047B5
:105A400010B500F0D8F800BF4992248000207047BC
:105A50006FF0004282EA20007047000010F0004121
:105A600048BF4042B0FA80F310FA03F2C3F19D033D
:105A70000BD051EAC35101EB1220530638BF7047D7
:105A800000F1010008BF20F00100704750EA010C4E
:105A900000F113801CF5000F58BFBCF5000F01D4B6
:105AA0008842704707D710F5000F58BF11F5000F57
:105AB00015D488427047894270471CF5000F04D501
:105AC000BCF5000FF7D5814270474FF0807C1CEB8E
:105AD000400F38BF1CEB410F01D28142704710B517
:105AE00000F089F8922449004FF000504FF08051A7
:105AF000FFF796BE4FF47F0C1CEAD0121EBF1CEAC3
:105B0000D11392EA0C0F93EA0C0F00F0478090EA51
:105B1000010F48BF42F480724FF0004C4CEA002065
:105B20004CEA012102EB0302A0FB0113A2F50002E3
:105B3000002918BF43F001035B0028BF4FEA33037D
:105B400042EB22425FEA132C4CEBC2502EBFBCEB5F
:105B5000436FB2F57C0F70474FEA036CBCF1004F06
:105B600008BF20F00100B2F57C0F38BF70470BD59D
:105B700082F0FF0212F5803FC8BF704700F1C040BD
:105B8000D8BF00F00040704700F5000C5FEA4C0CF5
:105B900048BF7047B0F1C04000F073B890EA010F01
:105BA0000CEAD11348BF42F48072624538BF6345A6
:105BB00004D280EA010000F00040704710B500F008
:105BC0001AF800BF8900013E00F007B800F009B8DC
:105BD0005FEA410C5FEA1C6C08D080EA010000F02B
:105BE00050B85FEA400C5FEA1C6CF6D14FF0004001
:105BF000A0F5800070470EF1020E2EF0030E5EF845
:105C0000044B244204D44FEA4102B2F17F4F11D831
:105C10004FEA4003B3F17F4F0CD80ED14FEAD07C4E
:105C2000B2F17F4F0CEB4C0C0CF1020C08BF4CEBAB
:105C3000D17C04E04FF0080C01E04FEAD17C0CEB82
:105C40004C0324FA03F404F00704B4F1040C06D264
:105C50000EEB840CBDE810404CF0010C6047DFE80F
:105C60000CF0070802024FF00040A0F5800010BDC4
:105C70000846420018BFD2F1807288BF00F0004091
:105C800010BDFF2141EAD050C005704790EA010FD6
:105C900048BF81F000413FF568AD421A04D882F058
:105CA0000042A0EB020011444FEAD0524FF07F4C6B
:105CB0001CEA410FA2EBD15318BF9CEA026F4AD0F5
:105CC0004FF0004C4CEA00204CEA012121FA03FC81
:105CD000B0EB0C0C0FD412F0FE0F36D05FEA4C0084
:105CE0001DD5001240EBC25038BF70471CF03F0F6B
:105CF00018BF70470BE0A2F101025FEA1C2040EBE5
:105D0000C25038BF70471CF07F0F18BF7047C3F1F7
:105D10002003994014BF401E20F001007047800806
:105D20004FEA122308BF7047B0FA80FCA2EB0C02C6
:105D3000CCF1280C60FA0CF093EA122F04BF00EBB0
:105D4000C25070474FEAC3707047130A5FEADC1015
:105D500008BF7047F6E79CEA026F04D010EA5C0FB8
:105D600008BF0020704710B5FFF745FF40DFF63E43
:105D700081F000407047FBF787B80CF00F03092B48
:105D800008BF082000F05F800A2B0BD0082B18BF3B
:105D9000704708BF1CF0400F0AD04FF000004FF0D2
:105DA000000170471CF0400F18BF4FF000407047D3
:105DB0001CF0100F08D020F0704300F07F4242EA40
:105DC000D3014FEA4370704700F0604021F07F42FA
:105DD00042EA000201F07F4040EA727070474FF0E3
:105DE000FF0C4CF4E06C1CEA11531CBF9CEA030C42
:105DF0009445C2BFDA4201EB02517047002B0DD02F
:105E0000BCF1000F0FD0002A01F00041A4BF41F007
:105E1000E04141F07F614FF00000704701F0004128
:105E20004FF00000704750EA01334FF09B0C18BF51
:105E30004CF0806C7EF4FEAF7047FBF73FBBFBF786
:105E400059BDFBF7E3BE1CF4801F11D01CF4E02FFA
:105E500003D06FEACC31490070474FF04050EFF368
:105E6000008222F0704242EA000282F3008870470A
:105E70004FF000007047000000000000000000002C
:105E80003031323334353637383941424344454670
:105E9000403058003031323334353637383961626A
:105EA000636465664030780004000008000000006C
:105EB00000000002000100001000000000000000CF
:105EC0004C5555555555A53F7751C1166CC156BF18
:105ED0009015CB19A001FA3EAD529C804F7E92BE28
:105EE000C4B1B4BD9EEE213ED43888BEE9FAA8BD47
:105EF00000004054FB21F93F3163621A61B4D03D88
:105F00000000601A61B4D03D7370032E8A19A33B60
:105F10000000002E8A19A33BC14920259A837B39B2
:105F200000000000000000006E83F9A22915444E15
:105F3000D15727FCC0DD34F5999562DB4190433C95
:105F4000AB6351FE61C5BBDE3A6E24B7E0D24D4271
:105F5000EA2E49061C92D1091CEB1DFE3EA729B171
:105F6000F53582E88444BB2E26709CE9417E5FB4FF
:105F700039D69139F43953838B5F849C3B28F9BD22
:105F8000FF97F81F0F9805DE8B112FEF1F6D0A5A30
:105F9000CF7E366DB709CB27663F464F2DEA5F9E11
:105FA000C7BA27757BF1E5EBF739073DEA92528ACC
:105FB000B15FFB6B085D8D1FA6F810111111813FB9
:105FC000D561C119A0012ABF7DFEB157E31DC73EAF
:105FD000EB9C2B8AE6E55ABE7CD5CF5A3AD9E53DF3
:105FE00002400000000000A000000000054000008A
:105FF000000000C8000000000C4000000000409CB1
:1060000000000000194000000020BCBE000000009D
:1060100034400000BFC91B8E00000004B5400000E2
:10602000504BCFD06607E2CF010000006C4100006A
:106030003E8251AADFEEA73401000000D9420000E1
:10604000DCB5A0E23A301F97FFFFFFFFB445000028
:10605000FD25A0C8E9A3C14FFFFFFFFFFF3F0000E0
:106060000000008000000000FF3F000000000080F2
:1060700000000000C8610008000000208800000047
:106080006C0100085062000888000020C80700006A
:1060900088010008000000000000F07F1C000000E4
:1060A00043000000F8FFFFFF0C0000000E0000009E
:1060B0000F0000002E00000010010000430000004F
:1060C000F8FFFFFF00404040404040404040414119
:1060D00041414140404040404040404040404040BD
:1060E0004040404040050202020202020202020257
:1060F0000202020202202020202020202020200254
:1061000002020202020290909090909010101010E3
:10611000101010101010101010101010101010107F
:106120000202020202028888888888880808080813
:1061300008080808080808080808080808080808DF
:106140000202020240000000000000000000000007
:10615000000000000000000000000000000000003F
:10616000000000000000000000000000000000002F
:10617000000000000000000000000000000000001F
:10618000000000000000000000000000000000000F
:1061900000000000000000000000000000000000FF
:1061A00000000000000000000000000000000000EF
:1061B00000000000000000000000000000000000DF
:1061C000000000000000000000A24A0400000000DF
:1061D0000000000001020304060708090000000097
:1061E0000102030401020304060708090204060869
:1061F00000000100010001000000000068656C70F3
:1062000000000000005072696E7420616C6C2063A5
:106210006F6D6D616E6420616E642075736167657A
:106220000000000000000000A14A0008000000007B
:1062300000000000000000000000803F2C01000072
:106240002C01000000000000000000000000000021
:0400000508000131BD
:00000001FF
