Component: ARM Compiler 5.05 update 1 (build 106) Tool: armlink [4d0efa]

==============================================================================

Section Cross References

    main.o(.text) refers to misc.o(.text) for NVIC_PriorityGroupConfig
    main.o(.text) refers to stm32f10x_rcc.o(.text) for RCC_APB2PeriphClockCmd
    main.o(.text) refers to system_stm32f10x.o(.text) for SystemInit
    main.o(.text) refers to delay.o(.text) for delay_init
    main.o(.text) refers to pwm.o(.text) for PWM_Init
    main.o(.text) refers to usart2.o(.text) for USART1_Config
    main.o(.text) refers to key.o(.text) for KEY_Init
    main.o(.text) refers to pid.o(.text) for Speed_PIDInit
    main.o(.text) refers to mpu6050.o(.text) for MPU_Init
    main.o(.text) refers to inv_mpu.o(.text) for mpu_dmp_init
    main.o(.text) refers to tim.o(.text) for TIM4_Init
    main.o(.text) refers to ffix.o(x$fpl$ffix) for __aeabi_f2iz
    main.o(.text) refers to outputdata.o(.text) for OutPut_Data
    main.o(.text) refers to main.o(.bss) for motor13_parameter
    main.o(.text) refers to main.o(.data) for Print
    main.o(.text) refers to outputdata.o(.bss) for OutData
    system_stm32f10x.o(.text) refers to system_stm32f10x.o(.data) for SystemCoreClock
    tim.o(.text) refers to stm32f10x_tim.o(.text) for TIM_GetITStatus
==============================================================================

Removing Unused input sections from the image.

    Removing tim.o(.data), (12 bytes).
    Removing led.o(.text), (80 bytes).
    Removing oled.o(.text), (1368 bytes).
    Removing oled.o(.constdata), (2072 bytes).
    Removing oled.o(.data), (896 bytes).
    Removing sys.o(.emb_text), (6 bytes).
    Removing sys.o(.text), (12 bytes).
    Removing usart.o(.bss), (200 bytes).
    Removing core_cm3.o(.emb_text), (32 bytes).
    Removing stm32f10x_adc.o(.text), (1102 bytes).
    Removing stm32f10x_bkp.o(.text), (196 bytes).
    Removing stm32f10x_can.o(.text), (2544 bytes).
    Removing stm32f10x_cec.o(.text), (288 bytes).
    Removing stm32f10x_crc.o(.text), (72 bytes).
    Removing stm32f10x_dac.o(.text), (396 bytes).
    Removing stm32f10x_dbgmcu.o(.text), (48 bytes).
    Removing stm32f10x_dma.o(.text), (596 bytes).
    Removing stm32f10x_exti.o(.text), (284 bytes).
==============================================================================

Image Symbol Table

    Local Symbols

    Symbol Name                              Value     Ov Type        Size  Object(Section)

    ../clib/angel/boardlib.s                 0x00000000   Number         0  boardinit2.o ABSOLUTE
    ../clib/angel/boardlib.s                 0x00000000   Number         0  boardshut.o ABSOLUTE
    ../clib/angel/boardlib.s                 0x00000000   Number         0  boardinit1.o ABSOLUTE
    ../clib/angel/boardlib.s                 0x00000000   Number         0  boardinit3.o ABSOLUTE
    ../clib/angel/dczerorl2.s                0x00000000   Number         0  __dczerorl2.o ABSOLUTE
    ../clib/angel/handlers.s                 0x00000000   Number         0  __scatter_zi.o ABSOLUTE
    ../clib/angel/kernel.s                   0x00000000   Number         0  __rtentry2.o ABSOLUTE
    ../clib/angel/kernel.s                   0x00000000   Number         0  rtexit.o ABSOLUTE
    ../clib/angel/kernel.s                   0x00000000   Number         0  __rtentry4.o ABSOLUTE
    ../clib/angel/kernel.s                   0x00000000   Number         0  __rtentry.o ABSOLUTE
    ../clib/angel/kernel.s                   0x00000000   Number         0  rtexit2.o ABSOLUTE
    ../clib/angel/rt.s                       0x00000000   Number         0  rt_ctype_table.o ABSOLUTE
    ../clib/angel/rt.s                       0x00000000   Number         0  aeabi_ldiv0.o ABSOLUTE
    ../clib/angel/rt.s                       0x00000000   Number         0  aeabi_ldiv0_sigfpe.o ABSOLUTE
    ../clib/angel/rt.s                       0x00000000   Number         0  rt_div0.o ABSOLUTE
    ../clib/angel/rt.s                       0x00000000   Number         0  rt_raise.o ABSOLUTE
    ../clib/angel/rt.s                       0x00000000   Number         0  rt_locale.o ABSOLUTE
    ../clib/angel/rt.s                       0x00000000   Number         0  rt_locale_intlibspace.o ABSOLUTE
    ../clib/angel/rt.s                       0x00000000   Number         0  rt_errno_addr_intlibspace.o ABSOLUTE
    ../clib/angel/rt.s                       0x00000000   Number         0  rt_errno_addr.o ABSOLUTE
    ../clib/angel/rt.s                       0x00000000   Number         0  rt_heap_descriptor_intlibspace.o ABSOLUTE
    ../clib/angel/rt.s                       0x00000000   Number         0  rt_heap_descriptor.o ABSOLUTE
    ../clib/angel/scatter.s                  0x00000000   Number         0  __scatter.o ABSOLUTE
    ../clib/angel/startup.s                  0x00000000   Number         0  __main.o ABSOLUTE
    ../clib/angel/sys.s                      0x00000000   Number         0  use_no_semi_2.o ABSOLUTE
    ../clib/angel/sys.s                      0x00000000   Number         0  indicate_semi.o ABSOLUTE
    ../clib/angel/sys.s                      0x00000000   Number         0  mutex_dummy.o ABSOLUTE
    ../clib/angel/sys.s                      0x00000000   Number         0  sys_stackheap_outer.o ABSOLUTE
    ../clib/angel/sys.s                      0x00000000   Number         0  use_no_semi.o ABSOLUTE
    ../clib/angel/sys.s                      0x00000000   Number         0  libspace.o ABSOLUTE
    ../clib/angel/sysapp.c                   0x00000000   Number         0  sys_command.o ABSOLUTE
    ../clib/armsys.c                         0x00000000   Number         0  argv_veneer.o ABSOLUTE
    ../clib/armsys.c                         0x00000000   Number         0  argv_veneer.o ABSOLUTE
    ../clib/armsys.c                         0x00000000   Number         0  _get_argv.o ABSOLUTE
    ../clib/armsys.c                         0x00000000   Number         0  no_argv.o ABSOLUTE
    ../clib/armsys.c                         0x00000000   Number         0  _get_argv_nomalloc.o ABSOLUTE
    ../clib/bigflt.c                         0x00000000   Number         0  bigflt0.o ABSOLUTE
    ../clib/btod.s                           0x00000000   Number         0  btod.o ABSOLUTE
    ../clib/ctype.c                          0x00000000   Number         0  isspace.o ABSOLUTE
    ../clib/fenv.c                           0x00000000   Number         0  _rserrno.o ABSOLUTE
    ../clib/heap1.c                          0x00000000   Number         0  h1_extend_mt.o ABSOLUTE
    ../clib/heap1.c                          0x00000000   Number         0  h1_alloc_mt.o ABSOLUTE
    ../clib/heap1.c                          0x00000000   Number         0  h1_alloc.o ABSOLUTE
    ../clib/heap1.c                          0x00000000   Number         0  h1_init_mt.o ABSOLUTE
    ../clib/heap1.c                          0x00000000   Number         0  h1_final_mt.o ABSOLUTE
    ../clib/heap1.c                          0x00000000   Number         0  h1_final.o ABSOLUTE
    ../clib/heap1.c                          0x00000000   Number         0  h1_free_mt.o ABSOLUTE
    ../clib/heap1.c                          0x00000000   Number         0  h1_extend.o ABSOLUTE
    ../clib/heap1.c                          0x00000000   Number         0  h1_init.o ABSOLUTE
    ../clib/heap1.c                          0x00000000   Number         0  h1_free.o ABSOLUTE
    ../clib/heap2.c                          0x00000000   Number         0  fdtree.o ABSOLUTE
    ../clib/heap2.c                          0x00000000   Number         0  heap2.o ABSOLUTE
    ../clib/heap2.c                          0x00000000   Number         0  heap2mt.o ABSOLUTE
    ../clib/heapalloc.c                      0x00000000   Number         0  term_alloc.o ABSOLUTE
    ../clib/heapalloc.c                      0x00000000   Number         0  malloc.o ABSOLUTE
    ../clib/heapalloc.c                      0x00000000   Number         0  hrguard.o ABSOLUTE
    ../clib/heapalloc.c                      0x00000000   Number         0  maybetermalloc1.o ABSOLUTE
    ../clib/heapalloc.c                      0x00000000   Number         0  maybetermalloc1.o ABSOLUTE
    ../clib/heapalloc.c                      0x00000000   Number         0  maybetermalloc2.o ABSOLUTE
    ../clib/heapalloc.c                      0x00000000   Number         0  maybetermalloc2.o ABSOLUTE
    ../clib/heapalloc.c                      0x00000000   Number         0  heapstubs.o ABSOLUTE
    ../clib/heapalloc.c                      0x00000000   Number         0  free.o ABSOLUTE
    ../clib/heapalloc.c                      0x00000000   Number         0  init_alloc.o ABSOLUTE
    ../clib/heapalloc.c                      0x00000000   Number         0  hguard.o ABSOLUTE
    ../clib/heapaux.c                        0x00000000   Number         0  heapauxa.o ABSOLUTE
    ../clib/heapaux.c                        0x00000000   Number         0  heapauxi.o ABSOLUTE
    ../clib/libinit.s                        0x00000000   Number         0  libshutdown2.o ABSOLUTE
    ../clib/libinit.s                        0x00000000   Number         0  libinit.o ABSOLUTE
    ../clib/libinit.s                        0x00000000   Number         0  libinit2.o ABSOLUTE
    ../clib/libinit.s                        0x00000000   Number         0  libshutdown.o ABSOLUTE
    ../clib/locale.c                         0x00000000   Number         0  _wcrtomb.o ABSOLUTE
    ../clib/locale.s                         0x00000000   Number         0  lc_ctype_c.o ABSOLUTE
    ../clib/locale.s                         0x00000000   Number         0  lc_numeric_c.o ABSOLUTE
    ../clib/longlong.s                       0x00000000   Number         0  lludiv10.o ABSOLUTE
    ../clib/longlong.s                       0x00000000   Number         0  llsdiv.o ABSOLUTE
    ../clib/longlong.s                       0x00000000   Number         0  llshl.o ABSOLUTE
    ../clib/longlong.s                       0x00000000   Number         0  lludivv7m.o ABSOLUTE
    ../clib/memcpset.s                       0x00000000   Number         0  rt_memcpy_w.o ABSOLUTE
    ../clib/memcpset.s                       0x00000000   Number         0  aeabi_memset.o ABSOLUTE
    ../clib/memcpset.s                       0x00000000   Number         0  rt_memclr_w.o ABSOLUTE
    ../clib/memcpset.s                       0x00000000   Number         0  strcmpv7m.o ABSOLUTE
    ../clib/memcpset.s                       0x00000000   Number         0  rt_memclr.o ABSOLUTE
    ../clib/misc.s                           0x00000000   Number         0  printf_stubs.o ABSOLUTE
    ../clib/printf.c                         0x00000000   Number         0  __2printf.o ABSOLUTE
    ../clib/printf.c                         0x00000000   Number         0  noretval__2printf.o ABSOLUTE
    ../clib/printf.c                         0x00000000   Number         0  __printf.o ABSOLUTE
    ../clib/printf.c                         0x00000000   Number         0  _printf_pad.o ABSOLUTE
    ../clib/printf.c                         0x00000000   Number         0  _printf_fp_infnan.o ABSOLUTE
    ../clib/printf.c                         0x00000000   Number         0  _printf_dec.o ABSOLUTE
    ../clib/printf.c                         0x00000000   Number         0  _printf_hex_ll.o ABSOLUTE
    ../clib/printf.c                         0x00000000   Number         0  _printf_hex_int.o ABSOLUTE
    ../clib/printf.c                         0x00000000   Number         0  _printf_hex_int_ll.o ABSOLUTE
    ../clib/printf.c                         0x00000000   Number         0  _printf_hex_ptr.o ABSOLUTE
    ../clib/printf.c                         0x00000000   Number         0  _printf_hex_int_ptr.o ABSOLUTE
    ../clib/printf.c                         0x00000000   Number         0  _printf_hex_ll_ptr.o ABSOLUTE
    ../clib/printf.c                         0x00000000   Number         0  _printf_hex_int_ll_ptr.o ABSOLUTE
    ../clib/printf.c                         0x00000000   Number         0  __printf_ss.o ABSOLUTE
    ../clib/printf.c                         0x00000000   Number         0  __printf_flags_ss.o ABSOLUTE
    ../clib/printf.c                         0x00000000   Number         0  __printf_wp.o ABSOLUTE
    ../clib/printf.c                         0x00000000   Number         0  __printf_flags_wp.o ABSOLUTE
    ../clib/printf.c                         0x00000000   Number         0  __printf_ss_wp.o ABSOLUTE
    ../clib/printf.c                         0x00000000   Number         0  __printf_flags_ss_wp.o ABSOLUTE
    ../clib/printf.c                         0x00000000   Number         0  _printf_char.o ABSOLUTE
    ../clib/printf.c                         0x00000000   Number         0  __printf_nopercent.o ABSOLUTE
    ../clib/printf.c                         0x00000000   Number         0  _printf_fp_dec.o ABSOLUTE
    ../clib/printf.c                         0x00000000   Number         0  _printf_truncate.o ABSOLUTE
    ../clib/printf.c                         0x00000000   Number         0  _printf_str.o ABSOLUTE
    ../clib/printf.c                         0x00000000   Number         0  _printf_intcommon.o ABSOLUTE
    ../clib/printf.c                         0x00000000   Number         0  _printf_charcount.o ABSOLUTE
    ../clib/printf.c                         0x00000000   Number         0  _printf_char_common.o ABSOLUTE
    ../clib/printf.c                         0x00000000   Number         0  _sputc.o ABSOLUTE
    ../clib/printf.c                         0x00000000   Number         0  _snputc.o ABSOLUTE
    ../clib/printf.c                         0x00000000   Number         0  _printf_char_file.o ABSOLUTE
    ../clib/printf.c                         0x00000000   Number         0  _printf_wctomb.o ABSOLUTE
    ../clib/printf.c                         0x00000000   Number         0  _printf_longlong_dec.o ABSOLUTE
    ../clib/printf.c                         0x00000000   Number         0  _printf_oct_ll.o ABSOLUTE
    ../clib/printf.c                         0x00000000   Number         0  _printf_oct_int.o ABSOLUTE
    ../clib/printf.c                         0x00000000   Number         0  _printf_oct_int_ll.o ABSOLUTE
    ../clib/printf.c                         0x00000000   Number         0  _printf_wchar.o ABSOLUTE
    ../clib/printf.c                         0x00000000   Number         0  __printf_flags.o ABSOLUTE
    ../clib/printf.c                         0x00000000   Number         0  c89vsnprintf.o ABSOLUTE
    ../clib/printf_percent.s                 0x00000000   Number         0  _printf_x.o ABSOLUTE
    ../clib/printf_percent.s                 0x00000000   Number         0  _printf_f.o ABSOLUTE
    ../clib/printf_percent.s                 0x00000000   Number         0  _printf_u.o ABSOLUTE
    ../clib/printf_percent.s                 0x00000000   Number         0  _printf_s.o ABSOLUTE
    ../clib/printf_percent.s                 0x00000000   Number         0  _printf_i.o ABSOLUTE
    ../clib/printf_percent.s                 0x00000000   Number         0  _printf_n.o ABSOLUTE
    ../clib/printf_percent.s                 0x00000000   Number         0  _printf_d.o ABSOLUTE
    ../clib/printf_percent.s                 0x00000000   Number         0  _printf_llo.o ABSOLUTE
    ../clib/printf_percent.s                 0x00000000   Number         0  _printf_ls.o ABSOLUTE
    ../clib/printf_percent.s                 0x00000000   Number         0  _printf_lc.o ABSOLUTE
    ../clib/printf_percent.s                 0x00000000   Number         0  _printf_c.o ABSOLUTE
    ../clib/printf_percent.s                 0x00000000   Number         0  _printf_ll.o ABSOLUTE
    ../clib/printf_percent.s                 0x00000000   Number         0  _printf_llu.o ABSOLUTE
    ../clib/printf_percent.s                 0x00000000   Number         0  _printf_percent.o ABSOLUTE
    ../clib/printf_percent.s                 0x00000000   Number         0  _printf_lld.o ABSOLUTE
    ../clib/printf_percent.s                 0x00000000   Number         0  _printf_lli.o ABSOLUTE
    ../clib/printf_percent.s                 0x00000000   Number         0  _printf_o.o ABSOLUTE
    ../clib/printf_percent.s                 0x00000000   Number         0  _printf_llx.o ABSOLUTE
    ../clib/printf_percent.s                 0x00000000   Number         0  _printf_p.o ABSOLUTE
    ../clib/printf_percent.s                 0x00000000   Number         0  _printf_percent_end.o ABSOLUTE
    ../clib/printf_percent.s                 0x00000000   Number         0  _printf_a.o ABSOLUTE
    ../clib/printf_percent.s                 0x00000000   Number         0  _printf_g.o ABSOLUTE
    ../clib/printf_percent.s                 0x00000000   Number         0  _printf_l.o ABSOLUTE
    ../clib/printf_percent.s                 0x00000000   Number         0  _printf_e.o ABSOLUTE
    ../clib/scanf.c                          0x00000000   Number         0  scanf_infnan.o ABSOLUTE
    ../clib/scanf.c                          0x00000000   Number         0  scanf_fp.o ABSOLUTE
    ../clib/scanf.c                          0x00000000   Number         0  _chval.o ABSOLUTE
    ../clib/scanf.c                          0x00000000   Number         0  strtod.o ABSOLUTE
    ../clib/scanf.c                          0x00000000   Number         0  _sgetc.o ABSOLUTE
    ../clib/scanf.c                          0x00000000   Number         0  scanf_hexfp.o ABSOLUTE
    ../clib/signal.c                         0x00000000   Number         0  defsig_exit.o ABSOLUTE
    ../clib/signal.c                         0x00000000   Number         0  __raise.o ABSOLUTE
    ../clib/signal.c                         0x00000000   Number         0  defsig_general.o ABSOLUTE
    ../clib/signal.c                         0x00000000   Number         0  defsig_cppl_inner.o ABSOLUTE
    ../clib/signal.c                         0x00000000   Number         0  defsig_abrt_inner.o ABSOLUTE
    ../clib/signal.c                         0x00000000   Number         0  defsig_rtred_inner.o ABSOLUTE
    ../clib/signal.c                         0x00000000   Number         0  defsig_rtmem_formal.o ABSOLUTE
    ../clib/signal.c                         0x00000000   Number         0  defsig_stak_inner.o ABSOLUTE
    ../clib/signal.c                         0x00000000   Number         0  defsig_fpe_outer.o ABSOLUTE
    ../clib/signal.c                         0x00000000   Number         0  defsig_pvfn_inner.o ABSOLUTE
    ../clib/signal.c                         0x00000000   Number         0  defsig_rtmem_outer.o ABSOLUTE
    ../clib/signal.c                         0x00000000   Number         0  defsig_other.o ABSOLUTE
    ../clib/signal.c                         0x00000000   Number         0  defsig_fpe_formal.o ABSOLUTE
    ../clib/signal.c                         0x00000000   Number         0  defsig_segv_inner.o ABSOLUTE
    ../clib/signal.c                         0x00000000   Number         0  defsig_fpe_inner.o ABSOLUTE
    ../clib/signal.c                         0x00000000   Number         0  defsig_rtmem_inner.o ABSOLUTE
    ../clib/signal.s                         0x00000000   Number         0  defsig.o ABSOLUTE
    ../clib/stdio.c                          0x00000000   Number         0  ferror.o ABSOLUTE
    ../clib/stdio.c                          0x00000000   Number         0  ferror_locked.o ABSOLUTE
    ../clib/stdlib.c                         0x00000000   Number         0  abs.o ABSOLUTE
    ../clib/stdlib.c                         0x00000000   Number         0  exit.o ABSOLUTE
    ../clib/string.c                         0x00000000   Number         0  memcmp.o ABSOLUTE
    ../fplib/d2f.s                           0x00000000   Number         0  d2f.o ABSOLUTE
    ../fplib/daddsub.s                       0x00000000   Number         0  daddsub_clz.o ABSOLUTE
    ../fplib/dcheck1.s                       0x00000000   Number         0  dcheck1.o ABSOLUTE
    ../fplib/dcmpi.s                         0x00000000   Number         0  dcmpi.o ABSOLUTE
    ../fplib/ddiv.s                          0x00000000   Number         0  ddiv.o ABSOLUTE
    ../fplib/deqf.s                          0x00000000   Number         0  deqf.o ABSOLUTE
    ../fplib/dfix.s                          0x00000000   Number         0  dfix.o ABSOLUTE
    ../fplib/dfixu.s                         0x00000000   Number         0  dfixu.o ABSOLUTE
    ../fplib/dflt.s                          0x00000000   Number         0  dflt_clz.o ABSOLUTE
    ../fplib/dleqf.s                         0x00000000   Number         0  dleqf.o ABSOLUTE
    ../fplib/dmul.s                          0x00000000   Number         0  dmul.o ABSOLUTE
    ../fplib/dnaninf.s                       0x00000000   Number         0  dnaninf.o ABSOLUTE
    ../fplib/dretinf.s                       0x00000000   Number         0  dretinf.o ABSOLUTE
    ../fplib/drleqf.s                        0x00000000   Number         0  drleqf.o ABSOLUTE
    ../fplib/dsqrt.s                         0x00000000   Number         0  dsqrt_noumaal.o ABSOLUTE
    ../fplib/f2d.s                           0x00000000   Number         0  f2d.o ABSOLUTE
    ../fplib/faddsub.s                       0x00000000   Number         0  faddsub_clz.o ABSOLUTE
    ../fplib/fcmpi.s                         0x00000000   Number         0  fcmpi.o ABSOLUTE
    ../fplib/fdiv.s                          0x00000000   Number         0  fdiv.o ABSOLUTE
    ../fplib/feqf.s                          0x00000000   Number         0  feqf.o ABSOLUTE
    ../fplib/ffix.s                          0x00000000   Number         0  ffix.o ABSOLUTE
    ../fplib/ffixu.s                         0x00000000   Number         0  ffixu.o ABSOLUTE
    ../fplib/fflt.s                          0x00000000   Number         0  fflt_clz.o ABSOLUTE
    ../fplib/fleqf.s                         0x00000000   Number         0  fleqf.o ABSOLUTE
    ../fplib/fmul.s                          0x00000000   Number         0  fmul.o ABSOLUTE
    ../fplib/fnaninf.s                       0x00000000   Number         0  fnaninf.o ABSOLUTE
    ../fplib/fpconst.s                       0x00000000   Number         0  fpconst.o ABSOLUTE
    ../fplib/fpinit.s                        0x00000000   Number         0  fpinit.o ABSOLUTE
    ../fplib/fretinf.s                       0x00000000   Number         0  fretinf.o ABSOLUTE
    ../fplib/frleqf.s                        0x00000000   Number         0  frleqf.o ABSOLUTE
    ../fplib/istatus.s                       0x00000000   Number         0  istatus.o ABSOLUTE
    ../fplib/printf1.s                       0x00000000   Number         0  printf1.o ABSOLUTE
    ../fplib/retnan.s                        0x00000000   Number         0  retnan.o ABSOLUTE
    ../fplib/scalbn.s                        0x00000000   Number         0  scalbn.o ABSOLUTE
    ../fplib/scanf1.s                        0x00000000   Number         0  scanf1.o ABSOLUTE
    ../fplib/scanf2.s                        0x00000000   Number         0  scanf2.o ABSOLUTE
    ../fplib/scanf2a.s                       0x00000000   Number         0  scanf2a.o ABSOLUTE
    ../fplib/scanf2b.s                       0x00000000   Number         0  scanf2b.o ABSOLUTE
    ../fplib/trapv.s                         0x00000000   Number         0  trapv.o ABSOLUTE
    ../fplib/usenofp.s                       0x00000000   Number         0  usenofp.o ABSOLUTE
    ../mathlib/asin.c                        0x00000000   Number         0  asin.o ABSOLUTE
    ../mathlib/asin.c                        0x00000000   Number         0  asin_x.o ABSOLUTE
    ../mathlib/atan.c                        0x00000000   Number         0  atan_x.o ABSOLUTE
    ../mathlib/atan.c                        0x00000000   Number         0  atan.o ABSOLUTE
    ../mathlib/atan2.c                       0x00000000   Number         0  atan2_x.o ABSOLUTE
    ../mathlib/atan2.c                       0x00000000   Number         0  atan2.o ABSOLUTE
    ../mathlib/atof.c                        0x00000000   Number         0  atof.o ABSOLUTE
    ../mathlib/cos.c                         0x00000000   Number         0  cos_x.o ABSOLUTE
    ../mathlib/cos.c                         0x00000000   Number         0  cos.o ABSOLUTE
    ../mathlib/cos_i.c                       0x00000000   Number         0  cos_i.o ABSOLUTE
    ../mathlib/dunder.c                      0x00000000   Number         0  dunder.o ABSOLUTE
    ../mathlib/fpclassify.c                  0x00000000   Number         0  fpclassify.o ABSOLUTE
    ../mathlib/frexp.c                       0x00000000   Number         0  frexp.o ABSOLUTE
    ../mathlib/ldexp.c                       0x00000000   Number         0  ldexp.o ABSOLUTE
    ../mathlib/ldexp.c                       0x00000000   Number         0  ldexp_x.o ABSOLUTE
    ../mathlib/narrow.c                      0x00000000   Number         0  narrow.o ABSOLUTE
    ../mathlib/poly.c                        0x00000000   Number         0  poly.o ABSOLUTE
    ../mathlib/qnan.c                        0x00000000   Number         0  qnan.o ABSOLUTE
    ../mathlib/rred.c                        0x00000000   Number         0  rred.o ABSOLUTE
    ../mathlib/sin.c                         0x00000000   Number         0  sin_x.o ABSOLUTE
    ../mathlib/sin.c                         0x00000000   Number         0  sin.o ABSOLUTE
    ../mathlib/sin_i.c                       0x00000000   Number         0  sin_i_x.o ABSOLUTE
    ../mathlib/sin_i.c                       0x00000000   Number         0  sin_i.o ABSOLUTE
    ../mathlib/sqrt.c                        0x00000000   Number         0  sqrt.o ABSOLUTE
    ../mathlib/sqrt.c                        0x00000000   Number         0  sqrt_x.o ABSOLUTE
    ..\CORE\core_cm3.c                       0x00000000   Number         0  core_cm3.o ABSOLUTE
    ..\CORE\startup_stm32f10x_hd.s           0x00000000   Number         0  startup_stm32f10x_hd.o ABSOLUTE
    ..\HARDWARE\Control_Motor.c              0x00000000   Number         0  control_motor.o ABSOLUTE
    ..\HARDWARE\KEY\KEY.c                    0x00000000   Number         0  key.o ABSOLUTE
    ..\HARDWARE\LED\led.c                    0x00000000   Number         0  led.o ABSOLUTE
    ..\HARDWARE\MPU6050\eMPL\inv_mpu.c       0x00000000   Number         0  inv_mpu.o ABSOLUTE
    ..\HARDWARE\MPU6050\eMPL\inv_mpu_dmp_motion_driver.c 0x00000000   Number         0  inv_mpu_dmp_motion_driver.o ABSOLUTE
    ..\HARDWARE\MPU6050\mpu6050.c            0x00000000   Number         0  mpu6050.o ABSOLUTE
    ..\HARDWARE\MPU6050\mpuiic.c             0x00000000   Number         0  mpuiic.o ABSOLUTE
    ..\HARDWARE\PID\PID.c                    0x00000000   Number         0  pid.o ABSOLUTE
    ..\HARDWARE\PWM\pwm.c                    0x00000000   Number         0  pwm.o ABSOLUTE
    ..\HARDWARE\TIM\TIM.c                    0x00000000   Number         0  tim.o ABSOLUTE
    ..\HARDWARE\USART2\USART2.c              0x00000000   Number         0  usart2.o ABSOLUTE
    ..\HARDWARE\USART_Function.c             0x00000000   Number         0  usart_function.o ABSOLUTE
    ..\HARDWARE\oled.c                       0x00000000   Number         0  oled.o ABSOLUTE
    ..\HARDWARE\outputdata.c                 0x00000000   Number         0  outputdata.o ABSOLUTE
    ..\STM32F10x_FWLib\src\misc.c            0x00000000   Number         0  misc.o ABSOLUTE
    ..\STM32F10x_FWLib\src\stm32f10x_adc.c   0x00000000   Number         0  stm32f10x_adc.o ABSOLUTE
    ..\STM32F10x_FWLib\src\stm32f10x_bkp.c   0x00000000   Number         0  stm32f10x_bkp.o ABSOLUTE
    ..\STM32F10x_FWLib\src\stm32f10x_can.c   0x00000000   Number         0  stm32f10x_can.o ABSOLUTE
    ..\STM32F10x_FWLib\src\stm32f10x_cec.c   0x00000000   Number         0  stm32f10x_cec.o ABSOLUTE
    ..\STM32F10x_FWLib\src\stm32f10x_crc.c   0x00000000   Number         0  stm32f10x_crc.o ABSOLUTE
    ..\STM32F10x_FWLib\src\stm32f10x_dac.c   0x00000000   Number         0  stm32f10x_dac.o ABSOLUTE
    ..\STM32F10x_FWLib\src\stm32f10x_dbgmcu.c 0x00000000   Number         0  stm32f10x_dbgmcu.o ABSOLUTE
    ..\STM32F10x_FWLib\src\stm32f10x_dma.c   0x00000000   Number         0  stm32f10x_dma.o ABSOLUTE
    ..\STM32F10x_FWLib\src\stm32f10x_exti.c  0x00000000   Number         0  stm32f10x_exti.o ABSOLUTE
    ..\STM32F10x_FWLib\src\stm32f10x_flash.c 0x00000000   Number         0  stm32f10x_flash.o ABSOLUTE
    ..\STM32F10x_FWLib\src\stm32f10x_fsmc.c  0x00000000   Number         0  stm32f10x_fsmc.o ABSOLUTE
    ..\STM32F10x_FWLib\src\stm32f10x_gpio.c  0x00000000   Number         0  stm32f10x_gpio.o ABSOLUTE
    ..\STM32F10x_FWLib\src\stm32f10x_i2c.c   0x00000000   Number         0  stm32f10x_i2c.o ABSOLUTE
    ..\STM32F10x_FWLib\src\stm32f10x_iwdg.c  0x00000000   Number         0  stm32f10x_iwdg.o ABSOLUTE
    ..\STM32F10x_FWLib\src\stm32f10x_pwr.c   0x00000000   Number         0  stm32f10x_pwr.o ABSOLUTE
    ..\STM32F10x_FWLib\src\stm32f10x_rcc.c   0x00000000   Number         0  stm32f10x_rcc.o ABSOLUTE
    ..\STM32F10x_FWLib\src\stm32f10x_rtc.c   0x00000000   Number         0  stm32f10x_rtc.o ABSOLUTE
    ..\STM32F10x_FWLib\src\stm32f10x_sdio.c  0x00000000   Number         0  stm32f10x_sdio.o ABSOLUTE
    ..\STM32F10x_FWLib\src\stm32f10x_spi.c   0x00000000   Number         0  stm32f10x_spi.o ABSOLUTE
    ..\STM32F10x_FWLib\src\stm32f10x_tim.c   0x00000000   Number         0  stm32f10x_tim.o ABSOLUTE
    ..\STM32F10x_FWLib\src\stm32f10x_usart.c 0x00000000   Number         0  stm32f10x_usart.o ABSOLUTE
    ..\STM32F10x_FWLib\src\stm32f10x_wwdg.c  0x00000000   Number         0  stm32f10x_wwdg.o ABSOLUTE
    ..\SYSTEM\delay\delay.c                  0x00000000   Number         0  delay.o ABSOLUTE
    ..\SYSTEM\sys\sys.c                      0x00000000   Number         0  sys.o ABSOLUTE
    ..\SYSTEM\usart\usart.c                  0x00000000   Number         0  usart.o ABSOLUTE
    ..\\CORE\\core_cm3.c                     0x00000000   Number         0  core_cm3.o ABSOLUTE
    ..\\SYSTEM\\sys\\sys.c                   0x00000000   Number         0  sys.o ABSOLUTE
    dc.s                                     0x00000000   Number         0  dc.o ABSOLUTE
    main.c                                   0x00000000   Number         0  main.o ABSOLUTE
    stm32f10x_it.c                           0x00000000   Number         0  stm32f10x_it.o ABSOLUTE
    system_stm32f10x.c                       0x00000000   Number         0  system_stm32f10x.o ABSOLUTE
    RESET                                    0x08000000   Section      304  startup_stm32f10x_hd.o(RESET)
    !!!main                                  0x08000130   Section        8  __main.o(!!!main)
    !!!scatter                               0x08000138   Section       52  __scatter.o(!!!scatter)
    !!dczerorl2                              0x0800016c   Section       90  __dczerorl2.o(!!dczerorl2)
    !!handler_zi                             0x080001c8   Section       28  __scatter_zi.o(!!handler_zi)
    .ARM.Collect$$_printf_percent$$00000000  0x080001e4   Section        0  _printf_percent.o(.ARM.Collect$$_printf_percent$$00000000)
    .ARM.Collect$$_printf_percent$$00000001  0x080001e4   Section        6  _printf_n.o(.ARM.Collect$$_printf_percent$$00000001)
    .ARM.Collect$$_printf_percent$$00000002  0x080001ea   Section        6  _printf_p.o(.ARM.Collect$$_printf_percent$$00000002)
    .ARM.Collect$$_printf_percent$$00000003  0x080001f0   Section        6  _printf_f.o(.ARM.Collect$$_printf_percent$$00000003)
    .ARM.Collect$$_printf_percent$$00000004  0x080001f6   Section        6  _printf_e.o(.ARM.Collect$$_printf_percent$$00000004)
    .ARM.Collect$$_printf_percent$$00000005  0x080001fc   Section        6  _printf_g.o(.ARM.Collect$$_printf_percent$$00000005)
    .ARM.Collect$$_printf_percent$$00000006  0x08000202   Section        6  _printf_a.o(.ARM.Collect$$_printf_percent$$00000006)
    .ARM.Collect$$_printf_percent$$00000007  0x08000208   Section       10  _printf_ll.o(.ARM.Collect$$_printf_percent$$00000007)
    .ARM.Collect$$_printf_percent$$00000008  0x08000212   Section        6  _printf_i.o(.ARM.Collect$$_printf_percent$$00000008)
    .ARM.Collect$$_printf_percent$$00000009  0x08000218   Section        6  _printf_d.o(.ARM.Collect$$_printf_percent$$00000009)
    .ARM.Collect$$_printf_percent$$0000000A  0x0800021e   Section        6  _printf_u.o(.ARM.Collect$$_printf_percent$$0000000A)
    .ARM.Collect$$_printf_percent$$0000000B  0x08000224   Section        6  _printf_o.o(.ARM.Collect$$_printf_percent$$0000000B)
    .ARM.Collect$$_printf_percent$$0000000C  0x0800022a   Section        6  _printf_x.o(.ARM.Collect$$_printf_percent$$0000000C)
    .ARM.Collect$$_printf_percent$$0000000D  0x08000230   Section        6  _printf_lli.o(.ARM.Collect$$_printf_percent$$0000000D)
    .ARM.Collect$$_printf_percent$$0000000E  0x08000236   Section        6  _printf_lld.o(.ARM.Collect$$_printf_percent$$0000000E)
    .ARM.Collect$$_printf_percent$$0000000F  0x0800023c   Section        6  _printf_llu.o(.ARM.Collect$$_printf_percent$$0000000F)
    .ARM.Collect$$_printf_percent$$00000010  0x08000242   Section        6  _printf_llo.o(.ARM.Collect$$_printf_percent$$00000010)
    .ARM.Collect$$_printf_percent$$00000011  0x08000248   Section        6  _printf_llx.o(.ARM.Collect$$_printf_percent$$00000011)
    .ARM.Collect$$_printf_percent$$00000012  0x0800024e   Section       10  _printf_l.o(.ARM.Collect$$_printf_percent$$00000012)
    .ARM.Collect$$_printf_percent$$00000013  0x08000258   Section        6  _printf_c.o(.ARM.Collect$$_printf_percent$$00000013)
    .ARM.Collect$$_printf_percent$$00000014  0x0800025e   Section        6  _printf_s.o(.ARM.Collect$$_printf_percent$$00000014)
    .ARM.Collect$$_printf_percent$$00000015  0x08000264   Section        6  _printf_lc.o(.ARM.Collect$$_printf_percent$$00000015)
    .ARM.Collect$$_printf_percent$$00000016  0x0800026a   Section        6  _printf_ls.o(.ARM.Collect$$_printf_percent$$00000016)
    .ARM.Collect$$_printf_percent$$00000017  0x08000270   Section        4  _printf_percent_end.o(.ARM.Collect$$_printf_percent$$00000017)
    .ARM.Collect$$libinit$$00000000          0x08000274   Section        2  libinit.o(.ARM.Collect$$libinit$$00000000)
    .ARM.Collect$$libinit$$00000002          0x08000276   Section        0  libinit2.o(.ARM.Collect$$libinit$$00000002)
    .ARM.Collect$$libinit$$00000004          0x08000276   Section        0  libinit2.o(.ARM.Collect$$libinit$$00000004)
    .ARM.Collect$$libinit$$00000005          0x08000276   Section        8  libinit2.o(.ARM.Collect$$libinit$$00000005)
    .ARM.Collect$$libinit$$0000000A          0x0800027e   Section        0  libinit2.o(.ARM.Collect$$libinit$$0000000A)
    .ARM.Collect$$libinit$$0000000C          0x0800027e   Section        0  libinit2.o(.ARM.Collect$$libinit$$0000000C)
    .ARM.Collect$$libinit$$0000000E          0x0800027e   Section        0  libinit2.o(.ARM.Collect$$libinit$$0000000E)
    .ARM.Collect$$libinit$$0000000F          0x0800027e   Section        6  libinit2.o(.ARM.Collect$$libinit$$0000000F)
    .ARM.Collect$$libinit$$00000011          0x08000284   Section        0  libinit2.o(.ARM.Collect$$libinit$$00000011)
    .ARM.Collect$$libinit$$00000012          0x08000284   Section       12  libinit2.o(.ARM.Collect$$libinit$$00000012)
    .ARM.Collect$$libinit$$00000013          0x08000290   Section        0  libinit2.o(.ARM.Collect$$libinit$$00000013)
    .ARM.Collect$$libinit$$00000015          0x08000290   Section        0  libinit2.o(.ARM.Collect$$libinit$$00000015)
    .ARM.Collect$$libinit$$00000016          0x08000290   Section       10  libinit2.o(.ARM.Collect$$libinit$$00000016)
    .ARM.Collect$$libinit$$00000017          0x0800029a   Section        0  libinit2.o(.ARM.Collect$$libinit$$00000017)
    .ARM.Collect$$libinit$$00000019          0x0800029a   Section        0  libinit2.o(.ARM.Collect$$libinit$$00000019)
    .ARM.Collect$$libinit$$0000001B          0x0800029a   Section        0  libinit2.o(.ARM.Collect$$libinit$$0000001B)
    .ARM.Collect$$libinit$$0000001D          0x0800029a   Section        0  libinit2.o(.ARM.Collect$$libinit$$0000001D)
    .ARM.Collect$$libinit$$0000001F          0x0800029a   Section        0  libinit2.o(.ARM.Collect$$libinit$$0000001F)
    .ARM.Collect$$libinit$$00000021          0x0800029a   Section        0  libinit2.o(.ARM.Collect$$libinit$$00000021)
    .ARM.Collect$$libinit$$00000023          0x0800029a   Section        0  libinit2.o(.ARM.Collect$$libinit$$00000023)
    .ARM.Collect$$libinit$$00000025          0x0800029a   Section        0  libinit2.o(.ARM.Collect$$libinit$$00000025)
    .ARM.Collect$$libinit$$0000002C          0x0800029a   Section        0  libinit2.o(.ARM.Collect$$libinit$$0000002C)
    .ARM.Collect$$libinit$$0000002E          0x0800029a   Section        0  libinit2.o(.ARM.Collect$$libinit$$0000002E)
    .ARM.Collect$$libinit$$00000030          0x0800029a   Section        0  libinit2.o(.ARM.Collect$$libinit$$00000030)
    .ARM.Collect$$libinit$$00000032          0x0800029a   Section        0  libinit2.o(.ARM.Collect$$libinit$$00000032)
    .ARM.Collect$$libinit$$00000033          0x0800029a   Section        2  libinit2.o(.ARM.Collect$$libinit$$00000033)
    .ARM.Collect$$libshutdown$$00000000      0x0800029c   Section        2  libshutdown.o(.ARM.Collect$$libshutdown$$00000000)
    .ARM.Collect$$libshutdown$$00000003      0x0800029e   Section        0  libshutdown2.o(.ARM.Collect$$libshutdown$$00000003)
    .ARM.Collect$$libshutdown$$00000006      0x0800029e   Section        0  libshutdown2.o(.ARM.Collect$$libshutdown$$00000006)
    .ARM.Collect$$libshutdown$$00000009      0x0800029e   Section        0  libshutdown2.o(.ARM.Collect$$libshutdown$$00000009)
    .ARM.Collect$$libshutdown$$0000000B      0x0800029e   Section        0  libshutdown2.o(.ARM.Collect$$libshutdown$$0000000B)
    .ARM.Collect$$libshutdown$$0000000E      0x0800029e   Section        0  libshutdown2.o(.ARM.Collect$$libshutdown$$0000000E)
    .ARM.Collect$$libshutdown$$0000000F      0x0800029e   Section        2  libshutdown2.o(.ARM.Collect$$libshutdown$$0000000F)
    .ARM.Collect$$rtentry$$00000000          0x080002a0   Section        0  __rtentry.o(.ARM.Collect$$rtentry$$00000000)
    .ARM.Collect$$rtentry$$00000002          0x080002a0   Section        0  __rtentry2.o(.ARM.Collect$$rtentry$$00000002)
    .ARM.Collect$$rtentry$$00000004          0x080002a0   Section        6  __rtentry4.o(.ARM.Collect$$rtentry$$00000004)
    .ARM.Collect$$rtentry$$00000009          0x080002a6   Section        0  __rtentry2.o(.ARM.Collect$$rtentry$$00000009)
    .ARM.Collect$$rtentry$$0000000A          0x080002a6   Section        4  __rtentry2.o(.ARM.Collect$$rtentry$$0000000A)
    .ARM.Collect$$rtentry$$0000000C          0x080002aa   Section        0  __rtentry2.o(.ARM.Collect$$rtentry$$0000000C)
    .ARM.Collect$$rtentry$$0000000D          0x080002aa   Section        8  __rtentry2.o(.ARM.Collect$$rtentry$$0000000D)
    .ARM.Collect$$rtexit$$00000000           0x080002b2   Section        2  rtexit.o(.ARM.Collect$$rtexit$$00000000)
    .ARM.Collect$$rtexit$$00000002           0x080002b4   Section        0  rtexit2.o(.ARM.Collect$$rtexit$$00000002)
    .ARM.Collect$$rtexit$$00000003           0x080002b4   Section        4  rtexit2.o(.ARM.Collect$$rtexit$$00000003)
    .ARM.Collect$$rtexit$$00000004           0x080002b8   Section        6  rtexit2.o(.ARM.Collect$$rtexit$$00000004)
    .emb_text                                0x080002c0   Section        0  maybetermalloc1.o(.emb_text)
    .text                                    0x080002c0   Section        0  main.o(.text)
    .text                                    0x08000404   Section        0  stm32f10x_it.o(.text)
    .text                                    0x08000420   Section        0  system_stm32f10x.o(.text)
    SetSysClockTo72                          0x08000421   Thumb Code   214  system_stm32f10x.o(.text)
    SetSysClock                              0x080004f7   Thumb Code     8  system_stm32f10x.o(.text)
    .text                                    0x08000600   Section        0  tim.o(.text)
    .text                                    0x080006f4   Section        0  pid.o(.text)
    .text                                    0x080007bc   Section        0  control_motor.o(.text)
    .text                                    0x08000d98   Section        0  pwm.o(.text)
    .text                                    0x08000f58   Section        0  key.o(.text)
    .text                                    0x080011e8   Section        0  mpuiic.o(.text)
    .text                                    0x08001438   Section        0  usart_function.o(.text)
    .text                                    0x08001724   Section        0  usart2.o(.text)
    .text                                    0x08001adc   Section        0  mpu6050.o(.text)
    .text                                    0x08001e44   Section        0  inv_mpu_dmp_motion_driver.o(.text)
    decode_gesture                           0x080028f9   Thumb Code    94  inv_mpu_dmp_motion_driver.o(.text)
    .text                                    0x08002bb4   Section        0  inv_mpu.o(.text)
    set_int_enable                           0x08002bb5   Thumb Code   138  inv_mpu.o(.text)
    get_accel_prod_shift                     0x08003e25   Thumb Code   168  inv_mpu.o(.text)
    accel_self_test                          0x08003ecd   Thumb Code   164  inv_mpu.o(.text)
    gyro_self_test                           0x08003f71   Thumb Code   280  inv_mpu.o(.text)
    get_st_biases                            0x08004089   Thumb Code  1136  inv_mpu.o(.text)
    .text                                    0x08004e48   Section        0  outputdata.o(.text)
    .text                                    0x08004f48   Section        0  delay.o(.text)
    .text                                    0x0800501c   Section        0  usart.o(.text)
    .text                                    0x080050e0   Section       64  startup_stm32f10x_hd.o(.text)
    .text                                    0x08005120   Section        0  stm32f10x_gpio.o(.text)
    .text                                    0x0800547c   Section        0  stm32f10x_rcc.o(.text)
    .text                                    0x08005820   Section        0  stm32f10x_usart.o(.text)
    .text                                    0x08005c28   Section        0  misc.o(.text)
    .text                                    0x08005d04   Section        0  stm32f10x_tim.o(.text)
    TI4_Config                               0x080061ab   Thumb Code   130  stm32f10x_tim.o(.text)
    TI3_Config                               0x0800623f   Thumb Code   122  stm32f10x_tim.o(.text)
    TI2_Config                               0x080062d3   Thumb Code   130  stm32f10x_tim.o(.text)
    TI1_Config                               0x08006367   Thumb Code   108  stm32f10x_tim.o(.text)
    .text                                    0x08006b1e   Section        2  use_no_semi_2.o(.text)
    .text                                    0x08006b20   Section        0  h1_alloc.o(.text)
    .text                                    0x08006b7e   Section       72  llsdiv.o(.text)
    .text                                    0x08006bc8   Section        0  c89vsnprintf.o(.text)
    .text                                    0x08006bfc   Section        0  __2printf.o(.text)
    .text                                    0x08006c14   Section        0  _printf_pad.o(.text)
    .text                                    0x08006c64   Section        0  _printf_dec.o(.text)
    .text                                    0x08006cdc   Section        0  _printf_hex_int_ll_ptr.o(.text)
    _printf_hex_common                       0x08006cdd   Thumb Code     0  _printf_hex_int_ll_ptr.o(.text)
    .text                                    0x08006d70   Section        0  __printf_flags_ss_wp.o(.text)
    .text                                    0x08006ef8   Section        0  abs.o(.text)
    .text                                    0x08006f00   Section        0  memcmp.o(.text)
    .text                                    0x08006f58   Section      100  rt_memcpy_w.o(.text)
    .text                                    0x08006fbc   Section       16  aeabi_memset.o(.text)
    .text                                    0x08006fcc   Section       78  rt_memclr_w.o(.text)
    .text                                    0x0800701c   Section      128  strcmpv7m.o(.text)
    .text                                    0x0800709c   Section        0  heapauxi.o(.text)
    .text                                    0x080070a2   Section        2  use_no_semi.o(.text)
    .text                                    0x080070a4   Section        8  rt_heap_descriptor_intlibspace.o(.text)
    .text                                    0x080070ac   Section        0  hguard.o(.text)
    .text                                    0x080070b0   Section        0  init_alloc.o(.text)
    .text                                    0x0800713a   Section        0  h1_init.o(.text)
    .text                                    0x08007148   Section        0  h1_free.o(.text)
    .text                                    0x08007196   Section      238  lludivv7m.o(.text)
    .text                                    0x08007284   Section        0  _rserrno.o(.text)
    .text                                    0x0800729a   Section        0  _printf_truncate.o(.text)
    .text                                    0x080072be   Section        0  _printf_str.o(.text)
    .text                                    0x08007310   Section        0  _printf_intcommon.o(.text)
    .text                                    0x080073c2   Section        0  _printf_charcount.o(.text)
    .text                                    0x080073ec   Section        0  _printf_char_common.o(.text)
    _printf_input_char                       0x080073ed   Thumb Code    10  _printf_char_common.o(.text)
    .text                                    0x0800741c   Section        0  _sputc.o(.text)
    .text                                    0x08007426   Section        0  _snputc.o(.text)
    .text                                    0x08007438   Section        0  _printf_char_file.o(.text)
    .text                                    0x0800745c   Section        0  _printf_wctomb.o(.text)
    .text                                    0x08007518   Section        0  _printf_longlong_dec.o(.text)
    .text                                    0x08007594   Section        0  _printf_oct_int_ll.o(.text)
    _printf_longlong_oct_internal            0x08007595   Thumb Code     0  _printf_oct_int_ll.o(.text)
    .text                                    0x08007604   Section        0  strtod.o(.text)
    _local_sscanf                            0x08007605   Thumb Code    60  strtod.o(.text)
    .text                                    0x080076a4   Section       68  rt_memclr.o(.text)
    .text                                    0x080076e8   Section        8  libspace.o(.text)
    .text                                    0x080076f0   Section        8  rt_errno_addr_intlibspace.o(.text)
    .text                                    0x080076f8   Section        0  h1_extend.o(.text)
    .text                                    0x0800772c   Section      138  lludiv10.o(.text)
    .text                                    0x080077b6   Section        0  isspace.o(.text)
    .text                                    0x080077c8   Section        0  _printf_fp_dec.o(.text)
    _fp_digits                               0x080077cb   Thumb Code   428  _printf_fp_dec.o(.text)
    .text                                    0x08007be2   Section        0  _printf_char.o(.text)
    .text                                    0x08007c0e   Section        0  _printf_wchar.o(.text)
    .text                                    0x08007c3a   Section        0  _sgetc.o(.text)
    .text                                    0x08007c7a   Section        0  ferror.o(.text)
    .text                                    0x08007c82   Section        0  _wcrtomb.o(.text)
    .text                                    0x08007cc2   Section        0  defsig_rtmem_outer.o(.text)
    .text                                    0x08007cd0   Section       74  sys_stackheap_outer.o(.text)
    .text                                    0x08007d1c   Section       16  rt_ctype_table.o(.text)
    .text                                    0x08007d2c   Section        8  rt_locale_intlibspace.o(.text)
    .text                                    0x08007d34   Section        0  _printf_fp_infnan.o(.text)
    .text                                    0x08007db4   Section        0  scanf_fp.o(.text)
    _fp_value                                0x08007db5   Thumb Code   508  scanf_fp.o(.text)
    .text                                    0x08008258   Section        0  bigflt0.o(.text)
    .text                                    0x08008334   Section        0  exit.o(.text)
    .text                                    0x08008340   Section        0  defsig_exit.o(.text)
    .text                                    0x0800834c   Section        0  defsig_rtmem_inner.o(.text)
    .text                                    0x0800839c   Section        0  defsig_general.o(.text)
    .text                                    0x080083d0   Section        0  scanf_hexfp.o(.text)
    .text                                    0x080086e8   Section        0  scanf_infnan.o(.text)
    .text                                    0x0800881c   Section       38  llshl.o(.text)
    .text                                    0x08008842   Section        0  _chval.o(.text)
    CL$$btod_d2e                             0x0800885e   Section       62  btod.o(CL$$btod_d2e)
    CL$$btod_d2e_denorm_low                  0x0800889c   Section       70  btod.o(CL$$btod_d2e_denorm_low)
    CL$$btod_d2e_norm_op1                    0x080088e2   Section       96  btod.o(CL$$btod_d2e_norm_op1)
    CL$$btod_div_common                      0x08008942   Section      824  btod.o(CL$$btod_div_common)
    CL$$btod_e2d                             0x08008c7c   Section       84  btod.o(CL$$btod_e2d)
    CL$$btod_e2e                             0x08008cd0   Section      198  btod.o(CL$$btod_e2e)
    CL$$btod_ediv                            0x08008d96   Section       40  btod.o(CL$$btod_ediv)
    CL$$btod_edivd                           0x08008dbe   Section       40  btod.o(CL$$btod_edivd)
    CL$$btod_emul                            0x08008de6   Section       40  btod.o(CL$$btod_emul)
    CL$$btod_emuld                           0x08008e0e   Section       40  btod.o(CL$$btod_emuld)
    CL$$btod_mult_common                     0x08008e36   Section      580  btod.o(CL$$btod_mult_common)
    i.__ARM_fpclassify                       0x0800907a   Section        0  fpclassify.o(i.__ARM_fpclassify)
    i.__ieee754_rem_pio2                     0x080090a4   Section        0  rred.o(i.__ieee754_rem_pio2)
    i.__kernel_cos                           0x0800942c   Section        0  cos_i.o(i.__kernel_cos)
    i.__kernel_poly                          0x08009528   Section        0  poly.o(i.__kernel_poly)
    i.__kernel_sin                           0x080095d4   Section        0  sin_i.o(i.__kernel_sin)
    i.__mathlib_dbl_infnan                   0x080096c0   Section        0  dunder.o(i.__mathlib_dbl_infnan)
    i.__mathlib_dbl_infnan2                  0x080096c6   Section        0  dunder.o(i.__mathlib_dbl_infnan2)
    i.__mathlib_dbl_invalid                  0x080096ca   Section        0  dunder.o(i.__mathlib_dbl_invalid)
    i.__mathlib_dbl_overflow                 0x080096d6   Section        0  dunder.o(i.__mathlib_dbl_overflow)
    i.__mathlib_dbl_underflow                0x080096e4   Section        0  dunder.o(i.__mathlib_dbl_underflow)
    i.__mathlib_narrow                       0x080096f4   Section        0  narrow.o(i.__mathlib_narrow)
    i.__mathlib_tofloat                      0x08009704   Section        0  narrow.o(i.__mathlib_tofloat)
    i.__support_ldexp                        0x0800978c   Section        0  ldexp.o(i.__support_ldexp)
    i._is_digit                              0x080097a2   Section        0  __printf_wp.o(i._is_digit)
    i.asin                                   0x080097b0   Section        0  asin.o(i.asin)
    i.atan                                   0x08009a20   Section        0  atan.o(i.atan)
    i.atan2                                  0x08009c40   Section        0  atan2.o(i.atan2)
    i.atof                                   0x08009dc0   Section        0  atof.o(i.atof)
    i.cos                                    0x08009dec   Section        0  cos.o(i.cos)
    i.frexp                                  0x08009e88   Section        0  frexp.o(i.frexp)
    i.ldexp                                  0x08009ee0   Section        0  ldexp.o(i.ldexp)
    i.sin                                    0x08009f54   Section        0  sin.o(i.sin)
    i.sqrt                                   0x08009ff4   Section        0  sqrt.o(i.sqrt)
    locale$$code                             0x0800a040   Section       44  lc_numeric_c.o(locale$$code)
    locale$$code                             0x0800a06c   Section       44  lc_ctype_c.o(locale$$code)
    x$fpl$d2f                                0x0800a098   Section       98  d2f.o(x$fpl$d2f)
    x$fpl$dadd                               0x0800a0fc   Section      336  daddsub_clz.o(x$fpl$dadd)
    _dadd1                                   0x0800a10d   Thumb Code     0  daddsub_clz.o(x$fpl$dadd)
    x$fpl$dcheck1                            0x0800a24c   Section       16  dcheck1.o(x$fpl$dcheck1)
    x$fpl$dcmpinf                            0x0800a25c   Section       24  dcmpi.o(x$fpl$dcmpinf)
    x$fpl$ddiv                               0x0800a274   Section      688  ddiv.o(x$fpl$ddiv)
    ddiv_entry                               0x0800a27b   Thumb Code     0  ddiv.o(x$fpl$ddiv)
    x$fpl$deqf                               0x0800a524   Section      120  deqf.o(x$fpl$deqf)
    x$fpl$dfix                               0x0800a59c   Section       94  dfix.o(x$fpl$dfix)
    x$fpl$dfixu                              0x0800a5fc   Section       90  dfixu.o(x$fpl$dfixu)
    x$fpl$dflt                               0x0800a656   Section       46  dflt_clz.o(x$fpl$dflt)
    x$fpl$dfltu                              0x0800a684   Section       38  dflt_clz.o(x$fpl$dfltu)
    x$fpl$dleqf                              0x0800a6ac   Section      120  dleqf.o(x$fpl$dleqf)
    x$fpl$dmul                               0x0800a724   Section      340  dmul.o(x$fpl$dmul)
    x$fpl$dnaninf                            0x0800a878   Section      156  dnaninf.o(x$fpl$dnaninf)
    x$fpl$dretinf                            0x0800a914   Section       12  dretinf.o(x$fpl$dretinf)
    x$fpl$drleqf                             0x0800a920   Section      108  drleqf.o(x$fpl$drleqf)
    x$fpl$drsb                               0x0800a98c   Section       22  daddsub_clz.o(x$fpl$drsb)
    x$fpl$dsqrt                              0x0800a9a4   Section      460  dsqrt_noumaal.o(x$fpl$dsqrt)
    x$fpl$dsub                               0x0800ab70   Section      468  daddsub_clz.o(x$fpl$dsub)
    _dsub1                                   0x0800ab81   Thumb Code     0  daddsub_clz.o(x$fpl$dsub)
    x$fpl$f2d                                0x0800ad44   Section       86  f2d.o(x$fpl$f2d)
    x$fpl$fadd                               0x0800ad9c   Section      196  faddsub_clz.o(x$fpl$fadd)
    _fadd1                                   0x0800adab   Thumb Code     0  faddsub_clz.o(x$fpl$fadd)
    x$fpl$fcmpinf                            0x0800ae60   Section       24  fcmpi.o(x$fpl$fcmpinf)
    x$fpl$fdiv                               0x0800ae78   Section      388  fdiv.o(x$fpl$fdiv)
    _fdiv1                                   0x0800ae79   Thumb Code     0  fdiv.o(x$fpl$fdiv)
    x$fpl$feqf                               0x0800affc   Section      104  feqf.o(x$fpl$feqf)
    x$fpl$ffix                               0x0800b064   Section       54  ffix.o(x$fpl$ffix)
    x$fpl$ffixu                              0x0800b09c   Section       62  ffixu.o(x$fpl$ffixu)
    x$fpl$fflt                               0x0800b0dc   Section       48  fflt_clz.o(x$fpl$fflt)
    x$fpl$ffltu                              0x0800b10c   Section       38  fflt_clz.o(x$fpl$ffltu)
    x$fpl$fleqf                              0x0800b134   Section      104  fleqf.o(x$fpl$fleqf)
    x$fpl$fmul                               0x0800b19c   Section      258  fmul.o(x$fpl$fmul)
    x$fpl$fnaninf                            0x0800b29e   Section      140  fnaninf.o(x$fpl$fnaninf)
    x$fpl$fretinf                            0x0800b32a   Section       10  fretinf.o(x$fpl$fretinf)
    x$fpl$frleqf                             0x0800b334   Section       98  frleqf.o(x$fpl$frleqf)
    x$fpl$fsub                               0x0800b398   Section      234  faddsub_clz.o(x$fpl$fsub)
    _fsub1                                   0x0800b3a7   Thumb Code     0  faddsub_clz.o(x$fpl$fsub)
    x$fpl$printf1                            0x0800b482   Section        4  printf1.o(x$fpl$printf1)
    x$fpl$retnan                             0x0800b486   Section      100  retnan.o(x$fpl$retnan)
    x$fpl$scalbn                             0x0800b4ea   Section       92  scalbn.o(x$fpl$scalbn)
    x$fpl$scanf1                             0x0800b546   Section        4  scanf1.o(x$fpl$scanf1)
    x$fpl$scanf2                             0x0800b54a   Section        8  scanf2.o(x$fpl$scanf2)
    x$fpl$trapveneer                         0x0800b552   Section       48  trapv.o(x$fpl$trapveneer)
    x$fpl$usenofp                            0x0800b582   Section        0  usenofp.o(x$fpl$usenofp)
    .constdata                               0x0800b584   Section       76  control_motor.o(.constdata)
    .constdata                               0x0800b5d0   Section     3062  inv_mpu_dmp_motion_driver.o(.constdata)
    dmp_memory                               0x0800b5d0   Data        3062  inv_mpu_dmp_motion_driver.o(.constdata)
    .constdata                               0x0800c1c8   Section       80  inv_mpu.o(.constdata)
    .constdata                               0x0800c218   Section       40  _printf_hex_int_ll_ptr.o(.constdata)
    uc_hextab                                0x0800c218   Data          20  _printf_hex_int_ll_ptr.o(.constdata)
    lc_hextab                                0x0800c22c   Data          20  _printf_hex_int_ll_ptr.o(.constdata)
    .constdata                               0x0800c240   Section       17  __printf_flags_ss_wp.o(.constdata)
    maptable                                 0x0800c240   Data          17  __printf_flags_ss_wp.o(.constdata)
    .constdata                               0x0800c258   Section       80  asin.o(.constdata)
    pS                                       0x0800c258   Data          48  asin.o(.constdata)
    qS                                       0x0800c288   Data          32  asin.o(.constdata)
    .constdata                               0x0800c2a8   Section      152  atan.o(.constdata)
    atanhi                                   0x0800c2a8   Data          32  atan.o(.constdata)
    atanlo                                   0x0800c2c8   Data          32  atan.o(.constdata)
    aTodd                                    0x0800c2e8   Data          40  atan.o(.constdata)
    aTeven                                   0x0800c310   Data          48  atan.o(.constdata)
    .constdata                               0x0800c340   Section        8  _printf_wctomb.o(.constdata)
    initial_mbstate                          0x0800c340   Data           8  _printf_wctomb.o(.constdata)
    .constdata                               0x0800c348   Section       48  cos_i.o(.constdata)
    C                                        0x0800c348   Data          48  cos_i.o(.constdata)
    .constdata                               0x0800c378   Section        8  qnan.o(.constdata)
    .constdata                               0x0800c380   Section      200  rred.o(.constdata)
    pio2s                                    0x0800c380   Data          48  rred.o(.constdata)
    twooverpi                                0x0800c3b0   Data         152  rred.o(.constdata)
    .constdata                               0x0800c448   Section       40  sin_i.o(.constdata)
    S                                        0x0800c448   Data          40  sin_i.o(.constdata)
    .constdata                               0x0800c470   Section      148  bigflt0.o(.constdata)
    tenpwrs_x                                0x0800c470   Data          60  bigflt0.o(.constdata)
    tenpwrs_i                                0x0800c4ac   Data          64  bigflt0.o(.constdata)
    .conststring                             0x0800c504   Section       77  inv_mpu.o(.conststring)
    c$$dinf                                  0x0800c574   Section        8  fpconst.o(c$$dinf)
    locale$$data                             0x0800c57c   Section       28  lc_numeric_c.o(locale$$data)
    __lcnum_c_name                           0x0800c580   Data           2  lc_numeric_c.o(locale$$data)
    __lcnum_c_start                          0x0800c588   Data           0  lc_numeric_c.o(locale$$data)
    __lcnum_c_point                          0x0800c594   Data           0  lc_numeric_c.o(locale$$data)
    __lcnum_c_thousands                      0x0800c596   Data           0  lc_numeric_c.o(locale$$data)
    __lcnum_c_grouping                       0x0800c597   Data           0  lc_numeric_c.o(locale$$data)
    locale$$data                             0x0800c598   Section      272  lc_ctype_c.o(locale$$data)
    __lcnum_c_end                            0x0800c598   Data           0  lc_numeric_c.o(locale$$data)
    __lcctype_c_name                         0x0800c59c   Data           2  lc_ctype_c.o(locale$$data)
    __lcctype_c_start                        0x0800c5a4   Data           0  lc_ctype_c.o(locale$$data)
    __lcctype_c_end                          0x0800c6a8   Data           0  lc_ctype_c.o(locale$$data)
    .data                                    0x20000000   Section       28  main.o(.data)
    .data                                    0x2000001c   Section       20  system_stm32f10x.o(.data)
    .data                                    0x20000030   Section       28  control_motor.o(.data)
    MoveTimeCnt                              0x2000003c   Data           4  control_motor.o(.data)
    MoveTimeCnt                              0x20000040   Data           4  control_motor.o(.data)
    MoveTimeCnt                              0x20000044   Data           4  control_motor.o(.data)
    MoveTimeCnt                              0x20000048   Data           4  control_motor.o(.data)
    .data                                    0x2000004c   Section      444  usart2.o(.data)
    cmd_tbl                                  0x20000050   Data         432  usart2.o(.data)
    cmd_line_index                           0x20000200   Data           4  usart2.o(.data)
    cmd_line_length                          0x20000204   Data           4  usart2.o(.data)
    .data                                    0x20000208   Section       53  inv_mpu.o(.data)
    st                                       0x20000208   Data          44  inv_mpu.o(.data)
    gyro_orientation                         0x20000234   Data           9  inv_mpu.o(.data)
    .data                                    0x2000023e   Section        4  delay.o(.data)
    fac_us                                   0x2000023e   Data           1  delay.o(.data)
    fac_ms                                   0x20000240   Data           2  delay.o(.data)
    .data                                    0x20000244   Section        6  usart.o(.data)
    .data                                    0x2000024a   Section       20  stm32f10x_rcc.o(.data)
    APBAHBPrescTable                         0x2000024a   Data          16  stm32f10x_rcc.o(.data)
    ADCPrescTable                            0x2000025a   Data           4  stm32f10x_rcc.o(.data)
    .bss                                     0x20000260   Section       64  main.o(.bss)
    .bss                                     0x200002a0   Section      252  usart2.o(.bss)
    cmd_line                                 0x200002a0   Data          33  usart2.o(.bss)
    cmd_argv                                 0x200002c4   Data          16  usart2.o(.bss)
    .bss                                     0x2000039c   Section       16  inv_mpu_dmp_motion_driver.o(.bss)
    dmp                                      0x2000039c   Data          16  inv_mpu_dmp_motion_driver.o(.bss)
    .bss                                     0x200003ac   Section       16  outputdata.o(.bss)
    .bss                                     0x200003bc   Section       96  libspace.o(.bss)
    HEAP                                     0x20000420   Section      512  startup_stm32f10x_hd.o(HEAP)
    Heap_Mem                                 0x20000420   Data         512  startup_stm32f10x_hd.o(HEAP)
    STACK                                    0x20000620   Section     1024  startup_stm32f10x_hd.o(STACK)
    Stack_Mem                                0x20000620   Data        1024  startup_stm32f10x_hd.o(STACK)
    __initial_sp                             0x20000a20   Data           0  startup_stm32f10x_hd.o(STACK)

    Global Symbols

    Symbol Name                              Value     Ov Type        Size  Object(Section)

    BuildAttributes$$THM_ISAv4$P$D$K$B$S$PE$A:L22UL41UL21$X:L11$S22US41US21$IEEE1$IW$USESV6$~STKCKD$USESV7$~SHL$OTIME$ROPI$IEEEX$EBA8$UX$STANDARDLIB$REQ8$PRES8$EABIv2 0x00000000   Number         0  anon$$obj.o ABSOLUTE
    __ARM_use_no_argv                        0x00000000   Number         0  main.o ABSOLUTE
    _printf_flags                            0x00000000   Number         0  printf_stubs.o ABSOLUTE
    _printf_return_value                     0x00000000   Number         0  printf_stubs.o ABSOLUTE
    _printf_sizespec                         0x00000000   Number         0  printf_stubs.o ABSOLUTE
    _printf_widthprec                        0x00000000   Number         0  printf_stubs.o ABSOLUTE
    __ARM_exceptions_init                     - Undefined Weak Reference
    __alloca_initialize                       - Undefined Weak Reference
    __arm_preinit_                            - Undefined Weak Reference
    __cpp_initialize__aeabi_                  - Undefined Weak Reference
    __cxa_finalize                            - Undefined Weak Reference
    __sigvec_lookup                           - Undefined Weak Reference
    __user_heap_extent                        - Undefined Weak Reference
    _atexit_init                              - Undefined Weak Reference
    _call_atexit_fns                          - Undefined Weak Reference
    _clock_init                               - Undefined Weak Reference
    _fp_trap_init                             - Undefined Weak Reference
    _fp_trap_shutdown                         - Undefined Weak Reference
    _get_lc_collate                           - Undefined Weak Reference
    _get_lc_monetary                          - Undefined Weak Reference
    _get_lc_time                              - Undefined Weak Reference
    _getenv_init                              - Undefined Weak Reference
    _handle_redirection                       - Undefined Weak Reference
    _initio                                   - Undefined Weak Reference
    _mutex_acquire                            - Undefined Weak Reference
    _mutex_free                               - Undefined Weak Reference
    _mutex_release                            - Undefined Weak Reference
    _printf_fp_hex                            - Undefined Weak Reference
    _printf_mbtowc                            - Undefined Weak Reference
    _printf_wc                                - Undefined Weak Reference
    _rand_init                                - Undefined Weak Reference
    _signal_finish                            - Undefined Weak Reference
    _signal_init                              - Undefined Weak Reference
    _terminateio                              - Undefined Weak Reference
    __Vectors_Size                           0x00000130   Number         0  startup_stm32f10x_hd.o ABSOLUTE
    __Vectors                                0x08000000   Data           4  startup_stm32f10x_hd.o(RESET)
    __Vectors_End                            0x08000130   Data           0  startup_stm32f10x_hd.o(RESET)
    __main                                   0x08000131   Thumb Code     8  __main.o(!!!main)
    __scatterload                            0x08000139   Thumb Code     0  __scatter.o(!!!scatter)
    __scatterload_rt2                        0x08000139   Thumb Code    44  __scatter.o(!!!scatter)
    __scatterload_rt2_thumb_only             0x08000139   Thumb Code     0  __scatter.o(!!!scatter)
    __scatterload_null                       0x08000147   Thumb Code     0  __scatter.o(!!!scatter)
    __decompress                             0x0800016d   Thumb Code    90  __dczerorl2.o(!!dczerorl2)
    __decompress1                            0x0800016d   Thumb Code     0  __dczerorl2.o(!!dczerorl2)
    __scatterload_zeroinit                   0x080001c9   Thumb Code    28  __scatter_zi.o(!!handler_zi)
    _printf_n                                0x080001e5   Thumb Code     0  _printf_n.o(.ARM.Collect$$_printf_percent$$00000001)
    _printf_percent                          0x080001e5   Thumb Code     0  _printf_percent.o(.ARM.Collect$$_printf_percent$$00000000)
    _printf_p                                0x080001eb   Thumb Code     0  _printf_p.o(.ARM.Collect$$_printf_percent$$00000002)
    _printf_f                                0x080001f1   Thumb Code     0  _printf_f.o(.ARM.Collect$$_printf_percent$$00000003)
    _printf_e                                0x080001f7   Thumb Code     0  _printf_e.o(.ARM.Collect$$_printf_percent$$00000004)
    _printf_g                                0x080001fd   Thumb Code     0  _printf_g.o(.ARM.Collect$$_printf_percent$$00000005)
    _printf_a                                0x08000203   Thumb Code     0  _printf_a.o(.ARM.Collect$$_printf_percent$$00000006)
    _printf_ll                               0x08000209   Thumb Code     0  _printf_ll.o(.ARM.Collect$$_printf_percent$$00000007)
    _printf_i                                0x08000213   Thumb Code     0  _printf_i.o(.ARM.Collect$$_printf_percent$$00000008)
    _printf_d                                0x08000219   Thumb Code     0  _printf_d.o(.ARM.Collect$$_printf_percent$$00000009)
    _printf_u                                0x0800021f   Thumb Code     0  _printf_u.o(.ARM.Collect$$_printf_percent$$0000000A)
    _printf_o                                0x08000225   Thumb Code     0  _printf_o.o(.ARM.Collect$$_printf_percent$$0000000B)
    _printf_x                                0x0800022b   Thumb Code     0  _printf_x.o(.ARM.Collect$$_printf_percent$$0000000C)
    _printf_lli                              0x08000231   Thumb Code     0  _printf_lli.o(.ARM.Collect$$_printf_percent$$0000000D)
    _printf_lld                              0x08000237   Thumb Code     0  _printf_lld.o(.ARM.Collect$$_printf_percent$$0000000E)
    _printf_llu                              0x0800023d   Thumb Code     0  _printf_llu.o(.ARM.Collect$$_printf_percent$$0000000F)
    _printf_llo                              0x08000243   Thumb Code     0  _printf_llo.o(.ARM.Collect$$_printf_percent$$00000010)
    _printf_llx                              0x08000249   Thumb Code     0  _printf_llx.o(.ARM.Collect$$_printf_percent$$00000011)
    _printf_l                                0x0800024f   Thumb Code     0  _printf_l.o(.ARM.Collect$$_printf_percent$$00000012)
    _printf_c                                0x08000259   Thumb Code     0  _printf_c.o(.ARM.Collect$$_printf_percent$$00000013)
    _printf_s                                0x0800025f   Thumb Code     0  _printf_s.o(.ARM.Collect$$_printf_percent$$00000014)
    _printf_lc                               0x08000265   Thumb Code     0  _printf_lc.o(.ARM.Collect$$_printf_percent$$00000015)
    _printf_ls                               0x0800026b   Thumb Code     0  _printf_ls.o(.ARM.Collect$$_printf_percent$$00000016)
    _printf_percent_end                      0x08000271   Thumb Code     0  _printf_percent_end.o(.ARM.Collect$$_printf_percent$$00000017)
    __rt_lib_init                            0x08000275   Thumb Code     0  libinit.o(.ARM.Collect$$libinit$$00000000)
    __rt_lib_init_fp_1                       0x08000277   Thumb Code     0  libinit2.o(.ARM.Collect$$libinit$$00000002)
    __rt_lib_init_heap_2                     0x08000277   Thumb Code     0  libinit2.o(.ARM.Collect$$libinit$$00000005)
    __rt_lib_init_preinit_1                  0x08000277   Thumb Code     0  libinit2.o(.ARM.Collect$$libinit$$00000004)
    __rt_lib_init_heap_1                     0x0800027f   Thumb Code     0  libinit2.o(.ARM.Collect$$libinit$$0000000A)
    __rt_lib_init_lc_common                  0x0800027f   Thumb Code     0  libinit2.o(.ARM.Collect$$libinit$$0000000F)
    __rt_lib_init_rand_1                     0x0800027f   Thumb Code     0  libinit2.o(.ARM.Collect$$libinit$$0000000E)
    __rt_lib_init_user_alloc_1               0x0800027f   Thumb Code     0  libinit2.o(.ARM.Collect$$libinit$$0000000C)
    __rt_lib_init_lc_collate_1               0x08000285   Thumb Code     0  libinit2.o(.ARM.Collect$$libinit$$00000011)
    __rt_lib_init_lc_ctype_2                 0x08000285   Thumb Code     0  libinit2.o(.ARM.Collect$$libinit$$00000012)
    __rt_lib_init_lc_ctype_1                 0x08000291   Thumb Code     0  libinit2.o(.ARM.Collect$$libinit$$00000013)
    __rt_lib_init_lc_monetary_1              0x08000291   Thumb Code     0  libinit2.o(.ARM.Collect$$libinit$$00000015)
    __rt_lib_init_lc_numeric_2               0x08000291   Thumb Code     0  libinit2.o(.ARM.Collect$$libinit$$00000016)
    __rt_lib_init_alloca_1                   0x0800029b   Thumb Code     0  libinit2.o(.ARM.Collect$$libinit$$0000002E)
    __rt_lib_init_argv_1                     0x0800029b   Thumb Code     0  libinit2.o(.ARM.Collect$$libinit$$0000002C)
    __rt_lib_init_atexit_1                   0x0800029b   Thumb Code     0  libinit2.o(.ARM.Collect$$libinit$$0000001B)
    __rt_lib_init_clock_1                    0x0800029b   Thumb Code     0  libinit2.o(.ARM.Collect$$libinit$$00000021)
    __rt_lib_init_cpp_1                      0x0800029b   Thumb Code     0  libinit2.o(.ARM.Collect$$libinit$$00000032)
    __rt_lib_init_exceptions_1               0x0800029b   Thumb Code     0  libinit2.o(.ARM.Collect$$libinit$$00000030)
    __rt_lib_init_fp_trap_1                  0x0800029b   Thumb Code     0  libinit2.o(.ARM.Collect$$libinit$$0000001F)
    __rt_lib_init_getenv_1                   0x0800029b   Thumb Code     0  libinit2.o(.ARM.Collect$$libinit$$00000023)
    __rt_lib_init_lc_numeric_1               0x0800029b   Thumb Code     0  libinit2.o(.ARM.Collect$$libinit$$00000017)
    __rt_lib_init_lc_time_1                  0x0800029b   Thumb Code     0  libinit2.o(.ARM.Collect$$libinit$$00000019)
    __rt_lib_init_return                     0x0800029b   Thumb Code     0  libinit2.o(.ARM.Collect$$libinit$$00000033)
    __rt_lib_init_signal_1                   0x0800029b   Thumb Code     0  libinit2.o(.ARM.Collect$$libinit$$0000001D)
    __rt_lib_init_stdio_1                    0x0800029b   Thumb Code     0  libinit2.o(.ARM.Collect$$libinit$$00000025)
    __rt_lib_shutdown                        0x0800029d   Thumb Code     0  libshutdown.o(.ARM.Collect$$libshutdown$$00000000)
    __rt_lib_shutdown_fp_trap_1              0x0800029f   Thumb Code     0  libshutdown2.o(.ARM.Collect$$libshutdown$$00000006)
    __rt_lib_shutdown_heap_1                 0x0800029f   Thumb Code     0  libshutdown2.o(.ARM.Collect$$libshutdown$$0000000E)
    __rt_lib_shutdown_return                 0x0800029f   Thumb Code     0  libshutdown2.o(.ARM.Collect$$libshutdown$$0000000F)
    __rt_lib_shutdown_signal_1               0x0800029f   Thumb Code     0  libshutdown2.o(.ARM.Collect$$libshutdown$$00000009)
    __rt_lib_shutdown_stdio_1                0x0800029f   Thumb Code     0  libshutdown2.o(.ARM.Collect$$libshutdown$$00000003)
    __rt_lib_shutdown_user_alloc_1           0x0800029f   Thumb Code     0  libshutdown2.o(.ARM.Collect$$libshutdown$$0000000B)
    __rt_entry                               0x080002a1   Thumb Code     0  __rtentry.o(.ARM.Collect$$rtentry$$00000000)
    __rt_entry_presh_1                       0x080002a1   Thumb Code     0  __rtentry2.o(.ARM.Collect$$rtentry$$00000002)
    __rt_entry_sh                            0x080002a1   Thumb Code     0  __rtentry4.o(.ARM.Collect$$rtentry$$00000004)
    __rt_entry_li                            0x080002a7   Thumb Code     0  __rtentry2.o(.ARM.Collect$$rtentry$$0000000A)
    __rt_entry_postsh_1                      0x080002a7   Thumb Code     0  __rtentry2.o(.ARM.Collect$$rtentry$$00000009)
    __rt_entry_main                          0x080002ab   Thumb Code     0  __rtentry2.o(.ARM.Collect$$rtentry$$0000000D)
    __rt_entry_postli_1                      0x080002ab   Thumb Code     0  __rtentry2.o(.ARM.Collect$$rtentry$$0000000C)
    __rt_exit                                0x080002b3   Thumb Code     0  rtexit.o(.ARM.Collect$$rtexit$$00000000)
    __rt_exit_ls                             0x080002b5   Thumb Code     0  rtexit2.o(.ARM.Collect$$rtexit$$00000003)
    __rt_exit_prels_1                        0x080002b5   Thumb Code     0  rtexit2.o(.ARM.Collect$$rtexit$$00000002)
    __rt_exit_exit                           0x080002b9   Thumb Code     0  rtexit2.o(.ARM.Collect$$rtexit$$00000004)
    NVIC_Config                              0x080002c1   Thumb Code    84  main.o(.text)
    _maybe_terminate_alloc                   0x080002c1   Thumb Code     0  maybetermalloc1.o(.emb_text)
    main                                     0x08000315   Thumb Code   170  main.o(.text)
    NMI_Handler                              0x08000405   Thumb Code     2  stm32f10x_it.o(.text)
    HardFault_Handler                        0x08000407   Thumb Code     4  stm32f10x_it.o(.text)
    MemManage_Handler                        0x0800040b   Thumb Code     4  stm32f10x_it.o(.text)
    BusFault_Handler                         0x0800040f   Thumb Code     4  stm32f10x_it.o(.text)
    UsageFault_Handler                       0x08000413   Thumb Code     4  stm32f10x_it.o(.text)
    SVC_Handler                              0x08000417   Thumb Code     2  stm32f10x_it.o(.text)
    DebugMon_Handler                         0x08000419   Thumb Code     2  stm32f10x_it.o(.text)
    PendSV_Handler                           0x0800041b   Thumb Code     2  stm32f10x_it.o(.text)
    SysTick_Handler                          0x0800041d   Thumb Code     2  stm32f10x_it.o(.text)
    SystemInit                               0x080004ff   Thumb Code    78  system_stm32f10x.o(.text)
    SystemCoreClockUpdate                    0x0800054d   Thumb Code   142  system_stm32f10x.o(.text)
    TIM4_IRQHandler                          0x08000601   Thumb Code    92  tim.o(.text)
    TIM2_Init                                0x0800065d   Thumb Code    62  tim.o(.text)
    TIM4_Init                                0x0800069b   Thumb Code    68  tim.o(.text)
    Speed_PIDInit                            0x080006f5   Thumb Code    22  pid.o(.text)
    Speed_PIDAdjust                          0x0800070b   Thumb Code   168  pid.o(.text)
    PWM_Y_13                                 0x080007bd   Thumb Code    56  control_motor.o(.text)
    PWM_X_24                                 0x080007f5   Thumb Code    58  control_motor.o(.text)
    Test_1                                   0x0800082f   Thumb Code   244  control_motor.o(.text)
    Test_2                                   0x08000923   Thumb Code   244  control_motor.o(.text)
    Test_3                                   0x08000a17   Thumb Code   566  control_motor.o(.text)
    Test_4                                   0x08000c4d   Thumb Code   148  control_motor.o(.text)
    Test_5                                   0x08000ce1   Thumb Code   124  control_motor.o(.text)
    PWM_Init                                 0x08000d99   Thumb Code   226  pwm.o(.text)
    PWM_Init_2                               0x08000e7b   Thumb Code   210  pwm.o(.text)
    KEY_Init                                 0x08000f59   Thumb Code    68  key.o(.text)
    KEY_Scan                                 0x08000f9d   Thumb Code   458  key.o(.text)
    MPU_IIC_Delay                            0x080011e9   Thumb Code    10  mpuiic.o(.text)
    MPU_IIC_Init                             0x080011f3   Thumb Code    50  mpuiic.o(.text)
    MPU_IIC_Start                            0x08001225   Thumb Code    60  mpuiic.o(.text)
    MPU_IIC_Stop                             0x08001261   Thumb Code    62  mpuiic.o(.text)
    MPU_IIC_Wait_Ack                         0x0800129f   Thumb Code    86  mpuiic.o(.text)
    MPU_IIC_Ack                              0x080012f5   Thumb Code    66  mpuiic.o(.text)
    MPU_IIC_NAck                             0x08001337   Thumb Code    66  mpuiic.o(.text)
    MPU_IIC_Send_Byte                        0x08001379   Thumb Code    82  mpuiic.o(.text)
    MPU_IIC_Read_Byte                        0x080013cb   Thumb Code    96  mpuiic.o(.text)
    Stop                                     0x08001439   Thumb Code    34  usart_function.o(.text)
    Start                                    0x0800145b   Thumb Code    48  usart_function.o(.text)
    set_speed_p                              0x0800148b   Thumb Code    60  usart_function.o(.text)
    set_speed_i                              0x080014c7   Thumb Code    60  usart_function.o(.text)
    set_speed_d                              0x08001503   Thumb Code    60  usart_function.o(.text)
    set_speed_p_2                            0x0800153f   Thumb Code    60  usart_function.o(.text)
    set_speed_i_2                            0x0800157b   Thumb Code    60  usart_function.o(.text)
    set_speed_d_2                            0x080015b7   Thumb Code    60  usart_function.o(.text)
    set_test                                 0x080015f3   Thumb Code    54  usart_function.o(.text)
    USART1_Config                            0x08001725   Thumb Code   170  usart2.o(.text)
    uprintf                                  0x080017cf   Thumb Code   138  usart2.o(.text)
    cmd_exec                                 0x08001859   Thumb Code    84  usart2.o(.text)
    cmd_parse                                0x080018ad   Thumb Code   136  usart2.o(.text)
    USART1_IRQHandler                        0x08001935   Thumb Code   318  usart2.o(.text)
    MPU_Write_Byte                           0x08001add   Thumb Code    68  mpu6050.o(.text)
    MPU_Set_LPF                              0x08001b21   Thumb Code    58  mpu6050.o(.text)
    MPU_Set_Rate                             0x08001b5b   Thumb Code    58  mpu6050.o(.text)
    MPU_Read_Byte                            0x08001b95   Thumb Code    58  mpu6050.o(.text)
    MPU_Set_Accel_Fsr                        0x08001bcf   Thumb Code    16  mpu6050.o(.text)
    MPU_Set_Gyro_Fsr                         0x08001bdf   Thumb Code    16  mpu6050.o(.text)
    MPU_Init                                 0x08001bef   Thumb Code   122  mpu6050.o(.text)
    MPU_Read_Len                             0x08001c69   Thumb Code   116  mpu6050.o(.text)
    MPU_Get_Temperature                      0x08001cdd   Thumb Code    86  mpu6050.o(.text)
    MPU_Get_Gyroscope                        0x08001d33   Thumb Code    80  mpu6050.o(.text)
    MPU_Get_Accelerometer                    0x08001d83   Thumb Code    80  mpu6050.o(.text)
    MPU_Write_Len                            0x08001dd3   Thumb Code    96  mpu6050.o(.text)
    dmp_load_motion_driver_firmware          0x08001e45   Thumb Code    20  inv_mpu_dmp_motion_driver.o(.text)
    dmp_set_orientation                      0x08001e59   Thumb Code   290  inv_mpu_dmp_motion_driver.o(.text)
    dmp_set_gyro_bias                        0x08001f7b   Thumb Code   294  inv_mpu_dmp_motion_driver.o(.text)
    dmp_set_accel_bias                       0x080020a1   Thumb Code   300  inv_mpu_dmp_motion_driver.o(.text)
    dmp_set_fifo_rate                        0x080021cd   Thumb Code   136  inv_mpu_dmp_motion_driver.o(.text)
    dmp_get_fifo_rate                        0x08002255   Thumb Code    12  inv_mpu_dmp_motion_driver.o(.text)
    dmp_set_tap_thresh                       0x08002261   Thumb Code   396  inv_mpu_dmp_motion_driver.o(.text)
    dmp_set_tap_axes                         0x080023ed   Thumb Code    70  inv_mpu_dmp_motion_driver.o(.text)
    dmp_set_tap_count                        0x08002433   Thumb Code    38  inv_mpu_dmp_motion_driver.o(.text)
    dmp_set_tap_time                         0x08002459   Thumb Code    38  inv_mpu_dmp_motion_driver.o(.text)
    dmp_set_tap_time_multi                   0x0800247f   Thumb Code    38  inv_mpu_dmp_motion_driver.o(.text)
    dmp_set_shake_reject_thresh              0x080024a5   Thumb Code    56  inv_mpu_dmp_motion_driver.o(.text)
    dmp_set_shake_reject_time                0x080024dd   Thumb Code    38  inv_mpu_dmp_motion_driver.o(.text)
    dmp_set_shake_reject_timeout             0x08002503   Thumb Code    38  inv_mpu_dmp_motion_driver.o(.text)
    dmp_get_pedometer_step_count             0x08002529   Thumb Code    66  inv_mpu_dmp_motion_driver.o(.text)
    dmp_set_pedometer_step_count             0x0800256b   Thumb Code    42  inv_mpu_dmp_motion_driver.o(.text)
    dmp_get_pedometer_walk_time              0x08002595   Thumb Code    72  inv_mpu_dmp_motion_driver.o(.text)
    dmp_set_pedometer_walk_time              0x080025dd   Thumb Code    48  inv_mpu_dmp_motion_driver.o(.text)
    dmp_enable_6x_lp_quat                    0x0800260d   Thumb Code    84  inv_mpu_dmp_motion_driver.o(.text)
    dmp_enable_lp_quat                       0x08002661   Thumb Code    60  inv_mpu_dmp_motion_driver.o(.text)
    dmp_enable_gyro_cal                      0x0800269d   Thumb Code    62  inv_mpu_dmp_motion_driver.o(.text)
    dmp_enable_feature                       0x080026db   Thumb Code   530  inv_mpu_dmp_motion_driver.o(.text)
    dmp_get_enabled_features                 0x080028ed   Thumb Code    12  inv_mpu_dmp_motion_driver.o(.text)
    dmp_set_interrupt_mode                   0x08002957   Thumb Code    66  inv_mpu_dmp_motion_driver.o(.text)
    dmp_read_fifo                            0x08002999   Thumb Code   514  inv_mpu_dmp_motion_driver.o(.text)
    dmp_register_tap_cb                      0x08002b9b   Thumb Code    10  inv_mpu_dmp_motion_driver.o(.text)
    dmp_register_android_orient_cb           0x08002ba5   Thumb Code    10  inv_mpu_dmp_motion_driver.o(.text)
    mpu_reg_dump                             0x08002c3f   Thumb Code    84  inv_mpu.o(.text)
    mpu_read_reg                             0x08002c93   Thumb Code    66  inv_mpu.o(.text)
    mpu_set_int_latched                      0x08002cd5   Thumb Code   102  inv_mpu.o(.text)
    mpu_set_sensors                          0x08002d3b   Thumb Code   202  inv_mpu.o(.text)
    mpu_set_bypass                           0x08002e05   Thumb Code   328  inv_mpu.o(.text)
    mpu_reset_fifo                           0x08002f4d   Thumb Code   472  inv_mpu.o(.text)
    mpu_configure_fifo                       0x08003125   Thumb Code   106  inv_mpu.o(.text)
    mpu_set_lpf                              0x0800318f   Thumb Code   126  inv_mpu.o(.text)
    mpu_lp_accel_mode                        0x0800320d   Thumb Code   218  inv_mpu.o(.text)
    mpu_set_sample_rate                      0x080032e7   Thumb Code   152  inv_mpu.o(.text)
    mpu_set_accel_fsr                        0x0800337f   Thumb Code   132  inv_mpu.o(.text)
    mpu_set_gyro_fsr                         0x08003403   Thumb Code   132  inv_mpu.o(.text)
    mpu_init                                 0x08003487   Thumb Code   416  inv_mpu.o(.text)
    mget_ms                                  0x08003627   Thumb Code     2  inv_mpu.o(.text)
    mpu_get_gyro_reg                         0x08003629   Thumb Code   110  inv_mpu.o(.text)
    mpu_get_accel_reg                        0x08003697   Thumb Code   110  inv_mpu.o(.text)
    mpu_get_temperature                      0x08003705   Thumb Code   150  inv_mpu.o(.text)
    mpu_set_accel_bias                       0x0800379b   Thumb Code   468  inv_mpu.o(.text)
    mpu_get_gyro_fsr                         0x0800396f   Thumb Code    64  inv_mpu.o(.text)
    mpu_get_accel_fsr                        0x080039af   Thumb Code    72  inv_mpu.o(.text)
    mpu_get_lpf                              0x080039f7   Thumb Code    74  inv_mpu.o(.text)
    mpu_get_sample_rate                      0x08003a41   Thumb Code    26  inv_mpu.o(.text)
    mpu_get_compass_sample_rate              0x08003a5b   Thumb Code    10  inv_mpu.o(.text)
    mpu_set_compass_sample_rate              0x08003a65   Thumb Code     8  inv_mpu.o(.text)
    mpu_get_gyro_sens                        0x08003a6d   Thumb Code    58  inv_mpu.o(.text)
    mpu_get_accel_sens                       0x08003aa7   Thumb Code    78  inv_mpu.o(.text)
    mpu_get_fifo_config                      0x08003af5   Thumb Code    12  inv_mpu.o(.text)
    mpu_get_power_state                      0x08003b01   Thumb Code    22  inv_mpu.o(.text)
    mpu_get_int_status                       0x08003b17   Thumb Code    64  inv_mpu.o(.text)
    mpu_read_fifo                            0x08003b57   Thumb Code   520  inv_mpu.o(.text)
    mpu_read_fifo_stream                     0x08003d5f   Thumb Code   186  inv_mpu.o(.text)
    mpu_set_int_level                        0x08003e19   Thumb Code    12  inv_mpu.o(.text)
    mpu_set_dmp_state                        0x080044f9   Thumb Code   138  inv_mpu.o(.text)
    mpu_run_self_test                        0x08004583   Thumb Code   278  inv_mpu.o(.text)
    mpu_write_mem                            0x08004699   Thumb Code   122  inv_mpu.o(.text)
    mpu_read_mem                             0x08004713   Thumb Code   122  inv_mpu.o(.text)
    mpu_load_firmware                        0x0800478d   Thumb Code   190  inv_mpu.o(.text)
    mpu_get_dmp_state                        0x0800484b   Thumb Code    14  inv_mpu.o(.text)
    setup_compass                            0x08004859   Thumb Code     6  inv_mpu.o(.text)
    mpu_get_compass_reg                      0x0800485f   Thumb Code     8  inv_mpu.o(.text)
    mpu_get_compass_fsr                      0x08004867   Thumb Code     8  inv_mpu.o(.text)
    mpu_lp_motion_interrupt                  0x0800486f   Thumb Code   512  inv_mpu.o(.text)
    run_self_test                            0x08004a6f   Thumb Code   148  inv_mpu.o(.text)
    inv_row_2_scale                          0x08004b03   Thumb Code    78  inv_mpu.o(.text)
    inv_orientation_matrix_to_scalar         0x08004b51   Thumb Code    40  inv_mpu.o(.text)
    mpu_dmp_init                             0x08004b79   Thumb Code   172  inv_mpu.o(.text)
    mpu_dmp_get_data                         0x08004c25   Thumb Code   544  inv_mpu.o(.text)
    CRC_CHECK                                0x08004e49   Thumb Code    58  outputdata.o(.text)
    OutPut_Data                              0x08004e83   Thumb Code   190  outputdata.o(.text)
    delay_init                               0x08004f49   Thumb Code    50  delay.o(.text)
    delay_us                                 0x08004f7b   Thumb Code    72  delay.o(.text)
    delay_ms                                 0x08004fc3   Thumb Code    72  delay.o(.text)
    _ttywrch                                 0x0800501d   Thumb Code     6  usart.o(.text)
    _sys_exit                                0x08005023   Thumb Code     6  usart.o(.text)
    fputc                                    0x08005029   Thumb Code    24  usart.o(.text)
    uart_init                                0x08005041   Thumb Code   152  usart.o(.text)
    Reset_Handler                            0x080050e1   Thumb Code     8  startup_stm32f10x_hd.o(.text)
    ADC1_2_IRQHandler                        0x080050fb   Thumb Code     0  startup_stm32f10x_hd.o(.text)
    ADC3_IRQHandler                          0x080050fb   Thumb Code     0  startup_stm32f10x_hd.o(.text)
    CAN1_RX1_IRQHandler                      0x080050fb   Thumb Code     0  startup_stm32f10x_hd.o(.text)
    CAN1_SCE_IRQHandler                      0x080050fb   Thumb Code     0  startup_stm32f10x_hd.o(.text)
    DMA1_Channel1_IRQHandler                 0x080050fb   Thumb Code     0  startup_stm32f10x_hd.o(.text)
    DMA1_Channel2_IRQHandler                 0x080050fb   Thumb Code     0  startup_stm32f10x_hd.o(.text)
    DMA1_Channel3_IRQHandler                 0x080050fb   Thumb Code     0  startup_stm32f10x_hd.o(.text)
    DMA1_Channel4_IRQHandler                 0x080050fb   Thumb Code     0  startup_stm32f10x_hd.o(.text)
    DMA1_Channel5_IRQHandler                 0x080050fb   Thumb Code     0  startup_stm32f10x_hd.o(.text)
    DMA1_Channel6_IRQHandler                 0x080050fb   Thumb Code     0  startup_stm32f10x_hd.o(.text)
    DMA1_Channel7_IRQHandler                 0x080050fb   Thumb Code     0  startup_stm32f10x_hd.o(.text)
    DMA2_Channel1_IRQHandler                 0x080050fb   Thumb Code     0  startup_stm32f10x_hd.o(.text)
    DMA2_Channel2_IRQHandler                 0x080050fb   Thumb Code     0  startup_stm32f10x_hd.o(.text)
    DMA2_Channel3_IRQHandler                 0x080050fb   Thumb Code     0  startup_stm32f10x_hd.o(.text)
    DMA2_Channel4_5_IRQHandler               0x080050fb   Thumb Code     0  startup_stm32f10x_hd.o(.text)
    EXTI0_IRQHandler                         0x080050fb   Thumb Code     0  startup_stm32f10x_hd.o(.text)
    EXTI15_10_IRQHandler                     0x080050fb   Thumb Code     0  startup_stm32f10x_hd.o(.text)
    EXTI1_IRQHandler                         0x080050fb   Thumb Code     0  startup_stm32f10x_hd.o(.text)
    EXTI2_IRQHandler                         0x080050fb   Thumb Code     0  startup_stm32f10x_hd.o(.text)
    EXTI3_IRQHandler                         0x080050fb   Thumb Code     0  startup_stm32f10x_hd.o(.text)
    EXTI4_IRQHandler                         0x080050fb   Thumb Code     0  startup_stm32f10x_hd.o(.text)
    EXTI9_5_IRQHandler                       0x080050fb   Thumb Code     0  startup_stm32f10x_hd.o(.text)
    FLASH_IRQHandler                         0x080050fb   Thumb Code     0  startup_stm32f10x_hd.o(.text)
    FSMC_IRQHandler                          0x080050fb   Thumb Code     0  startup_stm32f10x_hd.o(.text)
    I2C1_ER_IRQHandler                       0x080050fb   Thumb Code     0  startup_stm32f10x_hd.o(.text)
    I2C1_EV_IRQHandler                       0x080050fb   Thumb Code     0  startup_stm32f10x_hd.o(.text)
    I2C2_ER_IRQHandler                       0x080050fb   Thumb Code     0  startup_stm32f10x_hd.o(.text)
    I2C2_EV_IRQHandler                       0x080050fb   Thumb Code     0  startup_stm32f10x_hd.o(.text)
    PVD_IRQHandler                           0x080050fb   Thumb Code     0  startup_stm32f10x_hd.o(.text)
    RCC_IRQHandler                           0x080050fb   Thumb Code     0  startup_stm32f10x_hd.o(.text)
    RTCAlarm_IRQHandler                      0x080050fb   Thumb Code     0  startup_stm32f10x_hd.o(.text)
    RTC_IRQHandler                           0x080050fb   Thumb Code     0  startup_stm32f10x_hd.o(.text)
    SDIO_IRQHandler                          0x080050fb   Thumb Code     0  startup_stm32f10x_hd.o(.text)
    SPI1_IRQHandler                          0x080050fb   Thumb Code     0  startup_stm32f10x_hd.o(.text)
    SPI2_IRQHandler                          0x080050fb   Thumb Code     0  startup_stm32f10x_hd.o(.text)
    SPI3_IRQHandler                          0x080050fb   Thumb Code     0  startup_stm32f10x_hd.o(.text)
    TAMPER_IRQHandler                        0x080050fb   Thumb Code     0  startup_stm32f10x_hd.o(.text)
    TIM1_BRK_IRQHandler                      0x080050fb   Thumb Code     0  startup_stm32f10x_hd.o(.text)
    TIM1_CC_IRQHandler                       0x080050fb   Thumb Code     0  startup_stm32f10x_hd.o(.text)
    TIM1_TRG_COM_IRQHandler                  0x080050fb   Thumb Code     0  startup_stm32f10x_hd.o(.text)
    TIM1_UP_IRQHandler                       0x080050fb   Thumb Code     0  startup_stm32f10x_hd.o(.text)
    TIM2_IRQHandler                          0x080050fb   Thumb Code     0  startup_stm32f10x_hd.o(.text)
    TIM3_IRQHandler                          0x080050fb   Thumb Code     0  startup_stm32f10x_hd.o(.text)
    TIM5_IRQHandler                          0x080050fb   Thumb Code     0  startup_stm32f10x_hd.o(.text)
    TIM6_IRQHandler                          0x080050fb   Thumb Code     0  startup_stm32f10x_hd.o(.text)
    TIM7_IRQHandler                          0x080050fb   Thumb Code     0  startup_stm32f10x_hd.o(.text)
    TIM8_BRK_IRQHandler                      0x080050fb   Thumb Code     0  startup_stm32f10x_hd.o(.text)
    TIM8_CC_IRQHandler                       0x080050fb   Thumb Code     0  startup_stm32f10x_hd.o(.text)
    TIM8_TRG_COM_IRQHandler                  0x080050fb   Thumb Code     0  startup_stm32f10x_hd.o(.text)
    TIM8_UP_IRQHandler                       0x080050fb   Thumb Code     0  startup_stm32f10x_hd.o(.text)
    UART4_IRQHandler                         0x080050fb   Thumb Code     0  startup_stm32f10x_hd.o(.text)
    UART5_IRQHandler                         0x080050fb   Thumb Code     0  startup_stm32f10x_hd.o(.text)
    USART2_IRQHandler                        0x080050fb   Thumb Code     0  startup_stm32f10x_hd.o(.text)
    USART3_IRQHandler                        0x080050fb   Thumb Code     0  startup_stm32f10x_hd.o(.text)
    USBWakeUp_IRQHandler                     0x080050fb   Thumb Code     0  startup_stm32f10x_hd.o(.text)
    USB_HP_CAN1_TX_IRQHandler                0x080050fb   Thumb Code     0  startup_stm32f10x_hd.o(.text)
    USB_LP_CAN1_RX0_IRQHandler               0x080050fb   Thumb Code     0  startup_stm32f10x_hd.o(.text)
    WWDG_IRQHandler                          0x080050fb   Thumb Code     0  startup_stm32f10x_hd.o(.text)
    __user_initial_stackheap                 0x080050fd   Thumb Code     0  startup_stm32f10x_hd.o(.text)
    GPIO_DeInit                              0x08005121   Thumb Code   172  stm32f10x_gpio.o(.text)
    GPIO_AFIODeInit                          0x080051cd   Thumb Code    20  stm32f10x_gpio.o(.text)
    GPIO_Init                                0x080051e1   Thumb Code   278  stm32f10x_gpio.o(.text)
    GPIO_StructInit                          0x080052f7   Thumb Code    16  stm32f10x_gpio.o(.text)
    GPIO_ReadInputDataBit                    0x08005307   Thumb Code    18  stm32f10x_gpio.o(.text)
    GPIO_ReadInputData                       0x08005319   Thumb Code     8  stm32f10x_gpio.o(.text)
    GPIO_ReadOutputDataBit                   0x08005321   Thumb Code    18  stm32f10x_gpio.o(.text)
    GPIO_ReadOutputData                      0x08005333   Thumb Code     8  stm32f10x_gpio.o(.text)
    GPIO_SetBits                             0x0800533b   Thumb Code     4  stm32f10x_gpio.o(.text)
    GPIO_ResetBits                           0x0800533f   Thumb Code     4  stm32f10x_gpio.o(.text)
    GPIO_WriteBit                            0x08005343   Thumb Code    10  stm32f10x_gpio.o(.text)
    GPIO_Write                               0x0800534d   Thumb Code     4  stm32f10x_gpio.o(.text)
    GPIO_PinLockConfig                       0x08005351   Thumb Code    18  stm32f10x_gpio.o(.text)
    GPIO_EventOutputConfig                   0x08005363   Thumb Code    26  stm32f10x_gpio.o(.text)
    GPIO_EventOutputCmd                      0x0800537d   Thumb Code     6  stm32f10x_gpio.o(.text)
    GPIO_PinRemapConfig                      0x08005383   Thumb Code   138  stm32f10x_gpio.o(.text)
    GPIO_EXTILineConfig                      0x0800540d   Thumb Code    66  stm32f10x_gpio.o(.text)
    GPIO_ETH_MediaInterfaceConfig            0x0800544f   Thumb Code     8  stm32f10x_gpio.o(.text)
    RCC_DeInit                               0x0800547d   Thumb Code    64  stm32f10x_rcc.o(.text)
    RCC_HSEConfig                            0x080054bd   Thumb Code    70  stm32f10x_rcc.o(.text)
    RCC_GetFlagStatus                        0x08005503   Thumb Code    56  stm32f10x_rcc.o(.text)
    RCC_WaitForHSEStartUp                    0x0800553b   Thumb Code    56  stm32f10x_rcc.o(.text)
    RCC_AdjustHSICalibrationValue            0x08005573   Thumb Code    20  stm32f10x_rcc.o(.text)
    RCC_HSICmd                               0x08005587   Thumb Code     6  stm32f10x_rcc.o(.text)
    RCC_PLLConfig                            0x0800558d   Thumb Code    24  stm32f10x_rcc.o(.text)
    RCC_PLLCmd                               0x080055a5   Thumb Code     6  stm32f10x_rcc.o(.text)
    RCC_SYSCLKConfig                         0x080055ab   Thumb Code    18  stm32f10x_rcc.o(.text)
    RCC_GetSYSCLKSource                      0x080055bd   Thumb Code    10  stm32f10x_rcc.o(.text)
    RCC_HCLKConfig                           0x080055c7   Thumb Code    18  stm32f10x_rcc.o(.text)
    RCC_PCLK1Config                          0x080055d9   Thumb Code    18  stm32f10x_rcc.o(.text)
    RCC_PCLK2Config                          0x080055eb   Thumb Code    20  stm32f10x_rcc.o(.text)
    RCC_ITConfig                             0x080055ff   Thumb Code    26  stm32f10x_rcc.o(.text)
    RCC_USBCLKConfig                         0x08005619   Thumb Code     8  stm32f10x_rcc.o(.text)
    RCC_ADCCLKConfig                         0x08005621   Thumb Code    18  stm32f10x_rcc.o(.text)
    RCC_LSEConfig                            0x08005633   Thumb Code    50  stm32f10x_rcc.o(.text)
    RCC_LSICmd                               0x08005665   Thumb Code     6  stm32f10x_rcc.o(.text)
    RCC_RTCCLKConfig                         0x0800566b   Thumb Code    12  stm32f10x_rcc.o(.text)
    RCC_RTCCLKCmd                            0x08005677   Thumb Code     8  stm32f10x_rcc.o(.text)
    RCC_GetClocksFreq                        0x0800567f   Thumb Code   192  stm32f10x_rcc.o(.text)
    RCC_AHBPeriphClockCmd                    0x0800573f   Thumb Code    26  stm32f10x_rcc.o(.text)
    RCC_APB2PeriphClockCmd                   0x08005759   Thumb Code    26  stm32f10x_rcc.o(.text)
    RCC_APB1PeriphClockCmd                   0x08005773   Thumb Code    26  stm32f10x_rcc.o(.text)
    RCC_APB2PeriphResetCmd                   0x0800578d   Thumb Code    26  stm32f10x_rcc.o(.text)
    RCC_APB1PeriphResetCmd                   0x080057a7   Thumb Code    26  stm32f10x_rcc.o(.text)
    RCC_BackupResetCmd                       0x080057c1   Thumb Code     8  stm32f10x_rcc.o(.text)
    RCC_ClockSecuritySystemCmd               0x080057c9   Thumb Code     6  stm32f10x_rcc.o(.text)
    RCC_MCOConfig                            0x080057cf   Thumb Code     6  stm32f10x_rcc.o(.text)
    RCC_ClearFlag                            0x080057d5   Thumb Code    14  stm32f10x_rcc.o(.text)
    RCC_GetITStatus                          0x080057e3   Thumb Code    20  stm32f10x_rcc.o(.text)
    RCC_ClearITPendingBit                    0x080057f7   Thumb Code     6  stm32f10x_rcc.o(.text)
    USART_DeInit                             0x08005821   Thumb Code   134  stm32f10x_usart.o(.text)
    USART_Init                               0x080058a7   Thumb Code   210  stm32f10x_usart.o(.text)
    USART_StructInit                         0x08005979   Thumb Code    24  stm32f10x_usart.o(.text)
    USART_ClockInit                          0x08005991   Thumb Code    34  stm32f10x_usart.o(.text)
    USART_ClockStructInit                    0x080059b3   Thumb Code    12  stm32f10x_usart.o(.text)
    USART_Cmd                                0x080059bf   Thumb Code    24  stm32f10x_usart.o(.text)
    USART_ITConfig                           0x080059d7   Thumb Code    74  stm32f10x_usart.o(.text)
    USART_DMACmd                             0x08005a21   Thumb Code    18  stm32f10x_usart.o(.text)
    USART_SetAddress                         0x08005a33   Thumb Code    18  stm32f10x_usart.o(.text)
    USART_WakeUpConfig                       0x08005a45   Thumb Code    18  stm32f10x_usart.o(.text)
    USART_ReceiverWakeUpCmd                  0x08005a57   Thumb Code    24  stm32f10x_usart.o(.text)
    USART_LINBreakDetectLengthConfig         0x08005a6f   Thumb Code    18  stm32f10x_usart.o(.text)
    USART_LINCmd                             0x08005a81   Thumb Code    24  stm32f10x_usart.o(.text)
    USART_SendData                           0x08005a99   Thumb Code     8  stm32f10x_usart.o(.text)
    USART_ReceiveData                        0x08005aa1   Thumb Code    10  stm32f10x_usart.o(.text)
    USART_SendBreak                          0x08005aab   Thumb Code    10  stm32f10x_usart.o(.text)
    USART_SetGuardTime                       0x08005ab5   Thumb Code    16  stm32f10x_usart.o(.text)
    USART_SetPrescaler                       0x08005ac5   Thumb Code    16  stm32f10x_usart.o(.text)
    USART_SmartCardCmd                       0x08005ad5   Thumb Code    24  stm32f10x_usart.o(.text)
    USART_SmartCardNACKCmd                   0x08005aed   Thumb Code    24  stm32f10x_usart.o(.text)
    USART_HalfDuplexCmd                      0x08005b05   Thumb Code    24  stm32f10x_usart.o(.text)
    USART_OverSampling8Cmd                   0x08005b1d   Thumb Code    22  stm32f10x_usart.o(.text)
    USART_OneBitMethodCmd                    0x08005b33   Thumb Code    24  stm32f10x_usart.o(.text)
    USART_IrDAConfig                         0x08005b4b   Thumb Code    18  stm32f10x_usart.o(.text)
    USART_IrDACmd                            0x08005b5d   Thumb Code    24  stm32f10x_usart.o(.text)
    USART_GetFlagStatus                      0x08005b75   Thumb Code    26  stm32f10x_usart.o(.text)
    USART_ClearFlag                          0x08005b8f   Thumb Code    18  stm32f10x_usart.o(.text)
    USART_GetITStatus                        0x08005ba1   Thumb Code    84  stm32f10x_usart.o(.text)
    USART_ClearITPendingBit                  0x08005bf5   Thumb Code    52  stm32f10x_usart.o(.text)
    NVIC_PriorityGroupConfig                 0x08005c29   Thumb Code    10  misc.o(.text)
    NVIC_Init                                0x08005c33   Thumb Code   100  misc.o(.text)
    NVIC_SetVectorTable                      0x08005c97   Thumb Code    14  misc.o(.text)
    NVIC_SystemLPConfig                      0x08005ca5   Thumb Code    34  misc.o(.text)
    SysTick_CLKSourceConfig                  0x08005cc7   Thumb Code    40  misc.o(.text)
    TIM_DeInit                               0x08005d05   Thumb Code   424  stm32f10x_tim.o(.text)
    TIM_TimeBaseInit                         0x08005ead   Thumb Code   122  stm32f10x_tim.o(.text)
    TIM_OC1Init                              0x08005f27   Thumb Code   132  stm32f10x_tim.o(.text)
    TIM_OC2Init                              0x08005fab   Thumb Code   154  stm32f10x_tim.o(.text)
    TIM_OC3Init                              0x08006045   Thumb Code   150  stm32f10x_tim.o(.text)
    TIM_OC4Init                              0x080060db   Thumb Code   182  stm32f10x_tim.o(.text)
    TIM_SetIC4Prescaler                      0x08006191   Thumb Code    26  stm32f10x_tim.o(.text)
    TIM_SetIC3Prescaler                      0x0800622d   Thumb Code    18  stm32f10x_tim.o(.text)
    TIM_SetIC2Prescaler                      0x080062b9   Thumb Code    26  stm32f10x_tim.o(.text)
    TIM_SetIC1Prescaler                      0x08006355   Thumb Code    18  stm32f10x_tim.o(.text)
    TIM_ICInit                               0x080063d3   Thumb Code   150  stm32f10x_tim.o(.text)
    TIM_PWMIConfig                           0x08006469   Thumb Code   124  stm32f10x_tim.o(.text)
    TIM_BDTRConfig                           0x080064e5   Thumb Code    32  stm32f10x_tim.o(.text)
    TIM_TimeBaseStructInit                   0x08006505   Thumb Code    18  stm32f10x_tim.o(.text)
    TIM_OCStructInit                         0x08006517   Thumb Code    20  stm32f10x_tim.o(.text)
    TIM_ICStructInit                         0x0800652b   Thumb Code    18  stm32f10x_tim.o(.text)
    TIM_BDTRStructInit                       0x0800653d   Thumb Code    40  stm32f10x_tim.o(.text)
    TIM_Cmd                                  0x08006565   Thumb Code    24  stm32f10x_tim.o(.text)
    TIM_CtrlPWMOutputs                       0x0800657d   Thumb Code    30  stm32f10x_tim.o(.text)
    TIM_ITConfig                             0x0800659b   Thumb Code    18  stm32f10x_tim.o(.text)
    TIM_GenerateEvent                        0x080065ad   Thumb Code     4  stm32f10x_tim.o(.text)
    TIM_DMAConfig                            0x080065b1   Thumb Code    10  stm32f10x_tim.o(.text)
    TIM_DMACmd                               0x080065bb   Thumb Code    18  stm32f10x_tim.o(.text)
    TIM_InternalClockConfig                  0x080065cd   Thumb Code    12  stm32f10x_tim.o(.text)
    TIM_SelectInputTrigger                   0x080065d9   Thumb Code    18  stm32f10x_tim.o(.text)
    TIM_ITRxExternalClockConfig              0x080065eb   Thumb Code    24  stm32f10x_tim.o(.text)
    TIM_TIxExternalClockConfig               0x08006603   Thumb Code    62  stm32f10x_tim.o(.text)
    TIM_ETRConfig                            0x08006641   Thumb Code    28  stm32f10x_tim.o(.text)
    TIM_ETRClockMode1Config                  0x0800665d   Thumb Code    54  stm32f10x_tim.o(.text)
    TIM_ETRClockMode2Config                  0x08006693   Thumb Code    32  stm32f10x_tim.o(.text)
    TIM_PrescalerConfig                      0x080066b3   Thumb Code     6  stm32f10x_tim.o(.text)
    TIM_CounterModeConfig                    0x080066b9   Thumb Code    18  stm32f10x_tim.o(.text)
    TIM_EncoderInterfaceConfig               0x080066cb   Thumb Code    66  stm32f10x_tim.o(.text)
    TIM_ForcedOC1Config                      0x0800670d   Thumb Code    18  stm32f10x_tim.o(.text)
    TIM_ForcedOC2Config                      0x0800671f   Thumb Code    26  stm32f10x_tim.o(.text)
    TIM_ForcedOC3Config                      0x08006739   Thumb Code    18  stm32f10x_tim.o(.text)
    TIM_ForcedOC4Config                      0x0800674b   Thumb Code    26  stm32f10x_tim.o(.text)
    TIM_ARRPreloadConfig                     0x08006765   Thumb Code    24  stm32f10x_tim.o(.text)
    TIM_SelectCOM                            0x0800677d   Thumb Code    24  stm32f10x_tim.o(.text)
    TIM_SelectCCDMA                          0x08006795   Thumb Code    24  stm32f10x_tim.o(.text)
    TIM_CCPreloadControl                     0x080067ad   Thumb Code    24  stm32f10x_tim.o(.text)
    TIM_OC1PreloadConfig                     0x080067c5   Thumb Code    18  stm32f10x_tim.o(.text)
    TIM_OC2PreloadConfig                     0x080067d7   Thumb Code    26  stm32f10x_tim.o(.text)
    TIM_OC3PreloadConfig                     0x080067f1   Thumb Code    18  stm32f10x_tim.o(.text)
    TIM_OC4PreloadConfig                     0x08006803   Thumb Code    26  stm32f10x_tim.o(.text)
    TIM_OC1FastConfig                        0x0800681d   Thumb Code    18  stm32f10x_tim.o(.text)
    TIM_OC2FastConfig                        0x0800682f   Thumb Code    26  stm32f10x_tim.o(.text)
    TIM_OC3FastConfig                        0x08006849   Thumb Code    18  stm32f10x_tim.o(.text)
    TIM_OC4FastConfig                        0x0800685b   Thumb Code    26  stm32f10x_tim.o(.text)
    TIM_ClearOC1Ref                          0x08006875   Thumb Code    18  stm32f10x_tim.o(.text)
    TIM_ClearOC2Ref                          0x08006887   Thumb Code    24  stm32f10x_tim.o(.text)
    TIM_ClearOC3Ref                          0x0800689f   Thumb Code    18  stm32f10x_tim.o(.text)
    TIM_ClearOC4Ref                          0x080068b1   Thumb Code    24  stm32f10x_tim.o(.text)
    TIM_OC1PolarityConfig                    0x080068c9   Thumb Code    18  stm32f10x_tim.o(.text)
    TIM_OC1NPolarityConfig                   0x080068db   Thumb Code    18  stm32f10x_tim.o(.text)
    TIM_OC2PolarityConfig                    0x080068ed   Thumb Code    26  stm32f10x_tim.o(.text)
    TIM_OC2NPolarityConfig                   0x08006907   Thumb Code    26  stm32f10x_tim.o(.text)
    TIM_OC3PolarityConfig                    0x08006921   Thumb Code    26  stm32f10x_tim.o(.text)
    TIM_OC3NPolarityConfig                   0x0800693b   Thumb Code    26  stm32f10x_tim.o(.text)
    TIM_OC4PolarityConfig                    0x08006955   Thumb Code    26  stm32f10x_tim.o(.text)
    TIM_CCxCmd                               0x0800696f   Thumb Code    30  stm32f10x_tim.o(.text)
    TIM_CCxNCmd                              0x0800698d   Thumb Code    30  stm32f10x_tim.o(.text)
    TIM_SelectOCxM                           0x080069ab   Thumb Code    82  stm32f10x_tim.o(.text)
    TIM_UpdateDisableConfig                  0x080069fd   Thumb Code    24  stm32f10x_tim.o(.text)
    TIM_UpdateRequestConfig                  0x08006a15   Thumb Code    24  stm32f10x_tim.o(.text)
    TIM_SelectHallSensor                     0x08006a2d   Thumb Code    24  stm32f10x_tim.o(.text)
    TIM_SelectOnePulseMode                   0x08006a45   Thumb Code    18  stm32f10x_tim.o(.text)
    TIM_SelectOutputTrigger                  0x08006a57   Thumb Code    18  stm32f10x_tim.o(.text)
    TIM_SelectSlaveMode                      0x08006a69   Thumb Code    18  stm32f10x_tim.o(.text)
    TIM_SelectMasterSlaveMode                0x08006a7b   Thumb Code    18  stm32f10x_tim.o(.text)
    TIM_SetCounter                           0x08006a8d   Thumb Code     4  stm32f10x_tim.o(.text)
    TIM_SetAutoreload                        0x08006a91   Thumb Code     4  stm32f10x_tim.o(.text)
    TIM_SetCompare1                          0x08006a95   Thumb Code     4  stm32f10x_tim.o(.text)
    TIM_SetCompare2                          0x08006a99   Thumb Code     4  stm32f10x_tim.o(.text)
    TIM_SetCompare3                          0x08006a9d   Thumb Code     4  stm32f10x_tim.o(.text)
    TIM_SetCompare4                          0x08006aa1   Thumb Code     6  stm32f10x_tim.o(.text)
    TIM_SetClockDivision                     0x08006aa7   Thumb Code    18  stm32f10x_tim.o(.text)
    TIM_GetCapture1                          0x08006ab9   Thumb Code     6  stm32f10x_tim.o(.text)
    TIM_GetCapture2                          0x08006abf   Thumb Code     6  stm32f10x_tim.o(.text)
    TIM_GetCapture3                          0x08006ac5   Thumb Code     6  stm32f10x_tim.o(.text)
    TIM_GetCapture4                          0x08006acb   Thumb Code     8  stm32f10x_tim.o(.text)
    TIM_GetCounter                           0x08006ad3   Thumb Code     6  stm32f10x_tim.o(.text)
    TIM_GetPrescaler                         0x08006ad9   Thumb Code     6  stm32f10x_tim.o(.text)
    TIM_GetFlagStatus                        0x08006adf   Thumb Code    18  stm32f10x_tim.o(.text)
    TIM_ClearFlag                            0x08006af1   Thumb Code     6  stm32f10x_tim.o(.text)
    TIM_GetITStatus                          0x08006af7   Thumb Code    34  stm32f10x_tim.o(.text)
    TIM_ClearITPendingBit                    0x08006b19   Thumb Code     6  stm32f10x_tim.o(.text)
    __use_no_semihosting                     0x08006b1f   Thumb Code     2  use_no_semi_2.o(.text)
    malloc                                   0x08006b21   Thumb Code    94  h1_alloc.o(.text)
    __aeabi_ldivmod                          0x08006b7f   Thumb Code     0  llsdiv.o(.text)
    _ll_sdiv                                 0x08006b7f   Thumb Code    72  llsdiv.o(.text)
    __c89vsnprintf                           0x08006bc9   Thumb Code    48  c89vsnprintf.o(.text)
    __2printf                                0x08006bfd   Thumb Code    20  __2printf.o(.text)
    _printf_pre_padding                      0x08006c15   Thumb Code    44  _printf_pad.o(.text)
    _printf_post_padding                     0x08006c41   Thumb Code    34  _printf_pad.o(.text)
    _printf_int_dec                          0x08006c65   Thumb Code   104  _printf_dec.o(.text)
    _printf_longlong_hex                     0x08006cdd   Thumb Code    86  _printf_hex_int_ll_ptr.o(.text)
    _printf_int_hex                          0x08006d33   Thumb Code    28  _printf_hex_int_ll_ptr.o(.text)
    _printf_ll_hex                           0x08006d4f   Thumb Code    12  _printf_hex_int_ll_ptr.o(.text)
    _printf_hex_ptr                          0x08006d5b   Thumb Code    18  _printf_hex_int_ll_ptr.o(.text)
    __printf                                 0x08006d71   Thumb Code   388  __printf_flags_ss_wp.o(.text)
    abs                                      0x08006ef9   Thumb Code     8  abs.o(.text)
    memcmp                                   0x08006f01   Thumb Code    88  memcmp.o(.text)
    __aeabi_memcpy4                          0x08006f59   Thumb Code     0  rt_memcpy_w.o(.text)
    __aeabi_memcpy8                          0x08006f59   Thumb Code     0  rt_memcpy_w.o(.text)
    __rt_memcpy_w                            0x08006f59   Thumb Code   100  rt_memcpy_w.o(.text)
    _memcpy_lastbytes_aligned                0x08006fa1   Thumb Code     0  rt_memcpy_w.o(.text)
    __aeabi_memset                           0x08006fbd   Thumb Code    16  aeabi_memset.o(.text)
    __aeabi_memclr4                          0x08006fcd   Thumb Code     0  rt_memclr_w.o(.text)
    __aeabi_memclr8                          0x08006fcd   Thumb Code     0  rt_memclr_w.o(.text)
    __rt_memclr_w                            0x08006fcd   Thumb Code    78  rt_memclr_w.o(.text)
    _memset_w                                0x08006fd1   Thumb Code     0  rt_memclr_w.o(.text)
    strcmp                                   0x0800701d   Thumb Code   128  strcmpv7m.o(.text)
    __use_two_region_memory                  0x0800709d   Thumb Code     2  heapauxi.o(.text)
    __rt_heap_escrow                         0x0800709f   Thumb Code     2  heapauxi.o(.text)
    __rt_heap_expand                         0x080070a1   Thumb Code     2  heapauxi.o(.text)
    __I$use$semihosting                      0x080070a3   Thumb Code     0  use_no_semi.o(.text)
    __use_no_semihosting_swi                 0x080070a3   Thumb Code     2  use_no_semi.o(.text)
    __rt_heap_descriptor                     0x080070a5   Thumb Code     8  rt_heap_descriptor_intlibspace.o(.text)
    __use_no_heap                            0x080070ad   Thumb Code     2  hguard.o(.text)
    __heap$guard                             0x080070af   Thumb Code     2  hguard.o(.text)
    _terminate_user_alloc                    0x080070b1   Thumb Code     2  init_alloc.o(.text)
    _init_user_alloc                         0x080070b3   Thumb Code     2  init_alloc.o(.text)
    __Heap_Full                              0x080070b5   Thumb Code    34  init_alloc.o(.text)
    __Heap_Broken                            0x080070d7   Thumb Code     6  init_alloc.o(.text)
    _init_alloc                              0x080070dd   Thumb Code    94  init_alloc.o(.text)
    __Heap_Initialize                        0x0800713b   Thumb Code    10  h1_init.o(.text)
    __Heap_DescSize                          0x08007145   Thumb Code     4  h1_init.o(.text)
    free                                     0x08007149   Thumb Code    78  h1_free.o(.text)
    __aeabi_uldivmod                         0x08007197   Thumb Code     0  lludivv7m.o(.text)
    _ll_udiv                                 0x08007197   Thumb Code   238  lludivv7m.o(.text)
    __read_errno                             0x08007285   Thumb Code    10  _rserrno.o(.text)
    __set_errno                              0x0800728f   Thumb Code    12  _rserrno.o(.text)
    _printf_truncate_signed                  0x0800729b   Thumb Code    18  _printf_truncate.o(.text)
    _printf_truncate_unsigned                0x080072ad   Thumb Code    18  _printf_truncate.o(.text)
    _printf_str                              0x080072bf   Thumb Code    82  _printf_str.o(.text)
    _printf_int_common                       0x08007311   Thumb Code   178  _printf_intcommon.o(.text)
    _printf_charcount                        0x080073c3   Thumb Code    40  _printf_charcount.o(.text)
    _printf_char_common                      0x080073f7   Thumb Code    32  _printf_char_common.o(.text)
    _sputc                                   0x0800741d   Thumb Code    10  _sputc.o(.text)
    _snputc                                  0x08007427   Thumb Code    16  _snputc.o(.text)
    _printf_char_file                        0x08007439   Thumb Code    32  _printf_char_file.o(.text)
    _printf_wctomb                           0x0800745d   Thumb Code   182  _printf_wctomb.o(.text)
    _printf_longlong_dec                     0x08007519   Thumb Code   108  _printf_longlong_dec.o(.text)
    _printf_longlong_oct                     0x08007595   Thumb Code    68  _printf_oct_int_ll.o(.text)
    _printf_int_oct                          0x080075d9   Thumb Code    24  _printf_oct_int_ll.o(.text)
    _printf_ll_oct                           0x080075f1   Thumb Code    12  _printf_oct_int_ll.o(.text)
    __strtod_int                             0x08007641   Thumb Code    88  strtod.o(.text)
    __aeabi_memclr                           0x080076a5   Thumb Code     0  rt_memclr.o(.text)
    __rt_memclr                              0x080076a5   Thumb Code    68  rt_memclr.o(.text)
    _memset                                  0x080076a9   Thumb Code     0  rt_memclr.o(.text)
    __user_libspace                          0x080076e9   Thumb Code     8  libspace.o(.text)
    __user_perproc_libspace                  0x080076e9   Thumb Code     0  libspace.o(.text)
    __user_perthread_libspace                0x080076e9   Thumb Code     0  libspace.o(.text)
    __aeabi_errno_addr                       0x080076f1   Thumb Code     8  rt_errno_addr_intlibspace.o(.text)
    __errno$intlibspace                      0x080076f1   Thumb Code     0  rt_errno_addr_intlibspace.o(.text)
    __rt_errno_addr$intlibspace              0x080076f1   Thumb Code     0  rt_errno_addr_intlibspace.o(.text)
    __Heap_ProvideMemory                     0x080076f9   Thumb Code    52  h1_extend.o(.text)
    _ll_udiv10                               0x0800772d   Thumb Code   138  lludiv10.o(.text)
    isspace                                  0x080077b7   Thumb Code    18  isspace.o(.text)
    __lib_sel_fp_printf                      0x080077c9   Thumb Code     2  _printf_fp_dec.o(.text)
    _printf_fp_dec_real                      0x08007977   Thumb Code   620  _printf_fp_dec.o(.text)
    _printf_cs_common                        0x08007be3   Thumb Code    20  _printf_char.o(.text)
    _printf_char                             0x08007bf7   Thumb Code    16  _printf_char.o(.text)
    _printf_string                           0x08007c07   Thumb Code     8  _printf_char.o(.text)
    _printf_lcs_common                       0x08007c0f   Thumb Code    20  _printf_wchar.o(.text)
    _printf_wchar                            0x08007c23   Thumb Code    16  _printf_wchar.o(.text)
    _printf_wstring                          0x08007c33   Thumb Code     8  _printf_wchar.o(.text)
    _sgetc                                   0x08007c3b   Thumb Code    30  _sgetc.o(.text)
    _sbackspace                              0x08007c59   Thumb Code    34  _sgetc.o(.text)
    ferror                                   0x08007c7b   Thumb Code     8  ferror.o(.text)
    _wcrtomb                                 0x08007c83   Thumb Code    64  _wcrtomb.o(.text)
    __rt_SIGRTMEM                            0x08007cc3   Thumb Code    14  defsig_rtmem_outer.o(.text)
    __user_setup_stackheap                   0x08007cd1   Thumb Code    74  sys_stackheap_outer.o(.text)
    __rt_ctype_table                         0x08007d1d   Thumb Code    16  rt_ctype_table.o(.text)
    __rt_locale                              0x08007d2d   Thumb Code     8  rt_locale_intlibspace.o(.text)
    _printf_fp_infnan                        0x08007d35   Thumb Code   112  _printf_fp_infnan.o(.text)
    _scanf_really_real                       0x08007fb1   Thumb Code   668  scanf_fp.o(.text)
    _btod_etento                             0x08008259   Thumb Code   216  bigflt0.o(.text)
    exit                                     0x08008335   Thumb Code    12  exit.o(.text)
    __sig_exit                               0x08008341   Thumb Code    10  defsig_exit.o(.text)
    __rt_SIGRTMEM_inner                      0x0800834d   Thumb Code    22  defsig_rtmem_inner.o(.text)
    __default_signal_display                 0x0800839d   Thumb Code    50  defsig_general.o(.text)
    _scanf_really_hex_real                   0x080083d1   Thumb Code   778  scanf_hexfp.o(.text)
    _scanf_really_infnan                     0x080086e9   Thumb Code   292  scanf_infnan.o(.text)
    __aeabi_llsl                             0x0800881d   Thumb Code     0  llshl.o(.text)
    _ll_shift_l                              0x0800881d   Thumb Code    38  llshl.o(.text)
    _chval                                   0x08008843   Thumb Code    28  _chval.o(.text)
    _btod_d2e                                0x0800885f   Thumb Code    62  btod.o(CL$$btod_d2e)
    _d2e_denorm_low                          0x0800889d   Thumb Code    70  btod.o(CL$$btod_d2e_denorm_low)
    _d2e_norm_op1                            0x080088e3   Thumb Code    96  btod.o(CL$$btod_d2e_norm_op1)
    __btod_div_common                        0x08008943   Thumb Code   696  btod.o(CL$$btod_div_common)
    _e2d                                     0x08008c7d   Thumb Code    80  btod.o(CL$$btod_e2d)
    _e2e                                     0x08008cd1   Thumb Code   198  btod.o(CL$$btod_e2e)
    _btod_ediv                               0x08008d97   Thumb Code    40  btod.o(CL$$btod_ediv)
    _btod_edivd                              0x08008dbf   Thumb Code    40  btod.o(CL$$btod_edivd)
    _btod_emul                               0x08008de7   Thumb Code    40  btod.o(CL$$btod_emul)
    _btod_emuld                              0x08008e0f   Thumb Code    40  btod.o(CL$$btod_emuld)
    __btod_mult_common                       0x08008e37   Thumb Code   580  btod.o(CL$$btod_mult_common)
    __ARM_fpclassify                         0x0800907b   Thumb Code    40  fpclassify.o(i.__ARM_fpclassify)
    __ieee754_rem_pio2                       0x080090a5   Thumb Code   828  rred.o(i.__ieee754_rem_pio2)
    __kernel_cos                             0x0800942d   Thumb Code   230  cos_i.o(i.__kernel_cos)
    __kernel_poly                            0x08009529   Thumb Code   170  poly.o(i.__kernel_poly)
    __kernel_sin                             0x080095d5   Thumb Code   224  sin_i.o(i.__kernel_sin)
    __mathlib_dbl_infnan                     0x080096c1   Thumb Code     6  dunder.o(i.__mathlib_dbl_infnan)
    __mathlib_dbl_infnan2                    0x080096c7   Thumb Code     4  dunder.o(i.__mathlib_dbl_infnan2)
    __mathlib_dbl_invalid                    0x080096cb   Thumb Code    12  dunder.o(i.__mathlib_dbl_invalid)
    __mathlib_dbl_overflow                   0x080096d7   Thumb Code    14  dunder.o(i.__mathlib_dbl_overflow)
    __mathlib_dbl_underflow                  0x080096e5   Thumb Code    10  dunder.o(i.__mathlib_dbl_underflow)
    __mathlib_narrow                         0x080096f5   Thumb Code    16  narrow.o(i.__mathlib_narrow)
    __mathlib_tofloat                        0x08009705   Thumb Code   132  narrow.o(i.__mathlib_tofloat)
    __support_ldexp                          0x0800978d   Thumb Code    22  ldexp.o(i.__support_ldexp)
    _is_digit                                0x080097a3   Thumb Code    14  __printf_wp.o(i._is_digit)
    asin                                     0x080097b1   Thumb Code   572  asin.o(i.asin)
    atan                                     0x08009a21   Thumb Code   474  atan.o(i.atan)
    atan2                                    0x08009c41   Thumb Code   346  atan2.o(i.atan2)
    atof                                     0x08009dc1   Thumb Code    42  atof.o(i.atof)
    cos                                      0x08009ded   Thumb Code   148  cos.o(i.cos)
    frexp                                    0x08009e89   Thumb Code    80  frexp.o(i.frexp)
    ldexp                                    0x08009ee1   Thumb Code   116  ldexp.o(i.ldexp)
    sin                                      0x08009f55   Thumb Code   150  sin.o(i.sin)
    sqrt                                     0x08009ff5   Thumb Code    76  sqrt.o(i.sqrt)
    _get_lc_numeric                          0x0800a041   Thumb Code    44  lc_numeric_c.o(locale$$code)
    _get_lc_ctype                            0x0800a06d   Thumb Code    44  lc_ctype_c.o(locale$$code)
    __aeabi_d2f                              0x0800a099   Thumb Code     0  d2f.o(x$fpl$d2f)
    _d2f                                     0x0800a099   Thumb Code    98  d2f.o(x$fpl$d2f)
    __aeabi_dadd                             0x0800a0fd   Thumb Code     0  daddsub_clz.o(x$fpl$dadd)
    _dadd                                    0x0800a0fd   Thumb Code   332  daddsub_clz.o(x$fpl$dadd)
    __fpl_dcheck_NaN1                        0x0800a24d   Thumb Code    10  dcheck1.o(x$fpl$dcheck1)
    __fpl_dcmp_Inf                           0x0800a25d   Thumb Code    24  dcmpi.o(x$fpl$dcmpinf)
    __aeabi_ddiv                             0x0800a275   Thumb Code     0  ddiv.o(x$fpl$ddiv)
    _ddiv                                    0x0800a275   Thumb Code   552  ddiv.o(x$fpl$ddiv)
    __aeabi_cdcmpeq                          0x0800a525   Thumb Code     0  deqf.o(x$fpl$deqf)
    _dcmpeq                                  0x0800a525   Thumb Code   120  deqf.o(x$fpl$deqf)
    __aeabi_d2iz                             0x0800a59d   Thumb Code     0  dfix.o(x$fpl$dfix)
    _dfix                                    0x0800a59d   Thumb Code    94  dfix.o(x$fpl$dfix)
    __aeabi_d2uiz                            0x0800a5fd   Thumb Code     0  dfixu.o(x$fpl$dfixu)
    _dfixu                                   0x0800a5fd   Thumb Code    90  dfixu.o(x$fpl$dfixu)
    __aeabi_i2d                              0x0800a657   Thumb Code     0  dflt_clz.o(x$fpl$dflt)
    _dflt                                    0x0800a657   Thumb Code    46  dflt_clz.o(x$fpl$dflt)
    __aeabi_ui2d                             0x0800a685   Thumb Code     0  dflt_clz.o(x$fpl$dfltu)
    _dfltu                                   0x0800a685   Thumb Code    38  dflt_clz.o(x$fpl$dfltu)
    __aeabi_cdcmple                          0x0800a6ad   Thumb Code     0  dleqf.o(x$fpl$dleqf)
    _dcmple                                  0x0800a6ad   Thumb Code   120  dleqf.o(x$fpl$dleqf)
    __fpl_dcmple_InfNaN                      0x0800a70f   Thumb Code     0  dleqf.o(x$fpl$dleqf)
    __aeabi_dmul                             0x0800a725   Thumb Code     0  dmul.o(x$fpl$dmul)
    _dmul                                    0x0800a725   Thumb Code   332  dmul.o(x$fpl$dmul)
    __fpl_dnaninf                            0x0800a879   Thumb Code   156  dnaninf.o(x$fpl$dnaninf)
    __fpl_dretinf                            0x0800a915   Thumb Code    12  dretinf.o(x$fpl$dretinf)
    __aeabi_cdrcmple                         0x0800a921   Thumb Code     0  drleqf.o(x$fpl$drleqf)
    _drcmple                                 0x0800a921   Thumb Code   108  drleqf.o(x$fpl$drleqf)
    __aeabi_drsub                            0x0800a98d   Thumb Code     0  daddsub_clz.o(x$fpl$drsb)
    _drsb                                    0x0800a98d   Thumb Code    22  daddsub_clz.o(x$fpl$drsb)
    _dsqrt                                   0x0800a9a5   Thumb Code   456  dsqrt_noumaal.o(x$fpl$dsqrt)
    __aeabi_dsub                             0x0800ab71   Thumb Code     0  daddsub_clz.o(x$fpl$dsub)
    _dsub                                    0x0800ab71   Thumb Code   464  daddsub_clz.o(x$fpl$dsub)
    __aeabi_f2d                              0x0800ad45   Thumb Code     0  f2d.o(x$fpl$f2d)
    _f2d                                     0x0800ad45   Thumb Code    86  f2d.o(x$fpl$f2d)
    __aeabi_fadd                             0x0800ad9d   Thumb Code     0  faddsub_clz.o(x$fpl$fadd)
    _fadd                                    0x0800ad9d   Thumb Code   196  faddsub_clz.o(x$fpl$fadd)
    __fpl_fcmp_Inf                           0x0800ae61   Thumb Code    24  fcmpi.o(x$fpl$fcmpinf)
    __aeabi_fdiv                             0x0800ae79   Thumb Code     0  fdiv.o(x$fpl$fdiv)
    _fdiv                                    0x0800ae79   Thumb Code   384  fdiv.o(x$fpl$fdiv)
    __aeabi_cfcmpeq                          0x0800affd   Thumb Code     0  feqf.o(x$fpl$feqf)
    _fcmpeq                                  0x0800affd   Thumb Code   104  feqf.o(x$fpl$feqf)
    __aeabi_f2iz                             0x0800b065   Thumb Code     0  ffix.o(x$fpl$ffix)
    _ffix                                    0x0800b065   Thumb Code    54  ffix.o(x$fpl$ffix)
    __aeabi_f2uiz                            0x0800b09d   Thumb Code     0  ffixu.o(x$fpl$ffixu)
    _ffixu                                   0x0800b09d   Thumb Code    62  ffixu.o(x$fpl$ffixu)
    __aeabi_i2f                              0x0800b0dd   Thumb Code     0  fflt_clz.o(x$fpl$fflt)
    _fflt                                    0x0800b0dd   Thumb Code    48  fflt_clz.o(x$fpl$fflt)
    __aeabi_ui2f                             0x0800b10d   Thumb Code     0  fflt_clz.o(x$fpl$ffltu)
    _ffltu                                   0x0800b10d   Thumb Code    38  fflt_clz.o(x$fpl$ffltu)
    __aeabi_cfcmple                          0x0800b135   Thumb Code     0  fleqf.o(x$fpl$fleqf)
    _fcmple                                  0x0800b135   Thumb Code   104  fleqf.o(x$fpl$fleqf)
    __fpl_fcmple_InfNaN                      0x0800b187   Thumb Code     0  fleqf.o(x$fpl$fleqf)
    __aeabi_fmul                             0x0800b19d   Thumb Code     0  fmul.o(x$fpl$fmul)
    _fmul                                    0x0800b19d   Thumb Code   258  fmul.o(x$fpl$fmul)
    __fpl_fnaninf                            0x0800b29f   Thumb Code   140  fnaninf.o(x$fpl$fnaninf)
    __fpl_fretinf                            0x0800b32b   Thumb Code    10  fretinf.o(x$fpl$fretinf)
    __aeabi_cfrcmple                         0x0800b335   Thumb Code     0  frleqf.o(x$fpl$frleqf)
    _frcmple                                 0x0800b335   Thumb Code    98  frleqf.o(x$fpl$frleqf)
    __aeabi_fsub                             0x0800b399   Thumb Code     0  faddsub_clz.o(x$fpl$fsub)
    _fsub                                    0x0800b399   Thumb Code   234  faddsub_clz.o(x$fpl$fsub)
    _printf_fp_dec                           0x0800b483   Thumb Code     4  printf1.o(x$fpl$printf1)
    __fpl_return_NaN                         0x0800b487   Thumb Code   100  retnan.o(x$fpl$retnan)
    __ARM_scalbn                             0x0800b4eb   Thumb Code    92  scalbn.o(x$fpl$scalbn)
    _scanf_real                              0x0800b547   Thumb Code     4  scanf1.o(x$fpl$scanf1)
    _scanf_hex_real                          0x0800b54b   Thumb Code     4  scanf2.o(x$fpl$scanf2)
    _scanf_infnan                            0x0800b54f   Thumb Code     4  scanf2.o(x$fpl$scanf2)
    __fpl_cmpreturn                          0x0800b553   Thumb Code    48  trapv.o(x$fpl$trapveneer)
    __I$use$fp                               0x0800b582   Number         0  usenofp.o(x$fpl$usenofp)
    reg                                      0x0800c1c8   Data          27  inv_mpu.o(.constdata)
    hw                                       0x0800c1e4   Data          12  inv_mpu.o(.constdata)
    test                                     0x0800c1f0   Data          40  inv_mpu.o(.constdata)
    __mathlib_zero                           0x0800c378   Data           8  qnan.o(.constdata)
    Region$$Table$$Base                      0x0800c554   Number         0  anon$$obj.o(Region$$Table)
    Region$$Table$$Limit                     0x0800c574   Number         0  anon$$obj.o(Region$$Table)
    __aeabi_HUGE_VAL                         0x0800c574   Data           0  fpconst.o(c$$dinf)
    __aeabi_HUGE_VALL                        0x0800c574   Data           0  fpconst.o(c$$dinf)
    __aeabi_INFINITY                         0x0800c574   Data           0  fpconst.o(c$$dinf)
    __dInf                                   0x0800c574   Data           0  fpconst.o(c$$dinf)
    __huge_val                               0x0800c574   Data           0  fpconst.o(c$$dinf)
    __ctype                                  0x0800c5a5   Data           0  lc_ctype_c.o(locale$$data)
    RUN_MODE                                 0x20000000   Data           1  main.o(.data)
    Print                                    0x20000001   Data           1  main.o(.data)
    pitch                                    0x20000004   Data           4  main.o(.data)
    roll                                     0x20000008   Data           4  main.o(.data)
    yaw                                      0x2000000c   Data           4  main.o(.data)
    aacx                                     0x20000010   Data           2  main.o(.data)
    aacy                                     0x20000012   Data           2  main.o(.data)
    aacz                                     0x20000014   Data           2  main.o(.data)
    gyrox                                    0x20000016   Data           2  main.o(.data)
    gyroy                                    0x20000018   Data           2  main.o(.data)
    gyroz                                    0x2000001a   Data           2  main.o(.data)
    SystemCoreClock                          0x2000001c   Data           4  system_stm32f10x.o(.data)
    AHBPrescTable                            0x20000020   Data          16  system_stm32f10x.o(.data)
    R                                        0x20000030   Data           4  control_motor.o(.data)
    angle                                    0x20000034   Data           4  control_motor.o(.data)
    B                                        0x20000038   Data           4  control_motor.o(.data)
    USART1_RX_STA                            0x2000004c   Data           2  usart2.o(.data)
    __stdout                                 0x20000244   Data           4  usart.o(.data)
    USART_RX_STA                             0x20000248   Data           2  usart.o(.data)
    motor13_parameter                        0x20000260   Data          32  main.o(.bss)
    motor24_parameter                        0x20000280   Data          32  main.o(.bss)
    USART1_RX_BUF                            0x200002d4   Data         200  usart2.o(.bss)
    OutData                                  0x200003ac   Data          16  outputdata.o(.bss)
    __libspace_start                         0x200003bc   Data          96  libspace.o(.bss)
    __temporary_stack_top$libspace           0x2000041c   Data           0  libspace.o(.bss)



==============================================================================

Memory Map of the image

  Image Entry point : 0x08000131

  Load Region LR_IROM1 (Base: 0x08000000, Size: 0x0000c908, Max: 0x00040000, ABSOLUTE, COMPRESSED[0x0000c758])

    Execution Region ER_IROM1 (Base: 0x08000000, Size: 0x0000c6a8, Max: 0x00040000, ABSOLUTE)

    Base Addr    Size         Type   Attr      Idx    E Section Name        Object

    0x08000000   0x00000130   Data   RO          554    RESET               startup_stm32f10x_hd.o
    0x08000130   0x00000008   Code   RO          972  * !!!main             c_w.l(__main.o)
    0x08000138   0x00000034   Code   RO         1534    !!!scatter          c_w.l(__scatter.o)
    0x0800016c   0x0000005a   Code   RO         1532    !!dczerorl2         c_w.l(__dczerorl2.o)
    0x080001c6   0x00000002   PAD
    0x080001c8   0x0000001c   Code   RO         1536    !!handler_zi        c_w.l(__scatter_zi.o)
    0x080001e4   0x00000000   Code   RO          957    .ARM.Collect$$_printf_percent$$00000000  c_w.l(_printf_percent.o)
    0x080001e4   0x00000006   Code   RO         1151    .ARM.Collect$$_printf_percent$$00000001  c_w.l(_printf_n.o)
    0x080001ea   0x00000006   Code   RO         1152    .ARM.Collect$$_printf_percent$$00000002  c_w.l(_printf_p.o)
    0x080001f0   0x00000006   Code   RO         1156    .ARM.Collect$$_printf_percent$$00000003  c_w.l(_printf_f.o)
    0x080001f6   0x00000006   Code   RO         1157    .ARM.Collect$$_printf_percent$$00000004  c_w.l(_printf_e.o)
    0x080001fc   0x00000006   Code   RO         1158    .ARM.Collect$$_printf_percent$$00000005  c_w.l(_printf_g.o)
    0x08000202   0x00000006   Code   RO         1159    .ARM.Collect$$_printf_percent$$00000006  c_w.l(_printf_a.o)
    0x08000208   0x0000000a   Code   RO         1164    .ARM.Collect$$_printf_percent$$00000007  c_w.l(_printf_ll.o)
    0x08000212   0x00000006   Code   RO         1154    .ARM.Collect$$_printf_percent$$00000008  c_w.l(_printf_i.o)
    0x08000218   0x00000006   Code   RO          956    .ARM.Collect$$_printf_percent$$00000009  c_w.l(_printf_d.o)
    0x0800021e   0x00000006   Code   RO         1155    .ARM.Collect$$_printf_percent$$0000000A  c_w.l(_printf_u.o)
    0x08000224   0x00000006   Code   RO         1153    .ARM.Collect$$_printf_percent$$0000000B  c_w.l(_printf_o.o)
    0x0800022a   0x00000006   Code   RO          955    .ARM.Collect$$_printf_percent$$0000000C  c_w.l(_printf_x.o)
    0x08000230   0x00000006   Code   RO         1161    .ARM.Collect$$_printf_percent$$0000000D  c_w.l(_printf_lli.o)
    0x08000236   0x00000006   Code   RO         1162    .ARM.Collect$$_printf_percent$$0000000E  c_w.l(_printf_lld.o)
    0x0800023c   0x00000006   Code   RO         1163    .ARM.Collect$$_printf_percent$$0000000F  c_w.l(_printf_llu.o)
    0x08000242   0x00000006   Code   RO         1168    .ARM.Collect$$_printf_percent$$00000010  c_w.l(_printf_llo.o)
    0x08000248   0x00000006   Code   RO         1169    .ARM.Collect$$_printf_percent$$00000011  c_w.l(_printf_llx.o)
    0x0800024e   0x0000000a   Code   RO         1165    .ARM.Collect$$_printf_percent$$00000012  c_w.l(_printf_l.o)
    0x08000258   0x00000006   Code   RO         1149    .ARM.Collect$$_printf_percent$$00000013  c_w.l(_printf_c.o)
    0x0800025e   0x00000006   Code   RO         1150    .ARM.Collect$$_printf_percent$$00000014  c_w.l(_printf_s.o)
    0x08000264   0x00000006   Code   RO         1166    .ARM.Collect$$_printf_percent$$00000015  c_w.l(_printf_lc.o)
    0x0800026a   0x00000006   Code   RO         1167    .ARM.Collect$$_printf_percent$$00000016  c_w.l(_printf_ls.o)
    0x08000270   0x00000004   Code   RO         1160    .ARM.Collect$$_printf_percent$$00000017  c_w.l(_printf_percent_end.o)
    0x08000274   0x00000002   Code   RO         1420    .ARM.Collect$$libinit$$00000000  c_w.l(libinit.o)
    0x08000276   0x00000000   Code   RO         1177    .ARM.Collect$$libinit$$00000002  c_w.l(libinit2.o)
    0x08000276   0x00000000   Code   RO         1179    .ARM.Collect$$libinit$$00000004  c_w.l(libinit2.o)
    0x08000276   0x00000008   Code   RO         1180    .ARM.Collect$$libinit$$00000005  c_w.l(libinit2.o)
    0x0800027e   0x00000000   Code   RO         1182    .ARM.Collect$$libinit$$0000000A  c_w.l(libinit2.o)
    0x0800027e   0x00000000   Code   RO         1184    .ARM.Collect$$libinit$$0000000C  c_w.l(libinit2.o)
    0x0800027e   0x00000000   Code   RO         1186    .ARM.Collect$$libinit$$0000000E  c_w.l(libinit2.o)
    0x0800027e   0x00000006   Code   RO         1187    .ARM.Collect$$libinit$$0000000F  c_w.l(libinit2.o)
    0x08000284   0x00000000   Code   RO         1189    .ARM.Collect$$libinit$$00000011  c_w.l(libinit2.o)
    0x08000284   0x0000000c   Code   RO         1190    .ARM.Collect$$libinit$$00000012  c_w.l(libinit2.o)
    0x08000290   0x00000000   Code   RO         1191    .ARM.Collect$$libinit$$00000013  c_w.l(libinit2.o)
    0x08000290   0x00000000   Code   RO         1193    .ARM.Collect$$libinit$$00000015  c_w.l(libinit2.o)
    0x08000290   0x0000000a   Code   RO         1194    .ARM.Collect$$libinit$$00000016  c_w.l(libinit2.o)
    0x0800029a   0x00000000   Code   RO         1195    .ARM.Collect$$libinit$$00000017  c_w.l(libinit2.o)
    0x0800029a   0x00000000   Code   RO         1197    .ARM.Collect$$libinit$$00000019  c_w.l(libinit2.o)
    0x0800029a   0x00000000   Code   RO         1199    .ARM.Collect$$libinit$$0000001B  c_w.l(libinit2.o)
    0x0800029a   0x00000000   Code   RO         1201    .ARM.Collect$$libinit$$0000001D  c_w.l(libinit2.o)
    0x0800029a   0x00000000   Code   RO         1203    .ARM.Collect$$libinit$$0000001F  c_w.l(libinit2.o)
    0x0800029a   0x00000000   Code   RO         1205    .ARM.Collect$$libinit$$00000021  c_w.l(libinit2.o)
    0x0800029a   0x00000000   Code   RO         1207    .ARM.Collect$$libinit$$00000023  c_w.l(libinit2.o)
    0x0800029a   0x00000000   Code   RO         1209    .ARM.Collect$$libinit$$00000025  c_w.l(libinit2.o)
    0x0800029a   0x00000000   Code   RO         1213    .ARM.Collect$$libinit$$0000002C  c_w.l(libinit2.o)
    0x0800029a   0x00000000   Code   RO         1215    .ARM.Collect$$libinit$$0000002E  c_w.l(libinit2.o)
    0x0800029a   0x00000000   Code   RO         1217    .ARM.Collect$$libinit$$00000030  c_w.l(libinit2.o)
    0x0800029a   0x00000000   Code   RO         1219    .ARM.Collect$$libinit$$00000032  c_w.l(libinit2.o)
    0x0800029a   0x00000002   Code   RO         1220    .ARM.Collect$$libinit$$00000033  c_w.l(libinit2.o)
    0x0800029c   0x00000002   Code   RO         1517    .ARM.Collect$$libshutdown$$00000000  c_w.l(libshutdown.o)
    0x0800029e   0x00000000   Code   RO         1444    .ARM.Collect$$libshutdown$$00000003  c_w.l(libshutdown2.o)
    0x0800029e   0x00000000   Code   RO         1447    .ARM.Collect$$libshutdown$$00000006  c_w.l(libshutdown2.o)
    0x0800029e   0x00000000   Code   RO         1450    .ARM.Collect$$libshutdown$$00000009  c_w.l(libshutdown2.o)
    0x0800029e   0x00000000   Code   RO         1452    .ARM.Collect$$libshutdown$$0000000B  c_w.l(libshutdown2.o)
    0x0800029e   0x00000000   Code   RO         1455    .ARM.Collect$$libshutdown$$0000000E  c_w.l(libshutdown2.o)
    0x0800029e   0x00000002   Code   RO         1456    .ARM.Collect$$libshutdown$$0000000F  c_w.l(libshutdown2.o)
    0x080002a0   0x00000000   Code   RO         1086    .ARM.Collect$$rtentry$$00000000  c_w.l(__rtentry.o)
    0x080002a0   0x00000000   Code   RO         1285    .ARM.Collect$$rtentry$$00000002  c_w.l(__rtentry2.o)
    0x080002a0   0x00000006   Code   RO         1297    .ARM.Collect$$rtentry$$00000004  c_w.l(__rtentry4.o)
    0x080002a6   0x00000000   Code   RO         1287    .ARM.Collect$$rtentry$$00000009  c_w.l(__rtentry2.o)
    0x080002a6   0x00000004   Code   RO         1288    .ARM.Collect$$rtentry$$0000000A  c_w.l(__rtentry2.o)
    0x080002aa   0x00000000   Code   RO         1290    .ARM.Collect$$rtentry$$0000000C  c_w.l(__rtentry2.o)
    0x080002aa   0x00000008   Code   RO         1291    .ARM.Collect$$rtentry$$0000000D  c_w.l(__rtentry2.o)
    0x080002b2   0x00000002   Code   RO         1425    .ARM.Collect$$rtexit$$00000000  c_w.l(rtexit.o)
    0x080002b4   0x00000000   Code   RO         1475    .ARM.Collect$$rtexit$$00000002  c_w.l(rtexit2.o)
    0x080002b4   0x00000004   Code   RO         1476    .ARM.Collect$$rtexit$$00000003  c_w.l(rtexit2.o)
    0x080002b8   0x00000006   Code   RO         1477    .ARM.Collect$$rtexit$$00000004  c_w.l(rtexit2.o)
    0x080002be   0x00000002   PAD
    0x080002c0   0x00000000   Code   RO         1310    .emb_text           c_w.l(maybetermalloc1.o)
    0x080002c0   0x00000144   Code   RO            1    .text               main.o
    0x08000404   0x0000001a   Code   RO          141    .text               stm32f10x_it.o
    0x0800041e   0x00000002   PAD
    0x08000420   0x000001e0   Code   RO          182    .text               system_stm32f10x.o
    0x08000600   0x000000f4   Code   RO          200    .text               tim.o
    0x080006f4   0x000000c8   Code   RO          246    .text               pid.o
    0x080007bc   0x000005dc   Code   RO          259    .text               control_motor.o
    0x08000d98   0x000001c0   Code   RO          280    .text               pwm.o
    0x08000f58   0x00000290   Code   RO          292    .text               key.o
    0x080011e8   0x00000250   Code   RO          334    .text               mpuiic.o
    0x08001438   0x000002ec   Code   RO          346    .text               usart_function.o
    0x08001724   0x000003b8   Code   RO          371    .text               usart2.o
    0x08001adc   0x00000368   Code   RO          403    .text               mpu6050.o
    0x08001e44   0x00000d70   Code   RO          419    .text               inv_mpu_dmp_motion_driver.o
    0x08002bb4   0x00002294   Code   RO          446    .text               inv_mpu.o
    0x08004e48   0x00000100   Code   RO          470    .text               outputdata.o
    0x08004f48   0x000000d4   Code   RO          488    .text               delay.o
    0x0800501c   0x000000c4   Code   RO          519    .text               usart.o
    0x080050e0   0x00000040   Code   RO          555    .text               startup_stm32f10x_hd.o
    0x08005120   0x0000035c   Code   RO          559    .text               stm32f10x_gpio.o
    0x0800547c   0x000003a4   Code   RO          571    .text               stm32f10x_rcc.o
    0x08005820   0x00000408   Code   RO          585    .text               stm32f10x_usart.o
    0x08005c28   0x000000dc   Code   RO          597    .text               misc.o
    0x08005d04   0x00000e1a   Code   RO          609    .text               stm32f10x_tim.o
    0x08006b1e   0x00000002   Code   RO          842    .text               c_w.l(use_no_semi_2.o)
    0x08006b20   0x0000005e   Code   RO          846    .text               c_w.l(h1_alloc.o)
    0x08006b7e   0x00000048   Code   RO          900    .text               c_w.l(llsdiv.o)
    0x08006bc6   0x00000002   PAD
    0x08006bc8   0x00000034   Code   RO          902    .text               c_w.l(c89vsnprintf.o)
    0x08006bfc   0x00000018   Code   RO          904    .text               c_w.l(__2printf.o)
    0x08006c14   0x0000004e   Code   RO          910    .text               c_w.l(_printf_pad.o)
    0x08006c62   0x00000002   PAD
    0x08006c64   0x00000078   Code   RO          912    .text               c_w.l(_printf_dec.o)
    0x08006cdc   0x00000094   Code   RO          932    .text               c_w.l(_printf_hex_int_ll_ptr.o)
    0x08006d70   0x00000188   Code   RO          952    .text               c_w.l(__printf_flags_ss_wp.o)
    0x08006ef8   0x00000008   Code   RO          958    .text               c_w.l(abs.o)
    0x08006f00   0x00000058   Code   RO          960    .text               c_w.l(memcmp.o)
    0x08006f58   0x00000064   Code   RO          962    .text               c_w.l(rt_memcpy_w.o)
    0x08006fbc   0x00000010   Code   RO          964    .text               c_w.l(aeabi_memset.o)
    0x08006fcc   0x0000004e   Code   RO          966    .text               c_w.l(rt_memclr_w.o)
    0x0800701a   0x00000002   PAD
    0x0800701c   0x00000080   Code   RO          968    .text               c_w.l(strcmpv7m.o)
    0x0800709c   0x00000006   Code   RO          970    .text               c_w.l(heapauxi.o)
    0x080070a2   0x00000002   Code   RO         1082    .text               c_w.l(use_no_semi.o)
    0x080070a4   0x00000008   Code   RO         1090    .text               c_w.l(rt_heap_descriptor_intlibspace.o)
    0x080070ac   0x00000004   Code   RO         1092    .text               c_w.l(hguard.o)
    0x080070b0   0x0000008a   Code   RO         1094    .text               c_w.l(init_alloc.o)
    0x0800713a   0x0000000e   Code   RO         1100    .text               c_w.l(h1_init.o)
    0x08007148   0x0000004e   Code   RO         1102    .text               c_w.l(h1_free.o)
    0x08007196   0x000000ee   Code   RO         1118    .text               c_w.l(lludivv7m.o)
    0x08007284   0x00000016   Code   RO         1120    .text               c_w.l(_rserrno.o)
    0x0800729a   0x00000024   Code   RO         1122    .text               c_w.l(_printf_truncate.o)
    0x080072be   0x00000052   Code   RO         1124    .text               c_w.l(_printf_str.o)
    0x08007310   0x000000b2   Code   RO         1126    .text               c_w.l(_printf_intcommon.o)
    0x080073c2   0x00000028   Code   RO         1128    .text               c_w.l(_printf_charcount.o)
    0x080073ea   0x00000002   PAD
    0x080073ec   0x00000030   Code   RO         1130    .text               c_w.l(_printf_char_common.o)
    0x0800741c   0x0000000a   Code   RO         1132    .text               c_w.l(_sputc.o)
    0x08007426   0x00000010   Code   RO         1134    .text               c_w.l(_snputc.o)
    0x08007436   0x00000002   PAD
    0x08007438   0x00000024   Code   RO         1136    .text               c_w.l(_printf_char_file.o)
    0x0800745c   0x000000bc   Code   RO         1138    .text               c_w.l(_printf_wctomb.o)
    0x08007518   0x0000007c   Code   RO         1141    .text               c_w.l(_printf_longlong_dec.o)
    0x08007594   0x00000070   Code   RO         1147    .text               c_w.l(_printf_oct_int_ll.o)
    0x08007604   0x000000a0   Code   RO         1170    .text               c_w.l(strtod.o)
    0x080076a4   0x00000044   Code   RO         1172    .text               c_w.l(rt_memclr.o)
    0x080076e8   0x00000008   Code   RO         1281    .text               c_w.l(libspace.o)
    0x080076f0   0x00000008   Code   RO         1306    .text               c_w.l(rt_errno_addr_intlibspace.o)
    0x080076f8   0x00000034   Code   RO         1312    .text               c_w.l(h1_extend.o)
    0x0800772c   0x0000008a   Code   RO         1316    .text               c_w.l(lludiv10.o)
    0x080077b6   0x00000012   Code   RO         1318    .text               c_w.l(isspace.o)
    0x080077c8   0x0000041a   Code   RO         1320    .text               c_w.l(_printf_fp_dec.o)
    0x08007be2   0x0000002c   Code   RO         1324    .text               c_w.l(_printf_char.o)
    0x08007c0e   0x0000002c   Code   RO         1326    .text               c_w.l(_printf_wchar.o)
    0x08007c3a   0x00000040   Code   RO         1328    .text               c_w.l(_sgetc.o)
    0x08007c7a   0x00000008   Code   RO         1330    .text               c_w.l(ferror.o)
    0x08007c82   0x00000040   Code   RO         1334    .text               c_w.l(_wcrtomb.o)
    0x08007cc2   0x0000000e   Code   RO         1339    .text               c_w.l(defsig_rtmem_outer.o)
    0x08007cd0   0x0000004a   Code   RO         1361    .text               c_w.l(sys_stackheap_outer.o)
    0x08007d1a   0x00000002   PAD
    0x08007d1c   0x00000010   Code   RO         1363    .text               c_w.l(rt_ctype_table.o)
    0x08007d2c   0x00000008   Code   RO         1372    .text               c_w.l(rt_locale_intlibspace.o)
    0x08007d34   0x00000080   Code   RO         1376    .text               c_w.l(_printf_fp_infnan.o)
    0x08007db4   0x000004a4   Code   RO         1378    .text               c_w.l(scanf_fp.o)
    0x08008258   0x000000dc   Code   RO         1380    .text               c_w.l(bigflt0.o)
    0x08008334   0x0000000c   Code   RO         1405    .text               c_w.l(exit.o)
    0x08008340   0x0000000a   Code   RO         1407    .text               c_w.l(defsig_exit.o)
    0x0800834a   0x00000002   PAD
    0x0800834c   0x00000050   Code   RO         1409    .text               c_w.l(defsig_rtmem_inner.o)
    0x0800839c   0x00000032   Code   RO         1436    .text               c_w.l(defsig_general.o)
    0x080083ce   0x00000002   PAD
    0x080083d0   0x00000318   Code   RO         1481    .text               c_w.l(scanf_hexfp.o)
    0x080086e8   0x00000134   Code   RO         1483    .text               c_w.l(scanf_infnan.o)
    0x0800881c   0x00000026   Code   RO         1497    .text               c_w.l(llshl.o)
    0x08008842   0x0000001c   Code   RO         1499    .text               c_w.l(_chval.o)
    0x0800885e   0x0000003e   Code   RO         1383    CL$$btod_d2e        c_w.l(btod.o)
    0x0800889c   0x00000046   Code   RO         1385    CL$$btod_d2e_denorm_low  c_w.l(btod.o)
    0x080088e2   0x00000060   Code   RO         1384    CL$$btod_d2e_norm_op1  c_w.l(btod.o)
    0x08008942   0x00000338   Code   RO         1393    CL$$btod_div_common  c_w.l(btod.o)
    0x08008c7a   0x00000002   PAD
    0x08008c7c   0x00000054   Code   RO         1391    CL$$btod_e2d        c_w.l(btod.o)
    0x08008cd0   0x000000c6   Code   RO         1390    CL$$btod_e2e        c_w.l(btod.o)
    0x08008d96   0x00000028   Code   RO         1387    CL$$btod_ediv       c_w.l(btod.o)
    0x08008dbe   0x00000028   Code   RO         1389    CL$$btod_edivd      c_w.l(btod.o)
    0x08008de6   0x00000028   Code   RO         1386    CL$$btod_emul       c_w.l(btod.o)
    0x08008e0e   0x00000028   Code   RO         1388    CL$$btod_emuld      c_w.l(btod.o)
    0x08008e36   0x00000244   Code   RO         1392    CL$$btod_mult_common  c_w.l(btod.o)
    0x0800907a   0x00000028   Code   RO         1255    i.__ARM_fpclassify  m_ws.l(fpclassify.o)
    0x080090a2   0x00000002   PAD
    0x080090a4   0x00000388   Code   RO         1260    i.__ieee754_rem_pio2  m_ws.l(rred.o)
    0x0800942c   0x000000fc   Code   RO         1238    i.__kernel_cos      m_ws.l(cos_i.o)
    0x08009528   0x000000aa   Code   RO         1257    i.__kernel_poly     m_ws.l(poly.o)
    0x080095d2   0x00000002   PAD
    0x080095d4   0x000000ec   Code   RO         1265    i.__kernel_sin      m_ws.l(sin_i.o)
    0x080096c0   0x00000006   Code   RO         1242    i.__mathlib_dbl_infnan  m_ws.l(dunder.o)
    0x080096c6   0x00000004   Code   RO         1243    i.__mathlib_dbl_infnan2  m_ws.l(dunder.o)
    0x080096ca   0x0000000c   Code   RO         1244    i.__mathlib_dbl_invalid  m_ws.l(dunder.o)
    0x080096d6   0x0000000e   Code   RO         1245    i.__mathlib_dbl_overflow  m_ws.l(dunder.o)
    0x080096e4   0x00000010   Code   RO         1247    i.__mathlib_dbl_underflow  m_ws.l(dunder.o)
    0x080096f4   0x00000010   Code   RO         1468    i.__mathlib_narrow  m_ws.l(narrow.o)
    0x08009704   0x00000088   Code   RO         1469    i.__mathlib_tofloat  m_ws.l(narrow.o)
    0x0800978c   0x00000016   Code   RO         1519    i.__support_ldexp   m_ws.l(ldexp.o)
    0x080097a2   0x0000000e   Code   RO          945    i._is_digit         c_w.l(__printf_wp.o)
    0x080097b0   0x00000270   Code   RO         1035    i.asin              m_ws.l(asin.o)
    0x08009a20   0x00000220   Code   RO         1045    i.atan              m_ws.l(atan.o)
    0x08009c40   0x00000180   Code   RO         1055    i.atan2             m_ws.l(atan2.o)
    0x08009dc0   0x0000002a   Code   RO         1063    i.atof              m_ws.l(atof.o)
    0x08009dea   0x00000002   PAD
    0x08009dec   0x0000009c   Code   RO         1067    i.cos               m_ws.l(cos.o)
    0x08009e88   0x00000058   Code   RO         1494    i.frexp             m_ws.l(frexp.o)
    0x08009ee0   0x00000074   Code   RO         1520    i.ldexp             m_ws.l(ldexp.o)
    0x08009f54   0x000000a0   Code   RO         1075    i.sin               m_ws.l(sin.o)
    0x08009ff4   0x0000004c   Code   RO         1272    i.sqrt              m_ws.l(sqrt.o)
    0x0800a040   0x0000002c   Code   RO         1337    locale$$code        c_w.l(lc_numeric_c.o)
    0x0800a06c   0x0000002c   Code   RO         1432    locale$$code        c_w.l(lc_ctype_c.o)
    0x0800a098   0x00000062   Code   RO          974    x$fpl$d2f           fz_ws.l(d2f.o)
    0x0800a0fa   0x00000002   PAD
    0x0800a0fc   0x00000150   Code   RO          976    x$fpl$dadd          fz_ws.l(daddsub_clz.o)
    0x0800a24c   0x00000010   Code   RO         1348    x$fpl$dcheck1       fz_ws.l(dcheck1.o)
    0x0800a25c   0x00000018   Code   RO         1221    x$fpl$dcmpinf       fz_ws.l(dcmpi.o)
    0x0800a274   0x000002b0   Code   RO          983    x$fpl$ddiv          fz_ws.l(ddiv.o)
    0x0800a524   0x00000078   Code   RO         1489    x$fpl$deqf          fz_ws.l(deqf.o)
    0x0800a59c   0x0000005e   Code   RO         1350    x$fpl$dfix          fz_ws.l(dfix.o)
    0x0800a5fa   0x00000002   PAD
    0x0800a5fc   0x0000005a   Code   RO          986    x$fpl$dfixu         fz_ws.l(dfixu.o)
    0x0800a656   0x0000002e   Code   RO          991    x$fpl$dflt          fz_ws.l(dflt_clz.o)
    0x0800a684   0x00000026   Code   RO          990    x$fpl$dfltu         fz_ws.l(dflt_clz.o)
    0x0800a6aa   0x00000002   PAD
    0x0800a6ac   0x00000078   Code   RO          996    x$fpl$dleqf         fz_ws.l(dleqf.o)
    0x0800a724   0x00000154   Code   RO          998    x$fpl$dmul          fz_ws.l(dmul.o)
    0x0800a878   0x0000009c   Code   RO         1223    x$fpl$dnaninf       fz_ws.l(dnaninf.o)
    0x0800a914   0x0000000c   Code   RO         1225    x$fpl$dretinf       fz_ws.l(dretinf.o)
    0x0800a920   0x0000006c   Code   RO         1491    x$fpl$drleqf        fz_ws.l(drleqf.o)
    0x0800a98c   0x00000016   Code   RO          977    x$fpl$drsb          fz_ws.l(daddsub_clz.o)
    0x0800a9a2   0x00000002   PAD
    0x0800a9a4   0x000001cc   Code   RO         1354    x$fpl$dsqrt         fz_ws.l(dsqrt_noumaal.o)
    0x0800ab70   0x000001d4   Code   RO          978    x$fpl$dsub          fz_ws.l(daddsub_clz.o)
    0x0800ad44   0x00000056   Code   RO         1000    x$fpl$f2d           fz_ws.l(f2d.o)
    0x0800ad9a   0x00000002   PAD
    0x0800ad9c   0x000000c4   Code   RO         1002    x$fpl$fadd          fz_ws.l(faddsub_clz.o)
    0x0800ae60   0x00000018   Code   RO         1227    x$fpl$fcmpinf       fz_ws.l(fcmpi.o)
    0x0800ae78   0x00000184   Code   RO         1009    x$fpl$fdiv          fz_ws.l(fdiv.o)
    0x0800affc   0x00000068   Code   RO         1012    x$fpl$feqf          fz_ws.l(feqf.o)
    0x0800b064   0x00000036   Code   RO         1014    x$fpl$ffix          fz_ws.l(ffix.o)
    0x0800b09a   0x00000002   PAD
    0x0800b09c   0x0000003e   Code   RO         1018    x$fpl$ffixu         fz_ws.l(ffixu.o)
    0x0800b0da   0x00000002   PAD
    0x0800b0dc   0x00000030   Code   RO         1023    x$fpl$fflt          fz_ws.l(fflt_clz.o)
    0x0800b10c   0x00000026   Code   RO         1022    x$fpl$ffltu         fz_ws.l(fflt_clz.o)
    0x0800b132   0x00000002   PAD
    0x0800b134   0x00000068   Code   RO         1028    x$fpl$fleqf         fz_ws.l(fleqf.o)
    0x0800b19c   0x00000102   Code   RO         1030    x$fpl$fmul          fz_ws.l(fmul.o)
    0x0800b29e   0x0000008c   Code   RO         1229    x$fpl$fnaninf       fz_ws.l(fnaninf.o)
    0x0800b32a   0x0000000a   Code   RO         1231    x$fpl$fretinf       fz_ws.l(fretinf.o)
    0x0800b334   0x00000062   Code   RO         1032    x$fpl$frleqf        fz_ws.l(frleqf.o)
    0x0800b396   0x00000002   PAD
    0x0800b398   0x000000ea   Code   RO         1004    x$fpl$fsub          fz_ws.l(faddsub_clz.o)
    0x0800b482   0x00000004   Code   RO         1233    x$fpl$printf1       fz_ws.l(printf1.o)
    0x0800b486   0x00000064   Code   RO         1423    x$fpl$retnan        fz_ws.l(retnan.o)
    0x0800b4ea   0x0000005c   Code   RO         1235    x$fpl$scalbn        fz_ws.l(scalbn.o)
    0x0800b546   0x00000004   Code   RO         1358    x$fpl$scanf1        fz_ws.l(scanf1.o)
    0x0800b54a   0x00000008   Code   RO         1460    x$fpl$scanf2        fz_ws.l(scanf2.o)
    0x0800b552   0x00000030   Code   RO         1466    x$fpl$trapveneer    fz_ws.l(trapv.o)
    0x0800b582   0x00000000   Code   RO         1237    x$fpl$usenofp       fz_ws.l(usenofp.o)
    0x0800b582   0x00000002   PAD
    0x0800b584   0x0000004c   Data   RO          260    .constdata          control_motor.o
    0x0800b5d0   0x00000bf6   Data   RO          421    .constdata          inv_mpu_dmp_motion_driver.o
    0x0800c1c6   0x00000002   PAD
    0x0800c1c8   0x00000050   Data   RO          447    .constdata          inv_mpu.o
    0x0800c218   0x00000028   Data   RO          933    .constdata          c_w.l(_printf_hex_int_ll_ptr.o)
    0x0800c240   0x00000011   Data   RO          953    .constdata          c_w.l(__printf_flags_ss_wp.o)
    0x0800c251   0x00000007   PAD
    0x0800c258   0x00000050   Data   RO         1036    .constdata          m_ws.l(asin.o)
    0x0800c2a8   0x00000098   Data   RO         1046    .constdata          m_ws.l(atan.o)
    0x0800c340   0x00000008   Data   RO         1139    .constdata          c_w.l(_printf_wctomb.o)
    0x0800c348   0x00000030   Data   RO         1239    .constdata          m_ws.l(cos_i.o)
    0x0800c378   0x00000008   Data   RO         1259    .constdata          m_ws.l(qnan.o)
    0x0800c380   0x000000c8   Data   RO         1262    .constdata          m_ws.l(rred.o)
    0x0800c448   0x00000028   Data   RO         1266    .constdata          m_ws.l(sin_i.o)
    0x0800c470   0x00000094   Data   RO         1381    .constdata          c_w.l(bigflt0.o)
    0x0800c504   0x0000004d   Data   RO          448    .conststring        inv_mpu.o
    0x0800c551   0x00000003   PAD
    0x0800c554   0x00000020   Data   RO         1530    Region$$Table       anon$$obj.o
    0x0800c574   0x00000008   Data   RO         1457    c$$dinf             fz_ws.l(fpconst.o)
    0x0800c57c   0x0000001c   Data   RO         1336    locale$$data        c_w.l(lc_numeric_c.o)
    0x0800c598   0x00000110   Data   RO         1431    locale$$data        c_w.l(lc_ctype_c.o)


    Execution Region RW_IRAM1 (Base: 0x20000000, Size: 0x00000a20, Max: 0x0000c000, ABSOLUTE, COMPRESSED[0x000000b0])

    Base Addr    Size         Type   Attr      Idx    E Section Name        Object

    0x20000000   0x0000001c   Data   RW            3    .data               main.o
    0x2000001c   0x00000014   Data   RW          183    .data               system_stm32f10x.o
    0x20000030   0x0000001c   Data   RW          261    .data               control_motor.o
    0x2000004c   0x000001bc   Data   RW          373    .data               usart2.o
    0x20000208   0x00000035   Data   RW          449    .data               inv_mpu.o
    0x2000023d   0x00000001   PAD
    0x2000023e   0x00000004   Data   RW          489    .data               delay.o
    0x20000242   0x00000002   PAD
    0x20000244   0x00000006   Data   RW          521    .data               usart.o
    0x2000024a   0x00000014   Data   RW          572    .data               stm32f10x_rcc.o
    0x2000025e   0x00000002   PAD
    0x20000260   0x00000040   Zero   RW            2    .bss                main.o
    0x200002a0   0x000000fc   Zero   RW          372    .bss                usart2.o
    0x2000039c   0x00000010   Zero   RW          420    .bss                inv_mpu_dmp_motion_driver.o
    0x200003ac   0x00000010   Zero   RW          471    .bss                outputdata.o
    0x200003bc   0x00000060   Zero   RW         1282    .bss                c_w.l(libspace.o)
    0x2000041c   0x00000004   PAD
    0x20000420   0x00000200   Zero   RW          553    HEAP                startup_stm32f10x_hd.o
    0x20000620   0x00000400   Zero   RW          552    STACK               startup_stm32f10x_hd.o


==============================================================================

Image component sizes


      Code (inc. data)   RO Data    RW Data    ZI Data      Debug   Object Name

      1500        174         76         28          0       2543   control_motor.o
       212         18          0          4          0        983   delay.o
      8852        198        157         53          0      23177   inv_mpu.o
      3440        126       3062          0         16      15027   inv_mpu_dmp_motion_driver.o
       656        130          0          0          0        948   key.o
       324         70          0         28         64     254392   main.o
       220         22          0          0          0       1761   misc.o
       872         18          0          0          0       4119   mpu6050.o
       592         14          0          0          0       2018   mpuiic.o
       256          8          0          0         16       1626   outputdata.o
       200         10          0          0          0       1493   pid.o
       448         12          0          0          0       1154   pwm.o
        64         26        304          0       1536        784   startup_stm32f10x_hd.o
       860         38          0          0          0       5605   stm32f10x_gpio.o
        26          0          0          0          0       1162   stm32f10x_it.o
       932         36          0         20          0       8756   stm32f10x_rcc.o
      3610         88          0          0          0      22088   stm32f10x_tim.o
      1032         22          0          0          0       8332   stm32f10x_usart.o
         0          0          0          0          0         32   sys.o
       480         38          0         20          0       1683   system_stm32f10x.o
       244         30          0          0          0       1034   tim.o
       196          8          0          6          0       2993   usart.o
       952        106          0        444        252       4635   usart2.o
       748        252          0          0          0       2268   usart_function.o

    ----------------------------------------------------------------------
     26718       1444       3636        608       1884     368613   Object Totals
         0          0         32          0          0          0   (incl. Generated)
         2          0          5          5          0          0   (incl. Padding)

    ----------------------------------------------------------------------

      Code (inc. data)   RO Data    RW Data    ZI Data      Debug   Library Member Name

        24          4          0          0          0         84   __2printf.o
        90          0          0          0          0          0   __dczerorl2.o
         8          0          0          0          0         68   __main.o
       392          4         17          0          0         92   __printf_flags_ss_wp.o
        14          0          0          0          0         68   __printf_wp.o
         0          0          0          0          0          0   __rtentry.o
        12          0          0          0          0          0   __rtentry2.o
         6          0          0          0          0          0   __rtentry4.o
        52          8          0          0          0          0   __scatter.o
        28          0          0          0          0          0   __scatter_zi.o
        28          0          0          0          0         68   _chval.o
         6          0          0          0          0          0   _printf_a.o
         6          0          0          0          0          0   _printf_c.o
        44          0          0          0          0        108   _printf_char.o
        48          6          0          0          0         96   _printf_char_common.o
        36          4          0          0          0         80   _printf_char_file.o
        40          0          0          0          0         68   _printf_charcount.o
         6          0          0          0          0          0   _printf_d.o
       120         16          0          0          0         92   _printf_dec.o
         6          0          0          0          0          0   _printf_e.o
         6          0          0          0          0          0   _printf_f.o
      1050          0          0          0          0        216   _printf_fp_dec.o
       128         16          0          0          0         84   _printf_fp_infnan.o
         6          0          0          0          0          0   _printf_g.o
       148          4         40          0          0        160   _printf_hex_int_ll_ptr.o
         6          0          0          0          0          0   _printf_i.o
       178          0          0          0          0         88   _printf_intcommon.o
        10          0          0          0          0          0   _printf_l.o
         6          0          0          0          0          0   _printf_lc.o
        10          0          0          0          0          0   _printf_ll.o
         6          0          0          0          0          0   _printf_lld.o
         6          0          0          0          0          0   _printf_lli.o
         6          0          0          0          0          0   _printf_llo.o
         6          0          0          0          0          0   _printf_llu.o
         6          0          0          0          0          0   _printf_llx.o
       124         16          0          0          0         92   _printf_longlong_dec.o
         6          0          0          0          0          0   _printf_ls.o
         6          0          0          0          0          0   _printf_n.o
         6          0          0          0          0          0   _printf_o.o
       112          8          0          0          0        124   _printf_oct_int_ll.o
         6          0          0          0          0          0   _printf_p.o
        78          0          0          0          0        108   _printf_pad.o
         0          0          0          0          0          0   _printf_percent.o
         4          0          0          0          0          0   _printf_percent_end.o
         6          0          0          0          0          0   _printf_s.o
        82          0          0          0          0         80   _printf_str.o
        36          0          0          0          0         84   _printf_truncate.o
         6          0          0          0          0          0   _printf_u.o
        44          0          0          0          0        108   _printf_wchar.o
       188          6          8          0          0         92   _printf_wctomb.o
         6          0          0          0          0          0   _printf_x.o
        22          0          0          0          0        100   _rserrno.o
        64          0          0          0          0         84   _sgetc.o
        16          0          0          0          0         68   _snputc.o
        10          0          0          0          0         68   _sputc.o
        64          0          0          0          0         92   _wcrtomb.o
         8          0          0          0          0         68   abs.o
        16          0          0          0          0         68   aeabi_memset.o
       220          4        148          0          0         96   bigflt0.o
      2074        132          0          0          0        940   btod.o
        52          4          0          0          0         80   c89vsnprintf.o
        10          0          0          0          0         68   defsig_exit.o
        50          0          0          0          0         88   defsig_general.o
        80         58          0          0          0         76   defsig_rtmem_inner.o
        14          0          0          0          0         80   defsig_rtmem_outer.o
        12          0          0          0          0         72   exit.o
         8          0          0          0          0         68   ferror.o
        94          0          0          0          0         80   h1_alloc.o
        52          0          0          0          0         68   h1_extend.o
        78          0          0          0          0         80   h1_free.o
        14          0          0          0          0         84   h1_init.o
         6          0          0          0          0        152   heapauxi.o
         4          0          0          0          0        136   hguard.o
       138          0          0          0          0        168   init_alloc.o
        18          0          0          0          0         76   isspace.o
        44         10        272          0          0         76   lc_ctype_c.o
        44         10         28          0          0         76   lc_numeric_c.o
         2          0          0          0          0          0   libinit.o
        38          0          0          0          0          0   libinit2.o
         2          0          0          0          0          0   libshutdown.o
         2          0          0          0          0          0   libshutdown2.o
         8          4          0          0         96         68   libspace.o
        72          0          0          0          0         76   llsdiv.o
        38          0          0          0          0         68   llshl.o
       138          0          0          0          0         80   lludiv10.o
       238          0          0          0          0        100   lludivv7m.o
         0          0          0          0          0          0   maybetermalloc1.o
        88          0          0          0          0         76   memcmp.o
        16          4          0          0          0         76   rt_ctype_table.o
         8          4          0          0          0         68   rt_errno_addr_intlibspace.o
         8          4          0          0          0         68   rt_heap_descriptor_intlibspace.o
         8          4          0          0          0         68   rt_locale_intlibspace.o
        68          0          0          0          0         68   rt_memclr.o
        78          0          0          0          0         80   rt_memclr_w.o
       100          0          0          0          0         80   rt_memcpy_w.o
         2          0          0          0          0          0   rtexit.o
        10          0          0          0          0          0   rtexit2.o
      1188         12          0          0          0        148   scanf_fp.o
       792         14          0          0          0        100   scanf_hexfp.o
       308         16          0          0          0        100   scanf_infnan.o
       128          0          0          0          0         68   strcmpv7m.o
       160         12          0          0          0        120   strtod.o
        74          0          0          0          0         80   sys_stackheap_outer.o
         2          0          0          0          0         68   use_no_semi.o
         2          0          0          0          0         68   use_no_semi_2.o
        98          4          0          0          0         92   d2f.o
       826         16          0          0          0        348   daddsub_clz.o
        16          4          0          0          0         68   dcheck1.o
        24          0          0          0          0         68   dcmpi.o
       688        140          0          0          0        208   ddiv.o
       120          4          0          0          0         92   deqf.o
        94          4          0          0          0         92   dfix.o
        90          4          0          0          0         92   dfixu.o
        84          0          0          0          0        136   dflt_clz.o
       120          4          0          0          0         92   dleqf.o
       340         12          0          0          0        104   dmul.o
       156          4          0          0          0         92   dnaninf.o
        12          0          0          0          0         68   dretinf.o
       108          0          0          0          0         80   drleqf.o
       460         56          0          0          0        120   dsqrt_noumaal.o
        86          4          0          0          0         84   f2d.o
       430          8          0          0          0        168   faddsub_clz.o
        24          0          0          0          0         68   fcmpi.o
       388         76          0          0          0         96   fdiv.o
       104          4          0          0          0         84   feqf.o
        54          4          0          0          0         84   ffix.o
        62          4          0          0          0         84   ffixu.o
        86          0          0          0          0        136   fflt_clz.o
       104          4          0          0          0         84   fleqf.o
       258          4          0          0          0         84   fmul.o
       140          4          0          0          0         84   fnaninf.o
         0          0          8          0          0          0   fpconst.o
        10          0          0          0          0         68   fretinf.o
        98          0          0          0          0         68   frleqf.o
         4          0          0          0          0         68   printf1.o
       100          0          0          0          0         68   retnan.o
        92          0          0          0          0         68   scalbn.o
         4          0          0          0          0         68   scanf1.o
         8          0          0          0          0         84   scanf2.o
        48          0          0          0          0         68   trapv.o
         0          0          0          0          0          0   usenofp.o
       624         52         80          0          0        168   asin.o
       544         70        152          0          0        124   atan.o
       384         38          0          0          0        144   atan2.o
        42          0          0          0          0         84   atof.o
       156          8          0          0          0        104   cos.o
       252         22         48          0          0        124   cos_i.o
        52          6          0          0          0        340   dunder.o
        40          0          0          0          0         68   fpclassify.o
        88          8          0          0          0         76   frexp.o
       138          0          0          0          0        160   ldexp.o
       152          4          0          0          0        168   narrow.o
       170          0          0          0          0         96   poly.o
         0          0          8          0          0          0   qnan.o
       904         76        200          0          0        140   rred.o
       160         10          0          0          0        108   sin.o
       236         12         40          0          0        128   sin_i.o
        76          0          0          0          0         84   sqrt.o

    ----------------------------------------------------------------------
     19446       1056       1056          0        100      12384   Library Totals
        48          2          7          0          4          0   (incl. Padding)

    ----------------------------------------------------------------------

      Code (inc. data)   RO Data    RW Data    ZI Data      Debug   Library Name

     10044        384        513          0         96       6900   c_w.l
      5336        364          8          0          0       3368   fz_ws.l
      4018        306        528          0          0       2116   m_ws.l

    ----------------------------------------------------------------------
     19446       1056       1056          0        100      12384   Library Totals

    ----------------------------------------------------------------------

==============================================================================


      Code (inc. data)   RO Data    RW Data    ZI Data      Debug   

     46164       2500       4692        608       1984     372153   Grand Totals
     46164       2500       4692        176       1984     372153   ELF Image Totals (compressed)
     46164       2500       4692        176          0          0   ROM Totals

==============================================================================

    Total RO  Size (Code + RO Data)                50856 (  49.66kB)
    Total RW  Size (RW Data + ZI Data)              2592 (   2.53kB)
    Total ROM Size (Code + RO Data + RW Data)      51032 (  49.84kB)

==============================================================================

